{
  "contractName": "AdvancedPool",
  "abi": [
    {
      "anonymous": false,
      "inputs": [
        {
          "indexed": false,
          "internalType": "address",
          "name": "user",
          "type": "address"
        },
        {
          "indexed": false,
          "internalType": "address",
          "name": "pool",
          "type": "address"
        },
        {
          "indexed": false,
          "internalType": "uint256",
          "name": "amount",
          "type": "uint256"
        }
      ],
      "name": "poolDeposit",
      "type": "event"
    },
    {
      "anonymous": false,
      "inputs": [
        {
          "indexed": false,
          "internalType": "address",
          "name": "user",
          "type": "address"
        },
        {
          "indexed": false,
          "internalType": "address",
          "name": "pool",
          "type": "address"
        },
        {
          "indexed": false,
          "internalType": "uint256",
          "name": "amount",
          "type": "uint256"
        }
      ],
      "name": "poolWithdrawal",
      "type": "event"
    },
    {
      "anonymous": false,
      "inputs": [
        {
          "indexed": false,
          "internalType": "address",
          "name": "user",
          "type": "address"
        },
        {
          "indexed": false,
          "internalType": "uint256",
          "name": "amount",
          "type": "uint256"
        }
      ],
      "name": "userDeposits",
      "type": "event"
    },
    {
      "anonymous": false,
      "inputs": [
        {
          "indexed": false,
          "internalType": "address",
          "name": "user",
          "type": "address"
        },
        {
          "indexed": false,
          "internalType": "uint256",
          "name": "amount",
          "type": "uint256"
        }
      ],
      "name": "userWithdrawal",
      "type": "event"
    },
    {
      "stateMutability": "payable",
      "type": "receive",
      "payable": true
    },
    {
      "inputs": [
        {
          "internalType": "contract IERC20",
          "name": "_coin",
          "type": "address"
        },
        {
          "internalType": "contract IERC20",
          "name": "_poolToken",
          "type": "address"
        },
        {
          "internalType": "uint256",
          "name": "_minLiquidity",
          "type": "uint256"
        },
        {
          "internalType": "uint256",
          "name": "_maxLiquidity",
          "type": "uint256"
        },
        {
          "internalType": "uint256",
          "name": "_withdrawFees",
          "type": "uint256"
        },
        {
          "internalType": "uint256",
          "name": "_depositFees",
          "type": "uint256"
        },
        {
          "internalType": "uint256",
          "name": "_maxWithdrawalAllowed",
          "type": "uint256"
        },
        {
          "internalType": "address[]",
          "name": "_owners",
          "type": "address[]"
        },
        {
          "internalType": "contract DepositStrategy",
          "name": "_depositStrategy",
          "type": "address"
        },
        {
          "internalType": "contract UniswapV2Router02",
          "name": "_uniswapRouter",
          "type": "address"
        },
        {
          "internalType": "contract Controller",
          "name": "_controller",
          "type": "address"
        }
      ],
      "name": "initialize",
      "outputs": [],
      "stateMutability": "nonpayable",
      "type": "function"
    },
    {
      "inputs": [
        {
          "internalType": "uint256",
          "name": "amount",
          "type": "uint256"
        }
      ],
      "name": "stake",
      "outputs": [
        {
          "internalType": "uint256",
          "name": "",
          "type": "uint256"
        }
      ],
      "stateMutability": "nonpayable",
      "type": "function"
    },
    {
      "inputs": [
        {
          "internalType": "uint256",
          "name": "amount",
          "type": "uint256"
        }
      ],
      "name": "unstake",
      "outputs": [
        {
          "internalType": "uint256",
          "name": "",
          "type": "uint256"
        }
      ],
      "stateMutability": "nonpayable",
      "type": "function"
    },
    {
      "inputs": [
        {
          "internalType": "uint256",
          "name": "minMintAmount",
          "type": "uint256"
        }
      ],
      "name": "addToStrategy",
      "outputs": [
        {
          "internalType": "uint256",
          "name": "",
          "type": "uint256"
        }
      ],
      "stateMutability": "nonpayable",
      "type": "function"
    },
    {
      "inputs": [
        {
          "internalType": "uint256",
          "name": "maxBurnAmount",
          "type": "uint256"
        }
      ],
      "name": "removeFromStrategy",
      "outputs": [
        {
          "internalType": "uint256",
          "name": "",
          "type": "uint256"
        }
      ],
      "stateMutability": "nonpayable",
      "type": "function"
    },
    {
      "inputs": [
        {
          "internalType": "uint256",
          "name": "minAmount",
          "type": "uint256"
        }
      ],
      "name": "removeAllFromStrategy",
      "outputs": [],
      "stateMutability": "nonpayable",
      "type": "function"
    },
    {
      "inputs": [
        {
          "internalType": "uint256",
          "name": "_minLiquidity",
          "type": "uint256"
        },
        {
          "internalType": "uint256",
          "name": "_maxLiquidity",
          "type": "uint256"
        },
        {
          "internalType": "uint256",
          "name": "_maxWithdrawalAllowed",
          "type": "uint256"
        },
        {
          "internalType": "uint256",
          "name": "maxBurnOrMinMint",
          "type": "uint256"
        }
      ],
      "name": "updateLiquidityParam",
      "outputs": [
        {
          "internalType": "bool",
          "name": "",
          "type": "bool"
        }
      ],
      "stateMutability": "nonpayable",
      "type": "function"
    },
    {
      "inputs": [
        {
          "internalType": "uint256",
          "name": "_depositFees",
          "type": "uint256"
        },
        {
          "internalType": "uint256",
          "name": "_withdrawFees",
          "type": "uint256"
        }
      ],
      "name": "updateFees",
      "outputs": [
        {
          "internalType": "bool",
          "name": "",
          "type": "bool"
        }
      ],
      "stateMutability": "nonpayable",
      "type": "function"
    },
    {
      "inputs": [],
      "name": "changeLockStatus",
      "outputs": [
        {
          "internalType": "bool",
          "name": "",
          "type": "bool"
        }
      ],
      "stateMutability": "nonpayable",
      "type": "function"
    },
    {
      "inputs": [
        {
          "internalType": "address",
          "name": "newOwner",
          "type": "address"
        },
        {
          "internalType": "address",
          "name": "newSuperOwner",
          "type": "address"
        }
      ],
      "name": "updateOwners",
      "outputs": [
        {
          "internalType": "bool",
          "name": "",
          "type": "bool"
        }
      ],
      "stateMutability": "nonpayable",
      "type": "function"
    },
    {
      "inputs": [],
      "name": "getYield",
      "outputs": [],
      "stateMutability": "nonpayable",
      "type": "function"
    },
    {
      "inputs": [
        {
          "internalType": "contract DepositStrategy",
          "name": "_newStrategy",
          "type": "address"
        }
      ],
      "name": "updateStrategy",
      "outputs": [],
      "stateMutability": "nonpayable",
      "type": "function"
    },
    {
      "inputs": [],
      "name": "convertFeesToETH",
      "outputs": [],
      "stateMutability": "nonpayable",
      "type": "function"
    },
    {
      "inputs": [
        {
          "internalType": "uint256",
          "name": "amountOfStableCoins",
          "type": "uint256"
        }
      ],
      "name": "calculatePoolTokens",
      "outputs": [
        {
          "internalType": "uint256",
          "name": "",
          "type": "uint256"
        }
      ],
      "stateMutability": "view",
      "type": "function",
      "constant": true
    },
    {
      "inputs": [],
      "name": "stableCoinPrice",
      "outputs": [
        {
          "internalType": "uint256",
          "name": "",
          "type": "uint256"
        }
      ],
      "stateMutability": "view",
      "type": "function",
      "constant": true
    },
    {
      "inputs": [
        {
          "internalType": "uint256",
          "name": "amountOfPoolToken",
          "type": "uint256"
        }
      ],
      "name": "calculateStableCoins",
      "outputs": [
        {
          "internalType": "uint256",
          "name": "",
          "type": "uint256"
        }
      ],
      "stateMutability": "view",
      "type": "function",
      "constant": true
    },
    {
      "inputs": [],
      "name": "poolTokenPrice",
      "outputs": [
        {
          "internalType": "uint256",
          "name": "",
          "type": "uint256"
        }
      ],
      "stateMutability": "view",
      "type": "function",
      "constant": true
    },
    {
      "inputs": [],
      "name": "maxWithdrawal",
      "outputs": [
        {
          "internalType": "uint256",
          "name": "",
          "type": "uint256"
        }
      ],
      "stateMutability": "view",
      "type": "function",
      "constant": true
    },
    {
      "inputs": [],
      "name": "currentLiquidity",
      "outputs": [
        {
          "internalType": "uint256",
          "name": "",
          "type": "uint256"
        }
      ],
      "stateMutability": "view",
      "type": "function",
      "constant": true
    },
    {
      "inputs": [],
      "name": "idealAmount",
      "outputs": [
        {
          "internalType": "uint256",
          "name": "",
          "type": "uint256"
        }
      ],
      "stateMutability": "view",
      "type": "function",
      "constant": true
    },
    {
      "inputs": [],
      "name": "maxLiquidityAllowedInPool",
      "outputs": [
        {
          "internalType": "uint256",
          "name": "",
          "type": "uint256"
        }
      ],
      "stateMutability": "view",
      "type": "function",
      "constant": true
    },
    {
      "inputs": [],
      "name": "amountToDeposit",
      "outputs": [
        {
          "internalType": "uint256",
          "name": "",
          "type": "uint256"
        }
      ],
      "stateMutability": "view",
      "type": "function",
      "constant": true
    },
    {
      "inputs": [],
      "name": "minLiquidityToMaintainInPool",
      "outputs": [
        {
          "internalType": "uint256",
          "name": "",
          "type": "uint256"
        }
      ],
      "stateMutability": "view",
      "type": "function",
      "constant": true
    },
    {
      "inputs": [],
      "name": "amountToWithdraw",
      "outputs": [
        {
          "internalType": "uint256",
          "name": "",
          "type": "uint256"
        }
      ],
      "stateMutability": "view",
      "type": "function",
      "constant": true
    },
    {
      "inputs": [],
      "name": "lockStatus",
      "outputs": [
        {
          "internalType": "bool",
          "name": "",
          "type": "bool"
        }
      ],
      "stateMutability": "view",
      "type": "function",
      "constant": true
    },
    {
      "inputs": [],
      "name": "totalDeposit",
      "outputs": [
        {
          "internalType": "uint256",
          "name": "",
          "type": "uint256"
        }
      ],
      "stateMutability": "view",
      "type": "function",
      "constant": true
    },
    {
      "inputs": [],
      "name": "strategyDeposit",
      "outputs": [
        {
          "internalType": "uint256",
          "name": "",
          "type": "uint256"
        }
      ],
      "stateMutability": "view",
      "type": "function",
      "constant": true
    },
    {
      "inputs": [],
      "name": "feesCollected",
      "outputs": [
        {
          "internalType": "uint256",
          "name": "",
          "type": "uint256"
        }
      ],
      "stateMutability": "view",
      "type": "function",
      "constant": true
    },
    {
      "inputs": [],
      "name": "currentFees",
      "outputs": [
        {
          "internalType": "uint256",
          "name": "",
          "type": "uint256"
        },
        {
          "internalType": "uint256",
          "name": "",
          "type": "uint256"
        }
      ],
      "stateMutability": "view",
      "type": "function",
      "constant": true
    },
    {
      "inputs": [],
      "name": "currentLiquidityParams",
      "outputs": [
        {
          "internalType": "uint256",
          "name": "",
          "type": "uint256"
        },
        {
          "internalType": "uint256",
          "name": "",
          "type": "uint256"
        },
        {
          "internalType": "uint256",
          "name": "",
          "type": "uint256"
        }
      ],
      "stateMutability": "view",
      "type": "function",
      "constant": true
    },
    {
      "inputs": [],
      "name": "owners",
      "outputs": [
        {
          "internalType": "address",
          "name": "",
          "type": "address"
        },
        {
          "internalType": "address",
          "name": "",
          "type": "address"
        }
      ],
      "stateMutability": "view",
      "type": "function",
      "constant": true
    }
  ],
  "bytecode": "0x608060405234801561001057600080fd5b506152c4806100206000396000f3fe6080604052600436106101dc5760003560e01c806384159d1411610102578063d15359cc11610095578063f071db5a11610064578063f071db5a146106d7578063f6153ccd14610702578063fc0a497e1461072d578063fe135c0e1461076a576101e3565b8063d15359cc1461062b578063d395fbc514610658578063daccaf6314610683578063e4255342146106ac576101e3565b8063affe39c1116100d1578063affe39c114610580578063b4ad5e08146105ac578063c3c9f52b146105d7578063caa1d9c114610614576101e3565b806384159d14146104b25780638a98cdd4146104db5780638c0ff5b714610518578063a694fc3a14610543576101e3565b806346caf2ae1161017a5780636db79437116101495780636db79437146103f65780637039206b146104335780637260cc76146104705780637c2628711461049b576101e3565b806346caf2ae146103375780634b366863146103625780635b404bad1461039f5780635d9644c4146103ca576101e3565b806331dd132e116101b657806331dd132e1461027b5780633b35440a146102a65780633e89340f146102e35780634076245f1461030e576101e3565b8063077622a2146101e8578063269fa128146102135780632e17de781461023e576101e3565b366101e357005b600080fd5b3480156101f457600080fd5b506101fd610795565b60405161020a9190614f21565b60405180910390f35b34801561021f57600080fd5b506102286107d9565b6040516102359190614f21565b60405180910390f35b34801561024a57600080fd5b50610265600480360381019061026091906146a0565b610847565b6040516102729190614f21565b60405180910390f35b34801561028757600080fd5b50610290610cb9565b60405161029d9190614f21565b60405180910390f35b3480156102b257600080fd5b506102cd60048036038101906102c891906144c9565b610cd1565b6040516102da9190614d66565b60405180910390f35b3480156102ef57600080fd5b506102f8610f96565b6040516103059190614d66565b60405180910390f35b34801561031a57600080fd5b50610335600480360381019061033091906146a0565b610fbb565b005b34801561034357600080fd5b5061034c61143c565b6040516103599190614f21565b60405180910390f35b34801561036e57600080fd5b50610389600480360381019061038491906146a0565b61145a565b6040516103969190614f21565b60405180910390f35b3480156103ab57600080fd5b506103b4611855565b6040516103c19190614f21565b60405180910390f35b3480156103d657600080fd5b506103df611b20565b6040516103ed929190614f65565b60405180910390f35b34801561040257600080fd5b5061041d600480360381019061041891906146f2565b611b42565b60405161042a9190614d66565b60405180910390f35b34801561043f57600080fd5b5061045a600480360381019061045591906146a0565b611d93565b6040516104679190614f21565b60405180910390f35b34801561047c57600080fd5b5061048561233b565b6040516104929190614f21565b60405180910390f35b3480156104a757600080fd5b506104b0612366565b005b3480156104be57600080fd5b506104d960048036038101906104d49190614598565b612664565b005b3480156104e757600080fd5b5061050260048036038101906104fd91906146a0565b612922565b60405161050f9190614f21565b60405180910390f35b34801561052457600080fd5b5061052d6129f1565b60405161053a9190614f21565b60405180910390f35b34801561054f57600080fd5b5061056a600480360381019061056591906146a0565b612a3d565b6040516105779190614f21565b60405180910390f35b34801561058c57600080fd5b50610595612ccc565b6040516105a3929190614ceb565b60405180910390f35b3480156105b857600080fd5b506105c1612d2e565b6040516105ce9190614f21565b60405180910390f35b3480156105e357600080fd5b506105fe60048036038101906105f991906146a0565b612d59565b60405161060b9190614f21565b60405180910390f35b34801561062057600080fd5b50610629612e25565b005b34801561063757600080fd5b506106406134a7565b60405161064f93929190614fe8565b60405180910390f35b34801561066457600080fd5b5061066d6134d2565b60405161067a9190614d66565b60405180910390f35b34801561068f57600080fd5b506106aa60048036038101906106a5919061456f565b61374c565b005b3480156106b857600080fd5b506106c1613a0d565b6040516106ce9190614f21565b60405180910390f35b3480156106e357600080fd5b506106ec613cd8565b6040516106f99190614f21565b60405180910390f35b34801561070e57600080fd5b50610717613cf0565b6040516107249190614f21565b60405180910390f35b34801561073957600080fd5b50610754600480360381019061074f919061472e565b613d08565b6040516107619190614d66565b60405180910390f35b34801561077657600080fd5b5061077f61403c565b60405161078c9190614f21565b60405180910390f35b6000806107a0614072565b905080600401546002026107c58260080154836007015461409f90919063ffffffff16565b82600a015402816107d257fe5b0491505090565b6000806107e4614072565b90506107ee61233b565b6107f661143c565b11806108065750600081600c0154145b80610824575061081461143c565b61081c610795565b0381600c0154105b61083e5761083061143c565b610838610795565b03610841565b60005b91505090565b600080610852614072565b905080600e0160009054906101000a900460ff16156108a6576040517f08c379a000000000000000000000000000000000000000000000000000000000815260040161089d90614e81565b60405180910390fd5b60006108b0614072565b90506108ba6129f1565b8411156108fc576040517f08c379a00000000000000000000000000000000000000000000000000000000081526004016108f390614e21565b60405180910390fd5b8060000160019054906101000a900473ffffffffffffffffffffffffffffffffffffffff1673ffffffffffffffffffffffffffffffffffffffff166370a08231306040518263ffffffff1660e01b81526004016109599190614c39565b60206040518083038186803b15801561097157600080fd5b505afa158015610985573d6000803e3d6000fd5b505050506040513d601f19601f820116820180604052508101906109a991906146c9565b8411156109eb576040517f08c379a00000000000000000000000000000000000000000000000000000000081526004016109e290614e41565b60405180910390fd5b60006109f685612d59565b90508160010160009054906101000a900473ffffffffffffffffffffffffffffffffffffffff1673ffffffffffffffffffffffffffffffffffffffff166370a08231336040518263ffffffff1660e01b8152600401610a559190614c39565b60206040518083038186803b158015610a6d57600080fd5b505afa158015610a81573d6000803e3d6000fd5b505050506040513d601f19601f82011682018060405250810190610aa591906146c9565b811115610ae7576040517f08c379a0000000000000000000000000000000000000000000000000000000008152600401610ade90614e61565b60405180910390fd5b600082600401548360060154870281610afc57fe5b0490508083600b01540183600b0181905550610b258684600a015461412790919063ffffffff16565b83600a01819055508260000160019054906101000a900473ffffffffffffffffffffffffffffffffffffffff1673ffffffffffffffffffffffffffffffffffffffff1663a9059cbb338389036040518363ffffffff1660e01b8152600401610b8e929190614cc2565b602060405180830381600087803b158015610ba857600080fd5b505af1158015610bbc573d6000803e3d6000fd5b505050506040513d601f19601f82011682018060405250810190610be09190614546565b508260010160009054906101000a900473ffffffffffffffffffffffffffffffffffffffff1673ffffffffffffffffffffffffffffffffffffffff16639dc29fac33846040518363ffffffff1660e01b8152600401610c40929190614cc2565b600060405180830381600087803b158015610c5a57600080fd5b505af1158015610c6e573d6000803e3d6000fd5b505050507f42b2a4ad2d4bdf57e819ccd3c6ce6d0a8d6d20b5d3dbf94ef2b05c42f523c6103387604051610ca3929190614cc2565b60405180910390a1808603945050505050919050565b600080610cc4614072565b905080600c015491505090565b600080610cdc614072565b90503373ffffffffffffffffffffffffffffffffffffffff1681600f0160009054906101000a900473ffffffffffffffffffffffffffffffffffffffff1673ffffffffffffffffffffffffffffffffffffffff1614610d70576040517f08c379a0000000000000000000000000000000000000000000000000000000008152600401610d6790614ea1565b60405180910390fd5b6000610d7a614072565b90506000610e463a610e388460100160009054906101000a900473ffffffffffffffffffffffffffffffffffffffff1673ffffffffffffffffffffffffffffffffffffffff166384e9a9016040518163ffffffff1660e01b8152600401602060405180830381600087803b158015610df157600080fd5b505af1158015610e05573d6000803e3d6000fd5b505050506040513d601f19601f82011682018060405250810190610e2991906146c9565b5a61409f90919063ffffffff16565b61417190919063ffffffff16565b90508582600e0160016101000a81548173ffffffffffffffffffffffffffffffffffffffff021916908373ffffffffffffffffffffffffffffffffffffffff1602179055508482600f0160006101000a81548173ffffffffffffffffffffffffffffffffffffffff021916908373ffffffffffffffffffffffffffffffffffffffff1602179055506000610ef5610ee63a5a61417190919063ffffffff16565b8361412790919063ffffffff16565b90508260100160009054906101000a900473ffffffffffffffffffffffffffffffffffffffff1673ffffffffffffffffffffffffffffffffffffffff16636c55068282336040518363ffffffff1660e01b8152600401610f56929190614f3c565b600060405180830381600087803b158015610f7057600080fd5b505af1158015610f84573d6000803e3d6000fd5b50505050600194505050505092915050565b600080610fa1614072565b905080600e0160009054906101000a900460ff1691505090565b6000610fc5614072565b905080600e0160009054906101000a900460ff1615611019576040517f08c379a000000000000000000000000000000000000000000000000000000000815260040161101090614e81565b60405180910390fd5b6000611023614072565b90503373ffffffffffffffffffffffffffffffffffffffff1681600f0160009054906101000a900473ffffffffffffffffffffffffffffffffffffffff1673ffffffffffffffffffffffffffffffffffffffff16146110b7576040517f08c379a00000000000000000000000000000000000000000000000000000000081526004016110ae90614ea1565b60405180910390fd5b60006110c1614072565b9050600061118d3a61117f8460100160009054906101000a900473ffffffffffffffffffffffffffffffffffffffff1673ffffffffffffffffffffffffffffffffffffffff166384e9a9016040518163ffffffff1660e01b8152600401602060405180830381600087803b15801561113857600080fd5b505af115801561114c573d6000803e3d6000fd5b505050506040513d601f19601f8201168201806040525081019061117091906146c9565b5a61409f90919063ffffffff16565b61417190919063ffffffff16565b9050600082600c0154116111d6576040517f08c379a00000000000000000000000000000000000000000000000000000000081526004016111cd90614de1565b60405180910390fd5b600082600c01819055508160020160009054906101000a900473ffffffffffffffffffffffffffffffffffffffff1673ffffffffffffffffffffffffffffffffffffffff1663958e2d31866040518263ffffffff1660e01b815260040161123d9190614f21565b600060405180830381600087803b15801561125757600080fd5b505af115801561126b573d6000803e3d6000fd5b505050507fe2da54b49c071dfc046fee542e5201277eee89662a48be76fe432bce2ce1443b338360020160009054906101000a900473ffffffffffffffffffffffffffffffffffffffff168460000160019054906101000a900473ffffffffffffffffffffffffffffffffffffffff1673ffffffffffffffffffffffffffffffffffffffff166370a08231306040518263ffffffff1660e01b81526004016113139190614c39565b60206040518083038186803b15801561132b57600080fd5b505afa15801561133f573d6000803e3d6000fd5b505050506040513d601f19601f8201168201806040525081019061136391906146c9565b60405161137293929190614c8b565b60405180910390a160006113a16113923a5a61417190919063ffffffff16565b8361412790919063ffffffff16565b90508260100160009054906101000a900473ffffffffffffffffffffffffffffffffffffffff1673ffffffffffffffffffffffffffffffffffffffff16636c55068282336040518363ffffffff1660e01b8152600401611402929190614f3c565b600060405180830381600087803b15801561141c57600080fd5b505af1158015611430573d6000803e3d6000fd5b50505050505050505050565b600080611447614072565b905080600c015481600a01540391505090565b600080611465614072565b905080600e0160009054906101000a900460ff16156114b9576040517f08c379a00000000000000000000000000000000000000000000000000000000081526004016114b090614e81565b60405180910390fd5b60006114c3614072565b90503373ffffffffffffffffffffffffffffffffffffffff1681600e0160019054906101000a900473ffffffffffffffffffffffffffffffffffffffff1673ffffffffffffffffffffffffffffffffffffffff1614611557576040517f08c379a000000000000000000000000000000000000000000000000000000000815260040161154e90614da1565b60405180910390fd5b6000611561614072565b9050600061162d3a61161f8460100160009054906101000a900473ffffffffffffffffffffffffffffffffffffffff1673ffffffffffffffffffffffffffffffffffffffff166384e9a9016040518163ffffffff1660e01b8152600401602060405180830381600087803b1580156115d857600080fd5b505af11580156115ec573d6000803e3d6000fd5b505050506040513d601f19601f8201168201806040525081019061161091906146c9565b5a61409f90919063ffffffff16565b61417190919063ffffffff16565b905060006116396107d9565b90506000811161167e576040517f08c379a000000000000000000000000000000000000000000000000000000000815260040161167590614de1565b60405180910390fd5b6116958184600c015461412790919063ffffffff16565b83600c01819055508260020160009054906101000a900473ffffffffffffffffffffffffffffffffffffffff1673ffffffffffffffffffffffffffffffffffffffff1663441a3e7082896040518363ffffffff1660e01b81526004016116fc929190614f65565b600060405180830381600087803b15801561171657600080fd5b505af115801561172a573d6000803e3d6000fd5b505050507fe2da54b49c071dfc046fee542e5201277eee89662a48be76fe432bce2ce1443b338460020160009054906101000a900473ffffffffffffffffffffffffffffffffffffffff168360405161178593929190614c8b565b60405180910390a160006117b46117a53a5a61417190919063ffffffff16565b8461412790919063ffffffff16565b90508360100160009054906101000a900473ffffffffffffffffffffffffffffffffffffffff1673ffffffffffffffffffffffffffffffffffffffff16636c55068282336040518363ffffffff1660e01b8152600401611815929190614f3c565b600060405180830381600087803b15801561182f57600080fd5b505af1158015611843573d6000803e3d6000fd5b50505050819650505050505050919050565b600080611860614072565b905060008160010160009054906101000a900473ffffffffffffffffffffffffffffffffffffffff1673ffffffffffffffffffffffffffffffffffffffff166318160ddd6040518163ffffffff1660e01b815260040160206040518083038186803b1580156118ce57600080fd5b505afa1580156118e2573d6000803e3d6000fd5b505050506040513d601f19601f8201168201806040525081019061190691906146c9565b14806119165750600081600a0154145b611a745780600a01548160010160009054906101000a900473ffffffffffffffffffffffffffffffffffffffff1673ffffffffffffffffffffffffffffffffffffffff166318160ddd6040518163ffffffff1660e01b815260040160206040518083038186803b15801561198957600080fd5b505afa15801561199d573d6000803e3d6000fd5b505050506040513d601f19601f820116820180604052508101906119c191906146c9565b8260000160019054906101000a900473ffffffffffffffffffffffffffffffffffffffff1673ffffffffffffffffffffffffffffffffffffffff1663313ce5676040518163ffffffff1660e01b815260040160206040518083038186803b158015611a2b57600080fd5b505afa158015611a3f573d6000803e3d6000fd5b505050506040513d601f19601f82011682018060405250810190611a6391906146c9565b600a0a0281611a6e57fe5b04611b1a565b8060000160019054906101000a900473ffffffffffffffffffffffffffffffffffffffff1673ffffffffffffffffffffffffffffffffffffffff1663313ce5676040518163ffffffff1660e01b815260040160206040518083038186803b158015611ade57600080fd5b505afa158015611af2573d6000803e3d6000fd5b505050506040513d601f19601f82011682018060405250810190611b1691906146c9565b600a0a5b91505090565b6000806000611b2d614072565b90508060050154816006015492509250509091565b600080611b4d614072565b90503373ffffffffffffffffffffffffffffffffffffffff1681600f0160009054906101000a900473ffffffffffffffffffffffffffffffffffffffff1673ffffffffffffffffffffffffffffffffffffffff1614611be1576040517f08c379a0000000000000000000000000000000000000000000000000000000008152600401611bd890614ea1565b60405180910390fd5b6000611beb614072565b90506000611cb73a611ca98460100160009054906101000a900473ffffffffffffffffffffffffffffffffffffffff1673ffffffffffffffffffffffffffffffffffffffff166384e9a9016040518163ffffffff1660e01b8152600401602060405180830381600087803b158015611c6257600080fd5b505af1158015611c76573d6000803e3d6000fd5b505050506040513d601f19601f82011682018060405250810190611c9a91906146c9565b5a61409f90919063ffffffff16565b61417190919063ffffffff16565b90508482600601819055508582600501819055506000611cf2611ce33a5a61417190919063ffffffff16565b8361412790919063ffffffff16565b90508260100160009054906101000a900473ffffffffffffffffffffffffffffffffffffffff1673ffffffffffffffffffffffffffffffffffffffff16636c55068282336040518363ffffffff1660e01b8152600401611d53929190614f3c565b600060405180830381600087803b158015611d6d57600080fd5b505af1158015611d81573d6000803e3d6000fd5b50505050600194505050505092915050565b600080611d9e614072565b905080600e0160009054906101000a900460ff1615611df2576040517f08c379a0000000000000000000000000000000000000000000000000000000008152600401611de990614e81565b60405180910390fd5b6000611dfc614072565b90503373ffffffffffffffffffffffffffffffffffffffff1681600e0160019054906101000a900473ffffffffffffffffffffffffffffffffffffffff1673ffffffffffffffffffffffffffffffffffffffff1614611e90576040517f08c379a0000000000000000000000000000000000000000000000000000000008152600401611e8790614da1565b60405180910390fd5b6000611e9a614072565b90506000611f663a611f588460100160009054906101000a900473ffffffffffffffffffffffffffffffffffffffff1673ffffffffffffffffffffffffffffffffffffffff166384e9a9016040518163ffffffff1660e01b8152600401602060405180830381600087803b158015611f1157600080fd5b505af1158015611f25573d6000803e3d6000fd5b505050506040513d601f19601f82011682018060405250810190611f4991906146c9565b5a61409f90919063ffffffff16565b61417190919063ffffffff16565b90506000611f7261403c565b905060008111611fb7576040517f08c379a0000000000000000000000000000000000000000000000000000000008152600401611fae90614d81565b60405180910390fd5b611fce8184600c015461409f90919063ffffffff16565b83600c01819055508260000160019054906101000a900473ffffffffffffffffffffffffffffffffffffffff1673ffffffffffffffffffffffffffffffffffffffff1663095ea7b38460020160009054906101000a900473ffffffffffffffffffffffffffffffffffffffff1660006040518363ffffffff1660e01b815260040161205a929190614d14565b602060405180830381600087803b15801561207457600080fd5b505af1158015612088573d6000803e3d6000fd5b505050506040513d601f19601f820116820180604052508101906120ac9190614546565b508260000160019054906101000a900473ffffffffffffffffffffffffffffffffffffffff1673ffffffffffffffffffffffffffffffffffffffff1663095ea7b38460020160009054906101000a900473ffffffffffffffffffffffffffffffffffffffff16836040518363ffffffff1660e01b8152600401612130929190614d3d565b602060405180830381600087803b15801561214a57600080fd5b505af115801561215e573d6000803e3d6000fd5b505050506040513d601f19601f820116820180604052508101906121829190614546565b508260020160009054906101000a900473ffffffffffffffffffffffffffffffffffffffff1673ffffffffffffffffffffffffffffffffffffffff1663e2bbb15882896040518363ffffffff1660e01b81526004016121e2929190614f65565b600060405180830381600087803b1580156121fc57600080fd5b505af1158015612210573d6000803e3d6000fd5b505050507f5123d8a168830852333177a82ac00938d8567897d76f68e27c135f5ca9776733338460020160009054906101000a900473ffffffffffffffffffffffffffffffffffffffff168360405161226b93929190614c8b565b60405180910390a1600061229a61228b3a5a61417190919063ffffffff16565b8461412790919063ffffffff16565b90508360100160009054906101000a900473ffffffffffffffffffffffffffffffffffffffff1673ffffffffffffffffffffffffffffffffffffffff16636c55068282336040518363ffffffff1660e01b81526004016122fb929190614f3c565b600060405180830381600087803b15801561231557600080fd5b505af1158015612329573d6000803e3d6000fd5b50505050819650505050505050919050565b600080612346614072565b90508060040154816007015482600a0154028161235f57fe5b0491505090565b6000612370614072565b90503373ffffffffffffffffffffffffffffffffffffffff1681600e0160019054906101000a900473ffffffffffffffffffffffffffffffffffffffff1673ffffffffffffffffffffffffffffffffffffffff1614612404576040517f08c379a00000000000000000000000000000000000000000000000000000000081526004016123fb90614da1565b60405180910390fd5b600061240e614072565b905060006124da3a6124cc8460100160009054906101000a900473ffffffffffffffffffffffffffffffffffffffff1673ffffffffffffffffffffffffffffffffffffffff166384e9a9016040518163ffffffff1660e01b8152600401602060405180830381600087803b15801561248557600080fd5b505af1158015612499573d6000803e3d6000fd5b505050506040513d601f19601f820116820180604052508101906124bd91906146c9565b5a61409f90919063ffffffff16565b61417190919063ffffffff16565b905060008260020160009054906101000a900473ffffffffffffffffffffffffffffffffffffffff1673ffffffffffffffffffffffffffffffffffffffff16632fbd70826040518163ffffffff1660e01b8152600401602060405180830381600087803b15801561254a57600080fd5b505af115801561255e573d6000803e3d6000fd5b505050506040513d601f19601f8201168201806040525081019061258291906146c9565b905061259b8184600a015461409f90919063ffffffff16565b83600a018190555060006125ca6125bb3a5a61417190919063ffffffff16565b8461412790919063ffffffff16565b90508360100160009054906101000a900473ffffffffffffffffffffffffffffffffffffffff1673ffffffffffffffffffffffffffffffffffffffff16636c55068282336040518363ffffffff1660e01b815260040161262b929190614f3c565b600060405180830381600087803b15801561264557600080fd5b505af1158015612659573d6000803e3d6000fd5b505050505050505050565b600061266e614072565b90508060000160009054906101000a900460ff16156126c2576040517f08c379a00000000000000000000000000000000000000000000000000000000081526004016126b990614ec1565b60405180910390fd5b846000815181106126cf57fe5b602002602001015181600e0160016101000a81548173ffffffffffffffffffffffffffffffffffffffff021916908373ffffffffffffffffffffffffffffffffffffffff1602179055508460018151811061272657fe5b602002602001015181600f0160006101000a81548173ffffffffffffffffffffffffffffffffffffffff021916908373ffffffffffffffffffffffffffffffffffffffff16021790555061271081600401819055508b8160000160016101000a81548173ffffffffffffffffffffffffffffffffffffffff021916908373ffffffffffffffffffffffffffffffffffffffff1602179055508a8160010160006101000a81548173ffffffffffffffffffffffffffffffffffffffff021916908373ffffffffffffffffffffffffffffffffffffffff160217905550898160070181905550888160080181905550878160060181905550868160050181905550838160020160006101000a81548173ffffffffffffffffffffffffffffffffffffffff021916908373ffffffffffffffffffffffffffffffffffffffff1602179055508581600d0181905550828160030160006101000a81548173ffffffffffffffffffffffffffffffffffffffff021916908373ffffffffffffffffffffffffffffffffffffffff160217905550818160100160006101000a81548173ffffffffffffffffffffffffffffffffffffffff021916908373ffffffffffffffffffffffffffffffffffffffff16021790555060018160000160006101000a81548160ff021916908315150217905550505050505050505050505050565b60008061292d614072565b90508060010160009054906101000a900473ffffffffffffffffffffffffffffffffffffffff1673ffffffffffffffffffffffffffffffffffffffff1663313ce5676040518163ffffffff1660e01b815260040160206040518083038186803b15801561299957600080fd5b505afa1580156129ad573d6000803e3d6000fd5b505050506040513d601f19601f820116820180604052508101906129d191906146c9565b600a0a6129dc613a0d565b8402816129e557fe5b04925082915050919050565b6000806129fc614072565b905080600d01546002612a0d61233b565b81612a1457fe5b0410612a245780600d0154612a37565b6002612a2e61233b565b81612a3557fe5b045b91505090565b600080612a48614072565b905080600e0160009054906101000a900460ff1615612a9c576040517f08c379a0000000000000000000000000000000000000000000000000000000008152600401612a9390614e81565b60405180910390fd5b60008311612adf576040517f08c379a0000000000000000000000000000000000000000000000000000000008152600401612ad690614e01565b60405180910390fd5b6000612ae9614072565b9050600081600401548260050154860281612b0057fe5b0490508082600b01540182600b01819055506000612b1f828703612d59565b9050612b3a82870384600a015461409f90919063ffffffff16565b83600a01819055508260000160019054906101000a900473ffffffffffffffffffffffffffffffffffffffff1673ffffffffffffffffffffffffffffffffffffffff166323b872dd3330896040518463ffffffff1660e01b8152600401612ba393929190614c54565b602060405180830381600087803b158015612bbd57600080fd5b505af1158015612bd1573d6000803e3d6000fd5b505050506040513d601f19601f82011682018060405250810190612bf59190614546565b508260010160009054906101000a900473ffffffffffffffffffffffffffffffffffffffff1673ffffffffffffffffffffffffffffffffffffffff166340c10f1933836040518363ffffffff1660e01b8152600401612c55929190614cc2565b600060405180830381600087803b158015612c6f57600080fd5b505af1158015612c83573d6000803e3d6000fd5b505050507f08f43333671aca8015183efb2197dac68519c827a11e6788eac8c80131169a643387604051612cb8929190614cc2565b60405180910390a180945050505050919050565b6000806000612cd9614072565b905080600e0160019054906101000a900473ffffffffffffffffffffffffffffffffffffffff1681600f0160009054906101000a900473ffffffffffffffffffffffffffffffffffffffff1692509250509091565b600080612d39614072565b90508060040154816008015482600a01540281612d5257fe5b0491505090565b600080612d64614072565b90508060000160019054906101000a900473ffffffffffffffffffffffffffffffffffffffff1673ffffffffffffffffffffffffffffffffffffffff1663313ce5676040518163ffffffff1660e01b815260040160206040518083038186803b158015612dd057600080fd5b505afa158015612de4573d6000803e3d6000fd5b505050506040513d601f19601f82011682018060405250810190612e0891906146c9565b600a0a612e13611855565b840281612e1c57fe5b04915050919050565b6000612e2f614072565b90503373ffffffffffffffffffffffffffffffffffffffff1681600e0160019054906101000a900473ffffffffffffffffffffffffffffffffffffffff1673ffffffffffffffffffffffffffffffffffffffff1614612ec3576040517f08c379a0000000000000000000000000000000000000000000000000000000008152600401612eba90614da1565b60405180910390fd5b6000612ecd614072565b90506000612f993a612f8b8460100160009054906101000a900473ffffffffffffffffffffffffffffffffffffffff1673ffffffffffffffffffffffffffffffffffffffff166384e9a9016040518163ffffffff1660e01b8152600401602060405180830381600087803b158015612f4457600080fd5b505af1158015612f58573d6000803e3d6000fd5b505050506040513d601f19601f82011682018060405250810190612f7c91906146c9565b5a61409f90919063ffffffff16565b61417190919063ffffffff16565b90506000600267ffffffffffffffff81118015612fb557600080fd5b50604051908082528060200260200182016040528015612fe45781602001602082028036833780820191505090505b509050600083600b01549050600084600b01819055508360000160019054906101000a900473ffffffffffffffffffffffffffffffffffffffff1673ffffffffffffffffffffffffffffffffffffffff1663095ea7b38560030160009054906101000a900473ffffffffffffffffffffffffffffffffffffffff1660006040518363ffffffff1660e01b815260040161307e929190614d14565b602060405180830381600087803b15801561309857600080fd5b505af11580156130ac573d6000803e3d6000fd5b505050506040513d601f19601f820116820180604052508101906130d09190614546565b508360000160019054906101000a900473ffffffffffffffffffffffffffffffffffffffff1673ffffffffffffffffffffffffffffffffffffffff1663095ea7b38560030160009054906101000a900473ffffffffffffffffffffffffffffffffffffffff16836040518363ffffffff1660e01b8152600401613154929190614d3d565b602060405180830381600087803b15801561316e57600080fd5b505af1158015613182573d6000803e3d6000fd5b505050506040513d601f19601f820116820180604052508101906131a69190614546565b508360000160019054906101000a900473ffffffffffffffffffffffffffffffffffffffff16826000815181106131d957fe5b602002602001019073ffffffffffffffffffffffffffffffffffffffff16908173ffffffffffffffffffffffffffffffffffffffff16815250508360030160009054906101000a900473ffffffffffffffffffffffffffffffffffffffff1673ffffffffffffffffffffffffffffffffffffffff1663ad5c46486040518163ffffffff1660e01b815260040160206040518083038186803b15801561327d57600080fd5b505afa158015613291573d6000803e3d6000fd5b505050506040513d601f19601f820116820180604052508101906132b591906144a0565b826001815181106132c257fe5b602002602001019073ffffffffffffffffffffffffffffffffffffffff16908173ffffffffffffffffffffffffffffffffffffffff168152505060008460030160009054906101000a900473ffffffffffffffffffffffffffffffffffffffff1673ffffffffffffffffffffffffffffffffffffffff166318cbafe58383868960100160009054906101000a900473ffffffffffffffffffffffffffffffffffffffff16620186a042016040518663ffffffff1660e01b815260040161338c959493929190614f8e565b600060405180830381600087803b1580156133a657600080fd5b505af11580156133ba573d6000803e3d6000fd5b505050506040513d6000823e3d601f19601f820116820180604052508101906133e39190614505565b50600061340b6133fc3a5a61417190919063ffffffff16565b8661412790919063ffffffff16565b90508560100160009054906101000a900473ffffffffffffffffffffffffffffffffffffffff1673ffffffffffffffffffffffffffffffffffffffff16636c55068282336040518363ffffffff1660e01b815260040161346c929190614f3c565b600060405180830381600087803b15801561348657600080fd5b505af115801561349a573d6000803e3d6000fd5b5050505050505050505050565b6000806000806134b5614072565b90508060070154816008015482600d015493509350935050909192565b6000806134dd614072565b90503373ffffffffffffffffffffffffffffffffffffffff1681600e0160019054906101000a900473ffffffffffffffffffffffffffffffffffffffff1673ffffffffffffffffffffffffffffffffffffffff1614613571576040517f08c379a000000000000000000000000000000000000000000000000000000000815260040161356890614da1565b60405180910390fd5b600061357b614072565b905060006136473a6136398460100160009054906101000a900473ffffffffffffffffffffffffffffffffffffffff1673ffffffffffffffffffffffffffffffffffffffff166384e9a9016040518163ffffffff1660e01b8152600401602060405180830381600087803b1580156135f257600080fd5b505af1158015613606573d6000803e3d6000fd5b505050506040513d601f19601f8201168201806040525081019061362a91906146c9565b5a61409f90919063ffffffff16565b61417190919063ffffffff16565b905081600e0160009054906101000a900460ff161582600e0160006101000a81548160ff021916908315150217905550600061369e61368f3a5a61417190919063ffffffff16565b8361412790919063ffffffff16565b90508260100160009054906101000a900473ffffffffffffffffffffffffffffffffffffffff1673ffffffffffffffffffffffffffffffffffffffff16636c55068282336040518363ffffffff1660e01b81526004016136ff929190614f3c565b600060405180830381600087803b15801561371957600080fd5b505af115801561372d573d6000803e3d6000fd5b5050505082600e0160009054906101000a900460ff1694505050505090565b6000613756614072565b90503373ffffffffffffffffffffffffffffffffffffffff1681600f0160009054906101000a900473ffffffffffffffffffffffffffffffffffffffff1673ffffffffffffffffffffffffffffffffffffffff16146137ea576040517f08c379a00000000000000000000000000000000000000000000000000000000081526004016137e190614ea1565b60405180910390fd5b60006137f4614072565b905060006138c03a6138b28460100160009054906101000a900473ffffffffffffffffffffffffffffffffffffffff1673ffffffffffffffffffffffffffffffffffffffff166384e9a9016040518163ffffffff1660e01b8152600401602060405180830381600087803b15801561386b57600080fd5b505af115801561387f573d6000803e3d6000fd5b505050506040513d601f19601f820116820180604052508101906138a391906146c9565b5a61409f90919063ffffffff16565b61417190919063ffffffff16565b9050600082600c015414613909576040517f08c379a000000000000000000000000000000000000000000000000000000000815260040161390090614ee1565b60405180910390fd5b838260020160006101000a81548173ffffffffffffffffffffffffffffffffffffffff021916908373ffffffffffffffffffffffffffffffffffffffff16021790555060006139736139643a5a61417190919063ffffffff16565b8361412790919063ffffffff16565b90508260100160009054906101000a900473ffffffffffffffffffffffffffffffffffffffff1673ffffffffffffffffffffffffffffffffffffffff16636c55068282336040518363ffffffff1660e01b81526004016139d4929190614f3c565b600060405180830381600087803b1580156139ee57600080fd5b505af1158015613a02573d6000803e3d6000fd5b505050505050505050565b600080613a18614072565b905060008160010160009054906101000a900473ffffffffffffffffffffffffffffffffffffffff1673ffffffffffffffffffffffffffffffffffffffff166318160ddd6040518163ffffffff1660e01b815260040160206040518083038186803b158015613a8657600080fd5b505afa158015613a9a573d6000803e3d6000fd5b505050506040513d601f19601f82011682018060405250810190613abe91906146c9565b1480613ace5750600081600a0154145b613c2c578060010160009054906101000a900473ffffffffffffffffffffffffffffffffffffffff1673ffffffffffffffffffffffffffffffffffffffff166318160ddd6040518163ffffffff1660e01b815260040160206040518083038186803b158015613b3c57600080fd5b505afa158015613b50573d6000803e3d6000fd5b505050506040513d601f19601f82011682018060405250810190613b7491906146c9565b81600a01548260010160009054906101000a900473ffffffffffffffffffffffffffffffffffffffff1673ffffffffffffffffffffffffffffffffffffffff1663313ce5676040518163ffffffff1660e01b815260040160206040518083038186803b158015613be357600080fd5b505afa158015613bf7573d6000803e3d6000fd5b505050506040513d601f19601f82011682018060405250810190613c1b91906146c9565b600a0a0281613c2657fe5b04613cd2565b8060010160009054906101000a900473ffffffffffffffffffffffffffffffffffffffff1673ffffffffffffffffffffffffffffffffffffffff1663313ce5676040518163ffffffff1660e01b815260040160206040518083038186803b158015613c9657600080fd5b505afa158015613caa573d6000803e3d6000fd5b505050506040513d601f19601f82011682018060405250810190613cce91906146c9565b600a0a5b91505090565b600080613ce3614072565b905080600b015491505090565b600080613cfb614072565b905080600a015491505090565b600080613d13614072565b90503373ffffffffffffffffffffffffffffffffffffffff1681600f0160009054906101000a900473ffffffffffffffffffffffffffffffffffffffff1673ffffffffffffffffffffffffffffffffffffffff1614613da7576040517f08c379a0000000000000000000000000000000000000000000000000000000008152600401613d9e90614ea1565b60405180910390fd5b600086118015613db75750600085115b8015613dc35750600084115b613e02576040517f08c379a0000000000000000000000000000000000000000000000000000000008152600401613df990614dc1565b60405180910390fd5b848610613e44576040517f08c379a0000000000000000000000000000000000000000000000000000000008152600401613e3b90614f01565b60405180910390fd5b6000613e4e614072565b90506000613f1a3a613f0c8460100160009054906101000a900473ffffffffffffffffffffffffffffffffffffffff1673ffffffffffffffffffffffffffffffffffffffff166384e9a9016040518163ffffffff1660e01b8152600401602060405180830381600087803b158015613ec557600080fd5b505af1158015613ed9573d6000803e3d6000fd5b505050506040513d601f19601f82011682018060405250810190613efd91906146c9565b5a61409f90919063ffffffff16565b61417190919063ffffffff16565b90508782600701819055508682600801819055508582600d01819055506000613f5e613f4f3a5a61417190919063ffffffff16565b8361412790919063ffffffff16565b90508260100160009054906101000a900473ffffffffffffffffffffffffffffffffffffffff1673ffffffffffffffffffffffffffffffffffffffff16636c55068282336040518363ffffffff1660e01b8152600401613fbf929190614f3c565b600060405180830381600087803b158015613fd957600080fd5b505af1158015613fed573d6000803e3d6000fd5b505050506000613ffb61403c565b11156140105761400a86611d93565b5061402c565b600061401a6107d9565b111561402b576140298661145a565b505b5b6001945050505050949350505050565b6000614046612d2e565b61404e61143c565b111561406a5761405c610795565b61406461143c565b0361406d565b60005b905090565b6000807f6c2f2617da7540533aede37184df9fe8d14d2f091e9a392f2685af4b9851d17290508091505090565b60008082840190508381101561411d576040517f08c379a000000000000000000000000000000000000000000000000000000000815260040180806020018281038252601b8152602001807f536166654d6174683a206164646974696f6e206f766572666c6f77000000000081525060200191505060405180910390fd5b8091505092915050565b600061416983836040518060400160405280601f81526020017f536166654d6174683a207375627472616374696f6e20756e646572666c6f77008152506141f7565b905092915050565b60008083141561418457600090506141f1565b600082840290508284828161419557fe5b04146141ec576040517f08c379a000000000000000000000000000000000000000000000000000000000815260040180806020018281038252602181526020018061526e6021913960400191505060405180910390fd5b809150505b92915050565b60008383111582906142a4576040517f08c379a00000000000000000000000000000000000000000000000000000000081526004018080602001828103825283818151815260200191508051906020019080838360005b8381101561426957808201518184015260208101905061424e565b50505050905090810190601f1680156142965780820380516001836020036101000a031916815260200191505b509250505060405180910390fd5b5060008385039050809150509392505050565b60006142ca6142c584615050565b61501f565b905080838252602082019050828560208602820111156142e957600080fd5b60005b8581101561431957816142ff888261438f565b8452602084019350602083019250506001810190506142ec565b5050509392505050565b60006143366143318461507c565b61501f565b9050808382526020820190508285602086028201111561435557600080fd5b60005b85811015614385578161436b888261448b565b845260208401935060208301925050600181019050614358565b5050509392505050565b60008135905061439e816151cc565b92915050565b6000815190506143b3816151cc565b92915050565b600082601f8301126143ca57600080fd5b81356143da8482602086016142b7565b91505092915050565b600082601f8301126143f457600080fd5b8151614404848260208601614323565b91505092915050565b60008151905061441c816151e3565b92915050565b600081359050614431816151fa565b92915050565b60008135905061444681615211565b92915050565b60008135905061445b81615228565b92915050565b6000813590506144708161523f565b92915050565b60008135905061448581615256565b92915050565b60008151905061449a81615256565b92915050565b6000602082840312156144b257600080fd5b60006144c0848285016143a4565b91505092915050565b600080604083850312156144dc57600080fd5b60006144ea8582860161438f565b92505060206144fb8582860161438f565b9150509250929050565b60006020828403121561451757600080fd5b600082015167ffffffffffffffff81111561453157600080fd5b61453d848285016143e3565b91505092915050565b60006020828403121561455857600080fd5b60006145668482850161440d565b91505092915050565b60006020828403121561458157600080fd5b600061458f84828501614437565b91505092915050565b60008060008060008060008060008060006101608c8e0312156145ba57600080fd5b60006145c88e828f0161444c565b9b505060206145d98e828f0161444c565b9a505060406145ea8e828f01614476565b99505060606145fb8e828f01614476565b985050608061460c8e828f01614476565b97505060a061461d8e828f01614476565b96505060c061462e8e828f01614476565b95505060e08c013567ffffffffffffffff81111561464b57600080fd5b6146578e828f016143b9565b9450506101006146698e828f01614437565b93505061012061467b8e828f01614461565b92505061014061468d8e828f01614422565b9150509295989b509295989b9093969950565b6000602082840312156146b257600080fd5b60006146c084828501614476565b91505092915050565b6000602082840312156146db57600080fd5b60006146e98482850161448b565b91505092915050565b6000806040838503121561470557600080fd5b600061471385828601614476565b925050602061472485828601614476565b9150509250929050565b6000806000806080858703121561474457600080fd5b600061475287828801614476565b945050602061476387828801614476565b935050604061477487828801614476565b925050606061478587828801614476565b91505092959194509250565b600061479d83836147b8565b60208301905092915050565b6147b281615182565b82525050565b6147c1816150f2565b82525050565b6147d0816150f2565b82525050565b60006147e1826150b8565b6147eb81856150d0565b93506147f6836150a8565b8060005b8381101561482757815161480e8882614791565b9750614819836150c3565b9250506001810190506147fa565b5085935050505092915050565b61483d81615104565b82525050565b61484c81615194565b82525050565b600061485f6012836150e1565b91507f4e6f7468696e6720746f206465706f73697400000000000000000000000000006000830152602082019050919050565b600061489f6015836150e1565b91507f4f6e6c792061646d696e2063616e2063616c6c212100000000000000000000006000830152602082019050919050565b60006148df6019836150e1565b91507f506172616d65746572732063616e74206265207a65726f2121000000000000006000830152602082019050919050565b600061491f6013836150e1565b91507f4e6f7468696e6720746f207769746864726177000000000000000000000000006000830152602082019050919050565b600061495f600e836150e1565b91507f496e76616c696420416d6f756e740000000000000000000000000000000000006000830152602082019050919050565b600061499f6029836150e1565b91507f446f6e74206861766520656e6f7567682066756e642c20506c6561736520747260008301527f79206c61746572212100000000000000000000000000000000000000000000006020830152604082019050919050565b6000614a05602a836150e1565b91507f446f6e74206861766520656e6f7567682066756e642c20506c6561736520747260008301527f79206c61746572212121000000000000000000000000000000000000000000006020830152604082019050919050565b6000614a6b6021836150e1565b91507f596f7520646f6e74206861766520656e6f75676820706f6f6c20746f6b656e2160008301527f21000000000000000000000000000000000000000000000000000000000000006020830152604082019050919050565b6000614ad16012836150e1565b91507f636f6e7472616374206973206c6f636b656400000000000000000000000000006000830152602082019050919050565b6000614b11601b836150e1565b91507f4f6e6c792073757065722061646d696e2063616e2063616c6c212100000000006000830152602082019050919050565b6000614b516013836150e1565b91507f416c726561647920696e697469616c697a6564000000000000000000000000006000830152602082019050919050565b6000614b916018836150e1565b91507f576974686472617720616c6c2066756e647320666972737400000000000000006000830152602082019050919050565b6000614bd16032836150e1565b91507f4d696e206c69717569646974792063616e74206265206772656174657220746860008301527f616e206d6178206c6971756964697479212100000000000000000000000000006020830152604082019050919050565b614c3381615178565b82525050565b6000602082019050614c4e60008301846147a9565b92915050565b6000606082019050614c6960008301866147a9565b614c7660208301856147a9565b614c836040830184614c2a565b949350505050565b6000606082019050614ca060008301866147a9565b614cad60208301856147c7565b614cba6040830184614c2a565b949350505050565b6000604082019050614cd760008301856147a9565b614ce46020830184614c2a565b9392505050565b6000604082019050614d0060008301856147c7565b614d0d60208301846147c7565b9392505050565b6000604082019050614d2960008301856147c7565b614d366020830184614843565b9392505050565b6000604082019050614d5260008301856147c7565b614d5f6020830184614c2a565b9392505050565b6000602082019050614d7b6000830184614834565b92915050565b60006020820190508181036000830152614d9a81614852565b9050919050565b60006020820190508181036000830152614dba81614892565b9050919050565b60006020820190508181036000830152614dda816148d2565b9050919050565b60006020820190508181036000830152614dfa81614912565b9050919050565b60006020820190508181036000830152614e1a81614952565b9050919050565b60006020820190508181036000830152614e3a81614992565b9050919050565b60006020820190508181036000830152614e5a816149f8565b9050919050565b60006020820190508181036000830152614e7a81614a5e565b9050919050565b60006020820190508181036000830152614e9a81614ac4565b9050919050565b60006020820190508181036000830152614eba81614b04565b9050919050565b60006020820190508181036000830152614eda81614b44565b9050919050565b60006020820190508181036000830152614efa81614b84565b9050919050565b60006020820190508181036000830152614f1a81614bc4565b9050919050565b6000602082019050614f366000830184614c2a565b92915050565b6000604082019050614f516000830185614c2a565b614f5e60208301846147a9565b9392505050565b6000604082019050614f7a6000830185614c2a565b614f876020830184614c2a565b9392505050565b600060a082019050614fa36000830188614c2a565b614fb06020830187614c2a565b8181036040830152614fc281866147d6565b9050614fd160608301856147c7565b614fde6080830184614c2a565b9695505050505050565b6000606082019050614ffd6000830186614c2a565b61500a6020830185614c2a565b6150176040830184614c2a565b949350505050565b6000604051905081810181811067ffffffffffffffff82111715615046576150456151ca565b5b8060405250919050565b600067ffffffffffffffff82111561506b5761506a6151ca565b5b602082029050602081019050919050565b600067ffffffffffffffff821115615097576150966151ca565b5b602082029050602081019050919050565b6000819050602082019050919050565b600081519050919050565b6000602082019050919050565b600082825260208201905092915050565b600082825260208201905092915050565b60006150fd82615158565b9050919050565b60008115159050919050565b600061511b826150f2565b9050919050565b600061512d826150f2565b9050919050565b600061513f826150f2565b9050919050565b6000615151826150f2565b9050919050565b600073ffffffffffffffffffffffffffffffffffffffff82169050919050565b6000819050919050565b600061518d826151a6565b9050919050565b600061519f82615178565b9050919050565b60006151b1826151b8565b9050919050565b60006151c382615158565b9050919050565bfe5b6151d5816150f2565b81146151e057600080fd5b50565b6151ec81615104565b81146151f757600080fd5b50565b61520381615110565b811461520e57600080fd5b50565b61521a81615122565b811461522557600080fd5b50565b61523181615134565b811461523c57600080fd5b50565b61524881615146565b811461525357600080fd5b50565b61525f81615178565b811461526a57600080fd5b5056fe536166654d6174683a206d756c7469706c69636174696f6e206f766572666c6f77a2646970667358221220910e00305a663bc09e0017cf1df4863cab6cda27f008c24ee5e36fdce0bf996764736f6c63430007060033",
  "immutableReferences": {},
  "source": "// SPDX-License-Identifier: UNLICENSED\r\npragma solidity ^0.7.6;\r\npragma experimental ABIEncoderV2;\r\n\r\nimport \"../storage/PoolStorage.sol\";\r\n\r\ncontract AdvancedPool is PoolStorageV1 {\r\n    \r\n/****VARIABLES*****/\r\n    using SafeMath for uint256;\r\n   \r\n\r\n/****MODIFIERS*****/\r\n    \r\n    modifier onlyOwner(){\r\n        PoolStorage storage ps = poolStorage();\r\n        require(ps.owner == msg.sender, \"Only admin can call!!\");\r\n        _;\r\n    }\r\n    modifier onlySuperOwner(){\r\n        PoolStorage storage ps = poolStorage();\r\n        require(ps.superOwner == msg.sender, \"Only super admin can call!!\");\r\n        _;\r\n    }\r\n    modifier notLocked {\r\n        PoolStorage storage ps = poolStorage();\r\n        require(!ps.locked, \"contract is locked\");\r\n        _;\r\n    }\r\n  \r\n/****EVENTS****/ \r\n    event userDeposits(address user, uint256 amount);\r\n    event userWithdrawal(address user,uint256 amount);\r\n    event poolDeposit(address user, address pool, uint256 amount);\r\n    event poolWithdrawal(address user, address pool, uint256 amount);\r\n    \r\n\r\n/****CONSTRUCTOR****/\r\n    function initialize(\r\n        IERC20 _coin,\r\n        IERC20 _poolToken, \r\n        uint256 _minLiquidity, \r\n        uint256 _maxLiquidity, \r\n        uint256 _withdrawFees, \r\n        uint256 _depositFees,\r\n        uint256 _maxWithdrawalAllowed,\r\n        address[] memory _owners,\r\n        DepositStrategy _depositStrategy,\r\n        UniswapV2Router02 _uniswapRouter,\r\n        Controller _controller\r\n    ) public {\r\n        PoolStorage storage ps = poolStorage();\r\n        require(!ps.initialized, 'Already initialized');\r\n        ps.owner = _owners[0];\r\n        ps.superOwner = _owners[1];\r\n        ps.DENOMINATOR = 10000;\r\n        ps.coin = _coin;\r\n        ps.poolToken = _poolToken;\r\n        ps.minLiquidity = _minLiquidity;\r\n        ps.maxLiquidity = _maxLiquidity;\r\n        ps.withdrawFees = _withdrawFees;\r\n        ps.depositFees = _depositFees;\r\n        ps.depositStrategy = _depositStrategy;\r\n        ps.maxWithdrawalAllowed = _maxWithdrawalAllowed;\r\n        ps.uniswapRouter = _uniswapRouter;\r\n        ps.controller = _controller;\r\n        ps.initialized = true;\r\n    }\r\n    \r\n\r\n/*****USERS FUNCTIONS****/\r\n\r\n    function stake(uint256 amount) external notLocked() returns(uint256){\r\n        require(amount > 0, 'Invalid Amount');\r\n\r\n        PoolStorage storage ps = poolStorage();\r\n        uint256 feeAmount = amount * ps.depositFees / ps.DENOMINATOR;\r\n        ps.feesCollected = ps.feesCollected + feeAmount;\r\n        uint256 mintAmount = calculatePoolTokens(amount - feeAmount);\r\n        ps.poolBalance = ps.poolBalance.add(amount - feeAmount);\r\n        ps.coin.transferFrom(msg.sender, address(this), amount);\r\n        ps.poolToken.mint(msg.sender, mintAmount);\r\n        emit userDeposits(msg.sender,amount);\r\n        return mintAmount;\r\n    }\r\n\r\n    function unstake(uint256 amount) external notLocked() returns(uint256){\r\n        PoolStorage storage ps = poolStorage();\r\n        require(amount <= maxWithdrawal(), \"Dont have enough fund, Please try later!!\");\r\n        require(amount <= ps.coin.balanceOf(address(this)), \"Dont have enough fund, Please try later!!!\");\r\n        \r\n        uint256 burnAmount = calculatePoolTokens(amount);\r\n        require(burnAmount <= ps.poolToken.balanceOf(msg.sender), \"You dont have enough pool token!!\");\r\n\r\n        uint256 feeAmount = amount * ps.withdrawFees/ ps.DENOMINATOR;\r\n        ps.feesCollected = ps.feesCollected + feeAmount;\r\n        ps.poolBalance = ps.poolBalance.sub(amount);\r\n\r\n        ps.coin.transfer(msg.sender, amount - feeAmount);\r\n        ps.poolToken.burn(msg.sender, burnAmount);  \r\n        emit userWithdrawal(msg.sender, amount);\r\n        return amount - feeAmount;\r\n    }\r\n\r\n/****ADMIN FUNCTIONS*****/\r\n\r\n    function addToStrategy(uint256 minMintAmount) public notLocked() onlyOwner() returns(uint256){\r\n        PoolStorage storage ps = poolStorage();\r\n        uint256 gasAtBegining = (gasleft().add(ps.controller.defaultGas())).mul(tx.gasprice);\r\n        uint256 amount = amountToDeposit();\r\n        require(amount > 0, \"Nothing to deposit\");\r\n        ps.strategyDeposit = ps.strategyDeposit.add(amount);\r\n        ps.coin.approve(address(ps.depositStrategy), 0);\r\n        ps.coin.approve(address(ps.depositStrategy), amount);\r\n        ps.depositStrategy.deposit(amount, minMintAmount);\r\n        emit poolDeposit(msg.sender, address(ps.depositStrategy), amount);\r\n        uint256 gasUsed = gasAtBegining.sub(gasleft().mul(tx.gasprice)); \r\n        ps.controller.updateGasUsed(gasUsed, msg.sender);\r\n        return amount;\r\n    }\r\n    \r\n    function removeFromStrategy(uint256 maxBurnAmount) public notLocked() onlyOwner() returns(uint256){\r\n        PoolStorage storage ps = poolStorage();\r\n        uint256 gasAtBegining = (gasleft().add(ps.controller.defaultGas())).mul(tx.gasprice);\r\n        uint256 amount = amountToWithdraw();\r\n        require(amount > 0 , \"Nothing to withdraw\");\r\n        ps.strategyDeposit = ps.strategyDeposit.sub(amount);\r\n        ps.depositStrategy.withdraw(amount, maxBurnAmount);\r\n        emit poolWithdrawal(msg.sender, address(ps.depositStrategy), amount);\r\n        uint256 gasUsed = gasAtBegining.sub(gasleft().mul(tx.gasprice)); \r\n        ps.controller.updateGasUsed(gasUsed, msg.sender); \r\n        return amount;\r\n    }\r\n\r\n    function removeAllFromStrategy(uint256 minAmount) public notLocked() onlySuperOwner(){\r\n        PoolStorage storage ps = poolStorage();\r\n        uint256 gasAtBegining = (gasleft().add(ps.controller.defaultGas())).mul(tx.gasprice);\r\n        require(ps.strategyDeposit > 0 , \"Nothing to withdraw\");\r\n        ps.strategyDeposit = 0;\r\n        ps.depositStrategy.withdrawAll(minAmount);\r\n        emit poolWithdrawal(msg.sender, address(ps.depositStrategy), ps.coin.balanceOf(address(this)));\r\n        uint256 gasUsed = gasAtBegining.sub(gasleft().mul(tx.gasprice)); \r\n        ps.controller.updateGasUsed(gasUsed, msg.sender); \r\n    }\r\n    \r\n    function updateLiquidityParam(uint256 _minLiquidity, uint256 _maxLiquidity, uint256 _maxWithdrawalAllowed, uint256 maxBurnOrMinMint) external onlySuperOwner() returns(bool){\r\n        require(_minLiquidity > 0 &&  _maxLiquidity > 0 && _maxWithdrawalAllowed > 0, 'Parameters cant be zero!!');\r\n        require(_minLiquidity <  _maxLiquidity, 'Min liquidity cant be greater than max liquidity!!');\r\n   \r\n        PoolStorage storage ps = poolStorage();\r\n        uint256 gasAtBegining = (gasleft().add(ps.controller.defaultGas())).mul(tx.gasprice);   \r\n        ps.minLiquidity = _minLiquidity;\r\n        ps.maxLiquidity = _maxLiquidity;\r\n        ps.maxWithdrawalAllowed = _maxWithdrawalAllowed;\r\n        uint256 gasUsed = gasAtBegining.sub(gasleft().mul(tx.gasprice)); \r\n        ps.controller.updateGasUsed(gasUsed, msg.sender);\r\n        if(amountToDeposit() > 0){\r\n            addToStrategy(maxBurnOrMinMint);\r\n        }else if(amountToWithdraw() > 0){\r\n            removeFromStrategy(maxBurnOrMinMint);\r\n        }\r\n        return true;\r\n    }\r\n    \r\n    function updateFees(uint256 _depositFees, uint256 _withdrawFees) external onlySuperOwner() returns(bool){\r\n        PoolStorage storage ps = poolStorage();\r\n        uint256 gasAtBegining = (gasleft().add(ps.controller.defaultGas())).mul(tx.gasprice);\r\n        ps.withdrawFees = _withdrawFees;\r\n        ps.depositFees = _depositFees;\r\n        uint256 gasUsed = gasAtBegining.sub(gasleft().mul(tx.gasprice)); \r\n        ps.controller.updateGasUsed(gasUsed, msg.sender);\r\n        return true;\r\n    }\r\n    \r\n    function changeLockStatus() external onlyOwner() returns(bool){\r\n        PoolStorage storage ps = poolStorage();\r\n        uint256 gasAtBegining = (gasleft().add(ps.controller.defaultGas())).mul(tx.gasprice);\r\n        ps.locked = !ps.locked;\r\n        uint256 gasUsed = gasAtBegining.sub(gasleft().mul(tx.gasprice)); \r\n        ps.controller.updateGasUsed(gasUsed, msg.sender);\r\n        return ps.locked;\r\n    }\r\n    \r\n    function updateOwners(address newOwner, address newSuperOwner) external onlySuperOwner() returns(bool){\r\n        PoolStorage storage ps = poolStorage();\r\n        uint256 gasAtBegining = (gasleft().add(ps.controller.defaultGas())).mul(tx.gasprice);\r\n        ps.owner = newOwner;\r\n        ps.superOwner = newSuperOwner;\r\n        uint256 gasUsed = gasAtBegining.sub(gasleft().mul(tx.gasprice)); \r\n        ps.controller.updateGasUsed(gasUsed, msg.sender);\r\n        return true;\r\n    } \r\n\r\n    function getYield() public onlyOwner(){\r\n        PoolStorage storage ps = poolStorage();\r\n        uint256 gasAtBegining = (gasleft().add(ps.controller.defaultGas())).mul(tx.gasprice);\r\n        uint256 tokenReceived = ps.depositStrategy.claimAndConvertCRV();\r\n        ps.poolBalance = ps.poolBalance.add(tokenReceived);\r\n        uint256 gasUsed = gasAtBegining.sub(gasleft().mul(tx.gasprice)); \r\n        ps.controller.updateGasUsed(gasUsed, msg.sender);\r\n    }\r\n    \r\n    \r\n    function updateStrategy(DepositStrategy _newStrategy) public onlySuperOwner(){\r\n        PoolStorage storage ps = poolStorage();\r\n        uint256 gasAtBegining = (gasleft().add(ps.controller.defaultGas())).mul(tx.gasprice);\r\n        require(ps.strategyDeposit == 0, 'Withdraw all funds first');\r\n        ps.depositStrategy = _newStrategy;\r\n        uint256 gasUsed = gasAtBegining.sub(gasleft().mul(tx.gasprice)); \r\n        ps.controller.updateGasUsed(gasUsed, msg.sender);\r\n    }\r\n\r\n    function convertFeesToETH() external onlyOwner() {\r\n        PoolStorage storage ps = poolStorage();\r\n        uint256 gasAtBegining = (gasleft().add(ps.controller.defaultGas())).mul(tx.gasprice);\r\n        address[] memory path = new address[](2);\r\n        uint256 amountToSwap = ps.feesCollected;\r\n        ps.feesCollected = 0;\r\n        ps.coin.approve(address(ps.uniswapRouter), 0);\r\n        ps.coin.approve(address(ps.uniswapRouter), amountToSwap);\r\n        path[0] = address(ps.coin);\r\n        path[1] = ps.uniswapRouter.WETH();\r\n        uint256 amountOutMin = 0;\r\n        ps.uniswapRouter.swapExactTokensForETH(amountToSwap, amountOutMin, path, address(ps.controller), block.timestamp + 100000);\r\n        uint256 gasUsed = gasAtBegining.sub(gasleft().mul(tx.gasprice)); \r\n        ps.controller.updateGasUsed(gasUsed, msg.sender);\r\n    }\r\n\r\n\r\n/****OTHER FUNCTIONS****/\r\n\r\n    function calculatePoolTokens(uint256 amountOfStableCoins) public view returns(uint256){\r\n        PoolStorage storage ps = poolStorage();\r\n        return (amountOfStableCoins * stableCoinPrice())/10**ps.coin.decimals() ;\r\n    }\r\n\r\n    function stableCoinPrice() public view returns(uint256){\r\n        PoolStorage storage ps = poolStorage();\r\n        return (ps.poolToken.totalSupply() == 0 || ps.poolBalance == 0) ? 10**ps.coin.decimals() : ((10**ps.coin.decimals()) * ps.poolToken.totalSupply())/ps.poolBalance;\r\n    }\r\n    \r\n    function calculateStableCoins(uint256 amountOfPoolToken) public view returns(uint256){\r\n        PoolStorage storage ps = poolStorage();\r\n        amountOfPoolToken = (amountOfPoolToken*poolTokenPrice())/(10**ps.poolToken.decimals());\r\n        return amountOfPoolToken;\r\n    }\r\n\r\n    function poolTokenPrice() public view returns(uint256){\r\n        PoolStorage storage ps = poolStorage();\r\n        return (ps.poolToken.totalSupply() == 0 || ps.poolBalance == 0) ? 10**ps.poolToken.decimals() : ((10**ps.poolToken.decimals())*ps.poolBalance)/ps.poolToken.totalSupply();\r\n    }\r\n    \r\n    function maxWithdrawal() public view returns(uint256){\r\n        PoolStorage storage ps = poolStorage();\r\n        return minLiquidityToMaintainInPool()/2 < ps.maxWithdrawalAllowed ? minLiquidityToMaintainInPool()/2 : ps.maxWithdrawalAllowed;\r\n    }\r\n\r\n    function currentLiquidity() public view returns(uint256){\r\n        PoolStorage storage ps = poolStorage();\r\n        return ps.poolBalance - ps.strategyDeposit;\r\n    }\r\n   \r\n    function idealAmount() public view returns(uint256){\r\n        PoolStorage storage ps = poolStorage();\r\n        return (ps.poolBalance * (ps.minLiquidity.add(ps.maxLiquidity))) / (2 * ps.DENOMINATOR);\r\n    }\r\n     \r\n    function maxLiquidityAllowedInPool() public view returns(uint256){\r\n        PoolStorage storage ps = poolStorage();\r\n        return ps.poolBalance * ps.maxLiquidity / ps.DENOMINATOR;\r\n    }\r\n\r\n    function amountToDeposit() public view returns(uint256){\r\n        return currentLiquidity() <= maxLiquidityAllowedInPool() ? 0 : currentLiquidity() - idealAmount();\r\n    }\r\n    \r\n    function minLiquidityToMaintainInPool() public view returns(uint256){\r\n        PoolStorage storage ps = poolStorage();\r\n        return ps.poolBalance * ps.minLiquidity / ps.DENOMINATOR;\r\n    }\r\n   \r\n    function amountToWithdraw() public view returns(uint256){\r\n        PoolStorage storage ps = poolStorage();\r\n        return currentLiquidity() > minLiquidityToMaintainInPool() || ps.strategyDeposit == 0 || ps.strategyDeposit < idealAmount() - currentLiquidity() ? 0 : idealAmount() - currentLiquidity();\r\n    }\r\n\r\n    function lockStatus() public view returns(bool){\r\n        PoolStorage storage ps = poolStorage();\r\n        return ps.locked;\r\n    }\r\n\r\n    function totalDeposit() public view returns(uint256){\r\n        PoolStorage storage ps = poolStorage();\r\n        return ps.poolBalance;\r\n    }\r\n\r\n    function strategyDeposit() public view returns(uint256){\r\n        PoolStorage storage ps = poolStorage();\r\n        return ps.strategyDeposit;\r\n    }\r\n       \r\n    function feesCollected() public view returns(uint256){\r\n        PoolStorage storage ps = poolStorage();\r\n        return ps.feesCollected;\r\n    }\r\n\r\n    function currentFees() public view returns(uint256, uint256){\r\n        PoolStorage storage ps = poolStorage();\r\n        return (ps.depositFees, ps.withdrawFees);\r\n    }\r\n\r\n    function currentLiquidityParams() public view returns(uint256, uint256, uint256){\r\n        PoolStorage storage ps = poolStorage();\r\n        return (ps.minLiquidity, ps.maxLiquidity, ps.maxWithdrawalAllowed);\r\n    }\r\n\r\n    function owners() public view returns(address, address){\r\n        PoolStorage storage ps = poolStorage();\r\n        return (ps.owner, ps.superOwner);\r\n    }\r\n\r\n    receive() external payable {\r\n    }\r\n}",
  "sourcePath": "E:/Projects/AdvancedPool/AdvancedPool/contracts/facets/AdvancedPool.sol",
  "compiler": {
    "name": "solc",
    "version": "0.7.6+commit.7338295f.Emscripten.clang"
  },
  "schemaVersion": "3.3.2",
  "updatedAt": "2021-06-17T09:03:05.254Z",
  "networkType": "ethereum",
  "devdoc": {
    "kind": "dev",
    "methods": {},
    "version": 1
  },
  "userdoc": {
    "kind": "user",
    "methods": {},
    "version": 1
  }
}