{
  "contractName": "AdvancedPool",
  "abi": [
    {
      "anonymous": false,
      "inputs": [
        {
          "indexed": false,
          "internalType": "address",
          "name": "user",
          "type": "address"
        },
        {
          "indexed": false,
          "internalType": "address",
          "name": "pool",
          "type": "address"
        },
        {
          "indexed": false,
          "internalType": "uint256",
          "name": "amount",
          "type": "uint256"
        }
      ],
      "name": "poolDeposit",
      "type": "event"
    },
    {
      "anonymous": false,
      "inputs": [
        {
          "indexed": false,
          "internalType": "address",
          "name": "user",
          "type": "address"
        },
        {
          "indexed": false,
          "internalType": "address",
          "name": "pool",
          "type": "address"
        },
        {
          "indexed": false,
          "internalType": "uint256",
          "name": "amount",
          "type": "uint256"
        }
      ],
      "name": "poolWithdrawal",
      "type": "event"
    },
    {
      "anonymous": false,
      "inputs": [
        {
          "indexed": false,
          "internalType": "address",
          "name": "user",
          "type": "address"
        },
        {
          "indexed": false,
          "internalType": "uint256",
          "name": "amount",
          "type": "uint256"
        }
      ],
      "name": "userDeposits",
      "type": "event"
    },
    {
      "anonymous": false,
      "inputs": [
        {
          "indexed": false,
          "internalType": "address",
          "name": "user",
          "type": "address"
        },
        {
          "indexed": false,
          "internalType": "uint256",
          "name": "amount",
          "type": "uint256"
        }
      ],
      "name": "userWithdrawal",
      "type": "event"
    },
    {
      "stateMutability": "payable",
      "type": "receive"
    },
    {
      "inputs": [
        {
          "internalType": "contract IERC20",
          "name": "_coin",
          "type": "address"
        },
        {
          "internalType": "contract IERC20",
          "name": "_poolToken",
          "type": "address"
        },
        {
          "internalType": "uint256",
          "name": "_minLiquidity",
          "type": "uint256"
        },
        {
          "internalType": "uint256",
          "name": "_maxLiquidity",
          "type": "uint256"
        },
        {
          "internalType": "uint256",
          "name": "_withdrawFees",
          "type": "uint256"
        },
        {
          "internalType": "uint256",
          "name": "_depositFees",
          "type": "uint256"
        },
        {
          "internalType": "uint256",
          "name": "_maxWithdrawalAllowed",
          "type": "uint256"
        },
        {
          "internalType": "address[]",
          "name": "_owners",
          "type": "address[]"
        },
        {
          "internalType": "contract DepositStrategy",
          "name": "_depositStrategy",
          "type": "address"
        },
        {
          "internalType": "contract UniswapV2Router02",
          "name": "_uniswapRouter",
          "type": "address"
        },
        {
          "internalType": "contract Controller",
          "name": "_controller",
          "type": "address"
        }
      ],
      "name": "initialize",
      "outputs": [],
      "stateMutability": "nonpayable",
      "type": "function"
    },
    {
      "inputs": [
        {
          "internalType": "uint256",
          "name": "amount",
          "type": "uint256"
        }
      ],
      "name": "stake",
      "outputs": [
        {
          "internalType": "uint256",
          "name": "",
          "type": "uint256"
        }
      ],
      "stateMutability": "nonpayable",
      "type": "function"
    },
    {
      "inputs": [
        {
          "internalType": "uint256",
          "name": "amount",
          "type": "uint256"
        }
      ],
      "name": "unstake",
      "outputs": [
        {
          "internalType": "uint256",
          "name": "",
          "type": "uint256"
        }
      ],
      "stateMutability": "nonpayable",
      "type": "function"
    },
    {
      "inputs": [
        {
          "internalType": "uint256",
          "name": "minMintAmount",
          "type": "uint256"
        }
      ],
      "name": "addToStrategy",
      "outputs": [
        {
          "internalType": "uint256",
          "name": "",
          "type": "uint256"
        }
      ],
      "stateMutability": "nonpayable",
      "type": "function"
    },
    {
      "inputs": [
        {
          "internalType": "uint256",
          "name": "maxBurnAmount",
          "type": "uint256"
        }
      ],
      "name": "removeFromStrategy",
      "outputs": [
        {
          "internalType": "uint256",
          "name": "",
          "type": "uint256"
        }
      ],
      "stateMutability": "nonpayable",
      "type": "function"
    },
    {
      "inputs": [
        {
          "internalType": "uint256",
          "name": "minAmount",
          "type": "uint256"
        }
      ],
      "name": "removeAllFromStrategy",
      "outputs": [],
      "stateMutability": "nonpayable",
      "type": "function"
    },
    {
      "inputs": [
        {
          "internalType": "uint256",
          "name": "_minLiquidity",
          "type": "uint256"
        },
        {
          "internalType": "uint256",
          "name": "_maxLiquidity",
          "type": "uint256"
        },
        {
          "internalType": "uint256",
          "name": "_maxWithdrawalAllowed",
          "type": "uint256"
        },
        {
          "internalType": "uint256",
          "name": "maxBurnOrMinMint",
          "type": "uint256"
        }
      ],
      "name": "updateLiquidityParam",
      "outputs": [
        {
          "internalType": "bool",
          "name": "",
          "type": "bool"
        }
      ],
      "stateMutability": "nonpayable",
      "type": "function"
    },
    {
      "inputs": [
        {
          "internalType": "uint256",
          "name": "_depositFees",
          "type": "uint256"
        },
        {
          "internalType": "uint256",
          "name": "_withdrawFees",
          "type": "uint256"
        }
      ],
      "name": "updateFees",
      "outputs": [
        {
          "internalType": "bool",
          "name": "",
          "type": "bool"
        }
      ],
      "stateMutability": "nonpayable",
      "type": "function"
    },
    {
      "inputs": [],
      "name": "changeLockStatus",
      "outputs": [
        {
          "internalType": "bool",
          "name": "",
          "type": "bool"
        }
      ],
      "stateMutability": "nonpayable",
      "type": "function"
    },
    {
      "inputs": [
        {
          "internalType": "address",
          "name": "newOwner",
          "type": "address"
        },
        {
          "internalType": "address",
          "name": "newSuperOwner",
          "type": "address"
        }
      ],
      "name": "updateOwners",
      "outputs": [
        {
          "internalType": "bool",
          "name": "",
          "type": "bool"
        }
      ],
      "stateMutability": "nonpayable",
      "type": "function"
    },
    {
      "inputs": [],
      "name": "getYield",
      "outputs": [],
      "stateMutability": "nonpayable",
      "type": "function"
    },
    {
      "inputs": [
        {
          "internalType": "contract DepositStrategy",
          "name": "_newStrategy",
          "type": "address"
        }
      ],
      "name": "updateStrategy",
      "outputs": [],
      "stateMutability": "nonpayable",
      "type": "function"
    },
    {
      "inputs": [],
      "name": "convertFeesToETH",
      "outputs": [],
      "stateMutability": "nonpayable",
      "type": "function"
    },
    {
      "inputs": [
        {
          "internalType": "uint256",
          "name": "amountOfStableCoins",
          "type": "uint256"
        }
      ],
      "name": "calculatePoolTokens",
      "outputs": [
        {
          "internalType": "uint256",
          "name": "",
          "type": "uint256"
        }
      ],
      "stateMutability": "view",
      "type": "function"
    },
    {
      "inputs": [],
      "name": "stableCoinPrice",
      "outputs": [
        {
          "internalType": "uint256",
          "name": "",
          "type": "uint256"
        }
      ],
      "stateMutability": "view",
      "type": "function"
    },
    {
      "inputs": [
        {
          "internalType": "uint256",
          "name": "amountOfPoolToken",
          "type": "uint256"
        }
      ],
      "name": "calculateStableCoins",
      "outputs": [
        {
          "internalType": "uint256",
          "name": "",
          "type": "uint256"
        }
      ],
      "stateMutability": "view",
      "type": "function"
    },
    {
      "inputs": [],
      "name": "poolTokenPrice",
      "outputs": [
        {
          "internalType": "uint256",
          "name": "",
          "type": "uint256"
        }
      ],
      "stateMutability": "view",
      "type": "function"
    },
    {
      "inputs": [],
      "name": "maxWithdrawal",
      "outputs": [
        {
          "internalType": "uint256",
          "name": "",
          "type": "uint256"
        }
      ],
      "stateMutability": "view",
      "type": "function"
    },
    {
      "inputs": [],
      "name": "currentLiquidity",
      "outputs": [
        {
          "internalType": "uint256",
          "name": "",
          "type": "uint256"
        }
      ],
      "stateMutability": "view",
      "type": "function"
    },
    {
      "inputs": [],
      "name": "idealAmount",
      "outputs": [
        {
          "internalType": "uint256",
          "name": "",
          "type": "uint256"
        }
      ],
      "stateMutability": "view",
      "type": "function"
    },
    {
      "inputs": [],
      "name": "maxLiquidityAllowedInPool",
      "outputs": [
        {
          "internalType": "uint256",
          "name": "",
          "type": "uint256"
        }
      ],
      "stateMutability": "view",
      "type": "function"
    },
    {
      "inputs": [],
      "name": "amountToDeposit",
      "outputs": [
        {
          "internalType": "uint256",
          "name": "",
          "type": "uint256"
        }
      ],
      "stateMutability": "view",
      "type": "function"
    },
    {
      "inputs": [],
      "name": "minLiquidityToMaintainInPool",
      "outputs": [
        {
          "internalType": "uint256",
          "name": "",
          "type": "uint256"
        }
      ],
      "stateMutability": "view",
      "type": "function"
    },
    {
      "inputs": [],
      "name": "amountToWithdraw",
      "outputs": [
        {
          "internalType": "uint256",
          "name": "",
          "type": "uint256"
        }
      ],
      "stateMutability": "view",
      "type": "function"
    },
    {
      "inputs": [],
      "name": "lockStatus",
      "outputs": [
        {
          "internalType": "bool",
          "name": "",
          "type": "bool"
        }
      ],
      "stateMutability": "view",
      "type": "function"
    },
    {
      "inputs": [],
      "name": "totalDeposit",
      "outputs": [
        {
          "internalType": "uint256",
          "name": "",
          "type": "uint256"
        }
      ],
      "stateMutability": "view",
      "type": "function"
    },
    {
      "inputs": [],
      "name": "strategyDeposit",
      "outputs": [
        {
          "internalType": "uint256",
          "name": "",
          "type": "uint256"
        }
      ],
      "stateMutability": "view",
      "type": "function"
    },
    {
      "inputs": [],
      "name": "feesCollected",
      "outputs": [
        {
          "internalType": "uint256",
          "name": "",
          "type": "uint256"
        }
      ],
      "stateMutability": "view",
      "type": "function"
    },
    {
      "inputs": [],
      "name": "currentFees",
      "outputs": [
        {
          "internalType": "uint256",
          "name": "",
          "type": "uint256"
        },
        {
          "internalType": "uint256",
          "name": "",
          "type": "uint256"
        }
      ],
      "stateMutability": "view",
      "type": "function"
    },
    {
      "inputs": [],
      "name": "currentLiquidityParams",
      "outputs": [
        {
          "internalType": "uint256",
          "name": "",
          "type": "uint256"
        },
        {
          "internalType": "uint256",
          "name": "",
          "type": "uint256"
        },
        {
          "internalType": "uint256",
          "name": "",
          "type": "uint256"
        }
      ],
      "stateMutability": "view",
      "type": "function"
    },
    {
      "inputs": [],
      "name": "owners",
      "outputs": [
        {
          "internalType": "address",
          "name": "",
          "type": "address"
        },
        {
          "internalType": "address",
          "name": "",
          "type": "address"
        }
      ],
      "stateMutability": "view",
      "type": "function"
    },
    {
      "inputs": [],
      "name": "poolToken",
      "outputs": [
        {
          "internalType": "address",
          "name": "",
          "type": "address"
        }
      ],
      "stateMutability": "view",
      "type": "function"
    }
  ],
  "bytecode": "0x608060405234801561001057600080fd5b5061566980620000216000396000f3fe6080604052600436106101e75760003560e01c80638a98cdd411610102578063d15359cc11610095578063f071db5a11610064578063f071db5a1461070d578063f6153ccd14610738578063fc0a497e14610763578063fe135c0e146107a0576101ee565b8063d15359cc14610661578063d395fbc51461068e578063daccaf63146106b9578063e4255342146106e2576101ee565b8063b4ad5e08116100d1578063b4ad5e08146105b7578063c3c9f52b146105e2578063caa1d9c11461061f578063cbdf382c14610636576101ee565b80638a98cdd4146104e65780638c0ff5b714610523578063a694fc3a1461054e578063affe39c11461058b576101ee565b80634b3668631161017a5780637039206b116101495780637039206b1461043e5780637260cc761461047b5780637c262871146104a657806384159d14146104bd576101ee565b80634b3668631461036d5780635b404bad146103aa5780635d9644c4146103d55780636db7943714610401576101ee565b80633b35440a116101b65780633b35440a146102b15780633e89340f146102ee5780634076245f1461031957806346caf2ae14610342576101ee565b8063077622a2146101f3578063269fa1281461021e5780632e17de781461024957806331dd132e14610286576101ee565b366101ee57005b600080fd5b3480156101ff57600080fd5b506102086107cb565b60405161021591906152c6565b60405180910390f35b34801561022a57600080fd5b50610233610812565b60405161024091906152c6565b60405180910390f35b34801561025557600080fd5b50610270600480360381019061026b9190614a2a565b61087a565b60405161027d91906152c6565b60405180910390f35b34801561029257600080fd5b5061029b610cec565b6040516102a891906152c6565b60405180910390f35b3480156102bd57600080fd5b506102d860048036038101906102d39190614853565b610da1565b6040516102e5919061510b565b60405180910390f35b3480156102fa57600080fd5b50610303611066565b604051610310919061510b565b60405180910390f35b34801561032557600080fd5b50610340600480360381019061033b9190614a2a565b61108b565b005b34801561034e57600080fd5b506103576115d4565b60405161036491906152c6565b60405180910390f35b34801561037957600080fd5b50610394600480360381019061038f9190614a2a565b6115ec565b6040516103a191906152c6565b60405180910390f35b3480156103b657600080fd5b506103bf611a31565b6040516103cc91906152c6565b60405180910390f35b3480156103e157600080fd5b506103ea611d02565b6040516103f892919061530a565b60405180910390f35b34801561040d57600080fd5b5061042860048036038101906104239190614a7c565b611d24565b604051610435919061510b565b60405180910390f35b34801561044a57600080fd5b5061046560048036038101906104609190614a2a565b611f75565b60405161047291906152c6565b60405180910390f35b34801561048757600080fd5b50610490612567565b60405161049d91906152c6565b60405180910390f35b3480156104b257600080fd5b506104bb612595565b005b3480156104c957600080fd5b506104e460048036038101906104df9190614922565b6128ed565b005b3480156104f257600080fd5b5061050d60048036038101906105089190614a2a565b612bab565b60405161051a91906152c6565b60405180910390f35b34801561052f57600080fd5b50610538612c7a565b60405161054591906152c6565b60405180910390f35b34801561055a57600080fd5b5061057560048036038101906105709190614a2a565b612cc6565b60405161058291906152c6565b60405180910390f35b34801561059757600080fd5b506105a0612f55565b6040516105ae929190615090565b60405180910390f35b3480156105c357600080fd5b506105cc612fb7565b6040516105d991906152c6565b60405180910390f35b3480156105ee57600080fd5b5061060960048036038101906106049190614a2a565b612fe5565b60405161061691906152c6565b60405180910390f35b34801561062b57600080fd5b506106346130b1565b005b34801561064257600080fd5b5061064b61378d565b6040516106589190614fc3565b60405180910390f35b34801561066d57600080fd5b506106766137c5565b6040516106859392919061538d565b60405180910390f35b34801561069a57600080fd5b506106a36137f0565b6040516106b0919061510b565b60405180910390f35b3480156106c557600080fd5b506106e060048036038101906106db91906148f9565b613ac4565b005b3480156106ee57600080fd5b506106f7613d88565b60405161070491906152c6565b60405180910390f35b34801561071957600080fd5b50610722614059565b60405161072f91906152c6565b60405180910390f35b34801561074457600080fd5b5061074d614071565b60405161075a91906152c6565b60405180910390f35b34801561076f57600080fd5b5061078a60048036038101906107859190614ab8565b614092565b604051610797919061510b565b60405180910390f35b3480156107ac57600080fd5b506107b56143c6565b6040516107c291906152c6565b60405180910390f35b6000806107d66143fc565b905080600401546002026107fb8260080154836007015461442990919063ffffffff16565b610803614071565b028161080b57fe5b0491505090565b600061081c612567565b6108246115d4565b118061083757506000610835610cec565b145b8061085857506108456115d4565b61084d6107cb565b03610856610cec565b105b610872576108646115d4565b61086c6107cb565b03610875565b60005b905090565b6000806108856143fc565b905080600e0160009054906101000a900460ff16156108d9576040517f08c379a00000000000000000000000000000000000000000000000000000000081526004016108d090615226565b60405180910390fd5b60006108e36143fc565b90506108ed612c7a565b84111561092f576040517f08c379a0000000000000000000000000000000000000000000000000000000008152600401610926906151c6565b60405180910390fd5b8060000160019054906101000a900473ffffffffffffffffffffffffffffffffffffffff1673ffffffffffffffffffffffffffffffffffffffff166370a08231306040518263ffffffff1660e01b815260040161098c9190614fde565b60206040518083038186803b1580156109a457600080fd5b505afa1580156109b8573d6000803e3d6000fd5b505050506040513d601f19601f820116820180604052508101906109dc9190614a53565b841115610a1e576040517f08c379a0000000000000000000000000000000000000000000000000000000008152600401610a15906151e6565b60405180910390fd5b6000610a2985612fe5565b90508160010160009054906101000a900473ffffffffffffffffffffffffffffffffffffffff1673ffffffffffffffffffffffffffffffffffffffff166370a08231336040518263ffffffff1660e01b8152600401610a889190614fde565b60206040518083038186803b158015610aa057600080fd5b505afa158015610ab4573d6000803e3d6000fd5b505050506040513d601f19601f82011682018060405250810190610ad89190614a53565b811115610b1a576040517f08c379a0000000000000000000000000000000000000000000000000000000008152600401610b1190615206565b60405180910390fd5b600082600401548360060154870281610b2f57fe5b0490508083600b01540183600b0181905550610b588684600a01546144b190919063ffffffff16565b83600a01819055508260000160019054906101000a900473ffffffffffffffffffffffffffffffffffffffff1673ffffffffffffffffffffffffffffffffffffffff1663a9059cbb338389036040518363ffffffff1660e01b8152600401610bc1929190615067565b602060405180830381600087803b158015610bdb57600080fd5b505af1158015610bef573d6000803e3d6000fd5b505050506040513d601f19601f82011682018060405250810190610c1391906148d0565b508260010160009054906101000a900473ffffffffffffffffffffffffffffffffffffffff1673ffffffffffffffffffffffffffffffffffffffff16639dc29fac33846040518363ffffffff1660e01b8152600401610c73929190615067565b600060405180830381600087803b158015610c8d57600080fd5b505af1158015610ca1573d6000803e3d6000fd5b505050507f42b2a4ad2d4bdf57e819ccd3c6ce6d0a8d6d20b5d3dbf94ef2b05c42f523c6103387604051610cd6929190615067565b60405180910390a1808603945050505050919050565b600080610cf76143fc565b90508060020160009054906101000a900473ffffffffffffffffffffffffffffffffffffffff1673ffffffffffffffffffffffffffffffffffffffff16631d01364c6040518163ffffffff1660e01b815260040160206040518083038186803b158015610d6357600080fd5b505afa158015610d77573d6000803e3d6000fd5b505050506040513d601f19601f82011682018060405250810190610d9b9190614a53565b91505090565b600080610dac6143fc565b90503373ffffffffffffffffffffffffffffffffffffffff1681600f0160009054906101000a900473ffffffffffffffffffffffffffffffffffffffff1673ffffffffffffffffffffffffffffffffffffffff1614610e40576040517f08c379a0000000000000000000000000000000000000000000000000000000008152600401610e3790615246565b60405180910390fd5b6000610e4a6143fc565b90506000610f163a610f088460100160009054906101000a900473ffffffffffffffffffffffffffffffffffffffff1673ffffffffffffffffffffffffffffffffffffffff166384e9a9016040518163ffffffff1660e01b8152600401602060405180830381600087803b158015610ec157600080fd5b505af1158015610ed5573d6000803e3d6000fd5b505050506040513d601f19601f82011682018060405250810190610ef99190614a53565b5a61442990919063ffffffff16565b6144fb90919063ffffffff16565b90508582600e0160016101000a81548173ffffffffffffffffffffffffffffffffffffffff021916908373ffffffffffffffffffffffffffffffffffffffff1602179055508482600f0160006101000a81548173ffffffffffffffffffffffffffffffffffffffff021916908373ffffffffffffffffffffffffffffffffffffffff1602179055506000610fc5610fb63a5a6144fb90919063ffffffff16565b836144b190919063ffffffff16565b90508260100160009054906101000a900473ffffffffffffffffffffffffffffffffffffffff1673ffffffffffffffffffffffffffffffffffffffff16636c55068282336040518363ffffffff1660e01b81526004016110269291906152e1565b600060405180830381600087803b15801561104057600080fd5b505af1158015611054573d6000803e3d6000fd5b50505050600194505050505092915050565b6000806110716143fc565b905080600e0160009054906101000a900460ff1691505090565b60006110956143fc565b905080600e0160009054906101000a900460ff16156110e9576040517f08c379a00000000000000000000000000000000000000000000000000000000081526004016110e090615226565b60405180910390fd5b60006110f36143fc565b90503373ffffffffffffffffffffffffffffffffffffffff1681600f0160009054906101000a900473ffffffffffffffffffffffffffffffffffffffff1673ffffffffffffffffffffffffffffffffffffffff1614611187576040517f08c379a000000000000000000000000000000000000000000000000000000000815260040161117e90615246565b60405180910390fd5b60006111916143fc565b9050600061125d3a61124f8460100160009054906101000a900473ffffffffffffffffffffffffffffffffffffffff1673ffffffffffffffffffffffffffffffffffffffff166384e9a9016040518163ffffffff1660e01b8152600401602060405180830381600087803b15801561120857600080fd5b505af115801561121c573d6000803e3d6000fd5b505050506040513d601f19601f820116820180604052508101906112409190614a53565b5a61442990919063ffffffff16565b6144fb90919063ffffffff16565b90506000611269610cec565b116112a9576040517f08c379a00000000000000000000000000000000000000000000000000000000081526004016112a090615186565b60405180910390fd5b60008260000160019054906101000a900473ffffffffffffffffffffffffffffffffffffffff1673ffffffffffffffffffffffffffffffffffffffff166370a08231306040518263ffffffff1660e01b81526004016113089190614fde565b60206040518083038186803b15801561132057600080fd5b505afa158015611334573d6000803e3d6000fd5b505050506040513d601f19601f820116820180604052508101906113589190614a53565b90508260020160009054906101000a900473ffffffffffffffffffffffffffffffffffffffff1673ffffffffffffffffffffffffffffffffffffffff1663958e2d31876040518263ffffffff1660e01b81526004016113b791906152c6565b600060405180830381600087803b1580156113d157600080fd5b505af11580156113e5573d6000803e3d6000fd5b5050505060008360000160019054906101000a900473ffffffffffffffffffffffffffffffffffffffff1673ffffffffffffffffffffffffffffffffffffffff166370a08231306040518263ffffffff1660e01b81526004016114489190614fde565b60206040518083038186803b15801561146057600080fd5b505afa158015611474573d6000803e3d6000fd5b505050506040513d601f19601f820116820180604052508101906114989190614a53565b9050600082820390508085600a01540185600a01819055507fe2da54b49c071dfc046fee542e5201277eee89662a48be76fe432bce2ce1443b338660020160009054906101000a900473ffffffffffffffffffffffffffffffffffffffff168360405161150793929190615030565b60405180910390a160006115366115273a5a6144fb90919063ffffffff16565b866144b190919063ffffffff16565b90508560100160009054906101000a900473ffffffffffffffffffffffffffffffffffffffff1673ffffffffffffffffffffffffffffffffffffffff16636c55068282336040518363ffffffff1660e01b81526004016115979291906152e1565b600060405180830381600087803b1580156115b157600080fd5b505af11580156115c5573d6000803e3d6000fd5b50505050505050505050505050565b6000806115df6143fc565b905080600a015491505090565b6000806115f76143fc565b905080600e0160009054906101000a900460ff161561164b576040517f08c379a000000000000000000000000000000000000000000000000000000000815260040161164290615226565b60405180910390fd5b60006116556143fc565b90503373ffffffffffffffffffffffffffffffffffffffff1681600e0160019054906101000a900473ffffffffffffffffffffffffffffffffffffffff1673ffffffffffffffffffffffffffffffffffffffff16148061170457503373ffffffffffffffffffffffffffffffffffffffff1681600f0160009054906101000a900473ffffffffffffffffffffffffffffffffffffffff1673ffffffffffffffffffffffffffffffffffffffff16145b611743576040517f08c379a000000000000000000000000000000000000000000000000000000000815260040161173a90615146565b60405180910390fd5b600061174d6143fc565b905060006118193a61180b8460100160009054906101000a900473ffffffffffffffffffffffffffffffffffffffff1673ffffffffffffffffffffffffffffffffffffffff166384e9a9016040518163ffffffff1660e01b8152600401602060405180830381600087803b1580156117c457600080fd5b505af11580156117d8573d6000803e3d6000fd5b505050506040513d601f19601f820116820180604052508101906117fc9190614a53565b5a61442990919063ffffffff16565b6144fb90919063ffffffff16565b90506000611825610812565b90506000811161186a576040517f08c379a000000000000000000000000000000000000000000000000000000000815260040161186190615186565b60405180910390fd5b8083600a01540183600a01819055508260020160009054906101000a900473ffffffffffffffffffffffffffffffffffffffff1673ffffffffffffffffffffffffffffffffffffffff1663441a3e7082896040518363ffffffff1660e01b81526004016118d892919061530a565b600060405180830381600087803b1580156118f257600080fd5b505af1158015611906573d6000803e3d6000fd5b505050507fe2da54b49c071dfc046fee542e5201277eee89662a48be76fe432bce2ce1443b338460020160009054906101000a900473ffffffffffffffffffffffffffffffffffffffff168360405161196193929190615030565b60405180910390a160006119906119813a5a6144fb90919063ffffffff16565b846144b190919063ffffffff16565b90508360100160009054906101000a900473ffffffffffffffffffffffffffffffffffffffff1673ffffffffffffffffffffffffffffffffffffffff16636c55068282336040518363ffffffff1660e01b81526004016119f19291906152e1565b600060405180830381600087803b158015611a0b57600080fd5b505af1158015611a1f573d6000803e3d6000fd5b50505050819650505050505050919050565b600080611a3c6143fc565b905060008160010160009054906101000a900473ffffffffffffffffffffffffffffffffffffffff1673ffffffffffffffffffffffffffffffffffffffff166318160ddd6040518163ffffffff1660e01b815260040160206040518083038186803b158015611aaa57600080fd5b505afa158015611abe573d6000803e3d6000fd5b505050506040513d601f19601f82011682018060405250810190611ae29190614a53565b1480611af557506000611af3614071565b145b611c5657611b01614071565b8160010160009054906101000a900473ffffffffffffffffffffffffffffffffffffffff1673ffffffffffffffffffffffffffffffffffffffff166318160ddd6040518163ffffffff1660e01b815260040160206040518083038186803b158015611b6b57600080fd5b505afa158015611b7f573d6000803e3d6000fd5b505050506040513d601f19601f82011682018060405250810190611ba39190614a53565b8260000160019054906101000a900473ffffffffffffffffffffffffffffffffffffffff1673ffffffffffffffffffffffffffffffffffffffff1663313ce5676040518163ffffffff1660e01b815260040160206040518083038186803b158015611c0d57600080fd5b505afa158015611c21573d6000803e3d6000fd5b505050506040513d601f19601f82011682018060405250810190611c459190614a53565b600a0a0281611c5057fe5b04611cfc565b8060000160019054906101000a900473ffffffffffffffffffffffffffffffffffffffff1673ffffffffffffffffffffffffffffffffffffffff1663313ce5676040518163ffffffff1660e01b815260040160206040518083038186803b158015611cc057600080fd5b505afa158015611cd4573d6000803e3d6000fd5b505050506040513d601f19601f82011682018060405250810190611cf89190614a53565b600a0a5b91505090565b6000806000611d0f6143fc565b90508060050154816006015492509250509091565b600080611d2f6143fc565b90503373ffffffffffffffffffffffffffffffffffffffff1681600f0160009054906101000a900473ffffffffffffffffffffffffffffffffffffffff1673ffffffffffffffffffffffffffffffffffffffff1614611dc3576040517f08c379a0000000000000000000000000000000000000000000000000000000008152600401611dba90615246565b60405180910390fd5b6000611dcd6143fc565b90506000611e993a611e8b8460100160009054906101000a900473ffffffffffffffffffffffffffffffffffffffff1673ffffffffffffffffffffffffffffffffffffffff166384e9a9016040518163ffffffff1660e01b8152600401602060405180830381600087803b158015611e4457600080fd5b505af1158015611e58573d6000803e3d6000fd5b505050506040513d601f19601f82011682018060405250810190611e7c9190614a53565b5a61442990919063ffffffff16565b6144fb90919063ffffffff16565b90508482600601819055508582600501819055506000611ed4611ec53a5a6144fb90919063ffffffff16565b836144b190919063ffffffff16565b90508260100160009054906101000a900473ffffffffffffffffffffffffffffffffffffffff1673ffffffffffffffffffffffffffffffffffffffff16636c55068282336040518363ffffffff1660e01b8152600401611f359291906152e1565b600060405180830381600087803b158015611f4f57600080fd5b505af1158015611f63573d6000803e3d6000fd5b50505050600194505050505092915050565b600080611f806143fc565b905080600e0160009054906101000a900460ff1615611fd4576040517f08c379a0000000000000000000000000000000000000000000000000000000008152600401611fcb90615226565b60405180910390fd5b6000611fde6143fc565b90503373ffffffffffffffffffffffffffffffffffffffff1681600e0160019054906101000a900473ffffffffffffffffffffffffffffffffffffffff1673ffffffffffffffffffffffffffffffffffffffff16148061208d57503373ffffffffffffffffffffffffffffffffffffffff1681600f0160009054906101000a900473ffffffffffffffffffffffffffffffffffffffff1673ffffffffffffffffffffffffffffffffffffffff16145b6120cc576040517f08c379a00000000000000000000000000000000000000000000000000000000081526004016120c390615146565b60405180910390fd5b60006120d66143fc565b905060006121a23a6121948460100160009054906101000a900473ffffffffffffffffffffffffffffffffffffffff1673ffffffffffffffffffffffffffffffffffffffff166384e9a9016040518163ffffffff1660e01b8152600401602060405180830381600087803b15801561214d57600080fd5b505af1158015612161573d6000803e3d6000fd5b505050506040513d601f19601f820116820180604052508101906121859190614a53565b5a61442990919063ffffffff16565b6144fb90919063ffffffff16565b905060006121ae6143c6565b9050600081116121f3576040517f08c379a00000000000000000000000000000000000000000000000000000000081526004016121ea90615126565b60405180910390fd5b8083600a01540383600a01819055508260000160019054906101000a900473ffffffffffffffffffffffffffffffffffffffff1673ffffffffffffffffffffffffffffffffffffffff1663095ea7b38460020160009054906101000a900473ffffffffffffffffffffffffffffffffffffffff1660006040518363ffffffff1660e01b81526004016122869291906150b9565b602060405180830381600087803b1580156122a057600080fd5b505af11580156122b4573d6000803e3d6000fd5b505050506040513d601f19601f820116820180604052508101906122d891906148d0565b508260000160019054906101000a900473ffffffffffffffffffffffffffffffffffffffff1673ffffffffffffffffffffffffffffffffffffffff1663095ea7b38460020160009054906101000a900473ffffffffffffffffffffffffffffffffffffffff16836040518363ffffffff1660e01b815260040161235c9291906150e2565b602060405180830381600087803b15801561237657600080fd5b505af115801561238a573d6000803e3d6000fd5b505050506040513d601f19601f820116820180604052508101906123ae91906148d0565b508260020160009054906101000a900473ffffffffffffffffffffffffffffffffffffffff1673ffffffffffffffffffffffffffffffffffffffff1663e2bbb15882896040518363ffffffff1660e01b815260040161240e92919061530a565b600060405180830381600087803b15801561242857600080fd5b505af115801561243c573d6000803e3d6000fd5b505050507f5123d8a168830852333177a82ac00938d8567897d76f68e27c135f5ca9776733338460020160009054906101000a900473ffffffffffffffffffffffffffffffffffffffff168360405161249793929190615030565b60405180910390a160006124c66124b73a5a6144fb90919063ffffffff16565b846144b190919063ffffffff16565b90508360100160009054906101000a900473ffffffffffffffffffffffffffffffffffffffff1673ffffffffffffffffffffffffffffffffffffffff16636c55068282336040518363ffffffff1660e01b81526004016125279291906152e1565b600060405180830381600087803b15801561254157600080fd5b505af1158015612555573d6000803e3d6000fd5b50505050819650505050505050919050565b6000806125726143fc565b905080600401548160070154612586614071565b028161258e57fe5b0491505090565b600061259f6143fc565b90503373ffffffffffffffffffffffffffffffffffffffff1681600e0160019054906101000a900473ffffffffffffffffffffffffffffffffffffffff1673ffffffffffffffffffffffffffffffffffffffff16148061264e57503373ffffffffffffffffffffffffffffffffffffffff1681600f0160009054906101000a900473ffffffffffffffffffffffffffffffffffffffff1673ffffffffffffffffffffffffffffffffffffffff16145b61268d576040517f08c379a000000000000000000000000000000000000000000000000000000000815260040161268490615146565b60405180910390fd5b60006126976143fc565b905060006127633a6127558460100160009054906101000a900473ffffffffffffffffffffffffffffffffffffffff1673ffffffffffffffffffffffffffffffffffffffff166384e9a9016040518163ffffffff1660e01b8152600401602060405180830381600087803b15801561270e57600080fd5b505af1158015612722573d6000803e3d6000fd5b505050506040513d601f19601f820116820180604052508101906127469190614a53565b5a61442990919063ffffffff16565b6144fb90919063ffffffff16565b905060008260020160009054906101000a900473ffffffffffffffffffffffffffffffffffffffff1673ffffffffffffffffffffffffffffffffffffffff16632fbd70826040518163ffffffff1660e01b8152600401602060405180830381600087803b1580156127d357600080fd5b505af11580156127e7573d6000803e3d6000fd5b505050506040513d601f19601f8201168201806040525081019061280b9190614a53565b90506128248184600a015461442990919063ffffffff16565b83600a018190555060006128536128443a5a6144fb90919063ffffffff16565b846144b190919063ffffffff16565b90508360100160009054906101000a900473ffffffffffffffffffffffffffffffffffffffff1673ffffffffffffffffffffffffffffffffffffffff16636c55068282336040518363ffffffff1660e01b81526004016128b49291906152e1565b600060405180830381600087803b1580156128ce57600080fd5b505af11580156128e2573d6000803e3d6000fd5b505050505050505050565b60006128f76143fc565b90508060000160009054906101000a900460ff161561294b576040517f08c379a000000000000000000000000000000000000000000000000000000000815260040161294290615266565b60405180910390fd5b8460008151811061295857fe5b602002602001015181600e0160016101000a81548173ffffffffffffffffffffffffffffffffffffffff021916908373ffffffffffffffffffffffffffffffffffffffff160217905550846001815181106129af57fe5b602002602001015181600f0160006101000a81548173ffffffffffffffffffffffffffffffffffffffff021916908373ffffffffffffffffffffffffffffffffffffffff16021790555061271081600401819055508b8160000160016101000a81548173ffffffffffffffffffffffffffffffffffffffff021916908373ffffffffffffffffffffffffffffffffffffffff1602179055508a8160010160006101000a81548173ffffffffffffffffffffffffffffffffffffffff021916908373ffffffffffffffffffffffffffffffffffffffff160217905550898160070181905550888160080181905550878160060181905550868160050181905550838160020160006101000a81548173ffffffffffffffffffffffffffffffffffffffff021916908373ffffffffffffffffffffffffffffffffffffffff1602179055508581600d0181905550828160030160006101000a81548173ffffffffffffffffffffffffffffffffffffffff021916908373ffffffffffffffffffffffffffffffffffffffff160217905550818160100160006101000a81548173ffffffffffffffffffffffffffffffffffffffff021916908373ffffffffffffffffffffffffffffffffffffffff16021790555060018160000160006101000a81548160ff021916908315150217905550505050505050505050505050565b600080612bb66143fc565b90508060010160009054906101000a900473ffffffffffffffffffffffffffffffffffffffff1673ffffffffffffffffffffffffffffffffffffffff1663313ce5676040518163ffffffff1660e01b815260040160206040518083038186803b158015612c2257600080fd5b505afa158015612c36573d6000803e3d6000fd5b505050506040513d601f19601f82011682018060405250810190612c5a9190614a53565b600a0a612c65613d88565b840281612c6e57fe5b04925082915050919050565b600080612c856143fc565b905080600d01546002612c96612567565b81612c9d57fe5b0410612cad5780600d0154612cc0565b6002612cb7612567565b81612cbe57fe5b045b91505090565b600080612cd16143fc565b905080600e0160009054906101000a900460ff1615612d25576040517f08c379a0000000000000000000000000000000000000000000000000000000008152600401612d1c90615226565b60405180910390fd5b60008311612d68576040517f08c379a0000000000000000000000000000000000000000000000000000000008152600401612d5f906151a6565b60405180910390fd5b6000612d726143fc565b9050600081600401548260050154860281612d8957fe5b0490508082600b01540182600b01819055506000612da8828703612fe5565b9050612dc382870384600a015461442990919063ffffffff16565b83600a01819055508260000160019054906101000a900473ffffffffffffffffffffffffffffffffffffffff1673ffffffffffffffffffffffffffffffffffffffff166323b872dd3330896040518463ffffffff1660e01b8152600401612e2c93929190614ff9565b602060405180830381600087803b158015612e4657600080fd5b505af1158015612e5a573d6000803e3d6000fd5b505050506040513d601f19601f82011682018060405250810190612e7e91906148d0565b508260010160009054906101000a900473ffffffffffffffffffffffffffffffffffffffff1673ffffffffffffffffffffffffffffffffffffffff166340c10f1933836040518363ffffffff1660e01b8152600401612ede929190615067565b600060405180830381600087803b158015612ef857600080fd5b505af1158015612f0c573d6000803e3d6000fd5b505050507f08f43333671aca8015183efb2197dac68519c827a11e6788eac8c80131169a643387604051612f41929190615067565b60405180910390a180945050505050919050565b6000806000612f626143fc565b905080600e0160019054906101000a900473ffffffffffffffffffffffffffffffffffffffff1681600f0160009054906101000a900473ffffffffffffffffffffffffffffffffffffffff1692509250509091565b600080612fc26143fc565b905080600401548160080154612fd6614071565b0281612fde57fe5b0491505090565b600080612ff06143fc565b90508060000160019054906101000a900473ffffffffffffffffffffffffffffffffffffffff1673ffffffffffffffffffffffffffffffffffffffff1663313ce5676040518163ffffffff1660e01b815260040160206040518083038186803b15801561305c57600080fd5b505afa158015613070573d6000803e3d6000fd5b505050506040513d601f19601f820116820180604052508101906130949190614a53565b600a0a61309f611a31565b8402816130a857fe5b04915050919050565b60006130bb6143fc565b90503373ffffffffffffffffffffffffffffffffffffffff1681600e0160019054906101000a900473ffffffffffffffffffffffffffffffffffffffff1673ffffffffffffffffffffffffffffffffffffffff16148061316a57503373ffffffffffffffffffffffffffffffffffffffff1681600f0160009054906101000a900473ffffffffffffffffffffffffffffffffffffffff1673ffffffffffffffffffffffffffffffffffffffff16145b6131a9576040517f08c379a00000000000000000000000000000000000000000000000000000000081526004016131a090615146565b60405180910390fd5b60006131b36143fc565b9050600061327f3a6132718460100160009054906101000a900473ffffffffffffffffffffffffffffffffffffffff1673ffffffffffffffffffffffffffffffffffffffff166384e9a9016040518163ffffffff1660e01b8152600401602060405180830381600087803b15801561322a57600080fd5b505af115801561323e573d6000803e3d6000fd5b505050506040513d601f19601f820116820180604052508101906132629190614a53565b5a61442990919063ffffffff16565b6144fb90919063ffffffff16565b90506000600267ffffffffffffffff8111801561329b57600080fd5b506040519080825280602002602001820160405280156132ca5781602001602082028036833780820191505090505b509050600083600b01549050600084600b01819055508360000160019054906101000a900473ffffffffffffffffffffffffffffffffffffffff1673ffffffffffffffffffffffffffffffffffffffff1663095ea7b38560030160009054906101000a900473ffffffffffffffffffffffffffffffffffffffff1660006040518363ffffffff1660e01b81526004016133649291906150b9565b602060405180830381600087803b15801561337e57600080fd5b505af1158015613392573d6000803e3d6000fd5b505050506040513d601f19601f820116820180604052508101906133b691906148d0565b508360000160019054906101000a900473ffffffffffffffffffffffffffffffffffffffff1673ffffffffffffffffffffffffffffffffffffffff1663095ea7b38560030160009054906101000a900473ffffffffffffffffffffffffffffffffffffffff16836040518363ffffffff1660e01b815260040161343a9291906150e2565b602060405180830381600087803b15801561345457600080fd5b505af1158015613468573d6000803e3d6000fd5b505050506040513d601f19601f8201168201806040525081019061348c91906148d0565b508360000160019054906101000a900473ffffffffffffffffffffffffffffffffffffffff16826000815181106134bf57fe5b602002602001019073ffffffffffffffffffffffffffffffffffffffff16908173ffffffffffffffffffffffffffffffffffffffff16815250508360030160009054906101000a900473ffffffffffffffffffffffffffffffffffffffff1673ffffffffffffffffffffffffffffffffffffffff1663ad5c46486040518163ffffffff1660e01b815260040160206040518083038186803b15801561356357600080fd5b505afa158015613577573d6000803e3d6000fd5b505050506040513d601f19601f8201168201806040525081019061359b919061482a565b826001815181106135a857fe5b602002602001019073ffffffffffffffffffffffffffffffffffffffff16908173ffffffffffffffffffffffffffffffffffffffff168152505060008460030160009054906101000a900473ffffffffffffffffffffffffffffffffffffffff1673ffffffffffffffffffffffffffffffffffffffff166318cbafe58383868960100160009054906101000a900473ffffffffffffffffffffffffffffffffffffffff16620186a042016040518663ffffffff1660e01b8152600401613672959493929190615333565b600060405180830381600087803b15801561368c57600080fd5b505af11580156136a0573d6000803e3d6000fd5b505050506040513d6000823e3d601f19601f820116820180604052508101906136c9919061488f565b5060006136f16136e23a5a6144fb90919063ffffffff16565b866144b190919063ffffffff16565b90508560100160009054906101000a900473ffffffffffffffffffffffffffffffffffffffff1673ffffffffffffffffffffffffffffffffffffffff16636c55068282336040518363ffffffff1660e01b81526004016137529291906152e1565b600060405180830381600087803b15801561376c57600080fd5b505af1158015613780573d6000803e3d6000fd5b5050505050505050505050565b6000806137986143fc565b90508060010160009054906101000a900473ffffffffffffffffffffffffffffffffffffffff1691505090565b6000806000806137d36143fc565b90508060070154816008015482600d015493509350935050909192565b6000806137fb6143fc565b90503373ffffffffffffffffffffffffffffffffffffffff1681600e0160019054906101000a900473ffffffffffffffffffffffffffffffffffffffff1673ffffffffffffffffffffffffffffffffffffffff1614806138aa57503373ffffffffffffffffffffffffffffffffffffffff1681600f0160009054906101000a900473ffffffffffffffffffffffffffffffffffffffff1673ffffffffffffffffffffffffffffffffffffffff16145b6138e9576040517f08c379a00000000000000000000000000000000000000000000000000000000081526004016138e090615146565b60405180910390fd5b60006138f36143fc565b905060006139bf3a6139b18460100160009054906101000a900473ffffffffffffffffffffffffffffffffffffffff1673ffffffffffffffffffffffffffffffffffffffff166384e9a9016040518163ffffffff1660e01b8152600401602060405180830381600087803b15801561396a57600080fd5b505af115801561397e573d6000803e3d6000fd5b505050506040513d601f19601f820116820180604052508101906139a29190614a53565b5a61442990919063ffffffff16565b6144fb90919063ffffffff16565b905081600e0160009054906101000a900460ff161582600e0160006101000a81548160ff0219169083151502179055506000613a16613a073a5a6144fb90919063ffffffff16565b836144b190919063ffffffff16565b90508260100160009054906101000a900473ffffffffffffffffffffffffffffffffffffffff1673ffffffffffffffffffffffffffffffffffffffff16636c55068282336040518363ffffffff1660e01b8152600401613a779291906152e1565b600060405180830381600087803b158015613a9157600080fd5b505af1158015613aa5573d6000803e3d6000fd5b5050505082600e0160009054906101000a900460ff1694505050505090565b6000613ace6143fc565b90503373ffffffffffffffffffffffffffffffffffffffff1681600f0160009054906101000a900473ffffffffffffffffffffffffffffffffffffffff1673ffffffffffffffffffffffffffffffffffffffff1614613b62576040517f08c379a0000000000000000000000000000000000000000000000000000000008152600401613b5990615246565b60405180910390fd5b6000613b6c6143fc565b90506000613c383a613c2a8460100160009054906101000a900473ffffffffffffffffffffffffffffffffffffffff1673ffffffffffffffffffffffffffffffffffffffff166384e9a9016040518163ffffffff1660e01b8152600401602060405180830381600087803b158015613be357600080fd5b505af1158015613bf7573d6000803e3d6000fd5b505050506040513d601f19601f82011682018060405250810190613c1b9190614a53565b5a61442990919063ffffffff16565b6144fb90919063ffffffff16565b90506000613c44610cec565b14613c84576040517f08c379a0000000000000000000000000000000000000000000000000000000008152600401613c7b90615286565b60405180910390fd5b838260020160006101000a81548173ffffffffffffffffffffffffffffffffffffffff021916908373ffffffffffffffffffffffffffffffffffffffff1602179055506000613cee613cdf3a5a6144fb90919063ffffffff16565b836144b190919063ffffffff16565b90508260100160009054906101000a900473ffffffffffffffffffffffffffffffffffffffff1673ffffffffffffffffffffffffffffffffffffffff16636c55068282336040518363ffffffff1660e01b8152600401613d4f9291906152e1565b600060405180830381600087803b158015613d6957600080fd5b505af1158015613d7d573d6000803e3d6000fd5b505050505050505050565b600080613d936143fc565b905060008160010160009054906101000a900473ffffffffffffffffffffffffffffffffffffffff1673ffffffffffffffffffffffffffffffffffffffff166318160ddd6040518163ffffffff1660e01b815260040160206040518083038186803b158015613e0157600080fd5b505afa158015613e15573d6000803e3d6000fd5b505050506040513d601f19601f82011682018060405250810190613e399190614a53565b1480613e4c57506000613e4a614071565b145b613fad578060010160009054906101000a900473ffffffffffffffffffffffffffffffffffffffff1673ffffffffffffffffffffffffffffffffffffffff166318160ddd6040518163ffffffff1660e01b815260040160206040518083038186803b158015613eba57600080fd5b505afa158015613ece573d6000803e3d6000fd5b505050506040513d601f19601f82011682018060405250810190613ef29190614a53565b613efa614071565b8260010160009054906101000a900473ffffffffffffffffffffffffffffffffffffffff1673ffffffffffffffffffffffffffffffffffffffff1663313ce5676040518163ffffffff1660e01b815260040160206040518083038186803b158015613f6457600080fd5b505afa158015613f78573d6000803e3d6000fd5b505050506040513d601f19601f82011682018060405250810190613f9c9190614a53565b600a0a0281613fa757fe5b04614053565b8060010160009054906101000a900473ffffffffffffffffffffffffffffffffffffffff1673ffffffffffffffffffffffffffffffffffffffff1663313ce5676040518163ffffffff1660e01b815260040160206040518083038186803b15801561401757600080fd5b505afa15801561402b573d6000803e3d6000fd5b505050506040513d601f19601f8201168201806040525081019061404f9190614a53565b600a0a5b91505090565b6000806140646143fc565b905080600b015491505090565b60008061407c6143fc565b9050614086610cec565b81600a01540191505090565b60008061409d6143fc565b90503373ffffffffffffffffffffffffffffffffffffffff1681600f0160009054906101000a900473ffffffffffffffffffffffffffffffffffffffff1673ffffffffffffffffffffffffffffffffffffffff1614614131576040517f08c379a000000000000000000000000000000000000000000000000000000000815260040161412890615246565b60405180910390fd5b6000861180156141415750600085115b801561414d5750600084115b61418c576040517f08c379a000000000000000000000000000000000000000000000000000000000815260040161418390615166565b60405180910390fd5b8486106141ce576040517f08c379a00000000000000000000000000000000000000000000000000000000081526004016141c5906152a6565b60405180910390fd5b60006141d86143fc565b905060006142a43a6142968460100160009054906101000a900473ffffffffffffffffffffffffffffffffffffffff1673ffffffffffffffffffffffffffffffffffffffff166384e9a9016040518163ffffffff1660e01b8152600401602060405180830381600087803b15801561424f57600080fd5b505af1158015614263573d6000803e3d6000fd5b505050506040513d601f19601f820116820180604052508101906142879190614a53565b5a61442990919063ffffffff16565b6144fb90919063ffffffff16565b90508782600701819055508682600801819055508582600d018190555060006142e86142d93a5a6144fb90919063ffffffff16565b836144b190919063ffffffff16565b90508260100160009054906101000a900473ffffffffffffffffffffffffffffffffffffffff1673ffffffffffffffffffffffffffffffffffffffff16636c55068282336040518363ffffffff1660e01b81526004016143499291906152e1565b600060405180830381600087803b15801561436357600080fd5b505af1158015614377573d6000803e3d6000fd5b5050505060006143856143c6565b111561439a5761439486611f75565b506143b6565b60006143a4610812565b11156143b5576143b3866115ec565b505b5b6001945050505050949350505050565b60006143d0612fb7565b6143d86115d4565b11156143f4576143e66107cb565b6143ee6115d4565b036143f7565b60005b905090565b6000807f6c2f2617da7540533aede37184df9fe8d14d2f091e9a392f2685af4b9851d17290508091505090565b6000808284019050838110156144a7576040517f08c379a000000000000000000000000000000000000000000000000000000000815260040180806020018281038252601b8152602001807f536166654d6174683a206164646974696f6e206f766572666c6f77000000000081525060200191505060405180910390fd5b8091505092915050565b60006144f383836040518060400160405280601f81526020017f536166654d6174683a207375627472616374696f6e20756e646572666c6f7700815250614581565b905092915050565b60008083141561450e576000905061457b565b600082840290508284828161451f57fe5b0414614576576040517f08c379a00000000000000000000000000000000000000000000000000000000081526004018080602001828103825260218152602001806156136021913960400191505060405180910390fd5b809150505b92915050565b600083831115829061462e576040517f08c379a00000000000000000000000000000000000000000000000000000000081526004018080602001828103825283818151815260200191508051906020019080838360005b838110156145f35780820151818401526020810190506145d8565b50505050905090810190601f1680156146205780820380516001836020036101000a031916815260200191505b509250505060405180910390fd5b5060008385039050809150509392505050565b600061465461464f846153f5565b6153c4565b9050808382526020820190508285602086028201111561467357600080fd5b60005b858110156146a357816146898882614719565b845260208401935060208301925050600181019050614676565b5050509392505050565b60006146c06146bb84615421565b6153c4565b905080838252602082019050828560208602820111156146df57600080fd5b60005b8581101561470f57816146f58882614815565b8452602084019350602083019250506001810190506146e2565b5050509392505050565b60008135905061472881615571565b92915050565b60008151905061473d81615571565b92915050565b600082601f83011261475457600080fd5b8135614764848260208601614641565b91505092915050565b600082601f83011261477e57600080fd5b815161478e8482602086016146ad565b91505092915050565b6000815190506147a681615588565b92915050565b6000813590506147bb8161559f565b92915050565b6000813590506147d0816155b6565b92915050565b6000813590506147e5816155cd565b92915050565b6000813590506147fa816155e4565b92915050565b60008135905061480f816155fb565b92915050565b600081519050614824816155fb565b92915050565b60006020828403121561483c57600080fd5b600061484a8482850161472e565b91505092915050565b6000806040838503121561486657600080fd5b600061487485828601614719565b925050602061488585828601614719565b9150509250929050565b6000602082840312156148a157600080fd5b600082015167ffffffffffffffff8111156148bb57600080fd5b6148c78482850161476d565b91505092915050565b6000602082840312156148e257600080fd5b60006148f084828501614797565b91505092915050565b60006020828403121561490b57600080fd5b6000614919848285016147c1565b91505092915050565b60008060008060008060008060008060006101608c8e03121561494457600080fd5b60006149528e828f016147d6565b9b505060206149638e828f016147d6565b9a505060406149748e828f01614800565b99505060606149858e828f01614800565b98505060806149968e828f01614800565b97505060a06149a78e828f01614800565b96505060c06149b88e828f01614800565b95505060e08c013567ffffffffffffffff8111156149d557600080fd5b6149e18e828f01614743565b9450506101006149f38e828f016147c1565b935050610120614a058e828f016147eb565b925050610140614a178e828f016147ac565b9150509295989b509295989b9093969950565b600060208284031215614a3c57600080fd5b6000614a4a84828501614800565b91505092915050565b600060208284031215614a6557600080fd5b6000614a7384828501614815565b91505092915050565b60008060408385031215614a8f57600080fd5b6000614a9d85828601614800565b9250506020614aae85828601614800565b9150509250929050565b60008060008060808587031215614ace57600080fd5b6000614adc87828801614800565b9450506020614aed87828801614800565b9350506040614afe87828801614800565b9250506060614b0f87828801614800565b91505092959194509250565b6000614b278383614b42565b60208301905092915050565b614b3c81615527565b82525050565b614b4b81615497565b82525050565b614b5a81615497565b82525050565b6000614b6b8261545d565b614b758185615475565b9350614b808361544d565b8060005b83811015614bb1578151614b988882614b1b565b9750614ba383615468565b925050600181019050614b84565b5085935050505092915050565b614bc7816154a9565b82525050565b614bd681615539565b82525050565b6000614be9601283615486565b91507f4e6f7468696e6720746f206465706f73697400000000000000000000000000006000830152602082019050919050565b6000614c29601583615486565b91507f4f6e6c792061646d696e2063616e2063616c6c212100000000000000000000006000830152602082019050919050565b6000614c69601983615486565b91507f506172616d65746572732063616e74206265207a65726f2121000000000000006000830152602082019050919050565b6000614ca9601383615486565b91507f4e6f7468696e6720746f207769746864726177000000000000000000000000006000830152602082019050919050565b6000614ce9600e83615486565b91507f496e76616c696420416d6f756e740000000000000000000000000000000000006000830152602082019050919050565b6000614d29602983615486565b91507f446f6e74206861766520656e6f7567682066756e642c20506c6561736520747260008301527f79206c61746572212100000000000000000000000000000000000000000000006020830152604082019050919050565b6000614d8f602a83615486565b91507f446f6e74206861766520656e6f7567682066756e642c20506c6561736520747260008301527f79206c61746572212121000000000000000000000000000000000000000000006020830152604082019050919050565b6000614df5602183615486565b91507f596f7520646f6e74206861766520656e6f75676820706f6f6c20746f6b656e2160008301527f21000000000000000000000000000000000000000000000000000000000000006020830152604082019050919050565b6000614e5b601283615486565b91507f636f6e7472616374206973206c6f636b656400000000000000000000000000006000830152602082019050919050565b6000614e9b601b83615486565b91507f4f6e6c792073757065722061646d696e2063616e2063616c6c212100000000006000830152602082019050919050565b6000614edb601383615486565b91507f416c726561647920696e697469616c697a6564000000000000000000000000006000830152602082019050919050565b6000614f1b601883615486565b91507f576974686472617720616c6c2066756e647320666972737400000000000000006000830152602082019050919050565b6000614f5b603283615486565b91507f4d696e206c69717569646974792063616e74206265206772656174657220746860008301527f616e206d6178206c6971756964697479212100000000000000000000000000006020830152604082019050919050565b614fbd8161551d565b82525050565b6000602082019050614fd86000830184614b51565b92915050565b6000602082019050614ff36000830184614b33565b92915050565b600060608201905061500e6000830186614b33565b61501b6020830185614b33565b6150286040830184614fb4565b949350505050565b60006060820190506150456000830186614b33565b6150526020830185614b51565b61505f6040830184614fb4565b949350505050565b600060408201905061507c6000830185614b33565b6150896020830184614fb4565b9392505050565b60006040820190506150a56000830185614b51565b6150b26020830184614b51565b9392505050565b60006040820190506150ce6000830185614b51565b6150db6020830184614bcd565b9392505050565b60006040820190506150f76000830185614b51565b6151046020830184614fb4565b9392505050565b60006020820190506151206000830184614bbe565b92915050565b6000602082019050818103600083015261513f81614bdc565b9050919050565b6000602082019050818103600083015261515f81614c1c565b9050919050565b6000602082019050818103600083015261517f81614c5c565b9050919050565b6000602082019050818103600083015261519f81614c9c565b9050919050565b600060208201905081810360008301526151bf81614cdc565b9050919050565b600060208201905081810360008301526151df81614d1c565b9050919050565b600060208201905081810360008301526151ff81614d82565b9050919050565b6000602082019050818103600083015261521f81614de8565b9050919050565b6000602082019050818103600083015261523f81614e4e565b9050919050565b6000602082019050818103600083015261525f81614e8e565b9050919050565b6000602082019050818103600083015261527f81614ece565b9050919050565b6000602082019050818103600083015261529f81614f0e565b9050919050565b600060208201905081810360008301526152bf81614f4e565b9050919050565b60006020820190506152db6000830184614fb4565b92915050565b60006040820190506152f66000830185614fb4565b6153036020830184614b33565b9392505050565b600060408201905061531f6000830185614fb4565b61532c6020830184614fb4565b9392505050565b600060a0820190506153486000830188614fb4565b6153556020830187614fb4565b81810360408301526153678186614b60565b90506153766060830185614b51565b6153836080830184614fb4565b9695505050505050565b60006060820190506153a26000830186614fb4565b6153af6020830185614fb4565b6153bc6040830184614fb4565b949350505050565b6000604051905081810181811067ffffffffffffffff821117156153eb576153ea61556f565b5b8060405250919050565b600067ffffffffffffffff8211156154105761540f61556f565b5b602082029050602081019050919050565b600067ffffffffffffffff82111561543c5761543b61556f565b5b602082029050602081019050919050565b6000819050602082019050919050565b600081519050919050565b6000602082019050919050565b600082825260208201905092915050565b600082825260208201905092915050565b60006154a2826154fd565b9050919050565b60008115159050919050565b60006154c082615497565b9050919050565b60006154d282615497565b9050919050565b60006154e482615497565b9050919050565b60006154f682615497565b9050919050565b600073ffffffffffffffffffffffffffffffffffffffff82169050919050565b6000819050919050565b60006155328261554b565b9050919050565b60006155448261551d565b9050919050565b60006155568261555d565b9050919050565b6000615568826154fd565b9050919050565bfe5b61557a81615497565b811461558557600080fd5b50565b615591816154a9565b811461559c57600080fd5b50565b6155a8816154b5565b81146155b357600080fd5b50565b6155bf816154c7565b81146155ca57600080fd5b50565b6155d6816154d9565b81146155e157600080fd5b50565b6155ed816154eb565b81146155f857600080fd5b50565b6156048161551d565b811461560f57600080fd5b5056fe536166654d6174683a206d756c7469706c69636174696f6e206f766572666c6f77a2646970667358221220f5ab1dc3b2c3bb98208e0fd42629d8d3cc77b59db95659335b7c2ee355eec0a564736f6c63430007060033",
  "immutableReferences": {},
  "source": "// SPDX-License-Identifier: UNLICENSED\r\npragma solidity ^0.7.6;\r\npragma experimental ABIEncoderV2;\r\n\r\nimport \"../storage/PoolStorage.sol\";\r\n\r\ncontract AdvancedPool is PoolStorageV1 {\r\n    \r\n/****VARIABLES*****/\r\n    using SafeMath for uint256;\r\n   \r\n\r\n/****MODIFIERS*****/\r\n    \r\n    modifier onlyOwner(){\r\n        PoolStorage storage ps = poolStorage();\r\n        require(ps.owner == msg.sender || ps.superOwner == msg.sender, \"Only admin can call!!\");\r\n        _;\r\n    }\r\n    modifier onlySuperOwner(){\r\n        PoolStorage storage ps = poolStorage();\r\n        require(ps.superOwner == msg.sender, \"Only super admin can call!!\");\r\n        _;\r\n    }\r\n    modifier notLocked {\r\n        PoolStorage storage ps = poolStorage();\r\n        require(!ps.locked, \"contract is locked\");\r\n        _;\r\n    }\r\n  \r\n/****EVENTS****/ \r\n    event userDeposits(address user, uint256 amount);\r\n    event userWithdrawal(address user,uint256 amount);\r\n    event poolDeposit(address user, address pool, uint256 amount);\r\n    event poolWithdrawal(address user, address pool, uint256 amount);\r\n    \r\n\r\n/****CONSTRUCTOR****/\r\n    function initialize(\r\n        IERC20 _coin,\r\n        IERC20 _poolToken, \r\n        uint256 _minLiquidity, \r\n        uint256 _maxLiquidity, \r\n        uint256 _withdrawFees, \r\n        uint256 _depositFees,\r\n        uint256 _maxWithdrawalAllowed,\r\n        address[] memory _owners,\r\n        DepositStrategy _depositStrategy,\r\n        UniswapV2Router02 _uniswapRouter,\r\n        Controller _controller\r\n    ) public {\r\n        PoolStorage storage ps = poolStorage();\r\n        require(!ps.initialized, 'Already initialized');\r\n        ps.owner = _owners[0];\r\n        ps.superOwner = _owners[1];\r\n        ps.DENOMINATOR = 10000;\r\n        ps.coin = _coin;\r\n        ps.poolToken = _poolToken;\r\n        ps.minLiquidity = _minLiquidity;\r\n        ps.maxLiquidity = _maxLiquidity;\r\n        ps.withdrawFees = _withdrawFees;\r\n        ps.depositFees = _depositFees;\r\n        ps.depositStrategy = _depositStrategy;\r\n        ps.maxWithdrawalAllowed = _maxWithdrawalAllowed;\r\n        ps.uniswapRouter = _uniswapRouter;\r\n        ps.controller = _controller;\r\n        ps.initialized = true;\r\n    }\r\n    \r\n\r\n/*****USERS FUNCTIONS****/\r\n\r\n    function stake(uint256 amount) external notLocked() returns(uint256){\r\n        require(amount > 0, 'Invalid Amount');\r\n\r\n        PoolStorage storage ps = poolStorage();\r\n        uint256 feeAmount = amount * ps.depositFees / ps.DENOMINATOR;\r\n        ps.feesCollected = ps.feesCollected + feeAmount;\r\n        uint256 mintAmount = calculatePoolTokens(amount - feeAmount);\r\n        ps.poolBalance = ps.poolBalance.add(amount - feeAmount);\r\n        ps.coin.transferFrom(msg.sender, address(this), amount);\r\n        ps.poolToken.mint(msg.sender, mintAmount);\r\n        emit userDeposits(msg.sender,amount);\r\n        return mintAmount;\r\n    }\r\n\r\n    function unstake(uint256 amount) external notLocked() returns(uint256){\r\n        PoolStorage storage ps = poolStorage();\r\n        require(amount <= maxWithdrawal(), \"Dont have enough fund, Please try later!!\");\r\n        require(amount <= ps.coin.balanceOf(address(this)), \"Dont have enough fund, Please try later!!!\");\r\n        \r\n        uint256 burnAmount = calculatePoolTokens(amount);\r\n        require(burnAmount <= ps.poolToken.balanceOf(msg.sender), \"You dont have enough pool token!!\");\r\n\r\n        uint256 feeAmount = amount * ps.withdrawFees/ ps.DENOMINATOR;\r\n        ps.feesCollected = ps.feesCollected + feeAmount;\r\n        ps.poolBalance = ps.poolBalance.sub(amount);\r\n\r\n        ps.coin.transfer(msg.sender, amount - feeAmount);\r\n        ps.poolToken.burn(msg.sender, burnAmount);  \r\n        emit userWithdrawal(msg.sender, amount);\r\n        return amount - feeAmount;\r\n    }\r\n\r\n/****ADMIN FUNCTIONS*****/\r\n\r\n    function addToStrategy(uint256 minMintAmount) public notLocked() onlyOwner() returns(uint256){\r\n        PoolStorage storage ps = poolStorage();\r\n        uint256 gasAtBegining = (gasleft().add(ps.controller.defaultGas())).mul(tx.gasprice);\r\n        uint256 amount = amountToDeposit();\r\n        require(amount > 0, \"Nothing to deposit\");\r\n        ps.poolBalance = ps.poolBalance - amount;\r\n        ps.coin.approve(address(ps.depositStrategy), 0);\r\n        ps.coin.approve(address(ps.depositStrategy), amount);\r\n        ps.depositStrategy.deposit(amount, minMintAmount);\r\n        emit poolDeposit(msg.sender, address(ps.depositStrategy), amount);\r\n        uint256 gasUsed = gasAtBegining.sub(gasleft().mul(tx.gasprice)); \r\n        ps.controller.updateGasUsed(gasUsed, msg.sender);\r\n        return amount;\r\n    }\r\n    \r\n    function removeFromStrategy(uint256 maxBurnAmount) public notLocked() onlyOwner() returns(uint256){\r\n        PoolStorage storage ps = poolStorage();\r\n        uint256 gasAtBegining = (gasleft().add(ps.controller.defaultGas())).mul(tx.gasprice);\r\n        uint256 amount = amountToWithdraw();\r\n        require(amount > 0 , \"Nothing to withdraw\");\r\n        ps.poolBalance = ps.poolBalance + amount;\r\n        ps.depositStrategy.withdraw(amount, maxBurnAmount);\r\n        emit poolWithdrawal(msg.sender, address(ps.depositStrategy), amount);\r\n        uint256 gasUsed = gasAtBegining.sub(gasleft().mul(tx.gasprice)); \r\n        ps.controller.updateGasUsed(gasUsed, msg.sender); \r\n        return amount;\r\n    }\r\n\r\n    function removeAllFromStrategy(uint256 minAmount) public notLocked() onlySuperOwner(){\r\n        PoolStorage storage ps = poolStorage();\r\n        uint256 gasAtBegining = (gasleft().add(ps.controller.defaultGas())).mul(tx.gasprice);\r\n        require(strategyDeposit() > 0 , \"Nothing to withdraw\");\r\n        uint256 oldBalance = ps.coin.balanceOf(address(this));\r\n        ps.depositStrategy.withdrawAll(minAmount);\r\n        uint256 newBalance = ps.coin.balanceOf(address(this));\r\n        uint256 tokenReceived = newBalance - oldBalance;\r\n        ps.poolBalance = ps.poolBalance + tokenReceived;\r\n        emit poolWithdrawal(msg.sender, address(ps.depositStrategy), tokenReceived);\r\n        uint256 gasUsed = gasAtBegining.sub(gasleft().mul(tx.gasprice)); \r\n        ps.controller.updateGasUsed(gasUsed, msg.sender); \r\n    }\r\n    \r\n    function updateLiquidityParam(uint256 _minLiquidity, uint256 _maxLiquidity, uint256 _maxWithdrawalAllowed, uint256 maxBurnOrMinMint) external onlySuperOwner() returns(bool){\r\n        require(_minLiquidity > 0 &&  _maxLiquidity > 0 && _maxWithdrawalAllowed > 0, 'Parameters cant be zero!!');\r\n        require(_minLiquidity <  _maxLiquidity, 'Min liquidity cant be greater than max liquidity!!');\r\n   \r\n        PoolStorage storage ps = poolStorage();\r\n        uint256 gasAtBegining = (gasleft().add(ps.controller.defaultGas())).mul(tx.gasprice);   \r\n        ps.minLiquidity = _minLiquidity;\r\n        ps.maxLiquidity = _maxLiquidity;\r\n        ps.maxWithdrawalAllowed = _maxWithdrawalAllowed;\r\n        uint256 gasUsed = gasAtBegining.sub(gasleft().mul(tx.gasprice)); \r\n        ps.controller.updateGasUsed(gasUsed, msg.sender);\r\n        if(amountToDeposit() > 0){\r\n            addToStrategy(maxBurnOrMinMint);\r\n        }else if(amountToWithdraw() > 0){\r\n            removeFromStrategy(maxBurnOrMinMint);\r\n        }\r\n        return true;\r\n    }\r\n    \r\n    function updateFees(uint256 _depositFees, uint256 _withdrawFees) external onlySuperOwner() returns(bool){\r\n        PoolStorage storage ps = poolStorage();\r\n        uint256 gasAtBegining = (gasleft().add(ps.controller.defaultGas())).mul(tx.gasprice);\r\n        ps.withdrawFees = _withdrawFees;\r\n        ps.depositFees = _depositFees;\r\n        uint256 gasUsed = gasAtBegining.sub(gasleft().mul(tx.gasprice)); \r\n        ps.controller.updateGasUsed(gasUsed, msg.sender);\r\n        return true;\r\n    }\r\n    \r\n    function changeLockStatus() external onlyOwner() returns(bool){\r\n        PoolStorage storage ps = poolStorage();\r\n        uint256 gasAtBegining = (gasleft().add(ps.controller.defaultGas())).mul(tx.gasprice);\r\n        ps.locked = !ps.locked;\r\n        uint256 gasUsed = gasAtBegining.sub(gasleft().mul(tx.gasprice)); \r\n        ps.controller.updateGasUsed(gasUsed, msg.sender);\r\n        return ps.locked;\r\n    }\r\n    \r\n    function updateOwners(address newOwner, address newSuperOwner) external onlySuperOwner() returns(bool){\r\n        PoolStorage storage ps = poolStorage();\r\n        uint256 gasAtBegining = (gasleft().add(ps.controller.defaultGas())).mul(tx.gasprice);\r\n        ps.owner = newOwner;\r\n        ps.superOwner = newSuperOwner;\r\n        uint256 gasUsed = gasAtBegining.sub(gasleft().mul(tx.gasprice)); \r\n        ps.controller.updateGasUsed(gasUsed, msg.sender);\r\n        return true;\r\n    } \r\n\r\n    function getYield() public onlyOwner(){\r\n        PoolStorage storage ps = poolStorage();\r\n        uint256 gasAtBegining = (gasleft().add(ps.controller.defaultGas())).mul(tx.gasprice);\r\n        uint256 tokenReceived = ps.depositStrategy.claimAndConvertCRV();\r\n        ps.poolBalance = ps.poolBalance.add(tokenReceived);\r\n        uint256 gasUsed = gasAtBegining.sub(gasleft().mul(tx.gasprice)); \r\n        ps.controller.updateGasUsed(gasUsed, msg.sender);\r\n    }\r\n    \r\n    \r\n    function updateStrategy(DepositStrategy _newStrategy) public onlySuperOwner(){\r\n        PoolStorage storage ps = poolStorage();\r\n        uint256 gasAtBegining = (gasleft().add(ps.controller.defaultGas())).mul(tx.gasprice);\r\n        require(strategyDeposit() == 0, 'Withdraw all funds first');\r\n        ps.depositStrategy = _newStrategy;\r\n        uint256 gasUsed = gasAtBegining.sub(gasleft().mul(tx.gasprice)); \r\n        ps.controller.updateGasUsed(gasUsed, msg.sender);\r\n    }\r\n\r\n    function convertFeesToETH() external onlyOwner() {\r\n        PoolStorage storage ps = poolStorage();\r\n        uint256 gasAtBegining = (gasleft().add(ps.controller.defaultGas())).mul(tx.gasprice);\r\n        address[] memory path = new address[](2);\r\n        uint256 amountToSwap = ps.feesCollected;\r\n        ps.feesCollected = 0;\r\n        ps.coin.approve(address(ps.uniswapRouter), 0);\r\n        ps.coin.approve(address(ps.uniswapRouter), amountToSwap);\r\n        path[0] = address(ps.coin);\r\n        path[1] = ps.uniswapRouter.WETH();\r\n        uint256 amountOutMin = 0;\r\n        ps.uniswapRouter.swapExactTokensForETH(amountToSwap, amountOutMin, path, address(ps.controller), block.timestamp + 100000);\r\n        uint256 gasUsed = gasAtBegining.sub(gasleft().mul(tx.gasprice)); \r\n        ps.controller.updateGasUsed(gasUsed, msg.sender);\r\n    }\r\n\r\n/****OTHER FUNCTIONS****/\r\n\r\n    function calculatePoolTokens(uint256 amountOfStableCoins) public view returns(uint256){\r\n        PoolStorage storage ps = poolStorage();\r\n        return (amountOfStableCoins * stableCoinPrice())/10**ps.coin.decimals() ;\r\n    }\r\n\r\n    function stableCoinPrice() public view returns(uint256){\r\n        PoolStorage storage ps = poolStorage();\r\n        return (ps.poolToken.totalSupply() == 0 || totalDeposit() == 0) ? 10**ps.coin.decimals() : ((10**ps.coin.decimals()) * ps.poolToken.totalSupply())/totalDeposit();\r\n    }\r\n    \r\n    function calculateStableCoins(uint256 amountOfPoolToken) public view returns(uint256){\r\n        PoolStorage storage ps = poolStorage();\r\n        amountOfPoolToken = (amountOfPoolToken*poolTokenPrice())/(10**ps.poolToken.decimals());\r\n        return amountOfPoolToken;\r\n    }\r\n\r\n    function poolTokenPrice() public view returns(uint256){\r\n        PoolStorage storage ps = poolStorage();\r\n        return (ps.poolToken.totalSupply() == 0 || totalDeposit() == 0) ? 10**ps.poolToken.decimals() : ((10**ps.poolToken.decimals())*totalDeposit())/ps.poolToken.totalSupply();\r\n    }\r\n    \r\n    function maxWithdrawal() public view returns(uint256){\r\n        PoolStorage storage ps = poolStorage();\r\n        return minLiquidityToMaintainInPool()/2 < ps.maxWithdrawalAllowed ? minLiquidityToMaintainInPool()/2 : ps.maxWithdrawalAllowed;\r\n    }\r\n\r\n    function currentLiquidity() public view returns(uint256){\r\n        PoolStorage storage ps = poolStorage();\r\n        return ps.poolBalance;\r\n    }\r\n   \r\n    function idealAmount() public view returns(uint256){\r\n        PoolStorage storage ps = poolStorage();\r\n        return (totalDeposit() * (ps.minLiquidity.add(ps.maxLiquidity))) / (2 * ps.DENOMINATOR);\r\n    }\r\n     \r\n    function maxLiquidityAllowedInPool() public view returns(uint256){\r\n        PoolStorage storage ps = poolStorage();\r\n        return totalDeposit() * ps.maxLiquidity / ps.DENOMINATOR;\r\n    }\r\n\r\n    function amountToDeposit() public view returns(uint256){\r\n        return currentLiquidity() <= maxLiquidityAllowedInPool() ? 0 : currentLiquidity() - idealAmount();\r\n    }\r\n    \r\n    function minLiquidityToMaintainInPool() public view returns(uint256){\r\n        PoolStorage storage ps = poolStorage();\r\n        return totalDeposit() * ps.minLiquidity / ps.DENOMINATOR;\r\n    }\r\n   \r\n    function amountToWithdraw() public view returns(uint256){\r\n        return currentLiquidity() > minLiquidityToMaintainInPool() || strategyDeposit() == 0 || strategyDeposit() < idealAmount() - currentLiquidity() ? 0 : idealAmount() - currentLiquidity();\r\n    }\r\n\r\n    function lockStatus() public view returns(bool){\r\n        PoolStorage storage ps = poolStorage();\r\n        return ps.locked;\r\n    }\r\n\r\n    function totalDeposit() public view returns(uint256){\r\n        PoolStorage storage ps = poolStorage();\r\n        return ps.poolBalance + strategyDeposit();\r\n    }\r\n\r\n    function strategyDeposit() public view returns(uint256){\r\n        PoolStorage storage ps = poolStorage();\r\n        return ps.depositStrategy.depositedAmount();\r\n    }\r\n       \r\n    function feesCollected() public view returns(uint256){\r\n        PoolStorage storage ps = poolStorage();\r\n        return ps.feesCollected;\r\n    }\r\n\r\n    function currentFees() public view returns(uint256, uint256){\r\n        PoolStorage storage ps = poolStorage();\r\n        return (ps.depositFees, ps.withdrawFees);\r\n    }\r\n\r\n    function currentLiquidityParams() public view returns(uint256, uint256, uint256){\r\n        PoolStorage storage ps = poolStorage();\r\n        return (ps.minLiquidity, ps.maxLiquidity, ps.maxWithdrawalAllowed);\r\n    }\r\n\r\n    function owners() public view returns(address, address){\r\n        PoolStorage storage ps = poolStorage();\r\n        return (ps.owner, ps.superOwner);\r\n    }\r\n\r\n    function poolToken() public view returns(address){\r\n        PoolStorage storage ps = poolStorage();\r\n        return address(ps.poolToken);\r\n    }\r\n    \r\n    receive() external payable {\r\n    }\r\n}",
  "sourcePath": "E:/Projects/AdvancedPool/AdvancedPool/contracts/facets/AdvancedPool.sol",
  "compiler": {
    "name": "solc",
    "version": "0.7.6+commit.7338295f.Emscripten.clang"
  },
  "schemaVersion": "3.3.2",
  "updatedAt": "2021-10-20T07:34:06.068Z",
  "devdoc": {
    "kind": "dev",
    "methods": {},
    "version": 1
  },
  "userdoc": {
    "kind": "user",
    "methods": {},
    "version": 1
  }
}