{
  "contractName": "AdvancedPool",
  "abi": [
    {
      "anonymous": false,
      "inputs": [
        {
          "indexed": false,
          "internalType": "address",
          "name": "user",
          "type": "address"
        },
        {
          "indexed": false,
          "internalType": "address",
          "name": "pool",
          "type": "address"
        },
        {
          "indexed": false,
          "internalType": "uint256",
          "name": "amount",
          "type": "uint256"
        }
      ],
      "name": "poolDeposit",
      "type": "event"
    },
    {
      "anonymous": false,
      "inputs": [
        {
          "indexed": false,
          "internalType": "address",
          "name": "user",
          "type": "address"
        },
        {
          "indexed": false,
          "internalType": "address",
          "name": "pool",
          "type": "address"
        },
        {
          "indexed": false,
          "internalType": "uint256",
          "name": "amount",
          "type": "uint256"
        }
      ],
      "name": "poolWithdrawal",
      "type": "event"
    },
    {
      "anonymous": false,
      "inputs": [
        {
          "indexed": false,
          "internalType": "address",
          "name": "user",
          "type": "address"
        },
        {
          "indexed": false,
          "internalType": "uint256",
          "name": "amount",
          "type": "uint256"
        }
      ],
      "name": "userDeposits",
      "type": "event"
    },
    {
      "anonymous": false,
      "inputs": [
        {
          "indexed": false,
          "internalType": "address",
          "name": "user",
          "type": "address"
        },
        {
          "indexed": false,
          "internalType": "uint256",
          "name": "amount",
          "type": "uint256"
        }
      ],
      "name": "userWithdrawal",
      "type": "event"
    },
    {
      "stateMutability": "payable",
      "type": "receive"
    },
    {
      "inputs": [
        {
          "internalType": "contract IERC20",
          "name": "_coin",
          "type": "address"
        },
        {
          "internalType": "contract IERC20",
          "name": "_poolToken",
          "type": "address"
        },
        {
          "internalType": "uint256",
          "name": "_minLiquidity",
          "type": "uint256"
        },
        {
          "internalType": "uint256",
          "name": "_maxLiquidity",
          "type": "uint256"
        },
        {
          "internalType": "uint256",
          "name": "_withdrawFees",
          "type": "uint256"
        },
        {
          "internalType": "uint256",
          "name": "_depositFees",
          "type": "uint256"
        },
        {
          "internalType": "uint256",
          "name": "_maxWithdrawalAllowed",
          "type": "uint256"
        },
        {
          "internalType": "address",
          "name": "_owner",
          "type": "address"
        },
        {
          "internalType": "contract DepositStrategy",
          "name": "_depositStrategy",
          "type": "address"
        },
        {
          "internalType": "contract UniswapV2Router02",
          "name": "_uniswapRouter",
          "type": "address"
        }
      ],
      "name": "initialize",
      "outputs": [],
      "stateMutability": "nonpayable",
      "type": "function"
    },
    {
      "inputs": [
        {
          "internalType": "uint256",
          "name": "amount",
          "type": "uint256"
        }
      ],
      "name": "stake",
      "outputs": [
        {
          "internalType": "uint256",
          "name": "",
          "type": "uint256"
        }
      ],
      "stateMutability": "nonpayable",
      "type": "function"
    },
    {
      "inputs": [
        {
          "internalType": "uint256",
          "name": "amount",
          "type": "uint256"
        }
      ],
      "name": "unstake",
      "outputs": [
        {
          "internalType": "uint256",
          "name": "",
          "type": "uint256"
        }
      ],
      "stateMutability": "nonpayable",
      "type": "function"
    },
    {
      "inputs": [],
      "name": "addToStrategy",
      "outputs": [
        {
          "internalType": "uint256",
          "name": "",
          "type": "uint256"
        }
      ],
      "stateMutability": "nonpayable",
      "type": "function"
    },
    {
      "inputs": [],
      "name": "removeFromStrategy",
      "outputs": [
        {
          "internalType": "uint256",
          "name": "",
          "type": "uint256"
        }
      ],
      "stateMutability": "nonpayable",
      "type": "function"
    },
    {
      "inputs": [
        {
          "internalType": "uint256",
          "name": "_minLiquidity",
          "type": "uint256"
        },
        {
          "internalType": "uint256",
          "name": "_maxLiquidity",
          "type": "uint256"
        },
        {
          "internalType": "uint256",
          "name": "_maxWithdrawalAllowed",
          "type": "uint256"
        }
      ],
      "name": "updateLiquidityParam",
      "outputs": [
        {
          "internalType": "bool",
          "name": "",
          "type": "bool"
        }
      ],
      "stateMutability": "nonpayable",
      "type": "function"
    },
    {
      "inputs": [
        {
          "internalType": "uint256",
          "name": "_depositFees",
          "type": "uint256"
        },
        {
          "internalType": "uint256",
          "name": "_withdrawFees",
          "type": "uint256"
        }
      ],
      "name": "updateFees",
      "outputs": [
        {
          "internalType": "bool",
          "name": "",
          "type": "bool"
        }
      ],
      "stateMutability": "nonpayable",
      "type": "function"
    },
    {
      "inputs": [],
      "name": "changeLockStatus",
      "outputs": [
        {
          "internalType": "bool",
          "name": "",
          "type": "bool"
        }
      ],
      "stateMutability": "nonpayable",
      "type": "function"
    },
    {
      "inputs": [
        {
          "internalType": "address",
          "name": "newOwner",
          "type": "address"
        }
      ],
      "name": "updateOwner",
      "outputs": [
        {
          "internalType": "bool",
          "name": "",
          "type": "bool"
        }
      ],
      "stateMutability": "nonpayable",
      "type": "function"
    },
    {
      "inputs": [],
      "name": "getYield",
      "outputs": [],
      "stateMutability": "nonpayable",
      "type": "function"
    },
    {
      "inputs": [
        {
          "internalType": "uint256",
          "name": "amountOfStableCoins",
          "type": "uint256"
        }
      ],
      "name": "calculatePoolTokens",
      "outputs": [
        {
          "internalType": "uint256",
          "name": "",
          "type": "uint256"
        }
      ],
      "stateMutability": "view",
      "type": "function"
    },
    {
      "inputs": [],
      "name": "stableCoinPrice",
      "outputs": [
        {
          "internalType": "uint256",
          "name": "",
          "type": "uint256"
        }
      ],
      "stateMutability": "view",
      "type": "function"
    },
    {
      "inputs": [
        {
          "internalType": "uint256",
          "name": "amountOfPoolToken",
          "type": "uint256"
        }
      ],
      "name": "calculateStableCoins",
      "outputs": [
        {
          "internalType": "uint256",
          "name": "",
          "type": "uint256"
        }
      ],
      "stateMutability": "view",
      "type": "function"
    },
    {
      "inputs": [],
      "name": "poolTokenPrice",
      "outputs": [
        {
          "internalType": "uint256",
          "name": "",
          "type": "uint256"
        }
      ],
      "stateMutability": "view",
      "type": "function"
    },
    {
      "inputs": [],
      "name": "maxWithdrawal",
      "outputs": [
        {
          "internalType": "uint256",
          "name": "",
          "type": "uint256"
        }
      ],
      "stateMutability": "view",
      "type": "function"
    },
    {
      "inputs": [],
      "name": "currentLiquidity",
      "outputs": [
        {
          "internalType": "uint256",
          "name": "",
          "type": "uint256"
        }
      ],
      "stateMutability": "view",
      "type": "function"
    },
    {
      "inputs": [],
      "name": "idealAmount",
      "outputs": [
        {
          "internalType": "uint256",
          "name": "",
          "type": "uint256"
        }
      ],
      "stateMutability": "view",
      "type": "function"
    },
    {
      "inputs": [],
      "name": "maxLiquidityAllowedInPool",
      "outputs": [
        {
          "internalType": "uint256",
          "name": "",
          "type": "uint256"
        }
      ],
      "stateMutability": "view",
      "type": "function"
    },
    {
      "inputs": [],
      "name": "amountToDeposit",
      "outputs": [
        {
          "internalType": "uint256",
          "name": "",
          "type": "uint256"
        }
      ],
      "stateMutability": "view",
      "type": "function"
    },
    {
      "inputs": [],
      "name": "minLiquidityToMaintainInPool",
      "outputs": [
        {
          "internalType": "uint256",
          "name": "",
          "type": "uint256"
        }
      ],
      "stateMutability": "view",
      "type": "function"
    },
    {
      "inputs": [],
      "name": "amountToWithdraw",
      "outputs": [
        {
          "internalType": "uint256",
          "name": "",
          "type": "uint256"
        }
      ],
      "stateMutability": "view",
      "type": "function"
    },
    {
      "inputs": [],
      "name": "lockStatus",
      "outputs": [
        {
          "internalType": "bool",
          "name": "",
          "type": "bool"
        }
      ],
      "stateMutability": "view",
      "type": "function"
    },
    {
      "inputs": [],
      "name": "totalDeposit",
      "outputs": [
        {
          "internalType": "uint256",
          "name": "",
          "type": "uint256"
        }
      ],
      "stateMutability": "view",
      "type": "function"
    },
    {
      "inputs": [],
      "name": "strategyDeposit",
      "outputs": [
        {
          "internalType": "uint256",
          "name": "",
          "type": "uint256"
        }
      ],
      "stateMutability": "view",
      "type": "function"
    },
    {
      "inputs": [],
      "name": "feesCollected",
      "outputs": [
        {
          "internalType": "uint256",
          "name": "",
          "type": "uint256"
        }
      ],
      "stateMutability": "view",
      "type": "function"
    },
    {
      "inputs": [],
      "name": "currentFees",
      "outputs": [
        {
          "internalType": "uint256",
          "name": "",
          "type": "uint256"
        },
        {
          "internalType": "uint256",
          "name": "",
          "type": "uint256"
        }
      ],
      "stateMutability": "view",
      "type": "function"
    },
    {
      "inputs": [],
      "name": "claimGasFee",
      "outputs": [],
      "stateMutability": "nonpayable",
      "type": "function"
    },
    {
      "inputs": [],
      "name": "convertFeesToETH",
      "outputs": [],
      "stateMutability": "nonpayable",
      "type": "function"
    }
  ],
  "bytecode": "0x608060405234801561001057600080fd5b506142e8806100206000396000f3fe6080604052600436106101bb5760003560e01c80638a98cdd4116100ec578063caa1d9c11161008a578063f071db5a11610064578063f071db5a146105fe578063f6153ccd14610629578063fb60946d14610654578063fe135c0e14610691576101c2565b8063caa1d9c114610591578063d395fbc5146105a8578063e4255342146105d3576101c2565b8063a6e1fff6116100c6578063a6e1fff6146104d5578063b4ad5e08146104fe578063bba78e8014610529578063c3c9f52b14610554576101c2565b80638a98cdd4146104305780638c0ff5b71461046d578063a694fc3a14610498576101c2565b806346caf2ae116101595780636db79437116101335780636db79437146103745780637260cc76146103b15780637c262871146103dc578063880cdc31146103f3576101c2565b806346caf2ae146102f25780635b404bad1461031d5780635d9644c414610348576101c2565b80632e17de78116101955780632e17de78146102485780632e30e85b1461028557806331dd132e1461029c5780633e89340f146102c7576101c2565b8063077622a2146101c7578063269fa128146101f257806329093c691461021d576101c2565b366101c257005b600080fd5b3480156101d357600080fd5b506101dc6106bc565b6040516101e9919061400c565b60405180910390f35b3480156101fe57600080fd5b50610207610700565b604051610214919061400c565b60405180910390f35b34801561022957600080fd5b5061023261076e565b60405161023f919061400c565b60405180910390f35b34801561025457600080fd5b5061026f600480360381019061026a9190613860565b610b80565b60405161027c919061400c565b60405180910390f35b34801561029157600080fd5b5061029a610f03565b005b3480156102a857600080fd5b506102b16110fb565b6040516102be919061400c565b60405180910390f35b3480156102d357600080fd5b506102dc611113565b6040516102e99190613e71565b60405180910390f35b3480156102fe57600080fd5b50610307611138565b604051610314919061400c565b60405180910390f35b34801561032957600080fd5b50610332611156565b60405161033f919061400c565b60405180910390f35b34801561035457600080fd5b5061035d611421565b60405161036b929190614027565b60405180910390f35b34801561038057600080fd5b5061039b600480360381019061039691906138b2565b611443565b6040516103a89190613e71565b60405180910390f35b3480156103bd57600080fd5b506103c6611678565b6040516103d3919061400c565b60405180910390f35b3480156103e857600080fd5b506103f16116a3565b005b3480156103ff57600080fd5b5061041a600480360381019061041591906136c9565b611985565b6040516104279190613e71565b60405180910390f35b34801561043c57600080fd5b5061045760048036038101906104529190613860565b611bea565b604051610464919061400c565b60405180910390f35b34801561047957600080fd5b50610482611cb9565b60405161048f919061400c565b60405180910390f35b3480156104a457600080fd5b506104bf60048036038101906104ba9190613860565b611d05565b6040516104cc919061400c565b60405180910390f35b3480156104e157600080fd5b506104fc60048036038101906104f79190613785565b611f94565b005b34801561050a57600080fd5b506105136121a3565b604051610520919061400c565b60405180910390f35b34801561053557600080fd5b5061053e6121ce565b60405161054b919061400c565b60405180910390f35b34801561056057600080fd5b5061057b60048036038101906105769190613860565b61250a565b604051610588919061400c565b60405180910390f35b34801561059d57600080fd5b506105a66125d6565b005b3480156105b457600080fd5b506105bd612aa2565b6040516105ca9190613e71565b60405180910390f35b3480156105df57600080fd5b506105e8612d00565b6040516105f5919061400c565b60405180910390f35b34801561060a57600080fd5b50610613612fcb565b604051610620919061400c565b60405180910390f35b34801561063557600080fd5b5061063e612fe3565b60405161064b919061400c565b60405180910390f35b34801561066057600080fd5b5061067b600480360381019061067691906138ee565b612ffb565b6040516106889190613e71565b60405180910390f35b34801561069d57600080fd5b506106a6613310565b6040516106b3919061400c565b60405180910390f35b6000806106c7613346565b905080600401546002026106ec8260080154836007015461337390919063ffffffff16565b82600a015402816106f957fe5b0491505090565b60008061070b613346565b9050610715611678565b61071d611138565b118061072d5750600081600c0154145b8061074b575061073b611138565b6107436106bc565b0381600c0154105b61076557610757611138565b61075f6106bc565b03610768565b60005b91505090565b600080610779613346565b905080600e0160009054906101000a900460ff16156107cd576040517f08c379a00000000000000000000000000000000000000000000000000000000081526004016107c490613f8c565b60405180910390fd5b60006107d7613346565b90506108556108053a6107f784600f01545a61337390919063ffffffff16565b6133fb90919063ffffffff16565b8260100160003373ffffffffffffffffffffffffffffffffffffffff1673ffffffffffffffffffffffffffffffffffffffff1681526020019081526020016000205461337390919063ffffffff16565b8160100160003373ffffffffffffffffffffffffffffffffffffffff1673ffffffffffffffffffffffffffffffffffffffff1681526020019081526020016000208190555060006108a4613310565b9050600081116108e9576040517f08c379a00000000000000000000000000000000000000000000000000000000081526004016108e090613e8c565b60405180910390fd5b6109008183600c015461337390919063ffffffff16565b82600c01819055508160000160019054906101000a900473ffffffffffffffffffffffffffffffffffffffff1673ffffffffffffffffffffffffffffffffffffffff1663095ea7b38360020160009054906101000a900473ffffffffffffffffffffffffffffffffffffffff16836040518363ffffffff1660e01b815260040161098b929190613e48565b602060405180830381600087803b1580156109a557600080fd5b505af11580156109b9573d6000803e3d6000fd5b505050506040513d601f19601f820116820180604052508101906109dd919061375c565b508160020160009054906101000a900473ffffffffffffffffffffffffffffffffffffffff1673ffffffffffffffffffffffffffffffffffffffff1663b6b55f25826040518263ffffffff1660e01b8152600401610a3b919061400c565b600060405180830381600087803b158015610a5557600080fd5b505af1158015610a69573d6000803e3d6000fd5b505050507f5123d8a168830852333177a82ac00938d8567897d76f68e27c135f5ca9776733338360020160009054906101000a900473ffffffffffffffffffffffffffffffffffffffff1683604051610ac493929190613de8565b60405180910390a1610b32610ae23a5a6133fb90919063ffffffff16565b8360100160003373ffffffffffffffffffffffffffffffffffffffff1673ffffffffffffffffffffffffffffffffffffffff1681526020019081526020016000205461348190919063ffffffff16565b8260100160003373ffffffffffffffffffffffffffffffffffffffff1673ffffffffffffffffffffffffffffffffffffffff1681526020019081526020016000208190555080935050505090565b600080610b8b613346565b905080600e0160009054906101000a900460ff1615610bdf576040517f08c379a0000000000000000000000000000000000000000000000000000000008152600401610bd690613f8c565b60405180910390fd5b6000610be9613346565b9050610bf3611cb9565b841115610c35576040517f08c379a0000000000000000000000000000000000000000000000000000000008152600401610c2c90613f4c565b60405180910390fd5b6000610c408561250a565b90508160010160009054906101000a900473ffffffffffffffffffffffffffffffffffffffff1673ffffffffffffffffffffffffffffffffffffffff166370a08231336040518263ffffffff1660e01b8152600401610c9f9190613d96565b60206040518083038186803b158015610cb757600080fd5b505afa158015610ccb573d6000803e3d6000fd5b505050506040513d601f19601f82011682018060405250810190610cef9190613889565b811115610d31576040517f08c379a0000000000000000000000000000000000000000000000000000000008152600401610d2890613f6c565b60405180910390fd5b600082600401548360060154870281610d4657fe5b0490508083600b01540183600b0181905550610d6f8684600a015461348190919063ffffffff16565b83600a01819055508260000160019054906101000a900473ffffffffffffffffffffffffffffffffffffffff1673ffffffffffffffffffffffffffffffffffffffff1663a9059cbb338389036040518363ffffffff1660e01b8152600401610dd8929190613e1f565b602060405180830381600087803b158015610df257600080fd5b505af1158015610e06573d6000803e3d6000fd5b505050506040513d601f19601f82011682018060405250810190610e2a919061375c565b508260010160009054906101000a900473ffffffffffffffffffffffffffffffffffffffff1673ffffffffffffffffffffffffffffffffffffffff16639dc29fac33846040518363ffffffff1660e01b8152600401610e8a929190613e1f565b600060405180830381600087803b158015610ea457600080fd5b505af1158015610eb8573d6000803e3d6000fd5b505050507f42b2a4ad2d4bdf57e819ccd3c6ce6d0a8d6d20b5d3dbf94ef2b05c42f523c6103387604051610eed929190613e1f565b60405180910390a1808603945050505050919050565b6000610f0d613346565b90506000610f3a3a610f2c84600f01545a61337390919063ffffffff16565b6133fb90919063ffffffff16565b905060008260100160003373ffffffffffffffffffffffffffffffffffffffff1673ffffffffffffffffffffffffffffffffffffffff16815260200190815260200160002054905060008111610fc5576040517f08c379a0000000000000000000000000000000000000000000000000000000008152600401610fbc90613f0c565b60405180910390fd5b80471015611008576040517f08c379a0000000000000000000000000000000000000000000000000000000008152600401610fff90613fcc565b60405180910390fd5b60008360100160003373ffffffffffffffffffffffffffffffffffffffff1673ffffffffffffffffffffffffffffffffffffffff168152602001908152602001600020819055503373ffffffffffffffffffffffffffffffffffffffff166108fc829081150290604051600060405180830381858888f19350505050158015611095573d6000803e3d6000fd5b5060006110ab3a5a6133fb90919063ffffffff16565b90508083038460100160003373ffffffffffffffffffffffffffffffffffffffff1673ffffffffffffffffffffffffffffffffffffffff1681526020019081526020016000208190555050505050565b600080611106613346565b905080600c015491505090565b60008061111e613346565b905080600e0160009054906101000a900460ff1691505090565b600080611143613346565b905080600c015481600a01540391505090565b600080611161613346565b905060008160010160009054906101000a900473ffffffffffffffffffffffffffffffffffffffff1673ffffffffffffffffffffffffffffffffffffffff166318160ddd6040518163ffffffff1660e01b815260040160206040518083038186803b1580156111cf57600080fd5b505afa1580156111e3573d6000803e3d6000fd5b505050506040513d601f19601f820116820180604052508101906112079190613889565b14806112175750600081600a0154145b6113755780600a01548160010160009054906101000a900473ffffffffffffffffffffffffffffffffffffffff1673ffffffffffffffffffffffffffffffffffffffff166318160ddd6040518163ffffffff1660e01b815260040160206040518083038186803b15801561128a57600080fd5b505afa15801561129e573d6000803e3d6000fd5b505050506040513d601f19601f820116820180604052508101906112c29190613889565b8260000160019054906101000a900473ffffffffffffffffffffffffffffffffffffffff1673ffffffffffffffffffffffffffffffffffffffff1663313ce5676040518163ffffffff1660e01b815260040160206040518083038186803b15801561132c57600080fd5b505afa158015611340573d6000803e3d6000fd5b505050506040513d601f19601f820116820180604052508101906113649190613889565b600a0a028161136f57fe5b0461141b565b8060000160019054906101000a900473ffffffffffffffffffffffffffffffffffffffff1673ffffffffffffffffffffffffffffffffffffffff1663313ce5676040518163ffffffff1660e01b815260040160206040518083038186803b1580156113df57600080fd5b505afa1580156113f3573d6000803e3d6000fd5b505050506040513d601f19601f820116820180604052508101906114179190613889565b600a0a5b91505090565b600080600061142e613346565b90508060050154816006015492509250509091565b60008061144e613346565b90503373ffffffffffffffffffffffffffffffffffffffff1681600e0160019054906101000a900473ffffffffffffffffffffffffffffffffffffffff1673ffffffffffffffffffffffffffffffffffffffff16146114e2576040517f08c379a00000000000000000000000000000000000000000000000000000000081526004016114d990613eac565b60405180910390fd5b60006114ec613346565b905061156a61151a3a61150c84600f01545a61337390919063ffffffff16565b6133fb90919063ffffffff16565b8260100160003373ffffffffffffffffffffffffffffffffffffffff1673ffffffffffffffffffffffffffffffffffffffff1681526020019081526020016000205461337390919063ffffffff16565b8160100160003373ffffffffffffffffffffffffffffffffffffffff1673ffffffffffffffffffffffffffffffffffffffff168152602001908152602001600020819055508381600601819055508481600501819055506116276115d73a5a6133fb90919063ffffffff16565b8260100160003373ffffffffffffffffffffffffffffffffffffffff1673ffffffffffffffffffffffffffffffffffffffff1681526020019081526020016000205461348190919063ffffffff16565b8160100160003373ffffffffffffffffffffffffffffffffffffffff1673ffffffffffffffffffffffffffffffffffffffff1681526020019081526020016000208190555060019250505092915050565b600080611683613346565b90508060040154816007015482600a0154028161169c57fe5b0491505090565b60006116ad613346565b90503373ffffffffffffffffffffffffffffffffffffffff1681600e0160019054906101000a900473ffffffffffffffffffffffffffffffffffffffff1673ffffffffffffffffffffffffffffffffffffffff1614611741576040517f08c379a000000000000000000000000000000000000000000000000000000000815260040161173890613eac565b60405180910390fd5b600061174b613346565b90506117c96117793a61176b84600f01545a61337390919063ffffffff16565b6133fb90919063ffffffff16565b8260100160003373ffffffffffffffffffffffffffffffffffffffff1673ffffffffffffffffffffffffffffffffffffffff1681526020019081526020016000205461337390919063ffffffff16565b8160100160003373ffffffffffffffffffffffffffffffffffffffff1673ffffffffffffffffffffffffffffffffffffffff1681526020019081526020016000208190555060008160020160009054906101000a900473ffffffffffffffffffffffffffffffffffffffff1673ffffffffffffffffffffffffffffffffffffffff16632fbd70826040518163ffffffff1660e01b8152600401602060405180830381600087803b15801561187c57600080fd5b505af1158015611890573d6000803e3d6000fd5b505050506040513d601f19601f820116820180604052508101906118b49190613889565b90506118cd8183600a015461337390919063ffffffff16565b82600a018190555061193b6118eb3a5a6133fb90919063ffffffff16565b8360100160003373ffffffffffffffffffffffffffffffffffffffff1673ffffffffffffffffffffffffffffffffffffffff1681526020019081526020016000205461348190919063ffffffff16565b8260100160003373ffffffffffffffffffffffffffffffffffffffff1673ffffffffffffffffffffffffffffffffffffffff16815260200190815260200160002081905550505050565b600080611990613346565b90503373ffffffffffffffffffffffffffffffffffffffff1681600e0160019054906101000a900473ffffffffffffffffffffffffffffffffffffffff1673ffffffffffffffffffffffffffffffffffffffff1614611a24576040517f08c379a0000000000000000000000000000000000000000000000000000000008152600401611a1b90613eac565b60405180910390fd5b6000611a2e613346565b9050611aac611a5c3a611a4e84600f01545a61337390919063ffffffff16565b6133fb90919063ffffffff16565b8260100160003373ffffffffffffffffffffffffffffffffffffffff1673ffffffffffffffffffffffffffffffffffffffff1681526020019081526020016000205461337390919063ffffffff16565b8160100160003373ffffffffffffffffffffffffffffffffffffffff1673ffffffffffffffffffffffffffffffffffffffff168152602001908152602001600020819055508381600e0160016101000a81548173ffffffffffffffffffffffffffffffffffffffff021916908373ffffffffffffffffffffffffffffffffffffffff160217905550611b9a611b4a3a5a6133fb90919063ffffffff16565b8260100160003373ffffffffffffffffffffffffffffffffffffffff1673ffffffffffffffffffffffffffffffffffffffff1681526020019081526020016000205461348190919063ffffffff16565b8160100160003373ffffffffffffffffffffffffffffffffffffffff1673ffffffffffffffffffffffffffffffffffffffff16815260200190815260200160002081905550600192505050919050565b600080611bf5613346565b90508060010160009054906101000a900473ffffffffffffffffffffffffffffffffffffffff1673ffffffffffffffffffffffffffffffffffffffff1663313ce5676040518163ffffffff1660e01b815260040160206040518083038186803b158015611c6157600080fd5b505afa158015611c75573d6000803e3d6000fd5b505050506040513d601f19601f82011682018060405250810190611c999190613889565b600a0a611ca4612d00565b840281611cad57fe5b04925082915050919050565b600080611cc4613346565b905080600d01546002611cd5611678565b81611cdc57fe5b0410611cec5780600d0154611cff565b6002611cf6611678565b81611cfd57fe5b045b91505090565b600080611d10613346565b905080600e0160009054906101000a900460ff1615611d64576040517f08c379a0000000000000000000000000000000000000000000000000000000008152600401611d5b90613f8c565b60405180910390fd5b60008311611da7576040517f08c379a0000000000000000000000000000000000000000000000000000000008152600401611d9e90613f2c565b60405180910390fd5b6000611db1613346565b9050600081600401548260050154860281611dc857fe5b0490508082600b01540182600b01819055506000611de782870361250a565b9050611e0282870384600a015461337390919063ffffffff16565b83600a01819055508260000160019054906101000a900473ffffffffffffffffffffffffffffffffffffffff1673ffffffffffffffffffffffffffffffffffffffff166323b872dd3330896040518463ffffffff1660e01b8152600401611e6b93929190613db1565b602060405180830381600087803b158015611e8557600080fd5b505af1158015611e99573d6000803e3d6000fd5b505050506040513d601f19601f82011682018060405250810190611ebd919061375c565b508260010160009054906101000a900473ffffffffffffffffffffffffffffffffffffffff1673ffffffffffffffffffffffffffffffffffffffff166340c10f1933836040518363ffffffff1660e01b8152600401611f1d929190613e1f565b600060405180830381600087803b158015611f3757600080fd5b505af1158015611f4b573d6000803e3d6000fd5b505050507f08f43333671aca8015183efb2197dac68519c827a11e6788eac8c80131169a643387604051611f80929190613e1f565b60405180910390a180945050505050919050565b6000611f9e613346565b90508060000160009054906101000a900460ff1615611ff2576040517f08c379a0000000000000000000000000000000000000000000000000000000008152600401611fe990613fac565b60405180910390fd5b8381600e0160016101000a81548173ffffffffffffffffffffffffffffffffffffffff021916908373ffffffffffffffffffffffffffffffffffffffff16021790555061271081600401819055508a8160000160016101000a81548173ffffffffffffffffffffffffffffffffffffffff021916908373ffffffffffffffffffffffffffffffffffffffff160217905550898160010160006101000a81548173ffffffffffffffffffffffffffffffffffffffff021916908373ffffffffffffffffffffffffffffffffffffffff160217905550888160070181905550878160080181905550868160060181905550858160050181905550828160020160006101000a81548173ffffffffffffffffffffffffffffffffffffffff021916908373ffffffffffffffffffffffffffffffffffffffff1602179055508481600d0181905550818160030160006101000a81548173ffffffffffffffffffffffffffffffffffffffff021916908373ffffffffffffffffffffffffffffffffffffffff16021790555060018160000160006101000a81548160ff0219169083151502179055505050505050505050505050565b6000806121ae613346565b90508060040154816008015482600a015402816121c757fe5b0491505090565b6000806121d9613346565b905080600e0160009054906101000a900460ff161561222d576040517f08c379a000000000000000000000000000000000000000000000000000000000815260040161222490613f8c565b60405180910390fd5b6000612237613346565b90506122b56122653a61225784600f01545a61337390919063ffffffff16565b6133fb90919063ffffffff16565b8260100160003373ffffffffffffffffffffffffffffffffffffffff1673ffffffffffffffffffffffffffffffffffffffff1681526020019081526020016000205461337390919063ffffffff16565b8160100160003373ffffffffffffffffffffffffffffffffffffffff1673ffffffffffffffffffffffffffffffffffffffff168152602001908152602001600020819055506000612304610700565b905060008111612349576040517f08c379a000000000000000000000000000000000000000000000000000000000815260040161234090613eec565b60405180910390fd5b6123608183600c015461348190919063ffffffff16565b82600c01819055508160020160009054906101000a900473ffffffffffffffffffffffffffffffffffffffff1673ffffffffffffffffffffffffffffffffffffffff16632e1a7d4d826040518263ffffffff1660e01b81526004016123c5919061400c565b600060405180830381600087803b1580156123df57600080fd5b505af11580156123f3573d6000803e3d6000fd5b505050507fe2da54b49c071dfc046fee542e5201277eee89662a48be76fe432bce2ce1443b338360020160009054906101000a900473ffffffffffffffffffffffffffffffffffffffff168360405161244e93929190613de8565b60405180910390a16124bc61246c3a5a6133fb90919063ffffffff16565b8360100160003373ffffffffffffffffffffffffffffffffffffffff1673ffffffffffffffffffffffffffffffffffffffff1681526020019081526020016000205461348190919063ffffffff16565b8260100160003373ffffffffffffffffffffffffffffffffffffffff1673ffffffffffffffffffffffffffffffffffffffff1681526020019081526020016000208190555080935050505090565b600080612515613346565b90508060000160019054906101000a900473ffffffffffffffffffffffffffffffffffffffff1673ffffffffffffffffffffffffffffffffffffffff1663313ce5676040518163ffffffff1660e01b815260040160206040518083038186803b15801561258157600080fd5b505afa158015612595573d6000803e3d6000fd5b505050506040513d601f19601f820116820180604052508101906125b99190613889565b600a0a6125c4611156565b8402816125cd57fe5b04915050919050565b60006125e0613346565b905061265e61260e3a61260084600f01545a61337390919063ffffffff16565b6133fb90919063ffffffff16565b8260100160003373ffffffffffffffffffffffffffffffffffffffff1673ffffffffffffffffffffffffffffffffffffffff1681526020019081526020016000205461337390919063ffffffff16565b8160100160003373ffffffffffffffffffffffffffffffffffffffff1673ffffffffffffffffffffffffffffffffffffffff168152602001908152602001600020819055506000600267ffffffffffffffff811180156126bd57600080fd5b506040519080825280602002602001820160405280156126ec5781602001602082028036833780820191505090505b509050600082600b01549050600083600b01819055508260000160019054906101000a900473ffffffffffffffffffffffffffffffffffffffff1673ffffffffffffffffffffffffffffffffffffffff1663095ea7b38460030160009054906101000a900473ffffffffffffffffffffffffffffffffffffffff16836040518363ffffffff1660e01b8152600401612785929190613e48565b602060405180830381600087803b15801561279f57600080fd5b505af11580156127b3573d6000803e3d6000fd5b505050506040513d601f19601f820116820180604052508101906127d7919061375c565b508260000160019054906101000a900473ffffffffffffffffffffffffffffffffffffffff168260008151811061280a57fe5b602002602001019073ffffffffffffffffffffffffffffffffffffffff16908173ffffffffffffffffffffffffffffffffffffffff16815250508260030160009054906101000a900473ffffffffffffffffffffffffffffffffffffffff1673ffffffffffffffffffffffffffffffffffffffff1663ad5c46486040518163ffffffff1660e01b815260040160206040518083038186803b1580156128ae57600080fd5b505afa1580156128c2573d6000803e3d6000fd5b505050506040513d601f19601f820116820180604052508101906128e691906136f2565b826001815181106128f357fe5b602002602001019073ffffffffffffffffffffffffffffffffffffffff16908173ffffffffffffffffffffffffffffffffffffffff168152505060008360030160009054906101000a900473ffffffffffffffffffffffffffffffffffffffff1673ffffffffffffffffffffffffffffffffffffffff166318cbafe583838630620186a042016040518663ffffffff1660e01b8152600401612999959493929190614050565b600060405180830381600087803b1580156129b357600080fd5b505af11580156129c7573d6000803e3d6000fd5b505050506040513d6000823e3d601f19601f820116820180604052508101906129f0919061371b565b50612a57612a073a5a6133fb90919063ffffffff16565b8560100160003373ffffffffffffffffffffffffffffffffffffffff1673ffffffffffffffffffffffffffffffffffffffff1681526020019081526020016000205461348190919063ffffffff16565b8460100160003373ffffffffffffffffffffffffffffffffffffffff1673ffffffffffffffffffffffffffffffffffffffff1681526020019081526020016000208190555050505050565b600080612aad613346565b90503373ffffffffffffffffffffffffffffffffffffffff1681600e0160019054906101000a900473ffffffffffffffffffffffffffffffffffffffff1673ffffffffffffffffffffffffffffffffffffffff1614612b41576040517f08c379a0000000000000000000000000000000000000000000000000000000008152600401612b3890613eac565b60405180910390fd5b6000612b4b613346565b9050612bc9612b793a612b6b84600f01545a61337390919063ffffffff16565b6133fb90919063ffffffff16565b8260100160003373ffffffffffffffffffffffffffffffffffffffff1673ffffffffffffffffffffffffffffffffffffffff1681526020019081526020016000205461337390919063ffffffff16565b8160100160003373ffffffffffffffffffffffffffffffffffffffff1673ffffffffffffffffffffffffffffffffffffffff1681526020019081526020016000208190555080600e0160009054906101000a900460ff161581600e0160006101000a81548160ff021916908315150217905550612ca2612c523a5a6133fb90919063ffffffff16565b8260100160003373ffffffffffffffffffffffffffffffffffffffff1673ffffffffffffffffffffffffffffffffffffffff1681526020019081526020016000205461348190919063ffffffff16565b8160100160003373ffffffffffffffffffffffffffffffffffffffff1673ffffffffffffffffffffffffffffffffffffffff1681526020019081526020016000208190555080600e0160009054906101000a900460ff169250505090565b600080612d0b613346565b905060008160010160009054906101000a900473ffffffffffffffffffffffffffffffffffffffff1673ffffffffffffffffffffffffffffffffffffffff166318160ddd6040518163ffffffff1660e01b815260040160206040518083038186803b158015612d7957600080fd5b505afa158015612d8d573d6000803e3d6000fd5b505050506040513d601f19601f82011682018060405250810190612db19190613889565b1480612dc15750600081600a0154145b612f1f578060010160009054906101000a900473ffffffffffffffffffffffffffffffffffffffff1673ffffffffffffffffffffffffffffffffffffffff166318160ddd6040518163ffffffff1660e01b815260040160206040518083038186803b158015612e2f57600080fd5b505afa158015612e43573d6000803e3d6000fd5b505050506040513d601f19601f82011682018060405250810190612e679190613889565b81600a01548260010160009054906101000a900473ffffffffffffffffffffffffffffffffffffffff1673ffffffffffffffffffffffffffffffffffffffff1663313ce5676040518163ffffffff1660e01b815260040160206040518083038186803b158015612ed657600080fd5b505afa158015612eea573d6000803e3d6000fd5b505050506040513d601f19601f82011682018060405250810190612f0e9190613889565b600a0a0281612f1957fe5b04612fc5565b8060010160009054906101000a900473ffffffffffffffffffffffffffffffffffffffff1673ffffffffffffffffffffffffffffffffffffffff1663313ce5676040518163ffffffff1660e01b815260040160206040518083038186803b158015612f8957600080fd5b505afa158015612f9d573d6000803e3d6000fd5b505050506040513d601f19601f82011682018060405250810190612fc19190613889565b600a0a5b91505090565b600080612fd6613346565b905080600b015491505090565b600080612fee613346565b905080600a015491505090565b600080613006613346565b90503373ffffffffffffffffffffffffffffffffffffffff1681600e0160019054906101000a900473ffffffffffffffffffffffffffffffffffffffff1673ffffffffffffffffffffffffffffffffffffffff161461309a576040517f08c379a000000000000000000000000000000000000000000000000000000000815260040161309190613eac565b60405180910390fd5b6000851180156130aa5750600084115b80156130b65750600083115b6130f5576040517f08c379a00000000000000000000000000000000000000000000000000000000081526004016130ec90613ecc565b60405180910390fd5b838510613137576040517f08c379a000000000000000000000000000000000000000000000000000000000815260040161312e90613fec565b60405180910390fd5b6000613141613346565b90506131bf61316f3a61316184600f01545a61337390919063ffffffff16565b6133fb90919063ffffffff16565b8260100160003373ffffffffffffffffffffffffffffffffffffffff1673ffffffffffffffffffffffffffffffffffffffff1681526020019081526020016000205461337390919063ffffffff16565b8160100160003373ffffffffffffffffffffffffffffffffffffffff1673ffffffffffffffffffffffffffffffffffffffff168152602001908152602001600020819055508581600701819055508481600801819055508381600d01819055506132856132353a5a6133fb90919063ffffffff16565b8260100160003373ffffffffffffffffffffffffffffffffffffffff1673ffffffffffffffffffffffffffffffffffffffff1681526020019081526020016000205461348190919063ffffffff16565b8160100160003373ffffffffffffffffffffffffffffffffffffffff1673ffffffffffffffffffffffffffffffffffffffff1681526020019081526020016000208190555060006132d4613310565b11156132e8576132e261076e565b50613303565b60006132f2610700565b1115613302576133006121ce565b505b5b6001925050509392505050565b600061331a6121a3565b613322611138565b111561333e576133306106bc565b613338611138565b03613341565b60005b905090565b6000807f6c2f2617da7540533aede37184df9fe8d14d2f091e9a392f2685af4b9851d17290508091505090565b6000808284019050838110156133f1576040517f08c379a000000000000000000000000000000000000000000000000000000000815260040180806020018281038252601b8152602001807f536166654d6174683a206164646974696f6e206f766572666c6f77000000000081525060200191505060405180910390fd5b8091505092915050565b60008083141561340e576000905061347b565b600082840290508284828161341f57fe5b0414613476576040517f08c379a00000000000000000000000000000000000000000000000000000000081526004018080602001828103825260218152602001806142926021913960400191505060405180910390fd5b809150505b92915050565b60006134c383836040518060400160405280601f81526020017f536166654d6174683a207375627472616374696f6e20756e646572666c6f77008152506134cb565b905092915050565b6000838311158290613578576040517f08c379a00000000000000000000000000000000000000000000000000000000081526004018080602001828103825283818151815260200191508051906020019080838360005b8381101561353d578082015181840152602081019050613522565b50505050905090810190601f16801561356a5780820380516001836020036101000a031916815260200191505b509250505060405180910390fd5b5060008385039050809150509392505050565b600061359e613599846140db565b6140aa565b905080838252602082019050828560208602820111156135bd57600080fd5b60005b858110156135ed57816135d388826136b4565b8452602084019350602083019250506001810190506135c0565b5050509392505050565b60008135905061360681614207565b92915050565b60008151905061361b81614207565b92915050565b600082601f83011261363257600080fd5b815161364284826020860161358b565b91505092915050565b60008151905061365a8161421e565b92915050565b60008135905061366f81614235565b92915050565b6000813590506136848161424c565b92915050565b60008135905061369981614263565b92915050565b6000813590506136ae8161427a565b92915050565b6000815190506136c38161427a565b92915050565b6000602082840312156136db57600080fd5b60006136e9848285016135f7565b91505092915050565b60006020828403121561370457600080fd5b60006137128482850161360c565b91505092915050565b60006020828403121561372d57600080fd5b600082015167ffffffffffffffff81111561374757600080fd5b61375384828501613621565b91505092915050565b60006020828403121561376e57600080fd5b600061377c8482850161364b565b91505092915050565b6000806000806000806000806000806101408b8d0312156137a557600080fd5b60006137b38d828e01613675565b9a505060206137c48d828e01613675565b99505060406137d58d828e0161369f565b98505060606137e68d828e0161369f565b97505060806137f78d828e0161369f565b96505060a06138088d828e0161369f565b95505060c06138198d828e0161369f565b94505060e061382a8d828e016135f7565b93505061010061383c8d828e01613660565b92505061012061384e8d828e0161368a565b9150509295989b9194979a5092959850565b60006020828403121561387257600080fd5b60006138808482850161369f565b91505092915050565b60006020828403121561389b57600080fd5b60006138a9848285016136b4565b91505092915050565b600080604083850312156138c557600080fd5b60006138d38582860161369f565b92505060206138e48582860161369f565b9150509250929050565b60008060006060848603121561390357600080fd5b60006139118682870161369f565b93505060206139228682870161369f565b92505060406139338682870161369f565b9150509250925092565b60006139498383613964565b60208301905092915050565b61395e816141cf565b82525050565b61396d81614151565b82525050565b61397c81614151565b82525050565b600061398d82614117565b613997818561412f565b93506139a283614107565b8060005b838110156139d35781516139ba888261393d565b97506139c583614122565b9250506001810190506139a6565b5085935050505092915050565b6139e981614163565b82525050565b60006139fc601283614140565b91507f4e6f7468696e6720746f206465706f73697400000000000000000000000000006000830152602082019050919050565b6000613a3c601583614140565b91507f4f6e6c792061646d696e2063616e2063616c6c212100000000000000000000006000830152602082019050919050565b6000613a7c601983614140565b91507f506172616d65746572732063616e74206265207a65726f2121000000000000006000830152602082019050919050565b6000613abc601383614140565b91507f4e6f7468696e6720746f207769746864726177000000000000000000000000006000830152602082019050919050565b6000613afc601083614140565b91507f4e6f7468696e6720746f20636c61696d000000000000000000000000000000006000830152602082019050919050565b6000613b3c600e83614140565b91507f496e76616c696420416d6f756e740000000000000000000000000000000000006000830152602082019050919050565b6000613b7c602983614140565b91507f446f6e74206861766520656e6f7567682066756e642c20506c6561736520747260008301527f79206c61746572212100000000000000000000000000000000000000000000006020830152604082019050919050565b6000613be2602183614140565b91507f596f7520646f6e74206861766520656e6f75676820706f6f6c20746f6b656e2160008301527f21000000000000000000000000000000000000000000000000000000000000006020830152604082019050919050565b6000613c48601283614140565b91507f636f6e7472616374206973206c6f636b656400000000000000000000000000006000830152602082019050919050565b6000613c88601383614140565b91507f416c726561647920696e697469616c697a6564000000000000000000000000006000830152602082019050919050565b6000613cc8602283614140565b91507f446f6e74206861766520656e6f7567682066756e642c20547279206c6174657260008301527f21210000000000000000000000000000000000000000000000000000000000006020830152604082019050919050565b6000613d2e603283614140565b91507f4d696e206c69717569646974792063616e74206265206772656174657220746860008301527f616e206d6178206c6971756964697479212100000000000000000000000000006020830152604082019050919050565b613d90816141c5565b82525050565b6000602082019050613dab6000830184613955565b92915050565b6000606082019050613dc66000830186613955565b613dd36020830185613955565b613de06040830184613d87565b949350505050565b6000606082019050613dfd6000830186613955565b613e0a6020830185613973565b613e176040830184613d87565b949350505050565b6000604082019050613e346000830185613955565b613e416020830184613d87565b9392505050565b6000604082019050613e5d6000830185613973565b613e6a6020830184613d87565b9392505050565b6000602082019050613e8660008301846139e0565b92915050565b60006020820190508181036000830152613ea5816139ef565b9050919050565b60006020820190508181036000830152613ec581613a2f565b9050919050565b60006020820190508181036000830152613ee581613a6f565b9050919050565b60006020820190508181036000830152613f0581613aaf565b9050919050565b60006020820190508181036000830152613f2581613aef565b9050919050565b60006020820190508181036000830152613f4581613b2f565b9050919050565b60006020820190508181036000830152613f6581613b6f565b9050919050565b60006020820190508181036000830152613f8581613bd5565b9050919050565b60006020820190508181036000830152613fa581613c3b565b9050919050565b60006020820190508181036000830152613fc581613c7b565b9050919050565b60006020820190508181036000830152613fe581613cbb565b9050919050565b6000602082019050818103600083015261400581613d21565b9050919050565b60006020820190506140216000830184613d87565b92915050565b600060408201905061403c6000830185613d87565b6140496020830184613d87565b9392505050565b600060a0820190506140656000830188613d87565b6140726020830187613d87565b81810360408301526140848186613982565b90506140936060830185613955565b6140a06080830184613d87565b9695505050505050565b6000604051905081810181811067ffffffffffffffff821117156140d1576140d0614205565b5b8060405250919050565b600067ffffffffffffffff8211156140f6576140f5614205565b5b602082029050602081019050919050565b6000819050602082019050919050565b600081519050919050565b6000602082019050919050565b600082825260208201905092915050565b600082825260208201905092915050565b600061415c826141a5565b9050919050565b60008115159050919050565b600061417a82614151565b9050919050565b600061418c82614151565b9050919050565b600061419e82614151565b9050919050565b600073ffffffffffffffffffffffffffffffffffffffff82169050919050565b6000819050919050565b60006141da826141e1565b9050919050565b60006141ec826141f3565b9050919050565b60006141fe826141a5565b9050919050565bfe5b61421081614151565b811461421b57600080fd5b50565b61422781614163565b811461423257600080fd5b50565b61423e8161416f565b811461424957600080fd5b50565b61425581614181565b811461426057600080fd5b50565b61426c81614193565b811461427757600080fd5b50565b614283816141c5565b811461428e57600080fd5b5056fe536166654d6174683a206d756c7469706c69636174696f6e206f766572666c6f77a26469706673582212201bbc60cf8c46447cfdd30ca989796598720983282f8c691f00a904daf323d22264736f6c63430007060033",
  "immutableReferences": {},
  "source": "// SPDX-License-Identifier: UNLICENSED\r\npragma solidity ^0.7.6;\r\npragma experimental ABIEncoderV2;\r\n\r\nimport \"../storage/PoolStorage.sol\";\r\n\r\ncontract AdvancedPool is PoolStorageV1 {\r\n    \r\n/****VARIABLES*****/\r\n    using SafeMath for uint256;\r\n   \r\n\r\n/****MODIFIERS*****/\r\n    \r\n    modifier onlyOwner(){\r\n        PoolStorage storage ps = poolStorage();\r\n        require(ps.owner == msg.sender, \"Only admin can call!!\");\r\n        _;\r\n    }\r\n    modifier notLocked {\r\n        PoolStorage storage ps = poolStorage();\r\n        require(!ps.locked, \"contract is locked\");\r\n        _;\r\n    }\r\n  \r\n\r\n/****EVENTS****/ \r\n    event userDeposits(address user, uint256 amount);\r\n    event userWithdrawal(address user,uint256 amount);\r\n    event poolDeposit(address user, address pool, uint256 amount);\r\n    event poolWithdrawal(address user, address pool, uint256 amount);\r\n    \r\n\r\n/****CONSTRUCTOR****/\r\n    function initialize(\r\n        IERC20 _coin,\r\n        IERC20 _poolToken, \r\n        uint256 _minLiquidity, \r\n        uint256 _maxLiquidity, \r\n        uint256 _withdrawFees, \r\n        uint256 _depositFees,\r\n        uint256 _maxWithdrawalAllowed,\r\n        address _owner,\r\n        DepositStrategy _depositStrategy,\r\n        UniswapV2Router02 _uniswapRouter\r\n    ) public {\r\n        PoolStorage storage ps = poolStorage();\r\n        require(!ps.initialized, 'Already initialized');\r\n        ps.owner = _owner;\r\n        ps.DENOMINATOR = 10000;\r\n        ps.coin = _coin;\r\n        ps.poolToken = _poolToken;\r\n        ps.minLiquidity = _minLiquidity;\r\n        ps.maxLiquidity = _maxLiquidity;\r\n        ps.withdrawFees = _withdrawFees;\r\n        ps.depositFees = _depositFees;\r\n        ps.depositStrategy = _depositStrategy;\r\n        ps.maxWithdrawalAllowed = _maxWithdrawalAllowed;\r\n        ps.uniswapRouter = _uniswapRouter;\r\n        ps.initialized = true;\r\n    }\r\n    \r\n\r\n/*****USERS FUNCTIONS****/\r\n\r\n    function stake(uint256 amount) external notLocked() returns(uint256){\r\n        require(amount > 0, 'Invalid Amount');\r\n\r\n        PoolStorage storage ps = poolStorage();\r\n        uint256 feeAmount = amount * ps.depositFees / ps.DENOMINATOR;\r\n        ps.feesCollected = ps.feesCollected + feeAmount;\r\n        uint256 mintAmount = calculatePoolTokens(amount - feeAmount);\r\n        ps.poolBalance = ps.poolBalance.add(amount - feeAmount);\r\n        ps.coin.transferFrom(msg.sender, address(this), amount);\r\n        ps.poolToken.mint(msg.sender, mintAmount);\r\n        emit userDeposits(msg.sender,amount);\r\n        return mintAmount;\r\n    }\r\n\r\n    function unstake(uint256 amount) external notLocked() returns(uint256){\r\n        PoolStorage storage ps = poolStorage();\r\n        require(amount <= maxWithdrawal(), \"Dont have enough fund, Please try later!!\");\r\n       \r\n        uint256 burnAmount = calculatePoolTokens(amount);\r\n        require(burnAmount <= ps.poolToken.balanceOf(msg.sender), \"You dont have enough pool token!!\");\r\n\r\n        uint256 feeAmount = amount * ps.withdrawFees/ ps.DENOMINATOR;\r\n        ps.feesCollected = ps.feesCollected + feeAmount;\r\n        ps.poolBalance = ps.poolBalance.sub(amount);\r\n\r\n        ps.coin.transfer(msg.sender, amount - feeAmount);\r\n        ps.poolToken.burn(msg.sender, burnAmount);  \r\n        emit userWithdrawal(msg.sender, amount);\r\n        return amount - feeAmount;\r\n    }\r\n\r\n\r\n/****POOL FUNCTIONS****/\r\n\r\n    function addToStrategy() public notLocked() returns(uint256){\r\n        PoolStorage storage ps = poolStorage();\r\n        ps.gasUsed[msg.sender] = ps.gasUsed[msg.sender].add((gasleft().add(ps.defaultGas)).mul(tx.gasprice));\r\n        uint256 amount = amountToDeposit();\r\n        require(amount > 0, \"Nothing to deposit\");\r\n        ps.strategyDeposit = ps.strategyDeposit.add(amount);\r\n        ps.coin.approve(address(ps.depositStrategy), amount);\r\n        ps.depositStrategy.deposit(amount);\r\n        emit poolDeposit(msg.sender, address(ps.depositStrategy), amount);\r\n        ps.gasUsed[msg.sender] = ps.gasUsed[msg.sender].sub(gasleft().mul(tx.gasprice)); \r\n        return amount;\r\n    }\r\n    \r\n    function removeFromStrategy() public notLocked() returns(uint256){\r\n        PoolStorage storage ps = poolStorage();\r\n        ps.gasUsed[msg.sender] = ps.gasUsed[msg.sender].add((gasleft().add(ps.defaultGas)).mul(tx.gasprice));\r\n        uint256 amount = amountToWithdraw();\r\n        require(amount > 0 , \"Nothing to withdraw\");\r\n        ps.strategyDeposit = ps.strategyDeposit.sub(amount);\r\n        ps.depositStrategy.withdraw(amount);\r\n        emit poolWithdrawal(msg.sender, address(ps.depositStrategy), amount);\r\n        ps.gasUsed[msg.sender] = ps.gasUsed[msg.sender].sub(gasleft().mul(tx.gasprice)); \r\n        return amount;\r\n    }\r\n    \r\n\r\n/****ADMIN FUNCTIONS*****/\r\n    \r\n    function updateLiquidityParam(uint256 _minLiquidity, uint256 _maxLiquidity, uint256 _maxWithdrawalAllowed) external onlyOwner() returns(bool){\r\n        require(_minLiquidity > 0 &&  _maxLiquidity > 0 && _maxWithdrawalAllowed > 0, 'Parameters cant be zero!!');\r\n        require(_minLiquidity <  _maxLiquidity, 'Min liquidity cant be greater than max liquidity!!');\r\n   \r\n        PoolStorage storage ps = poolStorage();\r\n        ps.gasUsed[msg.sender] = ps.gasUsed[msg.sender].add((gasleft().add(ps.defaultGas)).mul(tx.gasprice));\r\n        ps.minLiquidity = _minLiquidity;\r\n        ps.maxLiquidity = _maxLiquidity;\r\n        ps.maxWithdrawalAllowed = _maxWithdrawalAllowed;\r\n        ps.gasUsed[msg.sender] = ps.gasUsed[msg.sender].sub(gasleft().mul(tx.gasprice)); \r\n        if(amountToDeposit() > 0){\r\n            addToStrategy();\r\n        }else if(amountToWithdraw() > 0){\r\n            removeFromStrategy();\r\n        }\r\n        return true;\r\n    }\r\n    \r\n    function updateFees(uint256 _depositFees, uint256 _withdrawFees) external onlyOwner() returns(bool){\r\n        PoolStorage storage ps = poolStorage();\r\n        ps.gasUsed[msg.sender] = ps.gasUsed[msg.sender].add((gasleft().add(ps.defaultGas)).mul(tx.gasprice));\r\n        ps.withdrawFees = _withdrawFees;\r\n        ps.depositFees = _depositFees;\r\n        ps.gasUsed[msg.sender] = ps.gasUsed[msg.sender].sub(gasleft().mul(tx.gasprice));\r\n        return true;\r\n    }\r\n    \r\n    function changeLockStatus() external onlyOwner() returns(bool){\r\n        PoolStorage storage ps = poolStorage();\r\n        ps.gasUsed[msg.sender] = ps.gasUsed[msg.sender].add((gasleft().add(ps.defaultGas)).mul(tx.gasprice));\r\n        ps.locked = !ps.locked;\r\n        ps.gasUsed[msg.sender] = ps.gasUsed[msg.sender].sub(gasleft().mul(tx.gasprice));\r\n        return ps.locked;\r\n    }\r\n    \r\n    function updateOwner(address newOwner) external onlyOwner() returns(bool){\r\n        PoolStorage storage ps = poolStorage();\r\n        ps.gasUsed[msg.sender] = ps.gasUsed[msg.sender].add((gasleft().add(ps.defaultGas)).mul(tx.gasprice));\r\n        ps.owner = newOwner;\r\n        ps.gasUsed[msg.sender] = ps.gasUsed[msg.sender].sub(gasleft().mul(tx.gasprice));\r\n        return true;\r\n    } \r\n\r\n    function getYield() public onlyOwner(){\r\n        PoolStorage storage ps = poolStorage();\r\n        ps.gasUsed[msg.sender] = ps.gasUsed[msg.sender].add((gasleft().add(ps.defaultGas)).mul(tx.gasprice));\r\n        uint256 tokenReceived = ps.depositStrategy.claimAndConvertCRV();\r\n        ps.poolBalance = ps.poolBalance.add(tokenReceived);\r\n        ps.gasUsed[msg.sender] = ps.gasUsed[msg.sender].sub(gasleft().mul(tx.gasprice)); \r\n    }\r\n\r\n\r\n/****OTHER FUNCTIONS****/\r\n\r\n    function calculatePoolTokens(uint256 amountOfStableCoins) public view returns(uint256){\r\n        PoolStorage storage ps = poolStorage();\r\n        return (amountOfStableCoins * stableCoinPrice())/10**ps.coin.decimals() ;\r\n    }\r\n\r\n    function stableCoinPrice() public view returns(uint256){\r\n        PoolStorage storage ps = poolStorage();\r\n        return (ps.poolToken.totalSupply() == 0 || ps.poolBalance == 0) ? 10**ps.coin.decimals() : ((10**ps.coin.decimals()) * ps.poolToken.totalSupply())/ps.poolBalance;\r\n    }\r\n    \r\n    function calculateStableCoins(uint256 amountOfPoolToken) public view returns(uint256){\r\n        PoolStorage storage ps = poolStorage();\r\n        amountOfPoolToken = (amountOfPoolToken*poolTokenPrice())/(10**ps.poolToken.decimals());\r\n        return amountOfPoolToken;\r\n    }\r\n\r\n    function poolTokenPrice() public view returns(uint256){\r\n        PoolStorage storage ps = poolStorage();\r\n        return (ps.poolToken.totalSupply() == 0 || ps.poolBalance == 0) ? 10**ps.poolToken.decimals() : ((10**ps.poolToken.decimals())*ps.poolBalance)/ps.poolToken.totalSupply();\r\n    }\r\n    \r\n    function maxWithdrawal() public view returns(uint256){\r\n        PoolStorage storage ps = poolStorage();\r\n        return minLiquidityToMaintainInPool()/2 < ps.maxWithdrawalAllowed ? minLiquidityToMaintainInPool()/2 : ps.maxWithdrawalAllowed;\r\n    }\r\n\r\n    function currentLiquidity() public view returns(uint256){\r\n        PoolStorage storage ps = poolStorage();\r\n        return ps.poolBalance - ps.strategyDeposit;\r\n    }\r\n   \r\n    function idealAmount() public view returns(uint256){\r\n        PoolStorage storage ps = poolStorage();\r\n        return (ps.poolBalance * (ps.minLiquidity.add(ps.maxLiquidity))) / (2 * ps.DENOMINATOR);\r\n    }\r\n     \r\n    function maxLiquidityAllowedInPool() public view returns(uint256){\r\n        PoolStorage storage ps = poolStorage();\r\n        return ps.poolBalance * ps.maxLiquidity / ps.DENOMINATOR;\r\n    }\r\n\r\n    function amountToDeposit() public view returns(uint256){\r\n        return currentLiquidity() <= maxLiquidityAllowedInPool() ? 0 : currentLiquidity() - idealAmount();\r\n    }\r\n    \r\n    function minLiquidityToMaintainInPool() public view returns(uint256){\r\n        PoolStorage storage ps = poolStorage();\r\n        return ps.poolBalance * ps.minLiquidity / ps.DENOMINATOR;\r\n    }\r\n   \r\n    function amountToWithdraw() public view returns(uint256){\r\n        PoolStorage storage ps = poolStorage();\r\n        return currentLiquidity() > minLiquidityToMaintainInPool() || ps.strategyDeposit == 0 || ps.strategyDeposit < idealAmount() - currentLiquidity() ? 0 : idealAmount() - currentLiquidity();\r\n    }\r\n\r\n    function lockStatus() public view returns(bool){\r\n        PoolStorage storage ps = poolStorage();\r\n        return ps.locked;\r\n    }\r\n\r\n    function totalDeposit() public view returns(uint256){\r\n        PoolStorage storage ps = poolStorage();\r\n        return ps.poolBalance;\r\n    }\r\n\r\n    function strategyDeposit() public view returns(uint256){\r\n        PoolStorage storage ps = poolStorage();\r\n        return ps.strategyDeposit;\r\n    }\r\n       \r\n    function feesCollected() public view returns(uint256){\r\n        PoolStorage storage ps = poolStorage();\r\n        return ps.feesCollected;\r\n    }\r\n\r\n    function currentFees() public view returns(uint256, uint256){\r\n        PoolStorage storage ps = poolStorage();\r\n        return (ps.depositFees, ps.withdrawFees);\r\n    }\r\n\r\n    function claimGasFee() public{\r\n        PoolStorage storage ps = poolStorage();\r\n        uint256 gasAtStart = (gasleft().add(ps.defaultGas)).mul(tx.gasprice);\r\n        uint256 claimableAmount = ps.gasUsed[msg.sender];\r\n        require(claimableAmount > 0, \"Nothing to claim\");\r\n        require(address(this).balance >= claimableAmount, \"Dont have enough fund, Try later!!\");\r\n        ps.gasUsed[msg.sender] = 0;\r\n        msg.sender.transfer(claimableAmount);\r\n        uint256 gasAtEnd = gasleft().mul(tx.gasprice);\r\n        ps.gasUsed[msg.sender] = gasAtStart - gasAtEnd;\r\n    }\r\n\r\n    function convertFeesToETH() external {\r\n        PoolStorage storage ps = poolStorage();\r\n        ps.gasUsed[msg.sender] = ps.gasUsed[msg.sender].add((gasleft().add(ps.defaultGas)).mul(tx.gasprice));\r\n        address[] memory path = new address[](2);\r\n        uint256 amountToSwap = ps.feesCollected;\r\n        ps.feesCollected = 0;\r\n        ps.coin.approve(address(ps.uniswapRouter), amountToSwap);\r\n        path[0] = address(ps.coin);\r\n        path[1] = ps.uniswapRouter.WETH();\r\n        uint256 amountOutMin = 0;\r\n        ps.uniswapRouter.swapExactTokensForETH(amountToSwap, amountOutMin, path, address(this), block.timestamp + 100000);\r\n        ps.gasUsed[msg.sender] = ps.gasUsed[msg.sender].sub(gasleft().mul(tx.gasprice));\r\n    }\r\n\r\n    receive() external payable {\r\n    }\r\n}",
  "sourcePath": "E:/New Desktop/Projects/AdvancedPool/AdvancedPool/contracts/facets/AdvancedPool.sol",
  "compiler": {
    "name": "solc",
    "version": "0.7.6+commit.7338295f.Emscripten.clang"
  },
  "schemaVersion": "3.3.2",
  "updatedAt": "2021-05-12T09:57:39.261Z",
  "devdoc": {
    "kind": "dev",
    "methods": {},
    "version": 1
  },
  "userdoc": {
    "kind": "user",
    "methods": {},
    "version": 1
  }
}