{
  "contractName": "AdvancedPool",
  "abi": [
    {
      "anonymous": false,
      "inputs": [
        {
          "indexed": false,
          "internalType": "address",
          "name": "user",
          "type": "address"
        },
        {
          "indexed": false,
          "internalType": "address",
          "name": "pool",
          "type": "address"
        },
        {
          "indexed": false,
          "internalType": "address",
          "name": "coin",
          "type": "address"
        },
        {
          "indexed": false,
          "internalType": "uint256",
          "name": "amount",
          "type": "uint256"
        }
      ],
      "name": "poolDeposit",
      "type": "event"
    },
    {
      "anonymous": false,
      "inputs": [
        {
          "indexed": false,
          "internalType": "address",
          "name": "user",
          "type": "address"
        },
        {
          "indexed": false,
          "internalType": "address",
          "name": "pool",
          "type": "address"
        },
        {
          "indexed": false,
          "internalType": "address",
          "name": "coin",
          "type": "address"
        },
        {
          "indexed": false,
          "internalType": "uint256",
          "name": "amount",
          "type": "uint256"
        }
      ],
      "name": "poolWithdrawal",
      "type": "event"
    },
    {
      "anonymous": false,
      "inputs": [
        {
          "indexed": false,
          "internalType": "address",
          "name": "user",
          "type": "address"
        },
        {
          "indexed": false,
          "internalType": "uint256",
          "name": "amount",
          "type": "uint256"
        }
      ],
      "name": "userDeposits",
      "type": "event"
    },
    {
      "anonymous": false,
      "inputs": [
        {
          "indexed": false,
          "internalType": "address",
          "name": "user",
          "type": "address"
        },
        {
          "indexed": false,
          "internalType": "uint256",
          "name": "amount",
          "type": "uint256"
        }
      ],
      "name": "userWithdrawal",
      "type": "event"
    },
    {
      "inputs": [
        {
          "internalType": "contract IERC20",
          "name": "_coin",
          "type": "address"
        },
        {
          "internalType": "contract IERC20",
          "name": "_poolToken",
          "type": "address"
        },
        {
          "internalType": "uint256",
          "name": "_minLiquidity",
          "type": "uint256"
        },
        {
          "internalType": "uint256",
          "name": "_maxLiquidity",
          "type": "uint256"
        },
        {
          "internalType": "uint256",
          "name": "_withdrawFees",
          "type": "uint256"
        },
        {
          "internalType": "uint256",
          "name": "_depositFees",
          "type": "uint256"
        },
        {
          "internalType": "contract DepositStrategy",
          "name": "_depositStrategy",
          "type": "address"
        },
        {
          "internalType": "uint256",
          "name": "_maxWithdrawalAllowed",
          "type": "uint256"
        }
      ],
      "name": "initialize",
      "outputs": [],
      "stateMutability": "nonpayable",
      "type": "function"
    },
    {
      "inputs": [
        {
          "internalType": "uint256",
          "name": "amount",
          "type": "uint256"
        }
      ],
      "name": "stake",
      "outputs": [
        {
          "internalType": "uint256",
          "name": "",
          "type": "uint256"
        }
      ],
      "stateMutability": "nonpayable",
      "type": "function"
    },
    {
      "inputs": [
        {
          "internalType": "uint256",
          "name": "amount",
          "type": "uint256"
        }
      ],
      "name": "unStake",
      "outputs": [
        {
          "internalType": "uint256",
          "name": "",
          "type": "uint256"
        }
      ],
      "stateMutability": "nonpayable",
      "type": "function"
    },
    {
      "inputs": [
        {
          "internalType": "uint256",
          "name": "_minLiquidity",
          "type": "uint256"
        },
        {
          "internalType": "uint256",
          "name": "_maxLiquidity",
          "type": "uint256"
        },
        {
          "internalType": "uint256",
          "name": "_maxWithdrawalAllowed",
          "type": "uint256"
        }
      ],
      "name": "updateLiquidityParam",
      "outputs": [
        {
          "internalType": "bool",
          "name": "",
          "type": "bool"
        }
      ],
      "stateMutability": "nonpayable",
      "type": "function"
    },
    {
      "inputs": [
        {
          "internalType": "uint256",
          "name": "_depositFees",
          "type": "uint256"
        },
        {
          "internalType": "uint256",
          "name": "_withdrawFees",
          "type": "uint256"
        }
      ],
      "name": "updateFees",
      "outputs": [
        {
          "internalType": "bool",
          "name": "",
          "type": "bool"
        }
      ],
      "stateMutability": "nonpayable",
      "type": "function"
    },
    {
      "inputs": [],
      "name": "changeLockStatus",
      "outputs": [
        {
          "internalType": "bool",
          "name": "",
          "type": "bool"
        }
      ],
      "stateMutability": "nonpayable",
      "type": "function"
    },
    {
      "inputs": [
        {
          "internalType": "address",
          "name": "newOwner",
          "type": "address"
        }
      ],
      "name": "updateOwner",
      "outputs": [
        {
          "internalType": "bool",
          "name": "",
          "type": "bool"
        }
      ],
      "stateMutability": "nonpayable",
      "type": "function"
    },
    {
      "inputs": [
        {
          "internalType": "contract DepositStrategy",
          "name": "_depositStrategy",
          "type": "address"
        }
      ],
      "name": "updateStrategy",
      "outputs": [
        {
          "internalType": "bool",
          "name": "",
          "type": "bool"
        }
      ],
      "stateMutability": "nonpayable",
      "type": "function"
    },
    {
      "inputs": [],
      "name": "addToStrategy",
      "outputs": [
        {
          "internalType": "uint256",
          "name": "",
          "type": "uint256"
        }
      ],
      "stateMutability": "nonpayable",
      "type": "function"
    },
    {
      "inputs": [],
      "name": "removeFromPool",
      "outputs": [
        {
          "internalType": "uint256",
          "name": "",
          "type": "uint256"
        }
      ],
      "stateMutability": "nonpayable",
      "type": "function"
    },
    {
      "inputs": [
        {
          "internalType": "uint256",
          "name": "amountOfStableCoins",
          "type": "uint256"
        }
      ],
      "name": "calculatePoolTokens",
      "outputs": [
        {
          "internalType": "uint256",
          "name": "",
          "type": "uint256"
        }
      ],
      "stateMutability": "view",
      "type": "function",
      "constant": true
    },
    {
      "inputs": [],
      "name": "stableCoinPrice",
      "outputs": [
        {
          "internalType": "uint256",
          "name": "",
          "type": "uint256"
        }
      ],
      "stateMutability": "view",
      "type": "function",
      "constant": true
    },
    {
      "inputs": [
        {
          "internalType": "uint256",
          "name": "amountOfPoolToken",
          "type": "uint256"
        }
      ],
      "name": "calculateStableCoins",
      "outputs": [
        {
          "internalType": "uint256",
          "name": "",
          "type": "uint256"
        }
      ],
      "stateMutability": "view",
      "type": "function",
      "constant": true
    },
    {
      "inputs": [],
      "name": "poolTokenPrice",
      "outputs": [
        {
          "internalType": "uint256",
          "name": "",
          "type": "uint256"
        }
      ],
      "stateMutability": "view",
      "type": "function",
      "constant": true
    },
    {
      "inputs": [],
      "name": "maxBurnAllowed",
      "outputs": [
        {
          "internalType": "uint256",
          "name": "",
          "type": "uint256"
        }
      ],
      "stateMutability": "view",
      "type": "function",
      "constant": true
    },
    {
      "inputs": [],
      "name": "currentLiquidity",
      "outputs": [
        {
          "internalType": "uint256",
          "name": "",
          "type": "uint256"
        }
      ],
      "stateMutability": "view",
      "type": "function",
      "constant": true
    },
    {
      "inputs": [],
      "name": "idealAmount",
      "outputs": [
        {
          "internalType": "uint256",
          "name": "",
          "type": "uint256"
        }
      ],
      "stateMutability": "view",
      "type": "function",
      "constant": true
    },
    {
      "inputs": [],
      "name": "maxLiquidityAllowedInPool",
      "outputs": [
        {
          "internalType": "uint256",
          "name": "",
          "type": "uint256"
        }
      ],
      "stateMutability": "view",
      "type": "function",
      "constant": true
    },
    {
      "inputs": [],
      "name": "amountToDeposit",
      "outputs": [
        {
          "internalType": "uint256",
          "name": "",
          "type": "uint256"
        }
      ],
      "stateMutability": "view",
      "type": "function",
      "constant": true
    },
    {
      "inputs": [],
      "name": "minLiquidityToMaintainInPool",
      "outputs": [
        {
          "internalType": "uint256",
          "name": "",
          "type": "uint256"
        }
      ],
      "stateMutability": "view",
      "type": "function",
      "constant": true
    },
    {
      "inputs": [],
      "name": "amountToWithdraw",
      "outputs": [
        {
          "internalType": "uint256",
          "name": "",
          "type": "uint256"
        }
      ],
      "stateMutability": "view",
      "type": "function",
      "constant": true
    },
    {
      "inputs": [],
      "name": "lockStatus",
      "outputs": [
        {
          "internalType": "bool",
          "name": "",
          "type": "bool"
        }
      ],
      "stateMutability": "view",
      "type": "function",
      "constant": true
    },
    {
      "inputs": [],
      "name": "totalDeposit",
      "outputs": [
        {
          "internalType": "uint256",
          "name": "",
          "type": "uint256"
        }
      ],
      "stateMutability": "view",
      "type": "function",
      "constant": true
    },
    {
      "inputs": [],
      "name": "strategyDeposit",
      "outputs": [
        {
          "internalType": "uint256",
          "name": "",
          "type": "uint256"
        }
      ],
      "stateMutability": "view",
      "type": "function",
      "constant": true
    },
    {
      "inputs": [],
      "name": "feesCollected",
      "outputs": [
        {
          "internalType": "uint256",
          "name": "",
          "type": "uint256"
        }
      ],
      "stateMutability": "view",
      "type": "function",
      "constant": true
    }
  ],
  "bytecode": "0x608060405234801561001057600080fd5b506129c5806100206000396000f3fe608060405234801561001057600080fd5b50600436106101735760003560e01c80638a98cdd4116100de578063d395fbc511610097578063f071db5a11610071578063f071db5a1461046a578063f6153ccd14610488578063fb60946d146104a6578063fe135c0e146104d657610173565b8063d395fbc5146103fe578063daccaf631461041c578063e42553421461044c57610173565b80638a98cdd4146103145780639d21a0be14610344578063a694fc3a14610362578063b4ad5e0814610392578063c3c9f52b146103b0578063cc4a6114146103e057610173565b806346caf2ae1161013057806346caf2ae1461022a5780635b404bad146102485780635d3eea91146102665780636db79437146102965780637260cc76146102c6578063880cdc31146102e457610173565b8063077622a2146101785780632237f97a14610196578063269fa128146101b257806329093c69146101d057806331dd132e146101ee5780633e89340f1461020c575b600080fd5b6101806104f4565b60405161018d919061284e565b60405180910390f35b6101b060048036038101906101ab9190612293565b610528565b005b6101ba6106f2565b6040516101c7919061284e565b60405180910390f35b6101d8610760565b6040516101e5919061284e565b60405180910390f35b6101f6610a2c565b604051610203919061284e565b60405180910390f35b610214610a44565b6040516102219190612753565b60405180910390f35b610232610a69565b60405161023f919061284e565b60405180910390f35b610250610a87565b60405161025d919061284e565b60405180910390f35b610280600480360381019061027b9190612345565b610d4c565b60405161028d919061284e565b60405180910390f35b6102b060048036038101906102ab9190612397565b611127565b6040516102bd9190612753565b60405180910390f35b6102ce61124f565b6040516102db919061284e565b60405180910390f35b6102fe60048036038101906102f99190612218565b61127a565b60405161030b9190612753565b60405180910390f35b61032e60048036038101906103299190612345565b611373565b60405161033b919061284e565b60405180910390f35b61034c61143f565b604051610359919061284e565b60405180910390f35b61037c60048036038101906103779190612345565b611635565b604051610389919061284e565b60405180910390f35b61039a61187f565b6040516103a7919061284e565b60405180910390f35b6103ca60048036038101906103c59190612345565b6118aa565b6040516103d7919061284e565b60405180910390f35b6103e8611973565b6040516103f5919061284e565b60405180910390f35b610406611993565b6040516104139190612753565b60405180910390f35b6104366004803603810190610431919061226a565b611a85565b6040516104439190612753565b60405180910390f35b610454611b7e565b604051610461919061284e565b60405180910390f35b610472611e43565b60405161047f919061284e565b60405180910390f35b610490611e5b565b60405161049d919061284e565b60405180910390f35b6104c060048036038101906104bb91906123d3565b611e73565b6040516104cd9190612753565b60405180910390f35b6104de611fa5565b6040516104eb919061284e565b60405180910390f35b6000806104ff611fdb565b9050806003015460020281600701548260060154018260090154028161052157fe5b0491505090565b6000610532611fdb565b90508060000160009054906101000a900460ff1615610586576040517f08c379a000000000000000000000000000000000000000000000000000000000815260040161057d9061282e565b60405180910390fd5b3381600d0160016101000a81548173ffffffffffffffffffffffffffffffffffffffff021916908373ffffffffffffffffffffffffffffffffffffffff1602179055506127108160030181905550888160000160016101000a81548173ffffffffffffffffffffffffffffffffffffffff021916908373ffffffffffffffffffffffffffffffffffffffff160217905550878160010160006101000a81548173ffffffffffffffffffffffffffffffffffffffff021916908373ffffffffffffffffffffffffffffffffffffffff160217905550868160060181905550858160070181905550848160050181905550838160040181905550828160020160006101000a81548173ffffffffffffffffffffffffffffffffffffffff021916908373ffffffffffffffffffffffffffffffffffffffff1602179055508181600c018190555060018160000160006101000a81548160ff021916908315150217905550505050505050505050565b6000806106fd611fdb565b905061070761124f565b61070f610a69565b118061071f5750600081600b0154145b8061073d575061072d610a69565b6107356104f4565b0381600b0154105b61075757610749610a69565b6107516104f4565b0361075a565b60005b91505090565b60008061076b611fdb565b905080600d0160009054906101000a900460ff16156107bf576040517f08c379a00000000000000000000000000000000000000000000000000000000081526004016107b69061280e565b60405180910390fd5b60006107c9611fdb565b905060006107d5611fa5565b90506000811161081a576040517f08c379a00000000000000000000000000000000000000000000000000000000081526004016108119061276e565b60405180910390fd5b6108318183600b015461200890919063ffffffff16565b82600b01819055508160000160019054906101000a900473ffffffffffffffffffffffffffffffffffffffff1673ffffffffffffffffffffffffffffffffffffffff1663095ea7b38360020160009054906101000a900473ffffffffffffffffffffffffffffffffffffffff16836040518363ffffffff1660e01b81526004016108bc92919061272a565b602060405180830381600087803b1580156108d657600080fd5b505af11580156108ea573d6000803e3d6000fd5b505050506040513d601f19601f8201168201806040525081019061090e9190612241565b508160020160009054906101000a900473ffffffffffffffffffffffffffffffffffffffff1673ffffffffffffffffffffffffffffffffffffffff1663b6b55f25826040518263ffffffff1660e01b815260040161096c919061284e565b600060405180830381600087803b15801561098657600080fd5b505af115801561099a573d6000803e3d6000fd5b505050507f8a3c46035b966898b4542598f6680f7d7644bad07f874b70c3e034f33c7a78ff338360020160009054906101000a900473ffffffffffffffffffffffffffffffffffffffff168460000160019054906101000a900473ffffffffffffffffffffffffffffffffffffffff1684604051610a1b9493929190612685565b60405180910390a180935050505090565b600080610a37611fdb565b905080600b015491505090565b600080610a4f611fdb565b905080600d0160009054906101000a900460ff1691505090565b600080610a74611fdb565b905080600b015481600901540391505090565b600080610a92611fdb565b905060008160010160009054906101000a900473ffffffffffffffffffffffffffffffffffffffff1673ffffffffffffffffffffffffffffffffffffffff166318160ddd6040518163ffffffff1660e01b815260040160206040518083038186803b158015610b0057600080fd5b505afa158015610b14573d6000803e3d6000fd5b505050506040513d601f19601f82011682018060405250810190610b38919061236e565b1480610b48575060008160090154145b610ca35780600901548160010160009054906101000a900473ffffffffffffffffffffffffffffffffffffffff1673ffffffffffffffffffffffffffffffffffffffff166318160ddd6040518163ffffffff1660e01b815260040160206040518083038186803b158015610bbb57600080fd5b505afa158015610bcf573d6000803e3d6000fd5b505050506040513d601f19601f82011682018060405250810190610bf3919061236e565b8260000160019054906101000a900473ffffffffffffffffffffffffffffffffffffffff1673ffffffffffffffffffffffffffffffffffffffff1663313ce5676040518163ffffffff1660e01b815260040160206040518083038186803b158015610c5d57600080fd5b505afa158015610c71573d6000803e3d6000fd5b505050506040513d601f19601f82011682018060405250810190610c95919061236e565b0281610c9d57fe5b04610d46565b8060000160019054906101000a900473ffffffffffffffffffffffffffffffffffffffff1673ffffffffffffffffffffffffffffffffffffffff1663313ce5676040518163ffffffff1660e01b815260040160206040518083038186803b158015610d0d57600080fd5b505afa158015610d21573d6000803e3d6000fd5b505050506040513d601f19601f82011682018060405250810190610d45919061236e565b5b91505090565b600080610d57611fdb565b905080600d0160009054906101000a900460ff1615610dab576040517f08c379a0000000000000000000000000000000000000000000000000000000008152600401610da29061280e565b60405180910390fd5b6000610db5611fdb565b90508060010160009054906101000a900473ffffffffffffffffffffffffffffffffffffffff1673ffffffffffffffffffffffffffffffffffffffff166370a08231336040518263ffffffff1660e01b8152600401610e14919061266a565b60206040518083038186803b158015610e2c57600080fd5b505afa158015610e40573d6000803e3d6000fd5b505050506040513d601f19601f82011682018060405250810190610e64919061236e565b841115610ea6576040517f08c379a0000000000000000000000000000000000000000000000000000000008152600401610e9d906127ee565b60405180910390fd5b610eae611973565b841115610ef0576040517f08c379a0000000000000000000000000000000000000000000000000000000008152600401610ee7906127ce565b60405180910390fd5b610ef861124f565b8482600b0154836009015403031015610f46576040517f08c379a0000000000000000000000000000000000000000000000000000000008152600401610f3d906127ce565b60405180910390fd5b6000610f5185611373565b9050600082600301548360050154830281610f6857fe5b0490508083600a01540183600a0181905550610f93818303846009015461209090919063ffffffff16565b83600901819055508260000160019054906101000a900473ffffffffffffffffffffffffffffffffffffffff1673ffffffffffffffffffffffffffffffffffffffff1663a9059cbb338385036040518363ffffffff1660e01b8152600401610ffc929190612701565b602060405180830381600087803b15801561101657600080fd5b505af115801561102a573d6000803e3d6000fd5b505050506040513d601f19601f8201168201806040525081019061104e9190612241565b508260010160009054906101000a900473ffffffffffffffffffffffffffffffffffffffff1673ffffffffffffffffffffffffffffffffffffffff16639dc29fac33886040518363ffffffff1660e01b81526004016110ae929190612701565b600060405180830381600087803b1580156110c857600080fd5b505af11580156110dc573d6000803e3d6000fd5b505050507f42b2a4ad2d4bdf57e819ccd3c6ce6d0a8d6d20b5d3dbf94ef2b05c42f523c6103387604051611111929190612701565b60405180910390a1808203945050505050919050565b600080611132611fdb565b90503373ffffffffffffffffffffffffffffffffffffffff1681600d0160019054906101000a900473ffffffffffffffffffffffffffffffffffffffff1673ffffffffffffffffffffffffffffffffffffffff16146111c6576040517f08c379a00000000000000000000000000000000000000000000000000000000081526004016111bd9061278e565b60405180910390fd5b60006111d0611fdb565b905080600d0160009054906101000a900460ff1615611224576040517f08c379a000000000000000000000000000000000000000000000000000000000815260040161121b9061280e565b60405180910390fd5b600061122e611fdb565b90508481600501819055508581600401819055506001935050505092915050565b60008061125a611fdb565b9050806003015481600601548260090154028161127357fe5b0491505090565b600080611285611fdb565b90503373ffffffffffffffffffffffffffffffffffffffff1681600d0160019054906101000a900473ffffffffffffffffffffffffffffffffffffffff1673ffffffffffffffffffffffffffffffffffffffff1614611319576040517f08c379a00000000000000000000000000000000000000000000000000000000081526004016113109061278e565b60405180910390fd5b6000611323611fdb565b90508381600d0160016101000a81548173ffffffffffffffffffffffffffffffffffffffff021916908373ffffffffffffffffffffffffffffffffffffffff160217905550600192505050919050565b60008061137e611fdb565b90508060000160019054906101000a900473ffffffffffffffffffffffffffffffffffffffff1673ffffffffffffffffffffffffffffffffffffffff1663313ce5676040518163ffffffff1660e01b815260040160206040518083038186803b1580156113ea57600080fd5b505afa1580156113fe573d6000803e3d6000fd5b505050506040513d601f19601f82011682018060405250810190611422919061236e565b61142a611b7e565b84028161143357fe5b04925082915050919050565b60008061144a611fdb565b905080600d0160009054906101000a900460ff161561149e576040517f08c379a00000000000000000000000000000000000000000000000000000000081526004016114959061280e565b60405180910390fd5b60006114a8611fdb565b905060006114b46106f2565b9050600081116114f9576040517f08c379a00000000000000000000000000000000000000000000000000000000081526004016114f0906127ae565b60405180910390fd5b6115108183600b015461209090919063ffffffff16565b82600b01819055508160020160009054906101000a900473ffffffffffffffffffffffffffffffffffffffff1673ffffffffffffffffffffffffffffffffffffffff16632e1a7d4d826040518263ffffffff1660e01b8152600401611575919061284e565b600060405180830381600087803b15801561158f57600080fd5b505af11580156115a3573d6000803e3d6000fd5b505050507f2441be9fc17408ea9902cf641305826f3b04cff339db1e0df3e9849d9bbd2e82338360020160009054906101000a900473ffffffffffffffffffffffffffffffffffffffff168460000160019054906101000a900473ffffffffffffffffffffffffffffffffffffffff16846040516116249493929190612685565b60405180910390a180935050505090565b600080611640611fdb565b905080600d0160009054906101000a900460ff1615611694576040517f08c379a000000000000000000000000000000000000000000000000000000000815260040161168b9061280e565b60405180910390fd5b600061169e611fdb565b90506000816003015482600401548602816116b557fe5b0490508082600a01540182600a01819055506116de85836009015461200890919063ffffffff16565b826009018190555060006116f38287036118aa565b90508260000160019054906101000a900473ffffffffffffffffffffffffffffffffffffffff1673ffffffffffffffffffffffffffffffffffffffff166323b872dd3330896040518463ffffffff1660e01b8152600401611756939291906126ca565b602060405180830381600087803b15801561177057600080fd5b505af1158015611784573d6000803e3d6000fd5b505050506040513d601f19601f820116820180604052508101906117a89190612241565b508260010160009054906101000a900473ffffffffffffffffffffffffffffffffffffffff1673ffffffffffffffffffffffffffffffffffffffff166340c10f1933836040518363ffffffff1660e01b8152600401611808929190612701565b600060405180830381600087803b15801561182257600080fd5b505af1158015611836573d6000803e3d6000fd5b505050507f08f43333671aca8015183efb2197dac68519c827a11e6788eac8c80131169a64338760405161186b929190612701565b60405180910390a180945050505050919050565b60008061188a611fdb565b905080600301548160070154826009015402816118a357fe5b0491505090565b6000806118b5611fdb565b90508060000160019054906101000a900473ffffffffffffffffffffffffffffffffffffffff1673ffffffffffffffffffffffffffffffffffffffff1663313ce5676040518163ffffffff1660e01b815260040160206040518083038186803b15801561192157600080fd5b505afa158015611935573d6000803e3d6000fd5b505050506040513d601f19601f82011682018060405250810190611959919061236e565b611961610a87565b84028161196a57fe5b04915050919050565b60008061197e611fdb565b905061198d81600c01546118aa565b91505090565b60008061199e611fdb565b90503373ffffffffffffffffffffffffffffffffffffffff1681600d0160019054906101000a900473ffffffffffffffffffffffffffffffffffffffff1673ffffffffffffffffffffffffffffffffffffffff1614611a32576040517f08c379a0000000000000000000000000000000000000000000000000000000008152600401611a299061278e565b60405180910390fd5b6000611a3c611fdb565b905080600d0160009054906101000a900460ff161581600d0160006101000a81548160ff02191690831515021790555080600d0160009054906101000a900460ff169250505090565b600080611a90611fdb565b90503373ffffffffffffffffffffffffffffffffffffffff1681600d0160019054906101000a900473ffffffffffffffffffffffffffffffffffffffff1673ffffffffffffffffffffffffffffffffffffffff1614611b24576040517f08c379a0000000000000000000000000000000000000000000000000000000008152600401611b1b9061278e565b60405180910390fd5b6000611b2e611fdb565b9050838160020160006101000a81548173ffffffffffffffffffffffffffffffffffffffff021916908373ffffffffffffffffffffffffffffffffffffffff160217905550600192505050919050565b600080611b89611fdb565b905060008160010160009054906101000a900473ffffffffffffffffffffffffffffffffffffffff1673ffffffffffffffffffffffffffffffffffffffff166318160ddd6040518163ffffffff1660e01b815260040160206040518083038186803b158015611bf757600080fd5b505afa158015611c0b573d6000803e3d6000fd5b505050506040513d601f19601f82011682018060405250810190611c2f919061236e565b1480611c3f575060008160090154145b611d9a578060010160009054906101000a900473ffffffffffffffffffffffffffffffffffffffff1673ffffffffffffffffffffffffffffffffffffffff166318160ddd6040518163ffffffff1660e01b815260040160206040518083038186803b158015611cad57600080fd5b505afa158015611cc1573d6000803e3d6000fd5b505050506040513d601f19601f82011682018060405250810190611ce5919061236e565b81600901548260010160009054906101000a900473ffffffffffffffffffffffffffffffffffffffff1673ffffffffffffffffffffffffffffffffffffffff1663313ce5676040518163ffffffff1660e01b815260040160206040518083038186803b158015611d5457600080fd5b505afa158015611d68573d6000803e3d6000fd5b505050506040513d601f19601f82011682018060405250810190611d8c919061236e565b0281611d9457fe5b04611e3d565b8060010160009054906101000a900473ffffffffffffffffffffffffffffffffffffffff1673ffffffffffffffffffffffffffffffffffffffff1663313ce5676040518163ffffffff1660e01b815260040160206040518083038186803b158015611e0457600080fd5b505afa158015611e18573d6000803e3d6000fd5b505050506040513d601f19601f82011682018060405250810190611e3c919061236e565b5b91505090565b600080611e4e611fdb565b905080600a015491505090565b600080611e66611fdb565b9050806009015491505090565b600080611e7e611fdb565b90503373ffffffffffffffffffffffffffffffffffffffff1681600d0160019054906101000a900473ffffffffffffffffffffffffffffffffffffffff1673ffffffffffffffffffffffffffffffffffffffff1614611f12576040517f08c379a0000000000000000000000000000000000000000000000000000000008152600401611f099061278e565b60405180910390fd5b6000611f1c611fdb565b905080600d0160009054906101000a900460ff1615611f70576040517f08c379a0000000000000000000000000000000000000000000000000000000008152600401611f679061280e565b60405180910390fd5b6000611f7a611fdb565b90508681600601819055508581600701819055508481600c0181905550600193505050509392505050565b6000611faf61187f565b611fb7610a69565b1115611fd357611fc56104f4565b611fcd610a69565b03611fd6565b60005b905090565b6000807f6c2f2617da7540533aede37184df9fe8d14d2f091e9a392f2685af4b9851d17290508091505090565b600080828401905083811015612086576040517f08c379a000000000000000000000000000000000000000000000000000000000815260040180806020018281038252601b8152602001807f536166654d6174683a206164646974696f6e206f766572666c6f77000000000081525060200191505060405180910390fd5b8091505092915050565b60006120d283836040518060400160405280601f81526020017f536166654d6174683a207375627472616374696f6e20756e646572666c6f77008152506120da565b905092915050565b6000838311158290612187576040517f08c379a00000000000000000000000000000000000000000000000000000000081526004018080602001828103825283818151815260200191508051906020019080838360005b8381101561214c578082015181840152602081019050612131565b50505050905090810190601f1680156121795780820380516001836020036101000a031916815260200191505b509250505060405180910390fd5b5060008385039050809150509392505050565b6000813590506121a98161291c565b92915050565b6000815190506121be81612933565b92915050565b6000813590506121d38161294a565b92915050565b6000813590506121e881612961565b92915050565b6000813590506121fd81612978565b92915050565b60008151905061221281612978565b92915050565b60006020828403121561222a57600080fd5b60006122388482850161219a565b91505092915050565b60006020828403121561225357600080fd5b6000612261848285016121af565b91505092915050565b60006020828403121561227c57600080fd5b600061228a848285016121c4565b91505092915050565b600080600080600080600080610100898b0312156122b057600080fd5b60006122be8b828c016121d9565b98505060206122cf8b828c016121d9565b97505060406122e08b828c016121ee565b96505060606122f18b828c016121ee565b95505060806123028b828c016121ee565b94505060a06123138b828c016121ee565b93505060c06123248b828c016121c4565b92505060e06123358b828c016121ee565b9150509295985092959890939650565b60006020828403121561235757600080fd5b6000612365848285016121ee565b91505092915050565b60006020828403121561238057600080fd5b600061238e84828501612203565b91505092915050565b600080604083850312156123aa57600080fd5b60006123b8858286016121ee565b92505060206123c9858286016121ee565b9150509250929050565b6000806000606084860312156123e857600080fd5b60006123f6868287016121ee565b9350506020612407868287016121ee565b9250506040612418868287016121ee565b9150509250925092565b61242b816128e6565b82525050565b61243a8161287a565b82525050565b6124498161288c565b82525050565b600061245c601283612869565b91507f4e6f7468696e6720746f206465706f73697400000000000000000000000000006000830152602082019050919050565b600061249c601583612869565b91507f4f6e6c792061646d696e2063616e2063616c6c212100000000000000000000006000830152602082019050919050565b60006124dc601383612869565b91507f4e6f7468696e6720746f207769746864726177000000000000000000000000006000830152602082019050919050565b600061251c602983612869565b91507f446f6e74206861766520656e6f7567682066756e642c20506c6561736520747260008301527f79206c61746572212100000000000000000000000000000000000000000000006020830152604082019050919050565b6000612582602183612869565b91507f596f7520646f6e74206861766520656e6f75676820706f6f6c20746f6b656e2160008301527f21000000000000000000000000000000000000000000000000000000000000006020830152604082019050919050565b60006125e8601283612869565b91507f636f6e7472616374206973206c6f636b656400000000000000000000000000006000830152602082019050919050565b6000612628601383612869565b91507f416c726561647920696e697469616c697a6564000000000000000000000000006000830152602082019050919050565b612664816128dc565b82525050565b600060208201905061267f6000830184612422565b92915050565b600060808201905061269a6000830187612422565b6126a76020830186612431565b6126b46040830185612431565b6126c1606083018461265b565b95945050505050565b60006060820190506126df6000830186612422565b6126ec6020830185612431565b6126f9604083018461265b565b949350505050565b60006040820190506127166000830185612422565b612723602083018461265b565b9392505050565b600060408201905061273f6000830185612431565b61274c602083018461265b565b9392505050565b60006020820190506127686000830184612440565b92915050565b600060208201905081810360008301526127878161244f565b9050919050565b600060208201905081810360008301526127a78161248f565b9050919050565b600060208201905081810360008301526127c7816124cf565b9050919050565b600060208201905081810360008301526127e78161250f565b9050919050565b6000602082019050818103600083015261280781612575565b9050919050565b60006020820190508181036000830152612827816125db565b9050919050565b600060208201905081810360008301526128478161261b565b9050919050565b6000602082019050612863600083018461265b565b92915050565b600082825260208201905092915050565b6000612885826128bc565b9050919050565b60008115159050919050565b60006128a38261287a565b9050919050565b60006128b58261287a565b9050919050565b600073ffffffffffffffffffffffffffffffffffffffff82169050919050565b6000819050919050565b60006128f1826128f8565b9050919050565b60006129038261290a565b9050919050565b6000612915826128bc565b9050919050565b6129258161287a565b811461293057600080fd5b50565b61293c8161288c565b811461294757600080fd5b50565b61295381612898565b811461295e57600080fd5b50565b61296a816128aa565b811461297557600080fd5b50565b612981816128dc565b811461298c57600080fd5b5056fea2646970667358221220911b64c156b41497559199483f3ea9e1517efa51a49c799419ec54881a1c471164736f6c63430007060033",
  "immutableReferences": {},
  "source": "// SPDX-License-Identifier: UNLICENSED\r\npragma solidity ^0.7.6;\r\npragma experimental ABIEncoderV2;\r\nimport \"../storage/PoolStorage.sol\";\r\ncontract AdvancedPool is PoolStorageV1 {\r\n    \r\n/****VARIABLES*****/\r\n    using SafeMath for uint256;\r\n   \r\n\r\n/****MODIFIERS*****/\r\n    \r\n    modifier onlyOnwer(){\r\n        PoolStorage storage ps = poolStorage();\r\n        require(ps.owner == msg.sender, \"Only admin can call!!\");\r\n        _;\r\n    }\r\n    modifier notLocked {\r\n        PoolStorage storage ps = poolStorage();\r\n        require(!ps.locked, \"contract is locked\");\r\n        _;\r\n    }\r\n  \r\n/****EVENTS****/ \r\n    event userDeposits(address user,uint amount);\r\n    event userWithdrawal(address user,uint amount);\r\n    event poolDeposit(address user, address pool, address coin, uint amount);\r\n    event poolWithdrawal(address user, address pool, address coin, uint amount);\r\n    \r\n/****CONSTRUCTOR****/\r\n    function initialize(\r\n        IERC20 _coin,\r\n        IERC20 _poolToken, \r\n        uint256 _minLiquidity, \r\n        uint256 _maxLiquidity, \r\n        uint256 _withdrawFees, \r\n        uint256 _depositFees,\r\n        DepositStrategy _depositStrategy,\r\n        uint256 _maxWithdrawalAllowed\r\n    ) public {\r\n        PoolStorage storage ps = poolStorage();\r\n        require(!ps.initialized, 'Already initialized');\r\n        ps.owner = msg.sender;\r\n        ps.DENOMINATOR = 10000;\r\n        ps.coin = _coin;\r\n        ps.poolToken = _poolToken;\r\n        ps.minLiquidity = _minLiquidity;\r\n        ps.maxLiquidity = _maxLiquidity;\r\n        ps.withdrawFees = _withdrawFees;\r\n        ps.depositFees = _depositFees;\r\n        ps.depositStrategy = _depositStrategy;\r\n        ps.maxWithdrawalAllowed = _maxWithdrawalAllowed;\r\n        ps.initialized = true;\r\n    }\r\n    \r\n/*****USERS FUNCTIONS****/\r\n    // amount will be in coins precision\r\n    function stake(uint256 amount) external notLocked() returns(uint256){\r\n        PoolStorage storage ps = poolStorage();\r\n        uint256 feeAmount = amount * ps.depositFees / ps.DENOMINATOR;\r\n        ps.feesCollected = ps.feesCollected + feeAmount;\r\n        ps.poolBalance = ps.poolBalance.add(amount);\r\n        uint256 mintAmount = calculatePoolTokens(amount - feeAmount);\r\n        ps.coin.transferFrom(msg.sender, address(this), amount);\r\n        ps.poolToken.mint(msg.sender, mintAmount);\r\n        emit userDeposits(msg.sender,amount);\r\n        return mintAmount;\r\n    }\r\n    \r\n    //amount is the amount of LP token user want to burn\r\n    function unStake(uint256 amount) external notLocked() returns(uint256){\r\n        PoolStorage storage ps = poolStorage();\r\n        require(amount <= ps.poolToken.balanceOf(msg.sender), \"You dont have enough pool token!!\");\r\n        require(amount <= maxBurnAllowed(), \"Dont have enough fund, Please try later!!\");\r\n        require(ps.poolBalance - ps.strategyDeposit - amount >= minLiquidityToMaintainInPool() , \"Dont have enough fund, Please try later!!\");\r\n        uint256 tokenAmount = calculateStableCoins(amount);\r\n        uint256 feeAmount = tokenAmount * ps.withdrawFees/ ps.DENOMINATOR;\r\n        ps.feesCollected = ps.feesCollected + feeAmount;\r\n        ps.poolBalance = ps.poolBalance.sub(tokenAmount - feeAmount);\r\n        ps.coin.transfer(msg.sender, tokenAmount - feeAmount);\r\n        ps.poolToken.burn(msg.sender, amount);  \r\n        emit userWithdrawal(msg.sender,amount);\r\n        return tokenAmount - feeAmount;\r\n    }\r\n    \r\n/****ADMIN FUNCTIONS*****/\r\n    \r\n    function updateLiquidityParam(uint256 _minLiquidity, uint256 _maxLiquidity, uint256 _maxWithdrawalAllowed) external onlyOnwer() notLocked() returns(bool){\r\n        PoolStorage storage ps = poolStorage();\r\n        ps.minLiquidity = _minLiquidity;\r\n        ps.maxLiquidity = _maxLiquidity;\r\n        ps.maxWithdrawalAllowed = _maxWithdrawalAllowed;\r\n        return true;\r\n    }\r\n    \r\n    function updateFees(uint256 _depositFees, uint256 _withdrawFees) external onlyOnwer() notLocked() returns(bool){\r\n        PoolStorage storage ps = poolStorage();\r\n        ps.withdrawFees = _withdrawFees;\r\n        ps.depositFees = _depositFees;\r\n        return true;\r\n    }\r\n    \r\n    function changeLockStatus() external onlyOnwer() returns(bool){\r\n        PoolStorage storage ps = poolStorage();\r\n        ps.locked = !ps.locked;\r\n        return ps.locked;\r\n    }\r\n    \r\n    function updateOwner(address newOwner) external onlyOnwer() returns(bool){\r\n        PoolStorage storage ps = poolStorage();\r\n        ps.owner = newOwner;\r\n        return true;\r\n    } \r\n\r\n    function updateStrategy(DepositStrategy _depositStrategy) external onlyOnwer() returns(bool){\r\n        PoolStorage storage ps = poolStorage();\r\n        ps.depositStrategy = _depositStrategy;\r\n        return true;\r\n    } \r\n    \r\n/****POOL FUNCTIONS****/\r\n\r\n    function addToStrategy() external notLocked() returns(uint256){\r\n        PoolStorage storage ps = poolStorage();\r\n        uint256 amount = amountToDeposit();\r\n        require(amount > 0 , \"Nothing to deposit\");\r\n        ps.strategyDeposit = ps.strategyDeposit.add(amount);\r\n        ps.coin.approve(address(ps.depositStrategy), amount);\r\n        ps.depositStrategy.deposit(amount);\r\n        emit poolDeposit(msg.sender, address(ps.depositStrategy), address(ps.coin), amount);\r\n        return amount;\r\n    }\r\n    \r\n    function removeFromPool() external notLocked() returns(uint256){\r\n        PoolStorage storage ps = poolStorage();\r\n        uint256 amount = amountToWithdraw();\r\n        require(amount > 0 , \"Nothing to withdraw\");\r\n        ps.strategyDeposit = ps.strategyDeposit.sub(amount);\r\n        ps.depositStrategy.withdraw(amount);\r\n        emit poolWithdrawal(msg.sender, address(ps.depositStrategy), address(ps.coin),  amount);\r\n        return amount;\r\n    }\r\n    \r\n/****OTHER FUNCTIONS****/\r\n    \r\n    //TOKEN MUST BE SENT IN COINS PRECISION\r\n    function calculatePoolTokens(uint256 amountOfStableCoins) public view returns(uint256){\r\n        PoolStorage storage ps = poolStorage();\r\n        return amountOfStableCoins * stableCoinPrice() / ps.coin.decimals() ;\r\n    }\r\n    \r\n    //Returning in pool token PRECISION\r\n    function stableCoinPrice() public view returns(uint256){\r\n        PoolStorage storage ps = poolStorage();\r\n        return (ps.poolToken.totalSupply() == 0 || ps.poolBalance == 0) ? ps.coin.decimals() : ps.coin.decimals() * ps.poolToken.totalSupply()/ps.poolBalance;\r\n    }\r\n    \r\n       //RETURNING IN COIN PRECISION\r\n    function calculateStableCoins(uint256 amountOfPoolToken) public view returns(uint256){\r\n        PoolStorage storage ps = poolStorage();\r\n        amountOfPoolToken = amountOfPoolToken * poolTokenPrice() / ps.coin.decimals();\r\n        return amountOfPoolToken;\r\n    }\r\n    \r\n    function poolTokenPrice() public view returns(uint256){\r\n        PoolStorage storage ps = poolStorage();\r\n        return (ps.poolToken.totalSupply() == 0 || ps.poolBalance == 0) ? ps.poolToken.decimals() : ps.poolToken.decimals() * ps.poolBalance/ps.poolToken.totalSupply();\r\n    }\r\n    \r\n    // returning max number of pool token that can be burnt\r\n    // if min is also less than actual\r\n    function maxBurnAllowed() public view returns(uint256){\r\n        PoolStorage storage ps = poolStorage();\r\n        return calculatePoolTokens(ps.maxWithdrawalAllowed);\r\n    }\r\n\r\n    function currentLiquidity() public view returns(uint256){\r\n        PoolStorage storage ps = poolStorage();\r\n        return ps.poolBalance - ps.strategyDeposit;\r\n    }\r\n   \r\n    function idealAmount() public view returns(uint256){\r\n        PoolStorage storage ps = poolStorage();\r\n        return ps.poolBalance * (ps.minLiquidity + ps.maxLiquidity) / (2 * ps.DENOMINATOR);\r\n    }\r\n     \r\n    function maxLiquidityAllowedInPool() public view returns(uint256){\r\n        PoolStorage storage ps = poolStorage();\r\n        return ps.poolBalance * ps.maxLiquidity / ps.DENOMINATOR;\r\n    }\r\n\r\n    function amountToDeposit() public view returns(uint256){\r\n        return currentLiquidity() <= maxLiquidityAllowedInPool() ? 0 : currentLiquidity() - idealAmount();\r\n    }\r\n    \r\n      \r\n    function minLiquidityToMaintainInPool() public view returns(uint256){\r\n        PoolStorage storage ps = poolStorage();\r\n        return ps.poolBalance * ps.minLiquidity / ps.DENOMINATOR;\r\n    }\r\n   \r\n    function amountToWithdraw() public view returns(uint256){\r\n        PoolStorage storage ps = poolStorage();\r\n        return currentLiquidity() > minLiquidityToMaintainInPool() || ps.strategyDeposit == 0 || ps.strategyDeposit < idealAmount() - currentLiquidity() ? 0 : idealAmount() - currentLiquidity();\r\n    }\r\n\r\n    function lockStatus() public view returns(bool){\r\n        PoolStorage storage ps = poolStorage();\r\n        return ps.locked;\r\n    }\r\n\r\n    function totalDeposit() public view returns(uint256){\r\n        PoolStorage storage ps = poolStorage();\r\n        return ps.poolBalance;\r\n    }\r\n\r\n    function strategyDeposit() public view returns(uint256){\r\n        PoolStorage storage ps = poolStorage();\r\n        return ps.strategyDeposit;\r\n    }\r\n       \r\n    function feesCollected() public view returns(uint256){\r\n        PoolStorage storage ps = poolStorage();\r\n        return ps.feesCollected;\r\n    }\r\n    \r\n}",
  "sourcePath": "E:/New Desktop/Projects/AdvancedPool/AdvancedPool/contracts/facets/AdvancedPool.sol",
  "compiler": {
    "name": "solc",
    "version": "0.7.6+commit.7338295f.Emscripten.clang"
  },
  "schemaVersion": "3.3.2",
  "updatedAt": "2021-04-20T11:21:49.984Z",
  "networkType": "ethereum",
  "devdoc": {
    "kind": "dev",
    "methods": {},
    "version": 1
  },
  "userdoc": {
    "kind": "user",
    "methods": {},
    "version": 1
  }
}