{
  "contractName": "AdvancedPool",
  "abi": [
    {
      "anonymous": false,
      "inputs": [
        {
          "indexed": false,
          "internalType": "address",
          "name": "user",
          "type": "address"
        },
        {
          "indexed": false,
          "internalType": "address",
          "name": "pool",
          "type": "address"
        },
        {
          "indexed": false,
          "internalType": "uint256",
          "name": "amount",
          "type": "uint256"
        }
      ],
      "name": "poolDeposit",
      "type": "event"
    },
    {
      "anonymous": false,
      "inputs": [
        {
          "indexed": false,
          "internalType": "address",
          "name": "user",
          "type": "address"
        },
        {
          "indexed": false,
          "internalType": "address",
          "name": "pool",
          "type": "address"
        },
        {
          "indexed": false,
          "internalType": "uint256",
          "name": "amount",
          "type": "uint256"
        }
      ],
      "name": "poolWithdrawal",
      "type": "event"
    },
    {
      "anonymous": false,
      "inputs": [
        {
          "indexed": false,
          "internalType": "address",
          "name": "user",
          "type": "address"
        },
        {
          "indexed": false,
          "internalType": "uint256",
          "name": "amount",
          "type": "uint256"
        }
      ],
      "name": "userDeposits",
      "type": "event"
    },
    {
      "anonymous": false,
      "inputs": [
        {
          "indexed": false,
          "internalType": "address",
          "name": "user",
          "type": "address"
        },
        {
          "indexed": false,
          "internalType": "uint256",
          "name": "amount",
          "type": "uint256"
        }
      ],
      "name": "userWithdrawal",
      "type": "event"
    },
    {
      "stateMutability": "payable",
      "type": "receive",
      "payable": true
    },
    {
      "inputs": [
        {
          "internalType": "contract IERC20",
          "name": "_coin",
          "type": "address"
        },
        {
          "internalType": "contract IERC20",
          "name": "_poolToken",
          "type": "address"
        },
        {
          "internalType": "uint256",
          "name": "_minLiquidity",
          "type": "uint256"
        },
        {
          "internalType": "uint256",
          "name": "_maxLiquidity",
          "type": "uint256"
        },
        {
          "internalType": "uint256",
          "name": "_withdrawFees",
          "type": "uint256"
        },
        {
          "internalType": "uint256",
          "name": "_depositFees",
          "type": "uint256"
        },
        {
          "internalType": "uint256",
          "name": "_maxWithdrawalAllowed",
          "type": "uint256"
        },
        {
          "internalType": "address",
          "name": "_owner",
          "type": "address"
        },
        {
          "internalType": "contract DepositStrategy",
          "name": "_depositStrategy",
          "type": "address"
        },
        {
          "internalType": "contract UniswapV2Router02",
          "name": "_uniswapRouter",
          "type": "address"
        },
        {
          "internalType": "contract Controller",
          "name": "_controller",
          "type": "address"
        }
      ],
      "name": "initialize",
      "outputs": [],
      "stateMutability": "nonpayable",
      "type": "function"
    },
    {
      "inputs": [
        {
          "internalType": "uint256",
          "name": "amount",
          "type": "uint256"
        }
      ],
      "name": "stake",
      "outputs": [
        {
          "internalType": "uint256",
          "name": "",
          "type": "uint256"
        }
      ],
      "stateMutability": "nonpayable",
      "type": "function"
    },
    {
      "inputs": [
        {
          "internalType": "uint256",
          "name": "amount",
          "type": "uint256"
        }
      ],
      "name": "unstake",
      "outputs": [
        {
          "internalType": "uint256",
          "name": "",
          "type": "uint256"
        }
      ],
      "stateMutability": "nonpayable",
      "type": "function"
    },
    {
      "inputs": [],
      "name": "addToStrategy",
      "outputs": [
        {
          "internalType": "uint256",
          "name": "",
          "type": "uint256"
        }
      ],
      "stateMutability": "nonpayable",
      "type": "function"
    },
    {
      "inputs": [],
      "name": "removeFromStrategy",
      "outputs": [
        {
          "internalType": "uint256",
          "name": "",
          "type": "uint256"
        }
      ],
      "stateMutability": "nonpayable",
      "type": "function"
    },
    {
      "inputs": [
        {
          "internalType": "uint256",
          "name": "_minLiquidity",
          "type": "uint256"
        },
        {
          "internalType": "uint256",
          "name": "_maxLiquidity",
          "type": "uint256"
        },
        {
          "internalType": "uint256",
          "name": "_maxWithdrawalAllowed",
          "type": "uint256"
        }
      ],
      "name": "updateLiquidityParam",
      "outputs": [
        {
          "internalType": "bool",
          "name": "",
          "type": "bool"
        }
      ],
      "stateMutability": "nonpayable",
      "type": "function"
    },
    {
      "inputs": [
        {
          "internalType": "uint256",
          "name": "_depositFees",
          "type": "uint256"
        },
        {
          "internalType": "uint256",
          "name": "_withdrawFees",
          "type": "uint256"
        }
      ],
      "name": "updateFees",
      "outputs": [
        {
          "internalType": "bool",
          "name": "",
          "type": "bool"
        }
      ],
      "stateMutability": "nonpayable",
      "type": "function"
    },
    {
      "inputs": [],
      "name": "changeLockStatus",
      "outputs": [
        {
          "internalType": "bool",
          "name": "",
          "type": "bool"
        }
      ],
      "stateMutability": "nonpayable",
      "type": "function"
    },
    {
      "inputs": [
        {
          "internalType": "address",
          "name": "newOwner",
          "type": "address"
        }
      ],
      "name": "updateOwner",
      "outputs": [
        {
          "internalType": "bool",
          "name": "",
          "type": "bool"
        }
      ],
      "stateMutability": "nonpayable",
      "type": "function"
    },
    {
      "inputs": [],
      "name": "getYield",
      "outputs": [],
      "stateMutability": "nonpayable",
      "type": "function"
    },
    {
      "inputs": [],
      "name": "convertFeesToETH",
      "outputs": [],
      "stateMutability": "nonpayable",
      "type": "function"
    },
    {
      "inputs": [
        {
          "internalType": "uint256",
          "name": "amountOfStableCoins",
          "type": "uint256"
        }
      ],
      "name": "calculatePoolTokens",
      "outputs": [
        {
          "internalType": "uint256",
          "name": "",
          "type": "uint256"
        }
      ],
      "stateMutability": "view",
      "type": "function",
      "constant": true
    },
    {
      "inputs": [],
      "name": "stableCoinPrice",
      "outputs": [
        {
          "internalType": "uint256",
          "name": "",
          "type": "uint256"
        }
      ],
      "stateMutability": "view",
      "type": "function",
      "constant": true
    },
    {
      "inputs": [
        {
          "internalType": "uint256",
          "name": "amountOfPoolToken",
          "type": "uint256"
        }
      ],
      "name": "calculateStableCoins",
      "outputs": [
        {
          "internalType": "uint256",
          "name": "",
          "type": "uint256"
        }
      ],
      "stateMutability": "view",
      "type": "function",
      "constant": true
    },
    {
      "inputs": [],
      "name": "poolTokenPrice",
      "outputs": [
        {
          "internalType": "uint256",
          "name": "",
          "type": "uint256"
        }
      ],
      "stateMutability": "view",
      "type": "function",
      "constant": true
    },
    {
      "inputs": [],
      "name": "maxWithdrawal",
      "outputs": [
        {
          "internalType": "uint256",
          "name": "",
          "type": "uint256"
        }
      ],
      "stateMutability": "view",
      "type": "function",
      "constant": true
    },
    {
      "inputs": [],
      "name": "currentLiquidity",
      "outputs": [
        {
          "internalType": "uint256",
          "name": "",
          "type": "uint256"
        }
      ],
      "stateMutability": "view",
      "type": "function",
      "constant": true
    },
    {
      "inputs": [],
      "name": "idealAmount",
      "outputs": [
        {
          "internalType": "uint256",
          "name": "",
          "type": "uint256"
        }
      ],
      "stateMutability": "view",
      "type": "function",
      "constant": true
    },
    {
      "inputs": [],
      "name": "maxLiquidityAllowedInPool",
      "outputs": [
        {
          "internalType": "uint256",
          "name": "",
          "type": "uint256"
        }
      ],
      "stateMutability": "view",
      "type": "function",
      "constant": true
    },
    {
      "inputs": [],
      "name": "amountToDeposit",
      "outputs": [
        {
          "internalType": "uint256",
          "name": "",
          "type": "uint256"
        }
      ],
      "stateMutability": "view",
      "type": "function",
      "constant": true
    },
    {
      "inputs": [],
      "name": "minLiquidityToMaintainInPool",
      "outputs": [
        {
          "internalType": "uint256",
          "name": "",
          "type": "uint256"
        }
      ],
      "stateMutability": "view",
      "type": "function",
      "constant": true
    },
    {
      "inputs": [],
      "name": "amountToWithdraw",
      "outputs": [
        {
          "internalType": "uint256",
          "name": "",
          "type": "uint256"
        }
      ],
      "stateMutability": "view",
      "type": "function",
      "constant": true
    },
    {
      "inputs": [],
      "name": "lockStatus",
      "outputs": [
        {
          "internalType": "bool",
          "name": "",
          "type": "bool"
        }
      ],
      "stateMutability": "view",
      "type": "function",
      "constant": true
    },
    {
      "inputs": [],
      "name": "totalDeposit",
      "outputs": [
        {
          "internalType": "uint256",
          "name": "",
          "type": "uint256"
        }
      ],
      "stateMutability": "view",
      "type": "function",
      "constant": true
    },
    {
      "inputs": [],
      "name": "strategyDeposit",
      "outputs": [
        {
          "internalType": "uint256",
          "name": "",
          "type": "uint256"
        }
      ],
      "stateMutability": "view",
      "type": "function",
      "constant": true
    },
    {
      "inputs": [],
      "name": "feesCollected",
      "outputs": [
        {
          "internalType": "uint256",
          "name": "",
          "type": "uint256"
        }
      ],
      "stateMutability": "view",
      "type": "function",
      "constant": true
    },
    {
      "inputs": [],
      "name": "currentFees",
      "outputs": [
        {
          "internalType": "uint256",
          "name": "",
          "type": "uint256"
        },
        {
          "internalType": "uint256",
          "name": "",
          "type": "uint256"
        }
      ],
      "stateMutability": "view",
      "type": "function",
      "constant": true
    },
    {
      "inputs": [],
      "name": "currentLiquidityParams",
      "outputs": [
        {
          "internalType": "uint256",
          "name": "",
          "type": "uint256"
        },
        {
          "internalType": "uint256",
          "name": "",
          "type": "uint256"
        },
        {
          "internalType": "uint256",
          "name": "",
          "type": "uint256"
        }
      ],
      "stateMutability": "view",
      "type": "function",
      "constant": true
    }
  ],
  "bytecode": "0x608060405234801561001057600080fd5b506144ad806100206000396000f3fe6080604052600436106101bb5760003560e01c80638a98cdd4116100ec578063d15359cc1161008a578063f071db5a11610064578063f071db5a14610614578063f6153ccd1461063f578063fb60946d1461066a578063fe135c0e146106a7576101c2565b8063d15359cc14610591578063d395fbc5146105be578063e4255342146105e9576101c2565b8063b4ad5e08116100c6578063b4ad5e08146104e7578063bba78e8014610512578063c3c9f52b1461053d578063caa1d9c11461057a576101c2565b80638a98cdd4146104425780638c0ff5b71461047f578063a694fc3a146104aa576101c2565b80635b404bad116101595780637260cc76116101335780637260cc761461039a57806376678d3b146103c55780637c262871146103ee578063880cdc3114610405576101c2565b80635b404bad146103065780635d9644c4146103315780636db794371461035d576101c2565b80632e17de78116101955780632e17de781461024857806331dd132e146102855780633e89340f146102b057806346caf2ae146102db576101c2565b8063077622a2146101c7578063269fa128146101f257806329093c691461021d576101c2565b366101c257005b600080fd5b3480156101d357600080fd5b506101dc6106d2565b6040516101e99190614171565b60405180910390f35b3480156101fe57600080fd5b50610207610716565b6040516102149190614171565b60405180910390f35b34801561022957600080fd5b50610232610784565b60405161023f9190614171565b60405180910390f35b34801561025457600080fd5b5061026f600480360381019061026a9190613a85565b610c4f565b60405161027c9190614171565b60405180910390f35b34801561029157600080fd5b5061029a6110c1565b6040516102a79190614171565b60405180910390f35b3480156102bc57600080fd5b506102c56110d9565b6040516102d29190614016565b60405180910390f35b3480156102e757600080fd5b506102f06110fe565b6040516102fd9190614171565b60405180910390f35b34801561031257600080fd5b5061031b61111c565b6040516103289190614171565b60405180910390f35b34801561033d57600080fd5b506103466113e7565b60405161035492919061418c565b60405180910390f35b34801561036957600080fd5b50610384600480360381019061037f9190613ad7565b611409565b6040516103919190614016565b60405180910390f35b3480156103a657600080fd5b506103af611658565b6040516103bc9190614171565b60405180910390f35b3480156103d157600080fd5b506103ec60048036038101906103e79190613995565b611683565b005b3480156103fa57600080fd5b50610403611884565b005b34801561041157600080fd5b5061042c600480360381019061042791906138d9565b611b80565b6040516104399190614016565b60405180910390f35b34801561044e57600080fd5b5061046960048036038101906104649190613a85565b611dff565b6040516104769190614171565b60405180910390f35b34801561048b57600080fd5b50610494611ece565b6040516104a19190614171565b60405180910390f35b3480156104b657600080fd5b506104d160048036038101906104cc9190613a85565b611f1a565b6040516104de9190614171565b60405180910390f35b3480156104f357600080fd5b506104fc6121a9565b6040516105099190614171565b60405180910390f35b34801561051e57600080fd5b506105276121d4565b6040516105349190614171565b60405180910390f35b34801561054957600080fd5b50610564600480360381019061055f9190613a85565b6125c9565b6040516105719190614171565b60405180910390f35b34801561058657600080fd5b5061058f612695565b005b34801561059d57600080fd5b506105a6612c3e565b6040516105b59392919061420f565b60405180910390f35b3480156105ca57600080fd5b506105d3612c69565b6040516105e09190614016565b60405180910390f35b3480156105f557600080fd5b506105fe612ee1565b60405161060b9190614171565b60405180910390f35b34801561062057600080fd5b506106296131ac565b6040516106369190614171565b60405180910390f35b34801561064b57600080fd5b506106546131c4565b6040516106619190614171565b60405180910390f35b34801561067657600080fd5b50610691600480360381019061068c9190613b13565b6131dc565b60405161069e9190614016565b60405180910390f35b3480156106b357600080fd5b506106bc61350b565b6040516106c99190614171565b60405180910390f35b6000806106dd613541565b905080600401546002026107028260080154836007015461356e90919063ffffffff16565b82600a0154028161070f57fe5b0491505090565b600080610721613541565b905061072b611658565b6107336110fe565b11806107435750600081600c0154145b8061076157506107516110fe565b6107596106d2565b0381600c0154105b61077b5761076d6110fe565b6107756106d2565b0361077e565b60005b91505090565b60008061078f613541565b905080600e0160009054906101000a900460ff16156107e3576040517f08c379a00000000000000000000000000000000000000000000000000000000081526004016107da90614131565b60405180910390fd5b60006107ed613541565b90503373ffffffffffffffffffffffffffffffffffffffff1681600e0160019054906101000a900473ffffffffffffffffffffffffffffffffffffffff1673ffffffffffffffffffffffffffffffffffffffff1614610881576040517f08c379a000000000000000000000000000000000000000000000000000000000815260040161087890614051565b60405180910390fd5b600061088b613541565b905060006109573a6109498460110160009054906101000a900473ffffffffffffffffffffffffffffffffffffffff1673ffffffffffffffffffffffffffffffffffffffff166384e9a9016040518163ffffffff1660e01b8152600401602060405180830381600087803b15801561090257600080fd5b505af1158015610916573d6000803e3d6000fd5b505050506040513d601f19601f8201168201806040525081019061093a9190613aae565b5a61356e90919063ffffffff16565b6135f690919063ffffffff16565b9050600061096361350b565b9050600081116109a8576040517f08c379a000000000000000000000000000000000000000000000000000000000815260040161099f90614031565b60405180910390fd5b6109bf8184600c015461356e90919063ffffffff16565b83600c01819055508260000160019054906101000a900473ffffffffffffffffffffffffffffffffffffffff1673ffffffffffffffffffffffffffffffffffffffff1663095ea7b38460020160009054906101000a900473ffffffffffffffffffffffffffffffffffffffff16836040518363ffffffff1660e01b8152600401610a4a929190613fed565b602060405180830381600087803b158015610a6457600080fd5b505af1158015610a78573d6000803e3d6000fd5b505050506040513d601f19601f82011682018060405250810190610a9c919061396c565b508260020160009054906101000a900473ffffffffffffffffffffffffffffffffffffffff1673ffffffffffffffffffffffffffffffffffffffff1663b6b55f25826040518263ffffffff1660e01b8152600401610afa9190614171565b600060405180830381600087803b158015610b1457600080fd5b505af1158015610b28573d6000803e3d6000fd5b505050507f5123d8a168830852333177a82ac00938d8567897d76f68e27c135f5ca9776733338460020160009054906101000a900473ffffffffffffffffffffffffffffffffffffffff1683604051610b8393929190613f8d565b60405180910390a16000610bb2610ba33a5a6135f690919063ffffffff16565b8461367c90919063ffffffff16565b90508360110160009054906101000a900473ffffffffffffffffffffffffffffffffffffffff1673ffffffffffffffffffffffffffffffffffffffff166357cfd501826040518263ffffffff1660e01b8152600401610c119190614171565b600060405180830381600087803b158015610c2b57600080fd5b505af1158015610c3f573d6000803e3d6000fd5b5050505081965050505050505090565b600080610c5a613541565b905080600e0160009054906101000a900460ff1615610cae576040517f08c379a0000000000000000000000000000000000000000000000000000000008152600401610ca590614131565b60405180910390fd5b6000610cb8613541565b9050610cc2611ece565b841115610d04576040517f08c379a0000000000000000000000000000000000000000000000000000000008152600401610cfb906140d1565b60405180910390fd5b8060000160019054906101000a900473ffffffffffffffffffffffffffffffffffffffff1673ffffffffffffffffffffffffffffffffffffffff166370a08231306040518263ffffffff1660e01b8152600401610d619190613f3b565b60206040518083038186803b158015610d7957600080fd5b505afa158015610d8d573d6000803e3d6000fd5b505050506040513d601f19601f82011682018060405250810190610db19190613aae565b841115610df3576040517f08c379a0000000000000000000000000000000000000000000000000000000008152600401610dea906140f1565b60405180910390fd5b6000610dfe856125c9565b90508160010160009054906101000a900473ffffffffffffffffffffffffffffffffffffffff1673ffffffffffffffffffffffffffffffffffffffff166370a08231336040518263ffffffff1660e01b8152600401610e5d9190613f3b565b60206040518083038186803b158015610e7557600080fd5b505afa158015610e89573d6000803e3d6000fd5b505050506040513d601f19601f82011682018060405250810190610ead9190613aae565b811115610eef576040517f08c379a0000000000000000000000000000000000000000000000000000000008152600401610ee690614111565b60405180910390fd5b600082600401548360060154870281610f0457fe5b0490508083600b01540183600b0181905550610f2d8684600a015461367c90919063ffffffff16565b83600a01819055508260000160019054906101000a900473ffffffffffffffffffffffffffffffffffffffff1673ffffffffffffffffffffffffffffffffffffffff1663a9059cbb338389036040518363ffffffff1660e01b8152600401610f96929190613fc4565b602060405180830381600087803b158015610fb057600080fd5b505af1158015610fc4573d6000803e3d6000fd5b505050506040513d601f19601f82011682018060405250810190610fe8919061396c565b508260010160009054906101000a900473ffffffffffffffffffffffffffffffffffffffff1673ffffffffffffffffffffffffffffffffffffffff16639dc29fac33846040518363ffffffff1660e01b8152600401611048929190613fc4565b600060405180830381600087803b15801561106257600080fd5b505af1158015611076573d6000803e3d6000fd5b505050507f42b2a4ad2d4bdf57e819ccd3c6ce6d0a8d6d20b5d3dbf94ef2b05c42f523c61033876040516110ab929190613fc4565b60405180910390a1808603945050505050919050565b6000806110cc613541565b905080600c015491505090565b6000806110e4613541565b905080600e0160009054906101000a900460ff1691505090565b600080611109613541565b905080600c015481600a01540391505090565b600080611127613541565b905060008160010160009054906101000a900473ffffffffffffffffffffffffffffffffffffffff1673ffffffffffffffffffffffffffffffffffffffff166318160ddd6040518163ffffffff1660e01b815260040160206040518083038186803b15801561119557600080fd5b505afa1580156111a9573d6000803e3d6000fd5b505050506040513d601f19601f820116820180604052508101906111cd9190613aae565b14806111dd5750600081600a0154145b61133b5780600a01548160010160009054906101000a900473ffffffffffffffffffffffffffffffffffffffff1673ffffffffffffffffffffffffffffffffffffffff166318160ddd6040518163ffffffff1660e01b815260040160206040518083038186803b15801561125057600080fd5b505afa158015611264573d6000803e3d6000fd5b505050506040513d601f19601f820116820180604052508101906112889190613aae565b8260000160019054906101000a900473ffffffffffffffffffffffffffffffffffffffff1673ffffffffffffffffffffffffffffffffffffffff1663313ce5676040518163ffffffff1660e01b815260040160206040518083038186803b1580156112f257600080fd5b505afa158015611306573d6000803e3d6000fd5b505050506040513d601f19601f8201168201806040525081019061132a9190613aae565b600a0a028161133557fe5b046113e1565b8060000160019054906101000a900473ffffffffffffffffffffffffffffffffffffffff1673ffffffffffffffffffffffffffffffffffffffff1663313ce5676040518163ffffffff1660e01b815260040160206040518083038186803b1580156113a557600080fd5b505afa1580156113b9573d6000803e3d6000fd5b505050506040513d601f19601f820116820180604052508101906113dd9190613aae565b600a0a5b91505090565b60008060006113f4613541565b90508060050154816006015492509250509091565b600080611414613541565b90503373ffffffffffffffffffffffffffffffffffffffff1681600e0160019054906101000a900473ffffffffffffffffffffffffffffffffffffffff1673ffffffffffffffffffffffffffffffffffffffff16146114a8576040517f08c379a000000000000000000000000000000000000000000000000000000000815260040161149f90614051565b60405180910390fd5b60006114b2613541565b9050600061157e3a6115708460110160009054906101000a900473ffffffffffffffffffffffffffffffffffffffff1673ffffffffffffffffffffffffffffffffffffffff166384e9a9016040518163ffffffff1660e01b8152600401602060405180830381600087803b15801561152957600080fd5b505af115801561153d573d6000803e3d6000fd5b505050506040513d601f19601f820116820180604052508101906115619190613aae565b5a61356e90919063ffffffff16565b6135f690919063ffffffff16565b905084826006018190555085826005018190555060006115b96115aa3a5a6135f690919063ffffffff16565b8361367c90919063ffffffff16565b90508260110160009054906101000a900473ffffffffffffffffffffffffffffffffffffffff1673ffffffffffffffffffffffffffffffffffffffff166357cfd501826040518263ffffffff1660e01b81526004016116189190614171565b600060405180830381600087803b15801561163257600080fd5b505af1158015611646573d6000803e3d6000fd5b50505050600194505050505092915050565b600080611663613541565b90508060040154816007015482600a0154028161167c57fe5b0491505090565b600061168d613541565b90508481600e0160016101000a81548173ffffffffffffffffffffffffffffffffffffffff021916908373ffffffffffffffffffffffffffffffffffffffff16021790555061271081600401819055508b8160000160016101000a81548173ffffffffffffffffffffffffffffffffffffffff021916908373ffffffffffffffffffffffffffffffffffffffff1602179055508a8160010160006101000a81548173ffffffffffffffffffffffffffffffffffffffff021916908373ffffffffffffffffffffffffffffffffffffffff160217905550898160070181905550888160080181905550878160060181905550868160050181905550838160020160006101000a81548173ffffffffffffffffffffffffffffffffffffffff021916908373ffffffffffffffffffffffffffffffffffffffff1602179055508581600d0181905550828160030160006101000a81548173ffffffffffffffffffffffffffffffffffffffff021916908373ffffffffffffffffffffffffffffffffffffffff160217905550818160110160006101000a81548173ffffffffffffffffffffffffffffffffffffffff021916908373ffffffffffffffffffffffffffffffffffffffff16021790555060018160000160006101000a81548160ff021916908315150217905550505050505050505050505050565b600061188e613541565b90503373ffffffffffffffffffffffffffffffffffffffff1681600e0160019054906101000a900473ffffffffffffffffffffffffffffffffffffffff1673ffffffffffffffffffffffffffffffffffffffff1614611922576040517f08c379a000000000000000000000000000000000000000000000000000000000815260040161191990614051565b60405180910390fd5b600061192c613541565b905060006119f83a6119ea8460110160009054906101000a900473ffffffffffffffffffffffffffffffffffffffff1673ffffffffffffffffffffffffffffffffffffffff166384e9a9016040518163ffffffff1660e01b8152600401602060405180830381600087803b1580156119a357600080fd5b505af11580156119b7573d6000803e3d6000fd5b505050506040513d601f19601f820116820180604052508101906119db9190613aae565b5a61356e90919063ffffffff16565b6135f690919063ffffffff16565b905060008260020160009054906101000a900473ffffffffffffffffffffffffffffffffffffffff1673ffffffffffffffffffffffffffffffffffffffff16632fbd70826040518163ffffffff1660e01b8152600401602060405180830381600087803b158015611a6857600080fd5b505af1158015611a7c573d6000803e3d6000fd5b505050506040513d601f19601f82011682018060405250810190611aa09190613aae565b9050611ab98184600a015461356e90919063ffffffff16565b83600a01819055506000611ae8611ad93a5a6135f690919063ffffffff16565b8461367c90919063ffffffff16565b90508360110160009054906101000a900473ffffffffffffffffffffffffffffffffffffffff1673ffffffffffffffffffffffffffffffffffffffff166357cfd501826040518263ffffffff1660e01b8152600401611b479190614171565b600060405180830381600087803b158015611b6157600080fd5b505af1158015611b75573d6000803e3d6000fd5b505050505050505050565b600080611b8b613541565b90503373ffffffffffffffffffffffffffffffffffffffff1681600e0160019054906101000a900473ffffffffffffffffffffffffffffffffffffffff1673ffffffffffffffffffffffffffffffffffffffff1614611c1f576040517f08c379a0000000000000000000000000000000000000000000000000000000008152600401611c1690614051565b60405180910390fd5b6000611c29613541565b90506000611cf53a611ce78460110160009054906101000a900473ffffffffffffffffffffffffffffffffffffffff1673ffffffffffffffffffffffffffffffffffffffff166384e9a9016040518163ffffffff1660e01b8152600401602060405180830381600087803b158015611ca057600080fd5b505af1158015611cb4573d6000803e3d6000fd5b505050506040513d601f19601f82011682018060405250810190611cd89190613aae565b5a61356e90919063ffffffff16565b6135f690919063ffffffff16565b90508482600e0160016101000a81548173ffffffffffffffffffffffffffffffffffffffff021916908373ffffffffffffffffffffffffffffffffffffffff1602179055506000611d61611d523a5a6135f690919063ffffffff16565b8361367c90919063ffffffff16565b90508260110160009054906101000a900473ffffffffffffffffffffffffffffffffffffffff1673ffffffffffffffffffffffffffffffffffffffff166357cfd501826040518263ffffffff1660e01b8152600401611dc09190614171565b600060405180830381600087803b158015611dda57600080fd5b505af1158015611dee573d6000803e3d6000fd5b505050506001945050505050919050565b600080611e0a613541565b90508060010160009054906101000a900473ffffffffffffffffffffffffffffffffffffffff1673ffffffffffffffffffffffffffffffffffffffff1663313ce5676040518163ffffffff1660e01b815260040160206040518083038186803b158015611e7657600080fd5b505afa158015611e8a573d6000803e3d6000fd5b505050506040513d601f19601f82011682018060405250810190611eae9190613aae565b600a0a611eb9612ee1565b840281611ec257fe5b04925082915050919050565b600080611ed9613541565b905080600d01546002611eea611658565b81611ef157fe5b0410611f015780600d0154611f14565b6002611f0b611658565b81611f1257fe5b045b91505090565b600080611f25613541565b905080600e0160009054906101000a900460ff1615611f79576040517f08c379a0000000000000000000000000000000000000000000000000000000008152600401611f7090614131565b60405180910390fd5b60008311611fbc576040517f08c379a0000000000000000000000000000000000000000000000000000000008152600401611fb3906140b1565b60405180910390fd5b6000611fc6613541565b9050600081600401548260050154860281611fdd57fe5b0490508082600b01540182600b01819055506000611ffc8287036125c9565b905061201782870384600a015461356e90919063ffffffff16565b83600a01819055508260000160019054906101000a900473ffffffffffffffffffffffffffffffffffffffff1673ffffffffffffffffffffffffffffffffffffffff166323b872dd3330896040518463ffffffff1660e01b815260040161208093929190613f56565b602060405180830381600087803b15801561209a57600080fd5b505af11580156120ae573d6000803e3d6000fd5b505050506040513d601f19601f820116820180604052508101906120d2919061396c565b508260010160009054906101000a900473ffffffffffffffffffffffffffffffffffffffff1673ffffffffffffffffffffffffffffffffffffffff166340c10f1933836040518363ffffffff1660e01b8152600401612132929190613fc4565b600060405180830381600087803b15801561214c57600080fd5b505af1158015612160573d6000803e3d6000fd5b505050507f08f43333671aca8015183efb2197dac68519c827a11e6788eac8c80131169a643387604051612195929190613fc4565b60405180910390a180945050505050919050565b6000806121b4613541565b90508060040154816008015482600a015402816121cd57fe5b0491505090565b6000806121df613541565b905080600e0160009054906101000a900460ff1615612233576040517f08c379a000000000000000000000000000000000000000000000000000000000815260040161222a90614131565b60405180910390fd5b600061223d613541565b90503373ffffffffffffffffffffffffffffffffffffffff1681600e0160019054906101000a900473ffffffffffffffffffffffffffffffffffffffff1673ffffffffffffffffffffffffffffffffffffffff16146122d1576040517f08c379a00000000000000000000000000000000000000000000000000000000081526004016122c890614051565b60405180910390fd5b60006122db613541565b905060006123a73a6123998460110160009054906101000a900473ffffffffffffffffffffffffffffffffffffffff1673ffffffffffffffffffffffffffffffffffffffff166384e9a9016040518163ffffffff1660e01b8152600401602060405180830381600087803b15801561235257600080fd5b505af1158015612366573d6000803e3d6000fd5b505050506040513d601f19601f8201168201806040525081019061238a9190613aae565b5a61356e90919063ffffffff16565b6135f690919063ffffffff16565b905060006123b3610716565b9050600081116123f8576040517f08c379a00000000000000000000000000000000000000000000000000000000081526004016123ef90614091565b60405180910390fd5b61240f8184600c015461367c90919063ffffffff16565b83600c01819055508260020160009054906101000a900473ffffffffffffffffffffffffffffffffffffffff1673ffffffffffffffffffffffffffffffffffffffff16632e1a7d4d826040518263ffffffff1660e01b81526004016124749190614171565b600060405180830381600087803b15801561248e57600080fd5b505af11580156124a2573d6000803e3d6000fd5b505050507fe2da54b49c071dfc046fee542e5201277eee89662a48be76fe432bce2ce1443b338460020160009054906101000a900473ffffffffffffffffffffffffffffffffffffffff16836040516124fd93929190613f8d565b60405180910390a1600061252c61251d3a5a6135f690919063ffffffff16565b8461367c90919063ffffffff16565b90508360110160009054906101000a900473ffffffffffffffffffffffffffffffffffffffff1673ffffffffffffffffffffffffffffffffffffffff166357cfd501826040518263ffffffff1660e01b815260040161258b9190614171565b600060405180830381600087803b1580156125a557600080fd5b505af11580156125b9573d6000803e3d6000fd5b5050505081965050505050505090565b6000806125d4613541565b90508060000160019054906101000a900473ffffffffffffffffffffffffffffffffffffffff1673ffffffffffffffffffffffffffffffffffffffff1663313ce5676040518163ffffffff1660e01b815260040160206040518083038186803b15801561264057600080fd5b505afa158015612654573d6000803e3d6000fd5b505050506040513d601f19601f820116820180604052508101906126789190613aae565b600a0a61268361111c565b84028161268c57fe5b04915050919050565b600061269f613541565b90503373ffffffffffffffffffffffffffffffffffffffff1681600e0160019054906101000a900473ffffffffffffffffffffffffffffffffffffffff1673ffffffffffffffffffffffffffffffffffffffff1614612733576040517f08c379a000000000000000000000000000000000000000000000000000000000815260040161272a90614051565b60405180910390fd5b600061273d613541565b905060006128093a6127fb8460110160009054906101000a900473ffffffffffffffffffffffffffffffffffffffff1673ffffffffffffffffffffffffffffffffffffffff166384e9a9016040518163ffffffff1660e01b8152600401602060405180830381600087803b1580156127b457600080fd5b505af11580156127c8573d6000803e3d6000fd5b505050506040513d601f19601f820116820180604052508101906127ec9190613aae565b5a61356e90919063ffffffff16565b6135f690919063ffffffff16565b90506000600267ffffffffffffffff8111801561282557600080fd5b506040519080825280602002602001820160405280156128545781602001602082028036833780820191505090505b509050600083600b01549050600084600b01819055508360000160019054906101000a900473ffffffffffffffffffffffffffffffffffffffff1673ffffffffffffffffffffffffffffffffffffffff1663095ea7b38560030160009054906101000a900473ffffffffffffffffffffffffffffffffffffffff16836040518363ffffffff1660e01b81526004016128ed929190613fed565b602060405180830381600087803b15801561290757600080fd5b505af115801561291b573d6000803e3d6000fd5b505050506040513d601f19601f8201168201806040525081019061293f919061396c565b508360000160019054906101000a900473ffffffffffffffffffffffffffffffffffffffff168260008151811061297257fe5b602002602001019073ffffffffffffffffffffffffffffffffffffffff16908173ffffffffffffffffffffffffffffffffffffffff16815250508360030160009054906101000a900473ffffffffffffffffffffffffffffffffffffffff1673ffffffffffffffffffffffffffffffffffffffff1663ad5c46486040518163ffffffff1660e01b815260040160206040518083038186803b158015612a1657600080fd5b505afa158015612a2a573d6000803e3d6000fd5b505050506040513d601f19601f82011682018060405250810190612a4e9190613902565b82600181518110612a5b57fe5b602002602001019073ffffffffffffffffffffffffffffffffffffffff16908173ffffffffffffffffffffffffffffffffffffffff168152505060008460030160009054906101000a900473ffffffffffffffffffffffffffffffffffffffff1673ffffffffffffffffffffffffffffffffffffffff166318cbafe58383868960110160009054906101000a900473ffffffffffffffffffffffffffffffffffffffff16620186a042016040518663ffffffff1660e01b8152600401612b259594939291906141b5565b600060405180830381600087803b158015612b3f57600080fd5b505af1158015612b53573d6000803e3d6000fd5b505050506040513d6000823e3d601f19601f82011682018060405250810190612b7c919061392b565b506000612ba4612b953a5a6135f690919063ffffffff16565b8661367c90919063ffffffff16565b90508560110160009054906101000a900473ffffffffffffffffffffffffffffffffffffffff1673ffffffffffffffffffffffffffffffffffffffff166357cfd501826040518263ffffffff1660e01b8152600401612c039190614171565b600060405180830381600087803b158015612c1d57600080fd5b505af1158015612c31573d6000803e3d6000fd5b5050505050505050505050565b600080600080612c4c613541565b90508060070154816008015482600d015493509350935050909192565b600080612c74613541565b90503373ffffffffffffffffffffffffffffffffffffffff1681600e0160019054906101000a900473ffffffffffffffffffffffffffffffffffffffff1673ffffffffffffffffffffffffffffffffffffffff1614612d08576040517f08c379a0000000000000000000000000000000000000000000000000000000008152600401612cff90614051565b60405180910390fd5b6000612d12613541565b90506000612dde3a612dd08460110160009054906101000a900473ffffffffffffffffffffffffffffffffffffffff1673ffffffffffffffffffffffffffffffffffffffff166384e9a9016040518163ffffffff1660e01b8152600401602060405180830381600087803b158015612d8957600080fd5b505af1158015612d9d573d6000803e3d6000fd5b505050506040513d601f19601f82011682018060405250810190612dc19190613aae565b5a61356e90919063ffffffff16565b6135f690919063ffffffff16565b905081600e0160009054906101000a900460ff161582600e0160006101000a81548160ff0219169083151502179055506000612e35612e263a5a6135f690919063ffffffff16565b8361367c90919063ffffffff16565b90508260110160009054906101000a900473ffffffffffffffffffffffffffffffffffffffff1673ffffffffffffffffffffffffffffffffffffffff166357cfd501826040518263ffffffff1660e01b8152600401612e949190614171565b600060405180830381600087803b158015612eae57600080fd5b505af1158015612ec2573d6000803e3d6000fd5b5050505082600e0160009054906101000a900460ff1694505050505090565b600080612eec613541565b905060008160010160009054906101000a900473ffffffffffffffffffffffffffffffffffffffff1673ffffffffffffffffffffffffffffffffffffffff166318160ddd6040518163ffffffff1660e01b815260040160206040518083038186803b158015612f5a57600080fd5b505afa158015612f6e573d6000803e3d6000fd5b505050506040513d601f19601f82011682018060405250810190612f929190613aae565b1480612fa25750600081600a0154145b613100578060010160009054906101000a900473ffffffffffffffffffffffffffffffffffffffff1673ffffffffffffffffffffffffffffffffffffffff166318160ddd6040518163ffffffff1660e01b815260040160206040518083038186803b15801561301057600080fd5b505afa158015613024573d6000803e3d6000fd5b505050506040513d601f19601f820116820180604052508101906130489190613aae565b81600a01548260010160009054906101000a900473ffffffffffffffffffffffffffffffffffffffff1673ffffffffffffffffffffffffffffffffffffffff1663313ce5676040518163ffffffff1660e01b815260040160206040518083038186803b1580156130b757600080fd5b505afa1580156130cb573d6000803e3d6000fd5b505050506040513d601f19601f820116820180604052508101906130ef9190613aae565b600a0a02816130fa57fe5b046131a6565b8060010160009054906101000a900473ffffffffffffffffffffffffffffffffffffffff1673ffffffffffffffffffffffffffffffffffffffff1663313ce5676040518163ffffffff1660e01b815260040160206040518083038186803b15801561316a57600080fd5b505afa15801561317e573d6000803e3d6000fd5b505050506040513d601f19601f820116820180604052508101906131a29190613aae565b600a0a5b91505090565b6000806131b7613541565b905080600b015491505090565b6000806131cf613541565b905080600a015491505090565b6000806131e7613541565b90503373ffffffffffffffffffffffffffffffffffffffff1681600e0160019054906101000a900473ffffffffffffffffffffffffffffffffffffffff1673ffffffffffffffffffffffffffffffffffffffff161461327b576040517f08c379a000000000000000000000000000000000000000000000000000000000815260040161327290614051565b60405180910390fd5b60008511801561328b5750600084115b80156132975750600083115b6132d6576040517f08c379a00000000000000000000000000000000000000000000000000000000081526004016132cd90614071565b60405180910390fd5b838510613318576040517f08c379a000000000000000000000000000000000000000000000000000000000815260040161330f90614151565b60405180910390fd5b6000613322613541565b905060006133ee3a6133e08460110160009054906101000a900473ffffffffffffffffffffffffffffffffffffffff1673ffffffffffffffffffffffffffffffffffffffff166384e9a9016040518163ffffffff1660e01b8152600401602060405180830381600087803b15801561339957600080fd5b505af11580156133ad573d6000803e3d6000fd5b505050506040513d601f19601f820116820180604052508101906133d19190613aae565b5a61356e90919063ffffffff16565b6135f690919063ffffffff16565b90508682600701819055508582600801819055508482600d018190555060006134326134233a5a6135f690919063ffffffff16565b8361367c90919063ffffffff16565b90508260110160009054906101000a900473ffffffffffffffffffffffffffffffffffffffff1673ffffffffffffffffffffffffffffffffffffffff166357cfd501826040518263ffffffff1660e01b81526004016134919190614171565b600060405180830381600087803b1580156134ab57600080fd5b505af11580156134bf573d6000803e3d6000fd5b5050505060006134cd61350b565b11156134e1576134db610784565b506134fc565b60006134eb610716565b11156134fb576134f96121d4565b505b5b60019450505050509392505050565b60006135156121a9565b61351d6110fe565b11156135395761352b6106d2565b6135336110fe565b0361353c565b60005b905090565b6000807f6c2f2617da7540533aede37184df9fe8d14d2f091e9a392f2685af4b9851d17290508091505090565b6000808284019050838110156135ec576040517f08c379a000000000000000000000000000000000000000000000000000000000815260040180806020018281038252601b8152602001807f536166654d6174683a206164646974696f6e206f766572666c6f77000000000081525060200191505060405180910390fd5b8091505092915050565b6000808314156136095760009050613676565b600082840290508284828161361a57fe5b0414613671576040517f08c379a00000000000000000000000000000000000000000000000000000000081526004018080602001828103825260218152602001806144576021913960400191505060405180910390fd5b809150505b92915050565b60006136be83836040518060400160405280601f81526020017f536166654d6174683a207375627472616374696f6e20756e646572666c6f77008152506136c6565b905092915050565b6000838311158290613773576040517f08c379a00000000000000000000000000000000000000000000000000000000081526004018080602001828103825283818151815260200191508051906020019080838360005b8381101561373857808201518184015260208101905061371d565b50505050905090810190601f1680156137655780820380516001836020036101000a031916815260200191505b509250505060405180910390fd5b5060008385039050809150509392505050565b600061379961379484614277565b614246565b905080838252602082019050828560208602820111156137b857600080fd5b60005b858110156137e857816137ce88826138c4565b8452602084019350602083019250506001810190506137bb565b5050509392505050565b600081359050613801816143b5565b92915050565b600081519050613816816143b5565b92915050565b600082601f83011261382d57600080fd5b815161383d848260208601613786565b91505092915050565b600081519050613855816143cc565b92915050565b60008135905061386a816143e3565b92915050565b60008135905061387f816143fa565b92915050565b60008135905061389481614411565b92915050565b6000813590506138a981614428565b92915050565b6000813590506138be8161443f565b92915050565b6000815190506138d38161443f565b92915050565b6000602082840312156138eb57600080fd5b60006138f9848285016137f2565b91505092915050565b60006020828403121561391457600080fd5b600061392284828501613807565b91505092915050565b60006020828403121561393d57600080fd5b600082015167ffffffffffffffff81111561395757600080fd5b6139638482850161381c565b91505092915050565b60006020828403121561397e57600080fd5b600061398c84828501613846565b91505092915050565b60008060008060008060008060008060006101608c8e0312156139b757600080fd5b60006139c58e828f01613885565b9b505060206139d68e828f01613885565b9a505060406139e78e828f016138af565b99505060606139f88e828f016138af565b9850506080613a098e828f016138af565b97505060a0613a1a8e828f016138af565b96505060c0613a2b8e828f016138af565b95505060e0613a3c8e828f016137f2565b945050610100613a4e8e828f01613870565b935050610120613a608e828f0161389a565b925050610140613a728e828f0161385b565b9150509295989b509295989b9093969950565b600060208284031215613a9757600080fd5b6000613aa5848285016138af565b91505092915050565b600060208284031215613ac057600080fd5b6000613ace848285016138c4565b91505092915050565b60008060408385031215613aea57600080fd5b6000613af8858286016138af565b9250506020613b09858286016138af565b9150509250929050565b600080600060608486031215613b2857600080fd5b6000613b36868287016138af565b9350506020613b47868287016138af565b9250506040613b58868287016138af565b9150509250925092565b6000613b6e8383613b89565b60208301905092915050565b613b838161437d565b82525050565b613b92816142ed565b82525050565b613ba1816142ed565b82525050565b6000613bb2826142b3565b613bbc81856142cb565b9350613bc7836142a3565b8060005b83811015613bf8578151613bdf8882613b62565b9750613bea836142be565b925050600181019050613bcb565b5085935050505092915050565b613c0e816142ff565b82525050565b6000613c216012836142dc565b91507f4e6f7468696e6720746f206465706f73697400000000000000000000000000006000830152602082019050919050565b6000613c616015836142dc565b91507f4f6e6c792061646d696e2063616e2063616c6c212100000000000000000000006000830152602082019050919050565b6000613ca16019836142dc565b91507f506172616d65746572732063616e74206265207a65726f2121000000000000006000830152602082019050919050565b6000613ce16013836142dc565b91507f4e6f7468696e6720746f207769746864726177000000000000000000000000006000830152602082019050919050565b6000613d21600e836142dc565b91507f496e76616c696420416d6f756e740000000000000000000000000000000000006000830152602082019050919050565b6000613d616029836142dc565b91507f446f6e74206861766520656e6f7567682066756e642c20506c6561736520747260008301527f79206c61746572212100000000000000000000000000000000000000000000006020830152604082019050919050565b6000613dc7602a836142dc565b91507f446f6e74206861766520656e6f7567682066756e642c20506c6561736520747260008301527f79206c61746572212121000000000000000000000000000000000000000000006020830152604082019050919050565b6000613e2d6021836142dc565b91507f596f7520646f6e74206861766520656e6f75676820706f6f6c20746f6b656e2160008301527f21000000000000000000000000000000000000000000000000000000000000006020830152604082019050919050565b6000613e936012836142dc565b91507f636f6e7472616374206973206c6f636b656400000000000000000000000000006000830152602082019050919050565b6000613ed36032836142dc565b91507f4d696e206c69717569646974792063616e74206265206772656174657220746860008301527f616e206d6178206c6971756964697479212100000000000000000000000000006020830152604082019050919050565b613f3581614373565b82525050565b6000602082019050613f506000830184613b7a565b92915050565b6000606082019050613f6b6000830186613b7a565b613f786020830185613b7a565b613f856040830184613f2c565b949350505050565b6000606082019050613fa26000830186613b7a565b613faf6020830185613b98565b613fbc6040830184613f2c565b949350505050565b6000604082019050613fd96000830185613b7a565b613fe66020830184613f2c565b9392505050565b60006040820190506140026000830185613b98565b61400f6020830184613f2c565b9392505050565b600060208201905061402b6000830184613c05565b92915050565b6000602082019050818103600083015261404a81613c14565b9050919050565b6000602082019050818103600083015261406a81613c54565b9050919050565b6000602082019050818103600083015261408a81613c94565b9050919050565b600060208201905081810360008301526140aa81613cd4565b9050919050565b600060208201905081810360008301526140ca81613d14565b9050919050565b600060208201905081810360008301526140ea81613d54565b9050919050565b6000602082019050818103600083015261410a81613dba565b9050919050565b6000602082019050818103600083015261412a81613e20565b9050919050565b6000602082019050818103600083015261414a81613e86565b9050919050565b6000602082019050818103600083015261416a81613ec6565b9050919050565b60006020820190506141866000830184613f2c565b92915050565b60006040820190506141a16000830185613f2c565b6141ae6020830184613f2c565b9392505050565b600060a0820190506141ca6000830188613f2c565b6141d76020830187613f2c565b81810360408301526141e98186613ba7565b90506141f86060830185613b98565b6142056080830184613f2c565b9695505050505050565b60006060820190506142246000830186613f2c565b6142316020830185613f2c565b61423e6040830184613f2c565b949350505050565b6000604051905081810181811067ffffffffffffffff8211171561426d5761426c6143b3565b5b8060405250919050565b600067ffffffffffffffff821115614292576142916143b3565b5b602082029050602081019050919050565b6000819050602082019050919050565b600081519050919050565b6000602082019050919050565b600082825260208201905092915050565b600082825260208201905092915050565b60006142f882614353565b9050919050565b60008115159050919050565b6000614316826142ed565b9050919050565b6000614328826142ed565b9050919050565b600061433a826142ed565b9050919050565b600061434c826142ed565b9050919050565b600073ffffffffffffffffffffffffffffffffffffffff82169050919050565b6000819050919050565b60006143888261438f565b9050919050565b600061439a826143a1565b9050919050565b60006143ac82614353565b9050919050565bfe5b6143be816142ed565b81146143c957600080fd5b50565b6143d5816142ff565b81146143e057600080fd5b50565b6143ec8161430b565b81146143f757600080fd5b50565b6144038161431d565b811461440e57600080fd5b50565b61441a8161432f565b811461442557600080fd5b50565b61443181614341565b811461443c57600080fd5b50565b61444881614373565b811461445357600080fd5b5056fe536166654d6174683a206d756c7469706c69636174696f6e206f766572666c6f77a2646970667358221220082deca7caf3c2e575915347391ba59e7abbde3f3b6e3179fb22f3060cabd39964736f6c63430007060033",
  "immutableReferences": {},
  "source": "// SPDX-License-Identifier: UNLICENSED\r\npragma solidity ^0.7.6;\r\npragma experimental ABIEncoderV2;\r\n\r\nimport \"../storage/PoolStorage.sol\";\r\n\r\ncontract AdvancedPool is PoolStorageV1 {\r\n    \r\n/****VARIABLES*****/\r\n    using SafeMath for uint256;\r\n   \r\n\r\n/****MODIFIERS*****/\r\n    \r\n    modifier onlyOwner(){\r\n        PoolStorage storage ps = poolStorage();\r\n        require(ps.owner == msg.sender, \"Only admin can call!!\");\r\n        _;\r\n    }\r\n    modifier notLocked {\r\n        PoolStorage storage ps = poolStorage();\r\n        require(!ps.locked, \"contract is locked\");\r\n        _;\r\n    }\r\n  \r\n/****EVENTS****/ \r\n    event userDeposits(address user, uint256 amount);\r\n    event userWithdrawal(address user,uint256 amount);\r\n    event poolDeposit(address user, address pool, uint256 amount);\r\n    event poolWithdrawal(address user, address pool, uint256 amount);\r\n    \r\n\r\n/****CONSTRUCTOR****/\r\n    function initialize(\r\n        IERC20 _coin,\r\n        IERC20 _poolToken, \r\n        uint256 _minLiquidity, \r\n        uint256 _maxLiquidity, \r\n        uint256 _withdrawFees, \r\n        uint256 _depositFees,\r\n        uint256 _maxWithdrawalAllowed,\r\n        address _owner,\r\n        DepositStrategy _depositStrategy,\r\n        UniswapV2Router02 _uniswapRouter,\r\n        Controller _controller\r\n    ) public {\r\n        PoolStorage storage ps = poolStorage();\r\n       // require(!ps.initialized, 'Already initialized');\r\n        ps.owner = _owner;\r\n        ps.DENOMINATOR = 10000;\r\n        ps.coin = _coin;\r\n        ps.poolToken = _poolToken;\r\n        ps.minLiquidity = _minLiquidity;\r\n        ps.maxLiquidity = _maxLiquidity;\r\n        ps.withdrawFees = _withdrawFees;\r\n        ps.depositFees = _depositFees;\r\n        ps.depositStrategy = _depositStrategy;\r\n        ps.maxWithdrawalAllowed = _maxWithdrawalAllowed;\r\n        ps.uniswapRouter = _uniswapRouter;\r\n        ps.controller = _controller;\r\n        ps.initialized = true;\r\n    }\r\n    \r\n\r\n/*****USERS FUNCTIONS****/\r\n\r\n    function stake(uint256 amount) external notLocked() returns(uint256){\r\n        require(amount > 0, 'Invalid Amount');\r\n\r\n        PoolStorage storage ps = poolStorage();\r\n        uint256 feeAmount = amount * ps.depositFees / ps.DENOMINATOR;\r\n        ps.feesCollected = ps.feesCollected + feeAmount;\r\n        uint256 mintAmount = calculatePoolTokens(amount - feeAmount);\r\n        ps.poolBalance = ps.poolBalance.add(amount - feeAmount);\r\n        ps.coin.transferFrom(msg.sender, address(this), amount);\r\n        ps.poolToken.mint(msg.sender, mintAmount);\r\n        emit userDeposits(msg.sender,amount);\r\n        return mintAmount;\r\n    }\r\n\r\n    function unstake(uint256 amount) external notLocked() returns(uint256){\r\n        PoolStorage storage ps = poolStorage();\r\n        require(amount <= maxWithdrawal(), \"Dont have enough fund, Please try later!!\");\r\n        require(amount <= ps.coin.balanceOf(address(this)), \"Dont have enough fund, Please try later!!!\");\r\n        \r\n        uint256 burnAmount = calculatePoolTokens(amount);\r\n        require(burnAmount <= ps.poolToken.balanceOf(msg.sender), \"You dont have enough pool token!!\");\r\n\r\n        uint256 feeAmount = amount * ps.withdrawFees/ ps.DENOMINATOR;\r\n        ps.feesCollected = ps.feesCollected + feeAmount;\r\n        ps.poolBalance = ps.poolBalance.sub(amount);\r\n\r\n        ps.coin.transfer(msg.sender, amount - feeAmount);\r\n        ps.poolToken.burn(msg.sender, burnAmount);  \r\n        emit userWithdrawal(msg.sender, amount);\r\n        return amount - feeAmount;\r\n    }\r\n\r\n/****ADMIN FUNCTIONS*****/\r\n\r\n    function addToStrategy() public notLocked() onlyOwner() returns(uint256){\r\n        PoolStorage storage ps = poolStorage();\r\n        uint256 gasAtBegining = (gasleft().add(ps.controller.defaultGas())).mul(tx.gasprice);\r\n        uint256 amount = amountToDeposit();\r\n        require(amount > 0, \"Nothing to deposit\");\r\n        ps.strategyDeposit = ps.strategyDeposit.add(amount);\r\n        ps.coin.approve(address(ps.depositStrategy), amount);\r\n        ps.depositStrategy.deposit(amount);\r\n        emit poolDeposit(msg.sender, address(ps.depositStrategy), amount);\r\n        uint256 gasUsed = gasAtBegining.sub(gasleft().mul(tx.gasprice)); \r\n        ps.controller.updateGasUsed(gasUsed);\r\n        return amount;\r\n    }\r\n    \r\n    function removeFromStrategy() public notLocked() onlyOwner() returns(uint256){\r\n        PoolStorage storage ps = poolStorage();\r\n        uint256 gasAtBegining = (gasleft().add(ps.controller.defaultGas())).mul(tx.gasprice);\r\n        uint256 amount = amountToWithdraw();\r\n        require(amount > 0 , \"Nothing to withdraw\");\r\n        ps.strategyDeposit = ps.strategyDeposit.sub(amount);\r\n        ps.depositStrategy.withdraw(amount);\r\n        emit poolWithdrawal(msg.sender, address(ps.depositStrategy), amount);\r\n        uint256 gasUsed = gasAtBegining.sub(gasleft().mul(tx.gasprice)); \r\n        ps.controller.updateGasUsed(gasUsed); \r\n        return amount;\r\n    }\r\n    \r\n    function updateLiquidityParam(uint256 _minLiquidity, uint256 _maxLiquidity, uint256 _maxWithdrawalAllowed) external onlyOwner() returns(bool){\r\n        require(_minLiquidity > 0 &&  _maxLiquidity > 0 && _maxWithdrawalAllowed > 0, 'Parameters cant be zero!!');\r\n        require(_minLiquidity <  _maxLiquidity, 'Min liquidity cant be greater than max liquidity!!');\r\n   \r\n        PoolStorage storage ps = poolStorage();\r\n        uint256 gasAtBegining = (gasleft().add(ps.controller.defaultGas())).mul(tx.gasprice);   \r\n        ps.minLiquidity = _minLiquidity;\r\n        ps.maxLiquidity = _maxLiquidity;\r\n        ps.maxWithdrawalAllowed = _maxWithdrawalAllowed;\r\n        uint256 gasUsed = gasAtBegining.sub(gasleft().mul(tx.gasprice)); \r\n        ps.controller.updateGasUsed(gasUsed);\r\n          if(amountToDeposit() > 0){\r\n            addToStrategy();\r\n        }else if(amountToWithdraw() > 0){\r\n            removeFromStrategy();\r\n        }\r\n        return true;\r\n    }\r\n    \r\n    function updateFees(uint256 _depositFees, uint256 _withdrawFees) external onlyOwner() returns(bool){\r\n        PoolStorage storage ps = poolStorage();\r\n        uint256 gasAtBegining = (gasleft().add(ps.controller.defaultGas())).mul(tx.gasprice);\r\n        ps.withdrawFees = _withdrawFees;\r\n        ps.depositFees = _depositFees;\r\n        uint256 gasUsed = gasAtBegining.sub(gasleft().mul(tx.gasprice)); \r\n        ps.controller.updateGasUsed(gasUsed);\r\n        return true;\r\n    }\r\n    \r\n    function changeLockStatus() external onlyOwner() returns(bool){\r\n        PoolStorage storage ps = poolStorage();\r\n        uint256 gasAtBegining = (gasleft().add(ps.controller.defaultGas())).mul(tx.gasprice);\r\n        ps.locked = !ps.locked;\r\n        uint256 gasUsed = gasAtBegining.sub(gasleft().mul(tx.gasprice)); \r\n        ps.controller.updateGasUsed(gasUsed);\r\n        return ps.locked;\r\n    }\r\n    \r\n    function updateOwner(address newOwner) external onlyOwner() returns(bool){\r\n        PoolStorage storage ps = poolStorage();\r\n        uint256 gasAtBegining = (gasleft().add(ps.controller.defaultGas())).mul(tx.gasprice);\r\n        ps.owner = newOwner;\r\n        uint256 gasUsed = gasAtBegining.sub(gasleft().mul(tx.gasprice)); \r\n        ps.controller.updateGasUsed(gasUsed);\r\n        return true;\r\n    } \r\n\r\n    function getYield() public onlyOwner(){\r\n        PoolStorage storage ps = poolStorage();\r\n        uint256 gasAtBegining = (gasleft().add(ps.controller.defaultGas())).mul(tx.gasprice);\r\n        uint256 tokenReceived = ps.depositStrategy.claimAndConvertCRV();\r\n        ps.poolBalance = ps.poolBalance.add(tokenReceived);\r\n        uint256 gasUsed = gasAtBegining.sub(gasleft().mul(tx.gasprice)); \r\n        ps.controller.updateGasUsed(gasUsed);\r\n    }\r\n    \r\n    function convertFeesToETH() external onlyOwner() {\r\n        PoolStorage storage ps = poolStorage();\r\n        uint256 gasAtBegining = (gasleft().add(ps.controller.defaultGas())).mul(tx.gasprice);\r\n        address[] memory path = new address[](2);\r\n        uint256 amountToSwap = ps.feesCollected;\r\n        ps.feesCollected = 0;\r\n        ps.coin.approve(address(ps.uniswapRouter), amountToSwap);\r\n        path[0] = address(ps.coin);\r\n        path[1] = ps.uniswapRouter.WETH();\r\n        uint256 amountOutMin = 0;\r\n        ps.uniswapRouter.swapExactTokensForETH(amountToSwap, amountOutMin, path, address(ps.controller), block.timestamp + 100000);\r\n        uint256 gasUsed = gasAtBegining.sub(gasleft().mul(tx.gasprice)); \r\n        ps.controller.updateGasUsed(gasUsed);\r\n    }\r\n\r\n\r\n/****OTHER FUNCTIONS****/\r\n\r\n    function calculatePoolTokens(uint256 amountOfStableCoins) public view returns(uint256){\r\n        PoolStorage storage ps = poolStorage();\r\n        return (amountOfStableCoins * stableCoinPrice())/10**ps.coin.decimals() ;\r\n    }\r\n\r\n    function stableCoinPrice() public view returns(uint256){\r\n        PoolStorage storage ps = poolStorage();\r\n        return (ps.poolToken.totalSupply() == 0 || ps.poolBalance == 0) ? 10**ps.coin.decimals() : ((10**ps.coin.decimals()) * ps.poolToken.totalSupply())/ps.poolBalance;\r\n    }\r\n    \r\n    function calculateStableCoins(uint256 amountOfPoolToken) public view returns(uint256){\r\n        PoolStorage storage ps = poolStorage();\r\n        amountOfPoolToken = (amountOfPoolToken*poolTokenPrice())/(10**ps.poolToken.decimals());\r\n        return amountOfPoolToken;\r\n    }\r\n\r\n    function poolTokenPrice() public view returns(uint256){\r\n        PoolStorage storage ps = poolStorage();\r\n        return (ps.poolToken.totalSupply() == 0 || ps.poolBalance == 0) ? 10**ps.poolToken.decimals() : ((10**ps.poolToken.decimals())*ps.poolBalance)/ps.poolToken.totalSupply();\r\n    }\r\n    \r\n    function maxWithdrawal() public view returns(uint256){\r\n        PoolStorage storage ps = poolStorage();\r\n        return minLiquidityToMaintainInPool()/2 < ps.maxWithdrawalAllowed ? minLiquidityToMaintainInPool()/2 : ps.maxWithdrawalAllowed;\r\n    }\r\n\r\n    function currentLiquidity() public view returns(uint256){\r\n        PoolStorage storage ps = poolStorage();\r\n        return ps.poolBalance - ps.strategyDeposit;\r\n    }\r\n   \r\n    function idealAmount() public view returns(uint256){\r\n        PoolStorage storage ps = poolStorage();\r\n        return (ps.poolBalance * (ps.minLiquidity.add(ps.maxLiquidity))) / (2 * ps.DENOMINATOR);\r\n    }\r\n     \r\n    function maxLiquidityAllowedInPool() public view returns(uint256){\r\n        PoolStorage storage ps = poolStorage();\r\n        return ps.poolBalance * ps.maxLiquidity / ps.DENOMINATOR;\r\n    }\r\n\r\n    function amountToDeposit() public view returns(uint256){\r\n        return currentLiquidity() <= maxLiquidityAllowedInPool() ? 0 : currentLiquidity() - idealAmount();\r\n    }\r\n    \r\n    function minLiquidityToMaintainInPool() public view returns(uint256){\r\n        PoolStorage storage ps = poolStorage();\r\n        return ps.poolBalance * ps.minLiquidity / ps.DENOMINATOR;\r\n    }\r\n   \r\n    function amountToWithdraw() public view returns(uint256){\r\n        PoolStorage storage ps = poolStorage();\r\n        return currentLiquidity() > minLiquidityToMaintainInPool() || ps.strategyDeposit == 0 || ps.strategyDeposit < idealAmount() - currentLiquidity() ? 0 : idealAmount() - currentLiquidity();\r\n    }\r\n\r\n    function lockStatus() public view returns(bool){\r\n        PoolStorage storage ps = poolStorage();\r\n        return ps.locked;\r\n    }\r\n\r\n    function totalDeposit() public view returns(uint256){\r\n        PoolStorage storage ps = poolStorage();\r\n        return ps.poolBalance;\r\n    }\r\n\r\n    function strategyDeposit() public view returns(uint256){\r\n        PoolStorage storage ps = poolStorage();\r\n        return ps.strategyDeposit;\r\n    }\r\n       \r\n    function feesCollected() public view returns(uint256){\r\n        PoolStorage storage ps = poolStorage();\r\n        return ps.feesCollected;\r\n    }\r\n\r\n    function currentFees() public view returns(uint256, uint256){\r\n        PoolStorage storage ps = poolStorage();\r\n        return (ps.depositFees, ps.withdrawFees);\r\n    }\r\n\r\n    function currentLiquidityParams() public view returns(uint256, uint256, uint256){\r\n        PoolStorage storage ps = poolStorage();\r\n        return (ps.minLiquidity, ps.maxLiquidity, ps.maxWithdrawalAllowed);\r\n    }\r\n\r\n    receive() external payable {\r\n    }\r\n}",
  "sourcePath": "E:/New Desktop/Projects/AdvancedPool/AdvancedPool/contracts/facets/AdvancedPool.sol",
  "compiler": {
    "name": "solc",
    "version": "0.7.6+commit.7338295f.Emscripten.clang"
  },
  "schemaVersion": "3.3.2",
  "updatedAt": "2021-05-17T10:08:01.226Z",
  "networkType": "ethereum",
  "devdoc": {
    "kind": "dev",
    "methods": {},
    "version": 1
  },
  "userdoc": {
    "kind": "user",
    "methods": {},
    "version": 1
  }
}