{
  "contractName": "AdvancedPool2",
  "abi": [
    {
      "anonymous": false,
      "inputs": [
        {
          "indexed": false,
          "internalType": "address",
          "name": "user",
          "type": "address"
        },
        {
          "indexed": false,
          "internalType": "address",
          "name": "pool",
          "type": "address"
        },
        {
          "indexed": false,
          "internalType": "uint256",
          "name": "amount",
          "type": "uint256"
        }
      ],
      "name": "poolDeposit",
      "type": "event"
    },
    {
      "anonymous": false,
      "inputs": [
        {
          "indexed": false,
          "internalType": "address",
          "name": "user",
          "type": "address"
        },
        {
          "indexed": false,
          "internalType": "address",
          "name": "pool",
          "type": "address"
        },
        {
          "indexed": false,
          "internalType": "uint256",
          "name": "amount",
          "type": "uint256"
        }
      ],
      "name": "poolWithdrawal",
      "type": "event"
    },
    {
      "anonymous": false,
      "inputs": [
        {
          "indexed": false,
          "internalType": "address",
          "name": "user",
          "type": "address"
        },
        {
          "indexed": false,
          "internalType": "uint256",
          "name": "amount",
          "type": "uint256"
        }
      ],
      "name": "userDeposits",
      "type": "event"
    },
    {
      "anonymous": false,
      "inputs": [
        {
          "indexed": false,
          "internalType": "address",
          "name": "user",
          "type": "address"
        },
        {
          "indexed": false,
          "internalType": "uint256",
          "name": "amount",
          "type": "uint256"
        }
      ],
      "name": "userWithdrawal",
      "type": "event"
    },
    {
      "inputs": [
        {
          "internalType": "uint256",
          "name": "amount",
          "type": "uint256"
        }
      ],
      "name": "stake",
      "outputs": [
        {
          "internalType": "uint256",
          "name": "",
          "type": "uint256"
        }
      ],
      "stateMutability": "nonpayable",
      "type": "function"
    },
    {
      "inputs": [
        {
          "internalType": "uint256",
          "name": "amount",
          "type": "uint256"
        }
      ],
      "name": "unstake",
      "outputs": [
        {
          "internalType": "uint256",
          "name": "",
          "type": "uint256"
        }
      ],
      "stateMutability": "nonpayable",
      "type": "function"
    },
    {
      "inputs": [
        {
          "internalType": "uint256",
          "name": "minMintAmount",
          "type": "uint256"
        }
      ],
      "name": "addToStrategy",
      "outputs": [
        {
          "internalType": "uint256",
          "name": "",
          "type": "uint256"
        }
      ],
      "stateMutability": "nonpayable",
      "type": "function"
    },
    {
      "inputs": [
        {
          "internalType": "uint256",
          "name": "maxBurnAmount",
          "type": "uint256"
        }
      ],
      "name": "removeFromStrategy",
      "outputs": [
        {
          "internalType": "uint256",
          "name": "",
          "type": "uint256"
        }
      ],
      "stateMutability": "nonpayable",
      "type": "function"
    },
    {
      "inputs": [
        {
          "internalType": "uint256",
          "name": "minAmount",
          "type": "uint256"
        }
      ],
      "name": "removeAllFromStrategy",
      "outputs": [],
      "stateMutability": "nonpayable",
      "type": "function"
    },
    {
      "inputs": [
        {
          "internalType": "uint256",
          "name": "_minLiquidity",
          "type": "uint256"
        },
        {
          "internalType": "uint256",
          "name": "_maxLiquidity",
          "type": "uint256"
        },
        {
          "internalType": "uint256",
          "name": "_maxWithdrawalAllowed",
          "type": "uint256"
        },
        {
          "internalType": "uint256",
          "name": "maxBurnOrMinMint",
          "type": "uint256"
        }
      ],
      "name": "updateLiquidityParam",
      "outputs": [
        {
          "internalType": "bool",
          "name": "",
          "type": "bool"
        }
      ],
      "stateMutability": "nonpayable",
      "type": "function"
    },
    {
      "inputs": [
        {
          "internalType": "contract DepositStrategy",
          "name": "_newStrategy",
          "type": "address"
        }
      ],
      "name": "updateStrategy",
      "outputs": [],
      "stateMutability": "nonpayable",
      "type": "function"
    },
    {
      "inputs": [
        {
          "internalType": "uint256",
          "name": "amountOfStableCoins",
          "type": "uint256"
        }
      ],
      "name": "calculatePoolTokens",
      "outputs": [
        {
          "internalType": "uint256",
          "name": "",
          "type": "uint256"
        }
      ],
      "stateMutability": "view",
      "type": "function",
      "constant": true
    },
    {
      "inputs": [],
      "name": "stableCoinPrice",
      "outputs": [
        {
          "internalType": "uint256",
          "name": "",
          "type": "uint256"
        }
      ],
      "stateMutability": "view",
      "type": "function",
      "constant": true
    },
    {
      "inputs": [
        {
          "internalType": "uint256",
          "name": "amountOfPoolToken",
          "type": "uint256"
        }
      ],
      "name": "calculateStableCoins",
      "outputs": [
        {
          "internalType": "uint256",
          "name": "",
          "type": "uint256"
        }
      ],
      "stateMutability": "view",
      "type": "function",
      "constant": true
    },
    {
      "inputs": [],
      "name": "poolTokenPrice",
      "outputs": [
        {
          "internalType": "uint256",
          "name": "",
          "type": "uint256"
        }
      ],
      "stateMutability": "view",
      "type": "function",
      "constant": true
    },
    {
      "inputs": [],
      "name": "maxWithdrawal",
      "outputs": [
        {
          "internalType": "uint256",
          "name": "",
          "type": "uint256"
        }
      ],
      "stateMutability": "view",
      "type": "function",
      "constant": true
    },
    {
      "inputs": [],
      "name": "currentLiquidity",
      "outputs": [
        {
          "internalType": "uint256",
          "name": "",
          "type": "uint256"
        }
      ],
      "stateMutability": "view",
      "type": "function",
      "constant": true
    },
    {
      "inputs": [],
      "name": "idealAmount",
      "outputs": [
        {
          "internalType": "uint256",
          "name": "",
          "type": "uint256"
        }
      ],
      "stateMutability": "view",
      "type": "function",
      "constant": true
    },
    {
      "inputs": [],
      "name": "maxLiquidityAllowedInPool",
      "outputs": [
        {
          "internalType": "uint256",
          "name": "",
          "type": "uint256"
        }
      ],
      "stateMutability": "view",
      "type": "function",
      "constant": true
    },
    {
      "inputs": [],
      "name": "amountToDeposit",
      "outputs": [
        {
          "internalType": "uint256",
          "name": "",
          "type": "uint256"
        }
      ],
      "stateMutability": "view",
      "type": "function",
      "constant": true
    },
    {
      "inputs": [],
      "name": "minLiquidityToMaintainInPool",
      "outputs": [
        {
          "internalType": "uint256",
          "name": "",
          "type": "uint256"
        }
      ],
      "stateMutability": "view",
      "type": "function",
      "constant": true
    },
    {
      "inputs": [],
      "name": "amountToWithdraw",
      "outputs": [
        {
          "internalType": "uint256",
          "name": "",
          "type": "uint256"
        }
      ],
      "stateMutability": "view",
      "type": "function",
      "constant": true
    },
    {
      "inputs": [],
      "name": "totalDeposit",
      "outputs": [
        {
          "internalType": "uint256",
          "name": "",
          "type": "uint256"
        }
      ],
      "stateMutability": "view",
      "type": "function",
      "constant": true
    },
    {
      "inputs": [],
      "name": "strategyDeposit",
      "outputs": [
        {
          "internalType": "uint256",
          "name": "",
          "type": "uint256"
        }
      ],
      "stateMutability": "view",
      "type": "function",
      "constant": true
    }
  ],
  "bytecode": "0x608060405234801561001057600080fd5b506135ed806100206000396000f3fe608060405234801561001057600080fd5b506004361061012c5760003560e01c80638a98cdd4116100ad578063daccaf6311610071578063daccaf631461035d578063e425534214610379578063f6153ccd14610397578063fc0a497e146103b5578063fe135c0e146103e55761012c565b80638a98cdd4146102915780638c0ff5b7146102c1578063a694fc3a146102df578063b4ad5e081461030f578063c3c9f52b1461032d5761012c565b806346caf2ae116100f457806346caf2ae146101d75780634b366863146101f55780635b404bad146102255780637039206b146102435780637260cc76146102735761012c565b8063077622a214610131578063269fa1281461014f5780632e17de781461016d57806331dd132e1461019d5780634076245f146101bb575b600080fd5b610139610403565b6040516101469190613431565b60405180910390f35b61015761044a565b6040516101649190613431565b60405180910390f35b61018760048036038101906101829190612d16565b6104b2565b6040516101949190613431565b60405180910390f35b6101a5610924565b6040516101b29190613431565b60405180910390f35b6101d560048036038101906101d09190612d16565b6109d9565b005b6101df610f22565b6040516101ec9190613431565b60405180910390f35b61020f600480360381019061020a9190612d16565b610f3a565b60405161021c9190613431565b60405180910390f35b61022d61137f565b60405161023a9190613431565b60405180910390f35b61025d60048036038101906102589190612d16565b611650565b60405161026a9190613431565b60405180910390f35b61027b611c42565b6040516102889190613431565b60405180910390f35b6102ab60048036038101906102a69190612d16565b611c6d565b6040516102b89190613431565b60405180910390f35b6102c9611d3c565b6040516102d69190613431565b60405180910390f35b6102f960048036038101906102f49190612d16565b611d88565b6040516103069190613431565b60405180910390f35b610317612017565b6040516103249190613431565b60405180910390f35b61034760048036038101906103429190612d16565b612045565b6040516103549190613431565b60405180910390f35b61037760048036038101906103729190612ced565b612111565b005b6103816123d5565b60405161038e9190613431565b60405180910390f35b61039f6126a0565b6040516103ac9190613431565b60405180910390f35b6103cf60048036038101906103ca9190612d68565b6126c1565b6040516103dc9190613296565b60405180910390f35b6103ed6129f5565b6040516103fa9190613431565b60405180910390f35b60008061040e612a2b565b9050806004015460020261043382600801548360070154612a5890919063ffffffff16565b61043b6126a0565b028161044357fe5b0491505090565b6000610454611c42565b61045c610f22565b118061046f5750600061046d610924565b145b80610490575061047d610f22565b610485610403565b0361048e610924565b105b6104aa5761049c610f22565b6104a4610403565b036104ad565b60005b905090565b6000806104bd612a2b565b905080600e0160009054906101000a900460ff1615610511576040517f08c379a0000000000000000000000000000000000000000000000000000000008152600401610508906133b1565b60405180910390fd5b600061051b612a2b565b9050610525611d3c565b841115610567576040517f08c379a000000000000000000000000000000000000000000000000000000000815260040161055e90613351565b60405180910390fd5b8060000160019054906101000a900473ffffffffffffffffffffffffffffffffffffffff1673ffffffffffffffffffffffffffffffffffffffff166370a08231306040518263ffffffff1660e01b81526004016105c491906131ae565b60206040518083038186803b1580156105dc57600080fd5b505afa1580156105f0573d6000803e3d6000fd5b505050506040513d601f19601f820116820180604052508101906106149190612d3f565b841115610656576040517f08c379a000000000000000000000000000000000000000000000000000000000815260040161064d90613371565b60405180910390fd5b600061066185612045565b90508160010160009054906101000a900473ffffffffffffffffffffffffffffffffffffffff1673ffffffffffffffffffffffffffffffffffffffff166370a08231336040518263ffffffff1660e01b81526004016106c091906131c9565b60206040518083038186803b1580156106d857600080fd5b505afa1580156106ec573d6000803e3d6000fd5b505050506040513d601f19601f820116820180604052508101906107109190612d3f565b811115610752576040517f08c379a000000000000000000000000000000000000000000000000000000000815260040161074990613391565b60405180910390fd5b60008260040154836006015487028161076757fe5b0490508083600b01540183600b01819055506107908684600a0154612ae090919063ffffffff16565b83600a01819055508260000160019054906101000a900473ffffffffffffffffffffffffffffffffffffffff1673ffffffffffffffffffffffffffffffffffffffff1663a9059cbb338389036040518363ffffffff1660e01b81526004016107f992919061321b565b602060405180830381600087803b15801561081357600080fd5b505af1158015610827573d6000803e3d6000fd5b505050506040513d601f19601f8201168201806040525081019061084b9190612cc4565b508260010160009054906101000a900473ffffffffffffffffffffffffffffffffffffffff1673ffffffffffffffffffffffffffffffffffffffff16639dc29fac33846040518363ffffffff1660e01b81526004016108ab92919061321b565b600060405180830381600087803b1580156108c557600080fd5b505af11580156108d9573d6000803e3d6000fd5b505050507f42b2a4ad2d4bdf57e819ccd3c6ce6d0a8d6d20b5d3dbf94ef2b05c42f523c610338760405161090e92919061321b565b60405180910390a1808603945050505050919050565b60008061092f612a2b565b90508060020160009054906101000a900473ffffffffffffffffffffffffffffffffffffffff1673ffffffffffffffffffffffffffffffffffffffff16631d01364c6040518163ffffffff1660e01b815260040160206040518083038186803b15801561099b57600080fd5b505afa1580156109af573d6000803e3d6000fd5b505050506040513d601f19601f820116820180604052508101906109d39190612d3f565b91505090565b60006109e3612a2b565b905080600e0160009054906101000a900460ff1615610a37576040517f08c379a0000000000000000000000000000000000000000000000000000000008152600401610a2e906133b1565b60405180910390fd5b6000610a41612a2b565b90503373ffffffffffffffffffffffffffffffffffffffff1681600f0160009054906101000a900473ffffffffffffffffffffffffffffffffffffffff1673ffffffffffffffffffffffffffffffffffffffff1614610ad5576040517f08c379a0000000000000000000000000000000000000000000000000000000008152600401610acc906133d1565b60405180910390fd5b6000610adf612a2b565b90506000610bab3a610b9d8460100160009054906101000a900473ffffffffffffffffffffffffffffffffffffffff1673ffffffffffffffffffffffffffffffffffffffff166384e9a9016040518163ffffffff1660e01b8152600401602060405180830381600087803b158015610b5657600080fd5b505af1158015610b6a573d6000803e3d6000fd5b505050506040513d601f19601f82011682018060405250810190610b8e9190612d3f565b5a612a5890919063ffffffff16565b612b2a90919063ffffffff16565b90506000610bb7610924565b11610bf7576040517f08c379a0000000000000000000000000000000000000000000000000000000008152600401610bee90613311565b60405180910390fd5b60008260000160019054906101000a900473ffffffffffffffffffffffffffffffffffffffff1673ffffffffffffffffffffffffffffffffffffffff166370a08231306040518263ffffffff1660e01b8152600401610c5691906131ae565b60206040518083038186803b158015610c6e57600080fd5b505afa158015610c82573d6000803e3d6000fd5b505050506040513d601f19601f82011682018060405250810190610ca69190612d3f565b90508260020160009054906101000a900473ffffffffffffffffffffffffffffffffffffffff1673ffffffffffffffffffffffffffffffffffffffff1663958e2d31876040518263ffffffff1660e01b8152600401610d059190613431565b600060405180830381600087803b158015610d1f57600080fd5b505af1158015610d33573d6000803e3d6000fd5b5050505060008360000160019054906101000a900473ffffffffffffffffffffffffffffffffffffffff1673ffffffffffffffffffffffffffffffffffffffff166370a08231306040518263ffffffff1660e01b8152600401610d9691906131ae565b60206040518083038186803b158015610dae57600080fd5b505afa158015610dc2573d6000803e3d6000fd5b505050506040513d601f19601f82011682018060405250810190610de69190612d3f565b9050600082820390508085600a01540185600a01819055507fe2da54b49c071dfc046fee542e5201277eee89662a48be76fe432bce2ce1443b338660020160009054906101000a900473ffffffffffffffffffffffffffffffffffffffff1683604051610e55939291906131e4565b60405180910390a16000610e84610e753a5a612b2a90919063ffffffff16565b86612ae090919063ffffffff16565b90508560100160009054906101000a900473ffffffffffffffffffffffffffffffffffffffff1673ffffffffffffffffffffffffffffffffffffffff16636c55068282336040518363ffffffff1660e01b8152600401610ee592919061344c565b600060405180830381600087803b158015610eff57600080fd5b505af1158015610f13573d6000803e3d6000fd5b50505050505050505050505050565b600080610f2d612a2b565b905080600a015491505090565b600080610f45612a2b565b905080600e0160009054906101000a900460ff1615610f99576040517f08c379a0000000000000000000000000000000000000000000000000000000008152600401610f90906133b1565b60405180910390fd5b6000610fa3612a2b565b90503373ffffffffffffffffffffffffffffffffffffffff1681600e0160019054906101000a900473ffffffffffffffffffffffffffffffffffffffff1673ffffffffffffffffffffffffffffffffffffffff16148061105257503373ffffffffffffffffffffffffffffffffffffffff1681600f0160009054906101000a900473ffffffffffffffffffffffffffffffffffffffff1673ffffffffffffffffffffffffffffffffffffffff16145b611091576040517f08c379a0000000000000000000000000000000000000000000000000000000008152600401611088906132d1565b60405180910390fd5b600061109b612a2b565b905060006111673a6111598460100160009054906101000a900473ffffffffffffffffffffffffffffffffffffffff1673ffffffffffffffffffffffffffffffffffffffff166384e9a9016040518163ffffffff1660e01b8152600401602060405180830381600087803b15801561111257600080fd5b505af1158015611126573d6000803e3d6000fd5b505050506040513d601f19601f8201168201806040525081019061114a9190612d3f565b5a612a5890919063ffffffff16565b612b2a90919063ffffffff16565b9050600061117361044a565b9050600081116111b8576040517f08c379a00000000000000000000000000000000000000000000000000000000081526004016111af90613311565b60405180910390fd5b8083600a01540183600a01819055508260020160009054906101000a900473ffffffffffffffffffffffffffffffffffffffff1673ffffffffffffffffffffffffffffffffffffffff1663441a3e7082896040518363ffffffff1660e01b8152600401611226929190613475565b600060405180830381600087803b15801561124057600080fd5b505af1158015611254573d6000803e3d6000fd5b505050507fe2da54b49c071dfc046fee542e5201277eee89662a48be76fe432bce2ce1443b338460020160009054906101000a900473ffffffffffffffffffffffffffffffffffffffff16836040516112af939291906131e4565b60405180910390a160006112de6112cf3a5a612b2a90919063ffffffff16565b84612ae090919063ffffffff16565b90508360100160009054906101000a900473ffffffffffffffffffffffffffffffffffffffff1673ffffffffffffffffffffffffffffffffffffffff16636c55068282336040518363ffffffff1660e01b815260040161133f92919061344c565b600060405180830381600087803b15801561135957600080fd5b505af115801561136d573d6000803e3d6000fd5b50505050819650505050505050919050565b60008061138a612a2b565b905060008160010160009054906101000a900473ffffffffffffffffffffffffffffffffffffffff1673ffffffffffffffffffffffffffffffffffffffff166318160ddd6040518163ffffffff1660e01b815260040160206040518083038186803b1580156113f857600080fd5b505afa15801561140c573d6000803e3d6000fd5b505050506040513d601f19601f820116820180604052508101906114309190612d3f565b1480611443575060006114416126a0565b145b6115a45761144f6126a0565b8160010160009054906101000a900473ffffffffffffffffffffffffffffffffffffffff1673ffffffffffffffffffffffffffffffffffffffff166318160ddd6040518163ffffffff1660e01b815260040160206040518083038186803b1580156114b957600080fd5b505afa1580156114cd573d6000803e3d6000fd5b505050506040513d601f19601f820116820180604052508101906114f19190612d3f565b8260000160019054906101000a900473ffffffffffffffffffffffffffffffffffffffff1673ffffffffffffffffffffffffffffffffffffffff1663313ce5676040518163ffffffff1660e01b815260040160206040518083038186803b15801561155b57600080fd5b505afa15801561156f573d6000803e3d6000fd5b505050506040513d601f19601f820116820180604052508101906115939190612d3f565b600a0a028161159e57fe5b0461164a565b8060000160019054906101000a900473ffffffffffffffffffffffffffffffffffffffff1673ffffffffffffffffffffffffffffffffffffffff1663313ce5676040518163ffffffff1660e01b815260040160206040518083038186803b15801561160e57600080fd5b505afa158015611622573d6000803e3d6000fd5b505050506040513d601f19601f820116820180604052508101906116469190612d3f565b600a0a5b91505090565b60008061165b612a2b565b905080600e0160009054906101000a900460ff16156116af576040517f08c379a00000000000000000000000000000000000000000000000000000000081526004016116a6906133b1565b60405180910390fd5b60006116b9612a2b565b90503373ffffffffffffffffffffffffffffffffffffffff1681600e0160019054906101000a900473ffffffffffffffffffffffffffffffffffffffff1673ffffffffffffffffffffffffffffffffffffffff16148061176857503373ffffffffffffffffffffffffffffffffffffffff1681600f0160009054906101000a900473ffffffffffffffffffffffffffffffffffffffff1673ffffffffffffffffffffffffffffffffffffffff16145b6117a7576040517f08c379a000000000000000000000000000000000000000000000000000000000815260040161179e906132d1565b60405180910390fd5b60006117b1612a2b565b9050600061187d3a61186f8460100160009054906101000a900473ffffffffffffffffffffffffffffffffffffffff1673ffffffffffffffffffffffffffffffffffffffff166384e9a9016040518163ffffffff1660e01b8152600401602060405180830381600087803b15801561182857600080fd5b505af115801561183c573d6000803e3d6000fd5b505050506040513d601f19601f820116820180604052508101906118609190612d3f565b5a612a5890919063ffffffff16565b612b2a90919063ffffffff16565b905060006118896129f5565b9050600081116118ce576040517f08c379a00000000000000000000000000000000000000000000000000000000081526004016118c5906132b1565b60405180910390fd5b8083600a01540383600a01819055508260000160019054906101000a900473ffffffffffffffffffffffffffffffffffffffff1673ffffffffffffffffffffffffffffffffffffffff1663095ea7b38460020160009054906101000a900473ffffffffffffffffffffffffffffffffffffffff1660006040518363ffffffff1660e01b8152600401611961929190613244565b602060405180830381600087803b15801561197b57600080fd5b505af115801561198f573d6000803e3d6000fd5b505050506040513d601f19601f820116820180604052508101906119b39190612cc4565b508260000160019054906101000a900473ffffffffffffffffffffffffffffffffffffffff1673ffffffffffffffffffffffffffffffffffffffff1663095ea7b38460020160009054906101000a900473ffffffffffffffffffffffffffffffffffffffff16836040518363ffffffff1660e01b8152600401611a3792919061326d565b602060405180830381600087803b158015611a5157600080fd5b505af1158015611a65573d6000803e3d6000fd5b505050506040513d601f19601f82011682018060405250810190611a899190612cc4565b508260020160009054906101000a900473ffffffffffffffffffffffffffffffffffffffff1673ffffffffffffffffffffffffffffffffffffffff1663e2bbb15882896040518363ffffffff1660e01b8152600401611ae9929190613475565b600060405180830381600087803b158015611b0357600080fd5b505af1158015611b17573d6000803e3d6000fd5b505050507f5123d8a168830852333177a82ac00938d8567897d76f68e27c135f5ca9776733338460020160009054906101000a900473ffffffffffffffffffffffffffffffffffffffff1683604051611b72939291906131e4565b60405180910390a16000611ba1611b923a5a612b2a90919063ffffffff16565b84612ae090919063ffffffff16565b90508360100160009054906101000a900473ffffffffffffffffffffffffffffffffffffffff1673ffffffffffffffffffffffffffffffffffffffff16636c55068282336040518363ffffffff1660e01b8152600401611c0292919061344c565b600060405180830381600087803b158015611c1c57600080fd5b505af1158015611c30573d6000803e3d6000fd5b50505050819650505050505050919050565b600080611c4d612a2b565b90508060040154816007015482600a01540281611c6657fe5b0491505090565b600080611c78612a2b565b90508060010160009054906101000a900473ffffffffffffffffffffffffffffffffffffffff1673ffffffffffffffffffffffffffffffffffffffff1663313ce5676040518163ffffffff1660e01b815260040160206040518083038186803b158015611ce457600080fd5b505afa158015611cf8573d6000803e3d6000fd5b505050506040513d601f19601f82011682018060405250810190611d1c9190612d3f565b600a0a611d276123d5565b840281611d3057fe5b04925082915050919050565b600080611d47612a2b565b905080600d01546002611d58611c42565b81611d5f57fe5b0410611d6f5780600d0154611d82565b6002611d79611c42565b81611d8057fe5b045b91505090565b600080611d93612a2b565b905080600e0160009054906101000a900460ff1615611de7576040517f08c379a0000000000000000000000000000000000000000000000000000000008152600401611dde906133b1565b60405180910390fd5b60008311611e2a576040517f08c379a0000000000000000000000000000000000000000000000000000000008152600401611e2190613331565b60405180910390fd5b6000611e34612a2b565b9050600081600401548260050154860281611e4b57fe5b0490508082600b01540182600b01819055506000611e6a828703612045565b9050611e8582870384600a0154612a5890919063ffffffff16565b83600a01819055508260000160019054906101000a900473ffffffffffffffffffffffffffffffffffffffff1673ffffffffffffffffffffffffffffffffffffffff166323b872dd3330896040518463ffffffff1660e01b8152600401611eee939291906131e4565b602060405180830381600087803b158015611f0857600080fd5b505af1158015611f1c573d6000803e3d6000fd5b505050506040513d601f19601f82011682018060405250810190611f409190612cc4565b508260010160009054906101000a900473ffffffffffffffffffffffffffffffffffffffff1673ffffffffffffffffffffffffffffffffffffffff166340c10f1933836040518363ffffffff1660e01b8152600401611fa092919061321b565b600060405180830381600087803b158015611fba57600080fd5b505af1158015611fce573d6000803e3d6000fd5b505050507f08f43333671aca8015183efb2197dac68519c827a11e6788eac8c80131169a64338760405161200392919061321b565b60405180910390a180945050505050919050565b600080612022612a2b565b9050806004015481600801546120366126a0565b028161203e57fe5b0491505090565b600080612050612a2b565b90508060000160019054906101000a900473ffffffffffffffffffffffffffffffffffffffff1673ffffffffffffffffffffffffffffffffffffffff1663313ce5676040518163ffffffff1660e01b815260040160206040518083038186803b1580156120bc57600080fd5b505afa1580156120d0573d6000803e3d6000fd5b505050506040513d601f19601f820116820180604052508101906120f49190612d3f565b600a0a6120ff61137f565b84028161210857fe5b04915050919050565b600061211b612a2b565b90503373ffffffffffffffffffffffffffffffffffffffff1681600f0160009054906101000a900473ffffffffffffffffffffffffffffffffffffffff1673ffffffffffffffffffffffffffffffffffffffff16146121af576040517f08c379a00000000000000000000000000000000000000000000000000000000081526004016121a6906133d1565b60405180910390fd5b60006121b9612a2b565b905060006122853a6122778460100160009054906101000a900473ffffffffffffffffffffffffffffffffffffffff1673ffffffffffffffffffffffffffffffffffffffff166384e9a9016040518163ffffffff1660e01b8152600401602060405180830381600087803b15801561223057600080fd5b505af1158015612244573d6000803e3d6000fd5b505050506040513d601f19601f820116820180604052508101906122689190612d3f565b5a612a5890919063ffffffff16565b612b2a90919063ffffffff16565b90506000612291610924565b146122d1576040517f08c379a00000000000000000000000000000000000000000000000000000000081526004016122c8906133f1565b60405180910390fd5b838260020160006101000a81548173ffffffffffffffffffffffffffffffffffffffff021916908373ffffffffffffffffffffffffffffffffffffffff160217905550600061233b61232c3a5a612b2a90919063ffffffff16565b83612ae090919063ffffffff16565b90508260100160009054906101000a900473ffffffffffffffffffffffffffffffffffffffff1673ffffffffffffffffffffffffffffffffffffffff16636c55068282336040518363ffffffff1660e01b815260040161239c92919061344c565b600060405180830381600087803b1580156123b657600080fd5b505af11580156123ca573d6000803e3d6000fd5b505050505050505050565b6000806123e0612a2b565b905060008160010160009054906101000a900473ffffffffffffffffffffffffffffffffffffffff1673ffffffffffffffffffffffffffffffffffffffff166318160ddd6040518163ffffffff1660e01b815260040160206040518083038186803b15801561244e57600080fd5b505afa158015612462573d6000803e3d6000fd5b505050506040513d601f19601f820116820180604052508101906124869190612d3f565b14806124965750600081600a0154145b6125f4578060010160009054906101000a900473ffffffffffffffffffffffffffffffffffffffff1673ffffffffffffffffffffffffffffffffffffffff166318160ddd6040518163ffffffff1660e01b815260040160206040518083038186803b15801561250457600080fd5b505afa158015612518573d6000803e3d6000fd5b505050506040513d601f19601f8201168201806040525081019061253c9190612d3f565b81600a01548260010160009054906101000a900473ffffffffffffffffffffffffffffffffffffffff1673ffffffffffffffffffffffffffffffffffffffff1663313ce5676040518163ffffffff1660e01b815260040160206040518083038186803b1580156125ab57600080fd5b505afa1580156125bf573d6000803e3d6000fd5b505050506040513d601f19601f820116820180604052508101906125e39190612d3f565b600a0a02816125ee57fe5b0461269a565b8060010160009054906101000a900473ffffffffffffffffffffffffffffffffffffffff1673ffffffffffffffffffffffffffffffffffffffff1663313ce5676040518163ffffffff1660e01b815260040160206040518083038186803b15801561265e57600080fd5b505afa158015612672573d6000803e3d6000fd5b505050506040513d601f19601f820116820180604052508101906126969190612d3f565b600a0a5b91505090565b6000806126ab612a2b565b90506126b5610924565b81600a01540191505090565b6000806126cc612a2b565b90503373ffffffffffffffffffffffffffffffffffffffff1681600f0160009054906101000a900473ffffffffffffffffffffffffffffffffffffffff1673ffffffffffffffffffffffffffffffffffffffff1614612760576040517f08c379a0000000000000000000000000000000000000000000000000000000008152600401612757906133d1565b60405180910390fd5b6000861180156127705750600085115b801561277c5750600084115b6127bb576040517f08c379a00000000000000000000000000000000000000000000000000000000081526004016127b2906132f1565b60405180910390fd5b8486106127fd576040517f08c379a00000000000000000000000000000000000000000000000000000000081526004016127f490613411565b60405180910390fd5b6000612807612a2b565b905060006128d33a6128c58460100160009054906101000a900473ffffffffffffffffffffffffffffffffffffffff1673ffffffffffffffffffffffffffffffffffffffff166384e9a9016040518163ffffffff1660e01b8152600401602060405180830381600087803b15801561287e57600080fd5b505af1158015612892573d6000803e3d6000fd5b505050506040513d601f19601f820116820180604052508101906128b69190612d3f565b5a612a5890919063ffffffff16565b612b2a90919063ffffffff16565b90508782600701819055508682600801819055508582600d018190555060006129176129083a5a612b2a90919063ffffffff16565b83612ae090919063ffffffff16565b90508260100160009054906101000a900473ffffffffffffffffffffffffffffffffffffffff1673ffffffffffffffffffffffffffffffffffffffff16636c55068282336040518363ffffffff1660e01b815260040161297892919061344c565b600060405180830381600087803b15801561299257600080fd5b505af11580156129a6573d6000803e3d6000fd5b5050505060006129b46129f5565b11156129c9576129c386611650565b506129e5565b60006129d361044a565b11156129e4576129e286610f3a565b505b5b6001945050505050949350505050565b60006129ff612017565b612a07610f22565b1115612a2357612a15610403565b612a1d610f22565b03612a26565b60005b905090565b6000807f6c2f2617da7540533aede37184df9fe8d14d2f091e9a392f2685af4b9851d17290508091505090565b600080828401905083811015612ad6576040517f08c379a000000000000000000000000000000000000000000000000000000000815260040180806020018281038252601b8152602001807f536166654d6174683a206164646974696f6e206f766572666c6f77000000000081525060200191505060405180910390fd5b8091505092915050565b6000612b2283836040518060400160405280601f81526020017f536166654d6174683a207375627472616374696f6e20756e646572666c6f7700815250612bb0565b905092915050565b600080831415612b3d5760009050612baa565b6000828402905082848281612b4e57fe5b0414612ba5576040517f08c379a00000000000000000000000000000000000000000000000000000000081526004018080602001828103825260218152602001806135976021913960400191505060405180910390fd5b809150505b92915050565b6000838311158290612c5d576040517f08c379a00000000000000000000000000000000000000000000000000000000081526004018080602001828103825283818151815260200191508051906020019080838360005b83811015612c22578082015181840152602081019050612c07565b50505050905090810190601f168015612c4f5780820380516001836020036101000a031916815260200191505b509250505060405180910390fd5b5060008385039050809150509392505050565b600081519050612c7f81613551565b92915050565b600081359050612c9481613568565b92915050565b600081359050612ca98161357f565b92915050565b600081519050612cbe8161357f565b92915050565b600060208284031215612cd657600080fd5b6000612ce484828501612c70565b91505092915050565b600060208284031215612cff57600080fd5b6000612d0d84828501612c85565b91505092915050565b600060208284031215612d2857600080fd5b6000612d3684828501612c9a565b91505092915050565b600060208284031215612d5157600080fd5b6000612d5f84828501612caf565b91505092915050565b60008060008060808587031215612d7e57600080fd5b6000612d8c87828801612c9a565b9450506020612d9d87828801612c9a565b9350506040612dae87828801612c9a565b9250506060612dbf87828801612c9a565b91505092959194509250565b612dd481613509565b82525050565b612de3816134af565b82525050565b612df2816134c1565b82525050565b612e018161351b565b82525050565b6000612e1460128361349e565b91507f4e6f7468696e6720746f206465706f73697400000000000000000000000000006000830152602082019050919050565b6000612e5460158361349e565b91507f4f6e6c792061646d696e2063616e2063616c6c212100000000000000000000006000830152602082019050919050565b6000612e9460198361349e565b91507f506172616d65746572732063616e74206265207a65726f2121000000000000006000830152602082019050919050565b6000612ed460138361349e565b91507f4e6f7468696e6720746f207769746864726177000000000000000000000000006000830152602082019050919050565b6000612f14600e8361349e565b91507f496e76616c696420416d6f756e740000000000000000000000000000000000006000830152602082019050919050565b6000612f5460298361349e565b91507f446f6e74206861766520656e6f7567682066756e642c20506c6561736520747260008301527f79206c61746572212100000000000000000000000000000000000000000000006020830152604082019050919050565b6000612fba602a8361349e565b91507f446f6e74206861766520656e6f7567682066756e642c20506c6561736520747260008301527f79206c61746572212121000000000000000000000000000000000000000000006020830152604082019050919050565b600061302060218361349e565b91507f596f7520646f6e74206861766520656e6f75676820706f6f6c20746f6b656e2160008301527f21000000000000000000000000000000000000000000000000000000000000006020830152604082019050919050565b600061308660128361349e565b91507f636f6e7472616374206973206c6f636b656400000000000000000000000000006000830152602082019050919050565b60006130c6601b8361349e565b91507f4f6e6c792073757065722061646d696e2063616e2063616c6c212100000000006000830152602082019050919050565b600061310660188361349e565b91507f576974686472617720616c6c2066756e647320666972737400000000000000006000830152602082019050919050565b600061314660328361349e565b91507f4d696e206c69717569646974792063616e74206265206772656174657220746860008301527f616e206d6178206c6971756964697479212100000000000000000000000000006020830152604082019050919050565b6131a8816134ff565b82525050565b60006020820190506131c36000830184612dda565b92915050565b60006020820190506131de6000830184612dcb565b92915050565b60006060820190506131f96000830186612dcb565b6132066020830185612dda565b613213604083018461319f565b949350505050565b60006040820190506132306000830185612dcb565b61323d602083018461319f565b9392505050565b60006040820190506132596000830185612dda565b6132666020830184612df8565b9392505050565b60006040820190506132826000830185612dda565b61328f602083018461319f565b9392505050565b60006020820190506132ab6000830184612de9565b92915050565b600060208201905081810360008301526132ca81612e07565b9050919050565b600060208201905081810360008301526132ea81612e47565b9050919050565b6000602082019050818103600083015261330a81612e87565b9050919050565b6000602082019050818103600083015261332a81612ec7565b9050919050565b6000602082019050818103600083015261334a81612f07565b9050919050565b6000602082019050818103600083015261336a81612f47565b9050919050565b6000602082019050818103600083015261338a81612fad565b9050919050565b600060208201905081810360008301526133aa81613013565b9050919050565b600060208201905081810360008301526133ca81613079565b9050919050565b600060208201905081810360008301526133ea816130b9565b9050919050565b6000602082019050818103600083015261340a816130f9565b9050919050565b6000602082019050818103600083015261342a81613139565b9050919050565b6000602082019050613446600083018461319f565b92915050565b6000604082019050613461600083018561319f565b61346e6020830184612dcb565b9392505050565b600060408201905061348a600083018561319f565b613497602083018461319f565b9392505050565b600082825260208201905092915050565b60006134ba826134df565b9050919050565b60008115159050919050565b60006134d8826134af565b9050919050565b600073ffffffffffffffffffffffffffffffffffffffff82169050919050565b6000819050919050565b60006135148261352d565b9050919050565b6000613526826134ff565b9050919050565b60006135388261353f565b9050919050565b600061354a826134df565b9050919050565b61355a816134c1565b811461356557600080fd5b50565b613571816134cd565b811461357c57600080fd5b50565b613588816134ff565b811461359357600080fd5b5056fe536166654d6174683a206d756c7469706c69636174696f6e206f766572666c6f77a264697066735822122000b4a54e8b49fa694936c6f2cb77030d9da3f6f3977edefc21a95294a7bc6a5564736f6c63430007060033",
  "immutableReferences": {},
  "source": "// SPDX-License-Identifier: UNLICENSED\r\npragma solidity ^0.7.6;\r\npragma experimental ABIEncoderV2;\r\n\r\nimport \"../storage/PoolStorage.sol\";\r\n\r\ncontract AdvancedPool2 is PoolStorageV1 {\r\n    \r\n/****VARIABLES*****/\r\n    using SafeMath for uint256;\r\n   \r\n\r\n/****MODIFIERS*****/\r\n    \r\n    modifier onlyOwner(){\r\n        PoolStorage storage ps = poolStorage();\r\n        require(ps.owner == msg.sender || ps.superOwner == msg.sender, \"Only admin can call!!\");\r\n        _;\r\n    }\r\n    modifier onlySuperOwner(){\r\n        PoolStorage storage ps = poolStorage();\r\n        require(ps.superOwner == msg.sender, \"Only super admin can call!!\");\r\n        _;\r\n    }\r\n    modifier notLocked {\r\n        PoolStorage storage ps = poolStorage();\r\n        require(!ps.locked, \"contract is locked\");\r\n        _;\r\n    }\r\n  \r\n/****EVENTS****/ \r\n    event userDeposits(address user, uint256 amount);\r\n    event userWithdrawal(address user,uint256 amount);\r\n    event poolDeposit(address user, address pool, uint256 amount);\r\n    event poolWithdrawal(address user, address pool, uint256 amount);\r\n\r\n/*****USERS FUNCTIONS****/\r\n\r\n    function stake(uint256 amount) external notLocked() returns(uint256){\r\n        require(amount > 0, 'Invalid Amount');\r\n\r\n        PoolStorage storage ps = poolStorage();\r\n        uint256 feeAmount = amount * ps.depositFees / ps.DENOMINATOR;\r\n        ps.feesCollected = ps.feesCollected + feeAmount;\r\n        uint256 mintAmount = calculatePoolTokens(amount - feeAmount);\r\n        ps.poolBalance = ps.poolBalance.add(amount - feeAmount);\r\n        ps.coin.transferFrom(msg.sender, address(this), amount);\r\n        ps.poolToken.mint(msg.sender, mintAmount);\r\n        emit userDeposits(msg.sender,amount);\r\n        return mintAmount;\r\n    }\r\n\r\n    function unstake(uint256 amount) external notLocked() returns(uint256){\r\n        PoolStorage storage ps = poolStorage();\r\n        require(amount <= maxWithdrawal(), \"Dont have enough fund, Please try later!!\");\r\n        require(amount <= ps.coin.balanceOf(address(this)), \"Dont have enough fund, Please try later!!!\");\r\n        \r\n        uint256 burnAmount = calculatePoolTokens(amount);\r\n        require(burnAmount <= ps.poolToken.balanceOf(msg.sender), \"You dont have enough pool token!!\");\r\n\r\n        uint256 feeAmount = amount * ps.withdrawFees/ ps.DENOMINATOR;\r\n        ps.feesCollected = ps.feesCollected + feeAmount;\r\n        ps.poolBalance = ps.poolBalance.sub(amount);\r\n\r\n        ps.coin.transfer(msg.sender, amount - feeAmount);\r\n        ps.poolToken.burn(msg.sender, burnAmount);  \r\n        emit userWithdrawal(msg.sender, amount);\r\n        return amount - feeAmount;\r\n    }\r\n\r\n/****ADMIN FUNCTIONS*****/\r\n\r\n    function addToStrategy(uint256 minMintAmount) public notLocked() onlyOwner() returns(uint256){\r\n        PoolStorage storage ps = poolStorage();\r\n        uint256 gasAtBegining = (gasleft().add(ps.controller.defaultGas())).mul(tx.gasprice);\r\n        uint256 amount = amountToDeposit();\r\n        require(amount > 0, \"Nothing to deposit\");\r\n        ps.poolBalance = ps.poolBalance - amount;\r\n        ps.coin.approve(address(ps.depositStrategy), 0);\r\n        ps.coin.approve(address(ps.depositStrategy), amount);\r\n        ps.depositStrategy.deposit(amount, minMintAmount);\r\n        emit poolDeposit(msg.sender, address(ps.depositStrategy), amount);\r\n        uint256 gasUsed = gasAtBegining.sub(gasleft().mul(tx.gasprice)); \r\n        ps.controller.updateGasUsed(gasUsed, msg.sender);\r\n        return amount;\r\n    }\r\n    \r\n    function removeFromStrategy(uint256 maxBurnAmount) public notLocked() onlyOwner() returns(uint256){\r\n        PoolStorage storage ps = poolStorage();\r\n        uint256 gasAtBegining = (gasleft().add(ps.controller.defaultGas())).mul(tx.gasprice);\r\n        uint256 amount = amountToWithdraw();\r\n        require(amount > 0 , \"Nothing to withdraw\");\r\n        ps.poolBalance = ps.poolBalance + amount;\r\n        ps.depositStrategy.withdraw(amount, maxBurnAmount);\r\n        emit poolWithdrawal(msg.sender, address(ps.depositStrategy), amount);\r\n        uint256 gasUsed = gasAtBegining.sub(gasleft().mul(tx.gasprice)); \r\n        ps.controller.updateGasUsed(gasUsed, msg.sender); \r\n        return amount;\r\n    }\r\n\r\n    function removeAllFromStrategy(uint256 minAmount) public notLocked() onlySuperOwner(){\r\n        PoolStorage storage ps = poolStorage();\r\n        uint256 gasAtBegining = (gasleft().add(ps.controller.defaultGas())).mul(tx.gasprice);\r\n        require(strategyDeposit() > 0 , \"Nothing to withdraw\");\r\n        uint256 oldBalance = ps.coin.balanceOf(address(this));\r\n        ps.depositStrategy.withdrawAll(minAmount);\r\n        uint256 newBalance = ps.coin.balanceOf(address(this));\r\n        uint256 tokenReceived = newBalance - oldBalance;\r\n        ps.poolBalance = ps.poolBalance + tokenReceived;\r\n        emit poolWithdrawal(msg.sender, address(ps.depositStrategy), tokenReceived);\r\n        uint256 gasUsed = gasAtBegining.sub(gasleft().mul(tx.gasprice)); \r\n        ps.controller.updateGasUsed(gasUsed, msg.sender); \r\n    }\r\n    \r\n    function updateLiquidityParam(uint256 _minLiquidity, uint256 _maxLiquidity, uint256 _maxWithdrawalAllowed, uint256 maxBurnOrMinMint) external onlySuperOwner() returns(bool){\r\n        require(_minLiquidity > 0 &&  _maxLiquidity > 0 && _maxWithdrawalAllowed > 0, 'Parameters cant be zero!!');\r\n        require(_minLiquidity <  _maxLiquidity, 'Min liquidity cant be greater than max liquidity!!');\r\n   \r\n        PoolStorage storage ps = poolStorage();\r\n        uint256 gasAtBegining = (gasleft().add(ps.controller.defaultGas())).mul(tx.gasprice);   \r\n        ps.minLiquidity = _minLiquidity;\r\n        ps.maxLiquidity = _maxLiquidity;\r\n        ps.maxWithdrawalAllowed = _maxWithdrawalAllowed;\r\n        uint256 gasUsed = gasAtBegining.sub(gasleft().mul(tx.gasprice)); \r\n        ps.controller.updateGasUsed(gasUsed, msg.sender);\r\n        if(amountToDeposit() > 0){\r\n            addToStrategy(maxBurnOrMinMint);\r\n        }else if(amountToWithdraw() > 0){\r\n            removeFromStrategy(maxBurnOrMinMint);\r\n        }\r\n        return true;\r\n    }\r\n    \r\n    function updateStrategy(DepositStrategy _newStrategy) public onlySuperOwner(){\r\n        PoolStorage storage ps = poolStorage();\r\n        uint256 gasAtBegining = (gasleft().add(ps.controller.defaultGas())).mul(tx.gasprice);\r\n        require(strategyDeposit() == 0, 'Withdraw all funds first');\r\n        ps.depositStrategy = _newStrategy;\r\n        uint256 gasUsed = gasAtBegining.sub(gasleft().mul(tx.gasprice)); \r\n        ps.controller.updateGasUsed(gasUsed, msg.sender);\r\n    }\r\n\r\n/****OTHER FUNCTIONS****/\r\n\r\n    function calculatePoolTokens(uint256 amountOfStableCoins) public view returns(uint256){\r\n        PoolStorage storage ps = poolStorage();\r\n        return (amountOfStableCoins * stableCoinPrice())/10**ps.coin.decimals() ;\r\n    }\r\n\r\n    function stableCoinPrice() public view returns(uint256){\r\n        PoolStorage storage ps = poolStorage();\r\n        return (ps.poolToken.totalSupply() == 0 || totalDeposit() == 0) ? 10**ps.coin.decimals() : ((10**ps.coin.decimals()) * ps.poolToken.totalSupply())/totalDeposit();\r\n    }\r\n    \r\n    function calculateStableCoins(uint256 amountOfPoolToken) public view returns(uint256){\r\n        PoolStorage storage ps = poolStorage();\r\n        amountOfPoolToken = (amountOfPoolToken*poolTokenPrice())/(10**ps.poolToken.decimals());\r\n        return amountOfPoolToken;\r\n    }\r\n\r\n    function poolTokenPrice() public view returns(uint256){\r\n        PoolStorage storage ps = poolStorage();\r\n        return (ps.poolToken.totalSupply() == 0 || ps.poolBalance == 0) ? 10**ps.poolToken.decimals() : ((10**ps.poolToken.decimals())*ps.poolBalance)/ps.poolToken.totalSupply();\r\n    }\r\n    \r\n    function maxWithdrawal() public view returns(uint256){\r\n        PoolStorage storage ps = poolStorage();\r\n        return minLiquidityToMaintainInPool()/2 < ps.maxWithdrawalAllowed ? minLiquidityToMaintainInPool()/2 : ps.maxWithdrawalAllowed;\r\n    }\r\n\r\n    function currentLiquidity() public view returns(uint256){\r\n        PoolStorage storage ps = poolStorage();\r\n        return ps.poolBalance;\r\n    }\r\n   \r\n    function idealAmount() public view returns(uint256){\r\n        PoolStorage storage ps = poolStorage();\r\n        return (totalDeposit() * (ps.minLiquidity.add(ps.maxLiquidity))) / (2 * ps.DENOMINATOR);\r\n    }\r\n     \r\n    function maxLiquidityAllowedInPool() public view returns(uint256){\r\n        PoolStorage storage ps = poolStorage();\r\n        return totalDeposit() * ps.maxLiquidity / ps.DENOMINATOR;\r\n    }\r\n\r\n    function amountToDeposit() public view returns(uint256){\r\n        return currentLiquidity() <= maxLiquidityAllowedInPool() ? 0 : currentLiquidity() - idealAmount();\r\n    }\r\n    \r\n    function minLiquidityToMaintainInPool() public view returns(uint256){\r\n        PoolStorage storage ps = poolStorage();\r\n        return ps.poolBalance * ps.minLiquidity / ps.DENOMINATOR;\r\n    }\r\n   \r\n    function amountToWithdraw() public view returns(uint256){\r\n        return currentLiquidity() > minLiquidityToMaintainInPool() || strategyDeposit() == 0 || strategyDeposit() < idealAmount() - currentLiquidity() ? 0 : idealAmount() - currentLiquidity();\r\n    }\r\n\r\n    function totalDeposit() public view returns(uint256){\r\n        PoolStorage storage ps = poolStorage();\r\n        return ps.poolBalance + strategyDeposit();\r\n    }\r\n\r\n    function strategyDeposit() public view returns(uint256){\r\n        PoolStorage storage ps = poolStorage();\r\n        return ps.depositStrategy.depositedAmount();\r\n    }\r\n\r\n}",
  "sourcePath": "E:/Projects/AdvancedPool/AdvancedPool/contracts/facets/AdvancedPool2.sol",
  "compiler": {
    "name": "solc",
    "version": "0.7.6+commit.7338295f.Emscripten.clang"
  },
  "schemaVersion": "3.3.2",
  "updatedAt": "2021-06-23T16:16:32.190Z",
  "networkType": "ethereum",
  "devdoc": {
    "kind": "dev",
    "methods": {},
    "version": 1
  },
  "userdoc": {
    "kind": "user",
    "methods": {},
    "version": 1
  }
}