{
  "contractName": "AdvancePool",
  "abi": [
    {
      "anonymous": false,
      "inputs": [
        {
          "indexed": false,
          "internalType": "address",
          "name": "user",
          "type": "address"
        },
        {
          "indexed": false,
          "internalType": "address",
          "name": "pool",
          "type": "address"
        },
        {
          "indexed": false,
          "internalType": "address",
          "name": "coin",
          "type": "address"
        },
        {
          "indexed": false,
          "internalType": "uint256",
          "name": "amount",
          "type": "uint256"
        }
      ],
      "name": "poolDeposit",
      "type": "event"
    },
    {
      "anonymous": false,
      "inputs": [
        {
          "indexed": false,
          "internalType": "address",
          "name": "user",
          "type": "address"
        },
        {
          "indexed": false,
          "internalType": "address",
          "name": "pool",
          "type": "address"
        },
        {
          "indexed": false,
          "internalType": "address",
          "name": "coin",
          "type": "address"
        },
        {
          "indexed": false,
          "internalType": "uint256",
          "name": "amount",
          "type": "uint256"
        }
      ],
      "name": "poolWithdrawal",
      "type": "event"
    },
    {
      "anonymous": false,
      "inputs": [
        {
          "indexed": false,
          "internalType": "address",
          "name": "user",
          "type": "address"
        },
        {
          "indexed": false,
          "internalType": "uint256",
          "name": "amount",
          "type": "uint256"
        }
      ],
      "name": "userDeposits",
      "type": "event"
    },
    {
      "anonymous": false,
      "inputs": [
        {
          "indexed": false,
          "internalType": "address",
          "name": "user",
          "type": "address"
        },
        {
          "indexed": false,
          "internalType": "uint256",
          "name": "amount",
          "type": "uint256"
        }
      ],
      "name": "userWithdrawal",
      "type": "event"
    },
    {
      "inputs": [
        {
          "internalType": "contract IERC20[]",
          "name": "_coins",
          "type": "address[]"
        },
        {
          "internalType": "contract IERC20",
          "name": "_poolToken",
          "type": "address"
        },
        {
          "internalType": "uint256",
          "name": "_minLiquidity",
          "type": "uint256"
        },
        {
          "internalType": "uint256",
          "name": "_maxLiquidity",
          "type": "uint256"
        },
        {
          "internalType": "uint256",
          "name": "_withdrawFees",
          "type": "uint256"
        },
        {
          "internalType": "uint256",
          "name": "_depositFees",
          "type": "uint256"
        },
        {
          "internalType": "contract DepositStrategy[]",
          "name": "_depositStrategies",
          "type": "address[]"
        },
        {
          "internalType": "uint256[]",
          "name": "_strategyForCoin",
          "type": "uint256[]"
        },
        {
          "internalType": "uint256[][]",
          "name": "_coinsPositionInStrategy",
          "type": "uint256[][]"
        }
      ],
      "name": "initialize",
      "outputs": [],
      "stateMutability": "nonpayable",
      "type": "function"
    },
    {
      "inputs": [
        {
          "internalType": "uint256",
          "name": "coinIndex",
          "type": "uint256"
        },
        {
          "internalType": "uint256",
          "name": "amount",
          "type": "uint256"
        }
      ],
      "name": "stake",
      "outputs": [
        {
          "internalType": "uint256",
          "name": "",
          "type": "uint256"
        }
      ],
      "stateMutability": "nonpayable",
      "type": "function"
    },
    {
      "inputs": [
        {
          "internalType": "uint256",
          "name": "coinIndex",
          "type": "uint256"
        },
        {
          "internalType": "uint256",
          "name": "amount",
          "type": "uint256"
        }
      ],
      "name": "unStake",
      "outputs": [
        {
          "internalType": "uint256",
          "name": "",
          "type": "uint256"
        }
      ],
      "stateMutability": "nonpayable",
      "type": "function"
    },
    {
      "inputs": [
        {
          "internalType": "uint256",
          "name": "_minLiquidity",
          "type": "uint256"
        },
        {
          "internalType": "uint256",
          "name": "_maxLiquidity",
          "type": "uint256"
        }
      ],
      "name": "updateLiquidityParam",
      "outputs": [
        {
          "internalType": "bool",
          "name": "",
          "type": "bool"
        }
      ],
      "stateMutability": "nonpayable",
      "type": "function"
    },
    {
      "inputs": [
        {
          "internalType": "uint256",
          "name": "_depositFees",
          "type": "uint256"
        },
        {
          "internalType": "uint256",
          "name": "_withdrawFees",
          "type": "uint256"
        }
      ],
      "name": "updateFees",
      "outputs": [
        {
          "internalType": "bool",
          "name": "",
          "type": "bool"
        }
      ],
      "stateMutability": "nonpayable",
      "type": "function"
    },
    {
      "inputs": [],
      "name": "changeLockStatus",
      "outputs": [
        {
          "internalType": "bool",
          "name": "",
          "type": "bool"
        }
      ],
      "stateMutability": "nonpayable",
      "type": "function"
    },
    {
      "inputs": [
        {
          "internalType": "address",
          "name": "newOwner",
          "type": "address"
        }
      ],
      "name": "transferOwnership",
      "outputs": [
        {
          "internalType": "bool",
          "name": "",
          "type": "bool"
        }
      ],
      "stateMutability": "nonpayable",
      "type": "function"
    },
    {
      "inputs": [
        {
          "internalType": "uint256",
          "name": "strategyIndex",
          "type": "uint256"
        },
        {
          "internalType": "uint256",
          "name": "coinIndex",
          "type": "uint256"
        }
      ],
      "name": "setStrategyRewardCoin",
      "outputs": [
        {
          "internalType": "bool",
          "name": "",
          "type": "bool"
        }
      ],
      "stateMutability": "nonpayable",
      "type": "function"
    },
    {
      "inputs": [
        {
          "internalType": "uint256",
          "name": "coinIndex",
          "type": "uint256"
        }
      ],
      "name": "addToStrategy",
      "outputs": [
        {
          "internalType": "uint256",
          "name": "",
          "type": "uint256"
        }
      ],
      "stateMutability": "nonpayable",
      "type": "function"
    },
    {
      "inputs": [
        {
          "internalType": "uint256",
          "name": "coinIndex",
          "type": "uint256"
        }
      ],
      "name": "removeFromPool",
      "outputs": [
        {
          "internalType": "uint256",
          "name": "",
          "type": "uint256"
        }
      ],
      "stateMutability": "nonpayable",
      "type": "function"
    },
    {
      "inputs": [
        {
          "internalType": "uint256",
          "name": "amountOfStableCoins",
          "type": "uint256"
        },
        {
          "internalType": "uint256",
          "name": "coinIndex",
          "type": "uint256"
        }
      ],
      "name": "calculatePoolTokens",
      "outputs": [
        {
          "internalType": "uint256",
          "name": "",
          "type": "uint256"
        }
      ],
      "stateMutability": "view",
      "type": "function"
    },
    {
      "inputs": [],
      "name": "stableCoinPrice",
      "outputs": [
        {
          "internalType": "uint256",
          "name": "",
          "type": "uint256"
        }
      ],
      "stateMutability": "view",
      "type": "function"
    },
    {
      "inputs": [
        {
          "internalType": "uint256",
          "name": "amountOfPoolToken",
          "type": "uint256"
        },
        {
          "internalType": "uint256",
          "name": "coinIndex",
          "type": "uint256"
        }
      ],
      "name": "calculateStableCoins",
      "outputs": [
        {
          "internalType": "uint256",
          "name": "",
          "type": "uint256"
        }
      ],
      "stateMutability": "view",
      "type": "function"
    },
    {
      "inputs": [],
      "name": "poolTokenPrice",
      "outputs": [
        {
          "internalType": "uint256",
          "name": "",
          "type": "uint256"
        }
      ],
      "stateMutability": "view",
      "type": "function"
    },
    {
      "inputs": [
        {
          "internalType": "uint256",
          "name": "coinIndex",
          "type": "uint256"
        }
      ],
      "name": "maxBurnAllowed",
      "outputs": [
        {
          "internalType": "uint256",
          "name": "",
          "type": "uint256"
        }
      ],
      "stateMutability": "view",
      "type": "function"
    },
    {
      "inputs": [
        {
          "internalType": "uint256",
          "name": "coinIndex",
          "type": "uint256"
        }
      ],
      "name": "currentLiquidity",
      "outputs": [
        {
          "internalType": "uint256",
          "name": "",
          "type": "uint256"
        }
      ],
      "stateMutability": "view",
      "type": "function"
    },
    {
      "inputs": [
        {
          "internalType": "uint256",
          "name": "coinIndex",
          "type": "uint256"
        }
      ],
      "name": "idealAmount",
      "outputs": [
        {
          "internalType": "uint256",
          "name": "",
          "type": "uint256"
        }
      ],
      "stateMutability": "view",
      "type": "function"
    },
    {
      "inputs": [
        {
          "internalType": "uint256",
          "name": "coinIndex",
          "type": "uint256"
        }
      ],
      "name": "maxLiquidityAllowedInPool",
      "outputs": [
        {
          "internalType": "uint256",
          "name": "",
          "type": "uint256"
        }
      ],
      "stateMutability": "view",
      "type": "function"
    },
    {
      "inputs": [
        {
          "internalType": "uint256",
          "name": "coinIndex",
          "type": "uint256"
        }
      ],
      "name": "amountToDeposit",
      "outputs": [
        {
          "internalType": "uint256",
          "name": "",
          "type": "uint256"
        }
      ],
      "stateMutability": "view",
      "type": "function"
    },
    {
      "inputs": [
        {
          "internalType": "uint256",
          "name": "coinIndex",
          "type": "uint256"
        }
      ],
      "name": "minLiquidityToMaintainInPool",
      "outputs": [
        {
          "internalType": "uint256",
          "name": "",
          "type": "uint256"
        }
      ],
      "stateMutability": "view",
      "type": "function"
    },
    {
      "inputs": [
        {
          "internalType": "uint256",
          "name": "coinIndex",
          "type": "uint256"
        }
      ],
      "name": "amountToWithdraw",
      "outputs": [
        {
          "internalType": "uint256",
          "name": "",
          "type": "uint256"
        }
      ],
      "stateMutability": "view",
      "type": "function"
    }
  ],
  "bytecode": "0x608060405234801561001057600080fd5b5061362d806100206000396000f3fe608060405234801561001057600080fd5b50600436106101375760003560e01c80638f8a42c6116100b8578063d0a8bc2c1161007c578063d0a8bc2c146103e6578063d395fbc514610416578063e425534214610434578063f2fde38b14610452578063f9787f9914610482578063ff48c6b4146104b257610137565b80638f8a42c6146102f65780639cb779b214610326578063a756e2ad14610356578063cd1bef2114610386578063cfee76b5146103b657610137565b8063607622af116100ff578063607622af146102065780636db79437146102365780637039206b146102665780637b0472f0146102965780637dc0ac3b146102c657610137565b8063048bfc081461013c57806321f801da1461016c578063372caeb8146101885780633ed18fb7146101b85780635b404bad146101e8575b600080fd5b61015660048036038101906101519190612e68565b6104e2565b6040516101639190613385565b60405180910390f35b61018660048036038101906101819190612cc7565b6105f3565b005b6101a2600480360381019061019d9190612e68565b610810565b6040516101af9190613385565b60405180910390f35b6101d260048036038101906101cd9190612e16565b610cf3565b6040516101df9190613385565b60405180910390f35b6101f0610d2f565b6040516101fd9190613385565b60405180910390f35b610220600480360381019061021b9190612e68565b610eba565b60405161022d919061328a565b60405180910390f35b610250600480360381019061024b9190612e68565b610fe2565b60405161025d919061328a565b60405180910390f35b610280600480360381019061027b9190612e16565b61110a565b60405161028d9190613385565b60405180910390f35b6102b060048036038101906102ab9190612e68565b611572565b6040516102bd9190613385565b60405180910390f35b6102e060048036038101906102db9190612e16565b611917565b6040516102ed9190613385565b60405180910390f35b610310600480360381019061030b9190612e68565b61195e565b60405161031d9190613385565b60405180910390f35b610340600480360381019061033b9190612e68565b611a6f565b60405161034d919061328a565b60405180910390f35b610370600480360381019061036b9190612e16565b611c83565b60405161037d9190613385565b60405180910390f35b6103a0600480360381019061039b9190612e16565b611cc1565b6040516103ad9190613385565b60405180910390f35b6103d060048036038101906103cb9190612e16565b611d03565b6040516103dd9190613385565b60405180910390f35b61040060048036038101906103fb9190612e16565b611d9b565b60405161040d9190613385565b60405180910390f35b61041e612103565b60405161042b919061328a565b60405180910390f35b61043c6121f5565b6040516104499190613385565b60405180910390f35b61046c60048036038101906104679190612c9e565b612380565b604051610479919061328a565b60405180910390f35b61049c60048036038101906104979190612e16565b612479565b6040516104a99190613385565b60405180910390f35b6104cc60048036038101906104c79190612e16565b6124a3565b6040516104d99190613385565b60405180910390f35b6000806104ed6124e1565b90506105d181600101848154811061050157fe5b9060005260206000200160009054906101000a900473ffffffffffffffffffffffffffffffffffffffff1673ffffffffffffffffffffffffffffffffffffffff1663313ce5676040518163ffffffff1660e01b815260040160206040518083038186803b15801561057157600080fd5b505afa158015610585573d6000803e3d6000fd5b505050506040513d601f19601f820116820180604052508101906105a99190612e3f565b600a0a6105c383600501548761250e90919063ffffffff16565b61259490919063ffffffff16565b935080600501546105e0610d2f565b8502816105e957fe5b0491505092915050565b60006105fd6124e1565b90508060000160009054906101000a900460ff1615610651576040517f08c379a000000000000000000000000000000000000000000000000000000000815260040161064890613365565b60405180910390fd5b338160110160016101000a81548173ffffffffffffffffffffffffffffffffffffffff021916908373ffffffffffffffffffffffffffffffffffffffff1602179055506127108160040181905550670de0b6b3a76400008160050181905550898160010190805190602001906106c8929190612836565b50888160020160006101000a81548173ffffffffffffffffffffffffffffffffffffffff021916908373ffffffffffffffffffffffffffffffffffffffff160217905550878160080181905550868160090181905550858160070181905550848160060181905550838160030190805190602001906107489291906128c0565b5060018160000160006101000a81548160ff02191690831515021790555060005b83518110156107ac5783818151811061077e57fe5b602002602001015182600d016000838152602001908152602001600020819055508080600101915050610769565b5060005b8251811015610803578281815181106107c557fe5b602002602001015182600c01600083815260200190815260200160002090805190602001906107f592919061294a565b5080806001019150506107b0565b5050505050505050505050565b60008061081b6124e1565b90508060110160009054906101000a900460ff161561086f576040517f08c379a000000000000000000000000000000000000000000000000000000000815260040161086690613345565b60405180910390fd5b60006108796124e1565b90508060020160009054906101000a900473ffffffffffffffffffffffffffffffffffffffff1673ffffffffffffffffffffffffffffffffffffffff166370a08231336040518263ffffffff1660e01b81526004016108d89190613185565b60206040518083038186803b1580156108f057600080fd5b505afa158015610904573d6000803e3d6000fd5b505050506040513d601f19601f820116820180604052508101906109289190612e3f565b84111561096a576040517f08c379a000000000000000000000000000000000000000000000000000000000815260040161096190613325565b60405180910390fd5b61097385612479565b8411156109b5576040517f08c379a00000000000000000000000000000000000000000000000000000000081526004016109ac90613305565b60405180910390fd5b60006109c1858761195e565b90506000826004015483600701548302816109d857fe5b04905080836010016000898152602001908152602001600020540183601001600089815260200190815260200160002081905550610a3681830384600e0160008a8152602001908152602001600020546125de90919063ffffffff16565b83600e01600089815260200190815260200160002081905550610b49610b36846001018981548110610a6457fe5b9060005260206000200160009054906101000a900473ffffffffffffffffffffffffffffffffffffffff1673ffffffffffffffffffffffffffffffffffffffff1663313ce5676040518163ffffffff1660e01b815260040160206040518083038186803b158015610ad457600080fd5b505afa158015610ae8573d6000803e3d6000fd5b505050506040513d601f19601f82011682018060405250810190610b0c9190612e3f565b600a0a610b28866005015485870361250e90919063ffffffff16565b61259490919063ffffffff16565b84600b01546125de90919063ffffffff16565b83600b0181905550826001018781548110610b6057fe5b9060005260206000200160009054906101000a900473ffffffffffffffffffffffffffffffffffffffff1673ffffffffffffffffffffffffffffffffffffffff1663a9059cbb338385036040518363ffffffff1660e01b8152600401610bc792919061321c565b602060405180830381600087803b158015610be157600080fd5b505af1158015610bf5573d6000803e3d6000fd5b505050506040513d601f19601f82011682018060405250810190610c199190612ded565b508260020160009054906101000a900473ffffffffffffffffffffffffffffffffffffffff1673ffffffffffffffffffffffffffffffffffffffff16639dc29fac33886040518363ffffffff1660e01b8152600401610c7992919061321c565b600060405180830381600087803b158015610c9357600080fd5b505af1158015610ca7573d6000803e3d6000fd5b505050507f42b2a4ad2d4bdf57e819ccd3c6ce6d0a8d6d20b5d3dbf94ef2b05c42f523c6103387604051610cdc92919061321c565b60405180910390a180820394505050505092915050565b6000610cfe826124a3565b610d0783611cc1565b1115610d2557610d1682611917565b610d1f83611cc1565b03610d28565b60005b9050919050565b600080610d3a6124e1565b905060008160020160009054906101000a900473ffffffffffffffffffffffffffffffffffffffff1673ffffffffffffffffffffffffffffffffffffffff166318160ddd6040518163ffffffff1660e01b815260040160206040518083038186803b158015610da857600080fd5b505afa158015610dbc573d6000803e3d6000fd5b505050506040513d601f19601f82011682018060405250810190610de09190612e3f565b1480610df05750600081600b0154145b610eae5780600b01548160020160009054906101000a900473ffffffffffffffffffffffffffffffffffffffff1673ffffffffffffffffffffffffffffffffffffffff166318160ddd6040518163ffffffff1660e01b815260040160206040518083038186803b158015610e6357600080fd5b505afa158015610e77573d6000803e3d6000fd5b505050506040513d601f19601f82011682018060405250810190610e9b9190612e3f565b82600501540281610ea857fe5b04610eb4565b80600501545b91505090565b600080610ec56124e1565b90503373ffffffffffffffffffffffffffffffffffffffff168160110160019054906101000a900473ffffffffffffffffffffffffffffffffffffffff1673ffffffffffffffffffffffffffffffffffffffff1614610f59576040517f08c379a0000000000000000000000000000000000000000000000000000000008152600401610f50906132c5565b60405180910390fd5b6000610f636124e1565b90508060110160009054906101000a900460ff1615610fb7576040517f08c379a0000000000000000000000000000000000000000000000000000000008152600401610fae90613345565b60405180910390fd5b6000610fc16124e1565b90508581600801819055508481600901819055506001935050505092915050565b600080610fed6124e1565b90503373ffffffffffffffffffffffffffffffffffffffff168160110160019054906101000a900473ffffffffffffffffffffffffffffffffffffffff1673ffffffffffffffffffffffffffffffffffffffff1614611081576040517f08c379a0000000000000000000000000000000000000000000000000000000008152600401611078906132c5565b60405180910390fd5b600061108b6124e1565b90508060110160009054906101000a900460ff16156110df576040517f08c379a00000000000000000000000000000000000000000000000000000000081526004016110d690613345565b60405180910390fd5b60006110e96124e1565b90508481600701819055508581600601819055506001935050505092915050565b6000806111156124e1565b90508060110160009054906101000a900460ff1615611169576040517f08c379a000000000000000000000000000000000000000000000000000000000815260040161116090613345565b60405180910390fd5b60006111736124e1565b9050600061118085610cf3565b9050600081116111c5576040517f08c379a00000000000000000000000000000000000000000000000000000000081526004016111bc906132a5565b60405180910390fd5b6111ed8183600f0160008881526020019081526020016000205461262890919063ffffffff16565b82600f01600087815260200190815260200160002081905550600082600d016000878152602001908152602001600020549050611228612997565b60005b84600c01600084815260200190815260200160002080549050811015611311578785600c016000858152602001908152602001600020828154811061126c57fe5b906000526020600020015414156112c257838286600c016000868152602001908152602001600020838154811061129f57fe5b9060005260206000200154600a81106112b457fe5b602002018181525050611304565b60008286600c01600086815260200190815260200160002083815481106112e557fe5b9060005260206000200154600a81106112fa57fe5b6020020181815250505b808060010191505061122b565b5083600101878154811061132157fe5b9060005260206000200160009054906101000a900473ffffffffffffffffffffffffffffffffffffffff1673ffffffffffffffffffffffffffffffffffffffff1663095ea7b385600301848154811061137657fe5b9060005260206000200160009054906101000a900473ffffffffffffffffffffffffffffffffffffffff16856040518363ffffffff1660e01b81526004016113bf929190613245565b602060405180830381600087803b1580156113d957600080fd5b505af11580156113ed573d6000803e3d6000fd5b505050506040513d601f19601f820116820180604052508101906114119190612ded565b5083600301828154811061142157fe5b9060005260206000200160009054906101000a900473ffffffffffffffffffffffffffffffffffffffff1673ffffffffffffffffffffffffffffffffffffffff1663a9834c6d826040518263ffffffff1660e01b8152600401611484919061326e565b600060405180830381600087803b15801561149e57600080fd5b505af11580156114b2573d6000803e3d6000fd5b505050507f8a3c46035b966898b4542598f6680f7d7644bad07f874b70c3e034f33c7a78ff338560030184815481106114e757fe5b9060005260206000200160009054906101000a900473ffffffffffffffffffffffffffffffffffffffff16866001018a8154811061152157fe5b9060005260206000200160009054906101000a900473ffffffffffffffffffffffffffffffffffffffff168660405161155d94939291906131a0565b60405180910390a18295505050505050919050565b60008061157d6124e1565b90508060110160009054906101000a900460ff16156115d1576040517f08c379a00000000000000000000000000000000000000000000000000000000081526004016115c890613345565b60405180910390fd5b60006115db6124e1565b90506000816004015482600601548602816115f257fe5b0490508082601001600088815260200190815260200160002054018260100160008881526020019081526020016000208190555061164e8583600e0160008981526020019081526020016000205461262890919063ffffffff16565b82600e0160008881526020019081526020016000208190555061175f61174c83600101888154811061167c57fe5b9060005260206000200160009054906101000a900473ffffffffffffffffffffffffffffffffffffffff1673ffffffffffffffffffffffffffffffffffffffff1663313ce5676040518163ffffffff1660e01b815260040160206040518083038186803b1580156116ec57600080fd5b505afa158015611700573d6000803e3d6000fd5b505050506040513d601f19601f820116820180604052508101906117249190612e3f565b600a0a61173e85600501548961250e90919063ffffffff16565b61259490919063ffffffff16565b83600b015461262890919063ffffffff16565b82600b01819055506000611775828703886104e2565b905082600101878154811061178657fe5b9060005260206000200160009054906101000a900473ffffffffffffffffffffffffffffffffffffffff1673ffffffffffffffffffffffffffffffffffffffff166323b872dd3330896040518463ffffffff1660e01b81526004016117ed939291906131e5565b602060405180830381600087803b15801561180757600080fd5b505af115801561181b573d6000803e3d6000fd5b505050506040513d601f19601f8201168201806040525081019061183f9190612ded565b508260020160009054906101000a900473ffffffffffffffffffffffffffffffffffffffff1673ffffffffffffffffffffffffffffffffffffffff166340c10f1933836040518363ffffffff1660e01b815260040161189f92919061321c565b600060405180830381600087803b1580156118b957600080fd5b505af11580156118cd573d6000803e3d6000fd5b505050507f08f43333671aca8015183efb2197dac68519c827a11e6788eac8c80131169a64338760405161190292919061321c565b60405180910390a18094505050505092915050565b6000806119226124e1565b90508060040154600202816009015482600801540182600e01600086815260200190815260200160002054028161195557fe5b04915050919050565b6000806119696124e1565b905080600501546119786121f5565b85028161198157fe5b049350611a668160050154611a5883600101868154811061199e57fe5b9060005260206000200160009054906101000a900473ffffffffffffffffffffffffffffffffffffffff1673ffffffffffffffffffffffffffffffffffffffff1663313ce5676040518163ffffffff1660e01b815260040160206040518083038186803b158015611a0e57600080fd5b505afa158015611a22573d6000803e3d6000fd5b505050506040513d601f19601f82011682018060405250810190611a469190612e3f565b600a0a8761250e90919063ffffffff16565b61259490919063ffffffff16565b91505092915050565b600080611a7a6124e1565b90503373ffffffffffffffffffffffffffffffffffffffff168160110160019054906101000a900473ffffffffffffffffffffffffffffffffffffffff1673ffffffffffffffffffffffffffffffffffffffff1614611b0e576040517f08c379a0000000000000000000000000000000000000000000000000000000008152600401611b05906132c5565b60405180910390fd5b6000611b186124e1565b90508060110160009054906101000a900460ff1615611b6c576040517f08c379a0000000000000000000000000000000000000000000000000000000008152600401611b6390613345565b60405180910390fd5b6000611b766124e1565b9050806003018681548110611b8757fe5b9060005260206000200160009054906101000a900473ffffffffffffffffffffffffffffffffffffffff1673ffffffffffffffffffffffffffffffffffffffff1663b7fdf784826001018781548110611bdc57fe5b9060005260206000200160009054906101000a900473ffffffffffffffffffffffffffffffffffffffff166040518263ffffffff1660e01b8152600401611c23919061316a565b602060405180830381600087803b158015611c3d57600080fd5b505af1158015611c51573d6000803e3d6000fd5b505050506040513d601f19601f82011682018060405250810190611c759190612ded565b506001935050505092915050565b600080611c8e6124e1565b90508060040154816008015482600e016000868152602001908152602001600020540281611cb857fe5b04915050919050565b600080611ccc6124e1565b905080600f0160008481526020019081526020016000205481600e0160008581526020019081526020016000205403915050919050565b600080611d0e6124e1565b9050611d1983611c83565b611d2284611cc1565b1180611d435750600081600f01600085815260200190815260200160002054145b80611d745750611d5283611cc1565b611d5b84611917565b0381600f01600085815260200190815260200160002054105b611d9057611d8183611cc1565b611d8a84611917565b03611d93565b60005b915050919050565b600080611da66124e1565b90508060110160009054906101000a900460ff1615611dfa576040517f08c379a0000000000000000000000000000000000000000000000000000000008152600401611df190613345565b60405180910390fd5b6000611e046124e1565b90506000611e1185611d03565b905060008111611e56576040517f08c379a0000000000000000000000000000000000000000000000000000000008152600401611e4d906132e5565b60405180910390fd5b611e7e8183600f016000888152602001908152602001600020546125de90919063ffffffff16565b82600f01600087815260200190815260200160002081905550600082600d016000878152602001908152602001600020549050611eb9612997565b60005b84600c01600084815260200190815260200160002080549050811015611fa2578785600c0160008581526020019081526020016000208281548110611efd57fe5b90600052602060002001541415611f5357838286600c0160008681526020019081526020016000208381548110611f3057fe5b9060005260206000200154600a8110611f4557fe5b602002018181525050611f95565b60008286600c0160008681526020019081526020016000208381548110611f7657fe5b9060005260206000200154600a8110611f8b57fe5b6020020181815250505b8080600101915050611ebc565b50836003018281548110611fb257fe5b9060005260206000200160009054906101000a900473ffffffffffffffffffffffffffffffffffffffff1673ffffffffffffffffffffffffffffffffffffffff166345ce0360826040518263ffffffff1660e01b8152600401612015919061326e565b600060405180830381600087803b15801561202f57600080fd5b505af1158015612043573d6000803e3d6000fd5b505050507f2441be9fc17408ea9902cf641305826f3b04cff339db1e0df3e9849d9bbd2e823385600301848154811061207857fe5b9060005260206000200160009054906101000a900473ffffffffffffffffffffffffffffffffffffffff16866001018a815481106120b257fe5b9060005260206000200160009054906101000a900473ffffffffffffffffffffffffffffffffffffffff16866040516120ee94939291906131a0565b60405180910390a18295505050505050919050565b60008061210e6124e1565b90503373ffffffffffffffffffffffffffffffffffffffff168160110160019054906101000a900473ffffffffffffffffffffffffffffffffffffffff1673ffffffffffffffffffffffffffffffffffffffff16146121a2576040517f08c379a0000000000000000000000000000000000000000000000000000000008152600401612199906132c5565b60405180910390fd5b60006121ac6124e1565b90508060110160009054906101000a900460ff16158160110160006101000a81548160ff0219169083151502179055508060110160009054906101000a900460ff169250505090565b6000806122006124e1565b905060008160020160009054906101000a900473ffffffffffffffffffffffffffffffffffffffff1673ffffffffffffffffffffffffffffffffffffffff166318160ddd6040518163ffffffff1660e01b815260040160206040518083038186803b15801561226e57600080fd5b505afa158015612282573d6000803e3d6000fd5b505050506040513d601f19601f820116820180604052508101906122a69190612e3f565b14806122b65750600081600b0154145b612374578060020160009054906101000a900473ffffffffffffffffffffffffffffffffffffffff1673ffffffffffffffffffffffffffffffffffffffff166318160ddd6040518163ffffffff1660e01b815260040160206040518083038186803b15801561232457600080fd5b505afa158015612338573d6000803e3d6000fd5b505050506040513d601f19601f8201168201806040525081019061235c9190612e3f565b81600b01548260050154028161236e57fe5b0461237a565b80600501545b91505090565b60008061238b6124e1565b90503373ffffffffffffffffffffffffffffffffffffffff168160110160019054906101000a900473ffffffffffffffffffffffffffffffffffffffff1673ffffffffffffffffffffffffffffffffffffffff161461241f576040517f08c379a0000000000000000000000000000000000000000000000000000000008152600401612416906132c5565b60405180910390fd5b60006124296124e1565b9050838160110160016101000a81548173ffffffffffffffffffffffffffffffffffffffff021916908373ffffffffffffffffffffffffffffffffffffffff160217905550600192505050919050565b600080600261248784611c83565b8161248e57fe5b04905061249b81846104e2565b915050919050565b6000806124ae6124e1565b90508060040154816009015482600e0160008681526020019081526020016000205402816124d857fe5b04915050919050565b6000807f6c2f2617da7540533aede37184df9fe8d14d2f091e9a392f2685af4b9851d17290508091505090565b600080831415612521576000905061258e565b600082840290508284828161253257fe5b0414612589576040517f08c379a00000000000000000000000000000000000000000000000000000000081526004018080602001828103825260218152602001806135d76021913960400191505060405180910390fd5b809150505b92915050565b60006125d683836040518060400160405280601a81526020017f536166654d6174683a206469766973696f6e206279207a65726f0000000000008152506126b0565b905092915050565b600061262083836040518060400160405280601f81526020017f536166654d6174683a207375627472616374696f6e20756e646572666c6f7700815250612776565b905092915050565b6000808284019050838110156126a6576040517f08c379a000000000000000000000000000000000000000000000000000000000815260040180806020018281038252601b8152602001807f536166654d6174683a206164646974696f6e206f766572666c6f77000000000081525060200191505060405180910390fd5b8091505092915050565b6000808311829061275c576040517f08c379a00000000000000000000000000000000000000000000000000000000081526004018080602001828103825283818151815260200191508051906020019080838360005b83811015612721578082015181840152602081019050612706565b50505050905090810190601f16801561274e5780820380516001836020036101000a031916815260200191505b509250505060405180910390fd5b50600083858161276857fe5b049050809150509392505050565b6000838311158290612823576040517f08c379a00000000000000000000000000000000000000000000000000000000081526004018080602001828103825283818151815260200191508051906020019080838360005b838110156127e85780820151818401526020810190506127cd565b50505050905090810190601f1680156128155780820380516001836020036101000a031916815260200191505b509250505060405180910390fd5b5060008385039050809150509392505050565b8280548282559060005260206000209081019282156128af579160200282015b828111156128ae5782518260006101000a81548173ffffffffffffffffffffffffffffffffffffffff021916908373ffffffffffffffffffffffffffffffffffffffff16021790555091602001919060010190612856565b5b5090506128bc91906129ba565b5090565b828054828255906000526020600020908101928215612939579160200282015b828111156129385782518260006101000a81548173ffffffffffffffffffffffffffffffffffffffff021916908373ffffffffffffffffffffffffffffffffffffffff160217905550916020019190600101906128e0565b5b50905061294691906129ba565b5090565b828054828255906000526020600020908101928215612986579160200282015b8281111561298557825182559160200191906001019061296a565b5b50905061299391906129ba565b5090565b604051806101400160405280600a90602082028036833780820191505090505090565b5b808211156129d35760008160009055506001016129bb565b5090565b60006129ea6129e5846133d1565b6133a0565b9050808382526020820190508260005b85811015612a2a5781358501612a108882612c0b565b8452602084019350602083019250506001810190506129fa565b5050509392505050565b6000612a47612a42846133fd565b6133a0565b90508083825260208201905082856020860282011115612a6657600080fd5b60005b85811015612a965781612a7c8882612c4a565b845260208401935060208301925050600181019050612a69565b5050509392505050565b6000612ab3612aae84613429565b6133a0565b90508083825260208201905082856020860282011115612ad257600080fd5b60005b85811015612b025781612ae88882612c5f565b845260208401935060208301925050600181019050612ad5565b5050509392505050565b6000612b1f612b1a84613455565b6133a0565b90508083825260208201905082856020860282011115612b3e57600080fd5b60005b85811015612b6e5781612b548882612c74565b845260208401935060208301925050600181019050612b41565b5050509392505050565b600081359050612b8781613563565b92915050565b600082601f830112612b9e57600080fd5b8135612bae8482602086016129d7565b91505092915050565b600082601f830112612bc857600080fd5b8135612bd8848260208601612a34565b91505092915050565b600082601f830112612bf257600080fd5b8135612c02848260208601612aa0565b91505092915050565b600082601f830112612c1c57600080fd5b8135612c2c848260208601612b0c565b91505092915050565b600081519050612c448161357a565b92915050565b600081359050612c5981613591565b92915050565b600081359050612c6e816135a8565b92915050565b600081359050612c83816135bf565b92915050565b600081519050612c98816135bf565b92915050565b600060208284031215612cb057600080fd5b6000612cbe84828501612b78565b91505092915050565b60008060008060008060008060006101208a8c031215612ce657600080fd5b60008a013567ffffffffffffffff811115612d0057600080fd5b612d0c8c828d01612be1565b9950506020612d1d8c828d01612c5f565b9850506040612d2e8c828d01612c74565b9750506060612d3f8c828d01612c74565b9650506080612d508c828d01612c74565b95505060a0612d618c828d01612c74565b94505060c08a013567ffffffffffffffff811115612d7e57600080fd5b612d8a8c828d01612bb7565b93505060e08a013567ffffffffffffffff811115612da757600080fd5b612db38c828d01612c0b565b9250506101008a013567ffffffffffffffff811115612dd157600080fd5b612ddd8c828d01612b8d565b9150509295985092959850929598565b600060208284031215612dff57600080fd5b6000612e0d84828501612c35565b91505092915050565b600060208284031215612e2857600080fd5b6000612e3684828501612c74565b91505092915050565b600060208284031215612e5157600080fd5b6000612e5f84828501612c89565b91505092915050565b60008060408385031215612e7b57600080fd5b6000612e8985828601612c74565b9250506020612e9a85828601612c74565b9150509250929050565b6000612eb0838361314c565b60208301905092915050565b612ec58161352b565b82525050565b612ed4816134bf565b82525050565b612ee38161348b565b612eed81846134a3565b9250612ef882613481565b8060005b83811015612f29578151612f108782612ea4565b9650612f1b83613496565b925050600181019050612efc565b505050505050565b612f3a816134d1565b82525050565b6000612f4d6012836134ae565b91507f4e6f7468696e6720746f206465706f73697400000000000000000000000000006000830152602082019050919050565b6000612f8d6015836134ae565b91507f4f6e6c792061646d696e2063616e2063616c6c212100000000000000000000006000830152602082019050919050565b6000612fcd6013836134ae565b91507f4e6f7468696e6720746f207769746864726177000000000000000000000000006000830152602082019050919050565b600061300d6029836134ae565b91507f446f6e74206861766520656e6f7567682066756e642c20506c6561736520747260008301527f79206c61746572212100000000000000000000000000000000000000000000006020830152604082019050919050565b60006130736021836134ae565b91507f596f7520646f6e74206861766520656e6f75676820706f6f6c20746f6b656e2160008301527f21000000000000000000000000000000000000000000000000000000000000006020830152604082019050919050565b60006130d96012836134ae565b91507f636f6e7472616374206973206c6f636b656400000000000000000000000000006000830152602082019050919050565b60006131196013836134ae565b91507f416c726561647920696e697469616c697a6564000000000000000000000000006000830152602082019050919050565b61315581613521565b82525050565b61316481613521565b82525050565b600060208201905061317f6000830184612ecb565b92915050565b600060208201905061319a6000830184612ebc565b92915050565b60006080820190506131b56000830187612ebc565b6131c26020830186612ecb565b6131cf6040830185612ecb565b6131dc606083018461315b565b95945050505050565b60006060820190506131fa6000830186612ebc565b6132076020830185612ecb565b613214604083018461315b565b949350505050565b60006040820190506132316000830185612ebc565b61323e602083018461315b565b9392505050565b600060408201905061325a6000830185612ecb565b613267602083018461315b565b9392505050565b6000610140820190506132846000830184612eda565b92915050565b600060208201905061329f6000830184612f31565b92915050565b600060208201905081810360008301526132be81612f40565b9050919050565b600060208201905081810360008301526132de81612f80565b9050919050565b600060208201905081810360008301526132fe81612fc0565b9050919050565b6000602082019050818103600083015261331e81613000565b9050919050565b6000602082019050818103600083015261333e81613066565b9050919050565b6000602082019050818103600083015261335e816130cc565b9050919050565b6000602082019050818103600083015261337e8161310c565b9050919050565b600060208201905061339a600083018461315b565b92915050565b6000604051905081810181811067ffffffffffffffff821117156133c7576133c6613561565b5b8060405250919050565b600067ffffffffffffffff8211156133ec576133eb613561565b5b602082029050602081019050919050565b600067ffffffffffffffff82111561341857613417613561565b5b602082029050602081019050919050565b600067ffffffffffffffff82111561344457613443613561565b5b602082029050602081019050919050565b600067ffffffffffffffff8211156134705761346f613561565b5b602082029050602081019050919050565b6000819050919050565b6000600a9050919050565b6000602082019050919050565b600081905092915050565b600082825260208201905092915050565b60006134ca82613501565b9050919050565b60008115159050919050565b60006134e8826134bf565b9050919050565b60006134fa826134bf565b9050919050565b600073ffffffffffffffffffffffffffffffffffffffff82169050919050565b6000819050919050565b60006135368261353d565b9050919050565b60006135488261354f565b9050919050565b600061355a82613501565b9050919050565bfe5b61356c816134bf565b811461357757600080fd5b50565b613583816134d1565b811461358e57600080fd5b50565b61359a816134dd565b81146135a557600080fd5b50565b6135b1816134ef565b81146135bc57600080fd5b50565b6135c881613521565b81146135d357600080fd5b5056fe536166654d6174683a206d756c7469706c69636174696f6e206f766572666c6f77a2646970667358221220e0a883388c26c7c223380f295d7fbe1537b33f0054f00d49833e6581ad4dcaa264736f6c63430007060033",
  "immutableReferences": {},
  "source": "// SPDX-License-Identifier: UNLICENSED\r\npragma solidity ^0.7.6;\r\npragma experimental ABIEncoderV2;\r\nimport \"../storage/PoolStorage.sol\";\r\ncontract AdvancePool is PoolStorageV1 {\r\n    \r\n/****VARIABLES*****/\r\n    using SafeMath for uint256;\r\n   \r\n\r\n/****MODIFIERS*****/\r\n    \r\n    modifier onlyOnwer(){\r\n        PoolStorage storage ps = poolStorage();\r\n        require(ps.owner == msg.sender, \"Only admin can call!!\");\r\n        _;\r\n    }\r\n    modifier notLocked {\r\n        PoolStorage storage ps = poolStorage();\r\n        require(!ps.locked, \"contract is locked\");\r\n        _;\r\n    }\r\n  \r\n/****EVENTS****/ \r\n    event userDeposits(address user,uint amount);\r\n    event userWithdrawal(address user,uint amount);\r\n    event poolDeposit(address user, address pool, address coin, uint amount);\r\n    event poolWithdrawal(address user, address pool, address coin, uint amount);\r\n    \r\n/****CONSTRUCTOR****/\r\n    function initialize(\r\n        IERC20[] memory _coins,\r\n        IERC20 _poolToken, \r\n        uint256 _minLiquidity, \r\n        uint256 _maxLiquidity, \r\n        uint256 _withdrawFees, \r\n        uint256 _depositFees,\r\n        DepositStrategy[] memory _depositStrategies,\r\n        uint256[] memory _strategyForCoin,\r\n        uint256[][] memory _coinsPositionInStrategy\r\n    ) public {\r\n        PoolStorage storage ps = poolStorage();\r\n        require(!ps.initialized, 'Already initialized');\r\n        ps.owner = msg.sender;\r\n        ps.DENOMINATOR = 10000;\r\n        ps.PRECISION = 10**18;\r\n        ps.coins = _coins;\r\n        ps.poolToken = _poolToken;\r\n        ps.minLiquidity = _minLiquidity;\r\n        ps.maxLiquidity = _maxLiquidity;\r\n        ps.withdrawFees = _withdrawFees;\r\n        ps.depositFees = _depositFees;\r\n        ps.depositStrategies = _depositStrategies;\r\n        ps.initialized = true;\r\n        for(uint256 i = 0; i < _strategyForCoin.length; i++){\r\n            ps.strategyForCoin[i] = _strategyForCoin[i];\r\n        }\r\n        for(uint256 i = 0; i < _coinsPositionInStrategy.length; i++){\r\n            ps.coinsPositionInStrategy[i] = _coinsPositionInStrategy[i];\r\n        }\r\n    }\r\n    \r\n/*****USERS FUNCTIONS****/\r\n    // amount will be in coins precision\r\n    function stake(uint256 coinIndex, uint256 amount) external notLocked() returns(uint256){\r\n        PoolStorage storage ps = poolStorage();\r\n        uint256 feeAmount = amount * ps.depositFees / ps.DENOMINATOR;\r\n        ps.feesCollected[coinIndex] = ps.feesCollected[coinIndex] + feeAmount;\r\n        ps.poolBalances[coinIndex] = ps.poolBalances[coinIndex].add(amount);\r\n        ps.totalStaked = ps.totalStaked.add(amount.mul(ps.PRECISION).div(10**ps.coins[coinIndex].decimals()));\r\n        uint256 mintAmount = calculatePoolTokens(amount - feeAmount, coinIndex);\r\n        ps.coins[coinIndex].transferFrom(msg.sender, address(this), amount);\r\n        ps.poolToken.mint(msg.sender, mintAmount);\r\n        emit userDeposits(msg.sender,amount);\r\n        return mintAmount;\r\n    }\r\n    \r\n    //amount is the amount of LP token user want to burn\r\n    function unStake(uint256 coinIndex, uint256 amount) external notLocked() returns(uint256){\r\n        PoolStorage storage ps = poolStorage();\r\n        require(amount <= ps.poolToken.balanceOf(msg.sender), \"You dont have enough pool token!!\");\r\n        require(amount <= maxBurnAllowed(coinIndex), \"Dont have enough fund, Please try later!!\");\r\n        uint256 tokenAmount = calculateStableCoins(amount, coinIndex);\r\n        uint256 feeAmount = tokenAmount * ps.withdrawFees/ ps.DENOMINATOR;\r\n        ps.feesCollected[coinIndex] = ps.feesCollected[coinIndex] + feeAmount;\r\n        ps.poolBalances[coinIndex] = ps.poolBalances[coinIndex].sub(tokenAmount - feeAmount);\r\n        ps.totalStaked = ps.totalStaked.sub((tokenAmount - feeAmount).mul(ps.PRECISION).div(10**ps.coins[coinIndex].decimals()));\r\n        ps.coins[coinIndex].transfer(msg.sender, tokenAmount - feeAmount);\r\n        ps.poolToken.burn(msg.sender, amount);  \r\n        emit userWithdrawal(msg.sender,amount);\r\n        return tokenAmount - feeAmount;\r\n    }\r\n    \r\n/****ADMIN FUNCTIONS*****/\r\n    \r\n    function updateLiquidityParam(uint256 _minLiquidity, uint256 _maxLiquidity) external onlyOnwer() notLocked() returns(bool){\r\n        PoolStorage storage ps = poolStorage();\r\n        ps.minLiquidity = _minLiquidity;\r\n        ps.maxLiquidity = _maxLiquidity;\r\n        return true;\r\n    }\r\n    \r\n    function updateFees(uint256 _depositFees, uint256 _withdrawFees) external onlyOnwer() notLocked() returns(bool){\r\n        PoolStorage storage ps = poolStorage();\r\n        ps.withdrawFees = _withdrawFees;\r\n        ps.depositFees = _depositFees;\r\n        return true;\r\n    }\r\n    \r\n    function changeLockStatus() external onlyOnwer() returns(bool){\r\n        PoolStorage storage ps = poolStorage();\r\n        ps.locked = !ps.locked;\r\n        return ps.locked;\r\n    }\r\n    \r\n    function transferOwnership(address newOwner) external onlyOnwer() returns(bool){\r\n        PoolStorage storage ps = poolStorage();\r\n        ps.owner = newOwner;\r\n        return true;\r\n    } \r\n    \r\n    function setStrategyRewardCoin(uint256 strategyIndex, uint256 coinIndex) external onlyOnwer() notLocked() returns(bool){\r\n        PoolStorage storage ps = poolStorage();\r\n        ps.depositStrategies[strategyIndex].setRewardCoin(address(ps.coins[coinIndex]));\r\n        return true;\r\n    }\r\n    \r\n/****POOL FUNCTIONS****/\r\n\r\n    function addToStrategy(uint256 coinIndex) external notLocked() returns(uint256){\r\n        PoolStorage storage ps = poolStorage();\r\n        uint256 amount = amountToDeposit(coinIndex);\r\n        require(amount > 0 , \"Nothing to deposit\");\r\n        ps.coinsDepositInStrategy[coinIndex] = ps.coinsDepositInStrategy[coinIndex].add(amount);\r\n        uint256 strategyIndex = ps.strategyForCoin[coinIndex];\r\n        uint256[10] memory amounts;\r\n        for(uint256 i = 0; i < ps.coinsPositionInStrategy[strategyIndex].length; i++ ){\r\n            if(ps.coinsPositionInStrategy[strategyIndex][i] == coinIndex){\r\n                amounts[ps.coinsPositionInStrategy[strategyIndex][i]] = amount;\r\n            }\r\n            else{\r\n                amounts[ps.coinsPositionInStrategy[strategyIndex][i]] = 0;\r\n            }\r\n        }\r\n        ps.coins[coinIndex].approve(address(ps.depositStrategies[strategyIndex]), amount);\r\n        ps.depositStrategies[strategyIndex].deposit(amounts);\r\n        emit poolDeposit(msg.sender, address(ps.depositStrategies[strategyIndex]), address(ps.coins[coinIndex]), amount);\r\n        return amount;\r\n        \r\n    }\r\n    \r\n    function removeFromPool(uint256 coinIndex) external notLocked() returns(uint256){\r\n        PoolStorage storage ps = poolStorage();\r\n        uint256 amount = amountToWithdraw(coinIndex);\r\n        require(amount > 0 , \"Nothing to withdraw\");\r\n        ps.coinsDepositInStrategy[coinIndex] = ps.coinsDepositInStrategy[coinIndex].sub(amount);\r\n        uint256 strategyIndex = ps.strategyForCoin[coinIndex];\r\n        uint256[10] memory amounts;\r\n        for(uint256 i = 0; i < ps.coinsPositionInStrategy[strategyIndex].length; i++ ){\r\n            if(ps.coinsPositionInStrategy[strategyIndex][i] == coinIndex){\r\n                amounts[ps.coinsPositionInStrategy[strategyIndex][i]] = amount;\r\n            }\r\n            else{\r\n                amounts[ps.coinsPositionInStrategy[strategyIndex][i]] = 0;\r\n            }\r\n        }\r\n        ps.depositStrategies[strategyIndex].withdraw(amounts);\r\n        emit poolWithdrawal(msg.sender, address(ps.depositStrategies[strategyIndex]), address(ps.coins[coinIndex]),  amount);\r\n        return amount;\r\n    }\r\n    \r\n/****OTHER FUNCTIONS****/\r\n    \r\n    //TOKEN MUST BE SENT IN COINS PRECISION\r\n    function calculatePoolTokens(uint256 amountOfStableCoins, uint256 coinIndex) public view returns(uint256){\r\n        PoolStorage storage ps = poolStorage();\r\n        amountOfStableCoins = amountOfStableCoins.mul(ps.PRECISION).div(10**ps.coins[coinIndex].decimals());\r\n        return amountOfStableCoins * stableCoinPrice() / ps.PRECISION;\r\n    }\r\n    \r\n    //Returning in pool token PRECISION\r\n    function stableCoinPrice() public view returns(uint256){\r\n        PoolStorage storage ps = poolStorage();\r\n        return (ps.poolToken.totalSupply() == 0 || ps.totalStaked == 0) ? ps.PRECISION : ps.PRECISION * ps.poolToken.totalSupply()/ps.totalStaked;\r\n    }\r\n    \r\n       //RETURNING IN COIN PRECISION\r\n    function calculateStableCoins(uint256 amountOfPoolToken, uint256 coinIndex) public view returns(uint256){\r\n        PoolStorage storage ps = poolStorage();\r\n        amountOfPoolToken = amountOfPoolToken * poolTokenPrice() / ps.PRECISION;\r\n        return amountOfPoolToken.mul(10 ** ps.coins[coinIndex].decimals()).div(ps.PRECISION);\r\n    }\r\n    \r\n     function poolTokenPrice() public view returns(uint256){\r\n        PoolStorage storage ps = poolStorage();\r\n        return (ps.poolToken.totalSupply() == 0 || ps.totalStaked == 0) ? ps.PRECISION : ps.PRECISION * ps.totalStaked/ps.poolToken.totalSupply();\r\n    }\r\n    \r\n    \r\n    // returning max number of pool token that can be burnt\r\n    // if min is also less than actual\r\n    function maxBurnAllowed(uint256 coinIndex) public view returns(uint256){\r\n        uint256 maxTokenAmount = minLiquidityToMaintainInPool(coinIndex)/2;\r\n        return calculatePoolTokens(maxTokenAmount, coinIndex);\r\n    }\r\n    \r\n    function currentLiquidity(uint256 coinIndex) public view returns(uint256){\r\n        PoolStorage storage ps = poolStorage();\r\n        return ps.poolBalances[coinIndex] - ps.coinsDepositInStrategy[coinIndex];\r\n    }\r\n   \r\n    function idealAmount(uint256 coinIndex) public view returns(uint256){\r\n        PoolStorage storage ps = poolStorage();\r\n        return ps.poolBalances[coinIndex] * (ps.minLiquidity + ps.maxLiquidity) / (2 * ps.DENOMINATOR);\r\n    }\r\n     \r\n    function maxLiquidityAllowedInPool(uint256 coinIndex) public view returns(uint256){\r\n        PoolStorage storage ps = poolStorage();\r\n        return ps.poolBalances[coinIndex] * ps.maxLiquidity / ps.DENOMINATOR;\r\n    }\r\n\r\n    function amountToDeposit(uint256 coinIndex) public view returns(uint256){\r\n        return currentLiquidity(coinIndex) <= maxLiquidityAllowedInPool(coinIndex) ? 0 : currentLiquidity(coinIndex) - idealAmount(coinIndex);\r\n    }\r\n    \r\n      \r\n    function minLiquidityToMaintainInPool(uint256 coinIndex) public view returns(uint256){\r\n        PoolStorage storage ps = poolStorage();\r\n        return ps.poolBalances[coinIndex] * ps.minLiquidity / ps.DENOMINATOR;\r\n    }\r\n   \r\n    function amountToWithdraw(uint256 coinIndex) public view returns(uint256){\r\n        PoolStorage storage ps = poolStorage();\r\n        return currentLiquidity(coinIndex) > minLiquidityToMaintainInPool(coinIndex) || ps.coinsDepositInStrategy[coinIndex] == 0 || ps.coinsDepositInStrategy[coinIndex] < idealAmount(coinIndex) - currentLiquidity(coinIndex) ? 0 : idealAmount(coinIndex) - currentLiquidity(coinIndex);\r\n    }\r\n    \r\n}",
  "sourcePath": "E:/New Desktop/Projects/AdvancedPool/contracts/facets/AdvancedPool.sol",
  "compiler": {
    "name": "solc",
    "version": "0.7.6+commit.7338295f.Emscripten.clang"
  },
  "schemaVersion": "3.3.2",
  "updatedAt": "2021-04-18T16:03:09.726Z",
  "devdoc": {
    "kind": "dev",
    "methods": {},
    "version": 1
  },
  "userdoc": {
    "kind": "user",
    "methods": {},
    "version": 1
  }
}