{
  "contractName": "AdvancedPool3",
  "abi": [
    {
      "anonymous": false,
      "inputs": [
        {
          "indexed": false,
          "internalType": "address",
          "name": "user",
          "type": "address"
        },
        {
          "indexed": false,
          "internalType": "uint256",
          "name": "amount",
          "type": "uint256"
        }
      ],
      "name": "userWithdrawal",
      "type": "event"
    },
    {
      "inputs": [
        {
          "internalType": "uint256",
          "name": "amount",
          "type": "uint256"
        }
      ],
      "name": "unstake",
      "outputs": [
        {
          "internalType": "uint256",
          "name": "",
          "type": "uint256"
        }
      ],
      "stateMutability": "nonpayable",
      "type": "function"
    },
    {
      "inputs": [
        {
          "internalType": "uint256",
          "name": "amountOfStableCoins",
          "type": "uint256"
        }
      ],
      "name": "calculatePoolTokens",
      "outputs": [
        {
          "internalType": "uint256",
          "name": "",
          "type": "uint256"
        }
      ],
      "stateMutability": "view",
      "type": "function",
      "constant": true
    },
    {
      "inputs": [],
      "name": "stableCoinPrice",
      "outputs": [
        {
          "internalType": "uint256",
          "name": "",
          "type": "uint256"
        }
      ],
      "stateMutability": "view",
      "type": "function",
      "constant": true
    },
    {
      "inputs": [],
      "name": "maxWithdrawal",
      "outputs": [
        {
          "internalType": "uint256",
          "name": "",
          "type": "uint256"
        }
      ],
      "stateMutability": "view",
      "type": "function",
      "constant": true
    },
    {
      "inputs": [],
      "name": "currentLiquidity",
      "outputs": [
        {
          "internalType": "uint256",
          "name": "",
          "type": "uint256"
        }
      ],
      "stateMutability": "view",
      "type": "function",
      "constant": true
    },
    {
      "inputs": [],
      "name": "minLiquidityToMaintainInPool",
      "outputs": [
        {
          "internalType": "uint256",
          "name": "",
          "type": "uint256"
        }
      ],
      "stateMutability": "view",
      "type": "function",
      "constant": true
    },
    {
      "inputs": [],
      "name": "totalDeposit",
      "outputs": [
        {
          "internalType": "uint256",
          "name": "",
          "type": "uint256"
        }
      ],
      "stateMutability": "view",
      "type": "function",
      "constant": true
    },
    {
      "inputs": [],
      "name": "strategyDeposit",
      "outputs": [
        {
          "internalType": "uint256",
          "name": "",
          "type": "uint256"
        }
      ],
      "stateMutability": "view",
      "type": "function",
      "constant": true
    }
  ],
  "bytecode": "0x608060405234801561001057600080fd5b506110a7806100206000396000f3fe608060405234801561001057600080fd5b50600436106100885760003560e01c80637260cc761161005b5780637260cc76146101175780638c0ff5b714610135578063c3c9f52b14610153578063f6153ccd1461018357610088565b80632e17de781461008d57806331dd132e146100bd57806346caf2ae146100db5780635b404bad146100f9575b600080fd5b6100a760048036038101906100a29190610cc9565b6101a1565b6040516100b49190610f99565b60405180910390f35b6100c5610613565b6040516100d29190610f99565b60405180910390f35b6100e36106c8565b6040516100f09190610f99565b60405180910390f35b6101016106e0565b60405161010e9190610f99565b60405180910390f35b61011f6109b1565b60405161012c9190610f99565b60405180910390f35b61013d6109df565b60405161014a9190610f99565b60405180910390f35b61016d60048036038101906101689190610cc9565b610a3d565b60405161017a9190610f99565b60405180910390f35b61018b610b09565b6040516101989190610f99565b60405180910390f35b6000806101ac610b2a565b905080600e0160009054906101000a900460ff1615610200576040517f08c379a00000000000000000000000000000000000000000000000000000000081526004016101f790610f79565b60405180910390fd5b600061020a610b2a565b90506102146109df565b841115610256576040517f08c379a000000000000000000000000000000000000000000000000000000000815260040161024d90610f19565b60405180910390fd5b8060000160019054906101000a900473ffffffffffffffffffffffffffffffffffffffff1673ffffffffffffffffffffffffffffffffffffffff166370a08231306040518263ffffffff1660e01b81526004016102b39190610eba565b60206040518083038186803b1580156102cb57600080fd5b505afa1580156102df573d6000803e3d6000fd5b505050506040513d601f19601f820116820180604052508101906103039190610cf2565b841115610345576040517f08c379a000000000000000000000000000000000000000000000000000000000815260040161033c90610f39565b60405180910390fd5b600061035085610a3d565b90508160010160009054906101000a900473ffffffffffffffffffffffffffffffffffffffff1673ffffffffffffffffffffffffffffffffffffffff166370a08231336040518263ffffffff1660e01b81526004016103af9190610ed5565b60206040518083038186803b1580156103c757600080fd5b505afa1580156103db573d6000803e3d6000fd5b505050506040513d601f19601f820116820180604052508101906103ff9190610cf2565b811115610441576040517f08c379a000000000000000000000000000000000000000000000000000000000815260040161043890610f59565b60405180910390fd5b60008260040154836006015487028161045657fe5b0490508083600b01540183600b018190555061047f8684600a0154610b5790919063ffffffff16565b83600a01819055508260000160019054906101000a900473ffffffffffffffffffffffffffffffffffffffff1673ffffffffffffffffffffffffffffffffffffffff1663a9059cbb338389036040518363ffffffff1660e01b81526004016104e8929190610ef0565b602060405180830381600087803b15801561050257600080fd5b505af1158015610516573d6000803e3d6000fd5b505050506040513d601f19601f8201168201806040525081019061053a9190610ca0565b508260010160009054906101000a900473ffffffffffffffffffffffffffffffffffffffff1673ffffffffffffffffffffffffffffffffffffffff16639dc29fac33846040518363ffffffff1660e01b815260040161059a929190610ef0565b600060405180830381600087803b1580156105b457600080fd5b505af11580156105c8573d6000803e3d6000fd5b505050507f42b2a4ad2d4bdf57e819ccd3c6ce6d0a8d6d20b5d3dbf94ef2b05c42f523c61033876040516105fd929190610ef0565b60405180910390a1808603945050505050919050565b60008061061e610b2a565b90508060020160009054906101000a900473ffffffffffffffffffffffffffffffffffffffff1673ffffffffffffffffffffffffffffffffffffffff16631d01364c6040518163ffffffff1660e01b815260040160206040518083038186803b15801561068a57600080fd5b505afa15801561069e573d6000803e3d6000fd5b505050506040513d601f19601f820116820180604052508101906106c29190610cf2565b91505090565b6000806106d3610b2a565b905080600a015491505090565b6000806106eb610b2a565b905060008160010160009054906101000a900473ffffffffffffffffffffffffffffffffffffffff1673ffffffffffffffffffffffffffffffffffffffff166318160ddd6040518163ffffffff1660e01b815260040160206040518083038186803b15801561075957600080fd5b505afa15801561076d573d6000803e3d6000fd5b505050506040513d601f19601f820116820180604052508101906107919190610cf2565b14806107a4575060006107a2610b09565b145b610905576107b0610b09565b8160010160009054906101000a900473ffffffffffffffffffffffffffffffffffffffff1673ffffffffffffffffffffffffffffffffffffffff166318160ddd6040518163ffffffff1660e01b815260040160206040518083038186803b15801561081a57600080fd5b505afa15801561082e573d6000803e3d6000fd5b505050506040513d601f19601f820116820180604052508101906108529190610cf2565b8260000160019054906101000a900473ffffffffffffffffffffffffffffffffffffffff1673ffffffffffffffffffffffffffffffffffffffff1663313ce5676040518163ffffffff1660e01b815260040160206040518083038186803b1580156108bc57600080fd5b505afa1580156108d0573d6000803e3d6000fd5b505050506040513d601f19601f820116820180604052508101906108f49190610cf2565b600a0a02816108ff57fe5b046109ab565b8060000160019054906101000a900473ffffffffffffffffffffffffffffffffffffffff1673ffffffffffffffffffffffffffffffffffffffff1663313ce5676040518163ffffffff1660e01b815260040160206040518083038186803b15801561096f57600080fd5b505afa158015610983573d6000803e3d6000fd5b505050506040513d601f19601f820116820180604052508101906109a79190610cf2565b600a0a5b91505090565b6000806109bc610b2a565b9050806004015481600701546109d0610b09565b02816109d857fe5b0491505090565b6000806109ea610b2a565b905080600d015460026109fb6109b1565b81610a0257fe5b04610a0b6106c8565b0310610a1b5780600d0154610a37565b6002610a256109b1565b81610a2c57fe5b04610a356106c8565b035b91505090565b600080610a48610b2a565b90508060000160019054906101000a900473ffffffffffffffffffffffffffffffffffffffff1673ffffffffffffffffffffffffffffffffffffffff1663313ce5676040518163ffffffff1660e01b815260040160206040518083038186803b158015610ab457600080fd5b505afa158015610ac8573d6000803e3d6000fd5b505050506040513d601f19601f82011682018060405250810190610aec9190610cf2565b600a0a610af76106e0565b840281610b0057fe5b04915050919050565b600080610b14610b2a565b9050610b1e610613565b81600a01540191505090565b6000807f6c2f2617da7540533aede37184df9fe8d14d2f091e9a392f2685af4b9851d17290508091505090565b6000610b9983836040518060400160405280601f81526020017f536166654d6174683a207375627472616374696f6e20756e646572666c6f7700815250610ba1565b905092915050565b6000838311158290610c4e576040517f08c379a00000000000000000000000000000000000000000000000000000000081526004018080602001828103825283818151815260200191508051906020019080838360005b83811015610c13578082015181840152602081019050610bf8565b50505050905090810190601f168015610c405780820380516001836020036101000a031916815260200191505b509250505060405180910390fd5b5060008385039050809150509392505050565b600081519050610c7081611043565b92915050565b600081359050610c858161105a565b92915050565b600081519050610c9a8161105a565b92915050565b600060208284031215610cb257600080fd5b6000610cc084828501610c61565b91505092915050565b600060208284031215610cdb57600080fd5b6000610ce984828501610c76565b91505092915050565b600060208284031215610d0457600080fd5b6000610d1284828501610c8b565b91505092915050565b610d248161100d565b82525050565b610d3381610fc5565b82525050565b6000610d46602983610fb4565b91507f446f6e74206861766520656e6f7567682066756e642c20506c6561736520747260008301527f79206c61746572212100000000000000000000000000000000000000000000006020830152604082019050919050565b6000610dac602a83610fb4565b91507f446f6e74206861766520656e6f7567682066756e642c20506c6561736520747260008301527f79206c61746572212121000000000000000000000000000000000000000000006020830152604082019050919050565b6000610e12602183610fb4565b91507f596f7520646f6e74206861766520656e6f75676820706f6f6c20746f6b656e2160008301527f21000000000000000000000000000000000000000000000000000000000000006020830152604082019050919050565b6000610e78601283610fb4565b91507f636f6e7472616374206973206c6f636b656400000000000000000000000000006000830152602082019050919050565b610eb481611003565b82525050565b6000602082019050610ecf6000830184610d2a565b92915050565b6000602082019050610eea6000830184610d1b565b92915050565b6000604082019050610f056000830185610d1b565b610f126020830184610eab565b9392505050565b60006020820190508181036000830152610f3281610d39565b9050919050565b60006020820190508181036000830152610f5281610d9f565b9050919050565b60006020820190508181036000830152610f7281610e05565b9050919050565b60006020820190508181036000830152610f9281610e6b565b9050919050565b6000602082019050610fae6000830184610eab565b92915050565b600082825260208201905092915050565b6000610fd082610fe3565b9050919050565b60008115159050919050565b600073ffffffffffffffffffffffffffffffffffffffff82169050919050565b6000819050919050565b60006110188261101f565b9050919050565b600061102a82611031565b9050919050565b600061103c82610fe3565b9050919050565b61104c81610fd7565b811461105757600080fd5b50565b61106381611003565b811461106e57600080fd5b5056fea2646970667358221220c05e540b2a55861af6359876fe3ccf698b3afafad340ceb0a37b5225659a94de64736f6c63430007060033",
  "immutableReferences": {},
  "source": "// SPDX-License-Identifier: UNLICENSED\r\npragma solidity ^0.7.6;\r\npragma experimental ABIEncoderV2;\r\n\r\nimport \"../storage/PoolStorage.sol\";\r\n\r\ncontract AdvancedPool3 is PoolStorageV1 {\r\n    \r\n/****VARIABLES*****/\r\n    using SafeMath for uint256;\r\n   \r\n\r\n/****MODIFIERS*****/\r\n    modifier notLocked {\r\n        PoolStorage storage ps = poolStorage();\r\n        require(!ps.locked, \"contract is locked\");\r\n        _;\r\n    }\r\n  \r\n/****EVENTS****/ \r\n    event userWithdrawal(address user,uint256 amount);\r\n\r\n/*****USERS FUNCTIONS****/\r\n\r\n    function unstake(uint256 amount) external notLocked() returns(uint256){\r\n        PoolStorage storage ps = poolStorage();\r\n        require(amount <= maxWithdrawal(), \"Dont have enough fund, Please try later!!\");\r\n        require(amount <= ps.coin.balanceOf(address(this)), \"Dont have enough fund, Please try later!!!\");\r\n        \r\n        uint256 burnAmount = calculatePoolTokens(amount);\r\n        require(burnAmount <= ps.poolToken.balanceOf(msg.sender), \"You dont have enough pool token!!\");\r\n\r\n        uint256 feeAmount = amount * ps.withdrawFees/ ps.DENOMINATOR;\r\n        ps.feesCollected = ps.feesCollected + feeAmount;\r\n        ps.poolBalance = ps.poolBalance.sub(amount);\r\n\r\n        ps.coin.transfer(msg.sender, amount - feeAmount);\r\n        ps.poolToken.burn(msg.sender, burnAmount);  \r\n        emit userWithdrawal(msg.sender, amount);\r\n        return amount - feeAmount;\r\n    }\r\n    \r\n/****OTHER FUNCTIONS****/\r\n\r\n    function calculatePoolTokens(uint256 amountOfStableCoins) public view returns(uint256){\r\n        PoolStorage storage ps = poolStorage();\r\n        return (amountOfStableCoins * stableCoinPrice())/10**ps.coin.decimals() ;\r\n    }\r\n\r\n    function stableCoinPrice() public view returns(uint256){\r\n        PoolStorage storage ps = poolStorage();\r\n        return (ps.poolToken.totalSupply() == 0 || totalDeposit() == 0) ? 10**ps.coin.decimals() : ((10**ps.coin.decimals()) * ps.poolToken.totalSupply())/totalDeposit();\r\n    }\r\n    \r\n    function maxWithdrawal() public view returns(uint256){\r\n        PoolStorage storage ps = poolStorage();\r\n        return currentLiquidity() - minLiquidityToMaintainInPool()/2 < ps.maxWithdrawalAllowed ? currentLiquidity() - minLiquidityToMaintainInPool()/2 : ps.maxWithdrawalAllowed;\r\n    }\r\n\r\n    function currentLiquidity() public view returns(uint256){\r\n        PoolStorage storage ps = poolStorage();\r\n        return ps.poolBalance;\r\n    }\r\n    \r\n    function minLiquidityToMaintainInPool() public view returns(uint256){\r\n        PoolStorage storage ps = poolStorage();\r\n        return totalDeposit() * ps.minLiquidity / ps.DENOMINATOR;\r\n    }\r\n   \r\n    function totalDeposit() public view returns(uint256){\r\n        PoolStorage storage ps = poolStorage();\r\n        return ps.poolBalance + strategyDeposit();\r\n    }\r\n\r\n    function strategyDeposit() public view returns(uint256){\r\n        PoolStorage storage ps = poolStorage();\r\n        return ps.depositStrategy.depositedAmount();\r\n    }\r\n\r\n}",
  "sourcePath": "E:/Projects/AdvancedPool/AdvancedPool/contracts/facets/AdvancedPool3.sol",
  "compiler": {
    "name": "solc",
    "version": "0.7.6+commit.7338295f.Emscripten.clang"
  },
  "schemaVersion": "3.3.2",
  "updatedAt": "2021-10-20T15:57:34.658Z",
  "networkType": "ethereum",
  "devdoc": {
    "kind": "dev",
    "methods": {},
    "version": 1
  },
  "userdoc": {
    "kind": "user",
    "methods": {},
    "version": 1
  }
}