{
  "contractName": "AdvancedPool4",
  "abi": [
    {
      "anonymous": false,
      "inputs": [
        {
          "indexed": false,
          "internalType": "address",
          "name": "user",
          "type": "address"
        },
        {
          "indexed": false,
          "internalType": "uint256",
          "name": "amount",
          "type": "uint256"
        }
      ],
      "name": "userWithdrawal",
      "type": "event"
    },
    {
      "inputs": [
        {
          "internalType": "uint256",
          "name": "amount",
          "type": "uint256"
        }
      ],
      "name": "unstake",
      "outputs": [
        {
          "internalType": "uint256",
          "name": "",
          "type": "uint256"
        }
      ],
      "stateMutability": "nonpayable",
      "type": "function"
    },
    {
      "inputs": [],
      "name": "maxWithdrawal",
      "outputs": [
        {
          "internalType": "uint256",
          "name": "",
          "type": "uint256"
        }
      ],
      "stateMutability": "view",
      "type": "function",
      "constant": true
    }
  ],
  "bytecode": "0x608060405234801561001057600080fd5b50610f8f806100206000396000f3fe608060405234801561001057600080fd5b50600436106100365760003560e01c80632e17de781461003b5780638c0ff5b71461006b575b600080fd5b61005560048036038101906100509190610bb1565b610089565b6040516100629190610e81565b60405180910390f35b6100736104fb565b6040516100809190610e81565b60405180910390f35b600080610094610559565b905080600e0160009054906101000a900460ff16156100e8576040517f08c379a00000000000000000000000000000000000000000000000000000000081526004016100df90610e61565b60405180910390fd5b60006100f2610559565b90506100fc6104fb565b84111561013e576040517f08c379a000000000000000000000000000000000000000000000000000000000815260040161013590610e01565b60405180910390fd5b8060000160019054906101000a900473ffffffffffffffffffffffffffffffffffffffff1673ffffffffffffffffffffffffffffffffffffffff166370a08231306040518263ffffffff1660e01b815260040161019b9190610da2565b60206040518083038186803b1580156101b357600080fd5b505afa1580156101c7573d6000803e3d6000fd5b505050506040513d601f19601f820116820180604052508101906101eb9190610bda565b84111561022d576040517f08c379a000000000000000000000000000000000000000000000000000000000815260040161022490610e21565b60405180910390fd5b600061023885610586565b90508160010160009054906101000a900473ffffffffffffffffffffffffffffffffffffffff1673ffffffffffffffffffffffffffffffffffffffff166370a08231336040518263ffffffff1660e01b81526004016102979190610dbd565b60206040518083038186803b1580156102af57600080fd5b505afa1580156102c3573d6000803e3d6000fd5b505050506040513d601f19601f820116820180604052508101906102e79190610bda565b811115610329576040517f08c379a000000000000000000000000000000000000000000000000000000000815260040161032090610e41565b60405180910390fd5b60008260040154836006015487028161033e57fe5b0490508083600b01540183600b01819055506103678684600a015461065290919063ffffffff16565b83600a01819055508260000160019054906101000a900473ffffffffffffffffffffffffffffffffffffffff1673ffffffffffffffffffffffffffffffffffffffff1663a9059cbb338389036040518363ffffffff1660e01b81526004016103d0929190610dd8565b602060405180830381600087803b1580156103ea57600080fd5b505af11580156103fe573d6000803e3d6000fd5b505050506040513d601f19601f820116820180604052508101906104229190610b88565b508260010160009054906101000a900473ffffffffffffffffffffffffffffffffffffffff1673ffffffffffffffffffffffffffffffffffffffff16639dc29fac33846040518363ffffffff1660e01b8152600401610482929190610dd8565b600060405180830381600087803b15801561049c57600080fd5b505af11580156104b0573d6000803e3d6000fd5b505050507f42b2a4ad2d4bdf57e819ccd3c6ce6d0a8d6d20b5d3dbf94ef2b05c42f523c61033876040516104e5929190610dd8565b60405180910390a1808603945050505050919050565b600080610506610559565b905080600d0154600261051761069c565b8161051e57fe5b046105276106ca565b03106105375780600d0154610553565b600261054161069c565b8161054857fe5b046105516106ca565b035b91505090565b6000807f6c2f2617da7540533aede37184df9fe8d14d2f091e9a392f2685af4b9851d17290508091505090565b600080610591610559565b90508060000160019054906101000a900473ffffffffffffffffffffffffffffffffffffffff1673ffffffffffffffffffffffffffffffffffffffff1663313ce5676040518163ffffffff1660e01b815260040160206040518083038186803b1580156105fd57600080fd5b505afa158015610611573d6000803e3d6000fd5b505050506040513d601f19601f820116820180604052508101906106359190610bda565b600a0a6106406106e2565b84028161064957fe5b04915050919050565b600061069483836040518060400160405280601f81526020017f536166654d6174683a207375627472616374696f6e20756e646572666c6f77008152506109b3565b905092915050565b6000806106a7610559565b9050806004015481600701546106bb610a73565b02816106c357fe5b0491505090565b6000806106d5610559565b905080600a015491505090565b6000806106ed610559565b905060008160010160009054906101000a900473ffffffffffffffffffffffffffffffffffffffff1673ffffffffffffffffffffffffffffffffffffffff166318160ddd6040518163ffffffff1660e01b815260040160206040518083038186803b15801561075b57600080fd5b505afa15801561076f573d6000803e3d6000fd5b505050506040513d601f19601f820116820180604052508101906107939190610bda565b14806107a6575060006107a4610a73565b145b610907576107b2610a73565b8160010160009054906101000a900473ffffffffffffffffffffffffffffffffffffffff1673ffffffffffffffffffffffffffffffffffffffff166318160ddd6040518163ffffffff1660e01b815260040160206040518083038186803b15801561081c57600080fd5b505afa158015610830573d6000803e3d6000fd5b505050506040513d601f19601f820116820180604052508101906108549190610bda565b8260000160019054906101000a900473ffffffffffffffffffffffffffffffffffffffff1673ffffffffffffffffffffffffffffffffffffffff1663313ce5676040518163ffffffff1660e01b815260040160206040518083038186803b1580156108be57600080fd5b505afa1580156108d2573d6000803e3d6000fd5b505050506040513d601f19601f820116820180604052508101906108f69190610bda565b600a0a028161090157fe5b046109ad565b8060000160019054906101000a900473ffffffffffffffffffffffffffffffffffffffff1673ffffffffffffffffffffffffffffffffffffffff1663313ce5676040518163ffffffff1660e01b815260040160206040518083038186803b15801561097157600080fd5b505afa158015610985573d6000803e3d6000fd5b505050506040513d601f19601f820116820180604052508101906109a99190610bda565b600a0a5b91505090565b6000838311158290610a60576040517f08c379a00000000000000000000000000000000000000000000000000000000081526004018080602001828103825283818151815260200191508051906020019080838360005b83811015610a25578082015181840152602081019050610a0a565b50505050905090810190601f168015610a525780820380516001836020036101000a031916815260200191505b509250505060405180910390fd5b5060008385039050809150509392505050565b600080610a7e610559565b9050610a88610a94565b81600a01540191505090565b600080610a9f610559565b90508060020160009054906101000a900473ffffffffffffffffffffffffffffffffffffffff1673ffffffffffffffffffffffffffffffffffffffff16631d01364c6040518163ffffffff1660e01b815260040160206040518083038186803b158015610b0b57600080fd5b505afa158015610b1f573d6000803e3d6000fd5b505050506040513d601f19601f82011682018060405250810190610b439190610bda565b91505090565b600081519050610b5881610f2b565b92915050565b600081359050610b6d81610f42565b92915050565b600081519050610b8281610f42565b92915050565b600060208284031215610b9a57600080fd5b6000610ba884828501610b49565b91505092915050565b600060208284031215610bc357600080fd5b6000610bd184828501610b5e565b91505092915050565b600060208284031215610bec57600080fd5b6000610bfa84828501610b73565b91505092915050565b610c0c81610ef5565b82525050565b610c1b81610ead565b82525050565b6000610c2e602983610e9c565b91507f446f6e74206861766520656e6f7567682066756e642c20506c6561736520747260008301527f79206c61746572212100000000000000000000000000000000000000000000006020830152604082019050919050565b6000610c94602a83610e9c565b91507f446f6e74206861766520656e6f7567682066756e642c20506c6561736520747260008301527f79206c61746572212121000000000000000000000000000000000000000000006020830152604082019050919050565b6000610cfa602183610e9c565b91507f596f7520646f6e74206861766520656e6f75676820706f6f6c20746f6b656e2160008301527f21000000000000000000000000000000000000000000000000000000000000006020830152604082019050919050565b6000610d60601283610e9c565b91507f636f6e7472616374206973206c6f636b656400000000000000000000000000006000830152602082019050919050565b610d9c81610eeb565b82525050565b6000602082019050610db76000830184610c12565b92915050565b6000602082019050610dd26000830184610c03565b92915050565b6000604082019050610ded6000830185610c03565b610dfa6020830184610d93565b9392505050565b60006020820190508181036000830152610e1a81610c21565b9050919050565b60006020820190508181036000830152610e3a81610c87565b9050919050565b60006020820190508181036000830152610e5a81610ced565b9050919050565b60006020820190508181036000830152610e7a81610d53565b9050919050565b6000602082019050610e966000830184610d93565b92915050565b600082825260208201905092915050565b6000610eb882610ecb565b9050919050565b60008115159050919050565b600073ffffffffffffffffffffffffffffffffffffffff82169050919050565b6000819050919050565b6000610f0082610f07565b9050919050565b6000610f1282610f19565b9050919050565b6000610f2482610ecb565b9050919050565b610f3481610ebf565b8114610f3f57600080fd5b50565b610f4b81610eeb565b8114610f5657600080fd5b5056fea2646970667358221220338b731efdaaae284b483595932759659afd52926bb1291402f2aa281d827f0b64736f6c63430007060033",
  "immutableReferences": {},
  "source": "// SPDX-License-Identifier: UNLICENSED\r\npragma solidity ^0.7.6;\r\npragma experimental ABIEncoderV2;\r\n\r\nimport \"../storage/PoolStorage.sol\";\r\n\r\ncontract AdvancedPool4 is PoolStorageV1 {\r\n    \r\n/****VARIABLES*****/\r\n    using SafeMath for uint256;\r\n   \r\n\r\n/****MODIFIERS*****/\r\n    modifier notLocked {\r\n        PoolStorage storage ps = poolStorage();\r\n        require(!ps.locked, \"contract is locked\");\r\n        _;\r\n    }\r\n  \r\n/****EVENTS****/ \r\n    event userWithdrawal(address user,uint256 amount);\r\n\r\n/*****USERS FUNCTIONS****/\r\n\r\n    function unstake(uint256 amount) external notLocked() returns(uint256){\r\n        PoolStorage storage ps = poolStorage();\r\n        require(amount <= maxWithdrawal(), \"Dont have enough fund, Please try later!!\");\r\n        require(amount <= ps.coin.balanceOf(address(this)), \"Dont have enough fund, Please try later!!!\");\r\n        \r\n        uint256 burnAmount = calculatePoolTokens(amount);\r\n        require(burnAmount <= ps.poolToken.balanceOf(msg.sender), \"You dont have enough pool token!!\");\r\n\r\n        uint256 feeAmount = amount * ps.withdrawFees/ ps.DENOMINATOR;\r\n        ps.feesCollected = ps.feesCollected + feeAmount;\r\n        ps.poolBalance = ps.poolBalance.sub(amount);\r\n\r\n        ps.coin.transfer(msg.sender, amount - feeAmount);\r\n        ps.poolToken.burn(msg.sender, burnAmount);  \r\n        emit userWithdrawal(msg.sender, amount);\r\n        return amount - feeAmount;\r\n    }\r\n    \r\n/****OTHER FUNCTIONS****/\r\n\r\n    function calculatePoolTokens(uint256 amountOfStableCoins) internal view returns(uint256){\r\n        PoolStorage storage ps = poolStorage();\r\n        return (amountOfStableCoins * stableCoinPrice())/10**ps.coin.decimals() ;\r\n    }\r\n\r\n    function stableCoinPrice() internal view returns(uint256){\r\n        PoolStorage storage ps = poolStorage();\r\n        return (ps.poolToken.totalSupply() == 0 || totalDeposit() == 0) ? 10**ps.coin.decimals() : ((10**ps.coin.decimals()) * ps.poolToken.totalSupply())/totalDeposit();\r\n    }\r\n    \r\n    function maxWithdrawal() public view returns(uint256){\r\n        PoolStorage storage ps = poolStorage();\r\n        return currentLiquidity() - minLiquidityToMaintainInPool()/2 < ps.maxWithdrawalAllowed ? currentLiquidity() - minLiquidityToMaintainInPool()/2 : ps.maxWithdrawalAllowed;\r\n    }\r\n\r\n    function currentLiquidity() internal view returns(uint256){\r\n        PoolStorage storage ps = poolStorage();\r\n        return ps.poolBalance;\r\n    }\r\n    \r\n    function minLiquidityToMaintainInPool() internal view returns(uint256){\r\n        PoolStorage storage ps = poolStorage();\r\n        return totalDeposit() * ps.minLiquidity / ps.DENOMINATOR;\r\n    }\r\n   \r\n    function totalDeposit() internal view returns(uint256){\r\n        PoolStorage storage ps = poolStorage();\r\n        return ps.poolBalance + strategyDeposit();\r\n    }\r\n\r\n    function strategyDeposit() internal view returns(uint256){\r\n        PoolStorage storage ps = poolStorage();\r\n        return ps.depositStrategy.depositedAmount();\r\n    }\r\n\r\n}",
  "sourcePath": "E:/Projects/AdvancedPool/AdvancedPool/contracts/facets/AdvancedPool4.sol",
  "compiler": {
    "name": "solc",
    "version": "0.7.6+commit.7338295f.Emscripten.clang"
  },
  "schemaVersion": "3.3.2",
  "updatedAt": "2021-10-20T15:14:50.022Z",
  "networkType": "ethereum",
  "devdoc": {
    "kind": "dev",
    "methods": {},
    "version": 1
  },
  "userdoc": {
    "kind": "user",
    "methods": {},
    "version": 1
  }
}