{
  "contractName": "AdvancedPool",
  "abi": [
    {
      "anonymous": false,
      "inputs": [
        {
          "indexed": false,
          "internalType": "address",
          "name": "user",
          "type": "address"
        },
        {
          "indexed": false,
          "internalType": "address",
          "name": "pool",
          "type": "address"
        },
        {
          "indexed": false,
          "internalType": "uint256",
          "name": "amount",
          "type": "uint256"
        }
      ],
      "name": "poolDeposit",
      "type": "event"
    },
    {
      "anonymous": false,
      "inputs": [
        {
          "indexed": false,
          "internalType": "address",
          "name": "user",
          "type": "address"
        },
        {
          "indexed": false,
          "internalType": "address",
          "name": "pool",
          "type": "address"
        },
        {
          "indexed": false,
          "internalType": "uint256",
          "name": "amount",
          "type": "uint256"
        }
      ],
      "name": "poolWithdrawal",
      "type": "event"
    },
    {
      "anonymous": false,
      "inputs": [
        {
          "indexed": false,
          "internalType": "address",
          "name": "user",
          "type": "address"
        },
        {
          "indexed": false,
          "internalType": "uint256",
          "name": "amount",
          "type": "uint256"
        }
      ],
      "name": "userDeposits",
      "type": "event"
    },
    {
      "anonymous": false,
      "inputs": [
        {
          "indexed": false,
          "internalType": "address",
          "name": "user",
          "type": "address"
        },
        {
          "indexed": false,
          "internalType": "uint256",
          "name": "amount",
          "type": "uint256"
        }
      ],
      "name": "userWithdrawal",
      "type": "event"
    },
    {
      "stateMutability": "payable",
      "type": "receive",
      "payable": true
    },
    {
      "inputs": [
        {
          "internalType": "contract IERC20",
          "name": "_coin",
          "type": "address"
        },
        {
          "internalType": "contract IERC20",
          "name": "_poolToken",
          "type": "address"
        },
        {
          "internalType": "uint256",
          "name": "_minLiquidity",
          "type": "uint256"
        },
        {
          "internalType": "uint256",
          "name": "_maxLiquidity",
          "type": "uint256"
        },
        {
          "internalType": "uint256",
          "name": "_withdrawFees",
          "type": "uint256"
        },
        {
          "internalType": "uint256",
          "name": "_depositFees",
          "type": "uint256"
        },
        {
          "internalType": "uint256",
          "name": "_maxWithdrawalAllowed",
          "type": "uint256"
        },
        {
          "internalType": "address",
          "name": "_owner",
          "type": "address"
        },
        {
          "internalType": "contract DepositStrategy",
          "name": "_depositStrategy",
          "type": "address"
        },
        {
          "internalType": "contract UniswapV2Router02",
          "name": "_uniswapRouter",
          "type": "address"
        }
      ],
      "name": "initialize",
      "outputs": [],
      "stateMutability": "nonpayable",
      "type": "function"
    },
    {
      "inputs": [
        {
          "internalType": "uint256",
          "name": "amount",
          "type": "uint256"
        }
      ],
      "name": "stake",
      "outputs": [
        {
          "internalType": "uint256",
          "name": "",
          "type": "uint256"
        }
      ],
      "stateMutability": "nonpayable",
      "type": "function"
    },
    {
      "inputs": [
        {
          "internalType": "uint256",
          "name": "amount",
          "type": "uint256"
        }
      ],
      "name": "unstake",
      "outputs": [
        {
          "internalType": "uint256",
          "name": "",
          "type": "uint256"
        }
      ],
      "stateMutability": "nonpayable",
      "type": "function"
    },
    {
      "inputs": [],
      "name": "addToStrategy",
      "outputs": [
        {
          "internalType": "uint256",
          "name": "",
          "type": "uint256"
        }
      ],
      "stateMutability": "nonpayable",
      "type": "function"
    },
    {
      "inputs": [],
      "name": "removeFromStrategy",
      "outputs": [
        {
          "internalType": "uint256",
          "name": "",
          "type": "uint256"
        }
      ],
      "stateMutability": "nonpayable",
      "type": "function"
    },
    {
      "inputs": [
        {
          "internalType": "uint256",
          "name": "_minLiquidity",
          "type": "uint256"
        },
        {
          "internalType": "uint256",
          "name": "_maxLiquidity",
          "type": "uint256"
        },
        {
          "internalType": "uint256",
          "name": "_maxWithdrawalAllowed",
          "type": "uint256"
        }
      ],
      "name": "updateLiquidityParam",
      "outputs": [
        {
          "internalType": "bool",
          "name": "",
          "type": "bool"
        }
      ],
      "stateMutability": "nonpayable",
      "type": "function"
    },
    {
      "inputs": [
        {
          "internalType": "uint256",
          "name": "_depositFees",
          "type": "uint256"
        },
        {
          "internalType": "uint256",
          "name": "_withdrawFees",
          "type": "uint256"
        }
      ],
      "name": "updateFees",
      "outputs": [
        {
          "internalType": "bool",
          "name": "",
          "type": "bool"
        }
      ],
      "stateMutability": "nonpayable",
      "type": "function"
    },
    {
      "inputs": [],
      "name": "changeLockStatus",
      "outputs": [
        {
          "internalType": "bool",
          "name": "",
          "type": "bool"
        }
      ],
      "stateMutability": "nonpayable",
      "type": "function"
    },
    {
      "inputs": [
        {
          "internalType": "address",
          "name": "newOwner",
          "type": "address"
        }
      ],
      "name": "updateOwner",
      "outputs": [
        {
          "internalType": "bool",
          "name": "",
          "type": "bool"
        }
      ],
      "stateMutability": "nonpayable",
      "type": "function"
    },
    {
      "inputs": [
        {
          "internalType": "uint256",
          "name": "amountOfStableCoins",
          "type": "uint256"
        }
      ],
      "name": "calculatePoolTokens",
      "outputs": [
        {
          "internalType": "uint256",
          "name": "",
          "type": "uint256"
        }
      ],
      "stateMutability": "view",
      "type": "function",
      "constant": true
    },
    {
      "inputs": [],
      "name": "stableCoinPrice",
      "outputs": [
        {
          "internalType": "uint256",
          "name": "",
          "type": "uint256"
        }
      ],
      "stateMutability": "view",
      "type": "function",
      "constant": true
    },
    {
      "inputs": [
        {
          "internalType": "uint256",
          "name": "amountOfPoolToken",
          "type": "uint256"
        }
      ],
      "name": "calculateStableCoins",
      "outputs": [
        {
          "internalType": "uint256",
          "name": "",
          "type": "uint256"
        }
      ],
      "stateMutability": "view",
      "type": "function",
      "constant": true
    },
    {
      "inputs": [],
      "name": "poolTokenPrice",
      "outputs": [
        {
          "internalType": "uint256",
          "name": "",
          "type": "uint256"
        }
      ],
      "stateMutability": "view",
      "type": "function",
      "constant": true
    },
    {
      "inputs": [],
      "name": "maxWithdrawal",
      "outputs": [
        {
          "internalType": "uint256",
          "name": "",
          "type": "uint256"
        }
      ],
      "stateMutability": "view",
      "type": "function",
      "constant": true
    },
    {
      "inputs": [],
      "name": "currentLiquidity",
      "outputs": [
        {
          "internalType": "uint256",
          "name": "",
          "type": "uint256"
        }
      ],
      "stateMutability": "view",
      "type": "function",
      "constant": true
    },
    {
      "inputs": [],
      "name": "idealAmount",
      "outputs": [
        {
          "internalType": "uint256",
          "name": "",
          "type": "uint256"
        }
      ],
      "stateMutability": "view",
      "type": "function",
      "constant": true
    },
    {
      "inputs": [],
      "name": "maxLiquidityAllowedInPool",
      "outputs": [
        {
          "internalType": "uint256",
          "name": "",
          "type": "uint256"
        }
      ],
      "stateMutability": "view",
      "type": "function",
      "constant": true
    },
    {
      "inputs": [],
      "name": "amountToDeposit",
      "outputs": [
        {
          "internalType": "uint256",
          "name": "",
          "type": "uint256"
        }
      ],
      "stateMutability": "view",
      "type": "function",
      "constant": true
    },
    {
      "inputs": [],
      "name": "minLiquidityToMaintainInPool",
      "outputs": [
        {
          "internalType": "uint256",
          "name": "",
          "type": "uint256"
        }
      ],
      "stateMutability": "view",
      "type": "function",
      "constant": true
    },
    {
      "inputs": [],
      "name": "amountToWithdraw",
      "outputs": [
        {
          "internalType": "uint256",
          "name": "",
          "type": "uint256"
        }
      ],
      "stateMutability": "view",
      "type": "function",
      "constant": true
    },
    {
      "inputs": [],
      "name": "lockStatus",
      "outputs": [
        {
          "internalType": "bool",
          "name": "",
          "type": "bool"
        }
      ],
      "stateMutability": "view",
      "type": "function",
      "constant": true
    },
    {
      "inputs": [],
      "name": "totalDeposit",
      "outputs": [
        {
          "internalType": "uint256",
          "name": "",
          "type": "uint256"
        }
      ],
      "stateMutability": "view",
      "type": "function",
      "constant": true
    },
    {
      "inputs": [],
      "name": "strategyDeposit",
      "outputs": [
        {
          "internalType": "uint256",
          "name": "",
          "type": "uint256"
        }
      ],
      "stateMutability": "view",
      "type": "function",
      "constant": true
    },
    {
      "inputs": [],
      "name": "feesCollected",
      "outputs": [
        {
          "internalType": "uint256",
          "name": "",
          "type": "uint256"
        }
      ],
      "stateMutability": "view",
      "type": "function",
      "constant": true
    },
    {
      "inputs": [],
      "name": "currentFees",
      "outputs": [
        {
          "internalType": "uint256",
          "name": "",
          "type": "uint256"
        },
        {
          "internalType": "uint256",
          "name": "",
          "type": "uint256"
        }
      ],
      "stateMutability": "view",
      "type": "function",
      "constant": true
    },
    {
      "inputs": [],
      "name": "claimGasFee",
      "outputs": [],
      "stateMutability": "nonpayable",
      "type": "function"
    },
    {
      "inputs": [],
      "name": "convertFeesToETH",
      "outputs": [],
      "stateMutability": "nonpayable",
      "type": "function"
    }
  ],
  "bytecode": "0x608060405234801561001057600080fd5b50613fd1806100206000396000f3fe6080604052600436106101a05760003560e01c80638a98cdd4116100ec578063caa1d9c11161008a578063f071db5a11610064578063f071db5a146105cc578063f6153ccd146105f7578063fb60946d14610622578063fe135c0e1461065f576101a7565b8063caa1d9c11461055f578063d395fbc514610576578063e4255342146105a1576101a7565b8063a6e1fff6116100c6578063a6e1fff6146104a3578063b4ad5e08146104cc578063bba78e80146104f7578063c3c9f52b14610522576101a7565b80638a98cdd4146103fe5780638c0ff5b71461043b578063a694fc3a14610466576101a7565b80633e89340f116101595780635d9644c4116101335780635d9644c41461032d5780636db79437146103595780637260cc7614610396578063880cdc31146103c1576101a7565b80633e89340f146102ac57806346caf2ae146102d75780635b404bad14610302576101a7565b8063077622a2146101ac578063269fa128146101d757806329093c69146102025780632e17de781461022d5780632e30e85b1461026a57806331dd132e14610281576101a7565b366101a757005b600080fd5b3480156101b857600080fd5b506101c161068a565b6040516101ce9190613cf5565b60405180910390f35b3480156101e357600080fd5b506101ec6106ce565b6040516101f99190613cf5565b60405180910390f35b34801561020e57600080fd5b5061021761073c565b6040516102249190613cf5565b60405180910390f35b34801561023957600080fd5b50610254600480360381019061024f9190613549565b610b4e565b6040516102619190613cf5565b60405180910390f35b34801561027657600080fd5b5061027f610ed1565b005b34801561028d57600080fd5b506102966110c9565b6040516102a39190613cf5565b60405180910390f35b3480156102b857600080fd5b506102c16110e1565b6040516102ce9190613b5a565b60405180910390f35b3480156102e357600080fd5b506102ec611106565b6040516102f99190613cf5565b60405180910390f35b34801561030e57600080fd5b50610317611124565b6040516103249190613cf5565b60405180910390f35b34801561033957600080fd5b506103426113ef565b604051610350929190613d10565b60405180910390f35b34801561036557600080fd5b50610380600480360381019061037b919061359b565b611411565b60405161038d9190613b5a565b60405180910390f35b3480156103a257600080fd5b506103ab611646565b6040516103b89190613cf5565b60405180910390f35b3480156103cd57600080fd5b506103e860048036038101906103e391906133b2565b611671565b6040516103f59190613b5a565b60405180910390f35b34801561040a57600080fd5b5061042560048036038101906104209190613549565b6118d6565b6040516104329190613cf5565b60405180910390f35b34801561044757600080fd5b506104506119a5565b60405161045d9190613cf5565b60405180910390f35b34801561047257600080fd5b5061048d60048036038101906104889190613549565b6119f1565b60405161049a9190613cf5565b60405180910390f35b3480156104af57600080fd5b506104ca60048036038101906104c5919061346e565b611c80565b005b3480156104d857600080fd5b506104e1611e8f565b6040516104ee9190613cf5565b60405180910390f35b34801561050357600080fd5b5061050c611eba565b6040516105199190613cf5565b60405180910390f35b34801561052e57600080fd5b5061054960048036038101906105449190613549565b6121f6565b6040516105569190613cf5565b60405180910390f35b34801561056b57600080fd5b506105746122c2565b005b34801561058257600080fd5b5061058b61278b565b6040516105989190613b5a565b60405180910390f35b3480156105ad57600080fd5b506105b66129e9565b6040516105c39190613cf5565b60405180910390f35b3480156105d857600080fd5b506105e1612cb4565b6040516105ee9190613cf5565b60405180910390f35b34801561060357600080fd5b5061060c612ccc565b6040516106199190613cf5565b60405180910390f35b34801561062e57600080fd5b50610649600480360381019061064491906135d7565b612ce4565b6040516106569190613b5a565b60405180910390f35b34801561066b57600080fd5b50610674612ff9565b6040516106819190613cf5565b60405180910390f35b60008061069561302f565b905080600401546002026106ba8260080154836007015461305c90919063ffffffff16565b82600a015402816106c757fe5b0491505090565b6000806106d961302f565b90506106e3611646565b6106eb611106565b11806106fb5750600081600c0154145b806107195750610709611106565b61071161068a565b0381600c0154105b61073357610725611106565b61072d61068a565b03610736565b60005b91505090565b60008061074761302f565b905080600e0160009054906101000a900460ff161561079b576040517f08c379a000000000000000000000000000000000000000000000000000000000815260040161079290613c75565b60405180910390fd5b60006107a561302f565b90506108236107d33a6107c584600f01545a61305c90919063ffffffff16565b6130e490919063ffffffff16565b8260100160003373ffffffffffffffffffffffffffffffffffffffff1673ffffffffffffffffffffffffffffffffffffffff1681526020019081526020016000205461305c90919063ffffffff16565b8160100160003373ffffffffffffffffffffffffffffffffffffffff1673ffffffffffffffffffffffffffffffffffffffff168152602001908152602001600020819055506000610872612ff9565b9050600081116108b7576040517f08c379a00000000000000000000000000000000000000000000000000000000081526004016108ae90613b75565b60405180910390fd5b6108ce8183600c015461305c90919063ffffffff16565b82600c01819055508160000160019054906101000a900473ffffffffffffffffffffffffffffffffffffffff1673ffffffffffffffffffffffffffffffffffffffff1663095ea7b38360020160009054906101000a900473ffffffffffffffffffffffffffffffffffffffff16836040518363ffffffff1660e01b8152600401610959929190613b31565b602060405180830381600087803b15801561097357600080fd5b505af1158015610987573d6000803e3d6000fd5b505050506040513d601f19601f820116820180604052508101906109ab9190613445565b508160020160009054906101000a900473ffffffffffffffffffffffffffffffffffffffff1673ffffffffffffffffffffffffffffffffffffffff1663b6b55f25826040518263ffffffff1660e01b8152600401610a099190613cf5565b600060405180830381600087803b158015610a2357600080fd5b505af1158015610a37573d6000803e3d6000fd5b505050507f5123d8a168830852333177a82ac00938d8567897d76f68e27c135f5ca9776733338360020160009054906101000a900473ffffffffffffffffffffffffffffffffffffffff1683604051610a9293929190613ad1565b60405180910390a1610b00610ab03a5a6130e490919063ffffffff16565b8360100160003373ffffffffffffffffffffffffffffffffffffffff1673ffffffffffffffffffffffffffffffffffffffff1681526020019081526020016000205461316a90919063ffffffff16565b8260100160003373ffffffffffffffffffffffffffffffffffffffff1673ffffffffffffffffffffffffffffffffffffffff1681526020019081526020016000208190555080935050505090565b600080610b5961302f565b905080600e0160009054906101000a900460ff1615610bad576040517f08c379a0000000000000000000000000000000000000000000000000000000008152600401610ba490613c75565b60405180910390fd5b6000610bb761302f565b9050610bc16119a5565b841115610c03576040517f08c379a0000000000000000000000000000000000000000000000000000000008152600401610bfa90613c35565b60405180910390fd5b6000610c0e856121f6565b90508160010160009054906101000a900473ffffffffffffffffffffffffffffffffffffffff1673ffffffffffffffffffffffffffffffffffffffff166370a08231336040518263ffffffff1660e01b8152600401610c6d9190613a7f565b60206040518083038186803b158015610c8557600080fd5b505afa158015610c99573d6000803e3d6000fd5b505050506040513d601f19601f82011682018060405250810190610cbd9190613572565b811115610cff576040517f08c379a0000000000000000000000000000000000000000000000000000000008152600401610cf690613c55565b60405180910390fd5b600082600401548360060154870281610d1457fe5b0490508083600b01540183600b0181905550610d3d8684600a015461316a90919063ffffffff16565b83600a01819055508260000160019054906101000a900473ffffffffffffffffffffffffffffffffffffffff1673ffffffffffffffffffffffffffffffffffffffff1663a9059cbb338389036040518363ffffffff1660e01b8152600401610da6929190613b08565b602060405180830381600087803b158015610dc057600080fd5b505af1158015610dd4573d6000803e3d6000fd5b505050506040513d601f19601f82011682018060405250810190610df89190613445565b508260010160009054906101000a900473ffffffffffffffffffffffffffffffffffffffff1673ffffffffffffffffffffffffffffffffffffffff16639dc29fac33846040518363ffffffff1660e01b8152600401610e58929190613b08565b600060405180830381600087803b158015610e7257600080fd5b505af1158015610e86573d6000803e3d6000fd5b505050507f42b2a4ad2d4bdf57e819ccd3c6ce6d0a8d6d20b5d3dbf94ef2b05c42f523c6103387604051610ebb929190613b08565b60405180910390a1808603945050505050919050565b6000610edb61302f565b90506000610f083a610efa84600f01545a61305c90919063ffffffff16565b6130e490919063ffffffff16565b905060008260100160003373ffffffffffffffffffffffffffffffffffffffff1673ffffffffffffffffffffffffffffffffffffffff16815260200190815260200160002054905060008111610f93576040517f08c379a0000000000000000000000000000000000000000000000000000000008152600401610f8a90613bf5565b60405180910390fd5b80471015610fd6576040517f08c379a0000000000000000000000000000000000000000000000000000000008152600401610fcd90613cb5565b60405180910390fd5b60008360100160003373ffffffffffffffffffffffffffffffffffffffff1673ffffffffffffffffffffffffffffffffffffffff168152602001908152602001600020819055503373ffffffffffffffffffffffffffffffffffffffff166108fc829081150290604051600060405180830381858888f19350505050158015611063573d6000803e3d6000fd5b5060006110793a5a6130e490919063ffffffff16565b90508083038460100160003373ffffffffffffffffffffffffffffffffffffffff1673ffffffffffffffffffffffffffffffffffffffff1681526020019081526020016000208190555050505050565b6000806110d461302f565b905080600c015491505090565b6000806110ec61302f565b905080600e0160009054906101000a900460ff1691505090565b60008061111161302f565b905080600c015481600a01540391505090565b60008061112f61302f565b905060008160010160009054906101000a900473ffffffffffffffffffffffffffffffffffffffff1673ffffffffffffffffffffffffffffffffffffffff166318160ddd6040518163ffffffff1660e01b815260040160206040518083038186803b15801561119d57600080fd5b505afa1580156111b1573d6000803e3d6000fd5b505050506040513d601f19601f820116820180604052508101906111d59190613572565b14806111e55750600081600a0154145b6113435780600a01548160010160009054906101000a900473ffffffffffffffffffffffffffffffffffffffff1673ffffffffffffffffffffffffffffffffffffffff166318160ddd6040518163ffffffff1660e01b815260040160206040518083038186803b15801561125857600080fd5b505afa15801561126c573d6000803e3d6000fd5b505050506040513d601f19601f820116820180604052508101906112909190613572565b8260000160019054906101000a900473ffffffffffffffffffffffffffffffffffffffff1673ffffffffffffffffffffffffffffffffffffffff1663313ce5676040518163ffffffff1660e01b815260040160206040518083038186803b1580156112fa57600080fd5b505afa15801561130e573d6000803e3d6000fd5b505050506040513d601f19601f820116820180604052508101906113329190613572565b600a0a028161133d57fe5b046113e9565b8060000160019054906101000a900473ffffffffffffffffffffffffffffffffffffffff1673ffffffffffffffffffffffffffffffffffffffff1663313ce5676040518163ffffffff1660e01b815260040160206040518083038186803b1580156113ad57600080fd5b505afa1580156113c1573d6000803e3d6000fd5b505050506040513d601f19601f820116820180604052508101906113e59190613572565b600a0a5b91505090565b60008060006113fc61302f565b90508060050154816006015492509250509091565b60008061141c61302f565b90503373ffffffffffffffffffffffffffffffffffffffff1681600e0160019054906101000a900473ffffffffffffffffffffffffffffffffffffffff1673ffffffffffffffffffffffffffffffffffffffff16146114b0576040517f08c379a00000000000000000000000000000000000000000000000000000000081526004016114a790613b95565b60405180910390fd5b60006114ba61302f565b90506115386114e83a6114da84600f01545a61305c90919063ffffffff16565b6130e490919063ffffffff16565b8260100160003373ffffffffffffffffffffffffffffffffffffffff1673ffffffffffffffffffffffffffffffffffffffff1681526020019081526020016000205461305c90919063ffffffff16565b8160100160003373ffffffffffffffffffffffffffffffffffffffff1673ffffffffffffffffffffffffffffffffffffffff168152602001908152602001600020819055508381600601819055508481600501819055506115f56115a53a5a6130e490919063ffffffff16565b8260100160003373ffffffffffffffffffffffffffffffffffffffff1673ffffffffffffffffffffffffffffffffffffffff1681526020019081526020016000205461316a90919063ffffffff16565b8160100160003373ffffffffffffffffffffffffffffffffffffffff1673ffffffffffffffffffffffffffffffffffffffff1681526020019081526020016000208190555060019250505092915050565b60008061165161302f565b90508060040154816007015482600a0154028161166a57fe5b0491505090565b60008061167c61302f565b90503373ffffffffffffffffffffffffffffffffffffffff1681600e0160019054906101000a900473ffffffffffffffffffffffffffffffffffffffff1673ffffffffffffffffffffffffffffffffffffffff1614611710576040517f08c379a000000000000000000000000000000000000000000000000000000000815260040161170790613b95565b60405180910390fd5b600061171a61302f565b90506117986117483a61173a84600f01545a61305c90919063ffffffff16565b6130e490919063ffffffff16565b8260100160003373ffffffffffffffffffffffffffffffffffffffff1673ffffffffffffffffffffffffffffffffffffffff1681526020019081526020016000205461305c90919063ffffffff16565b8160100160003373ffffffffffffffffffffffffffffffffffffffff1673ffffffffffffffffffffffffffffffffffffffff168152602001908152602001600020819055508381600e0160016101000a81548173ffffffffffffffffffffffffffffffffffffffff021916908373ffffffffffffffffffffffffffffffffffffffff1602179055506118866118363a5a6130e490919063ffffffff16565b8260100160003373ffffffffffffffffffffffffffffffffffffffff1673ffffffffffffffffffffffffffffffffffffffff1681526020019081526020016000205461316a90919063ffffffff16565b8160100160003373ffffffffffffffffffffffffffffffffffffffff1673ffffffffffffffffffffffffffffffffffffffff16815260200190815260200160002081905550600192505050919050565b6000806118e161302f565b90508060010160009054906101000a900473ffffffffffffffffffffffffffffffffffffffff1673ffffffffffffffffffffffffffffffffffffffff1663313ce5676040518163ffffffff1660e01b815260040160206040518083038186803b15801561194d57600080fd5b505afa158015611961573d6000803e3d6000fd5b505050506040513d601f19601f820116820180604052508101906119859190613572565b600a0a6119906129e9565b84028161199957fe5b04925082915050919050565b6000806119b061302f565b905080600d015460026119c1611646565b816119c857fe5b04106119d85780600d01546119eb565b60026119e2611646565b816119e957fe5b045b91505090565b6000806119fc61302f565b905080600e0160009054906101000a900460ff1615611a50576040517f08c379a0000000000000000000000000000000000000000000000000000000008152600401611a4790613c75565b60405180910390fd5b60008311611a93576040517f08c379a0000000000000000000000000000000000000000000000000000000008152600401611a8a90613c15565b60405180910390fd5b6000611a9d61302f565b9050600081600401548260050154860281611ab457fe5b0490508082600b01540182600b01819055506000611ad38287036121f6565b9050611aee82870384600a015461305c90919063ffffffff16565b83600a01819055508260000160019054906101000a900473ffffffffffffffffffffffffffffffffffffffff1673ffffffffffffffffffffffffffffffffffffffff166323b872dd3330896040518463ffffffff1660e01b8152600401611b5793929190613a9a565b602060405180830381600087803b158015611b7157600080fd5b505af1158015611b85573d6000803e3d6000fd5b505050506040513d601f19601f82011682018060405250810190611ba99190613445565b508260010160009054906101000a900473ffffffffffffffffffffffffffffffffffffffff1673ffffffffffffffffffffffffffffffffffffffff166340c10f1933836040518363ffffffff1660e01b8152600401611c09929190613b08565b600060405180830381600087803b158015611c2357600080fd5b505af1158015611c37573d6000803e3d6000fd5b505050507f08f43333671aca8015183efb2197dac68519c827a11e6788eac8c80131169a643387604051611c6c929190613b08565b60405180910390a180945050505050919050565b6000611c8a61302f565b90508060000160009054906101000a900460ff1615611cde576040517f08c379a0000000000000000000000000000000000000000000000000000000008152600401611cd590613c95565b60405180910390fd5b8381600e0160016101000a81548173ffffffffffffffffffffffffffffffffffffffff021916908373ffffffffffffffffffffffffffffffffffffffff16021790555061271081600401819055508a8160000160016101000a81548173ffffffffffffffffffffffffffffffffffffffff021916908373ffffffffffffffffffffffffffffffffffffffff160217905550898160010160006101000a81548173ffffffffffffffffffffffffffffffffffffffff021916908373ffffffffffffffffffffffffffffffffffffffff160217905550888160070181905550878160080181905550868160060181905550858160050181905550828160020160006101000a81548173ffffffffffffffffffffffffffffffffffffffff021916908373ffffffffffffffffffffffffffffffffffffffff1602179055508481600d0181905550818160030160006101000a81548173ffffffffffffffffffffffffffffffffffffffff021916908373ffffffffffffffffffffffffffffffffffffffff16021790555060018160000160006101000a81548160ff0219169083151502179055505050505050505050505050565b600080611e9a61302f565b90508060040154816008015482600a01540281611eb357fe5b0491505090565b600080611ec561302f565b905080600e0160009054906101000a900460ff1615611f19576040517f08c379a0000000000000000000000000000000000000000000000000000000008152600401611f1090613c75565b60405180910390fd5b6000611f2361302f565b9050611fa1611f513a611f4384600f01545a61305c90919063ffffffff16565b6130e490919063ffffffff16565b8260100160003373ffffffffffffffffffffffffffffffffffffffff1673ffffffffffffffffffffffffffffffffffffffff1681526020019081526020016000205461305c90919063ffffffff16565b8160100160003373ffffffffffffffffffffffffffffffffffffffff1673ffffffffffffffffffffffffffffffffffffffff168152602001908152602001600020819055506000611ff06106ce565b905060008111612035576040517f08c379a000000000000000000000000000000000000000000000000000000000815260040161202c90613bd5565b60405180910390fd5b61204c8183600c015461316a90919063ffffffff16565b82600c01819055508160020160009054906101000a900473ffffffffffffffffffffffffffffffffffffffff1673ffffffffffffffffffffffffffffffffffffffff16632e1a7d4d826040518263ffffffff1660e01b81526004016120b19190613cf5565b600060405180830381600087803b1580156120cb57600080fd5b505af11580156120df573d6000803e3d6000fd5b505050507fe2da54b49c071dfc046fee542e5201277eee89662a48be76fe432bce2ce1443b338360020160009054906101000a900473ffffffffffffffffffffffffffffffffffffffff168360405161213a93929190613ad1565b60405180910390a16121a86121583a5a6130e490919063ffffffff16565b8360100160003373ffffffffffffffffffffffffffffffffffffffff1673ffffffffffffffffffffffffffffffffffffffff1681526020019081526020016000205461316a90919063ffffffff16565b8260100160003373ffffffffffffffffffffffffffffffffffffffff1673ffffffffffffffffffffffffffffffffffffffff1681526020019081526020016000208190555080935050505090565b60008061220161302f565b90508060000160019054906101000a900473ffffffffffffffffffffffffffffffffffffffff1673ffffffffffffffffffffffffffffffffffffffff1663313ce5676040518163ffffffff1660e01b815260040160206040518083038186803b15801561226d57600080fd5b505afa158015612281573d6000803e3d6000fd5b505050506040513d601f19601f820116820180604052508101906122a59190613572565b600a0a6122b0611124565b8402816122b957fe5b04915050919050565b60006122cc61302f565b905061234a6122fa3a6122ec84600f01545a61305c90919063ffffffff16565b6130e490919063ffffffff16565b8260100160003373ffffffffffffffffffffffffffffffffffffffff1673ffffffffffffffffffffffffffffffffffffffff1681526020019081526020016000205461305c90919063ffffffff16565b8160100160003373ffffffffffffffffffffffffffffffffffffffff1673ffffffffffffffffffffffffffffffffffffffff168152602001908152602001600020819055506000600267ffffffffffffffff811180156123a957600080fd5b506040519080825280602002602001820160405280156123d85781602001602082028036833780820191505090505b5090508160000160019054906101000a900473ffffffffffffffffffffffffffffffffffffffff1673ffffffffffffffffffffffffffffffffffffffff1663095ea7b38360030160009054906101000a900473ffffffffffffffffffffffffffffffffffffffff1684600b01546040518363ffffffff1660e01b8152600401612462929190613b31565b602060405180830381600087803b15801561247c57600080fd5b505af1158015612490573d6000803e3d6000fd5b505050506040513d601f19601f820116820180604052508101906124b49190613445565b508160000160019054906101000a900473ffffffffffffffffffffffffffffffffffffffff16816000815181106124e757fe5b602002602001019073ffffffffffffffffffffffffffffffffffffffff16908173ffffffffffffffffffffffffffffffffffffffff16815250508160030160009054906101000a900473ffffffffffffffffffffffffffffffffffffffff1673ffffffffffffffffffffffffffffffffffffffff1663ad5c46486040518163ffffffff1660e01b815260040160206040518083038186803b15801561258b57600080fd5b505afa15801561259f573d6000803e3d6000fd5b505050506040513d601f19601f820116820180604052508101906125c391906133db565b816001815181106125d057fe5b602002602001019073ffffffffffffffffffffffffffffffffffffffff16908173ffffffffffffffffffffffffffffffffffffffff168152505060008083600b01819055508260030160009054906101000a900473ffffffffffffffffffffffffffffffffffffffff1673ffffffffffffffffffffffffffffffffffffffff166318cbafe584600b0154838530620186a042016040518663ffffffff1660e01b8152600401612683959493929190613d39565b600060405180830381600087803b15801561269d57600080fd5b505af11580156126b1573d6000803e3d6000fd5b505050506040513d6000823e3d601f19601f820116820180604052508101906126da9190613404565b506127416126f13a5a6130e490919063ffffffff16565b8460100160003373ffffffffffffffffffffffffffffffffffffffff1673ffffffffffffffffffffffffffffffffffffffff1681526020019081526020016000205461316a90919063ffffffff16565b8360100160003373ffffffffffffffffffffffffffffffffffffffff1673ffffffffffffffffffffffffffffffffffffffff16815260200190815260200160002081905550505050565b60008061279661302f565b90503373ffffffffffffffffffffffffffffffffffffffff1681600e0160019054906101000a900473ffffffffffffffffffffffffffffffffffffffff1673ffffffffffffffffffffffffffffffffffffffff161461282a576040517f08c379a000000000000000000000000000000000000000000000000000000000815260040161282190613b95565b60405180910390fd5b600061283461302f565b90506128b26128623a61285484600f01545a61305c90919063ffffffff16565b6130e490919063ffffffff16565b8260100160003373ffffffffffffffffffffffffffffffffffffffff1673ffffffffffffffffffffffffffffffffffffffff1681526020019081526020016000205461305c90919063ffffffff16565b8160100160003373ffffffffffffffffffffffffffffffffffffffff1673ffffffffffffffffffffffffffffffffffffffff1681526020019081526020016000208190555080600e0160009054906101000a900460ff161581600e0160006101000a81548160ff02191690831515021790555061298b61293b3a5a6130e490919063ffffffff16565b8260100160003373ffffffffffffffffffffffffffffffffffffffff1673ffffffffffffffffffffffffffffffffffffffff1681526020019081526020016000205461316a90919063ffffffff16565b8160100160003373ffffffffffffffffffffffffffffffffffffffff1673ffffffffffffffffffffffffffffffffffffffff1681526020019081526020016000208190555080600e0160009054906101000a900460ff169250505090565b6000806129f461302f565b905060008160010160009054906101000a900473ffffffffffffffffffffffffffffffffffffffff1673ffffffffffffffffffffffffffffffffffffffff166318160ddd6040518163ffffffff1660e01b815260040160206040518083038186803b158015612a6257600080fd5b505afa158015612a76573d6000803e3d6000fd5b505050506040513d601f19601f82011682018060405250810190612a9a9190613572565b1480612aaa5750600081600a0154145b612c08578060010160009054906101000a900473ffffffffffffffffffffffffffffffffffffffff1673ffffffffffffffffffffffffffffffffffffffff166318160ddd6040518163ffffffff1660e01b815260040160206040518083038186803b158015612b1857600080fd5b505afa158015612b2c573d6000803e3d6000fd5b505050506040513d601f19601f82011682018060405250810190612b509190613572565b81600a01548260010160009054906101000a900473ffffffffffffffffffffffffffffffffffffffff1673ffffffffffffffffffffffffffffffffffffffff1663313ce5676040518163ffffffff1660e01b815260040160206040518083038186803b158015612bbf57600080fd5b505afa158015612bd3573d6000803e3d6000fd5b505050506040513d601f19601f82011682018060405250810190612bf79190613572565b600a0a0281612c0257fe5b04612cae565b8060010160009054906101000a900473ffffffffffffffffffffffffffffffffffffffff1673ffffffffffffffffffffffffffffffffffffffff1663313ce5676040518163ffffffff1660e01b815260040160206040518083038186803b158015612c7257600080fd5b505afa158015612c86573d6000803e3d6000fd5b505050506040513d601f19601f82011682018060405250810190612caa9190613572565b600a0a5b91505090565b600080612cbf61302f565b905080600b015491505090565b600080612cd761302f565b905080600a015491505090565b600080612cef61302f565b90503373ffffffffffffffffffffffffffffffffffffffff1681600e0160019054906101000a900473ffffffffffffffffffffffffffffffffffffffff1673ffffffffffffffffffffffffffffffffffffffff1614612d83576040517f08c379a0000000000000000000000000000000000000000000000000000000008152600401612d7a90613b95565b60405180910390fd5b600085118015612d935750600084115b8015612d9f5750600083115b612dde576040517f08c379a0000000000000000000000000000000000000000000000000000000008152600401612dd590613bb5565b60405180910390fd5b838510612e20576040517f08c379a0000000000000000000000000000000000000000000000000000000008152600401612e1790613cd5565b60405180910390fd5b6000612e2a61302f565b9050612ea8612e583a612e4a84600f01545a61305c90919063ffffffff16565b6130e490919063ffffffff16565b8260100160003373ffffffffffffffffffffffffffffffffffffffff1673ffffffffffffffffffffffffffffffffffffffff1681526020019081526020016000205461305c90919063ffffffff16565b8160100160003373ffffffffffffffffffffffffffffffffffffffff1673ffffffffffffffffffffffffffffffffffffffff168152602001908152602001600020819055508581600701819055508481600801819055508381600d0181905550612f6e612f1e3a5a6130e490919063ffffffff16565b8260100160003373ffffffffffffffffffffffffffffffffffffffff1673ffffffffffffffffffffffffffffffffffffffff1681526020019081526020016000205461316a90919063ffffffff16565b8160100160003373ffffffffffffffffffffffffffffffffffffffff1673ffffffffffffffffffffffffffffffffffffffff168152602001908152602001600020819055506000612fbd612ff9565b1115612fd157612fcb61073c565b50612fec565b6000612fdb6106ce565b1115612feb57612fe9611eba565b505b5b6001925050509392505050565b6000613003611e8f565b61300b611106565b11156130275761301961068a565b613021611106565b0361302a565b60005b905090565b6000807f6c2f2617da7540533aede37184df9fe8d14d2f091e9a392f2685af4b9851d17290508091505090565b6000808284019050838110156130da576040517f08c379a000000000000000000000000000000000000000000000000000000000815260040180806020018281038252601b8152602001807f536166654d6174683a206164646974696f6e206f766572666c6f77000000000081525060200191505060405180910390fd5b8091505092915050565b6000808314156130f75760009050613164565b600082840290508284828161310857fe5b041461315f576040517f08c379a0000000000000000000000000000000000000000000000000000000008152600401808060200182810382526021815260200180613f7b6021913960400191505060405180910390fd5b809150505b92915050565b60006131ac83836040518060400160405280601f81526020017f536166654d6174683a207375627472616374696f6e20756e646572666c6f77008152506131b4565b905092915050565b6000838311158290613261576040517f08c379a00000000000000000000000000000000000000000000000000000000081526004018080602001828103825283818151815260200191508051906020019080838360005b8381101561322657808201518184015260208101905061320b565b50505050905090810190601f1680156132535780820380516001836020036101000a031916815260200191505b509250505060405180910390fd5b5060008385039050809150509392505050565b600061328761328284613dc4565b613d93565b905080838252602082019050828560208602820111156132a657600080fd5b60005b858110156132d657816132bc888261339d565b8452602084019350602083019250506001810190506132a9565b5050509392505050565b6000813590506132ef81613ef0565b92915050565b60008151905061330481613ef0565b92915050565b600082601f83011261331b57600080fd5b815161332b848260208601613274565b91505092915050565b60008151905061334381613f07565b92915050565b60008135905061335881613f1e565b92915050565b60008135905061336d81613f35565b92915050565b60008135905061338281613f4c565b92915050565b60008135905061339781613f63565b92915050565b6000815190506133ac81613f63565b92915050565b6000602082840312156133c457600080fd5b60006133d2848285016132e0565b91505092915050565b6000602082840312156133ed57600080fd5b60006133fb848285016132f5565b91505092915050565b60006020828403121561341657600080fd5b600082015167ffffffffffffffff81111561343057600080fd5b61343c8482850161330a565b91505092915050565b60006020828403121561345757600080fd5b600061346584828501613334565b91505092915050565b6000806000806000806000806000806101408b8d03121561348e57600080fd5b600061349c8d828e0161335e565b9a505060206134ad8d828e0161335e565b99505060406134be8d828e01613388565b98505060606134cf8d828e01613388565b97505060806134e08d828e01613388565b96505060a06134f18d828e01613388565b95505060c06135028d828e01613388565b94505060e06135138d828e016132e0565b9350506101006135258d828e01613349565b9250506101206135378d828e01613373565b9150509295989b9194979a5092959850565b60006020828403121561355b57600080fd5b600061356984828501613388565b91505092915050565b60006020828403121561358457600080fd5b60006135928482850161339d565b91505092915050565b600080604083850312156135ae57600080fd5b60006135bc85828601613388565b92505060206135cd85828601613388565b9150509250929050565b6000806000606084860312156135ec57600080fd5b60006135fa86828701613388565b935050602061360b86828701613388565b925050604061361c86828701613388565b9150509250925092565b6000613632838361364d565b60208301905092915050565b61364781613eb8565b82525050565b61365681613e3a565b82525050565b61366581613e3a565b82525050565b600061367682613e00565b6136808185613e18565b935061368b83613df0565b8060005b838110156136bc5781516136a38882613626565b97506136ae83613e0b565b92505060018101905061368f565b5085935050505092915050565b6136d281613e4c565b82525050565b60006136e5601283613e29565b91507f4e6f7468696e6720746f206465706f73697400000000000000000000000000006000830152602082019050919050565b6000613725601583613e29565b91507f4f6e6c792061646d696e2063616e2063616c6c212100000000000000000000006000830152602082019050919050565b6000613765601983613e29565b91507f506172616d65746572732063616e74206265207a65726f2121000000000000006000830152602082019050919050565b60006137a5601383613e29565b91507f4e6f7468696e6720746f207769746864726177000000000000000000000000006000830152602082019050919050565b60006137e5601083613e29565b91507f4e6f7468696e6720746f20636c61696d000000000000000000000000000000006000830152602082019050919050565b6000613825600e83613e29565b91507f496e76616c696420416d6f756e740000000000000000000000000000000000006000830152602082019050919050565b6000613865602983613e29565b91507f446f6e74206861766520656e6f7567682066756e642c20506c6561736520747260008301527f79206c61746572212100000000000000000000000000000000000000000000006020830152604082019050919050565b60006138cb602183613e29565b91507f596f7520646f6e74206861766520656e6f75676820706f6f6c20746f6b656e2160008301527f21000000000000000000000000000000000000000000000000000000000000006020830152604082019050919050565b6000613931601283613e29565b91507f636f6e7472616374206973206c6f636b656400000000000000000000000000006000830152602082019050919050565b6000613971601383613e29565b91507f416c726561647920696e697469616c697a6564000000000000000000000000006000830152602082019050919050565b60006139b1602283613e29565b91507f446f6e74206861766520656e6f7567682066756e642c20547279206c6174657260008301527f21210000000000000000000000000000000000000000000000000000000000006020830152604082019050919050565b6000613a17603283613e29565b91507f4d696e206c69717569646974792063616e74206265206772656174657220746860008301527f616e206d6178206c6971756964697479212100000000000000000000000000006020830152604082019050919050565b613a7981613eae565b82525050565b6000602082019050613a94600083018461363e565b92915050565b6000606082019050613aaf600083018661363e565b613abc602083018561363e565b613ac96040830184613a70565b949350505050565b6000606082019050613ae6600083018661363e565b613af3602083018561365c565b613b006040830184613a70565b949350505050565b6000604082019050613b1d600083018561363e565b613b2a6020830184613a70565b9392505050565b6000604082019050613b46600083018561365c565b613b536020830184613a70565b9392505050565b6000602082019050613b6f60008301846136c9565b92915050565b60006020820190508181036000830152613b8e816136d8565b9050919050565b60006020820190508181036000830152613bae81613718565b9050919050565b60006020820190508181036000830152613bce81613758565b9050919050565b60006020820190508181036000830152613bee81613798565b9050919050565b60006020820190508181036000830152613c0e816137d8565b9050919050565b60006020820190508181036000830152613c2e81613818565b9050919050565b60006020820190508181036000830152613c4e81613858565b9050919050565b60006020820190508181036000830152613c6e816138be565b9050919050565b60006020820190508181036000830152613c8e81613924565b9050919050565b60006020820190508181036000830152613cae81613964565b9050919050565b60006020820190508181036000830152613cce816139a4565b9050919050565b60006020820190508181036000830152613cee81613a0a565b9050919050565b6000602082019050613d0a6000830184613a70565b92915050565b6000604082019050613d256000830185613a70565b613d326020830184613a70565b9392505050565b600060a082019050613d4e6000830188613a70565b613d5b6020830187613a70565b8181036040830152613d6d818661366b565b9050613d7c606083018561363e565b613d896080830184613a70565b9695505050505050565b6000604051905081810181811067ffffffffffffffff82111715613dba57613db9613eee565b5b8060405250919050565b600067ffffffffffffffff821115613ddf57613dde613eee565b5b602082029050602081019050919050565b6000819050602082019050919050565b600081519050919050565b6000602082019050919050565b600082825260208201905092915050565b600082825260208201905092915050565b6000613e4582613e8e565b9050919050565b60008115159050919050565b6000613e6382613e3a565b9050919050565b6000613e7582613e3a565b9050919050565b6000613e8782613e3a565b9050919050565b600073ffffffffffffffffffffffffffffffffffffffff82169050919050565b6000819050919050565b6000613ec382613eca565b9050919050565b6000613ed582613edc565b9050919050565b6000613ee782613e8e565b9050919050565bfe5b613ef981613e3a565b8114613f0457600080fd5b50565b613f1081613e4c565b8114613f1b57600080fd5b50565b613f2781613e58565b8114613f3257600080fd5b50565b613f3e81613e6a565b8114613f4957600080fd5b50565b613f5581613e7c565b8114613f6057600080fd5b50565b613f6c81613eae565b8114613f7757600080fd5b5056fe536166654d6174683a206d756c7469706c69636174696f6e206f766572666c6f77a264697066735822122093f7c0ec16b5749fb6298651c0a20d3da76b6040cd836d385d1fa823b05819e864736f6c63430007060033",
  "immutableReferences": {},
  "source": "// SPDX-License-Identifier: UNLICENSED\r\npragma solidity ^0.7.6;\r\npragma experimental ABIEncoderV2;\r\n\r\nimport \"../storage/PoolStorage.sol\";\r\n\r\ncontract AdvancedPool is PoolStorageV1 {\r\n    \r\n/****VARIABLES*****/\r\n    using SafeMath for uint256;\r\n   \r\n\r\n/****MODIFIERS*****/\r\n    \r\n    modifier onlyOnwer(){\r\n        PoolStorage storage ps = poolStorage();\r\n        require(ps.owner == msg.sender, \"Only admin can call!!\");\r\n        _;\r\n    }\r\n    modifier notLocked {\r\n        PoolStorage storage ps = poolStorage();\r\n        require(!ps.locked, \"contract is locked\");\r\n        _;\r\n    }\r\n  \r\n\r\n/****EVENTS****/ \r\n    event userDeposits(address user, uint256 amount);\r\n    event userWithdrawal(address user,uint256 amount);\r\n    event poolDeposit(address user, address pool, uint256 amount);\r\n    event poolWithdrawal(address user, address pool, uint256 amount);\r\n    \r\n\r\n/****CONSTRUCTOR****/\r\n    function initialize(\r\n        IERC20 _coin,\r\n        IERC20 _poolToken, \r\n        uint256 _minLiquidity, \r\n        uint256 _maxLiquidity, \r\n        uint256 _withdrawFees, \r\n        uint256 _depositFees,\r\n        uint256 _maxWithdrawalAllowed,\r\n        address _owner,\r\n        DepositStrategy _depositStrategy,\r\n        UniswapV2Router02 _uniswapRouter\r\n    ) public {\r\n        PoolStorage storage ps = poolStorage();\r\n        require(!ps.initialized, 'Already initialized');\r\n        ps.owner = _owner;\r\n        ps.DENOMINATOR = 10000;\r\n        ps.coin = _coin;\r\n        ps.poolToken = _poolToken;\r\n        ps.minLiquidity = _minLiquidity;\r\n        ps.maxLiquidity = _maxLiquidity;\r\n        ps.withdrawFees = _withdrawFees;\r\n        ps.depositFees = _depositFees;\r\n        ps.depositStrategy = _depositStrategy;\r\n        ps.maxWithdrawalAllowed = _maxWithdrawalAllowed;\r\n        ps.uniswapRouter = _uniswapRouter;\r\n        ps.initialized = true;\r\n    }\r\n    \r\n\r\n/*****USERS FUNCTIONS****/\r\n\r\n    function stake(uint256 amount) external notLocked() returns(uint256){\r\n        require(amount > 0, 'Invalid Amount');\r\n\r\n        PoolStorage storage ps = poolStorage();\r\n        uint256 feeAmount = amount * ps.depositFees / ps.DENOMINATOR;\r\n        ps.feesCollected = ps.feesCollected + feeAmount;\r\n        uint256 mintAmount = calculatePoolTokens(amount - feeAmount);\r\n        ps.poolBalance = ps.poolBalance.add(amount - feeAmount);\r\n        ps.coin.transferFrom(msg.sender, address(this), amount);\r\n        ps.poolToken.mint(msg.sender, mintAmount);\r\n        emit userDeposits(msg.sender,amount);\r\n        return mintAmount;\r\n    }\r\n\r\n    function unstake(uint256 amount) external notLocked() returns(uint256){\r\n        PoolStorage storage ps = poolStorage();\r\n        require(amount <= maxWithdrawal(), \"Dont have enough fund, Please try later!!\");\r\n       \r\n        uint256 burnAmount = calculatePoolTokens(amount);\r\n        require(burnAmount <= ps.poolToken.balanceOf(msg.sender), \"You dont have enough pool token!!\");\r\n\r\n        uint256 feeAmount = amount * ps.withdrawFees/ ps.DENOMINATOR;\r\n        ps.feesCollected = ps.feesCollected + feeAmount;\r\n        ps.poolBalance = ps.poolBalance.sub(amount);\r\n\r\n        ps.coin.transfer(msg.sender, amount - feeAmount);\r\n        ps.poolToken.burn(msg.sender, burnAmount);  \r\n        emit userWithdrawal(msg.sender, amount);\r\n        return amount - feeAmount;\r\n    }\r\n\r\n\r\n/****POOL FUNCTIONS****/\r\n\r\n    function addToStrategy() public notLocked() returns(uint256){\r\n        PoolStorage storage ps = poolStorage();\r\n        ps.gasUsed[msg.sender] = ps.gasUsed[msg.sender].add((gasleft().add(ps.defaultGas)).mul(tx.gasprice));\r\n        uint256 amount = amountToDeposit();\r\n        require(amount > 0, \"Nothing to deposit\");\r\n        ps.strategyDeposit = ps.strategyDeposit.add(amount);\r\n        ps.coin.approve(address(ps.depositStrategy), amount);\r\n        ps.depositStrategy.deposit(amount);\r\n        emit poolDeposit(msg.sender, address(ps.depositStrategy), amount);\r\n        ps.gasUsed[msg.sender] = ps.gasUsed[msg.sender].sub(gasleft().mul(tx.gasprice)); \r\n        return amount;\r\n    }\r\n    \r\n    function removeFromStrategy() public notLocked() returns(uint256){\r\n        PoolStorage storage ps = poolStorage();\r\n        ps.gasUsed[msg.sender] = ps.gasUsed[msg.sender].add((gasleft().add(ps.defaultGas)).mul(tx.gasprice));\r\n        uint256 amount = amountToWithdraw();\r\n        require(amount > 0 , \"Nothing to withdraw\");\r\n        ps.strategyDeposit = ps.strategyDeposit.sub(amount);\r\n        ps.depositStrategy.withdraw(amount);\r\n        emit poolWithdrawal(msg.sender, address(ps.depositStrategy), amount);\r\n        ps.gasUsed[msg.sender] = ps.gasUsed[msg.sender].sub(gasleft().mul(tx.gasprice)); \r\n        return amount;\r\n    }\r\n    \r\n\r\n/****ADMIN FUNCTIONS*****/\r\n    \r\n    function updateLiquidityParam(uint256 _minLiquidity, uint256 _maxLiquidity, uint256 _maxWithdrawalAllowed) external onlyOnwer() returns(bool){\r\n        require(_minLiquidity > 0 &&  _maxLiquidity > 0 && _maxWithdrawalAllowed > 0, 'Parameters cant be zero!!');\r\n        require(_minLiquidity <  _maxLiquidity, 'Min liquidity cant be greater than max liquidity!!');\r\n   \r\n        PoolStorage storage ps = poolStorage();\r\n        ps.gasUsed[msg.sender] = ps.gasUsed[msg.sender].add((gasleft().add(ps.defaultGas)).mul(tx.gasprice));\r\n        ps.minLiquidity = _minLiquidity;\r\n        ps.maxLiquidity = _maxLiquidity;\r\n        ps.maxWithdrawalAllowed = _maxWithdrawalAllowed;\r\n        ps.gasUsed[msg.sender] = ps.gasUsed[msg.sender].sub(gasleft().mul(tx.gasprice)); \r\n        if(amountToDeposit() > 0){\r\n            addToStrategy();\r\n        }else if(amountToWithdraw() > 0){\r\n            removeFromStrategy();\r\n        }\r\n        return true;\r\n    }\r\n    \r\n    function updateFees(uint256 _depositFees, uint256 _withdrawFees) external onlyOnwer() returns(bool){\r\n        PoolStorage storage ps = poolStorage();\r\n        ps.gasUsed[msg.sender] = ps.gasUsed[msg.sender].add((gasleft().add(ps.defaultGas)).mul(tx.gasprice));\r\n        ps.withdrawFees = _withdrawFees;\r\n        ps.depositFees = _depositFees;\r\n        ps.gasUsed[msg.sender] = ps.gasUsed[msg.sender].sub(gasleft().mul(tx.gasprice));\r\n        return true;\r\n    }\r\n    \r\n    function changeLockStatus() external onlyOnwer() returns(bool){\r\n        PoolStorage storage ps = poolStorage();\r\n        ps.gasUsed[msg.sender] = ps.gasUsed[msg.sender].add((gasleft().add(ps.defaultGas)).mul(tx.gasprice));\r\n        ps.locked = !ps.locked;\r\n        ps.gasUsed[msg.sender] = ps.gasUsed[msg.sender].sub(gasleft().mul(tx.gasprice));\r\n        return ps.locked;\r\n    }\r\n    \r\n    function updateOwner(address newOwner) external onlyOnwer() returns(bool){\r\n        PoolStorage storage ps = poolStorage();\r\n        ps.gasUsed[msg.sender] = ps.gasUsed[msg.sender].add((gasleft().add(ps.defaultGas)).mul(tx.gasprice));\r\n        ps.owner = newOwner;\r\n        ps.gasUsed[msg.sender] = ps.gasUsed[msg.sender].sub(gasleft().mul(tx.gasprice));\r\n        return true;\r\n    } \r\n\r\n\r\n/****OTHER FUNCTIONS****/\r\n\r\n    function calculatePoolTokens(uint256 amountOfStableCoins) public view returns(uint256){\r\n        PoolStorage storage ps = poolStorage();\r\n        return (amountOfStableCoins * stableCoinPrice())/10**ps.coin.decimals() ;\r\n    }\r\n\r\n    function stableCoinPrice() public view returns(uint256){\r\n        PoolStorage storage ps = poolStorage();\r\n        return (ps.poolToken.totalSupply() == 0 || ps.poolBalance == 0) ? 10**ps.coin.decimals() : ((10**ps.coin.decimals()) * ps.poolToken.totalSupply())/ps.poolBalance;\r\n    }\r\n    \r\n    function calculateStableCoins(uint256 amountOfPoolToken) public view returns(uint256){\r\n        PoolStorage storage ps = poolStorage();\r\n        amountOfPoolToken = (amountOfPoolToken*poolTokenPrice())/(10**ps.poolToken.decimals());\r\n        return amountOfPoolToken;\r\n    }\r\n\r\n    function poolTokenPrice() public view returns(uint256){\r\n        PoolStorage storage ps = poolStorage();\r\n        return (ps.poolToken.totalSupply() == 0 || ps.poolBalance == 0) ? 10**ps.poolToken.decimals() : ((10**ps.poolToken.decimals())*ps.poolBalance)/ps.poolToken.totalSupply();\r\n    }\r\n    \r\n    function maxWithdrawal() public view returns(uint256){\r\n        PoolStorage storage ps = poolStorage();\r\n        return minLiquidityToMaintainInPool()/2 < ps.maxWithdrawalAllowed ? minLiquidityToMaintainInPool()/2 : ps.maxWithdrawalAllowed;\r\n    }\r\n\r\n    function currentLiquidity() public view returns(uint256){\r\n        PoolStorage storage ps = poolStorage();\r\n        return ps.poolBalance - ps.strategyDeposit;\r\n    }\r\n   \r\n    function idealAmount() public view returns(uint256){\r\n        PoolStorage storage ps = poolStorage();\r\n        return (ps.poolBalance * (ps.minLiquidity.add(ps.maxLiquidity))) / (2 * ps.DENOMINATOR);\r\n    }\r\n     \r\n    function maxLiquidityAllowedInPool() public view returns(uint256){\r\n        PoolStorage storage ps = poolStorage();\r\n        return ps.poolBalance * ps.maxLiquidity / ps.DENOMINATOR;\r\n    }\r\n\r\n    function amountToDeposit() public view returns(uint256){\r\n        return currentLiquidity() <= maxLiquidityAllowedInPool() ? 0 : currentLiquidity() - idealAmount();\r\n    }\r\n    \r\n    function minLiquidityToMaintainInPool() public view returns(uint256){\r\n        PoolStorage storage ps = poolStorage();\r\n        return ps.poolBalance * ps.minLiquidity / ps.DENOMINATOR;\r\n    }\r\n   \r\n    function amountToWithdraw() public view returns(uint256){\r\n        PoolStorage storage ps = poolStorage();\r\n        return currentLiquidity() > minLiquidityToMaintainInPool() || ps.strategyDeposit == 0 || ps.strategyDeposit < idealAmount() - currentLiquidity() ? 0 : idealAmount() - currentLiquidity();\r\n    }\r\n\r\n    function lockStatus() public view returns(bool){\r\n        PoolStorage storage ps = poolStorage();\r\n        return ps.locked;\r\n    }\r\n\r\n    function totalDeposit() public view returns(uint256){\r\n        PoolStorage storage ps = poolStorage();\r\n        return ps.poolBalance;\r\n    }\r\n\r\n    function strategyDeposit() public view returns(uint256){\r\n        PoolStorage storage ps = poolStorage();\r\n        return ps.strategyDeposit;\r\n    }\r\n       \r\n    function feesCollected() public view returns(uint256){\r\n        PoolStorage storage ps = poolStorage();\r\n        return ps.feesCollected;\r\n    }\r\n\r\n    function currentFees() public view returns(uint256, uint256){\r\n        PoolStorage storage ps = poolStorage();\r\n        return (ps.depositFees, ps.withdrawFees);\r\n    }\r\n\r\n    function claimGasFee() public{\r\n        PoolStorage storage ps = poolStorage();\r\n        uint256 gasAtStart = (gasleft().add(ps.defaultGas)).mul(tx.gasprice);\r\n        uint256 claimableAmount = ps.gasUsed[msg.sender];\r\n        require(claimableAmount > 0, \"Nothing to claim\");\r\n        require(address(this).balance >= claimableAmount, \"Dont have enough fund, Try later!!\");\r\n        ps.gasUsed[msg.sender] = 0;\r\n        msg.sender.transfer(claimableAmount);\r\n        uint256 gasAtEnd = gasleft().mul(tx.gasprice);\r\n        ps.gasUsed[msg.sender] = gasAtStart - gasAtEnd;\r\n    }\r\n\r\n    function convertFeesToETH() external {\r\n        PoolStorage storage ps = poolStorage();\r\n        ps.gasUsed[msg.sender] = ps.gasUsed[msg.sender].add((gasleft().add(ps.defaultGas)).mul(tx.gasprice));\r\n        address[] memory path = new address[](2);\r\n        ps.coin.approve(address(ps.uniswapRouter), ps.feesCollected);\r\n        path[0] = address(ps.coin);\r\n        path[1] = ps.uniswapRouter.WETH();\r\n        uint256 amountOutMin = 0;\r\n        ps.feesCollected = 0;\r\n        ps.uniswapRouter.swapExactTokensForETH(ps.feesCollected, amountOutMin, path, address(this), block.timestamp + 100000);\r\n        ps.gasUsed[msg.sender] = ps.gasUsed[msg.sender].sub(gasleft().mul(tx.gasprice));\r\n    }\r\n\r\n    receive() external payable {\r\n    }\r\n}",
  "sourcePath": "E:/New Desktop/Projects/AdvancedPool/AdvancedPool/contracts/facets/AdvancedPool.sol",
  "compiler": {
    "name": "solc",
    "version": "0.7.6+commit.7338295f.Emscripten.clang"
  },
  "schemaVersion": "3.3.2",
  "updatedAt": "2021-05-09T05:02:05.172Z",
  "networkType": "ethereum",
  "devdoc": {
    "kind": "dev",
    "methods": {},
    "version": 1
  },
  "userdoc": {
    "kind": "user",
    "methods": {},
    "version": 1
  }
}