{
  "contractName": "AdvancedPool2",
  "abi": [
    {
      "inputs": [],
      "name": "poolTokenPrice",
      "outputs": [
        {
          "internalType": "uint256",
          "name": "",
          "type": "uint256"
        }
      ],
      "stateMutability": "view",
      "type": "function"
    }
  ],
  "bytecode": "0x608060405234801561001057600080fd5b506104e1806100206000396000f3fe608060405234801561001057600080fd5b506004361061002b5760003560e01c8063e425534214610030575b600080fd5b61003861004e565b604051610045919061046f565b60405180910390f35b60008061005961031f565b905060008160010160009054906101000a900473ffffffffffffffffffffffffffffffffffffffff1673ffffffffffffffffffffffffffffffffffffffff166318160ddd6040518163ffffffff1660e01b815260040160206040518083038186803b1580156100c757600080fd5b505afa1580156100db573d6000803e3d6000fd5b505050506040513d601f19601f820116820180604052508101906100ff9190610437565b14806101125750600061011061034c565b145b610273578060010160009054906101000a900473ffffffffffffffffffffffffffffffffffffffff1673ffffffffffffffffffffffffffffffffffffffff166318160ddd6040518163ffffffff1660e01b815260040160206040518083038186803b15801561018057600080fd5b505afa158015610194573d6000803e3d6000fd5b505050506040513d601f19601f820116820180604052508101906101b89190610437565b6101c061034c565b8260010160009054906101000a900473ffffffffffffffffffffffffffffffffffffffff1673ffffffffffffffffffffffffffffffffffffffff1663313ce5676040518163ffffffff1660e01b815260040160206040518083038186803b15801561022a57600080fd5b505afa15801561023e573d6000803e3d6000fd5b505050506040513d601f19601f820116820180604052508101906102629190610437565b600a0a028161026d57fe5b04610319565b8060010160009054906101000a900473ffffffffffffffffffffffffffffffffffffffff1673ffffffffffffffffffffffffffffffffffffffff1663313ce5676040518163ffffffff1660e01b815260040160206040518083038186803b1580156102dd57600080fd5b505afa1580156102f1573d6000803e3d6000fd5b505050506040513d601f19601f820116820180604052508101906103159190610437565b600a0a5b91505090565b6000807f6c2f2617da7540533aede37184df9fe8d14d2f091e9a392f2685af4b9851d17290508091505090565b60008061035761031f565b905061036161036d565b81600a01540191505090565b60008061037861031f565b90508060020160009054906101000a900473ffffffffffffffffffffffffffffffffffffffff1673ffffffffffffffffffffffffffffffffffffffff16631d01364c6040518163ffffffff1660e01b815260040160206040518083038186803b1580156103e457600080fd5b505afa1580156103f8573d6000803e3d6000fd5b505050506040513d601f19601f8201168201806040525081019061041c9190610437565b91505090565b60008151905061043181610494565b92915050565b60006020828403121561044957600080fd5b600061045784828501610422565b91505092915050565b6104698161048a565b82525050565b60006020820190506104846000830184610460565b92915050565b6000819050919050565b61049d8161048a565b81146104a857600080fd5b5056fea2646970667358221220b60fdba2d3bf62703751bf725a743ccfffbc348c8f3c199a0ede4f72fbae6f6c64736f6c63430007060033",
  "immutableReferences": {},
  "source": "// SPDX-License-Identifier: UNLICENSED\r\npragma solidity ^0.7.6;\r\npragma experimental ABIEncoderV2;\r\n\r\nimport \"../storage/PoolStorage.sol\";\r\n\r\ncontract AdvancedPool2 is PoolStorageV1 {\r\n    \r\n/****VARIABLES*****/\r\n    using SafeMath for uint256;\r\n   \r\n/****OTHER FUNCTIONS****/\r\n\r\n    //function poolToken() public view returns(address){\r\n    //    PoolStorage storage ps = poolStorage();\r\n    //    return address(ps.poolToken);\r\n    //}\r\n    function poolTokenPrice() public view returns(uint256){\r\n        PoolStorage storage ps = poolStorage();\r\n        return (ps.poolToken.totalSupply() == 0 || totalDeposit() == 0) ? 10**ps.poolToken.decimals() : ((10**ps.poolToken.decimals())*totalDeposit())/ps.poolToken.totalSupply();\r\n    }\r\n\r\n    function totalDeposit() internal view returns(uint256){\r\n        PoolStorage storage ps = poolStorage();\r\n        return ps.poolBalance + strategyDeposit();\r\n    }\r\n\r\n    function strategyDeposit() internal view returns(uint256){\r\n        PoolStorage storage ps = poolStorage();\r\n        return ps.depositStrategy.depositedAmount();\r\n    }\r\n}",
  "sourcePath": "E:/Projects/AdvancedPool/AdvancedPool/contracts/facets/AdvancedPool2.sol",
  "compiler": {
    "name": "solc",
    "version": "0.7.6+commit.7338295f.Emscripten.clang"
  },
  "schemaVersion": "3.3.2",
  "updatedAt": "2021-08-18T05:37:31.225Z",
  "devdoc": {
    "kind": "dev",
    "methods": {},
    "version": 1
  },
  "userdoc": {
    "kind": "user",
    "methods": {},
    "version": 1
  }
}