{
  "contractName": "AdvancedPool",
  "abi": [
    {
      "anonymous": false,
      "inputs": [
        {
          "indexed": false,
          "internalType": "address",
          "name": "user",
          "type": "address"
        },
        {
          "indexed": false,
          "internalType": "address",
          "name": "pool",
          "type": "address"
        },
        {
          "indexed": false,
          "internalType": "uint256",
          "name": "amount",
          "type": "uint256"
        }
      ],
      "name": "poolDeposit",
      "type": "event"
    },
    {
      "anonymous": false,
      "inputs": [
        {
          "indexed": false,
          "internalType": "address",
          "name": "user",
          "type": "address"
        },
        {
          "indexed": false,
          "internalType": "address",
          "name": "pool",
          "type": "address"
        },
        {
          "indexed": false,
          "internalType": "uint256",
          "name": "amount",
          "type": "uint256"
        }
      ],
      "name": "poolWithdrawal",
      "type": "event"
    },
    {
      "anonymous": false,
      "inputs": [
        {
          "indexed": false,
          "internalType": "address",
          "name": "user",
          "type": "address"
        },
        {
          "indexed": false,
          "internalType": "uint256",
          "name": "amount",
          "type": "uint256"
        }
      ],
      "name": "userDeposits",
      "type": "event"
    },
    {
      "anonymous": false,
      "inputs": [
        {
          "indexed": false,
          "internalType": "address",
          "name": "user",
          "type": "address"
        },
        {
          "indexed": false,
          "internalType": "uint256",
          "name": "amount",
          "type": "uint256"
        }
      ],
      "name": "userWithdrawal",
      "type": "event"
    },
    {
      "stateMutability": "payable",
      "type": "receive",
      "payable": true
    },
    {
      "inputs": [
        {
          "internalType": "contract IERC20",
          "name": "_coin",
          "type": "address"
        },
        {
          "internalType": "contract IERC20",
          "name": "_poolToken",
          "type": "address"
        },
        {
          "internalType": "uint256",
          "name": "_minLiquidity",
          "type": "uint256"
        },
        {
          "internalType": "uint256",
          "name": "_maxLiquidity",
          "type": "uint256"
        },
        {
          "internalType": "uint256",
          "name": "_withdrawFees",
          "type": "uint256"
        },
        {
          "internalType": "uint256",
          "name": "_depositFees",
          "type": "uint256"
        },
        {
          "internalType": "uint256",
          "name": "_maxWithdrawalAllowed",
          "type": "uint256"
        },
        {
          "internalType": "address[]",
          "name": "_owners",
          "type": "address[]"
        },
        {
          "internalType": "contract DepositStrategy",
          "name": "_depositStrategy",
          "type": "address"
        },
        {
          "internalType": "contract UniswapV2Router02",
          "name": "_uniswapRouter",
          "type": "address"
        },
        {
          "internalType": "contract Controller",
          "name": "_controller",
          "type": "address"
        }
      ],
      "name": "initialize",
      "outputs": [],
      "stateMutability": "nonpayable",
      "type": "function"
    },
    {
      "inputs": [
        {
          "internalType": "uint256",
          "name": "amount",
          "type": "uint256"
        }
      ],
      "name": "stake",
      "outputs": [
        {
          "internalType": "uint256",
          "name": "",
          "type": "uint256"
        }
      ],
      "stateMutability": "nonpayable",
      "type": "function"
    },
    {
      "inputs": [
        {
          "internalType": "uint256",
          "name": "amount",
          "type": "uint256"
        }
      ],
      "name": "unstake",
      "outputs": [
        {
          "internalType": "uint256",
          "name": "",
          "type": "uint256"
        }
      ],
      "stateMutability": "nonpayable",
      "type": "function"
    },
    {
      "inputs": [
        {
          "internalType": "uint256",
          "name": "minMintAmount",
          "type": "uint256"
        }
      ],
      "name": "addToStrategy",
      "outputs": [
        {
          "internalType": "uint256",
          "name": "",
          "type": "uint256"
        }
      ],
      "stateMutability": "nonpayable",
      "type": "function"
    },
    {
      "inputs": [
        {
          "internalType": "uint256",
          "name": "maxBurnAmount",
          "type": "uint256"
        }
      ],
      "name": "removeFromStrategy",
      "outputs": [
        {
          "internalType": "uint256",
          "name": "",
          "type": "uint256"
        }
      ],
      "stateMutability": "nonpayable",
      "type": "function"
    },
    {
      "inputs": [
        {
          "internalType": "uint256",
          "name": "minAmount",
          "type": "uint256"
        }
      ],
      "name": "removeAllFromStrategy",
      "outputs": [],
      "stateMutability": "nonpayable",
      "type": "function"
    },
    {
      "inputs": [
        {
          "internalType": "uint256",
          "name": "_minLiquidity",
          "type": "uint256"
        },
        {
          "internalType": "uint256",
          "name": "_maxLiquidity",
          "type": "uint256"
        },
        {
          "internalType": "uint256",
          "name": "_maxWithdrawalAllowed",
          "type": "uint256"
        },
        {
          "internalType": "uint256",
          "name": "maxBurnOrMinMint",
          "type": "uint256"
        }
      ],
      "name": "updateLiquidityParam",
      "outputs": [
        {
          "internalType": "bool",
          "name": "",
          "type": "bool"
        }
      ],
      "stateMutability": "nonpayable",
      "type": "function"
    },
    {
      "inputs": [
        {
          "internalType": "uint256",
          "name": "_depositFees",
          "type": "uint256"
        },
        {
          "internalType": "uint256",
          "name": "_withdrawFees",
          "type": "uint256"
        }
      ],
      "name": "updateFees",
      "outputs": [
        {
          "internalType": "bool",
          "name": "",
          "type": "bool"
        }
      ],
      "stateMutability": "nonpayable",
      "type": "function"
    },
    {
      "inputs": [],
      "name": "changeLockStatus",
      "outputs": [
        {
          "internalType": "bool",
          "name": "",
          "type": "bool"
        }
      ],
      "stateMutability": "nonpayable",
      "type": "function"
    },
    {
      "inputs": [
        {
          "internalType": "address",
          "name": "newOwner",
          "type": "address"
        },
        {
          "internalType": "address",
          "name": "newSuperOwner",
          "type": "address"
        }
      ],
      "name": "updateOwners",
      "outputs": [
        {
          "internalType": "bool",
          "name": "",
          "type": "bool"
        }
      ],
      "stateMutability": "nonpayable",
      "type": "function"
    },
    {
      "inputs": [],
      "name": "getYield",
      "outputs": [],
      "stateMutability": "nonpayable",
      "type": "function"
    },
    {
      "inputs": [
        {
          "internalType": "contract DepositStrategy",
          "name": "_newStrategy",
          "type": "address"
        }
      ],
      "name": "updateStrategy",
      "outputs": [],
      "stateMutability": "nonpayable",
      "type": "function"
    },
    {
      "inputs": [],
      "name": "convertFeesToETH",
      "outputs": [],
      "stateMutability": "nonpayable",
      "type": "function"
    },
    {
      "inputs": [
        {
          "internalType": "uint256",
          "name": "amountOfStableCoins",
          "type": "uint256"
        }
      ],
      "name": "calculatePoolTokens",
      "outputs": [
        {
          "internalType": "uint256",
          "name": "",
          "type": "uint256"
        }
      ],
      "stateMutability": "view",
      "type": "function",
      "constant": true
    },
    {
      "inputs": [],
      "name": "stableCoinPrice",
      "outputs": [
        {
          "internalType": "uint256",
          "name": "",
          "type": "uint256"
        }
      ],
      "stateMutability": "view",
      "type": "function",
      "constant": true
    },
    {
      "inputs": [
        {
          "internalType": "uint256",
          "name": "amountOfPoolToken",
          "type": "uint256"
        }
      ],
      "name": "calculateStableCoins",
      "outputs": [
        {
          "internalType": "uint256",
          "name": "",
          "type": "uint256"
        }
      ],
      "stateMutability": "view",
      "type": "function",
      "constant": true
    },
    {
      "inputs": [],
      "name": "poolTokenPrice",
      "outputs": [
        {
          "internalType": "uint256",
          "name": "",
          "type": "uint256"
        }
      ],
      "stateMutability": "view",
      "type": "function",
      "constant": true
    },
    {
      "inputs": [],
      "name": "maxWithdrawal",
      "outputs": [
        {
          "internalType": "uint256",
          "name": "",
          "type": "uint256"
        }
      ],
      "stateMutability": "view",
      "type": "function",
      "constant": true
    },
    {
      "inputs": [],
      "name": "currentLiquidity",
      "outputs": [
        {
          "internalType": "uint256",
          "name": "",
          "type": "uint256"
        }
      ],
      "stateMutability": "view",
      "type": "function",
      "constant": true
    },
    {
      "inputs": [],
      "name": "idealAmount",
      "outputs": [
        {
          "internalType": "uint256",
          "name": "",
          "type": "uint256"
        }
      ],
      "stateMutability": "view",
      "type": "function",
      "constant": true
    },
    {
      "inputs": [],
      "name": "maxLiquidityAllowedInPool",
      "outputs": [
        {
          "internalType": "uint256",
          "name": "",
          "type": "uint256"
        }
      ],
      "stateMutability": "view",
      "type": "function",
      "constant": true
    },
    {
      "inputs": [],
      "name": "amountToDeposit",
      "outputs": [
        {
          "internalType": "uint256",
          "name": "",
          "type": "uint256"
        }
      ],
      "stateMutability": "view",
      "type": "function",
      "constant": true
    },
    {
      "inputs": [],
      "name": "minLiquidityToMaintainInPool",
      "outputs": [
        {
          "internalType": "uint256",
          "name": "",
          "type": "uint256"
        }
      ],
      "stateMutability": "view",
      "type": "function",
      "constant": true
    },
    {
      "inputs": [],
      "name": "amountToWithdraw",
      "outputs": [
        {
          "internalType": "uint256",
          "name": "",
          "type": "uint256"
        }
      ],
      "stateMutability": "view",
      "type": "function",
      "constant": true
    },
    {
      "inputs": [],
      "name": "lockStatus",
      "outputs": [
        {
          "internalType": "bool",
          "name": "",
          "type": "bool"
        }
      ],
      "stateMutability": "view",
      "type": "function",
      "constant": true
    },
    {
      "inputs": [],
      "name": "totalDeposit",
      "outputs": [
        {
          "internalType": "uint256",
          "name": "",
          "type": "uint256"
        }
      ],
      "stateMutability": "view",
      "type": "function",
      "constant": true
    },
    {
      "inputs": [],
      "name": "strategyDeposit",
      "outputs": [
        {
          "internalType": "uint256",
          "name": "",
          "type": "uint256"
        }
      ],
      "stateMutability": "view",
      "type": "function",
      "constant": true
    },
    {
      "inputs": [],
      "name": "feesCollected",
      "outputs": [
        {
          "internalType": "uint256",
          "name": "",
          "type": "uint256"
        }
      ],
      "stateMutability": "view",
      "type": "function",
      "constant": true
    },
    {
      "inputs": [],
      "name": "currentFees",
      "outputs": [
        {
          "internalType": "uint256",
          "name": "",
          "type": "uint256"
        },
        {
          "internalType": "uint256",
          "name": "",
          "type": "uint256"
        }
      ],
      "stateMutability": "view",
      "type": "function",
      "constant": true
    },
    {
      "inputs": [],
      "name": "currentLiquidityParams",
      "outputs": [
        {
          "internalType": "uint256",
          "name": "",
          "type": "uint256"
        },
        {
          "internalType": "uint256",
          "name": "",
          "type": "uint256"
        },
        {
          "internalType": "uint256",
          "name": "",
          "type": "uint256"
        }
      ],
      "stateMutability": "view",
      "type": "function",
      "constant": true
    },
    {
      "inputs": [],
      "name": "owners",
      "outputs": [
        {
          "internalType": "address",
          "name": "",
          "type": "address"
        },
        {
          "internalType": "address",
          "name": "",
          "type": "address"
        }
      ],
      "stateMutability": "view",
      "type": "function",
      "constant": true
    }
  ],
  "bytecode": "0x608060405234801561001057600080fd5b50615486806100206000396000f3fe6080604052600436106101dc5760003560e01c806384159d1411610102578063d15359cc11610095578063f071db5a11610064578063f071db5a146106d7578063f6153ccd14610702578063fc0a497e1461072d578063fe135c0e1461076a576101e3565b8063d15359cc1461062b578063d395fbc514610658578063daccaf6314610683578063e4255342146106ac576101e3565b8063affe39c1116100d1578063affe39c114610580578063b4ad5e08146105ac578063c3c9f52b146105d7578063caa1d9c114610614576101e3565b806384159d14146104b25780638a98cdd4146104db5780638c0ff5b714610518578063a694fc3a14610543576101e3565b806346caf2ae1161017a5780636db79437116101495780636db79437146103f65780637039206b146104335780637260cc76146104705780637c2628711461049b576101e3565b806346caf2ae146103375780634b366863146103625780635b404bad1461039f5780635d9644c4146103ca576101e3565b806331dd132e116101b657806331dd132e1461027b5780633b35440a146102a65780633e89340f146102e35780634076245f1461030e576101e3565b8063077622a2146101e8578063269fa128146102135780632e17de781461023e576101e3565b366101e357005b600080fd5b3480156101f457600080fd5b506101fd610795565b60405161020a91906150e3565b60405180910390f35b34801561021f57600080fd5b506102286107d9565b60405161023591906150e3565b60405180910390f35b34801561024a57600080fd5b5061026560048036038101906102609190614862565b610847565b60405161027291906150e3565b60405180910390f35b34801561028757600080fd5b50610290610cb9565b60405161029d91906150e3565b60405180910390f35b3480156102b257600080fd5b506102cd60048036038101906102c8919061468b565b610cd1565b6040516102da9190614f28565b60405180910390f35b3480156102ef57600080fd5b506102f8610f96565b6040516103059190614f28565b60405180910390f35b34801561031a57600080fd5b5061033560048036038101906103309190614862565b610fbb565b005b34801561034357600080fd5b5061034c61143c565b60405161035991906150e3565b60405180910390f35b34801561036e57600080fd5b5061038960048036038101906103849190614862565b61145a565b60405161039691906150e3565b60405180910390f35b3480156103ab57600080fd5b506103b46118af565b6040516103c191906150e3565b60405180910390f35b3480156103d657600080fd5b506103df611b7a565b6040516103ed929190615127565b60405180910390f35b34801561040257600080fd5b5061041d600480360381019061041891906148b4565b611b9c565b60405161042a9190614f28565b60405180910390f35b34801561043f57600080fd5b5061045a60048036038101906104559190614862565b611ded565b60405161046791906150e3565b60405180910390f35b34801561047c57600080fd5b506104856123ef565b60405161049291906150e3565b60405180910390f35b3480156104a757600080fd5b506104b061241a565b005b3480156104be57600080fd5b506104d960048036038101906104d4919061475a565b612772565b005b3480156104e757600080fd5b5061050260048036038101906104fd9190614862565b612a30565b60405161050f91906150e3565b60405180910390f35b34801561052457600080fd5b5061052d612aff565b60405161053a91906150e3565b60405180910390f35b34801561054f57600080fd5b5061056a60048036038101906105659190614862565b612b4b565b60405161057791906150e3565b60405180910390f35b34801561058c57600080fd5b50610595612dda565b6040516105a3929190614ead565b60405180910390f35b3480156105b857600080fd5b506105c1612e3c565b6040516105ce91906150e3565b60405180910390f35b3480156105e357600080fd5b506105fe60048036038101906105f99190614862565b612e67565b60405161060b91906150e3565b60405180910390f35b34801561062057600080fd5b50610629612f33565b005b34801561063757600080fd5b5061064061360f565b60405161064f939291906151aa565b60405180910390f35b34801561066457600080fd5b5061066d61363a565b60405161067a9190614f28565b60405180910390f35b34801561068f57600080fd5b506106aa60048036038101906106a59190614731565b61390e565b005b3480156106b857600080fd5b506106c1613bcf565b6040516106ce91906150e3565b60405180910390f35b3480156106e357600080fd5b506106ec613e9a565b6040516106f991906150e3565b60405180910390f35b34801561070e57600080fd5b50610717613eb2565b60405161072491906150e3565b60405180910390f35b34801561073957600080fd5b50610754600480360381019061074f91906148f0565b613eca565b6040516107619190614f28565b60405180910390f35b34801561077657600080fd5b5061077f6141fe565b60405161078c91906150e3565b60405180910390f35b6000806107a0614234565b905080600401546002026107c58260080154836007015461426190919063ffffffff16565b82600a015402816107d257fe5b0491505090565b6000806107e4614234565b90506107ee6123ef565b6107f661143c565b11806108065750600081600c0154145b80610824575061081461143c565b61081c610795565b0381600c0154105b61083e5761083061143c565b610838610795565b03610841565b60005b91505090565b600080610852614234565b905080600e0160009054906101000a900460ff16156108a6576040517f08c379a000000000000000000000000000000000000000000000000000000000815260040161089d90615043565b60405180910390fd5b60006108b0614234565b90506108ba612aff565b8411156108fc576040517f08c379a00000000000000000000000000000000000000000000000000000000081526004016108f390614fe3565b60405180910390fd5b8060000160019054906101000a900473ffffffffffffffffffffffffffffffffffffffff1673ffffffffffffffffffffffffffffffffffffffff166370a08231306040518263ffffffff1660e01b81526004016109599190614dfb565b60206040518083038186803b15801561097157600080fd5b505afa158015610985573d6000803e3d6000fd5b505050506040513d601f19601f820116820180604052508101906109a9919061488b565b8411156109eb576040517f08c379a00000000000000000000000000000000000000000000000000000000081526004016109e290615003565b60405180910390fd5b60006109f685612e67565b90508160010160009054906101000a900473ffffffffffffffffffffffffffffffffffffffff1673ffffffffffffffffffffffffffffffffffffffff166370a08231336040518263ffffffff1660e01b8152600401610a559190614dfb565b60206040518083038186803b158015610a6d57600080fd5b505afa158015610a81573d6000803e3d6000fd5b505050506040513d601f19601f82011682018060405250810190610aa5919061488b565b811115610ae7576040517f08c379a0000000000000000000000000000000000000000000000000000000008152600401610ade90615023565b60405180910390fd5b600082600401548360060154870281610afc57fe5b0490508083600b01540183600b0181905550610b258684600a01546142e990919063ffffffff16565b83600a01819055508260000160019054906101000a900473ffffffffffffffffffffffffffffffffffffffff1673ffffffffffffffffffffffffffffffffffffffff1663a9059cbb338389036040518363ffffffff1660e01b8152600401610b8e929190614e84565b602060405180830381600087803b158015610ba857600080fd5b505af1158015610bbc573d6000803e3d6000fd5b505050506040513d601f19601f82011682018060405250810190610be09190614708565b508260010160009054906101000a900473ffffffffffffffffffffffffffffffffffffffff1673ffffffffffffffffffffffffffffffffffffffff16639dc29fac33846040518363ffffffff1660e01b8152600401610c40929190614e84565b600060405180830381600087803b158015610c5a57600080fd5b505af1158015610c6e573d6000803e3d6000fd5b505050507f42b2a4ad2d4bdf57e819ccd3c6ce6d0a8d6d20b5d3dbf94ef2b05c42f523c6103387604051610ca3929190614e84565b60405180910390a1808603945050505050919050565b600080610cc4614234565b905080600c015491505090565b600080610cdc614234565b90503373ffffffffffffffffffffffffffffffffffffffff1681600f0160009054906101000a900473ffffffffffffffffffffffffffffffffffffffff1673ffffffffffffffffffffffffffffffffffffffff1614610d70576040517f08c379a0000000000000000000000000000000000000000000000000000000008152600401610d6790615063565b60405180910390fd5b6000610d7a614234565b90506000610e463a610e388460100160009054906101000a900473ffffffffffffffffffffffffffffffffffffffff1673ffffffffffffffffffffffffffffffffffffffff166384e9a9016040518163ffffffff1660e01b8152600401602060405180830381600087803b158015610df157600080fd5b505af1158015610e05573d6000803e3d6000fd5b505050506040513d601f19601f82011682018060405250810190610e29919061488b565b5a61426190919063ffffffff16565b61433390919063ffffffff16565b90508582600e0160016101000a81548173ffffffffffffffffffffffffffffffffffffffff021916908373ffffffffffffffffffffffffffffffffffffffff1602179055508482600f0160006101000a81548173ffffffffffffffffffffffffffffffffffffffff021916908373ffffffffffffffffffffffffffffffffffffffff1602179055506000610ef5610ee63a5a61433390919063ffffffff16565b836142e990919063ffffffff16565b90508260100160009054906101000a900473ffffffffffffffffffffffffffffffffffffffff1673ffffffffffffffffffffffffffffffffffffffff16636c55068282336040518363ffffffff1660e01b8152600401610f569291906150fe565b600060405180830381600087803b158015610f7057600080fd5b505af1158015610f84573d6000803e3d6000fd5b50505050600194505050505092915050565b600080610fa1614234565b905080600e0160009054906101000a900460ff1691505090565b6000610fc5614234565b905080600e0160009054906101000a900460ff1615611019576040517f08c379a000000000000000000000000000000000000000000000000000000000815260040161101090615043565b60405180910390fd5b6000611023614234565b90503373ffffffffffffffffffffffffffffffffffffffff1681600f0160009054906101000a900473ffffffffffffffffffffffffffffffffffffffff1673ffffffffffffffffffffffffffffffffffffffff16146110b7576040517f08c379a00000000000000000000000000000000000000000000000000000000081526004016110ae90615063565b60405180910390fd5b60006110c1614234565b9050600061118d3a61117f8460100160009054906101000a900473ffffffffffffffffffffffffffffffffffffffff1673ffffffffffffffffffffffffffffffffffffffff166384e9a9016040518163ffffffff1660e01b8152600401602060405180830381600087803b15801561113857600080fd5b505af115801561114c573d6000803e3d6000fd5b505050506040513d601f19601f82011682018060405250810190611170919061488b565b5a61426190919063ffffffff16565b61433390919063ffffffff16565b9050600082600c0154116111d6576040517f08c379a00000000000000000000000000000000000000000000000000000000081526004016111cd90614fa3565b60405180910390fd5b600082600c01819055508160020160009054906101000a900473ffffffffffffffffffffffffffffffffffffffff1673ffffffffffffffffffffffffffffffffffffffff1663958e2d31866040518263ffffffff1660e01b815260040161123d91906150e3565b600060405180830381600087803b15801561125757600080fd5b505af115801561126b573d6000803e3d6000fd5b505050507fe2da54b49c071dfc046fee542e5201277eee89662a48be76fe432bce2ce1443b338360020160009054906101000a900473ffffffffffffffffffffffffffffffffffffffff168460000160019054906101000a900473ffffffffffffffffffffffffffffffffffffffff1673ffffffffffffffffffffffffffffffffffffffff166370a08231306040518263ffffffff1660e01b81526004016113139190614dfb565b60206040518083038186803b15801561132b57600080fd5b505afa15801561133f573d6000803e3d6000fd5b505050506040513d601f19601f82011682018060405250810190611363919061488b565b60405161137293929190614e4d565b60405180910390a160006113a16113923a5a61433390919063ffffffff16565b836142e990919063ffffffff16565b90508260100160009054906101000a900473ffffffffffffffffffffffffffffffffffffffff1673ffffffffffffffffffffffffffffffffffffffff16636c55068282336040518363ffffffff1660e01b81526004016114029291906150fe565b600060405180830381600087803b15801561141c57600080fd5b505af1158015611430573d6000803e3d6000fd5b50505050505050505050565b600080611447614234565b905080600c015481600a01540391505090565b600080611465614234565b905080600e0160009054906101000a900460ff16156114b9576040517f08c379a00000000000000000000000000000000000000000000000000000000081526004016114b090615043565b60405180910390fd5b60006114c3614234565b90503373ffffffffffffffffffffffffffffffffffffffff1681600e0160019054906101000a900473ffffffffffffffffffffffffffffffffffffffff1673ffffffffffffffffffffffffffffffffffffffff16148061157257503373ffffffffffffffffffffffffffffffffffffffff1681600f0160009054906101000a900473ffffffffffffffffffffffffffffffffffffffff1673ffffffffffffffffffffffffffffffffffffffff16145b6115b1576040517f08c379a00000000000000000000000000000000000000000000000000000000081526004016115a890614f63565b60405180910390fd5b60006115bb614234565b905060006116873a6116798460100160009054906101000a900473ffffffffffffffffffffffffffffffffffffffff1673ffffffffffffffffffffffffffffffffffffffff166384e9a9016040518163ffffffff1660e01b8152600401602060405180830381600087803b15801561163257600080fd5b505af1158015611646573d6000803e3d6000fd5b505050506040513d601f19601f8201168201806040525081019061166a919061488b565b5a61426190919063ffffffff16565b61433390919063ffffffff16565b905060006116936107d9565b9050600081116116d8576040517f08c379a00000000000000000000000000000000000000000000000000000000081526004016116cf90614fa3565b60405180910390fd5b6116ef8184600c01546142e990919063ffffffff16565b83600c01819055508260020160009054906101000a900473ffffffffffffffffffffffffffffffffffffffff1673ffffffffffffffffffffffffffffffffffffffff1663441a3e7082896040518363ffffffff1660e01b8152600401611756929190615127565b600060405180830381600087803b15801561177057600080fd5b505af1158015611784573d6000803e3d6000fd5b505050507fe2da54b49c071dfc046fee542e5201277eee89662a48be76fe432bce2ce1443b338460020160009054906101000a900473ffffffffffffffffffffffffffffffffffffffff16836040516117df93929190614e4d565b60405180910390a1600061180e6117ff3a5a61433390919063ffffffff16565b846142e990919063ffffffff16565b90508360100160009054906101000a900473ffffffffffffffffffffffffffffffffffffffff1673ffffffffffffffffffffffffffffffffffffffff16636c55068282336040518363ffffffff1660e01b815260040161186f9291906150fe565b600060405180830381600087803b15801561188957600080fd5b505af115801561189d573d6000803e3d6000fd5b50505050819650505050505050919050565b6000806118ba614234565b905060008160010160009054906101000a900473ffffffffffffffffffffffffffffffffffffffff1673ffffffffffffffffffffffffffffffffffffffff166318160ddd6040518163ffffffff1660e01b815260040160206040518083038186803b15801561192857600080fd5b505afa15801561193c573d6000803e3d6000fd5b505050506040513d601f19601f82011682018060405250810190611960919061488b565b14806119705750600081600a0154145b611ace5780600a01548160010160009054906101000a900473ffffffffffffffffffffffffffffffffffffffff1673ffffffffffffffffffffffffffffffffffffffff166318160ddd6040518163ffffffff1660e01b815260040160206040518083038186803b1580156119e357600080fd5b505afa1580156119f7573d6000803e3d6000fd5b505050506040513d601f19601f82011682018060405250810190611a1b919061488b565b8260000160019054906101000a900473ffffffffffffffffffffffffffffffffffffffff1673ffffffffffffffffffffffffffffffffffffffff1663313ce5676040518163ffffffff1660e01b815260040160206040518083038186803b158015611a8557600080fd5b505afa158015611a99573d6000803e3d6000fd5b505050506040513d601f19601f82011682018060405250810190611abd919061488b565b600a0a0281611ac857fe5b04611b74565b8060000160019054906101000a900473ffffffffffffffffffffffffffffffffffffffff1673ffffffffffffffffffffffffffffffffffffffff1663313ce5676040518163ffffffff1660e01b815260040160206040518083038186803b158015611b3857600080fd5b505afa158015611b4c573d6000803e3d6000fd5b505050506040513d601f19601f82011682018060405250810190611b70919061488b565b600a0a5b91505090565b6000806000611b87614234565b90508060050154816006015492509250509091565b600080611ba7614234565b90503373ffffffffffffffffffffffffffffffffffffffff1681600f0160009054906101000a900473ffffffffffffffffffffffffffffffffffffffff1673ffffffffffffffffffffffffffffffffffffffff1614611c3b576040517f08c379a0000000000000000000000000000000000000000000000000000000008152600401611c3290615063565b60405180910390fd5b6000611c45614234565b90506000611d113a611d038460100160009054906101000a900473ffffffffffffffffffffffffffffffffffffffff1673ffffffffffffffffffffffffffffffffffffffff166384e9a9016040518163ffffffff1660e01b8152600401602060405180830381600087803b158015611cbc57600080fd5b505af1158015611cd0573d6000803e3d6000fd5b505050506040513d601f19601f82011682018060405250810190611cf4919061488b565b5a61426190919063ffffffff16565b61433390919063ffffffff16565b90508482600601819055508582600501819055506000611d4c611d3d3a5a61433390919063ffffffff16565b836142e990919063ffffffff16565b90508260100160009054906101000a900473ffffffffffffffffffffffffffffffffffffffff1673ffffffffffffffffffffffffffffffffffffffff16636c55068282336040518363ffffffff1660e01b8152600401611dad9291906150fe565b600060405180830381600087803b158015611dc757600080fd5b505af1158015611ddb573d6000803e3d6000fd5b50505050600194505050505092915050565b600080611df8614234565b905080600e0160009054906101000a900460ff1615611e4c576040517f08c379a0000000000000000000000000000000000000000000000000000000008152600401611e4390615043565b60405180910390fd5b6000611e56614234565b90503373ffffffffffffffffffffffffffffffffffffffff1681600e0160019054906101000a900473ffffffffffffffffffffffffffffffffffffffff1673ffffffffffffffffffffffffffffffffffffffff161480611f0557503373ffffffffffffffffffffffffffffffffffffffff1681600f0160009054906101000a900473ffffffffffffffffffffffffffffffffffffffff1673ffffffffffffffffffffffffffffffffffffffff16145b611f44576040517f08c379a0000000000000000000000000000000000000000000000000000000008152600401611f3b90614f63565b60405180910390fd5b6000611f4e614234565b9050600061201a3a61200c8460100160009054906101000a900473ffffffffffffffffffffffffffffffffffffffff1673ffffffffffffffffffffffffffffffffffffffff166384e9a9016040518163ffffffff1660e01b8152600401602060405180830381600087803b158015611fc557600080fd5b505af1158015611fd9573d6000803e3d6000fd5b505050506040513d601f19601f82011682018060405250810190611ffd919061488b565b5a61426190919063ffffffff16565b61433390919063ffffffff16565b905060006120266141fe565b90506000811161206b576040517f08c379a000000000000000000000000000000000000000000000000000000000815260040161206290614f43565b60405180910390fd5b6120828184600c015461426190919063ffffffff16565b83600c01819055508260000160019054906101000a900473ffffffffffffffffffffffffffffffffffffffff1673ffffffffffffffffffffffffffffffffffffffff1663095ea7b38460020160009054906101000a900473ffffffffffffffffffffffffffffffffffffffff1660006040518363ffffffff1660e01b815260040161210e929190614ed6565b602060405180830381600087803b15801561212857600080fd5b505af115801561213c573d6000803e3d6000fd5b505050506040513d601f19601f820116820180604052508101906121609190614708565b508260000160019054906101000a900473ffffffffffffffffffffffffffffffffffffffff1673ffffffffffffffffffffffffffffffffffffffff1663095ea7b38460020160009054906101000a900473ffffffffffffffffffffffffffffffffffffffff16836040518363ffffffff1660e01b81526004016121e4929190614eff565b602060405180830381600087803b1580156121fe57600080fd5b505af1158015612212573d6000803e3d6000fd5b505050506040513d601f19601f820116820180604052508101906122369190614708565b508260020160009054906101000a900473ffffffffffffffffffffffffffffffffffffffff1673ffffffffffffffffffffffffffffffffffffffff1663e2bbb15882896040518363ffffffff1660e01b8152600401612296929190615127565b600060405180830381600087803b1580156122b057600080fd5b505af11580156122c4573d6000803e3d6000fd5b505050507f5123d8a168830852333177a82ac00938d8567897d76f68e27c135f5ca9776733338460020160009054906101000a900473ffffffffffffffffffffffffffffffffffffffff168360405161231f93929190614e4d565b60405180910390a1600061234e61233f3a5a61433390919063ffffffff16565b846142e990919063ffffffff16565b90508360100160009054906101000a900473ffffffffffffffffffffffffffffffffffffffff1673ffffffffffffffffffffffffffffffffffffffff16636c55068282336040518363ffffffff1660e01b81526004016123af9291906150fe565b600060405180830381600087803b1580156123c957600080fd5b505af11580156123dd573d6000803e3d6000fd5b50505050819650505050505050919050565b6000806123fa614234565b90508060040154816007015482600a0154028161241357fe5b0491505090565b6000612424614234565b90503373ffffffffffffffffffffffffffffffffffffffff1681600e0160019054906101000a900473ffffffffffffffffffffffffffffffffffffffff1673ffffffffffffffffffffffffffffffffffffffff1614806124d357503373ffffffffffffffffffffffffffffffffffffffff1681600f0160009054906101000a900473ffffffffffffffffffffffffffffffffffffffff1673ffffffffffffffffffffffffffffffffffffffff16145b612512576040517f08c379a000000000000000000000000000000000000000000000000000000000815260040161250990614f63565b60405180910390fd5b600061251c614234565b905060006125e83a6125da8460100160009054906101000a900473ffffffffffffffffffffffffffffffffffffffff1673ffffffffffffffffffffffffffffffffffffffff166384e9a9016040518163ffffffff1660e01b8152600401602060405180830381600087803b15801561259357600080fd5b505af11580156125a7573d6000803e3d6000fd5b505050506040513d601f19601f820116820180604052508101906125cb919061488b565b5a61426190919063ffffffff16565b61433390919063ffffffff16565b905060008260020160009054906101000a900473ffffffffffffffffffffffffffffffffffffffff1673ffffffffffffffffffffffffffffffffffffffff16632fbd70826040518163ffffffff1660e01b8152600401602060405180830381600087803b15801561265857600080fd5b505af115801561266c573d6000803e3d6000fd5b505050506040513d601f19601f82011682018060405250810190612690919061488b565b90506126a98184600a015461426190919063ffffffff16565b83600a018190555060006126d86126c93a5a61433390919063ffffffff16565b846142e990919063ffffffff16565b90508360100160009054906101000a900473ffffffffffffffffffffffffffffffffffffffff1673ffffffffffffffffffffffffffffffffffffffff16636c55068282336040518363ffffffff1660e01b81526004016127399291906150fe565b600060405180830381600087803b15801561275357600080fd5b505af1158015612767573d6000803e3d6000fd5b505050505050505050565b600061277c614234565b90508060000160009054906101000a900460ff16156127d0576040517f08c379a00000000000000000000000000000000000000000000000000000000081526004016127c790615083565b60405180910390fd5b846000815181106127dd57fe5b602002602001015181600e0160016101000a81548173ffffffffffffffffffffffffffffffffffffffff021916908373ffffffffffffffffffffffffffffffffffffffff1602179055508460018151811061283457fe5b602002602001015181600f0160006101000a81548173ffffffffffffffffffffffffffffffffffffffff021916908373ffffffffffffffffffffffffffffffffffffffff16021790555061271081600401819055508b8160000160016101000a81548173ffffffffffffffffffffffffffffffffffffffff021916908373ffffffffffffffffffffffffffffffffffffffff1602179055508a8160010160006101000a81548173ffffffffffffffffffffffffffffffffffffffff021916908373ffffffffffffffffffffffffffffffffffffffff160217905550898160070181905550888160080181905550878160060181905550868160050181905550838160020160006101000a81548173ffffffffffffffffffffffffffffffffffffffff021916908373ffffffffffffffffffffffffffffffffffffffff1602179055508581600d0181905550828160030160006101000a81548173ffffffffffffffffffffffffffffffffffffffff021916908373ffffffffffffffffffffffffffffffffffffffff160217905550818160100160006101000a81548173ffffffffffffffffffffffffffffffffffffffff021916908373ffffffffffffffffffffffffffffffffffffffff16021790555060018160000160006101000a81548160ff021916908315150217905550505050505050505050505050565b600080612a3b614234565b90508060010160009054906101000a900473ffffffffffffffffffffffffffffffffffffffff1673ffffffffffffffffffffffffffffffffffffffff1663313ce5676040518163ffffffff1660e01b815260040160206040518083038186803b158015612aa757600080fd5b505afa158015612abb573d6000803e3d6000fd5b505050506040513d601f19601f82011682018060405250810190612adf919061488b565b600a0a612aea613bcf565b840281612af357fe5b04925082915050919050565b600080612b0a614234565b905080600d01546002612b1b6123ef565b81612b2257fe5b0410612b325780600d0154612b45565b6002612b3c6123ef565b81612b4357fe5b045b91505090565b600080612b56614234565b905080600e0160009054906101000a900460ff1615612baa576040517f08c379a0000000000000000000000000000000000000000000000000000000008152600401612ba190615043565b60405180910390fd5b60008311612bed576040517f08c379a0000000000000000000000000000000000000000000000000000000008152600401612be490614fc3565b60405180910390fd5b6000612bf7614234565b9050600081600401548260050154860281612c0e57fe5b0490508082600b01540182600b01819055506000612c2d828703612e67565b9050612c4882870384600a015461426190919063ffffffff16565b83600a01819055508260000160019054906101000a900473ffffffffffffffffffffffffffffffffffffffff1673ffffffffffffffffffffffffffffffffffffffff166323b872dd3330896040518463ffffffff1660e01b8152600401612cb193929190614e16565b602060405180830381600087803b158015612ccb57600080fd5b505af1158015612cdf573d6000803e3d6000fd5b505050506040513d601f19601f82011682018060405250810190612d039190614708565b508260010160009054906101000a900473ffffffffffffffffffffffffffffffffffffffff1673ffffffffffffffffffffffffffffffffffffffff166340c10f1933836040518363ffffffff1660e01b8152600401612d63929190614e84565b600060405180830381600087803b158015612d7d57600080fd5b505af1158015612d91573d6000803e3d6000fd5b505050507f08f43333671aca8015183efb2197dac68519c827a11e6788eac8c80131169a643387604051612dc6929190614e84565b60405180910390a180945050505050919050565b6000806000612de7614234565b905080600e0160019054906101000a900473ffffffffffffffffffffffffffffffffffffffff1681600f0160009054906101000a900473ffffffffffffffffffffffffffffffffffffffff1692509250509091565b600080612e47614234565b90508060040154816008015482600a01540281612e6057fe5b0491505090565b600080612e72614234565b90508060000160019054906101000a900473ffffffffffffffffffffffffffffffffffffffff1673ffffffffffffffffffffffffffffffffffffffff1663313ce5676040518163ffffffff1660e01b815260040160206040518083038186803b158015612ede57600080fd5b505afa158015612ef2573d6000803e3d6000fd5b505050506040513d601f19601f82011682018060405250810190612f16919061488b565b600a0a612f216118af565b840281612f2a57fe5b04915050919050565b6000612f3d614234565b90503373ffffffffffffffffffffffffffffffffffffffff1681600e0160019054906101000a900473ffffffffffffffffffffffffffffffffffffffff1673ffffffffffffffffffffffffffffffffffffffff161480612fec57503373ffffffffffffffffffffffffffffffffffffffff1681600f0160009054906101000a900473ffffffffffffffffffffffffffffffffffffffff1673ffffffffffffffffffffffffffffffffffffffff16145b61302b576040517f08c379a000000000000000000000000000000000000000000000000000000000815260040161302290614f63565b60405180910390fd5b6000613035614234565b905060006131013a6130f38460100160009054906101000a900473ffffffffffffffffffffffffffffffffffffffff1673ffffffffffffffffffffffffffffffffffffffff166384e9a9016040518163ffffffff1660e01b8152600401602060405180830381600087803b1580156130ac57600080fd5b505af11580156130c0573d6000803e3d6000fd5b505050506040513d601f19601f820116820180604052508101906130e4919061488b565b5a61426190919063ffffffff16565b61433390919063ffffffff16565b90506000600267ffffffffffffffff8111801561311d57600080fd5b5060405190808252806020026020018201604052801561314c5781602001602082028036833780820191505090505b509050600083600b01549050600084600b01819055508360000160019054906101000a900473ffffffffffffffffffffffffffffffffffffffff1673ffffffffffffffffffffffffffffffffffffffff1663095ea7b38560030160009054906101000a900473ffffffffffffffffffffffffffffffffffffffff1660006040518363ffffffff1660e01b81526004016131e6929190614ed6565b602060405180830381600087803b15801561320057600080fd5b505af1158015613214573d6000803e3d6000fd5b505050506040513d601f19601f820116820180604052508101906132389190614708565b508360000160019054906101000a900473ffffffffffffffffffffffffffffffffffffffff1673ffffffffffffffffffffffffffffffffffffffff1663095ea7b38560030160009054906101000a900473ffffffffffffffffffffffffffffffffffffffff16836040518363ffffffff1660e01b81526004016132bc929190614eff565b602060405180830381600087803b1580156132d657600080fd5b505af11580156132ea573d6000803e3d6000fd5b505050506040513d601f19601f8201168201806040525081019061330e9190614708565b508360000160019054906101000a900473ffffffffffffffffffffffffffffffffffffffff168260008151811061334157fe5b602002602001019073ffffffffffffffffffffffffffffffffffffffff16908173ffffffffffffffffffffffffffffffffffffffff16815250508360030160009054906101000a900473ffffffffffffffffffffffffffffffffffffffff1673ffffffffffffffffffffffffffffffffffffffff1663ad5c46486040518163ffffffff1660e01b815260040160206040518083038186803b1580156133e557600080fd5b505afa1580156133f9573d6000803e3d6000fd5b505050506040513d601f19601f8201168201806040525081019061341d9190614662565b8260018151811061342a57fe5b602002602001019073ffffffffffffffffffffffffffffffffffffffff16908173ffffffffffffffffffffffffffffffffffffffff168152505060008460030160009054906101000a900473ffffffffffffffffffffffffffffffffffffffff1673ffffffffffffffffffffffffffffffffffffffff166318cbafe58383868960100160009054906101000a900473ffffffffffffffffffffffffffffffffffffffff16620186a042016040518663ffffffff1660e01b81526004016134f4959493929190615150565b600060405180830381600087803b15801561350e57600080fd5b505af1158015613522573d6000803e3d6000fd5b505050506040513d6000823e3d601f19601f8201168201806040525081019061354b91906146c7565b5060006135736135643a5a61433390919063ffffffff16565b866142e990919063ffffffff16565b90508560100160009054906101000a900473ffffffffffffffffffffffffffffffffffffffff1673ffffffffffffffffffffffffffffffffffffffff16636c55068282336040518363ffffffff1660e01b81526004016135d49291906150fe565b600060405180830381600087803b1580156135ee57600080fd5b505af1158015613602573d6000803e3d6000fd5b5050505050505050505050565b60008060008061361d614234565b90508060070154816008015482600d015493509350935050909192565b600080613645614234565b90503373ffffffffffffffffffffffffffffffffffffffff1681600e0160019054906101000a900473ffffffffffffffffffffffffffffffffffffffff1673ffffffffffffffffffffffffffffffffffffffff1614806136f457503373ffffffffffffffffffffffffffffffffffffffff1681600f0160009054906101000a900473ffffffffffffffffffffffffffffffffffffffff1673ffffffffffffffffffffffffffffffffffffffff16145b613733576040517f08c379a000000000000000000000000000000000000000000000000000000000815260040161372a90614f63565b60405180910390fd5b600061373d614234565b905060006138093a6137fb8460100160009054906101000a900473ffffffffffffffffffffffffffffffffffffffff1673ffffffffffffffffffffffffffffffffffffffff166384e9a9016040518163ffffffff1660e01b8152600401602060405180830381600087803b1580156137b457600080fd5b505af11580156137c8573d6000803e3d6000fd5b505050506040513d601f19601f820116820180604052508101906137ec919061488b565b5a61426190919063ffffffff16565b61433390919063ffffffff16565b905081600e0160009054906101000a900460ff161582600e0160006101000a81548160ff02191690831515021790555060006138606138513a5a61433390919063ffffffff16565b836142e990919063ffffffff16565b90508260100160009054906101000a900473ffffffffffffffffffffffffffffffffffffffff1673ffffffffffffffffffffffffffffffffffffffff16636c55068282336040518363ffffffff1660e01b81526004016138c19291906150fe565b600060405180830381600087803b1580156138db57600080fd5b505af11580156138ef573d6000803e3d6000fd5b5050505082600e0160009054906101000a900460ff1694505050505090565b6000613918614234565b90503373ffffffffffffffffffffffffffffffffffffffff1681600f0160009054906101000a900473ffffffffffffffffffffffffffffffffffffffff1673ffffffffffffffffffffffffffffffffffffffff16146139ac576040517f08c379a00000000000000000000000000000000000000000000000000000000081526004016139a390615063565b60405180910390fd5b60006139b6614234565b90506000613a823a613a748460100160009054906101000a900473ffffffffffffffffffffffffffffffffffffffff1673ffffffffffffffffffffffffffffffffffffffff166384e9a9016040518163ffffffff1660e01b8152600401602060405180830381600087803b158015613a2d57600080fd5b505af1158015613a41573d6000803e3d6000fd5b505050506040513d601f19601f82011682018060405250810190613a65919061488b565b5a61426190919063ffffffff16565b61433390919063ffffffff16565b9050600082600c015414613acb576040517f08c379a0000000000000000000000000000000000000000000000000000000008152600401613ac2906150a3565b60405180910390fd5b838260020160006101000a81548173ffffffffffffffffffffffffffffffffffffffff021916908373ffffffffffffffffffffffffffffffffffffffff1602179055506000613b35613b263a5a61433390919063ffffffff16565b836142e990919063ffffffff16565b90508260100160009054906101000a900473ffffffffffffffffffffffffffffffffffffffff1673ffffffffffffffffffffffffffffffffffffffff16636c55068282336040518363ffffffff1660e01b8152600401613b969291906150fe565b600060405180830381600087803b158015613bb057600080fd5b505af1158015613bc4573d6000803e3d6000fd5b505050505050505050565b600080613bda614234565b905060008160010160009054906101000a900473ffffffffffffffffffffffffffffffffffffffff1673ffffffffffffffffffffffffffffffffffffffff166318160ddd6040518163ffffffff1660e01b815260040160206040518083038186803b158015613c4857600080fd5b505afa158015613c5c573d6000803e3d6000fd5b505050506040513d601f19601f82011682018060405250810190613c80919061488b565b1480613c905750600081600a0154145b613dee578060010160009054906101000a900473ffffffffffffffffffffffffffffffffffffffff1673ffffffffffffffffffffffffffffffffffffffff166318160ddd6040518163ffffffff1660e01b815260040160206040518083038186803b158015613cfe57600080fd5b505afa158015613d12573d6000803e3d6000fd5b505050506040513d601f19601f82011682018060405250810190613d36919061488b565b81600a01548260010160009054906101000a900473ffffffffffffffffffffffffffffffffffffffff1673ffffffffffffffffffffffffffffffffffffffff1663313ce5676040518163ffffffff1660e01b815260040160206040518083038186803b158015613da557600080fd5b505afa158015613db9573d6000803e3d6000fd5b505050506040513d601f19601f82011682018060405250810190613ddd919061488b565b600a0a0281613de857fe5b04613e94565b8060010160009054906101000a900473ffffffffffffffffffffffffffffffffffffffff1673ffffffffffffffffffffffffffffffffffffffff1663313ce5676040518163ffffffff1660e01b815260040160206040518083038186803b158015613e5857600080fd5b505afa158015613e6c573d6000803e3d6000fd5b505050506040513d601f19601f82011682018060405250810190613e90919061488b565b600a0a5b91505090565b600080613ea5614234565b905080600b015491505090565b600080613ebd614234565b905080600a015491505090565b600080613ed5614234565b90503373ffffffffffffffffffffffffffffffffffffffff1681600f0160009054906101000a900473ffffffffffffffffffffffffffffffffffffffff1673ffffffffffffffffffffffffffffffffffffffff1614613f69576040517f08c379a0000000000000000000000000000000000000000000000000000000008152600401613f6090615063565b60405180910390fd5b600086118015613f795750600085115b8015613f855750600084115b613fc4576040517f08c379a0000000000000000000000000000000000000000000000000000000008152600401613fbb90614f83565b60405180910390fd5b848610614006576040517f08c379a0000000000000000000000000000000000000000000000000000000008152600401613ffd906150c3565b60405180910390fd5b6000614010614234565b905060006140dc3a6140ce8460100160009054906101000a900473ffffffffffffffffffffffffffffffffffffffff1673ffffffffffffffffffffffffffffffffffffffff166384e9a9016040518163ffffffff1660e01b8152600401602060405180830381600087803b15801561408757600080fd5b505af115801561409b573d6000803e3d6000fd5b505050506040513d601f19601f820116820180604052508101906140bf919061488b565b5a61426190919063ffffffff16565b61433390919063ffffffff16565b90508782600701819055508682600801819055508582600d018190555060006141206141113a5a61433390919063ffffffff16565b836142e990919063ffffffff16565b90508260100160009054906101000a900473ffffffffffffffffffffffffffffffffffffffff1673ffffffffffffffffffffffffffffffffffffffff16636c55068282336040518363ffffffff1660e01b81526004016141819291906150fe565b600060405180830381600087803b15801561419b57600080fd5b505af11580156141af573d6000803e3d6000fd5b5050505060006141bd6141fe565b11156141d2576141cc86611ded565b506141ee565b60006141dc6107d9565b11156141ed576141eb8661145a565b505b5b6001945050505050949350505050565b6000614208612e3c565b61421061143c565b111561422c5761421e610795565b61422661143c565b0361422f565b60005b905090565b6000807f6c2f2617da7540533aede37184df9fe8d14d2f091e9a392f2685af4b9851d17290508091505090565b6000808284019050838110156142df576040517f08c379a000000000000000000000000000000000000000000000000000000000815260040180806020018281038252601b8152602001807f536166654d6174683a206164646974696f6e206f766572666c6f77000000000081525060200191505060405180910390fd5b8091505092915050565b600061432b83836040518060400160405280601f81526020017f536166654d6174683a207375627472616374696f6e20756e646572666c6f77008152506143b9565b905092915050565b60008083141561434657600090506143b3565b600082840290508284828161435757fe5b04146143ae576040517f08c379a00000000000000000000000000000000000000000000000000000000081526004018080602001828103825260218152602001806154306021913960400191505060405180910390fd5b809150505b92915050565b6000838311158290614466576040517f08c379a00000000000000000000000000000000000000000000000000000000081526004018080602001828103825283818151815260200191508051906020019080838360005b8381101561442b578082015181840152602081019050614410565b50505050905090810190601f1680156144585780820380516001836020036101000a031916815260200191505b509250505060405180910390fd5b5060008385039050809150509392505050565b600061448c61448784615212565b6151e1565b905080838252602082019050828560208602820111156144ab57600080fd5b60005b858110156144db57816144c18882614551565b8452602084019350602083019250506001810190506144ae565b5050509392505050565b60006144f86144f38461523e565b6151e1565b9050808382526020820190508285602086028201111561451757600080fd5b60005b85811015614547578161452d888261464d565b84526020840193506020830192505060018101905061451a565b5050509392505050565b6000813590506145608161538e565b92915050565b6000815190506145758161538e565b92915050565b600082601f83011261458c57600080fd5b813561459c848260208601614479565b91505092915050565b600082601f8301126145b657600080fd5b81516145c68482602086016144e5565b91505092915050565b6000815190506145de816153a5565b92915050565b6000813590506145f3816153bc565b92915050565b600081359050614608816153d3565b92915050565b60008135905061461d816153ea565b92915050565b60008135905061463281615401565b92915050565b60008135905061464781615418565b92915050565b60008151905061465c81615418565b92915050565b60006020828403121561467457600080fd5b600061468284828501614566565b91505092915050565b6000806040838503121561469e57600080fd5b60006146ac85828601614551565b92505060206146bd85828601614551565b9150509250929050565b6000602082840312156146d957600080fd5b600082015167ffffffffffffffff8111156146f357600080fd5b6146ff848285016145a5565b91505092915050565b60006020828403121561471a57600080fd5b6000614728848285016145cf565b91505092915050565b60006020828403121561474357600080fd5b6000614751848285016145f9565b91505092915050565b60008060008060008060008060008060006101608c8e03121561477c57600080fd5b600061478a8e828f0161460e565b9b5050602061479b8e828f0161460e565b9a505060406147ac8e828f01614638565b99505060606147bd8e828f01614638565b98505060806147ce8e828f01614638565b97505060a06147df8e828f01614638565b96505060c06147f08e828f01614638565b95505060e08c013567ffffffffffffffff81111561480d57600080fd5b6148198e828f0161457b565b94505061010061482b8e828f016145f9565b93505061012061483d8e828f01614623565b92505061014061484f8e828f016145e4565b9150509295989b509295989b9093969950565b60006020828403121561487457600080fd5b600061488284828501614638565b91505092915050565b60006020828403121561489d57600080fd5b60006148ab8482850161464d565b91505092915050565b600080604083850312156148c757600080fd5b60006148d585828601614638565b92505060206148e685828601614638565b9150509250929050565b6000806000806080858703121561490657600080fd5b600061491487828801614638565b945050602061492587828801614638565b935050604061493687828801614638565b925050606061494787828801614638565b91505092959194509250565b600061495f838361497a565b60208301905092915050565b61497481615344565b82525050565b614983816152b4565b82525050565b614992816152b4565b82525050565b60006149a38261527a565b6149ad8185615292565b93506149b88361526a565b8060005b838110156149e95781516149d08882614953565b97506149db83615285565b9250506001810190506149bc565b5085935050505092915050565b6149ff816152c6565b82525050565b614a0e81615356565b82525050565b6000614a216012836152a3565b91507f4e6f7468696e6720746f206465706f73697400000000000000000000000000006000830152602082019050919050565b6000614a616015836152a3565b91507f4f6e6c792061646d696e2063616e2063616c6c212100000000000000000000006000830152602082019050919050565b6000614aa16019836152a3565b91507f506172616d65746572732063616e74206265207a65726f2121000000000000006000830152602082019050919050565b6000614ae16013836152a3565b91507f4e6f7468696e6720746f207769746864726177000000000000000000000000006000830152602082019050919050565b6000614b21600e836152a3565b91507f496e76616c696420416d6f756e740000000000000000000000000000000000006000830152602082019050919050565b6000614b616029836152a3565b91507f446f6e74206861766520656e6f7567682066756e642c20506c6561736520747260008301527f79206c61746572212100000000000000000000000000000000000000000000006020830152604082019050919050565b6000614bc7602a836152a3565b91507f446f6e74206861766520656e6f7567682066756e642c20506c6561736520747260008301527f79206c61746572212121000000000000000000000000000000000000000000006020830152604082019050919050565b6000614c2d6021836152a3565b91507f596f7520646f6e74206861766520656e6f75676820706f6f6c20746f6b656e2160008301527f21000000000000000000000000000000000000000000000000000000000000006020830152604082019050919050565b6000614c936012836152a3565b91507f636f6e7472616374206973206c6f636b656400000000000000000000000000006000830152602082019050919050565b6000614cd3601b836152a3565b91507f4f6e6c792073757065722061646d696e2063616e2063616c6c212100000000006000830152602082019050919050565b6000614d136013836152a3565b91507f416c726561647920696e697469616c697a6564000000000000000000000000006000830152602082019050919050565b6000614d536018836152a3565b91507f576974686472617720616c6c2066756e647320666972737400000000000000006000830152602082019050919050565b6000614d936032836152a3565b91507f4d696e206c69717569646974792063616e74206265206772656174657220746860008301527f616e206d6178206c6971756964697479212100000000000000000000000000006020830152604082019050919050565b614df58161533a565b82525050565b6000602082019050614e10600083018461496b565b92915050565b6000606082019050614e2b600083018661496b565b614e38602083018561496b565b614e456040830184614dec565b949350505050565b6000606082019050614e62600083018661496b565b614e6f6020830185614989565b614e7c6040830184614dec565b949350505050565b6000604082019050614e99600083018561496b565b614ea66020830184614dec565b9392505050565b6000604082019050614ec26000830185614989565b614ecf6020830184614989565b9392505050565b6000604082019050614eeb6000830185614989565b614ef86020830184614a05565b9392505050565b6000604082019050614f146000830185614989565b614f216020830184614dec565b9392505050565b6000602082019050614f3d60008301846149f6565b92915050565b60006020820190508181036000830152614f5c81614a14565b9050919050565b60006020820190508181036000830152614f7c81614a54565b9050919050565b60006020820190508181036000830152614f9c81614a94565b9050919050565b60006020820190508181036000830152614fbc81614ad4565b9050919050565b60006020820190508181036000830152614fdc81614b14565b9050919050565b60006020820190508181036000830152614ffc81614b54565b9050919050565b6000602082019050818103600083015261501c81614bba565b9050919050565b6000602082019050818103600083015261503c81614c20565b9050919050565b6000602082019050818103600083015261505c81614c86565b9050919050565b6000602082019050818103600083015261507c81614cc6565b9050919050565b6000602082019050818103600083015261509c81614d06565b9050919050565b600060208201905081810360008301526150bc81614d46565b9050919050565b600060208201905081810360008301526150dc81614d86565b9050919050565b60006020820190506150f86000830184614dec565b92915050565b60006040820190506151136000830185614dec565b615120602083018461496b565b9392505050565b600060408201905061513c6000830185614dec565b6151496020830184614dec565b9392505050565b600060a0820190506151656000830188614dec565b6151726020830187614dec565b81810360408301526151848186614998565b90506151936060830185614989565b6151a06080830184614dec565b9695505050505050565b60006060820190506151bf6000830186614dec565b6151cc6020830185614dec565b6151d96040830184614dec565b949350505050565b6000604051905081810181811067ffffffffffffffff821117156152085761520761538c565b5b8060405250919050565b600067ffffffffffffffff82111561522d5761522c61538c565b5b602082029050602081019050919050565b600067ffffffffffffffff8211156152595761525861538c565b5b602082029050602081019050919050565b6000819050602082019050919050565b600081519050919050565b6000602082019050919050565b600082825260208201905092915050565b600082825260208201905092915050565b60006152bf8261531a565b9050919050565b60008115159050919050565b60006152dd826152b4565b9050919050565b60006152ef826152b4565b9050919050565b6000615301826152b4565b9050919050565b6000615313826152b4565b9050919050565b600073ffffffffffffffffffffffffffffffffffffffff82169050919050565b6000819050919050565b600061534f82615368565b9050919050565b60006153618261533a565b9050919050565b60006153738261537a565b9050919050565b60006153858261531a565b9050919050565bfe5b615397816152b4565b81146153a257600080fd5b50565b6153ae816152c6565b81146153b957600080fd5b50565b6153c5816152d2565b81146153d057600080fd5b50565b6153dc816152e4565b81146153e757600080fd5b50565b6153f3816152f6565b81146153fe57600080fd5b50565b61540a81615308565b811461541557600080fd5b50565b6154218161533a565b811461542c57600080fd5b5056fe536166654d6174683a206d756c7469706c69636174696f6e206f766572666c6f77a26469706673582212204a8a79393ae1f2a4a5d928517a5f00885b64ee98db78cc9ea1b73cae77bad16464736f6c63430007060033",
  "immutableReferences": {},
  "source": "// SPDX-License-Identifier: UNLICENSED\r\npragma solidity ^0.7.6;\r\npragma experimental ABIEncoderV2;\r\n\r\nimport \"../storage/PoolStorage.sol\";\r\n\r\ncontract AdvancedPool is PoolStorageV1 {\r\n    \r\n/****VARIABLES*****/\r\n    using SafeMath for uint256;\r\n   \r\n\r\n/****MODIFIERS*****/\r\n    \r\n    modifier onlyOwner(){\r\n        PoolStorage storage ps = poolStorage();\r\n        require(ps.owner == msg.sender || ps.superOwner == msg.sender, \"Only admin can call!!\");\r\n        _;\r\n    }\r\n    modifier onlySuperOwner(){\r\n        PoolStorage storage ps = poolStorage();\r\n        require(ps.superOwner == msg.sender, \"Only super admin can call!!\");\r\n        _;\r\n    }\r\n    modifier notLocked {\r\n        PoolStorage storage ps = poolStorage();\r\n        require(!ps.locked, \"contract is locked\");\r\n        _;\r\n    }\r\n  \r\n/****EVENTS****/ \r\n    event userDeposits(address user, uint256 amount);\r\n    event userWithdrawal(address user,uint256 amount);\r\n    event poolDeposit(address user, address pool, uint256 amount);\r\n    event poolWithdrawal(address user, address pool, uint256 amount);\r\n    \r\n\r\n/****CONSTRUCTOR****/\r\n    function initialize(\r\n        IERC20 _coin,\r\n        IERC20 _poolToken, \r\n        uint256 _minLiquidity, \r\n        uint256 _maxLiquidity, \r\n        uint256 _withdrawFees, \r\n        uint256 _depositFees,\r\n        uint256 _maxWithdrawalAllowed,\r\n        address[] memory _owners,\r\n        DepositStrategy _depositStrategy,\r\n        UniswapV2Router02 _uniswapRouter,\r\n        Controller _controller\r\n    ) public {\r\n        PoolStorage storage ps = poolStorage();\r\n        require(!ps.initialized, 'Already initialized');\r\n        ps.owner = _owners[0];\r\n        ps.superOwner = _owners[1];\r\n        ps.DENOMINATOR = 10000;\r\n        ps.coin = _coin;\r\n        ps.poolToken = _poolToken;\r\n        ps.minLiquidity = _minLiquidity;\r\n        ps.maxLiquidity = _maxLiquidity;\r\n        ps.withdrawFees = _withdrawFees;\r\n        ps.depositFees = _depositFees;\r\n        ps.depositStrategy = _depositStrategy;\r\n        ps.maxWithdrawalAllowed = _maxWithdrawalAllowed;\r\n        ps.uniswapRouter = _uniswapRouter;\r\n        ps.controller = _controller;\r\n        ps.initialized = true;\r\n    }\r\n    \r\n\r\n/*****USERS FUNCTIONS****/\r\n\r\n    function stake(uint256 amount) external notLocked() returns(uint256){\r\n        require(amount > 0, 'Invalid Amount');\r\n\r\n        PoolStorage storage ps = poolStorage();\r\n        uint256 feeAmount = amount * ps.depositFees / ps.DENOMINATOR;\r\n        ps.feesCollected = ps.feesCollected + feeAmount;\r\n        uint256 mintAmount = calculatePoolTokens(amount - feeAmount);\r\n        ps.poolBalance = ps.poolBalance.add(amount - feeAmount);\r\n        ps.coin.transferFrom(msg.sender, address(this), amount);\r\n        ps.poolToken.mint(msg.sender, mintAmount);\r\n        emit userDeposits(msg.sender,amount);\r\n        return mintAmount;\r\n    }\r\n\r\n    function unstake(uint256 amount) external notLocked() returns(uint256){\r\n        PoolStorage storage ps = poolStorage();\r\n        require(amount <= maxWithdrawal(), \"Dont have enough fund, Please try later!!\");\r\n        require(amount <= ps.coin.balanceOf(address(this)), \"Dont have enough fund, Please try later!!!\");\r\n        \r\n        uint256 burnAmount = calculatePoolTokens(amount);\r\n        require(burnAmount <= ps.poolToken.balanceOf(msg.sender), \"You dont have enough pool token!!\");\r\n\r\n        uint256 feeAmount = amount * ps.withdrawFees/ ps.DENOMINATOR;\r\n        ps.feesCollected = ps.feesCollected + feeAmount;\r\n        ps.poolBalance = ps.poolBalance.sub(amount);\r\n\r\n        ps.coin.transfer(msg.sender, amount - feeAmount);\r\n        ps.poolToken.burn(msg.sender, burnAmount);  \r\n        emit userWithdrawal(msg.sender, amount);\r\n        return amount - feeAmount;\r\n    }\r\n\r\n/****ADMIN FUNCTIONS*****/\r\n\r\n    function addToStrategy(uint256 minMintAmount) public notLocked() onlyOwner() returns(uint256){\r\n        PoolStorage storage ps = poolStorage();\r\n        uint256 gasAtBegining = (gasleft().add(ps.controller.defaultGas())).mul(tx.gasprice);\r\n        uint256 amount = amountToDeposit();\r\n        require(amount > 0, \"Nothing to deposit\");\r\n        ps.strategyDeposit = ps.strategyDeposit.add(amount);\r\n        ps.coin.approve(address(ps.depositStrategy), 0);\r\n        ps.coin.approve(address(ps.depositStrategy), amount);\r\n        ps.depositStrategy.deposit(amount, minMintAmount);\r\n        emit poolDeposit(msg.sender, address(ps.depositStrategy), amount);\r\n        uint256 gasUsed = gasAtBegining.sub(gasleft().mul(tx.gasprice)); \r\n        ps.controller.updateGasUsed(gasUsed, msg.sender);\r\n        return amount;\r\n    }\r\n    \r\n    function removeFromStrategy(uint256 maxBurnAmount) public notLocked() onlyOwner() returns(uint256){\r\n        PoolStorage storage ps = poolStorage();\r\n        uint256 gasAtBegining = (gasleft().add(ps.controller.defaultGas())).mul(tx.gasprice);\r\n        uint256 amount = amountToWithdraw();\r\n        require(amount > 0 , \"Nothing to withdraw\");\r\n        ps.strategyDeposit = ps.strategyDeposit.sub(amount);\r\n        ps.depositStrategy.withdraw(amount, maxBurnAmount);\r\n        emit poolWithdrawal(msg.sender, address(ps.depositStrategy), amount);\r\n        uint256 gasUsed = gasAtBegining.sub(gasleft().mul(tx.gasprice)); \r\n        ps.controller.updateGasUsed(gasUsed, msg.sender); \r\n        return amount;\r\n    }\r\n\r\n    function removeAllFromStrategy(uint256 minAmount) public notLocked() onlySuperOwner(){\r\n        PoolStorage storage ps = poolStorage();\r\n        uint256 gasAtBegining = (gasleft().add(ps.controller.defaultGas())).mul(tx.gasprice);\r\n        require(ps.strategyDeposit > 0 , \"Nothing to withdraw\");\r\n        ps.strategyDeposit = 0;\r\n        ps.depositStrategy.withdrawAll(minAmount);\r\n        emit poolWithdrawal(msg.sender, address(ps.depositStrategy), ps.coin.balanceOf(address(this)));\r\n        uint256 gasUsed = gasAtBegining.sub(gasleft().mul(tx.gasprice)); \r\n        ps.controller.updateGasUsed(gasUsed, msg.sender); \r\n    }\r\n    \r\n    function updateLiquidityParam(uint256 _minLiquidity, uint256 _maxLiquidity, uint256 _maxWithdrawalAllowed, uint256 maxBurnOrMinMint) external onlySuperOwner() returns(bool){\r\n        require(_minLiquidity > 0 &&  _maxLiquidity > 0 && _maxWithdrawalAllowed > 0, 'Parameters cant be zero!!');\r\n        require(_minLiquidity <  _maxLiquidity, 'Min liquidity cant be greater than max liquidity!!');\r\n   \r\n        PoolStorage storage ps = poolStorage();\r\n        uint256 gasAtBegining = (gasleft().add(ps.controller.defaultGas())).mul(tx.gasprice);   \r\n        ps.minLiquidity = _minLiquidity;\r\n        ps.maxLiquidity = _maxLiquidity;\r\n        ps.maxWithdrawalAllowed = _maxWithdrawalAllowed;\r\n        uint256 gasUsed = gasAtBegining.sub(gasleft().mul(tx.gasprice)); \r\n        ps.controller.updateGasUsed(gasUsed, msg.sender);\r\n        if(amountToDeposit() > 0){\r\n            addToStrategy(maxBurnOrMinMint);\r\n        }else if(amountToWithdraw() > 0){\r\n            removeFromStrategy(maxBurnOrMinMint);\r\n        }\r\n        return true;\r\n    }\r\n    \r\n    function updateFees(uint256 _depositFees, uint256 _withdrawFees) external onlySuperOwner() returns(bool){\r\n        PoolStorage storage ps = poolStorage();\r\n        uint256 gasAtBegining = (gasleft().add(ps.controller.defaultGas())).mul(tx.gasprice);\r\n        ps.withdrawFees = _withdrawFees;\r\n        ps.depositFees = _depositFees;\r\n        uint256 gasUsed = gasAtBegining.sub(gasleft().mul(tx.gasprice)); \r\n        ps.controller.updateGasUsed(gasUsed, msg.sender);\r\n        return true;\r\n    }\r\n    \r\n    function changeLockStatus() external onlyOwner() returns(bool){\r\n        PoolStorage storage ps = poolStorage();\r\n        uint256 gasAtBegining = (gasleft().add(ps.controller.defaultGas())).mul(tx.gasprice);\r\n        ps.locked = !ps.locked;\r\n        uint256 gasUsed = gasAtBegining.sub(gasleft().mul(tx.gasprice)); \r\n        ps.controller.updateGasUsed(gasUsed, msg.sender);\r\n        return ps.locked;\r\n    }\r\n    \r\n    function updateOwners(address newOwner, address newSuperOwner) external onlySuperOwner() returns(bool){\r\n        PoolStorage storage ps = poolStorage();\r\n        uint256 gasAtBegining = (gasleft().add(ps.controller.defaultGas())).mul(tx.gasprice);\r\n        ps.owner = newOwner;\r\n        ps.superOwner = newSuperOwner;\r\n        uint256 gasUsed = gasAtBegining.sub(gasleft().mul(tx.gasprice)); \r\n        ps.controller.updateGasUsed(gasUsed, msg.sender);\r\n        return true;\r\n    } \r\n\r\n    function getYield() public onlyOwner(){\r\n        PoolStorage storage ps = poolStorage();\r\n        uint256 gasAtBegining = (gasleft().add(ps.controller.defaultGas())).mul(tx.gasprice);\r\n        uint256 tokenReceived = ps.depositStrategy.claimAndConvertCRV();\r\n        ps.poolBalance = ps.poolBalance.add(tokenReceived);\r\n        uint256 gasUsed = gasAtBegining.sub(gasleft().mul(tx.gasprice)); \r\n        ps.controller.updateGasUsed(gasUsed, msg.sender);\r\n    }\r\n    \r\n    \r\n    function updateStrategy(DepositStrategy _newStrategy) public onlySuperOwner(){\r\n        PoolStorage storage ps = poolStorage();\r\n        uint256 gasAtBegining = (gasleft().add(ps.controller.defaultGas())).mul(tx.gasprice);\r\n        require(ps.strategyDeposit == 0, 'Withdraw all funds first');\r\n        ps.depositStrategy = _newStrategy;\r\n        uint256 gasUsed = gasAtBegining.sub(gasleft().mul(tx.gasprice)); \r\n        ps.controller.updateGasUsed(gasUsed, msg.sender);\r\n    }\r\n\r\n    function convertFeesToETH() external onlyOwner() {\r\n        PoolStorage storage ps = poolStorage();\r\n        uint256 gasAtBegining = (gasleft().add(ps.controller.defaultGas())).mul(tx.gasprice);\r\n        address[] memory path = new address[](2);\r\n        uint256 amountToSwap = ps.feesCollected;\r\n        ps.feesCollected = 0;\r\n        ps.coin.approve(address(ps.uniswapRouter), 0);\r\n        ps.coin.approve(address(ps.uniswapRouter), amountToSwap);\r\n        path[0] = address(ps.coin);\r\n        path[1] = ps.uniswapRouter.WETH();\r\n        uint256 amountOutMin = 0;\r\n        ps.uniswapRouter.swapExactTokensForETH(amountToSwap, amountOutMin, path, address(ps.controller), block.timestamp + 100000);\r\n        uint256 gasUsed = gasAtBegining.sub(gasleft().mul(tx.gasprice)); \r\n        ps.controller.updateGasUsed(gasUsed, msg.sender);\r\n    }\r\n\r\n\r\n/****OTHER FUNCTIONS****/\r\n\r\n    function calculatePoolTokens(uint256 amountOfStableCoins) public view returns(uint256){\r\n        PoolStorage storage ps = poolStorage();\r\n        return (amountOfStableCoins * stableCoinPrice())/10**ps.coin.decimals() ;\r\n    }\r\n\r\n    function stableCoinPrice() public view returns(uint256){\r\n        PoolStorage storage ps = poolStorage();\r\n        return (ps.poolToken.totalSupply() == 0 || ps.poolBalance == 0) ? 10**ps.coin.decimals() : ((10**ps.coin.decimals()) * ps.poolToken.totalSupply())/ps.poolBalance;\r\n    }\r\n    \r\n    function calculateStableCoins(uint256 amountOfPoolToken) public view returns(uint256){\r\n        PoolStorage storage ps = poolStorage();\r\n        amountOfPoolToken = (amountOfPoolToken*poolTokenPrice())/(10**ps.poolToken.decimals());\r\n        return amountOfPoolToken;\r\n    }\r\n\r\n    function poolTokenPrice() public view returns(uint256){\r\n        PoolStorage storage ps = poolStorage();\r\n        return (ps.poolToken.totalSupply() == 0 || ps.poolBalance == 0) ? 10**ps.poolToken.decimals() : ((10**ps.poolToken.decimals())*ps.poolBalance)/ps.poolToken.totalSupply();\r\n    }\r\n    \r\n    function maxWithdrawal() public view returns(uint256){\r\n        PoolStorage storage ps = poolStorage();\r\n        return minLiquidityToMaintainInPool()/2 < ps.maxWithdrawalAllowed ? minLiquidityToMaintainInPool()/2 : ps.maxWithdrawalAllowed;\r\n    }\r\n\r\n    function currentLiquidity() public view returns(uint256){\r\n        PoolStorage storage ps = poolStorage();\r\n        return ps.poolBalance - ps.strategyDeposit;\r\n    }\r\n   \r\n    function idealAmount() public view returns(uint256){\r\n        PoolStorage storage ps = poolStorage();\r\n        return (ps.poolBalance * (ps.minLiquidity.add(ps.maxLiquidity))) / (2 * ps.DENOMINATOR);\r\n    }\r\n     \r\n    function maxLiquidityAllowedInPool() public view returns(uint256){\r\n        PoolStorage storage ps = poolStorage();\r\n        return ps.poolBalance * ps.maxLiquidity / ps.DENOMINATOR;\r\n    }\r\n\r\n    function amountToDeposit() public view returns(uint256){\r\n        return currentLiquidity() <= maxLiquidityAllowedInPool() ? 0 : currentLiquidity() - idealAmount();\r\n    }\r\n    \r\n    function minLiquidityToMaintainInPool() public view returns(uint256){\r\n        PoolStorage storage ps = poolStorage();\r\n        return ps.poolBalance * ps.minLiquidity / ps.DENOMINATOR;\r\n    }\r\n   \r\n    function amountToWithdraw() public view returns(uint256){\r\n        PoolStorage storage ps = poolStorage();\r\n        return currentLiquidity() > minLiquidityToMaintainInPool() || ps.strategyDeposit == 0 || ps.strategyDeposit < idealAmount() - currentLiquidity() ? 0 : idealAmount() - currentLiquidity();\r\n    }\r\n\r\n    function lockStatus() public view returns(bool){\r\n        PoolStorage storage ps = poolStorage();\r\n        return ps.locked;\r\n    }\r\n\r\n    function totalDeposit() public view returns(uint256){\r\n        PoolStorage storage ps = poolStorage();\r\n        return ps.poolBalance;\r\n    }\r\n\r\n    function strategyDeposit() public view returns(uint256){\r\n        PoolStorage storage ps = poolStorage();\r\n        return ps.strategyDeposit;\r\n    }\r\n       \r\n    function feesCollected() public view returns(uint256){\r\n        PoolStorage storage ps = poolStorage();\r\n        return ps.feesCollected;\r\n    }\r\n\r\n    function currentFees() public view returns(uint256, uint256){\r\n        PoolStorage storage ps = poolStorage();\r\n        return (ps.depositFees, ps.withdrawFees);\r\n    }\r\n\r\n    function currentLiquidityParams() public view returns(uint256, uint256, uint256){\r\n        PoolStorage storage ps = poolStorage();\r\n        return (ps.minLiquidity, ps.maxLiquidity, ps.maxWithdrawalAllowed);\r\n    }\r\n\r\n    function owners() public view returns(address, address){\r\n        PoolStorage storage ps = poolStorage();\r\n        return (ps.owner, ps.superOwner);\r\n    }\r\n\r\n    receive() external payable {\r\n    }\r\n}",
  "sourcePath": "E:/Projects/AdvancedPool/AdvancedPool/contracts/facets/AdvancedPool.sol",
  "compiler": {
    "name": "solc",
    "version": "0.7.6+commit.7338295f.Emscripten.clang"
  },
  "schemaVersion": "3.3.2",
  "updatedAt": "2021-06-23T16:15:02.881Z",
  "networkType": "ethereum",
  "devdoc": {
    "kind": "dev",
    "methods": {},
    "version": 1
  },
  "userdoc": {
    "kind": "user",
    "methods": {},
    "version": 1
  }
}