{
  "contractName": "AdvancePool",
  "abi": [
    {
      "anonymous": false,
      "inputs": [
        {
          "indexed": false,
          "internalType": "address",
          "name": "user",
          "type": "address"
        },
        {
          "indexed": false,
          "internalType": "address",
          "name": "pool",
          "type": "address"
        },
        {
          "indexed": false,
          "internalType": "address",
          "name": "coin",
          "type": "address"
        },
        {
          "indexed": false,
          "internalType": "uint256",
          "name": "amount",
          "type": "uint256"
        }
      ],
      "name": "poolDeposit",
      "type": "event"
    },
    {
      "anonymous": false,
      "inputs": [
        {
          "indexed": false,
          "internalType": "address",
          "name": "user",
          "type": "address"
        },
        {
          "indexed": false,
          "internalType": "address",
          "name": "pool",
          "type": "address"
        },
        {
          "indexed": false,
          "internalType": "address",
          "name": "coin",
          "type": "address"
        },
        {
          "indexed": false,
          "internalType": "uint256",
          "name": "amount",
          "type": "uint256"
        }
      ],
      "name": "poolWithdrawal",
      "type": "event"
    },
    {
      "anonymous": false,
      "inputs": [
        {
          "indexed": false,
          "internalType": "address",
          "name": "user",
          "type": "address"
        },
        {
          "indexed": false,
          "internalType": "uint256",
          "name": "amount",
          "type": "uint256"
        }
      ],
      "name": "userDeposits",
      "type": "event"
    },
    {
      "anonymous": false,
      "inputs": [
        {
          "indexed": false,
          "internalType": "address",
          "name": "user",
          "type": "address"
        },
        {
          "indexed": false,
          "internalType": "uint256",
          "name": "amount",
          "type": "uint256"
        }
      ],
      "name": "userWithdrawal",
      "type": "event"
    },
    {
      "inputs": [
        {
          "internalType": "contract IERC20[]",
          "name": "_coins",
          "type": "address[]"
        },
        {
          "internalType": "contract IERC20",
          "name": "_poolToken",
          "type": "address"
        },
        {
          "internalType": "uint256",
          "name": "_minLiquidity",
          "type": "uint256"
        },
        {
          "internalType": "uint256",
          "name": "_maxLiquidity",
          "type": "uint256"
        },
        {
          "internalType": "uint256",
          "name": "_withdrawFees",
          "type": "uint256"
        },
        {
          "internalType": "uint256",
          "name": "_depositFees",
          "type": "uint256"
        },
        {
          "internalType": "contract DepositStrategy[]",
          "name": "_depositStrategies",
          "type": "address[]"
        },
        {
          "internalType": "uint256[]",
          "name": "_strategyForCoin",
          "type": "uint256[]"
        },
        {
          "internalType": "uint256[][]",
          "name": "_coinsPositionInStrategy",
          "type": "uint256[][]"
        }
      ],
      "name": "initialize",
      "outputs": [],
      "stateMutability": "nonpayable",
      "type": "function"
    },
    {
      "inputs": [
        {
          "internalType": "uint256",
          "name": "coinIndex",
          "type": "uint256"
        },
        {
          "internalType": "uint256",
          "name": "amount",
          "type": "uint256"
        }
      ],
      "name": "stake",
      "outputs": [
        {
          "internalType": "uint256",
          "name": "",
          "type": "uint256"
        }
      ],
      "stateMutability": "nonpayable",
      "type": "function"
    },
    {
      "inputs": [
        {
          "internalType": "uint256",
          "name": "coinIndex",
          "type": "uint256"
        },
        {
          "internalType": "uint256",
          "name": "amount",
          "type": "uint256"
        }
      ],
      "name": "unStake",
      "outputs": [
        {
          "internalType": "uint256",
          "name": "",
          "type": "uint256"
        }
      ],
      "stateMutability": "nonpayable",
      "type": "function"
    },
    {
      "inputs": [
        {
          "internalType": "uint256",
          "name": "_minLiquidity",
          "type": "uint256"
        },
        {
          "internalType": "uint256",
          "name": "_maxLiquidity",
          "type": "uint256"
        }
      ],
      "name": "updateLiquidityParam",
      "outputs": [
        {
          "internalType": "bool",
          "name": "",
          "type": "bool"
        }
      ],
      "stateMutability": "nonpayable",
      "type": "function"
    },
    {
      "inputs": [
        {
          "internalType": "uint256",
          "name": "_depositFees",
          "type": "uint256"
        },
        {
          "internalType": "uint256",
          "name": "_withdrawFees",
          "type": "uint256"
        }
      ],
      "name": "updateFees",
      "outputs": [
        {
          "internalType": "bool",
          "name": "",
          "type": "bool"
        }
      ],
      "stateMutability": "nonpayable",
      "type": "function"
    },
    {
      "inputs": [],
      "name": "changeLockStatus",
      "outputs": [
        {
          "internalType": "bool",
          "name": "",
          "type": "bool"
        }
      ],
      "stateMutability": "nonpayable",
      "type": "function"
    },
    {
      "inputs": [
        {
          "internalType": "address",
          "name": "newOwner",
          "type": "address"
        }
      ],
      "name": "transferOwnership",
      "outputs": [
        {
          "internalType": "bool",
          "name": "",
          "type": "bool"
        }
      ],
      "stateMutability": "nonpayable",
      "type": "function"
    },
    {
      "inputs": [
        {
          "internalType": "uint256",
          "name": "strategyIndex",
          "type": "uint256"
        },
        {
          "internalType": "uint256",
          "name": "coinIndex",
          "type": "uint256"
        }
      ],
      "name": "setStrategyRewardCoin",
      "outputs": [
        {
          "internalType": "bool",
          "name": "",
          "type": "bool"
        }
      ],
      "stateMutability": "nonpayable",
      "type": "function"
    },
    {
      "inputs": [
        {
          "internalType": "uint256",
          "name": "coinIndex",
          "type": "uint256"
        }
      ],
      "name": "addToStrategy",
      "outputs": [
        {
          "internalType": "uint256",
          "name": "",
          "type": "uint256"
        }
      ],
      "stateMutability": "nonpayable",
      "type": "function"
    },
    {
      "inputs": [
        {
          "internalType": "uint256",
          "name": "coinIndex",
          "type": "uint256"
        }
      ],
      "name": "removeFromPool",
      "outputs": [
        {
          "internalType": "uint256",
          "name": "",
          "type": "uint256"
        }
      ],
      "stateMutability": "nonpayable",
      "type": "function"
    },
    {
      "inputs": [
        {
          "internalType": "uint256",
          "name": "amountOfStableCoins",
          "type": "uint256"
        },
        {
          "internalType": "uint256",
          "name": "coinIndex",
          "type": "uint256"
        }
      ],
      "name": "calculatePoolTokens",
      "outputs": [
        {
          "internalType": "uint256",
          "name": "",
          "type": "uint256"
        }
      ],
      "stateMutability": "view",
      "type": "function"
    },
    {
      "inputs": [],
      "name": "stableCoinPrice",
      "outputs": [
        {
          "internalType": "uint256",
          "name": "",
          "type": "uint256"
        }
      ],
      "stateMutability": "view",
      "type": "function"
    },
    {
      "inputs": [
        {
          "internalType": "uint256",
          "name": "amountOfPoolToken",
          "type": "uint256"
        },
        {
          "internalType": "uint256",
          "name": "coinIndex",
          "type": "uint256"
        }
      ],
      "name": "calculateStableCoins",
      "outputs": [
        {
          "internalType": "uint256",
          "name": "",
          "type": "uint256"
        }
      ],
      "stateMutability": "view",
      "type": "function"
    },
    {
      "inputs": [],
      "name": "poolTokenPrice",
      "outputs": [
        {
          "internalType": "uint256",
          "name": "",
          "type": "uint256"
        }
      ],
      "stateMutability": "view",
      "type": "function"
    },
    {
      "inputs": [
        {
          "internalType": "uint256",
          "name": "coinIndex",
          "type": "uint256"
        }
      ],
      "name": "maxBurnAllowed",
      "outputs": [
        {
          "internalType": "uint256",
          "name": "",
          "type": "uint256"
        }
      ],
      "stateMutability": "view",
      "type": "function"
    },
    {
      "inputs": [
        {
          "internalType": "uint256",
          "name": "coinIndex",
          "type": "uint256"
        }
      ],
      "name": "currentLiquidity",
      "outputs": [
        {
          "internalType": "uint256",
          "name": "",
          "type": "uint256"
        }
      ],
      "stateMutability": "view",
      "type": "function"
    },
    {
      "inputs": [
        {
          "internalType": "uint256",
          "name": "coinIndex",
          "type": "uint256"
        }
      ],
      "name": "idealAmount",
      "outputs": [
        {
          "internalType": "uint256",
          "name": "",
          "type": "uint256"
        }
      ],
      "stateMutability": "view",
      "type": "function"
    },
    {
      "inputs": [
        {
          "internalType": "uint256",
          "name": "coinIndex",
          "type": "uint256"
        }
      ],
      "name": "maxLiquidityAllowedInPool",
      "outputs": [
        {
          "internalType": "uint256",
          "name": "",
          "type": "uint256"
        }
      ],
      "stateMutability": "view",
      "type": "function"
    },
    {
      "inputs": [
        {
          "internalType": "uint256",
          "name": "coinIndex",
          "type": "uint256"
        }
      ],
      "name": "amountToDeposit",
      "outputs": [
        {
          "internalType": "uint256",
          "name": "",
          "type": "uint256"
        }
      ],
      "stateMutability": "view",
      "type": "function"
    },
    {
      "inputs": [
        {
          "internalType": "uint256",
          "name": "coinIndex",
          "type": "uint256"
        }
      ],
      "name": "minLiquidityToMaintainInPool",
      "outputs": [
        {
          "internalType": "uint256",
          "name": "",
          "type": "uint256"
        }
      ],
      "stateMutability": "view",
      "type": "function"
    },
    {
      "inputs": [
        {
          "internalType": "uint256",
          "name": "coinIndex",
          "type": "uint256"
        }
      ],
      "name": "amountToWithdraw",
      "outputs": [
        {
          "internalType": "uint256",
          "name": "",
          "type": "uint256"
        }
      ],
      "stateMutability": "view",
      "type": "function"
    }
  ],
  "bytecode": "0x608060405234801561001057600080fd5b506135d1806100206000396000f3fe608060405234801561001057600080fd5b50600436106101375760003560e01c80638f8a42c6116100b8578063d0a8bc2c1161007c578063d0a8bc2c146103e6578063d395fbc514610416578063e425534214610434578063f2fde38b14610452578063f9787f9914610482578063ff48c6b4146104b257610137565b80638f8a42c6146102f65780639cb779b214610326578063a756e2ad14610356578063cd1bef2114610386578063cfee76b5146103b657610137565b8063607622af116100ff578063607622af146102065780636db79437146102365780637039206b146102665780637b0472f0146102965780637dc0ac3b146102c657610137565b8063048bfc081461013c57806321f801da1461016c578063372caeb8146101885780633ed18fb7146101b85780635b404bad146101e8575b600080fd5b61015660048036038101906101519190612e0c565b6104e2565b6040516101639190613329565b60405180910390f35b61018660048036038101906101819190612c6b565b6105f3565b005b6101a2600480360381019061019d9190612e0c565b610810565b6040516101af9190613329565b60405180910390f35b6101d260048036038101906101cd9190612dba565b610ca1565b6040516101df9190613329565b60405180910390f35b6101f0610cdd565b6040516101fd9190613329565b60405180910390f35b610220600480360381019061021b9190612e0c565b610e68565b60405161022d919061322e565b60405180910390f35b610250600480360381019061024b9190612e0c565b610f90565b60405161025d919061322e565b60405180910390f35b610280600480360381019061027b9190612dba565b6110b8565b60405161028d9190613329565b60405180910390f35b6102b060048036038101906102ab9190612e0c565b611541565b6040516102bd9190613329565b60405180910390f35b6102e060048036038101906102db9190612dba565b61189a565b6040516102ed9190613329565b60405180910390f35b610310600480360381019061030b9190612e0c565b6118e1565b60405161031d9190613329565b60405180910390f35b610340600480360381019061033b9190612e0c565b6119f2565b60405161034d919061322e565b60405180910390f35b610370600480360381019061036b9190612dba565b611c06565b60405161037d9190613329565b60405180910390f35b6103a0600480360381019061039b9190612dba565b611c44565b6040516103ad9190613329565b60405180910390f35b6103d060048036038101906103cb9190612dba565b611c86565b6040516103dd9190613329565b60405180910390f35b61040060048036038101906103fb9190612dba565b611d1e565b60405161040d9190613329565b60405180910390f35b61041e6120a7565b60405161042b919061322e565b60405180910390f35b61043c612199565b6040516104499190613329565b60405180910390f35b61046c60048036038101906104679190612c42565b612324565b604051610479919061322e565b60405180910390f35b61049c60048036038101906104979190612dba565b61241d565b6040516104a99190613329565b60405180910390f35b6104cc60048036038101906104c79190612dba565b612447565b6040516104d99190613329565b60405180910390f35b6000806104ed612485565b90506105d181600101848154811061050157fe5b9060005260206000200160009054906101000a900473ffffffffffffffffffffffffffffffffffffffff1673ffffffffffffffffffffffffffffffffffffffff1663313ce5676040518163ffffffff1660e01b815260040160206040518083038186803b15801561057157600080fd5b505afa158015610585573d6000803e3d6000fd5b505050506040513d601f19601f820116820180604052508101906105a99190612de3565b600a0a6105c38360050154876124b290919063ffffffff16565b61253890919063ffffffff16565b935080600501546105e0610cdd565b8502816105e957fe5b0491505092915050565b60006105fd612485565b90508060000160009054906101000a900460ff1615610651576040517f08c379a000000000000000000000000000000000000000000000000000000000815260040161064890613309565b60405180910390fd5b338160110160016101000a81548173ffffffffffffffffffffffffffffffffffffffff021916908373ffffffffffffffffffffffffffffffffffffffff1602179055506127108160040181905550670de0b6b3a76400008160050181905550898160010190805190602001906106c89291906127da565b50888160020160006101000a81548173ffffffffffffffffffffffffffffffffffffffff021916908373ffffffffffffffffffffffffffffffffffffffff16021790555087816008018190555086816009018190555085816007018190555084816006018190555083816003019080519060200190610748929190612864565b5060018160000160006101000a81548160ff02191690831515021790555060005b83518110156107ac5783818151811061077e57fe5b602002602001015182600d016000838152602001908152602001600020819055508080600101915050610769565b5060005b8251811015610803578281815181106107c557fe5b602002602001015182600c01600083815260200190815260200160002090805190602001906107f59291906128ee565b5080806001019150506107b0565b5050505050505050505050565b60008061081b612485565b90508060110160009054906101000a900460ff161561086f576040517f08c379a0000000000000000000000000000000000000000000000000000000008152600401610866906132e9565b60405180910390fd5b6000610879612485565b90508060020160009054906101000a900473ffffffffffffffffffffffffffffffffffffffff1673ffffffffffffffffffffffffffffffffffffffff166370a08231336040518263ffffffff1660e01b81526004016108d89190613129565b60206040518083038186803b1580156108f057600080fd5b505afa158015610904573d6000803e3d6000fd5b505050506040513d601f19601f820116820180604052508101906109289190612de3565b84111561096a576040517f08c379a0000000000000000000000000000000000000000000000000000000008152600401610961906132c9565b60405180910390fd5b6109738561241d565b8411156109b5576040517f08c379a00000000000000000000000000000000000000000000000000000000081526004016109ac906132a9565b60405180910390fd5b60006109c185876118e1565b90506109eb8183600e0160008981526020019081526020016000205461258290919063ffffffff16565b82600e01600088815260200190815260200160002081905550610afc610ae9836001018881548110610a1957fe5b9060005260206000200160009054906101000a900473ffffffffffffffffffffffffffffffffffffffff1673ffffffffffffffffffffffffffffffffffffffff1663313ce5676040518163ffffffff1660e01b815260040160206040518083038186803b158015610a8957600080fd5b505afa158015610a9d573d6000803e3d6000fd5b505050506040513d601f19601f82011682018060405250810190610ac19190612de3565b600a0a610adb8560050154856124b290919063ffffffff16565b61253890919063ffffffff16565b83600b015461258290919063ffffffff16565b82600b0181905550816001018681548110610b1357fe5b9060005260206000200160009054906101000a900473ffffffffffffffffffffffffffffffffffffffff1673ffffffffffffffffffffffffffffffffffffffff1663a9059cbb33836040518363ffffffff1660e01b8152600401610b789291906131c0565b602060405180830381600087803b158015610b9257600080fd5b505af1158015610ba6573d6000803e3d6000fd5b505050506040513d601f19601f82011682018060405250810190610bca9190612d91565b508160020160009054906101000a900473ffffffffffffffffffffffffffffffffffffffff1673ffffffffffffffffffffffffffffffffffffffff16639dc29fac33876040518363ffffffff1660e01b8152600401610c2a9291906131c0565b600060405180830381600087803b158015610c4457600080fd5b505af1158015610c58573d6000803e3d6000fd5b505050507f42b2a4ad2d4bdf57e819ccd3c6ce6d0a8d6d20b5d3dbf94ef2b05c42f523c6103386604051610c8d9291906131c0565b60405180910390a180935050505092915050565b6000610cac82612447565b610cb583611c44565b1115610cd357610cc48261189a565b610ccd83611c44565b03610cd6565b60005b9050919050565b600080610ce8612485565b905060008160020160009054906101000a900473ffffffffffffffffffffffffffffffffffffffff1673ffffffffffffffffffffffffffffffffffffffff166318160ddd6040518163ffffffff1660e01b815260040160206040518083038186803b158015610d5657600080fd5b505afa158015610d6a573d6000803e3d6000fd5b505050506040513d601f19601f82011682018060405250810190610d8e9190612de3565b1480610d9e5750600081600b0154145b610e5c5780600b01548160020160009054906101000a900473ffffffffffffffffffffffffffffffffffffffff1673ffffffffffffffffffffffffffffffffffffffff166318160ddd6040518163ffffffff1660e01b815260040160206040518083038186803b158015610e1157600080fd5b505afa158015610e25573d6000803e3d6000fd5b505050506040513d601f19601f82011682018060405250810190610e499190612de3565b82600501540281610e5657fe5b04610e62565b80600501545b91505090565b600080610e73612485565b90503373ffffffffffffffffffffffffffffffffffffffff168160110160019054906101000a900473ffffffffffffffffffffffffffffffffffffffff1673ffffffffffffffffffffffffffffffffffffffff1614610f07576040517f08c379a0000000000000000000000000000000000000000000000000000000008152600401610efe90613269565b60405180910390fd5b6000610f11612485565b90508060110160009054906101000a900460ff1615610f65576040517f08c379a0000000000000000000000000000000000000000000000000000000008152600401610f5c906132e9565b60405180910390fd5b6000610f6f612485565b90508581600801819055508481600901819055506001935050505092915050565b600080610f9b612485565b90503373ffffffffffffffffffffffffffffffffffffffff168160110160019054906101000a900473ffffffffffffffffffffffffffffffffffffffff1673ffffffffffffffffffffffffffffffffffffffff161461102f576040517f08c379a000000000000000000000000000000000000000000000000000000000815260040161102690613269565b60405180910390fd5b6000611039612485565b90508060110160009054906101000a900460ff161561108d576040517f08c379a0000000000000000000000000000000000000000000000000000000008152600401611084906132e9565b60405180910390fd5b6000611097612485565b90508481600701819055508581600601819055506001935050505092915050565b6000806110c3612485565b90508060110160009054906101000a900460ff1615611117576040517f08c379a000000000000000000000000000000000000000000000000000000000815260040161110e906132e9565b60405180910390fd5b6000611121612485565b9050600061112e85610ca1565b905060008111611173576040517f08c379a000000000000000000000000000000000000000000000000000000000815260040161116a90613249565b60405180910390fd5b61119b8183600f016000888152602001908152602001600020546125cc90919063ffffffff16565b82600f01600087815260200190815260200160002081905550600082600d0160008781526020019081526020016000205490506111d661293b565b60005b84600c016000848152602001908152602001600020805490508110156112bf578785600c016000858152602001908152602001600020828154811061121a57fe5b9060005260206000200154141561127057838286600c016000868152602001908152602001600020838154811061124d57fe5b9060005260206000200154600a811061126257fe5b6020020181815250506112b2565b60008286600c016000868152602001908152602001600020838154811061129357fe5b9060005260206000200154600a81106112a857fe5b6020020181815250505b80806001019150506111d9565b508360010187815481106112cf57fe5b9060005260206000200160009054906101000a900473ffffffffffffffffffffffffffffffffffffffff1673ffffffffffffffffffffffffffffffffffffffff1663095ea7b385600301848154811061132457fe5b9060005260206000200160009054906101000a900473ffffffffffffffffffffffffffffffffffffffff16856040518363ffffffff1660e01b815260040161136d9291906131e9565b602060405180830381600087803b15801561138757600080fd5b505af115801561139b573d6000803e3d6000fd5b505050506040513d601f19601f820116820180604052508101906113bf9190612d91565b508360030182815481106113cf57fe5b9060005260206000200160009054906101000a900473ffffffffffffffffffffffffffffffffffffffff1673ffffffffffffffffffffffffffffffffffffffff1663a9834c6d826040518263ffffffff1660e01b81526004016114329190613212565b602060405180830381600087803b15801561144c57600080fd5b505af1158015611460573d6000803e3d6000fd5b505050506040513d601f19601f820116820180604052508101906114849190612de3565b507f8a3c46035b966898b4542598f6680f7d7644bad07f874b70c3e034f33c7a78ff338560030184815481106114b657fe5b9060005260206000200160009054906101000a900473ffffffffffffffffffffffffffffffffffffffff16866001018a815481106114f057fe5b9060005260206000200160009054906101000a900473ffffffffffffffffffffffffffffffffffffffff168660405161152c9493929190613144565b60405180910390a18295505050505050919050565b60008061154c612485565b90508060110160009054906101000a900460ff16156115a0576040517f08c379a0000000000000000000000000000000000000000000000000000000008152600401611597906132e9565b60405180910390fd5b60006115aa612485565b90506115d48482600e016000888152602001908152602001600020546125cc90919063ffffffff16565b81600e016000878152602001908152602001600020819055506116e56116d282600101878154811061160257fe5b9060005260206000200160009054906101000a900473ffffffffffffffffffffffffffffffffffffffff1673ffffffffffffffffffffffffffffffffffffffff1663313ce5676040518163ffffffff1660e01b815260040160206040518083038186803b15801561167257600080fd5b505afa158015611686573d6000803e3d6000fd5b505050506040513d601f19601f820116820180604052508101906116aa9190612de3565b600a0a6116c48460050154886124b290919063ffffffff16565b61253890919063ffffffff16565b82600b01546125cc90919063ffffffff16565b81600b018190555060006116f985876104e2565b905081600101868154811061170a57fe5b9060005260206000200160009054906101000a900473ffffffffffffffffffffffffffffffffffffffff1673ffffffffffffffffffffffffffffffffffffffff166323b872dd3330886040518463ffffffff1660e01b815260040161177193929190613189565b602060405180830381600087803b15801561178b57600080fd5b505af115801561179f573d6000803e3d6000fd5b505050506040513d601f19601f820116820180604052508101906117c39190612d91565b508160020160009054906101000a900473ffffffffffffffffffffffffffffffffffffffff1673ffffffffffffffffffffffffffffffffffffffff166340c10f1933836040518363ffffffff1660e01b81526004016118239291906131c0565b600060405180830381600087803b15801561183d57600080fd5b505af1158015611851573d6000803e3d6000fd5b505050507f08f43333671aca8015183efb2197dac68519c827a11e6788eac8c80131169a6433866040516118869291906131c0565b60405180910390a180935050505092915050565b6000806118a5612485565b90508060040154600202816009015482600801540182600e0160008681526020019081526020016000205402816118d857fe5b04915050919050565b6000806118ec612485565b905080600501546118fb612199565b85028161190457fe5b0493506119e981600501546119db83600101868154811061192157fe5b9060005260206000200160009054906101000a900473ffffffffffffffffffffffffffffffffffffffff1673ffffffffffffffffffffffffffffffffffffffff1663313ce5676040518163ffffffff1660e01b815260040160206040518083038186803b15801561199157600080fd5b505afa1580156119a5573d6000803e3d6000fd5b505050506040513d601f19601f820116820180604052508101906119c99190612de3565b600a0a876124b290919063ffffffff16565b61253890919063ffffffff16565b91505092915050565b6000806119fd612485565b90503373ffffffffffffffffffffffffffffffffffffffff168160110160019054906101000a900473ffffffffffffffffffffffffffffffffffffffff1673ffffffffffffffffffffffffffffffffffffffff1614611a91576040517f08c379a0000000000000000000000000000000000000000000000000000000008152600401611a8890613269565b60405180910390fd5b6000611a9b612485565b90508060110160009054906101000a900460ff1615611aef576040517f08c379a0000000000000000000000000000000000000000000000000000000008152600401611ae6906132e9565b60405180910390fd5b6000611af9612485565b9050806003018681548110611b0a57fe5b9060005260206000200160009054906101000a900473ffffffffffffffffffffffffffffffffffffffff1673ffffffffffffffffffffffffffffffffffffffff1663b7fdf784826001018781548110611b5f57fe5b9060005260206000200160009054906101000a900473ffffffffffffffffffffffffffffffffffffffff166040518263ffffffff1660e01b8152600401611ba6919061310e565b602060405180830381600087803b158015611bc057600080fd5b505af1158015611bd4573d6000803e3d6000fd5b505050506040513d601f19601f82011682018060405250810190611bf89190612d91565b506001935050505092915050565b600080611c11612485565b90508060040154816008015482600e016000868152602001908152602001600020540281611c3b57fe5b04915050919050565b600080611c4f612485565b905080600f0160008481526020019081526020016000205481600e0160008581526020019081526020016000205403915050919050565b600080611c91612485565b9050611c9c83611c06565b611ca584611c44565b1180611cc65750600081600f01600085815260200190815260200160002054145b80611cf75750611cd583611c44565b611cde8461189a565b0381600f01600085815260200190815260200160002054105b611d1357611d0483611c44565b611d0d8461189a565b03611d16565b60005b915050919050565b600080611d29612485565b90508060110160009054906101000a900460ff1615611d7d576040517f08c379a0000000000000000000000000000000000000000000000000000000008152600401611d74906132e9565b60405180910390fd5b6000611d87612485565b90506000611d9485611c86565b905060008111611dd9576040517f08c379a0000000000000000000000000000000000000000000000000000000008152600401611dd090613289565b60405180910390fd5b611e018183600f0160008881526020019081526020016000205461258290919063ffffffff16565b82600f01600087815260200190815260200160002081905550600082600d016000878152602001908152602001600020549050611e3c61293b565b60005b84600c01600084815260200190815260200160002080549050811015611f25578785600c0160008581526020019081526020016000208281548110611e8057fe5b90600052602060002001541415611ed657838286600c0160008681526020019081526020016000208381548110611eb357fe5b9060005260206000200154600a8110611ec857fe5b602002018181525050611f18565b60008286600c0160008681526020019081526020016000208381548110611ef957fe5b9060005260206000200154600a8110611f0e57fe5b6020020181815250505b8080600101915050611e3f565b50836003018281548110611f3557fe5b9060005260206000200160009054906101000a900473ffffffffffffffffffffffffffffffffffffffff1673ffffffffffffffffffffffffffffffffffffffff166345ce0360826040518263ffffffff1660e01b8152600401611f989190613212565b602060405180830381600087803b158015611fb257600080fd5b505af1158015611fc6573d6000803e3d6000fd5b505050506040513d601f19601f82011682018060405250810190611fea9190612de3565b507f2441be9fc17408ea9902cf641305826f3b04cff339db1e0df3e9849d9bbd2e823385600301848154811061201c57fe5b9060005260206000200160009054906101000a900473ffffffffffffffffffffffffffffffffffffffff16866001018a8154811061205657fe5b9060005260206000200160009054906101000a900473ffffffffffffffffffffffffffffffffffffffff16866040516120929493929190613144565b60405180910390a18295505050505050919050565b6000806120b2612485565b90503373ffffffffffffffffffffffffffffffffffffffff168160110160019054906101000a900473ffffffffffffffffffffffffffffffffffffffff1673ffffffffffffffffffffffffffffffffffffffff1614612146576040517f08c379a000000000000000000000000000000000000000000000000000000000815260040161213d90613269565b60405180910390fd5b6000612150612485565b90508060110160009054906101000a900460ff16158160110160006101000a81548160ff0219169083151502179055508060110160009054906101000a900460ff169250505090565b6000806121a4612485565b905060008160020160009054906101000a900473ffffffffffffffffffffffffffffffffffffffff1673ffffffffffffffffffffffffffffffffffffffff166318160ddd6040518163ffffffff1660e01b815260040160206040518083038186803b15801561221257600080fd5b505afa158015612226573d6000803e3d6000fd5b505050506040513d601f19601f8201168201806040525081019061224a9190612de3565b148061225a5750600081600b0154145b612318578060020160009054906101000a900473ffffffffffffffffffffffffffffffffffffffff1673ffffffffffffffffffffffffffffffffffffffff166318160ddd6040518163ffffffff1660e01b815260040160206040518083038186803b1580156122c857600080fd5b505afa1580156122dc573d6000803e3d6000fd5b505050506040513d601f19601f820116820180604052508101906123009190612de3565b81600b01548260050154028161231257fe5b0461231e565b80600501545b91505090565b60008061232f612485565b90503373ffffffffffffffffffffffffffffffffffffffff168160110160019054906101000a900473ffffffffffffffffffffffffffffffffffffffff1673ffffffffffffffffffffffffffffffffffffffff16146123c3576040517f08c379a00000000000000000000000000000000000000000000000000000000081526004016123ba90613269565b60405180910390fd5b60006123cd612485565b9050838160110160016101000a81548173ffffffffffffffffffffffffffffffffffffffff021916908373ffffffffffffffffffffffffffffffffffffffff160217905550600192505050919050565b600080600261242b84611c06565b8161243257fe5b04905061243f81846104e2565b915050919050565b600080612452612485565b90508060040154816009015482600e01600086815260200190815260200160002054028161247c57fe5b04915050919050565b6000807f6c2f2617da7540533aede37184df9fe8d14d2f091e9a392f2685af4b9851d17290508091505090565b6000808314156124c55760009050612532565b60008284029050828482816124d657fe5b041461252d576040517f08c379a000000000000000000000000000000000000000000000000000000000815260040180806020018281038252602181526020018061357b6021913960400191505060405180910390fd5b809150505b92915050565b600061257a83836040518060400160405280601a81526020017f536166654d6174683a206469766973696f6e206279207a65726f000000000000815250612654565b905092915050565b60006125c483836040518060400160405280601f81526020017f536166654d6174683a207375627472616374696f6e20756e646572666c6f770081525061271a565b905092915050565b60008082840190508381101561264a576040517f08c379a000000000000000000000000000000000000000000000000000000000815260040180806020018281038252601b8152602001807f536166654d6174683a206164646974696f6e206f766572666c6f77000000000081525060200191505060405180910390fd5b8091505092915050565b60008083118290612700576040517f08c379a00000000000000000000000000000000000000000000000000000000081526004018080602001828103825283818151815260200191508051906020019080838360005b838110156126c55780820151818401526020810190506126aa565b50505050905090810190601f1680156126f25780820380516001836020036101000a031916815260200191505b509250505060405180910390fd5b50600083858161270c57fe5b049050809150509392505050565b60008383111582906127c7576040517f08c379a00000000000000000000000000000000000000000000000000000000081526004018080602001828103825283818151815260200191508051906020019080838360005b8381101561278c578082015181840152602081019050612771565b50505050905090810190601f1680156127b95780820380516001836020036101000a031916815260200191505b509250505060405180910390fd5b5060008385039050809150509392505050565b828054828255906000526020600020908101928215612853579160200282015b828111156128525782518260006101000a81548173ffffffffffffffffffffffffffffffffffffffff021916908373ffffffffffffffffffffffffffffffffffffffff160217905550916020019190600101906127fa565b5b509050612860919061295e565b5090565b8280548282559060005260206000209081019282156128dd579160200282015b828111156128dc5782518260006101000a81548173ffffffffffffffffffffffffffffffffffffffff021916908373ffffffffffffffffffffffffffffffffffffffff16021790555091602001919060010190612884565b5b5090506128ea919061295e565b5090565b82805482825590600052602060002090810192821561292a579160200282015b8281111561292957825182559160200191906001019061290e565b5b509050612937919061295e565b5090565b604051806101400160405280600a90602082028036833780820191505090505090565b5b8082111561297757600081600090555060010161295f565b5090565b600061298e61298984613375565b613344565b9050808382526020820190508260005b858110156129ce57813585016129b48882612baf565b84526020840193506020830192505060018101905061299e565b5050509392505050565b60006129eb6129e6846133a1565b613344565b90508083825260208201905082856020860282011115612a0a57600080fd5b60005b85811015612a3a5781612a208882612bee565b845260208401935060208301925050600181019050612a0d565b5050509392505050565b6000612a57612a52846133cd565b613344565b90508083825260208201905082856020860282011115612a7657600080fd5b60005b85811015612aa65781612a8c8882612c03565b845260208401935060208301925050600181019050612a79565b5050509392505050565b6000612ac3612abe846133f9565b613344565b90508083825260208201905082856020860282011115612ae257600080fd5b60005b85811015612b125781612af88882612c18565b845260208401935060208301925050600181019050612ae5565b5050509392505050565b600081359050612b2b81613507565b92915050565b600082601f830112612b4257600080fd5b8135612b5284826020860161297b565b91505092915050565b600082601f830112612b6c57600080fd5b8135612b7c8482602086016129d8565b91505092915050565b600082601f830112612b9657600080fd5b8135612ba6848260208601612a44565b91505092915050565b600082601f830112612bc057600080fd5b8135612bd0848260208601612ab0565b91505092915050565b600081519050612be88161351e565b92915050565b600081359050612bfd81613535565b92915050565b600081359050612c128161354c565b92915050565b600081359050612c2781613563565b92915050565b600081519050612c3c81613563565b92915050565b600060208284031215612c5457600080fd5b6000612c6284828501612b1c565b91505092915050565b60008060008060008060008060006101208a8c031215612c8a57600080fd5b60008a013567ffffffffffffffff811115612ca457600080fd5b612cb08c828d01612b85565b9950506020612cc18c828d01612c03565b9850506040612cd28c828d01612c18565b9750506060612ce38c828d01612c18565b9650506080612cf48c828d01612c18565b95505060a0612d058c828d01612c18565b94505060c08a013567ffffffffffffffff811115612d2257600080fd5b612d2e8c828d01612b5b565b93505060e08a013567ffffffffffffffff811115612d4b57600080fd5b612d578c828d01612baf565b9250506101008a013567ffffffffffffffff811115612d7557600080fd5b612d818c828d01612b31565b9150509295985092959850929598565b600060208284031215612da357600080fd5b6000612db184828501612bd9565b91505092915050565b600060208284031215612dcc57600080fd5b6000612dda84828501612c18565b91505092915050565b600060208284031215612df557600080fd5b6000612e0384828501612c2d565b91505092915050565b60008060408385031215612e1f57600080fd5b6000612e2d85828601612c18565b9250506020612e3e85828601612c18565b9150509250929050565b6000612e5483836130f0565b60208301905092915050565b612e69816134cf565b82525050565b612e7881613463565b82525050565b612e878161342f565b612e918184613447565b9250612e9c82613425565b8060005b83811015612ecd578151612eb48782612e48565b9650612ebf8361343a565b925050600181019050612ea0565b505050505050565b612ede81613475565b82525050565b6000612ef1601283613452565b91507f4e6f7468696e6720746f206465706f73697400000000000000000000000000006000830152602082019050919050565b6000612f31601583613452565b91507f4f6e6c792061646d696e2063616e2063616c6c212100000000000000000000006000830152602082019050919050565b6000612f71601383613452565b91507f4e6f7468696e6720746f207769746864726177000000000000000000000000006000830152602082019050919050565b6000612fb1602983613452565b91507f446f6e74206861766520656e6f7567682066756e642c20506c6561736520747260008301527f79206c61746572212100000000000000000000000000000000000000000000006020830152604082019050919050565b6000613017602183613452565b91507f596f7520646f6e74206861766520656e6f75676820706f6f6c20746f6b656e2160008301527f21000000000000000000000000000000000000000000000000000000000000006020830152604082019050919050565b600061307d601283613452565b91507f636f6e7472616374206973206c6f636b656400000000000000000000000000006000830152602082019050919050565b60006130bd601383613452565b91507f416c726561647920696e697469616c697a6564000000000000000000000000006000830152602082019050919050565b6130f9816134c5565b82525050565b613108816134c5565b82525050565b60006020820190506131236000830184612e6f565b92915050565b600060208201905061313e6000830184612e60565b92915050565b60006080820190506131596000830187612e60565b6131666020830186612e6f565b6131736040830185612e6f565b61318060608301846130ff565b95945050505050565b600060608201905061319e6000830186612e60565b6131ab6020830185612e6f565b6131b860408301846130ff565b949350505050565b60006040820190506131d56000830185612e60565b6131e260208301846130ff565b9392505050565b60006040820190506131fe6000830185612e6f565b61320b60208301846130ff565b9392505050565b6000610140820190506132286000830184612e7e565b92915050565b60006020820190506132436000830184612ed5565b92915050565b6000602082019050818103600083015261326281612ee4565b9050919050565b6000602082019050818103600083015261328281612f24565b9050919050565b600060208201905081810360008301526132a281612f64565b9050919050565b600060208201905081810360008301526132c281612fa4565b9050919050565b600060208201905081810360008301526132e28161300a565b9050919050565b6000602082019050818103600083015261330281613070565b9050919050565b60006020820190508181036000830152613322816130b0565b9050919050565b600060208201905061333e60008301846130ff565b92915050565b6000604051905081810181811067ffffffffffffffff8211171561336b5761336a613505565b5b8060405250919050565b600067ffffffffffffffff8211156133905761338f613505565b5b602082029050602081019050919050565b600067ffffffffffffffff8211156133bc576133bb613505565b5b602082029050602081019050919050565b600067ffffffffffffffff8211156133e8576133e7613505565b5b602082029050602081019050919050565b600067ffffffffffffffff82111561341457613413613505565b5b602082029050602081019050919050565b6000819050919050565b6000600a9050919050565b6000602082019050919050565b600081905092915050565b600082825260208201905092915050565b600061346e826134a5565b9050919050565b60008115159050919050565b600061348c82613463565b9050919050565b600061349e82613463565b9050919050565b600073ffffffffffffffffffffffffffffffffffffffff82169050919050565b6000819050919050565b60006134da826134e1565b9050919050565b60006134ec826134f3565b9050919050565b60006134fe826134a5565b9050919050565bfe5b61351081613463565b811461351b57600080fd5b50565b61352781613475565b811461353257600080fd5b50565b61353e81613481565b811461354957600080fd5b50565b61355581613493565b811461356057600080fd5b50565b61356c816134c5565b811461357757600080fd5b5056fe536166654d6174683a206d756c7469706c69636174696f6e206f766572666c6f77a26469706673582212208d97dab9834d026e031638feaea5c3e317b2f794f660b1aa26bfca9b4299050364736f6c63430007060033",
  "immutableReferences": {},
  "source": "// SPDX-License-Identifier: UNLICENSED\r\npragma solidity ^0.7.6;\r\npragma experimental ABIEncoderV2;\r\nimport \"../storage/PoolStorage.sol\";\r\ncontract AdvancePool is PoolStorageV1 {\r\n    \r\n/****VARIABLES*****/\r\n    using SafeMath for uint256;\r\n   \r\n\r\n/****MODIFIERS*****/\r\n    \r\n    modifier onlyOnwer(){\r\n        PoolStorage storage ps = poolStorage();\r\n        require(ps.owner == msg.sender, \"Only admin can call!!\");\r\n        _;\r\n    }\r\n    modifier notLocked {\r\n        PoolStorage storage ps = poolStorage();\r\n        require(!ps.locked, \"contract is locked\");\r\n        _;\r\n    }\r\n  \r\n/****EVENTS****/ \r\n    event userDeposits(address user,uint amount);\r\n    event userWithdrawal(address user,uint amount);\r\n    event poolDeposit(address user, address pool, address coin, uint amount);\r\n    event poolWithdrawal(address user, address pool, address coin, uint amount);\r\n    \r\n/****CONSTRUCTOR****/\r\n    function initialize(\r\n        IERC20[] memory _coins,\r\n        IERC20 _poolToken, \r\n        uint256 _minLiquidity, \r\n        uint256 _maxLiquidity, \r\n        uint256 _withdrawFees, \r\n        uint256 _depositFees,\r\n        DepositStrategy[] memory _depositStrategies,\r\n        uint256[] memory _strategyForCoin,\r\n        uint256[][] memory _coinsPositionInStrategy\r\n    ) public {\r\n        PoolStorage storage ps = poolStorage();\r\n        require(!ps.initialized, 'Already initialized');\r\n        ps.owner = msg.sender;\r\n        ps.DENOMINATOR = 10000;\r\n        ps.PRECISION = 10**18;\r\n        ps.coins = _coins;\r\n        ps.poolToken = _poolToken;\r\n        ps.minLiquidity = _minLiquidity;\r\n        ps.maxLiquidity = _maxLiquidity;\r\n        ps.withdrawFees = _withdrawFees;\r\n        ps.depositFees = _depositFees;\r\n        ps.depositStrategies = _depositStrategies;\r\n        ps.initialized = true;\r\n        for(uint256 i = 0; i < _strategyForCoin.length; i++){\r\n            ps.strategyForCoin[i] = _strategyForCoin[i];\r\n        }\r\n        for(uint256 i = 0; i < _coinsPositionInStrategy.length; i++){\r\n            ps.coinsPositionInStrategy[i] = _coinsPositionInStrategy[i];\r\n        }\r\n    }\r\n    \r\n/*****USERS FUNCTIONS****/\r\n    // amount will be in coins precision\r\n    function stake(uint256 coinIndex, uint256 amount) external notLocked() returns(uint256){\r\n        PoolStorage storage ps = poolStorage();\r\n        ps.poolBalances[coinIndex] = ps.poolBalances[coinIndex].add(amount);\r\n        ps.totalStaked = ps.totalStaked.add(amount.mul(ps.PRECISION).div(10**ps.coins[coinIndex].decimals()));\r\n        uint256 mintAmount = calculatePoolTokens(amount, coinIndex);\r\n        ps.coins[coinIndex].transferFrom(msg.sender, address(this), amount);\r\n        ps.poolToken.mint(msg.sender, mintAmount);\r\n        emit userDeposits(msg.sender,amount);\r\n        return mintAmount;\r\n    }\r\n    \r\n    //amount is the amount of LP token user want to burn\r\n    function unStake(uint256 coinIndex, uint256 amount) external notLocked() returns(uint256){\r\n        PoolStorage storage ps = poolStorage();\r\n        require(amount <= ps.poolToken.balanceOf(msg.sender), \"You dont have enough pool token!!\");\r\n        require(amount <= maxBurnAllowed(coinIndex), \"Dont have enough fund, Please try later!!\");\r\n        uint256 tokenAmount = calculateStableCoins(amount, coinIndex);\r\n        ps.poolBalances[coinIndex] = ps.poolBalances[coinIndex].sub(tokenAmount);\r\n        ps.totalStaked = ps.totalStaked.sub(tokenAmount.mul(ps.PRECISION).div(10**ps.coins[coinIndex].decimals()));\r\n        ps.coins[coinIndex].transfer(msg.sender, tokenAmount);\r\n        ps.poolToken.burn(msg.sender, amount);  \r\n        emit userWithdrawal(msg.sender,amount);\r\n        return tokenAmount;\r\n    }\r\n    \r\n/****ADMIN FUNCTIONS*****/\r\n    \r\n    function updateLiquidityParam(uint256 _minLiquidity, uint256 _maxLiquidity) external onlyOnwer() notLocked() returns(bool){\r\n        PoolStorage storage ps = poolStorage();\r\n        ps.minLiquidity = _minLiquidity;\r\n        ps.maxLiquidity = _maxLiquidity;\r\n        return true;\r\n    }\r\n    \r\n    function updateFees(uint256 _depositFees, uint256 _withdrawFees) external onlyOnwer() notLocked() returns(bool){\r\n        PoolStorage storage ps = poolStorage();\r\n        ps.withdrawFees = _withdrawFees;\r\n        ps.depositFees = _depositFees;\r\n        return true;\r\n    }\r\n    \r\n    function changeLockStatus() external onlyOnwer() returns(bool){\r\n        PoolStorage storage ps = poolStorage();\r\n        ps.locked = !ps.locked;\r\n        return ps.locked;\r\n    }\r\n    \r\n    function transferOwnership(address newOwner) external onlyOnwer() returns(bool){\r\n        PoolStorage storage ps = poolStorage();\r\n        ps.owner = newOwner;\r\n        return true;\r\n    } \r\n    \r\n    function setStrategyRewardCoin(uint256 strategyIndex, uint256 coinIndex) external onlyOnwer() notLocked() returns(bool){\r\n        PoolStorage storage ps = poolStorage();\r\n        ps.depositStrategies[strategyIndex].setRewardCoin(address(ps.coins[coinIndex]));\r\n        return true;\r\n    }\r\n    \r\n/****POOL FUNCTIONS****/\r\n\r\n    function addToStrategy(uint256 coinIndex) external notLocked() returns(uint256){\r\n        PoolStorage storage ps = poolStorage();\r\n        uint256 amount = amountToDeposit(coinIndex);\r\n        require(amount > 0 , \"Nothing to deposit\");\r\n        ps.coinsDepositInStrategy[coinIndex] = ps.coinsDepositInStrategy[coinIndex].add(amount);\r\n        uint256 strategyIndex = ps.strategyForCoin[coinIndex];\r\n        uint256[10] memory amounts;\r\n        for(uint256 i = 0; i < ps.coinsPositionInStrategy[strategyIndex].length; i++ ){\r\n            if(ps.coinsPositionInStrategy[strategyIndex][i] == coinIndex){\r\n                amounts[ps.coinsPositionInStrategy[strategyIndex][i]] = amount;\r\n            }\r\n            else{\r\n                amounts[ps.coinsPositionInStrategy[strategyIndex][i]] = 0;\r\n            }\r\n        }\r\n        ps.coins[coinIndex].approve(address(ps.depositStrategies[strategyIndex]), amount);\r\n        ps.depositStrategies[strategyIndex].deposit(amounts);\r\n        emit poolDeposit(msg.sender, address(ps.depositStrategies[strategyIndex]), address(ps.coins[coinIndex]), amount);\r\n        return amount;\r\n        \r\n    }\r\n    \r\n    function removeFromPool(uint256 coinIndex) external notLocked() returns(uint256){\r\n        PoolStorage storage ps = poolStorage();\r\n        uint256 amount = amountToWithdraw(coinIndex);\r\n        require(amount > 0 , \"Nothing to withdraw\");\r\n        ps.coinsDepositInStrategy[coinIndex] = ps.coinsDepositInStrategy[coinIndex].sub(amount);\r\n        uint256 strategyIndex = ps.strategyForCoin[coinIndex];\r\n        uint256[10] memory amounts;\r\n        for(uint256 i = 0; i < ps.coinsPositionInStrategy[strategyIndex].length; i++ ){\r\n            if(ps.coinsPositionInStrategy[strategyIndex][i] == coinIndex){\r\n                amounts[ps.coinsPositionInStrategy[strategyIndex][i]] = amount;\r\n            }\r\n            else{\r\n                amounts[ps.coinsPositionInStrategy[strategyIndex][i]] = 0;\r\n            }\r\n        }\r\n        ps.depositStrategies[strategyIndex].withdraw(amounts);\r\n        emit poolWithdrawal(msg.sender, address(ps.depositStrategies[strategyIndex]), address(ps.coins[coinIndex]),  amount);\r\n        return amount;\r\n    }\r\n    \r\n/****OTHER FUNCTIONS****/\r\n    \r\n    //TOKEN MUST BE SENT IN COINS PRECISION\r\n    function calculatePoolTokens(uint256 amountOfStableCoins, uint256 coinIndex) public view returns(uint256){\r\n        PoolStorage storage ps = poolStorage();\r\n        amountOfStableCoins = amountOfStableCoins.mul(ps.PRECISION).div(10**ps.coins[coinIndex].decimals());\r\n        return amountOfStableCoins * stableCoinPrice() / ps.PRECISION;\r\n    }\r\n    \r\n    //Returning in pool token PRECISION\r\n    function stableCoinPrice() public view returns(uint256){\r\n        PoolStorage storage ps = poolStorage();\r\n        return (ps.poolToken.totalSupply() == 0 || ps.totalStaked == 0) ? ps.PRECISION : ps.PRECISION * ps.poolToken.totalSupply()/ps.totalStaked;\r\n    }\r\n    \r\n       //RETURNING IN COIN PRECISION\r\n    function calculateStableCoins(uint256 amountOfPoolToken, uint256 coinIndex) public view returns(uint256){\r\n        PoolStorage storage ps = poolStorage();\r\n        amountOfPoolToken = amountOfPoolToken * poolTokenPrice() / ps.PRECISION;\r\n        return amountOfPoolToken.mul(10 ** ps.coins[coinIndex].decimals()).div(ps.PRECISION);\r\n    }\r\n    \r\n     function poolTokenPrice() public view returns(uint256){\r\n        PoolStorage storage ps = poolStorage();\r\n        return (ps.poolToken.totalSupply() == 0 || ps.totalStaked == 0) ? ps.PRECISION : ps.PRECISION * ps.totalStaked/ps.poolToken.totalSupply();\r\n    }\r\n    \r\n    \r\n    // returning max number of pool token that can be burnt\r\n    // if min is also less than actual\r\n    function maxBurnAllowed(uint256 coinIndex) public view returns(uint256){\r\n        uint256 maxTokenAmount = minLiquidityToMaintainInPool(coinIndex)/2;\r\n        return calculatePoolTokens(maxTokenAmount, coinIndex);\r\n    }\r\n    \r\n    function currentLiquidity(uint256 coinIndex) public view returns(uint256){\r\n        PoolStorage storage ps = poolStorage();\r\n        return ps.poolBalances[coinIndex] - ps.coinsDepositInStrategy[coinIndex];\r\n    }\r\n   \r\n    function idealAmount(uint256 coinIndex) public view returns(uint256){\r\n        PoolStorage storage ps = poolStorage();\r\n        return ps.poolBalances[coinIndex] * (ps.minLiquidity + ps.maxLiquidity) / (2 * ps.DENOMINATOR);\r\n    }\r\n     \r\n    function maxLiquidityAllowedInPool(uint256 coinIndex) public view returns(uint256){\r\n        PoolStorage storage ps = poolStorage();\r\n        return ps.poolBalances[coinIndex] * ps.maxLiquidity / ps.DENOMINATOR;\r\n    }\r\n\r\n    function amountToDeposit(uint256 coinIndex) public view returns(uint256){\r\n        return currentLiquidity(coinIndex) <= maxLiquidityAllowedInPool(coinIndex) ? 0 : currentLiquidity(coinIndex) - idealAmount(coinIndex);\r\n    }\r\n    \r\n      \r\n    function minLiquidityToMaintainInPool(uint256 coinIndex) public view returns(uint256){\r\n        PoolStorage storage ps = poolStorage();\r\n        return ps.poolBalances[coinIndex] * ps.minLiquidity / ps.DENOMINATOR;\r\n    }\r\n   \r\n    function amountToWithdraw(uint256 coinIndex) public view returns(uint256){\r\n        PoolStorage storage ps = poolStorage();\r\n        return currentLiquidity(coinIndex) > minLiquidityToMaintainInPool(coinIndex) || ps.coinsDepositInStrategy[coinIndex] == 0 || ps.coinsDepositInStrategy[coinIndex] < idealAmount(coinIndex) - currentLiquidity(coinIndex) ? 0 : idealAmount(coinIndex) - currentLiquidity(coinIndex);\r\n    }\r\n    \r\n}",
  "sourcePath": "E:/New Desktop/Projects/AdvancedPool/contracts/facets/AdvancedPool.sol",
  "compiler": {
    "name": "solc",
    "version": "0.7.6+commit.7338295f.Emscripten.clang"
  },
  "schemaVersion": "3.3.2",
  "updatedAt": "2021-04-15T16:12:50.490Z",
  "devdoc": {
    "kind": "dev",
    "methods": {},
    "version": 1
  },
  "userdoc": {
    "kind": "user",
    "methods": {},
    "version": 1
  }
}