{
  "contractName": "Controller3",
  "abi": [
    {
      "inputs": [
        {
          "internalType": "uint256",
          "name": "amount",
          "type": "uint256"
        }
      ],
      "name": "stake",
      "outputs": [],
      "stateMutability": "nonpayable",
      "type": "function"
    },
    {
      "inputs": [
        {
          "internalType": "uint256",
          "name": "amount",
          "type": "uint256"
        }
      ],
      "name": "unstake",
      "outputs": [
        {
          "internalType": "uint256",
          "name": "",
          "type": "uint256"
        }
      ],
      "stateMutability": "nonpayable",
      "type": "function"
    },
    {
      "inputs": [],
      "name": "unstakeAll",
      "outputs": [
        {
          "internalType": "uint256",
          "name": "",
          "type": "uint256"
        }
      ],
      "stateMutability": "nonpayable",
      "type": "function"
    },
    {
      "inputs": [
        {
          "internalType": "address",
          "name": "gauge",
          "type": "address"
        }
      ],
      "name": "claimCRVAdmin",
      "outputs": [
        {
          "internalType": "uint256",
          "name": "",
          "type": "uint256"
        }
      ],
      "stateMutability": "nonpayable",
      "type": "function"
    },
    {
      "inputs": [],
      "name": "claimCRV",
      "outputs": [
        {
          "internalType": "uint256",
          "name": "",
          "type": "uint256"
        }
      ],
      "stateMutability": "nonpayable",
      "type": "function"
    },
    {
      "inputs": [],
      "name": "stakedAmount",
      "outputs": [
        {
          "internalType": "uint256",
          "name": "",
          "type": "uint256"
        }
      ],
      "stateMutability": "view",
      "type": "function",
      "constant": true
    },
    {
      "inputs": [
        {
          "internalType": "address",
          "name": "strategy",
          "type": "address"
        }
      ],
      "name": "claimableCRVTokens",
      "outputs": [
        {
          "internalType": "uint256",
          "name": "",
          "type": "uint256"
        }
      ],
      "stateMutability": "view",
      "type": "function",
      "constant": true
    },
    {
      "inputs": [
        {
          "internalType": "address",
          "name": "strategy",
          "type": "address"
        }
      ],
      "name": "fixOldValues",
      "outputs": [],
      "stateMutability": "nonpayable",
      "type": "function"
    }
  ],
  "bytecode": "0x608060405234801561001057600080fd5b506120e6806100206000396000f3fe608060405234801561001057600080fd5b50600436106100885760003560e01c8063a694fc3a1161005b578063a694fc3a14610129578063e0342ca614610157578063e89f13ce146101af578063eef6b53e146101f357610088565b80632e17de781461008d57806335322f37146100cf578063373d6132146100ed57806348f8f6d91461010b575b600080fd5b6100b9600480360360208110156100a357600080fd5b810190808035906020019092919050505061024b565b6040518082815260200191505060405180910390f35b6100d7610592565b6040518082815260200191505060405180910390f35b6100f56108dc565b6040518082815260200191505060405180910390f35b6101136109ff565b6040518082815260200191505060405180910390f35b6101556004803603602081101561013f57600080fd5b8101908080359060200190929190505050610c40565b005b6101996004803603602081101561016d57600080fd5b81019080803573ffffffffffffffffffffffffffffffffffffffff16906020019092919050505061127e565b6040518082815260200191505060405180910390f35b6101f1600480360360208110156101c557600080fd5b81019080803573ffffffffffffffffffffffffffffffffffffffff169060200190929190505050611b6f565b005b6102356004803603602081101561020957600080fd5b81019080803573ffffffffffffffffffffffffffffffffffffffff169060200190929190505050611df3565b6040518082815260200191505060405180910390f35b600080610256611e4a565b90508060040160003373ffffffffffffffffffffffffffffffffffffffff1673ffffffffffffffffffffffffffffffffffffffff16815260200190815260200160002060009054906101000a900460ff16610319576040517f08c379a00000000000000000000000000000000000000000000000000000000081526004018080602001828103825260188152602001807f4f6e6c792073747261746567792063616e2063616c6c2121000000000000000081525060200191505060405180910390fd5b6000610323611e4a565b9050838160150160003373ffffffffffffffffffffffffffffffffffffffff1673ffffffffffffffffffffffffffffffffffffffff16815260200190815260200160002054038160150160003373ffffffffffffffffffffffffffffffffffffffff1673ffffffffffffffffffffffffffffffffffffffff168152602001908152602001600020819055508060020160003373ffffffffffffffffffffffffffffffffffffffff1673ffffffffffffffffffffffffffffffffffffffff16815260200190815260200160002060009054906101000a900473ffffffffffffffffffffffffffffffffffffffff1673ffffffffffffffffffffffffffffffffffffffff16632e1a7d4d856040518263ffffffff1660e01b815260040180828152602001915050600060405180830381600087803b15801561046257600080fd5b505af1158015610476573d6000803e3d6000fd5b505050508060030160003373ffffffffffffffffffffffffffffffffffffffff1673ffffffffffffffffffffffffffffffffffffffff16815260200190815260200160002060009054906101000a900473ffffffffffffffffffffffffffffffffffffffff1673ffffffffffffffffffffffffffffffffffffffff1663a9059cbb33866040518363ffffffff1660e01b8152600401808373ffffffffffffffffffffffffffffffffffffffff16815260200182815260200192505050602060405180830381600087803b15801561054c57600080fd5b505af1158015610560573d6000803e3d6000fd5b505050506040513d602081101561057657600080fd5b8101908080519060200190929190505050508392505050919050565b60008061059d611e4a565b90508060040160003373ffffffffffffffffffffffffffffffffffffffff1673ffffffffffffffffffffffffffffffffffffffff16815260200190815260200160002060009054906101000a900460ff16610660576040517f08c379a00000000000000000000000000000000000000000000000000000000081526004018080602001828103825260188152602001807f4f6e6c792073747261746567792063616e2063616c6c2121000000000000000081525060200191505060405180910390fd5b600061066a611e4a565b905060008160150160003373ffffffffffffffffffffffffffffffffffffffff1673ffffffffffffffffffffffffffffffffffffffff16815260200190815260200160002054905060008260150160003373ffffffffffffffffffffffffffffffffffffffff1673ffffffffffffffffffffffffffffffffffffffff168152602001908152602001600020819055508160020160003373ffffffffffffffffffffffffffffffffffffffff1673ffffffffffffffffffffffffffffffffffffffff16815260200190815260200160002060009054906101000a900473ffffffffffffffffffffffffffffffffffffffff1673ffffffffffffffffffffffffffffffffffffffff16632e1a7d4d826040518263ffffffff1660e01b815260040180828152602001915050600060405180830381600087803b1580156107ad57600080fd5b505af11580156107c1573d6000803e3d6000fd5b505050508160030160003373ffffffffffffffffffffffffffffffffffffffff1673ffffffffffffffffffffffffffffffffffffffff16815260200190815260200160002060009054906101000a900473ffffffffffffffffffffffffffffffffffffffff1673ffffffffffffffffffffffffffffffffffffffff1663a9059cbb33836040518363ffffffff1660e01b8152600401808373ffffffffffffffffffffffffffffffffffffffff16815260200182815260200192505050602060405180830381600087803b15801561089757600080fd5b505af11580156108ab573d6000803e3d6000fd5b505050506040513d60208110156108c157600080fd5b81019080805190602001909291905050505080935050505090565b6000806108e7611e4a565b90508060040160003373ffffffffffffffffffffffffffffffffffffffff1673ffffffffffffffffffffffffffffffffffffffff16815260200190815260200160002060009054906101000a900460ff166109aa576040517f08c379a00000000000000000000000000000000000000000000000000000000081526004018080602001828103825260188152602001807f4f6e6c792073747261746567792063616e2063616c6c2121000000000000000081525060200191505060405180910390fd5b60006109b4611e4a565b90508060150160003373ffffffffffffffffffffffffffffffffffffffff1673ffffffffffffffffffffffffffffffffffffffff168152602001908152602001600020549250505090565b600080610a0a611e4a565b90508060040160003373ffffffffffffffffffffffffffffffffffffffff1673ffffffffffffffffffffffffffffffffffffffff16815260200190815260200160002060009054906101000a900460ff16610acd576040517f08c379a00000000000000000000000000000000000000000000000000000000081526004018080602001828103825260188152602001807f4f6e6c792073747261746567792063616e2063616c6c2121000000000000000081525060200191505060405180910390fd5b6000610ad7611e4a565b905060008160160160003373ffffffffffffffffffffffffffffffffffffffff1673ffffffffffffffffffffffffffffffffffffffff16815260200190815260200160002054905060008260160160003373ffffffffffffffffffffffffffffffffffffffff1673ffffffffffffffffffffffffffffffffffffffff168152602001908152602001600020819055508160000160019054906101000a900473ffffffffffffffffffffffffffffffffffffffff1673ffffffffffffffffffffffffffffffffffffffff1663a9059cbb33836040518363ffffffff1660e01b8152600401808373ffffffffffffffffffffffffffffffffffffffff16815260200182815260200192505050602060405180830381600087803b158015610bfb57600080fd5b505af1158015610c0f573d6000803e3d6000fd5b505050506040513d6020811015610c2557600080fd5b81019080805190602001909291905050505080935050505090565b6000610c4a611e4a565b90508060040160003373ffffffffffffffffffffffffffffffffffffffff1673ffffffffffffffffffffffffffffffffffffffff16815260200190815260200160002060009054906101000a900460ff16610d0d576040517f08c379a00000000000000000000000000000000000000000000000000000000081526004018080602001828103825260188152602001807f4f6e6c792073747261746567792063616e2063616c6c2121000000000000000081525060200191505060405180910390fd5b6000610d17611e4a565b90508060030160003373ffffffffffffffffffffffffffffffffffffffff1673ffffffffffffffffffffffffffffffffffffffff16815260200190815260200160002060009054906101000a900473ffffffffffffffffffffffffffffffffffffffff1673ffffffffffffffffffffffffffffffffffffffff166323b872dd3330866040518463ffffffff1660e01b8152600401808473ffffffffffffffffffffffffffffffffffffffff1681526020018373ffffffffffffffffffffffffffffffffffffffff1681526020018281526020019350505050602060405180830381600087803b158015610e0957600080fd5b505af1158015610e1d573d6000803e3d6000fd5b505050506040513d6020811015610e3357600080fd5b8101908080519060200190929190505050508060030160003373ffffffffffffffffffffffffffffffffffffffff1673ffffffffffffffffffffffffffffffffffffffff16815260200190815260200160002060009054906101000a900473ffffffffffffffffffffffffffffffffffffffff1673ffffffffffffffffffffffffffffffffffffffff1663095ea7b38260020160003373ffffffffffffffffffffffffffffffffffffffff1673ffffffffffffffffffffffffffffffffffffffff16815260200190815260200160002060009054906101000a900473ffffffffffffffffffffffffffffffffffffffff1660006040518363ffffffff1660e01b8152600401808373ffffffffffffffffffffffffffffffffffffffff16815260200182815260200192505050602060405180830381600087803b158015610f7957600080fd5b505af1158015610f8d573d6000803e3d6000fd5b505050506040513d6020811015610fa357600080fd5b8101908080519060200190929190505050508060030160003373ffffffffffffffffffffffffffffffffffffffff1673ffffffffffffffffffffffffffffffffffffffff16815260200190815260200160002060009054906101000a900473ffffffffffffffffffffffffffffffffffffffff1673ffffffffffffffffffffffffffffffffffffffff1663095ea7b38260020160003373ffffffffffffffffffffffffffffffffffffffff1673ffffffffffffffffffffffffffffffffffffffff16815260200190815260200160002060009054906101000a900473ffffffffffffffffffffffffffffffffffffffff16856040518363ffffffff1660e01b8152600401808373ffffffffffffffffffffffffffffffffffffffff16815260200182815260200192505050602060405180830381600087803b1580156110e857600080fd5b505af11580156110fc573d6000803e3d6000fd5b505050506040513d602081101561111257600080fd5b810190808051906020019092919050505050828160150160003373ffffffffffffffffffffffffffffffffffffffff1673ffffffffffffffffffffffffffffffffffffffff16815260200190815260200160002054018160150160003373ffffffffffffffffffffffffffffffffffffffff1673ffffffffffffffffffffffffffffffffffffffff168152602001908152602001600020819055508060020160003373ffffffffffffffffffffffffffffffffffffffff1673ffffffffffffffffffffffffffffffffffffffff16815260200190815260200160002060009054906101000a900473ffffffffffffffffffffffffffffffffffffffff1673ffffffffffffffffffffffffffffffffffffffff1663b6b55f25846040518263ffffffff1660e01b815260040180828152602001915050600060405180830381600087803b15801561126157600080fd5b505af1158015611275573d6000803e3d6000fd5b50505050505050565b600080611289611e4a565b90503373ffffffffffffffffffffffffffffffffffffffff1681600b0160009054906101000a900473ffffffffffffffffffffffffffffffffffffffff1673ffffffffffffffffffffffffffffffffffffffff16148061133857503373ffffffffffffffffffffffffffffffffffffffff1681600c0160009054906101000a900473ffffffffffffffffffffffffffffffffffffffff1673ffffffffffffffffffffffffffffffffffffffff16145b6113aa576040517f08c379a00000000000000000000000000000000000000000000000000000000081526004018080602001828103825260168152602001807f4f6e6c792061646d696e732063616e2063616c6c21210000000000000000000081525060200191505060405180910390fd5b60006113b4611e4a565b90506114326113e23a6113d484601101545a611e7790919063ffffffff16565b611eff90919063ffffffff16565b8260120160003373ffffffffffffffffffffffffffffffffffffffff1673ffffffffffffffffffffffffffffffffffffffff16815260200190815260200160002054611e7790919063ffffffff16565b8160120160003373ffffffffffffffffffffffffffffffffffffffff1673ffffffffffffffffffffffffffffffffffffffff1681526020019081526020016000208190555060008160000160019054906101000a900473ffffffffffffffffffffffffffffffffffffffff1673ffffffffffffffffffffffffffffffffffffffff166370a08231306040518263ffffffff1660e01b8152600401808273ffffffffffffffffffffffffffffffffffffffff16815260200191505060206040518083038186803b15801561150457600080fd5b505afa158015611518573d6000803e3d6000fd5b505050506040513d602081101561152e57600080fd5b810190808051906020019092919050505090508160070160009054906101000a900473ffffffffffffffffffffffffffffffffffffffff1673ffffffffffffffffffffffffffffffffffffffff16636a627842866040518263ffffffff1660e01b8152600401808273ffffffffffffffffffffffffffffffffffffffff168152602001915050600060405180830381600087803b1580156115ce57600080fd5b505af11580156115e2573d6000803e3d6000fd5b5050505060008260000160019054906101000a900473ffffffffffffffffffffffffffffffffffffffff1673ffffffffffffffffffffffffffffffffffffffff166370a08231306040518263ffffffff1660e01b8152600401808273ffffffffffffffffffffffffffffffffffffffff16815260200191505060206040518083038186803b15801561167357600080fd5b505afa158015611687573d6000803e3d6000fd5b505050506040513d602081101561169d57600080fd5b8101908080519060200190929190505050905060008282039050600084600e015485600d01548302816116cc57fe5b0490508085601001540185601001819055506000818303905060008973ffffffffffffffffffffffffffffffffffffffff166370a08231306040518263ffffffff1660e01b8152600401808273ffffffffffffffffffffffffffffffffffffffff16815260200191505060206040518083038186803b15801561174e57600080fd5b505afa158015611762573d6000803e3d6000fd5b505050506040513d602081101561177857600080fd5b810190808051906020019092919050505090506000805b88600601805490508160ff161015611a96578b73ffffffffffffffffffffffffffffffffffffffff168960020160008b6006018460ff16815481106117d057fe5b9060005260206000200160009054906101000a900473ffffffffffffffffffffffffffffffffffffffff1673ffffffffffffffffffffffffffffffffffffffff1673ffffffffffffffffffffffffffffffffffffffff16815260200190815260200160002060009054906101000a900473ffffffffffffffffffffffffffffffffffffffff1673ffffffffffffffffffffffffffffffffffffffff161415611a895782848a60150160008c6006018560ff168154811061188c57fe5b9060005260206000200160009054906101000a900473ffffffffffffffffffffffffffffffffffffffff1673ffffffffffffffffffffffffffffffffffffffff1673ffffffffffffffffffffffffffffffffffffffff1681526020019081526020016000205402816118fa57fe5b048960160160008b6006018460ff168154811061191357fe5b9060005260206000200160009054906101000a900473ffffffffffffffffffffffffffffffffffffffff1673ffffffffffffffffffffffffffffffffffffffff1673ffffffffffffffffffffffffffffffffffffffff16815260200190815260200160002054018960160160008b6006018460ff168154811061199257fe5b9060005260206000200160009054906101000a900473ffffffffffffffffffffffffffffffffffffffff1673ffffffffffffffffffffffffffffffffffffffff1673ffffffffffffffffffffffffffffffffffffffff1681526020019081526020016000208190555082848a60150160008c6006018560ff1681548110611a1557fe5b9060005260206000200160009054906101000a900473ffffffffffffffffffffffffffffffffffffffff1673ffffffffffffffffffffffffffffffffffffffff1673ffffffffffffffffffffffffffffffffffffffff168152602001908152602001600020540281611a8357fe5b04820191505b808060010191505061178f565b5080831115611ab15780838960100154010388601001819055505b611b17611ac73a5a611eff90919063ffffffff16565b8960120160003373ffffffffffffffffffffffffffffffffffffffff1673ffffffffffffffffffffffffffffffffffffffff16815260200190815260200160002054611f8590919063ffffffff16565b8860120160003373ffffffffffffffffffffffffffffffffffffffff1673ffffffffffffffffffffffffffffffffffffffff168152602001908152602001600020819055508385039950505050505050505050919050565b6000611b79611e4a565b90503373ffffffffffffffffffffffffffffffffffffffff1681600b0160009054906101000a900473ffffffffffffffffffffffffffffffffffffffff1673ffffffffffffffffffffffffffffffffffffffff161480611c2857503373ffffffffffffffffffffffffffffffffffffffff1681600c0160009054906101000a900473ffffffffffffffffffffffffffffffffffffffff1673ffffffffffffffffffffffffffffffffffffffff16145b611c9a576040517f08c379a00000000000000000000000000000000000000000000000000000000081526004018080602001828103825260168152602001807f4f6e6c792061646d696e732063616e2063616c6c21210000000000000000000081525060200191505060405180910390fd5b6000611ca4611e4a565b90508060020160008473ffffffffffffffffffffffffffffffffffffffff1673ffffffffffffffffffffffffffffffffffffffff16815260200190815260200160002060009054906101000a900473ffffffffffffffffffffffffffffffffffffffff1673ffffffffffffffffffffffffffffffffffffffff166370a08231306040518263ffffffff1660e01b8152600401808273ffffffffffffffffffffffffffffffffffffffff16815260200191505060206040518083038186803b158015611d6e57600080fd5b505afa158015611d82573d6000803e3d6000fd5b505050506040513d6020811015611d9857600080fd5b81019080805190602001909291905050508160150160008573ffffffffffffffffffffffffffffffffffffffff1673ffffffffffffffffffffffffffffffffffffffff16815260200190815260200160002081905550505050565b600080611dfe611e4a565b90508060160160008473ffffffffffffffffffffffffffffffffffffffff1673ffffffffffffffffffffffffffffffffffffffff16815260200190815260200160002054915050919050565b6000807f36cd024ab99b7eb43ce06d2c7a20fd55d745b01b3ab37b4f7429b2a08705e3a490508091505090565b600080828401905083811015611ef5576040517f08c379a000000000000000000000000000000000000000000000000000000000815260040180806020018281038252601b8152602001807f536166654d6174683a206164646974696f6e206f766572666c6f77000000000081525060200191505060405180910390fd5b8091505092915050565b600080831415611f125760009050611f7f565b6000828402905082848281611f2357fe5b0414611f7a576040517f08c379a00000000000000000000000000000000000000000000000000000000081526004018080602001828103825260218152602001806120906021913960400191505060405180910390fd5b809150505b92915050565b6000611fc783836040518060400160405280601f81526020017f536166654d6174683a207375627472616374696f6e20756e646572666c6f7700815250611fcf565b905092915050565b600083831115829061207c576040517f08c379a00000000000000000000000000000000000000000000000000000000081526004018080602001828103825283818151815260200191508051906020019080838360005b83811015612041578082015181840152602081019050612026565b50505050905090810190601f16801561206e5780820380516001836020036101000a031916815260200191505b509250505060405180910390fd5b506000838503905080915050939250505056fe536166654d6174683a206d756c7469706c69636174696f6e206f766572666c6f77a2646970667358221220bec88a0455f127cdb2a16ab4a737afc2c353a851c935f6693fc2b59f6c891e5964736f6c63430007060033",
  "immutableReferences": {},
  "source": "// SPDX-License-Identifier: UNLICENSED\r\npragma solidity ^0.7.6;\r\nimport \"../storage/ControllerStorage.sol\";\r\nimport \"../libraries/SafeMath.sol\";\r\n\r\ncontract Controller3 is ControllerStorageV1 {\r\n    \r\n    using SafeMath for uint256;\r\n    \r\n  \r\n/****MODIFIERS****/\r\n    modifier onlyOwner(){\r\n        ControllerStorage storage cs = controllerStorage();\r\n        require(cs.controllerOwner == msg.sender || cs.controllerSuperOwner == msg.sender, \"Only admins can call!!\");\r\n        _;\r\n    }\r\n\r\n    modifier onlyStrategy(){\r\n        ControllerStorage storage cs = controllerStorage();\r\n        require(cs.isStratgey[msg.sender], \"Only strategy can call!!\");\r\n        _;\r\n    }\r\n\r\n\r\n/****STRATEGY FUNCTIONS****/\r\n\r\n    function stake(uint256 amount) external onlyStrategy(){\r\n        ControllerStorage storage cs = controllerStorage();\r\n        cs.strategyLPTokens[msg.sender].transferFrom(msg.sender, address(this), amount);\r\n        cs.strategyLPTokens[msg.sender].approve(address(cs.strategyGauges[msg.sender]), 0);\r\n        cs.strategyLPTokens[msg.sender].approve(address(cs.strategyGauges[msg.sender]), amount);\r\n        cs.strategyDeposits[msg.sender] = cs.strategyDeposits[msg.sender] + amount;\r\n        cs.strategyGauges[msg.sender].deposit(amount);  \r\n    }\r\n    \r\n    function unstake(uint256 amount) external onlyStrategy() returns(uint256){\r\n        ControllerStorage storage cs = controllerStorage();\r\n        cs.strategyDeposits[msg.sender] = cs.strategyDeposits[msg.sender] - amount;\r\n        cs.strategyGauges[msg.sender].withdraw(amount);\r\n        cs.strategyLPTokens[msg.sender].transfer(msg.sender, amount);\r\n        return amount;\r\n    }\r\n\r\n    function unstakeAll() external onlyStrategy() returns(uint256){\r\n        ControllerStorage storage cs = controllerStorage();\r\n        uint256 unstakedAmount =  cs.strategyDeposits[msg.sender];\r\n        cs.strategyDeposits[msg.sender] = 0;\r\n        cs.strategyGauges[msg.sender].withdraw(unstakedAmount);\r\n        cs.strategyLPTokens[msg.sender].transfer(msg.sender, unstakedAmount);\r\n        return unstakedAmount;\r\n    }\r\n\r\n    function claimCRVAdmin(address gauge) external onlyOwner() returns(uint256){\r\n        ControllerStorage storage cs = controllerStorage();\r\n        cs.claimableGas[msg.sender] = cs.claimableGas[msg.sender].add((gasleft().add(cs.defaultGas)).mul(tx.gasprice));\r\n        uint256 oldBalance = cs.crvToken.balanceOf(address(this));\r\n        Minter(cs.minter).mint(gauge);\r\n        uint256 newBalance = cs.crvToken.balanceOf(address(this));\r\n        uint256 crvReceived = newBalance - oldBalance;\r\n        uint256 crvToLock = crvReceived * cs.crvLockPercent / cs.DENOMINATOR;\r\n        cs.availableCRVToLock = cs.availableCRVToLock + crvToLock;\r\n        uint256 crvToSend = crvReceived - crvToLock;\r\n        uint256 totalStakedLPToken = Gauge(gauge).balanceOf(address(this));\r\n        uint256 distributedCRV = 0;\r\n        for(uint8 i = 0; i < cs.depositStrategies.length; i++){\r\n            if(address(cs.strategyGauges[cs.depositStrategies[i]]) == gauge){\r\n                cs.claimableCRV[cs.depositStrategies[i]] = cs.claimableCRV[cs.depositStrategies[i]] + cs.strategyDeposits[cs.depositStrategies[i]] * crvToSend / totalStakedLPToken;\r\n                distributedCRV = distributedCRV + cs.strategyDeposits[cs.depositStrategies[i]] * crvToSend / totalStakedLPToken;\r\n            }\r\n        }\r\n        if(crvToSend > distributedCRV){\r\n             cs.availableCRVToLock = cs.availableCRVToLock + crvToSend - distributedCRV;\r\n        }\r\n        cs.claimableGas[msg.sender] = cs.claimableGas[msg.sender].sub(gasleft().mul(tx.gasprice)); \r\n        return crvReceived - crvToLock;\r\n    }\r\n\r\n    function claimCRV() external onlyStrategy() returns(uint256){\r\n        ControllerStorage storage cs = controllerStorage();\r\n        uint256 crvToSend = cs.claimableCRV[msg.sender];\r\n        cs.claimableCRV[msg.sender] = 0;\r\n        cs.crvToken.transfer(msg.sender, crvToSend);\r\n        return crvToSend;\r\n    }\r\n\r\n    function stakedAmount() public onlyStrategy() view returns(uint256){\r\n        ControllerStorage storage cs = controllerStorage();\r\n        return cs.strategyDeposits[msg.sender];\r\n    }\r\n\r\n    function claimableCRVTokens(address strategy) public view returns(uint256){\r\n        ControllerStorage storage cs = controllerStorage();\r\n        return cs.claimableCRV[strategy];\r\n    }\r\n\r\n    function fixOldValues(address strategy) public onlyOwner(){\r\n        ControllerStorage storage cs = controllerStorage();\r\n        cs.strategyDeposits[strategy] = cs.strategyGauges[strategy].balanceOf(address(this));\r\n    }\r\n\r\n}",
  "sourcePath": "E:/Projects/AdvancedPool/Controller/contracts/facets/Controller3.sol",
  "compiler": {
    "name": "solc",
    "version": "0.7.6+commit.7338295f.Emscripten.clang"
  },
  "schemaVersion": "3.3.2",
  "updatedAt": "2021-06-30T04:54:58.478Z",
  "networkType": "ethereum",
  "devdoc": {
    "kind": "dev",
    "methods": {},
    "version": 1
  },
  "userdoc": {
    "kind": "user",
    "methods": {},
    "version": 1
  }
}