{
  "contractName": "Controller",
  "abi": [
    {
      "inputs": [
        {
          "internalType": "address[]",
          "name": "_depositStrategies",
          "type": "address[]"
        },
        {
          "internalType": "contract Gauge[]",
          "name": "_gauges",
          "type": "address[]"
        },
        {
          "internalType": "contract Minter",
          "name": "_minter",
          "type": "address"
        },
        {
          "internalType": "contract IERC20",
          "name": "_crvToken",
          "type": "address"
        },
        {
          "internalType": "contract IERC20[]",
          "name": "_strategyLPToken",
          "type": "address[]"
        },
        {
          "internalType": "contract VotingEscrow",
          "name": "_votingEscrow",
          "type": "address"
        },
        {
          "internalType": "contract FeeDistributor",
          "name": "_feeDistributor",
          "type": "address"
        },
        {
          "internalType": "contract UniswapV2Router",
          "name": "_uniswapRouter",
          "type": "address"
        },
        {
          "internalType": "address",
          "name": "_controllerOwner",
          "type": "address"
        },
        {
          "internalType": "uint256",
          "name": "_crvLockPercent",
          "type": "uint256"
        },
        {
          "internalType": "contract IERC20",
          "name": "_adminFeeToken",
          "type": "address"
        }
      ],
      "name": "initialize",
      "outputs": [],
      "stateMutability": "nonpayable",
      "type": "function"
    },
    {
      "inputs": [
        {
          "internalType": "address",
          "name": "newOwner",
          "type": "address"
        }
      ],
      "name": "updateOwner",
      "outputs": [
        {
          "internalType": "bool",
          "name": "",
          "type": "bool"
        }
      ],
      "stateMutability": "nonpayable",
      "type": "function"
    },
    {
      "inputs": [
        {
          "internalType": "uint256",
          "name": "amount",
          "type": "uint256"
        }
      ],
      "name": "stake",
      "outputs": [],
      "stateMutability": "nonpayable",
      "type": "function"
    },
    {
      "inputs": [],
      "name": "unStake",
      "outputs": [],
      "stateMutability": "nonpayable",
      "type": "function"
    },
    {
      "inputs": [],
      "name": "claimCRV",
      "outputs": [
        {
          "internalType": "uint256",
          "name": "",
          "type": "uint256"
        }
      ],
      "stateMutability": "nonpayable",
      "type": "function"
    },
    {
      "inputs": [
        {
          "internalType": "uint256",
          "name": "_value",
          "type": "uint256"
        },
        {
          "internalType": "uint256",
          "name": "_unlockTime",
          "type": "uint256"
        }
      ],
      "name": "createLock",
      "outputs": [],
      "stateMutability": "nonpayable",
      "type": "function"
    },
    {
      "inputs": [],
      "name": "releaseLock",
      "outputs": [],
      "stateMutability": "nonpayable",
      "type": "function"
    },
    {
      "inputs": [
        {
          "internalType": "uint256",
          "name": "_value",
          "type": "uint256"
        }
      ],
      "name": "increaseLockAmount",
      "outputs": [],
      "stateMutability": "nonpayable",
      "type": "function"
    },
    {
      "inputs": [],
      "name": "claimAndDistributeAdminFees",
      "outputs": [
        {
          "internalType": "uint256",
          "name": "",
          "type": "uint256"
        }
      ],
      "stateMutability": "nonpayable",
      "type": "function"
    }
  ],
  "bytecode": "0x608060405234801561001057600080fd5b50612c76806100206000396000f3fe608060405234801561001057600080fd5b50600436106100935760003560e01c806373cf575a1161006657806373cf575a146103cd578063880cdc31146103d7578063a694fc3a14610431578063b52c05fe1461045f578063eda54ad21461049757610093565b80631fae304414610098578063346c4c8714610363578063403f44471461038157806348f8f6d9146103af575b600080fd5b61036160048036036101608110156100af57600080fd5b81019080803590602001906401000000008111156100cc57600080fd5b8201836020820111156100de57600080fd5b8035906020019184602083028401116401000000008311171561010057600080fd5b919080806020026020016040519081016040528093929190818152602001838360200280828437600081840152601f19601f8201169050808301925050505050505091929192908035906020019064010000000081111561016057600080fd5b82018360208201111561017257600080fd5b8035906020019184602083028401116401000000008311171561019457600080fd5b919080806020026020016040519081016040528093929190818152602001838360200280828437600081840152601f19601f820116905080830192505050505050509192919290803573ffffffffffffffffffffffffffffffffffffffff169060200190929190803573ffffffffffffffffffffffffffffffffffffffff1690602001909291908035906020019064010000000081111561023457600080fd5b82018360208201111561024657600080fd5b8035906020019184602083028401116401000000008311171561026857600080fd5b919080806020026020016040519081016040528093929190818152602001838360200280828437600081840152601f19601f820116905080830192505050505050509192919290803573ffffffffffffffffffffffffffffffffffffffff169060200190929190803573ffffffffffffffffffffffffffffffffffffffff169060200190929190803573ffffffffffffffffffffffffffffffffffffffff169060200190929190803573ffffffffffffffffffffffffffffffffffffffff16906020019092919080359060200190929190803573ffffffffffffffffffffffffffffffffffffffff1690602001909291905050506104a1565b005b61036b610988565b6040518082815260200191505060405180910390f35b6103ad6004803603602081101561039757600080fd5b8101908080359060200190929190505050610eb6565b005b6103b76110e3565b6040518082815260200191505060405180910390f35b6103d56115f6565b005b610419600480360360208110156103ed57600080fd5b81019080803573ffffffffffffffffffffffffffffffffffffffff1690602001909291905050506119b5565b60405180821515815260200191505060405180910390f35b61045d6004803603602081101561044757600080fd5b8101908080359060200190929190505050611ae1565b005b6104956004803603604081101561047557600080fd5b810190808035906020019092919080359060200190929190505050611f26565b005b61049f61215c565b005b60006104ab6124fb565b90508b8160060190805190602001906104c5929190612b99565b508060000160009054906101000a900460ff161561054b576040517f08c379a00000000000000000000000000000000000000000000000000000000081526004018080602001828103825260138152602001807f416c726561647920696e697469616c697a65640000000000000000000000000081525060200191505060405180910390fd5b60005b8c51811015610769578b818151811061056357fe5b602002602001015182600201600084600601848154811061058057fe5b9060005260206000200160009054906101000a900473ffffffffffffffffffffffffffffffffffffffff1673ffffffffffffffffffffffffffffffffffffffff1673ffffffffffffffffffffffffffffffffffffffff16815260200190815260200160002060006101000a81548173ffffffffffffffffffffffffffffffffffffffff021916908373ffffffffffffffffffffffffffffffffffffffff16021790555088818151811061062f57fe5b602002602001015182600301600084600601848154811061064c57fe5b9060005260206000200160009054906101000a900473ffffffffffffffffffffffffffffffffffffffff1673ffffffffffffffffffffffffffffffffffffffff1673ffffffffffffffffffffffffffffffffffffffff16815260200190815260200160002060006101000a81548173ffffffffffffffffffffffffffffffffffffffff021916908373ffffffffffffffffffffffffffffffffffffffff16021790555060018260040160008f848151811061070357fe5b602002602001015173ffffffffffffffffffffffffffffffffffffffff1673ffffffffffffffffffffffffffffffffffffffff16815260200190815260200160002060006101000a81548160ff021916908315150217905550808060010191505061054e565b50898160070160006101000a81548173ffffffffffffffffffffffffffffffffffffffff021916908373ffffffffffffffffffffffffffffffffffffffff160217905550888160000160016101000a81548173ffffffffffffffffffffffffffffffffffffffff021916908373ffffffffffffffffffffffffffffffffffffffff160217905550868160080160006101000a81548173ffffffffffffffffffffffffffffffffffffffff021916908373ffffffffffffffffffffffffffffffffffffffff160217905550858160090160006101000a81548173ffffffffffffffffffffffffffffffffffffffff021916908373ffffffffffffffffffffffffffffffffffffffff1602179055508481600a0160006101000a81548173ffffffffffffffffffffffffffffffffffffffff021916908373ffffffffffffffffffffffffffffffffffffffff1602179055508381600b0160006101000a81548173ffffffffffffffffffffffffffffffffffffffff021916908373ffffffffffffffffffffffffffffffffffffffff1602179055508281600c018190555061271081600d018190555060018160000160006101000a81548160ff021916908315150217905550818160010160006101000a81548173ffffffffffffffffffffffffffffffffffffffff021916908373ffffffffffffffffffffffffffffffffffffffff1602179055508b5181600e0181905550505050505050505050505050565b6000806109936124fb565b905060008160010160009054906101000a900473ffffffffffffffffffffffffffffffffffffffff1673ffffffffffffffffffffffffffffffffffffffff166370a08231306040518263ffffffff1660e01b8152600401808273ffffffffffffffffffffffffffffffffffffffff16815260200191505060206040518083038186803b158015610a2257600080fd5b505afa158015610a36573d6000803e3d6000fd5b505050506040513d6020811015610a4c57600080fd5b810190808051906020019092919050505090508160090160009054906101000a900473ffffffffffffffffffffffffffffffffffffffff1673ffffffffffffffffffffffffffffffffffffffff16634e71d92d6040518163ffffffff1660e01b8152600401600060405180830381600087803b158015610acb57600080fd5b505af1158015610adf573d6000803e3d6000fd5b5050505060008260010160009054906101000a900473ffffffffffffffffffffffffffffffffffffffff1673ffffffffffffffffffffffffffffffffffffffff166370a08231306040518263ffffffff1660e01b8152600401808273ffffffffffffffffffffffffffffffffffffffff16815260200191505060206040518083038186803b158015610b7057600080fd5b505afa158015610b84573d6000803e3d6000fd5b505050506040513d6020811015610b9a57600080fd5b81019080805190602001909291905050509050600082820390508360000160019054906101000a900473ffffffffffffffffffffffffffffffffffffffff1673ffffffffffffffffffffffffffffffffffffffff166370a08231306040518263ffffffff1660e01b8152600401808273ffffffffffffffffffffffffffffffffffffffff16815260200191505060206040518083038186803b158015610c3f57600080fd5b505afa158015610c53573d6000803e3d6000fd5b505050506040513d6020811015610c6957600080fd5b81019080805190602001909291905050509250610c8581612528565b8360000160019054906101000a900473ffffffffffffffffffffffffffffffffffffffff1673ffffffffffffffffffffffffffffffffffffffff166370a08231306040518263ffffffff1660e01b8152600401808273ffffffffffffffffffffffffffffffffffffffff16815260200191505060206040518083038186803b158015610d1057600080fd5b505afa158015610d24573d6000803e3d6000fd5b505050506040513d6020811015610d3a57600080fd5b8101908080519060200190929190505050915060008383039050600085600d015486600c0154830281610d6957fe5b0482039050600086600e01548281610d7d57fe5b04905060005b87600e0154811015610e9757818860050160008a6006018481548110610da557fe5b9060005260206000200160009054906101000a900473ffffffffffffffffffffffffffffffffffffffff1673ffffffffffffffffffffffffffffffffffffffff1673ffffffffffffffffffffffffffffffffffffffff16815260200190815260200160002054018860050160008a6006018481548110610e2157fe5b9060005260206000200160009054906101000a900473ffffffffffffffffffffffffffffffffffffffff1673ffffffffffffffffffffffffffffffffffffffff1673ffffffffffffffffffffffffffffffffffffffff168152602001908152602001600020819055508080600101915050610d83565b50818388600f0154010387600f01819055508297505050505050505090565b6000610ec06124fb565b905080600f0154821115610f3c576040517f08c379a00000000000000000000000000000000000000000000000000000000081526004018080602001828103825260108152602001807f496e73756666696369656e74204352560000000000000000000000000000000081525060200191505060405180910390fd5b610f538282600f0154612a0790919063ffffffff16565b81600f01819055508060000160019054906101000a900473ffffffffffffffffffffffffffffffffffffffff1673ffffffffffffffffffffffffffffffffffffffff1663095ea7b38260080160009054906101000a900473ffffffffffffffffffffffffffffffffffffffff16846040518363ffffffff1660e01b8152600401808373ffffffffffffffffffffffffffffffffffffffff16815260200182815260200192505050602060405180830381600087803b15801561101457600080fd5b505af1158015611028573d6000803e3d6000fd5b505050506040513d602081101561103e57600080fd5b8101908080519060200190929190505050508060080160009054906101000a900473ffffffffffffffffffffffffffffffffffffffff1673ffffffffffffffffffffffffffffffffffffffff16634957677c836040518263ffffffff1660e01b815260040180828152602001915050600060405180830381600087803b1580156110c757600080fd5b505af11580156110db573d6000803e3d6000fd5b505050505050565b6000806110ee6124fb565b90508060040160003373ffffffffffffffffffffffffffffffffffffffff1673ffffffffffffffffffffffffffffffffffffffff16815260200190815260200160002060009054906101000a900460ff166111b1576040517f08c379a00000000000000000000000000000000000000000000000000000000081526004018080602001828103825260188152602001807f4f6e6c792073747261746567792063616e2063616c6c2121000000000000000081525060200191505060405180910390fd5b60006111bb6124fb565b905060008160000160019054906101000a900473ffffffffffffffffffffffffffffffffffffffff1673ffffffffffffffffffffffffffffffffffffffff166370a08231306040518263ffffffff1660e01b8152600401808273ffffffffffffffffffffffffffffffffffffffff16815260200191505060206040518083038186803b15801561124a57600080fd5b505afa15801561125e573d6000803e3d6000fd5b505050506040513d602081101561127457600080fd5b810190808051906020019092919050505090508160070160009054906101000a900473ffffffffffffffffffffffffffffffffffffffff1673ffffffffffffffffffffffffffffffffffffffff16636a6278428360020160003373ffffffffffffffffffffffffffffffffffffffff1673ffffffffffffffffffffffffffffffffffffffff16815260200190815260200160002060009054906101000a900473ffffffffffffffffffffffffffffffffffffffff166040518263ffffffff1660e01b8152600401808273ffffffffffffffffffffffffffffffffffffffff168152602001915050600060405180830381600087803b15801561137557600080fd5b505af1158015611389573d6000803e3d6000fd5b5050505060008260000160019054906101000a900473ffffffffffffffffffffffffffffffffffffffff1673ffffffffffffffffffffffffffffffffffffffff166370a08231306040518263ffffffff1660e01b8152600401808273ffffffffffffffffffffffffffffffffffffffff16815260200191505060206040518083038186803b15801561141a57600080fd5b505afa15801561142e573d6000803e3d6000fd5b505050506040513d602081101561144457600080fd5b8101908080519060200190929190505050905060008282039050600084600d015485600c015483028161147357fe5b0490508085600f01540185600f0181905550600081838760050160003373ffffffffffffffffffffffffffffffffffffffff1673ffffffffffffffffffffffffffffffffffffffff168152602001908152602001600020540103905060008660050160003373ffffffffffffffffffffffffffffffffffffffff1673ffffffffffffffffffffffffffffffffffffffff168152602001908152602001600020819055508560000160019054906101000a900473ffffffffffffffffffffffffffffffffffffffff1673ffffffffffffffffffffffffffffffffffffffff1663a9059cbb33836040518363ffffffff1660e01b8152600401808373ffffffffffffffffffffffffffffffffffffffff16815260200182815260200192505050602060405180830381600087803b1580156115ab57600080fd5b505af11580156115bf573d6000803e3d6000fd5b505050506040513d60208110156115d557600080fd5b81019080805190602001909291905050505081830397505050505050505090565b60006116006124fb565b90508060040160003373ffffffffffffffffffffffffffffffffffffffff1673ffffffffffffffffffffffffffffffffffffffff16815260200190815260200160002060009054906101000a900460ff166116c3576040517f08c379a00000000000000000000000000000000000000000000000000000000081526004018080602001828103825260188152602001807f4f6e6c792073747261746567792063616e2063616c6c2121000000000000000081525060200191505060405180910390fd5b60006116cd6124fb565b905060008160020160003373ffffffffffffffffffffffffffffffffffffffff1673ffffffffffffffffffffffffffffffffffffffff16815260200190815260200160002060009054906101000a900473ffffffffffffffffffffffffffffffffffffffff1673ffffffffffffffffffffffffffffffffffffffff166370a08231306040518263ffffffff1660e01b8152600401808273ffffffffffffffffffffffffffffffffffffffff16815260200191505060206040518083038186803b15801561179957600080fd5b505afa1580156117ad573d6000803e3d6000fd5b505050506040513d60208110156117c357600080fd5b810190808051906020019092919050505090508160020160003373ffffffffffffffffffffffffffffffffffffffff1673ffffffffffffffffffffffffffffffffffffffff16815260200190815260200160002060009054906101000a900473ffffffffffffffffffffffffffffffffffffffff1673ffffffffffffffffffffffffffffffffffffffff16632e1a7d4d826040518263ffffffff1660e01b815260040180828152602001915050600060405180830381600087803b15801561188a57600080fd5b505af115801561189e573d6000803e3d6000fd5b505050508160030160003373ffffffffffffffffffffffffffffffffffffffff1673ffffffffffffffffffffffffffffffffffffffff16815260200190815260200160002060009054906101000a900473ffffffffffffffffffffffffffffffffffffffff1673ffffffffffffffffffffffffffffffffffffffff1663a9059cbb33836040518363ffffffff1660e01b8152600401808373ffffffffffffffffffffffffffffffffffffffff16815260200182815260200192505050602060405180830381600087803b15801561197457600080fd5b505af1158015611988573d6000803e3d6000fd5b505050506040513d602081101561199e57600080fd5b810190808051906020019092919050505050505050565b6000806119c06124fb565b90503373ffffffffffffffffffffffffffffffffffffffff1681600b0160009054906101000a900473ffffffffffffffffffffffffffffffffffffffff1673ffffffffffffffffffffffffffffffffffffffff1614611a87576040517f08c379a000000000000000000000000000000000000000000000000000000000815260040180806020018281038252601f8152602001807f4f6e6c7920636f6e74726f6c6c65724f776e65722063616e2063616c6c21210081525060200191505060405180910390fd5b6000611a916124fb565b90508381600b0160006101000a81548173ffffffffffffffffffffffffffffffffffffffff021916908373ffffffffffffffffffffffffffffffffffffffff160217905550600192505050919050565b6000611aeb6124fb565b90508060040160003373ffffffffffffffffffffffffffffffffffffffff1673ffffffffffffffffffffffffffffffffffffffff16815260200190815260200160002060009054906101000a900460ff16611bae576040517f08c379a00000000000000000000000000000000000000000000000000000000081526004018080602001828103825260188152602001807f4f6e6c792073747261746567792063616e2063616c6c2121000000000000000081525060200191505060405180910390fd5b6000611bb86124fb565b90508060030160003373ffffffffffffffffffffffffffffffffffffffff1673ffffffffffffffffffffffffffffffffffffffff16815260200190815260200160002060009054906101000a900473ffffffffffffffffffffffffffffffffffffffff1673ffffffffffffffffffffffffffffffffffffffff166323b872dd3330866040518463ffffffff1660e01b8152600401808473ffffffffffffffffffffffffffffffffffffffff1681526020018373ffffffffffffffffffffffffffffffffffffffff1681526020018281526020019350505050602060405180830381600087803b158015611caa57600080fd5b505af1158015611cbe573d6000803e3d6000fd5b505050506040513d6020811015611cd457600080fd5b8101908080519060200190929190505050508060030160003373ffffffffffffffffffffffffffffffffffffffff1673ffffffffffffffffffffffffffffffffffffffff16815260200190815260200160002060009054906101000a900473ffffffffffffffffffffffffffffffffffffffff1673ffffffffffffffffffffffffffffffffffffffff1663095ea7b38260020160003373ffffffffffffffffffffffffffffffffffffffff1673ffffffffffffffffffffffffffffffffffffffff16815260200190815260200160002060009054906101000a900473ffffffffffffffffffffffffffffffffffffffff16856040518363ffffffff1660e01b8152600401808373ffffffffffffffffffffffffffffffffffffffff16815260200182815260200192505050602060405180830381600087803b158015611e1957600080fd5b505af1158015611e2d573d6000803e3d6000fd5b505050506040513d6020811015611e4357600080fd5b8101908080519060200190929190505050508060020160003373ffffffffffffffffffffffffffffffffffffffff1673ffffffffffffffffffffffffffffffffffffffff16815260200190815260200160002060009054906101000a900473ffffffffffffffffffffffffffffffffffffffff1673ffffffffffffffffffffffffffffffffffffffff1663b6b55f25846040518263ffffffff1660e01b815260040180828152602001915050600060405180830381600087803b158015611f0957600080fd5b505af1158015611f1d573d6000803e3d6000fd5b50505050505050565b6000611f306124fb565b905080600f0154831115611fac576040517f08c379a00000000000000000000000000000000000000000000000000000000081526004018080602001828103825260108152602001807f496e73756666696369656e74204352560000000000000000000000000000000081525060200191505060405180910390fd5b611fc38382600f0154612a0790919063ffffffff16565b81600f01819055508060000160019054906101000a900473ffffffffffffffffffffffffffffffffffffffff1673ffffffffffffffffffffffffffffffffffffffff1663095ea7b38260080160009054906101000a900473ffffffffffffffffffffffffffffffffffffffff16856040518363ffffffff1660e01b8152600401808373ffffffffffffffffffffffffffffffffffffffff16815260200182815260200192505050602060405180830381600087803b15801561208457600080fd5b505af1158015612098573d6000803e3d6000fd5b505050506040513d60208110156120ae57600080fd5b8101908080519060200190929190505050508060080160009054906101000a900473ffffffffffffffffffffffffffffffffffffffff1673ffffffffffffffffffffffffffffffffffffffff166365fc387384846040518363ffffffff1660e01b81526004018083815260200182815260200192505050600060405180830381600087803b15801561213f57600080fd5b505af1158015612153573d6000803e3d6000fd5b50505050505050565b60006121666124fb565b905060008160000160019054906101000a900473ffffffffffffffffffffffffffffffffffffffff1673ffffffffffffffffffffffffffffffffffffffff166370a08231306040518263ffffffff1660e01b8152600401808273ffffffffffffffffffffffffffffffffffffffff16815260200191505060206040518083038186803b1580156121f557600080fd5b505afa158015612209573d6000803e3d6000fd5b505050506040513d602081101561221f57600080fd5b810190808051906020019092919050505090508160080160009054906101000a900473ffffffffffffffffffffffffffffffffffffffff1673ffffffffffffffffffffffffffffffffffffffff16633ccfd60b6040518163ffffffff1660e01b8152600401600060405180830381600087803b15801561229e57600080fd5b505af11580156122b2573d6000803e3d6000fd5b5050505060008260000160019054906101000a900473ffffffffffffffffffffffffffffffffffffffff1673ffffffffffffffffffffffffffffffffffffffff166370a08231306040518263ffffffff1660e01b8152600401808273ffffffffffffffffffffffffffffffffffffffff16815260200191505060206040518083038186803b15801561234357600080fd5b505afa158015612357573d6000803e3d6000fd5b505050506040513d602081101561236d57600080fd5b8101908080519060200190929190505050905060008282039050600084600d015485600c015483028161239c57fe5b049050600085600e0154828403816123b057fe5b04905060005b86600e01548160ff1610156124d35781876005016000896006018460ff16815481106123de57fe5b9060005260206000200160009054906101000a900473ffffffffffffffffffffffffffffffffffffffff1673ffffffffffffffffffffffffffffffffffffffff1673ffffffffffffffffffffffffffffffffffffffff1681526020019081526020016000205401876005016000896006018460ff168154811061245d57fe5b9060005260206000200160009054906101000a900473ffffffffffffffffffffffffffffffffffffffff1673ffffffffffffffffffffffffffffffffffffffff1673ffffffffffffffffffffffffffffffffffffffff1681526020019081526020016000208190555080806001019150506123b6565b506124eb8287600f0154612a5190919063ffffffff16565b86600f0181905550505050505050565b6000807f36cd024ab99b7eb43ce06d2c7a20fd55d745b01b3ab37b4f7429b2a08705e3a490508091505090565b60006125326124fb565b90508060000160019054906101000a900473ffffffffffffffffffffffffffffffffffffffff1673ffffffffffffffffffffffffffffffffffffffff1663095ea7b382600a0160009054906101000a900473ffffffffffffffffffffffffffffffffffffffff16846040518363ffffffff1660e01b8152600401808373ffffffffffffffffffffffffffffffffffffffff16815260200182815260200192505050602060405180830381600087803b1580156125ed57600080fd5b505af1158015612601573d6000803e3d6000fd5b505050506040513d602081101561261757600080fd5b8101908080519060200190929190505050506000600367ffffffffffffffff8111801561264357600080fd5b506040519080825280602002602001820160405280156126725781602001602082028036833780820191505090505b5090508160000160019054906101000a900473ffffffffffffffffffffffffffffffffffffffff16816000815181106126a757fe5b602002602001019073ffffffffffffffffffffffffffffffffffffffff16908173ffffffffffffffffffffffffffffffffffffffff168152505081600a0160009054906101000a900473ffffffffffffffffffffffffffffffffffffffff1673ffffffffffffffffffffffffffffffffffffffff1663ad5c46486040518163ffffffff1660e01b815260040160206040518083038186803b15801561274b57600080fd5b505afa15801561275f573d6000803e3d6000fd5b505050506040513d602081101561277557600080fd5b81019080805190602001909291905050508160018151811061279357fe5b602002602001019073ffffffffffffffffffffffffffffffffffffffff16908173ffffffffffffffffffffffffffffffffffffffff16815250508160000160019054906101000a900473ffffffffffffffffffffffffffffffffffffffff16816002815181106127ff57fe5b602002602001019073ffffffffffffffffffffffffffffffffffffffff16908173ffffffffffffffffffffffffffffffffffffffff168152505081600a0160009054906101000a900473ffffffffffffffffffffffffffffffffffffffff1673ffffffffffffffffffffffffffffffffffffffff166338ed1739846000843061070842016040518663ffffffff1660e01b815260040180868152602001858152602001806020018473ffffffffffffffffffffffffffffffffffffffff168152602001838152602001828103825285818151815260200191508051906020019060200280838360005b838110156129035780820151818401526020810190506128e8565b505050509050019650505050505050600060405180830381600087803b15801561292c57600080fd5b505af1158015612940573d6000803e3d6000fd5b505050506040513d6000823e3d601f19601f82011682018060405250602081101561296a57600080fd5b810190808051604051939291908464010000000082111561298a57600080fd5b838201915060208201858111156129a057600080fd5b82518660208202830111640100000000821117156129bd57600080fd5b8083526020830192505050908051906020019060200280838360005b838110156129f45780820151818401526020810190506129d9565b5050505090500160405250505050505050565b6000612a4983836040518060400160405280601f81526020017f536166654d6174683a207375627472616374696f6e20756e646572666c6f7700815250612ad9565b905092915050565b600080828401905083811015612acf576040517f08c379a000000000000000000000000000000000000000000000000000000000815260040180806020018281038252601b8152602001807f536166654d6174683a206164646974696f6e206f766572666c6f77000000000081525060200191505060405180910390fd5b8091505092915050565b6000838311158290612b86576040517f08c379a00000000000000000000000000000000000000000000000000000000081526004018080602001828103825283818151815260200191508051906020019080838360005b83811015612b4b578082015181840152602081019050612b30565b50505050905090810190601f168015612b785780820380516001836020036101000a031916815260200191505b509250505060405180910390fd5b5060008385039050809150509392505050565b828054828255906000526020600020908101928215612c12579160200282015b82811115612c115782518260006101000a81548173ffffffffffffffffffffffffffffffffffffffff021916908373ffffffffffffffffffffffffffffffffffffffff16021790555091602001919060010190612bb9565b5b509050612c1f9190612c23565b5090565b5b80821115612c3c576000816000905550600101612c24565b509056fea2646970667358221220d014ed04944f16127f35c91382710e7437569a7e8bd3574a8a38203303a8d76464736f6c63430007060033",
  "immutableReferences": {},
  "source": "// SPDX-License-Identifier: UNLICENSED\r\npragma solidity ^0.7.6;\r\nimport \"../storage/ControllerStorage.sol\";\r\nimport \"../libraries/SafeMath.sol\";\r\n\r\ncontract Controller is ControllerStorageV1 {\r\n    \r\n    using SafeMath for uint256;\r\n    \r\n  \r\n/****MODIFIERS****/\r\n    modifier onlyPoolOnwer(){\r\n        ControllerStorage storage cs = controllerStorage();\r\n        require(cs.controllerOwner == msg.sender, \"Only controllerOwner can call!!\");\r\n        _;\r\n    }\r\n\r\n    modifier onlyStrategy(){\r\n        ControllerStorage storage cs = controllerStorage();\r\n        require(cs.isStratgey[msg.sender], \"Only strategy can call!!\");\r\n        _;\r\n    }\r\n    \r\n/****CONSTRUCTOR****/\r\n    function initialize(\r\n        address[] memory _depositStrategies,\r\n        Gauge[] memory _gauges, \r\n        Minter _minter, \r\n        IERC20 _crvToken, \r\n        IERC20[] memory _strategyLPToken,\r\n        VotingEscrow _votingEscrow,\r\n        FeeDistributor _feeDistributor,\r\n        UniswapV2Router _uniswapRouter,\r\n        address _controllerOwner,\r\n        uint256 _crvLockPercent,\r\n        IERC20 _adminFeeToken\r\n    ) public{\r\n        ControllerStorage storage cs = controllerStorage();\r\n        cs.depositStrategies = _depositStrategies;\r\n        require(!cs.initialized, 'Already initialized');\r\n        for(uint256 i = 0; i < _depositStrategies.length; i++){\r\n            cs.strategyGauges[cs.depositStrategies[i]] = _gauges[i];\r\n            cs.strategyLPTokens[cs.depositStrategies[i]] = _strategyLPToken[i];\r\n            cs.isStratgey[_depositStrategies[i]] = true;\r\n        }\r\n        cs.minter = _minter;\r\n        cs.crvToken = _crvToken;\r\n        cs.votingEscrow = _votingEscrow;\r\n        cs.feeDistributor = _feeDistributor;\r\n        cs.uniswapRouter = _uniswapRouter; \r\n        cs.controllerOwner = _controllerOwner;\r\n        cs.crvLockPercent = _crvLockPercent;\r\n        cs.DENOMINATOR = 10000;\r\n        cs.initialized = true;\r\n        cs.adminFeeToken = _adminFeeToken;\r\n        cs.totalStrategies = _depositStrategies.length;\r\n    }\r\n\r\n/****controllerOwner FUNCTIONS****/\r\n\r\n    function updateOwner(address newOwner) external onlyPoolOnwer() returns(bool){\r\n        ControllerStorage storage cs = controllerStorage();\r\n        cs.controllerOwner = newOwner;\r\n        return true;\r\n    } \r\n    \r\n    function stake(uint256 amount) external onlyStrategy(){\r\n        ControllerStorage storage cs = controllerStorage();\r\n        cs.strategyLPTokens[msg.sender].transferFrom(msg.sender,address(this), amount);\r\n        cs.strategyLPTokens[msg.sender].approve(address(cs.strategyGauges[msg.sender]), amount);\r\n        cs.strategyGauges[msg.sender].deposit(amount);  \r\n    }\r\n    \r\n    function unStake() external onlyStrategy(){\r\n        ControllerStorage storage cs = controllerStorage();\r\n        uint256 unstakedAmount = cs.strategyGauges[msg.sender].balanceOf(address(this));\r\n        cs.strategyGauges[msg.sender].withdraw(unstakedAmount);\r\n        cs.strategyLPTokens[msg.sender].transfer(msg.sender, unstakedAmount);\r\n    }\r\n\r\n/****OPEN FUNCTIONS****/\r\n \r\n    function claimCRV() external onlyStrategy() returns(uint256){\r\n        ControllerStorage storage cs = controllerStorage();\r\n        uint256 oldBalance = cs.crvToken.balanceOf(address(this));\r\n        Minter(cs.minter).mint(address(address(cs.strategyGauges[msg.sender])));\r\n        uint256 newBalance = cs.crvToken.balanceOf(address(this));\r\n        uint256 crvReceived = newBalance - oldBalance;\r\n        uint256 crvToLock = crvReceived * cs.crvLockPercent / cs.DENOMINATOR;\r\n        cs.availableCRVToLock = cs.availableCRVToLock + crvToLock;\r\n        uint256 crvToSend = cs.availableCRV[msg.sender] + crvReceived - crvToLock;\r\n        cs.availableCRV[msg.sender] = 0;\r\n        cs.crvToken.transfer(msg.sender, crvToSend);\r\n        return crvReceived - crvToLock;\r\n    }\r\n\r\n    function createLock(uint256 _value, uint256 _unlockTime) external{\r\n        ControllerStorage storage cs = controllerStorage();\r\n        require(_value <= cs.availableCRVToLock, 'Insufficient CRV' );\r\n        cs.availableCRVToLock = cs.availableCRVToLock.sub(_value);\r\n        cs.crvToken.approve(address(cs.votingEscrow), _value);\r\n        VotingEscrow(cs.votingEscrow).create_lock(_value, _unlockTime);\r\n    } \r\n    \r\n    function releaseLock() external{\r\n        ControllerStorage storage cs = controllerStorage();\r\n        uint256 oldBalance = cs.crvToken.balanceOf(address(this));\r\n        VotingEscrow(cs.votingEscrow).withdraw();  \r\n        uint256 newBalance = cs.crvToken.balanceOf(address(this));\r\n        uint256 crvReceived = newBalance - oldBalance;\r\n        uint256 crvToLock = crvReceived * cs.crvLockPercent / cs.DENOMINATOR;\r\n        uint256 crvPerStrategy = (crvReceived - crvToLock)/cs.totalStrategies;\r\n        for(uint8 i = 0 ; i < cs.totalStrategies; i++){\r\n            cs.availableCRV[cs.depositStrategies[i]] = cs.availableCRV[cs.depositStrategies[i]] + crvPerStrategy;\r\n        }\r\n        cs.availableCRVToLock = cs.availableCRVToLock.add(crvToLock);\r\n    }\r\n    \r\n    function increaseLockAmount(uint256 _value) external {\r\n        ControllerStorage storage cs = controllerStorage();\r\n        require(_value <= cs.availableCRVToLock, 'Insufficient CRV' );\r\n        cs.availableCRVToLock = cs.availableCRVToLock.sub(_value);\r\n        cs.crvToken.approve(address(cs.votingEscrow), _value);\r\n        VotingEscrow(cs.votingEscrow).increase_amount(_value);\r\n    }\r\n\r\n    function convertToCRV(uint256 amount) internal {\r\n        ControllerStorage storage cs = controllerStorage();\r\n        cs.crvToken.approve(address(cs.uniswapRouter), amount);\r\n        address[] memory path = new address[](3);\r\n        path[0] = address(cs.crvToken);\r\n        path[1] = cs.uniswapRouter.WETH();\r\n        path[2] = address(cs.crvToken);\r\n        \r\n        cs.uniswapRouter.swapExactTokensForTokens(\r\n            amount, \r\n            uint256(0), \r\n            path, \r\n            address(this), \r\n            block.timestamp + 1800\r\n        );\r\n    }\r\n   \r\n    function claimAndDistributeAdminFees() external returns(uint256){\r\n        ControllerStorage storage cs = controllerStorage();\r\n        uint256 oldBalance = cs.adminFeeToken.balanceOf(address(this));\r\n        FeeDistributor(cs.feeDistributor).claim();\r\n        uint256 newBalance = cs.adminFeeToken.balanceOf(address(this));\r\n        uint256 adminFeeReceived = newBalance - oldBalance;\r\n        oldBalance = cs.crvToken.balanceOf(address(this));\r\n        convertToCRV(adminFeeReceived);\r\n        newBalance = cs.crvToken.balanceOf(address(this));\r\n        uint256 crvReceived = newBalance - oldBalance;\r\n        uint256 unlockedCRV = crvReceived - crvReceived * cs.crvLockPercent / cs.DENOMINATOR;\r\n        uint256 crvPerStrategy = unlockedCRV/cs.totalStrategies;\r\n        for(uint256 i = 0 ; i < cs.totalStrategies; i++){\r\n            cs.availableCRV[cs.depositStrategies[i]] = cs.availableCRV[cs.depositStrategies[i]] + crvPerStrategy;\r\n        }\r\n        cs.availableCRVToLock = cs.availableCRVToLock + crvReceived - unlockedCRV;\r\n        return crvReceived;\r\n    }\r\n\r\n}",
  "sourcePath": "E:/New Desktop/Projects/AdvancedPool/Controller/contracts/facets/Controller.sol",
  "compiler": {
    "name": "solc",
    "version": "0.7.6+commit.7338295f.Emscripten.clang"
  },
  "schemaVersion": "3.3.2",
  "updatedAt": "2021-04-20T09:10:44.592Z",
  "devdoc": {
    "kind": "dev",
    "methods": {},
    "version": 1
  },
  "userdoc": {
    "kind": "user",
    "methods": {},
    "version": 1
  }
}