{
  "contractName": "Controller",
  "abi": [
    {
      "stateMutability": "payable",
      "type": "receive",
      "payable": true
    },
    {
      "inputs": [
        {
          "internalType": "address[]",
          "name": "_depositStrategies",
          "type": "address[]"
        },
        {
          "internalType": "address[]",
          "name": "_pools",
          "type": "address[]"
        },
        {
          "internalType": "contract Gauge[]",
          "name": "_gauges",
          "type": "address[]"
        },
        {
          "internalType": "contract IERC20[]",
          "name": "_strategyLPToken",
          "type": "address[]"
        },
        {
          "internalType": "contract Minter",
          "name": "_minter",
          "type": "address"
        },
        {
          "internalType": "contract IERC20",
          "name": "_crvToken",
          "type": "address"
        },
        {
          "internalType": "contract VotingEscrow",
          "name": "_votingEscrow",
          "type": "address"
        },
        {
          "internalType": "contract FeeDistributor",
          "name": "_feeDistributor",
          "type": "address"
        },
        {
          "internalType": "contract UniswapV2Router",
          "name": "_uniswapRouter",
          "type": "address"
        },
        {
          "internalType": "address",
          "name": "_controllerOwner",
          "type": "address"
        },
        {
          "internalType": "uint256",
          "name": "_crvLockPercent",
          "type": "uint256"
        },
        {
          "internalType": "contract IERC20",
          "name": "_adminFeeToken",
          "type": "address"
        }
      ],
      "name": "initialize",
      "outputs": [],
      "stateMutability": "nonpayable",
      "type": "function"
    },
    {
      "inputs": [
        {
          "internalType": "address",
          "name": "newOwner",
          "type": "address"
        }
      ],
      "name": "updateOwner",
      "outputs": [
        {
          "internalType": "bool",
          "name": "",
          "type": "bool"
        }
      ],
      "stateMutability": "nonpayable",
      "type": "function"
    },
    {
      "inputs": [
        {
          "internalType": "address",
          "name": "_strategy",
          "type": "address"
        },
        {
          "internalType": "contract Gauge",
          "name": "_gauge",
          "type": "address"
        },
        {
          "internalType": "contract IERC20",
          "name": "_strategyLPToken",
          "type": "address"
        }
      ],
      "name": "addNewStrategy",
      "outputs": [
        {
          "internalType": "bool",
          "name": "",
          "type": "bool"
        }
      ],
      "stateMutability": "nonpayable",
      "type": "function"
    },
    {
      "inputs": [
        {
          "internalType": "contract IERC20",
          "name": "_adminFeeToken",
          "type": "address"
        }
      ],
      "name": "updateAdminFeeToken",
      "outputs": [
        {
          "internalType": "bool",
          "name": "",
          "type": "bool"
        }
      ],
      "stateMutability": "nonpayable",
      "type": "function"
    },
    {
      "inputs": [
        {
          "internalType": "uint256",
          "name": "_value",
          "type": "uint256"
        },
        {
          "internalType": "uint256",
          "name": "_unlockTime",
          "type": "uint256"
        }
      ],
      "name": "createLock",
      "outputs": [],
      "stateMutability": "nonpayable",
      "type": "function"
    },
    {
      "inputs": [],
      "name": "releaseLock",
      "outputs": [],
      "stateMutability": "nonpayable",
      "type": "function"
    },
    {
      "inputs": [
        {
          "internalType": "uint256",
          "name": "_value",
          "type": "uint256"
        }
      ],
      "name": "increaseLockAmount",
      "outputs": [],
      "stateMutability": "nonpayable",
      "type": "function"
    },
    {
      "inputs": [
        {
          "internalType": "uint256",
          "name": "_value",
          "type": "uint256"
        }
      ],
      "name": "increaseUnlockTime",
      "outputs": [],
      "stateMutability": "nonpayable",
      "type": "function"
    },
    {
      "inputs": [],
      "name": "claimAndConvertAdminFees",
      "outputs": [
        {
          "internalType": "uint256",
          "name": "",
          "type": "uint256"
        }
      ],
      "stateMutability": "nonpayable",
      "type": "function"
    },
    {
      "inputs": [
        {
          "internalType": "uint256",
          "name": "_newPercent",
          "type": "uint256"
        }
      ],
      "name": "updateLockPercentage",
      "outputs": [
        {
          "internalType": "bool",
          "name": "",
          "type": "bool"
        }
      ],
      "stateMutability": "nonpayable",
      "type": "function"
    },
    {
      "inputs": [
        {
          "internalType": "uint256",
          "name": "amount",
          "type": "uint256"
        }
      ],
      "name": "stake",
      "outputs": [],
      "stateMutability": "nonpayable",
      "type": "function"
    },
    {
      "inputs": [],
      "name": "unstake",
      "outputs": [
        {
          "internalType": "uint256",
          "name": "",
          "type": "uint256"
        }
      ],
      "stateMutability": "nonpayable",
      "type": "function"
    },
    {
      "inputs": [],
      "name": "claimCRV",
      "outputs": [
        {
          "internalType": "uint256",
          "name": "",
          "type": "uint256"
        }
      ],
      "stateMutability": "nonpayable",
      "type": "function"
    },
    {
      "inputs": [
        {
          "internalType": "uint256",
          "name": "_gasUsed",
          "type": "uint256"
        }
      ],
      "name": "updateGasUsed",
      "outputs": [],
      "stateMutability": "nonpayable",
      "type": "function"
    },
    {
      "inputs": [],
      "name": "claimGasFee",
      "outputs": [],
      "stateMutability": "nonpayable",
      "type": "function"
    },
    {
      "inputs": [],
      "name": "defaultGas",
      "outputs": [
        {
          "internalType": "uint256",
          "name": "",
          "type": "uint256"
        }
      ],
      "stateMutability": "view",
      "type": "function",
      "constant": true
    },
    {
      "inputs": [],
      "name": "availableCRVToLock",
      "outputs": [
        {
          "internalType": "uint256",
          "name": "",
          "type": "uint256"
        }
      ],
      "stateMutability": "view",
      "type": "function",
      "constant": true
    },
    {
      "inputs": [
        {
          "internalType": "address",
          "name": "account",
          "type": "address"
        }
      ],
      "name": "gasUsed",
      "outputs": [
        {
          "internalType": "uint256",
          "name": "",
          "type": "uint256"
        }
      ],
      "stateMutability": "view",
      "type": "function",
      "constant": true
    }
  ],
  "bytecode": "0x608060405234801561001057600080fd5b506149e5806100206000396000f3fe60806040526004361061010d5760003560e01c8063880cdc3111610095578063b52c05fe11610064578063b52c05fe1461055e578063d18c895b146105a3578063d748ae421461090f578063d759ec201461093a578063eda54ad214610965576101aa565b8063880cdc31146103c45780639f7547aa1461042b578063a694fc3a146104d2578063b07c93a51461050d576101aa565b80634959ce17116100dc5780634959ce17146102575780634bed5e18146102bc57806357cfd501146103235780637c616fe61461035e57806384e9a90114610399576101aa565b80632def6620146101af5780632e30e85b146101da578063403f4447146101f157806348f8f6d91461022c576101aa565b366101aa57600061011c61097c565b9050348160120160003373ffffffffffffffffffffffffffffffffffffffff1673ffffffffffffffffffffffffffffffffffffffff16815260200190815260200160002054018160120160003373ffffffffffffffffffffffffffffffffffffffff1673ffffffffffffffffffffffffffffffffffffffff1681526020019081526020016000208190555050005b600080fd5b3480156101bb57600080fd5b506101c46109a9565b6040518082815260200191505060405180910390f35b3480156101e657600080fd5b506101ef610d6d565b005b3480156101fd57600080fd5b5061022a6004803603602081101561021457600080fd5b8101908080359060200190929190505050610fae565b005b34801561023857600080fd5b50610241611419565b6040518082815260200191505060405180910390f35b34801561026357600080fd5b506102a66004803603602081101561027a57600080fd5b81019080803573ffffffffffffffffffffffffffffffffffffffff1690602001909291905050506118a2565b6040518082815260200191505060405180910390f35b3480156102c857600080fd5b5061030b600480360360208110156102df57600080fd5b81019080803573ffffffffffffffffffffffffffffffffffffffff1690602001909291905050506118f9565b60405180821515815260200191505060405180910390f35b34801561032f57600080fd5b5061035c6004803603602081101561034657600080fd5b8101908080359060200190929190505050611b91565b005b34801561036a57600080fd5b506103976004803603602081101561038157600080fd5b8101908080359060200190929190505050611d4e565b005b3480156103a557600080fd5b506103ae61202b565b6040518082815260200191505060405180910390f35b3480156103d057600080fd5b50610413600480360360208110156103e757600080fd5b81019080803573ffffffffffffffffffffffffffffffffffffffff169060200190929190505050612043565b60405180821515815260200191505060405180910390f35b34801561043757600080fd5b506104ba6004803603606081101561044e57600080fd5b81019080803573ffffffffffffffffffffffffffffffffffffffff169060200190929190803573ffffffffffffffffffffffffffffffffffffffff169060200190929190803573ffffffffffffffffffffffffffffffffffffffff1690602001909291905050506122db565b60405180821515815260200191505060405180910390f35b3480156104de57600080fd5b5061050b600480360360208110156104f557600080fd5b81019080803590602001909291905050506126f1565b005b34801561051957600080fd5b506105466004803603602081101561053057600080fd5b8101908080359060200190929190505050612b36565b60405180821515815260200191505060405180910390f35b34801561056a57600080fd5b506105a16004803603604081101561058157600080fd5b810190808035906020019092919080359060200190929190505050612d94565b005b3480156105af57600080fd5b5061090d60048036036101808110156105c757600080fd5b81019080803590602001906401000000008111156105e457600080fd5b8201836020820111156105f657600080fd5b8035906020019184602083028401116401000000008311171561061857600080fd5b919080806020026020016040519081016040528093929190818152602001838360200280828437600081840152601f19601f8201169050808301925050505050505091929192908035906020019064010000000081111561067857600080fd5b82018360208201111561068a57600080fd5b803590602001918460208302840111640100000000831117156106ac57600080fd5b919080806020026020016040519081016040528093929190818152602001838360200280828437600081840152601f19601f8201169050808301925050505050505091929192908035906020019064010000000081111561070c57600080fd5b82018360208201111561071e57600080fd5b8035906020019184602083028401116401000000008311171561074057600080fd5b919080806020026020016040519081016040528093929190818152602001838360200280828437600081840152601f19601f820116905080830192505050505050509192919290803590602001906401000000008111156107a057600080fd5b8201836020820111156107b257600080fd5b803590602001918460208302840111640100000000831117156107d457600080fd5b919080806020026020016040519081016040528093929190818152602001838360200280828437600081840152601f19601f820116905080830192505050505050509192919290803573ffffffffffffffffffffffffffffffffffffffff169060200190929190803573ffffffffffffffffffffffffffffffffffffffff169060200190929190803573ffffffffffffffffffffffffffffffffffffffff169060200190929190803573ffffffffffffffffffffffffffffffffffffffff169060200190929190803573ffffffffffffffffffffffffffffffffffffffff169060200190929190803573ffffffffffffffffffffffffffffffffffffffff16906020019092919080359060200190929190803573ffffffffffffffffffffffffffffffffffffffff169060200190929190505050613208565b005b34801561091b57600080fd5b50610924613704565b6040518082815260200191505060405180910390f35b34801561094657600080fd5b5061094f61371c565b6040518082815260200191505060405180910390f35b34801561097157600080fd5b5061097a613d40565b005b6000807f36cd024ab99b7eb43ce06d2c7a20fd55d745b01b3ab37b4f7429b2a08705e3a490508091505090565b6000806109b461097c565b90508060040160003373ffffffffffffffffffffffffffffffffffffffff1673ffffffffffffffffffffffffffffffffffffffff16815260200190815260200160002060009054906101000a900460ff16610a77576040517f08c379a00000000000000000000000000000000000000000000000000000000081526004018080602001828103825260188152602001807f4f6e6c792073747261746567792063616e2063616c6c2121000000000000000081525060200191505060405180910390fd5b6000610a8161097c565b905060008160020160003373ffffffffffffffffffffffffffffffffffffffff1673ffffffffffffffffffffffffffffffffffffffff16815260200190815260200160002060009054906101000a900473ffffffffffffffffffffffffffffffffffffffff1673ffffffffffffffffffffffffffffffffffffffff166370a08231306040518263ffffffff1660e01b8152600401808273ffffffffffffffffffffffffffffffffffffffff16815260200191505060206040518083038186803b158015610b4d57600080fd5b505afa158015610b61573d6000803e3d6000fd5b505050506040513d6020811015610b7757600080fd5b810190808051906020019092919050505090508160020160003373ffffffffffffffffffffffffffffffffffffffff1673ffffffffffffffffffffffffffffffffffffffff16815260200190815260200160002060009054906101000a900473ffffffffffffffffffffffffffffffffffffffff1673ffffffffffffffffffffffffffffffffffffffff16632e1a7d4d826040518263ffffffff1660e01b815260040180828152602001915050600060405180830381600087803b158015610c3e57600080fd5b505af1158015610c52573d6000803e3d6000fd5b505050508160030160003373ffffffffffffffffffffffffffffffffffffffff1673ffffffffffffffffffffffffffffffffffffffff16815260200190815260200160002060009054906101000a900473ffffffffffffffffffffffffffffffffffffffff1673ffffffffffffffffffffffffffffffffffffffff1663a9059cbb33836040518363ffffffff1660e01b8152600401808373ffffffffffffffffffffffffffffffffffffffff16815260200182815260200192505050602060405180830381600087803b158015610d2857600080fd5b505af1158015610d3c573d6000803e3d6000fd5b505050506040513d6020811015610d5257600080fd5b81019080805190602001909291905050505080935050505090565b6000610d7761097c565b90506000610da43a610d9684601001545a6141ce90919063ffffffff16565b61425690919063ffffffff16565b905060008260110160003373ffffffffffffffffffffffffffffffffffffffff1673ffffffffffffffffffffffffffffffffffffffff16815260200190815260200160002054905060008111610e62576040517f08c379a00000000000000000000000000000000000000000000000000000000081526004018080602001828103825260108152602001807f4e6f7468696e6720746f20636c61696d0000000000000000000000000000000081525060200191505060405180910390fd5b80471015610ebb576040517f08c379a000000000000000000000000000000000000000000000000000000000815260040180806020018281038252602281526020018061498e6022913960400191505060405180910390fd5b60008360110160003373ffffffffffffffffffffffffffffffffffffffff1673ffffffffffffffffffffffffffffffffffffffff168152602001908152602001600020819055503373ffffffffffffffffffffffffffffffffffffffff166108fc829081150290604051600060405180830381858888f19350505050158015610f48573d6000803e3d6000fd5b506000610f5e3a5a61425690919063ffffffff16565b90508083038460110160003373ffffffffffffffffffffffffffffffffffffffff1673ffffffffffffffffffffffffffffffffffffffff1681526020019081526020016000208190555050505050565b6000610fb861097c565b90503373ffffffffffffffffffffffffffffffffffffffff1681600b0160009054906101000a900473ffffffffffffffffffffffffffffffffffffffff1673ffffffffffffffffffffffffffffffffffffffff161461107f576040517f08c379a000000000000000000000000000000000000000000000000000000000815260040180806020018281038252601f8152602001807f4f6e6c7920636f6e74726f6c6c65724f776e65722063616e2063616c6c21210081525060200191505060405180910390fd5b600061108961097c565b90506111076110b73a6110a984601001545a6141ce90919063ffffffff16565b61425690919063ffffffff16565b8260110160003373ffffffffffffffffffffffffffffffffffffffff1673ffffffffffffffffffffffffffffffffffffffff168152602001908152602001600020546141ce90919063ffffffff16565b8160110160003373ffffffffffffffffffffffffffffffffffffffff1673ffffffffffffffffffffffffffffffffffffffff1681526020019081526020016000208190555080600f01548311156111c6576040517f08c379a00000000000000000000000000000000000000000000000000000000081526004018080602001828103825260108152602001807f496e73756666696369656e74204352560000000000000000000000000000000081525060200191505060405180910390fd5b6111dd8382600f01546142dc90919063ffffffff16565b81600f01819055508060000160019054906101000a900473ffffffffffffffffffffffffffffffffffffffff1673ffffffffffffffffffffffffffffffffffffffff1663095ea7b38260080160009054906101000a900473ffffffffffffffffffffffffffffffffffffffff16856040518363ffffffff1660e01b8152600401808373ffffffffffffffffffffffffffffffffffffffff16815260200182815260200192505050602060405180830381600087803b15801561129e57600080fd5b505af11580156112b2573d6000803e3d6000fd5b505050506040513d60208110156112c857600080fd5b8101908080519060200190929190505050508060080160009054906101000a900473ffffffffffffffffffffffffffffffffffffffff1673ffffffffffffffffffffffffffffffffffffffff16634957677c846040518263ffffffff1660e01b815260040180828152602001915050600060405180830381600087803b15801561135157600080fd5b505af1158015611365573d6000803e3d6000fd5b505050506113cf61137f3a5a61425690919063ffffffff16565b8260110160003373ffffffffffffffffffffffffffffffffffffffff1673ffffffffffffffffffffffffffffffffffffffff168152602001908152602001600020546142dc90919063ffffffff16565b8160110160003373ffffffffffffffffffffffffffffffffffffffff1673ffffffffffffffffffffffffffffffffffffffff16815260200190815260200160002081905550505050565b60008061142461097c565b90508060040160003373ffffffffffffffffffffffffffffffffffffffff1673ffffffffffffffffffffffffffffffffffffffff16815260200190815260200160002060009054906101000a900460ff166114e7576040517f08c379a00000000000000000000000000000000000000000000000000000000081526004018080602001828103825260188152602001807f4f6e6c792073747261746567792063616e2063616c6c2121000000000000000081525060200191505060405180910390fd5b60006114f161097c565b905060008160000160019054906101000a900473ffffffffffffffffffffffffffffffffffffffff1673ffffffffffffffffffffffffffffffffffffffff166370a08231306040518263ffffffff1660e01b8152600401808273ffffffffffffffffffffffffffffffffffffffff16815260200191505060206040518083038186803b15801561158057600080fd5b505afa158015611594573d6000803e3d6000fd5b505050506040513d60208110156115aa57600080fd5b810190808051906020019092919050505090508160070160009054906101000a900473ffffffffffffffffffffffffffffffffffffffff1673ffffffffffffffffffffffffffffffffffffffff16636a6278428360020160003373ffffffffffffffffffffffffffffffffffffffff1673ffffffffffffffffffffffffffffffffffffffff16815260200190815260200160002060009054906101000a900473ffffffffffffffffffffffffffffffffffffffff166040518263ffffffff1660e01b8152600401808273ffffffffffffffffffffffffffffffffffffffff168152602001915050600060405180830381600087803b1580156116ab57600080fd5b505af11580156116bf573d6000803e3d6000fd5b5050505060008260000160019054906101000a900473ffffffffffffffffffffffffffffffffffffffff1673ffffffffffffffffffffffffffffffffffffffff166370a08231306040518263ffffffff1660e01b8152600401808273ffffffffffffffffffffffffffffffffffffffff16815260200191505060206040518083038186803b15801561175057600080fd5b505afa158015611764573d6000803e3d6000fd5b505050506040513d602081101561177a57600080fd5b8101908080519060200190929190505050905060008282039050600084600d015485600c01548302816117a957fe5b0490508085600f01540185600f0181905550600081830390508560000160019054906101000a900473ffffffffffffffffffffffffffffffffffffffff1673ffffffffffffffffffffffffffffffffffffffff1663a9059cbb33836040518363ffffffff1660e01b8152600401808373ffffffffffffffffffffffffffffffffffffffff16815260200182815260200192505050602060405180830381600087803b15801561185757600080fd5b505af115801561186b573d6000803e3d6000fd5b505050506040513d602081101561188157600080fd5b81019080805190602001909291905050505081830397505050505050505090565b6000806118ad61097c565b90508060110160008473ffffffffffffffffffffffffffffffffffffffff1673ffffffffffffffffffffffffffffffffffffffff16815260200190815260200160002054915050919050565b60008061190461097c565b90503373ffffffffffffffffffffffffffffffffffffffff1681600b0160009054906101000a900473ffffffffffffffffffffffffffffffffffffffff1673ffffffffffffffffffffffffffffffffffffffff16146119cb576040517f08c379a000000000000000000000000000000000000000000000000000000000815260040180806020018281038252601f8152602001807f4f6e6c7920636f6e74726f6c6c65724f776e65722063616e2063616c6c21210081525060200191505060405180910390fd5b60006119d561097c565b9050611a53611a033a6119f584601001545a6141ce90919063ffffffff16565b61425690919063ffffffff16565b8260110160003373ffffffffffffffffffffffffffffffffffffffff1673ffffffffffffffffffffffffffffffffffffffff168152602001908152602001600020546141ce90919063ffffffff16565b8160110160003373ffffffffffffffffffffffffffffffffffffffff1673ffffffffffffffffffffffffffffffffffffffff16815260200190815260200160002081905550838160010160006101000a81548173ffffffffffffffffffffffffffffffffffffffff021916908373ffffffffffffffffffffffffffffffffffffffff160217905550611b41611af13a5a61425690919063ffffffff16565b8260110160003373ffffffffffffffffffffffffffffffffffffffff1673ffffffffffffffffffffffffffffffffffffffff168152602001908152602001600020546142dc90919063ffffffff16565b8160110160003373ffffffffffffffffffffffffffffffffffffffff1673ffffffffffffffffffffffffffffffffffffffff16815260200190815260200160002081905550600192505050919050565b6000611b9b61097c565b90508060040160003373ffffffffffffffffffffffffffffffffffffffff1673ffffffffffffffffffffffffffffffffffffffff16815260200190815260200160002060009054906101000a900460ff1680611c4257508060130160003373ffffffffffffffffffffffffffffffffffffffff1673ffffffffffffffffffffffffffffffffffffffff16815260200190815260200160002060009054906101000a900460ff165b611cb4576040517f08c379a00000000000000000000000000000000000000000000000000000000081526004018080602001828103825260208152602001807f4f6e6c79207374726174656779206f7220706f6f6c2063616e2063616c6c212181525060200191505060405180910390fd5b6000611cbe61097c565b9050828160110160003373ffffffffffffffffffffffffffffffffffffffff1673ffffffffffffffffffffffffffffffffffffffff16815260200190815260200160002054018160110160003373ffffffffffffffffffffffffffffffffffffffff1673ffffffffffffffffffffffffffffffffffffffff16815260200190815260200160002081905550505050565b6000611d5861097c565b90503373ffffffffffffffffffffffffffffffffffffffff1681600b0160009054906101000a900473ffffffffffffffffffffffffffffffffffffffff1673ffffffffffffffffffffffffffffffffffffffff1614611e1f576040517f08c379a000000000000000000000000000000000000000000000000000000000815260040180806020018281038252601f8152602001807f4f6e6c7920636f6e74726f6c6c65724f776e65722063616e2063616c6c21210081525060200191505060405180910390fd5b6000611e2961097c565b9050611ea7611e573a611e4984601001545a6141ce90919063ffffffff16565b61425690919063ffffffff16565b8260110160003373ffffffffffffffffffffffffffffffffffffffff1673ffffffffffffffffffffffffffffffffffffffff168152602001908152602001600020546141ce90919063ffffffff16565b8160110160003373ffffffffffffffffffffffffffffffffffffffff1673ffffffffffffffffffffffffffffffffffffffff168152602001908152602001600020819055508060080160009054906101000a900473ffffffffffffffffffffffffffffffffffffffff1673ffffffffffffffffffffffffffffffffffffffff1663eff7a612846040518263ffffffff1660e01b815260040180828152602001915050600060405180830381600087803b158015611f6357600080fd5b505af1158015611f77573d6000803e3d6000fd5b50505050611fe1611f913a5a61425690919063ffffffff16565b8260110160003373ffffffffffffffffffffffffffffffffffffffff1673ffffffffffffffffffffffffffffffffffffffff168152602001908152602001600020546142dc90919063ffffffff16565b8160110160003373ffffffffffffffffffffffffffffffffffffffff1673ffffffffffffffffffffffffffffffffffffffff16815260200190815260200160002081905550505050565b60008061203661097c565b9050806010015491505090565b60008061204e61097c565b90503373ffffffffffffffffffffffffffffffffffffffff1681600b0160009054906101000a900473ffffffffffffffffffffffffffffffffffffffff1673ffffffffffffffffffffffffffffffffffffffff1614612115576040517f08c379a000000000000000000000000000000000000000000000000000000000815260040180806020018281038252601f8152602001807f4f6e6c7920636f6e74726f6c6c65724f776e65722063616e2063616c6c21210081525060200191505060405180910390fd5b600061211f61097c565b905061219d61214d3a61213f84601001545a6141ce90919063ffffffff16565b61425690919063ffffffff16565b8260110160003373ffffffffffffffffffffffffffffffffffffffff1673ffffffffffffffffffffffffffffffffffffffff168152602001908152602001600020546141ce90919063ffffffff16565b8160110160003373ffffffffffffffffffffffffffffffffffffffff1673ffffffffffffffffffffffffffffffffffffffff168152602001908152602001600020819055508381600b0160006101000a81548173ffffffffffffffffffffffffffffffffffffffff021916908373ffffffffffffffffffffffffffffffffffffffff16021790555061228b61223b3a5a61425690919063ffffffff16565b8260110160003373ffffffffffffffffffffffffffffffffffffffff1673ffffffffffffffffffffffffffffffffffffffff168152602001908152602001600020546142dc90919063ffffffff16565b8160110160003373ffffffffffffffffffffffffffffffffffffffff1673ffffffffffffffffffffffffffffffffffffffff16815260200190815260200160002081905550600192505050919050565b6000806122e661097c565b90503373ffffffffffffffffffffffffffffffffffffffff1681600b0160009054906101000a900473ffffffffffffffffffffffffffffffffffffffff1673ffffffffffffffffffffffffffffffffffffffff16146123ad576040517f08c379a000000000000000000000000000000000000000000000000000000000815260040180806020018281038252601f8152602001807f4f6e6c7920636f6e74726f6c6c65724f776e65722063616e2063616c6c21210081525060200191505060405180910390fd5b60006123b761097c565b90506124356123e53a6123d784601001545a6141ce90919063ffffffff16565b61425690919063ffffffff16565b8260110160003373ffffffffffffffffffffffffffffffffffffffff1673ffffffffffffffffffffffffffffffffffffffff168152602001908152602001600020546141ce90919063ffffffff16565b8160110160003373ffffffffffffffffffffffffffffffffffffffff1673ffffffffffffffffffffffffffffffffffffffff1681526020019081526020016000208190555080600601869080600181540180825580915050600190039060005260206000200160009091909190916101000a81548173ffffffffffffffffffffffffffffffffffffffff021916908373ffffffffffffffffffffffffffffffffffffffff160217905550848160020160008873ffffffffffffffffffffffffffffffffffffffff1673ffffffffffffffffffffffffffffffffffffffff16815260200190815260200160002060006101000a81548173ffffffffffffffffffffffffffffffffffffffff021916908373ffffffffffffffffffffffffffffffffffffffff160217905550838160030160008873ffffffffffffffffffffffffffffffffffffffff1673ffffffffffffffffffffffffffffffffffffffff16815260200190815260200160002060006101000a81548173ffffffffffffffffffffffffffffffffffffffff021916908373ffffffffffffffffffffffffffffffffffffffff16021790555060018160040160008873ffffffffffffffffffffffffffffffffffffffff1673ffffffffffffffffffffffffffffffffffffffff16815260200190815260200160002060006101000a81548160ff02191690831515021790555061269f61264f3a5a61425690919063ffffffff16565b8260110160003373ffffffffffffffffffffffffffffffffffffffff1673ffffffffffffffffffffffffffffffffffffffff168152602001908152602001600020546142dc90919063ffffffff16565b8160110160003373ffffffffffffffffffffffffffffffffffffffff1673ffffffffffffffffffffffffffffffffffffffff168152602001908152602001600020819055506001925050509392505050565b60006126fb61097c565b90508060040160003373ffffffffffffffffffffffffffffffffffffffff1673ffffffffffffffffffffffffffffffffffffffff16815260200190815260200160002060009054906101000a900460ff166127be576040517f08c379a00000000000000000000000000000000000000000000000000000000081526004018080602001828103825260188152602001807f4f6e6c792073747261746567792063616e2063616c6c2121000000000000000081525060200191505060405180910390fd5b60006127c861097c565b90508060030160003373ffffffffffffffffffffffffffffffffffffffff1673ffffffffffffffffffffffffffffffffffffffff16815260200190815260200160002060009054906101000a900473ffffffffffffffffffffffffffffffffffffffff1673ffffffffffffffffffffffffffffffffffffffff166323b872dd3330866040518463ffffffff1660e01b8152600401808473ffffffffffffffffffffffffffffffffffffffff1681526020018373ffffffffffffffffffffffffffffffffffffffff1681526020018281526020019350505050602060405180830381600087803b1580156128ba57600080fd5b505af11580156128ce573d6000803e3d6000fd5b505050506040513d60208110156128e457600080fd5b8101908080519060200190929190505050508060030160003373ffffffffffffffffffffffffffffffffffffffff1673ffffffffffffffffffffffffffffffffffffffff16815260200190815260200160002060009054906101000a900473ffffffffffffffffffffffffffffffffffffffff1673ffffffffffffffffffffffffffffffffffffffff1663095ea7b38260020160003373ffffffffffffffffffffffffffffffffffffffff1673ffffffffffffffffffffffffffffffffffffffff16815260200190815260200160002060009054906101000a900473ffffffffffffffffffffffffffffffffffffffff16856040518363ffffffff1660e01b8152600401808373ffffffffffffffffffffffffffffffffffffffff16815260200182815260200192505050602060405180830381600087803b158015612a2957600080fd5b505af1158015612a3d573d6000803e3d6000fd5b505050506040513d6020811015612a5357600080fd5b8101908080519060200190929190505050508060020160003373ffffffffffffffffffffffffffffffffffffffff1673ffffffffffffffffffffffffffffffffffffffff16815260200190815260200160002060009054906101000a900473ffffffffffffffffffffffffffffffffffffffff1673ffffffffffffffffffffffffffffffffffffffff1663b6b55f25846040518263ffffffff1660e01b815260040180828152602001915050600060405180830381600087803b158015612b1957600080fd5b505af1158015612b2d573d6000803e3d6000fd5b50505050505050565b600080612b4161097c565b90503373ffffffffffffffffffffffffffffffffffffffff1681600b0160009054906101000a900473ffffffffffffffffffffffffffffffffffffffff1673ffffffffffffffffffffffffffffffffffffffff1614612c08576040517f08c379a000000000000000000000000000000000000000000000000000000000815260040180806020018281038252601f8152602001807f4f6e6c7920636f6e74726f6c6c65724f776e65722063616e2063616c6c21210081525060200191505060405180910390fd5b6000612c1261097c565b9050612c90612c403a612c3284601001545a6141ce90919063ffffffff16565b61425690919063ffffffff16565b8260110160003373ffffffffffffffffffffffffffffffffffffffff1673ffffffffffffffffffffffffffffffffffffffff168152602001908152602001600020546141ce90919063ffffffff16565b8160110160003373ffffffffffffffffffffffffffffffffffffffff1673ffffffffffffffffffffffffffffffffffffffff168152602001908152602001600020819055508381600c0181905550612d44612cf43a5a61425690919063ffffffff16565b8260110160003373ffffffffffffffffffffffffffffffffffffffff1673ffffffffffffffffffffffffffffffffffffffff168152602001908152602001600020546142dc90919063ffffffff16565b8160110160003373ffffffffffffffffffffffffffffffffffffffff1673ffffffffffffffffffffffffffffffffffffffff16815260200190815260200160002081905550600192505050919050565b6000612d9e61097c565b90503373ffffffffffffffffffffffffffffffffffffffff1681600b0160009054906101000a900473ffffffffffffffffffffffffffffffffffffffff1673ffffffffffffffffffffffffffffffffffffffff1614612e65576040517f08c379a000000000000000000000000000000000000000000000000000000000815260040180806020018281038252601f8152602001807f4f6e6c7920636f6e74726f6c6c65724f776e65722063616e2063616c6c21210081525060200191505060405180910390fd5b6000612e6f61097c565b905080600f0154841115612eeb576040517f08c379a00000000000000000000000000000000000000000000000000000000081526004018080602001828103825260108152602001807f496e73756666696369656e74204352560000000000000000000000000000000081525060200191505060405180910390fd5b612f67612f173a612f0984601001545a6141ce90919063ffffffff16565b61425690919063ffffffff16565b8260110160003373ffffffffffffffffffffffffffffffffffffffff1673ffffffffffffffffffffffffffffffffffffffff168152602001908152602001600020546141ce90919063ffffffff16565b8160110160003373ffffffffffffffffffffffffffffffffffffffff1673ffffffffffffffffffffffffffffffffffffffff16815260200190815260200160002081905550612fc38482600f01546142dc90919063ffffffff16565b81600f01819055508060000160019054906101000a900473ffffffffffffffffffffffffffffffffffffffff1673ffffffffffffffffffffffffffffffffffffffff1663095ea7b38260080160009054906101000a900473ffffffffffffffffffffffffffffffffffffffff16866040518363ffffffff1660e01b8152600401808373ffffffffffffffffffffffffffffffffffffffff16815260200182815260200192505050602060405180830381600087803b15801561308457600080fd5b505af1158015613098573d6000803e3d6000fd5b505050506040513d60208110156130ae57600080fd5b8101908080519060200190929190505050508060080160009054906101000a900473ffffffffffffffffffffffffffffffffffffffff1673ffffffffffffffffffffffffffffffffffffffff166365fc387385856040518363ffffffff1660e01b81526004018083815260200182815260200192505050600060405180830381600087803b15801561313f57600080fd5b505af1158015613153573d6000803e3d6000fd5b505050506131bd61316d3a5a61425690919063ffffffff16565b8260110160003373ffffffffffffffffffffffffffffffffffffffff1673ffffffffffffffffffffffffffffffffffffffff168152602001908152602001600020546142dc90919063ffffffff16565b8160110160003373ffffffffffffffffffffffffffffffffffffffff1673ffffffffffffffffffffffffffffffffffffffff1681526020019081526020016000208190555050505050565b600061321261097c565b90508c81600601908051906020019061322c9291906148c5565b5060005b81600601805490508110156134e4578b818151811061324b57fe5b602002602001015182600201600084600601848154811061326857fe5b9060005260206000200160009054906101000a900473ffffffffffffffffffffffffffffffffffffffff1673ffffffffffffffffffffffffffffffffffffffff1673ffffffffffffffffffffffffffffffffffffffff16815260200190815260200160002060006101000a81548173ffffffffffffffffffffffffffffffffffffffff021916908373ffffffffffffffffffffffffffffffffffffffff1602179055508a818151811061331757fe5b602002602001015182600301600084600601848154811061333457fe5b9060005260206000200160009054906101000a900473ffffffffffffffffffffffffffffffffffffffff1673ffffffffffffffffffffffffffffffffffffffff1673ffffffffffffffffffffffffffffffffffffffff16815260200190815260200160002060006101000a81548173ffffffffffffffffffffffffffffffffffffffff021916908373ffffffffffffffffffffffffffffffffffffffff16021790555060018260040160008460060184815481106133ee57fe5b9060005260206000200160009054906101000a900473ffffffffffffffffffffffffffffffffffffffff1673ffffffffffffffffffffffffffffffffffffffff1673ffffffffffffffffffffffffffffffffffffffff16815260200190815260200160002060006101000a81548160ff02191690831515021790555060018260130160008f848151811061347e57fe5b602002602001015173ffffffffffffffffffffffffffffffffffffffff1673ffffffffffffffffffffffffffffffffffffffff16815260200190815260200160002060006101000a81548160ff0219169083151502179055508080600101915050613230565b50888160070160006101000a81548173ffffffffffffffffffffffffffffffffffffffff021916908373ffffffffffffffffffffffffffffffffffffffff160217905550878160000160016101000a81548173ffffffffffffffffffffffffffffffffffffffff021916908373ffffffffffffffffffffffffffffffffffffffff160217905550868160080160006101000a81548173ffffffffffffffffffffffffffffffffffffffff021916908373ffffffffffffffffffffffffffffffffffffffff160217905550858160090160006101000a81548173ffffffffffffffffffffffffffffffffffffffff021916908373ffffffffffffffffffffffffffffffffffffffff1602179055508481600a0160006101000a81548173ffffffffffffffffffffffffffffffffffffffff021916908373ffffffffffffffffffffffffffffffffffffffff1602179055508381600b0160006101000a81548173ffffffffffffffffffffffffffffffffffffffff021916908373ffffffffffffffffffffffffffffffffffffffff1602179055508281600c018190555061271081600d0181905550818160010160006101000a81548173ffffffffffffffffffffffffffffffffffffffff021916908373ffffffffffffffffffffffffffffffffffffffff1602179055508c5181600e018190555060018160000160006101000a81548160ff02191690831515021790555050505050505050505050505050565b60008061370f61097c565b905080600f015491505090565b60008061372761097c565b90503373ffffffffffffffffffffffffffffffffffffffff1681600b0160009054906101000a900473ffffffffffffffffffffffffffffffffffffffff1673ffffffffffffffffffffffffffffffffffffffff16146137ee576040517f08c379a000000000000000000000000000000000000000000000000000000000815260040180806020018281038252601f8152602001807f4f6e6c7920636f6e74726f6c6c65724f776e65722063616e2063616c6c21210081525060200191505060405180910390fd5b60006137f861097c565b90506138766138263a61381884601001545a6141ce90919063ffffffff16565b61425690919063ffffffff16565b8260110160003373ffffffffffffffffffffffffffffffffffffffff1673ffffffffffffffffffffffffffffffffffffffff168152602001908152602001600020546141ce90919063ffffffff16565b8160110160003373ffffffffffffffffffffffffffffffffffffffff1673ffffffffffffffffffffffffffffffffffffffff1681526020019081526020016000208190555060008160010160009054906101000a900473ffffffffffffffffffffffffffffffffffffffff1673ffffffffffffffffffffffffffffffffffffffff166370a08231306040518263ffffffff1660e01b8152600401808273ffffffffffffffffffffffffffffffffffffffff16815260200191505060206040518083038186803b15801561394857600080fd5b505afa15801561395c573d6000803e3d6000fd5b505050506040513d602081101561397257600080fd5b810190808051906020019092919050505090508160090160009054906101000a900473ffffffffffffffffffffffffffffffffffffffff1673ffffffffffffffffffffffffffffffffffffffff16634e71d92d6040518163ffffffff1660e01b8152600401600060405180830381600087803b1580156139f157600080fd5b505af1158015613a05573d6000803e3d6000fd5b5050505060008260010160009054906101000a900473ffffffffffffffffffffffffffffffffffffffff1673ffffffffffffffffffffffffffffffffffffffff166370a08231306040518263ffffffff1660e01b8152600401808273ffffffffffffffffffffffffffffffffffffffff16815260200191505060206040518083038186803b158015613a9657600080fd5b505afa158015613aaa573d6000803e3d6000fd5b505050506040513d6020811015613ac057600080fd5b81019080805190602001909291905050509050600082820390508360000160019054906101000a900473ffffffffffffffffffffffffffffffffffffffff1673ffffffffffffffffffffffffffffffffffffffff166370a08231306040518263ffffffff1660e01b8152600401808273ffffffffffffffffffffffffffffffffffffffff16815260200191505060206040518083038186803b158015613b6557600080fd5b505afa158015613b79573d6000803e3d6000fd5b505050506040513d6020811015613b8f57600080fd5b81019080805190602001909291905050509250613bab81614326565b8360000160019054906101000a900473ffffffffffffffffffffffffffffffffffffffff1673ffffffffffffffffffffffffffffffffffffffff166370a08231306040518263ffffffff1660e01b8152600401808273ffffffffffffffffffffffffffffffffffffffff16815260200191505060206040518083038186803b158015613c3657600080fd5b505afa158015613c4a573d6000803e3d6000fd5b505050506040513d6020811015613c6057600080fd5b81019080805190602001909291905050509150600083830390508085600f01540185600f0181905550613cef613c9f3a5a61425690919063ffffffff16565b8660110160003373ffffffffffffffffffffffffffffffffffffffff1673ffffffffffffffffffffffffffffffffffffffff168152602001908152602001600020546142dc90919063ffffffff16565b8560110160003373ffffffffffffffffffffffffffffffffffffffff1673ffffffffffffffffffffffffffffffffffffffff1681526020019081526020016000208190555080965050505050505090565b6000613d4a61097c565b90503373ffffffffffffffffffffffffffffffffffffffff1681600b0160009054906101000a900473ffffffffffffffffffffffffffffffffffffffff1673ffffffffffffffffffffffffffffffffffffffff1614613e11576040517f08c379a000000000000000000000000000000000000000000000000000000000815260040180806020018281038252601f8152602001807f4f6e6c7920636f6e74726f6c6c65724f776e65722063616e2063616c6c21210081525060200191505060405180910390fd5b6000613e1b61097c565b9050613e99613e493a613e3b84601001545a6141ce90919063ffffffff16565b61425690919063ffffffff16565b8260110160003373ffffffffffffffffffffffffffffffffffffffff1673ffffffffffffffffffffffffffffffffffffffff168152602001908152602001600020546141ce90919063ffffffff16565b8160110160003373ffffffffffffffffffffffffffffffffffffffff1673ffffffffffffffffffffffffffffffffffffffff1681526020019081526020016000208190555060008160000160019054906101000a900473ffffffffffffffffffffffffffffffffffffffff1673ffffffffffffffffffffffffffffffffffffffff166370a08231306040518263ffffffff1660e01b8152600401808273ffffffffffffffffffffffffffffffffffffffff16815260200191505060206040518083038186803b158015613f6b57600080fd5b505afa158015613f7f573d6000803e3d6000fd5b505050506040513d6020811015613f9557600080fd5b810190808051906020019092919050505090508160080160009054906101000a900473ffffffffffffffffffffffffffffffffffffffff1673ffffffffffffffffffffffffffffffffffffffff16633ccfd60b6040518163ffffffff1660e01b8152600401600060405180830381600087803b15801561401457600080fd5b505af1158015614028573d6000803e3d6000fd5b5050505060008260000160019054906101000a900473ffffffffffffffffffffffffffffffffffffffff1673ffffffffffffffffffffffffffffffffffffffff166370a08231306040518263ffffffff1660e01b8152600401808273ffffffffffffffffffffffffffffffffffffffff16815260200191505060206040518083038186803b1580156140b957600080fd5b505afa1580156140cd573d6000803e3d6000fd5b505050506040513d60208110156140e357600080fd5b81019080805190602001909291905050509050600082820390506141148185600f01546141ce90919063ffffffff16565b84600f01819055506141826141323a5a61425690919063ffffffff16565b8560110160003373ffffffffffffffffffffffffffffffffffffffff1673ffffffffffffffffffffffffffffffffffffffff168152602001908152602001600020546142dc90919063ffffffff16565b8460110160003373ffffffffffffffffffffffffffffffffffffffff1673ffffffffffffffffffffffffffffffffffffffff168152602001908152602001600020819055505050505050565b60008082840190508381101561424c576040517f08c379a000000000000000000000000000000000000000000000000000000000815260040180806020018281038252601b8152602001807f536166654d6174683a206164646974696f6e206f766572666c6f77000000000081525060200191505060405180910390fd5b8091505092915050565b60008083141561426957600090506142d6565b600082840290508284828161427a57fe5b04146142d1576040517f08c379a000000000000000000000000000000000000000000000000000000000815260040180806020018281038252602181526020018061496d6021913960400191505060405180910390fd5b809150505b92915050565b600061431e83836040518060400160405280601f81526020017f536166654d6174683a207375627472616374696f6e20756e646572666c6f7700815250614805565b905092915050565b600061433061097c565b90508060000160019054906101000a900473ffffffffffffffffffffffffffffffffffffffff1673ffffffffffffffffffffffffffffffffffffffff1663095ea7b382600a0160009054906101000a900473ffffffffffffffffffffffffffffffffffffffff16846040518363ffffffff1660e01b8152600401808373ffffffffffffffffffffffffffffffffffffffff16815260200182815260200192505050602060405180830381600087803b1580156143eb57600080fd5b505af11580156143ff573d6000803e3d6000fd5b505050506040513d602081101561441557600080fd5b8101908080519060200190929190505050506000600367ffffffffffffffff8111801561444157600080fd5b506040519080825280602002602001820160405280156144705781602001602082028036833780820191505090505b5090508160010160009054906101000a900473ffffffffffffffffffffffffffffffffffffffff16816000815181106144a557fe5b602002602001019073ffffffffffffffffffffffffffffffffffffffff16908173ffffffffffffffffffffffffffffffffffffffff168152505081600a0160009054906101000a900473ffffffffffffffffffffffffffffffffffffffff1673ffffffffffffffffffffffffffffffffffffffff1663ad5c46486040518163ffffffff1660e01b815260040160206040518083038186803b15801561454957600080fd5b505afa15801561455d573d6000803e3d6000fd5b505050506040513d602081101561457357600080fd5b81019080805190602001909291905050508160018151811061459157fe5b602002602001019073ffffffffffffffffffffffffffffffffffffffff16908173ffffffffffffffffffffffffffffffffffffffff16815250508160000160019054906101000a900473ffffffffffffffffffffffffffffffffffffffff16816002815181106145fd57fe5b602002602001019073ffffffffffffffffffffffffffffffffffffffff16908173ffffffffffffffffffffffffffffffffffffffff168152505081600a0160009054906101000a900473ffffffffffffffffffffffffffffffffffffffff1673ffffffffffffffffffffffffffffffffffffffff166338ed1739846000843061070842016040518663ffffffff1660e01b815260040180868152602001858152602001806020018473ffffffffffffffffffffffffffffffffffffffff168152602001838152602001828103825285818151815260200191508051906020019060200280838360005b838110156147015780820151818401526020810190506146e6565b505050509050019650505050505050600060405180830381600087803b15801561472a57600080fd5b505af115801561473e573d6000803e3d6000fd5b505050506040513d6000823e3d601f19601f82011682018060405250602081101561476857600080fd5b810190808051604051939291908464010000000082111561478857600080fd5b8382019150602082018581111561479e57600080fd5b82518660208202830111640100000000821117156147bb57600080fd5b8083526020830192505050908051906020019060200280838360005b838110156147f25780820151818401526020810190506147d7565b5050505090500160405250505050505050565b60008383111582906148b2576040517f08c379a00000000000000000000000000000000000000000000000000000000081526004018080602001828103825283818151815260200191508051906020019080838360005b8381101561487757808201518184015260208101905061485c565b50505050905090810190601f1680156148a45780820380516001836020036101000a031916815260200191505b509250505060405180910390fd5b5060008385039050809150509392505050565b82805482825590600052602060002090810192821561493e579160200282015b8281111561493d5782518260006101000a81548173ffffffffffffffffffffffffffffffffffffffff021916908373ffffffffffffffffffffffffffffffffffffffff160217905550916020019190600101906148e5565b5b50905061494b919061494f565b5090565b5b80821115614968576000816000905550600101614950565b509056fe536166654d6174683a206d756c7469706c69636174696f6e206f766572666c6f77446f6e74206861766520656e6f7567682066756e642c20547279206c617465722121a264697066735822122075f6568f9ef071d244e2c32b38ed18e40ea475fccf63376d85cc385df779513e64736f6c63430007060033",
  "immutableReferences": {},
  "source": "// SPDX-License-Identifier: UNLICENSED\r\npragma solidity ^0.7.6;\r\nimport \"../storage/ControllerStorage.sol\";\r\nimport \"../libraries/SafeMath.sol\";\r\n\r\ncontract Controller is ControllerStorageV1 {\r\n    \r\n    using SafeMath for uint256;\r\n    \r\n  \r\n/****MODIFIERS****/\r\n    modifier onlyOwner(){\r\n        ControllerStorage storage cs = controllerStorage();\r\n        require(cs.controllerOwner == msg.sender, \"Only controllerOwner can call!!\");\r\n        _;\r\n    }\r\n\r\n    modifier onlyStrategy(){\r\n        ControllerStorage storage cs = controllerStorage();\r\n        require(cs.isStratgey[msg.sender], \"Only strategy can call!!\");\r\n        _;\r\n    }\r\n    \r\n    modifier onlyStrategyOrPool(){\r\n        ControllerStorage storage cs = controllerStorage();\r\n        require(cs.isStratgey[msg.sender] || cs.isPool[msg.sender], \"Only strategy or pool can call!!\");\r\n        _;\r\n    }\r\n\r\n/****CONSTRUCTOR****/\r\n    function initialize(\r\n        address[] memory _depositStrategies,\r\n        address[] memory _pools,\r\n        Gauge[] memory _gauges, \r\n        IERC20[] memory _strategyLPToken,\r\n        Minter _minter, \r\n        IERC20 _crvToken, \r\n        VotingEscrow _votingEscrow,\r\n        FeeDistributor _feeDistributor,\r\n        UniswapV2Router _uniswapRouter,\r\n        address _controllerOwner,\r\n        uint256 _crvLockPercent,\r\n        IERC20 _adminFeeToken\r\n    ) public{\r\n        ControllerStorage storage cs = controllerStorage();\r\n        //require(!cs.initialized, 'Already initialized');\r\n        cs.depositStrategies = _depositStrategies;\r\n\r\n        for(uint256 i = 0; i < cs.depositStrategies.length; i++){\r\n            cs.strategyGauges[cs.depositStrategies[i]] = _gauges[i];\r\n            cs.strategyLPTokens[cs.depositStrategies[i]] = _strategyLPToken[i];\r\n            cs.isStratgey[cs.depositStrategies[i]] = true;\r\n            cs.isPool[_pools[i]] = true;\r\n        }\r\n\r\n        cs.minter = _minter;\r\n        cs.crvToken = _crvToken;\r\n        cs.votingEscrow = _votingEscrow;\r\n        cs.feeDistributor = _feeDistributor;\r\n        cs.uniswapRouter = _uniswapRouter; \r\n        cs.controllerOwner = _controllerOwner;\r\n        cs.crvLockPercent = _crvLockPercent;\r\n        cs.DENOMINATOR = 10000;\r\n        cs.adminFeeToken = _adminFeeToken;\r\n        cs.totalStrategies = _depositStrategies.length;\r\n        cs.initialized = true;\r\n    }\r\n\r\n/****CONTROLLER OWNER FUNCTIONS****/\r\n\r\n    function updateOwner(address newOwner) external onlyOwner() returns(bool){\r\n        ControllerStorage storage cs = controllerStorage();\r\n        cs.claimableGas[msg.sender] = cs.claimableGas[msg.sender].add((gasleft().add(cs.defaultGas)).mul(tx.gasprice));\r\n        cs.controllerOwner = newOwner;\r\n        cs.claimableGas[msg.sender] = cs.claimableGas[msg.sender].sub(gasleft().mul(tx.gasprice)); \r\n        return true;\r\n    } \r\n\r\n    function addNewStrategy(address _strategy, Gauge _gauge, IERC20 _strategyLPToken) external onlyOwner() returns(bool){\r\n        ControllerStorage storage cs = controllerStorage();\r\n        cs.claimableGas[msg.sender] = cs.claimableGas[msg.sender].add((gasleft().add(cs.defaultGas)).mul(tx.gasprice));\r\n        cs.depositStrategies.push(_strategy);\r\n        cs.strategyGauges[_strategy] = _gauge;\r\n        cs.strategyLPTokens[_strategy] = _strategyLPToken;\r\n        cs.isStratgey[_strategy] = true;\r\n        cs.claimableGas[msg.sender] = cs.claimableGas[msg.sender].sub(gasleft().mul(tx.gasprice)); \r\n        return true;\r\n    } \r\n\r\n    function updateAdminFeeToken(IERC20 _adminFeeToken) external onlyOwner() returns(bool){\r\n        ControllerStorage storage cs = controllerStorage();\r\n        cs.claimableGas[msg.sender] = cs.claimableGas[msg.sender].add((gasleft().add(cs.defaultGas)).mul(tx.gasprice));\r\n        cs.adminFeeToken = _adminFeeToken;\r\n        cs.claimableGas[msg.sender] = cs.claimableGas[msg.sender].sub(gasleft().mul(tx.gasprice)); \r\n        return true;\r\n    } \r\n\r\n    function createLock(uint256 _value, uint256 _unlockTime) external onlyOwner() {\r\n        ControllerStorage storage cs = controllerStorage();\r\n        require(_value <= cs.availableCRVToLock, 'Insufficient CRV' );\r\n        cs.claimableGas[msg.sender] = cs.claimableGas[msg.sender].add((gasleft().add(cs.defaultGas)).mul(tx.gasprice));\r\n        cs.availableCRVToLock = cs.availableCRVToLock.sub(_value);\r\n        cs.crvToken.approve(address(cs.votingEscrow), _value);\r\n        VotingEscrow(cs.votingEscrow).create_lock(_value, _unlockTime);\r\n        cs.claimableGas[msg.sender] = cs.claimableGas[msg.sender].sub(gasleft().mul(tx.gasprice)); \r\n    } \r\n    \r\n    function releaseLock() external onlyOwner() {\r\n        ControllerStorage storage cs = controllerStorage();\r\n        cs.claimableGas[msg.sender] = cs.claimableGas[msg.sender].add((gasleft().add(cs.defaultGas)).mul(tx.gasprice));\r\n        uint256 oldBalance = cs.crvToken.balanceOf(address(this));\r\n        VotingEscrow(cs.votingEscrow).withdraw();  \r\n        uint256 newBalance = cs.crvToken.balanceOf(address(this));\r\n        uint256 crvReceived = newBalance - oldBalance;\r\n        cs.availableCRVToLock = cs.availableCRVToLock.add(crvReceived);\r\n        cs.claimableGas[msg.sender] = cs.claimableGas[msg.sender].sub(gasleft().mul(tx.gasprice)); \r\n    }\r\n    \r\n    function increaseLockAmount(uint256 _value) external onlyOwner() {\r\n        ControllerStorage storage cs = controllerStorage();\r\n        cs.claimableGas[msg.sender] = cs.claimableGas[msg.sender].add((gasleft().add(cs.defaultGas)).mul(tx.gasprice));\r\n        require(_value <= cs.availableCRVToLock, 'Insufficient CRV' );\r\n        cs.availableCRVToLock = cs.availableCRVToLock.sub(_value);\r\n        cs.crvToken.approve(address(cs.votingEscrow), _value);\r\n        VotingEscrow(cs.votingEscrow).increase_amount(_value);\r\n        cs.claimableGas[msg.sender] = cs.claimableGas[msg.sender].sub(gasleft().mul(tx.gasprice)); \r\n    }\r\n\r\n    function increaseUnlockTime(uint256 _value) external onlyOwner() {\r\n        ControllerStorage storage cs = controllerStorage();\r\n        cs.claimableGas[msg.sender] = cs.claimableGas[msg.sender].add((gasleft().add(cs.defaultGas)).mul(tx.gasprice));\r\n        VotingEscrow(cs.votingEscrow).increase_unlock_time(_value);\r\n        cs.claimableGas[msg.sender] = cs.claimableGas[msg.sender].sub(gasleft().mul(tx.gasprice)); \r\n    }\r\n\r\n    function claimAndConvertAdminFees() external onlyOwner() returns(uint256){\r\n        ControllerStorage storage cs = controllerStorage();\r\n        cs.claimableGas[msg.sender] = cs.claimableGas[msg.sender].add((gasleft().add(cs.defaultGas)).mul(tx.gasprice));\r\n        uint256 oldBalance = cs.adminFeeToken.balanceOf(address(this));\r\n        FeeDistributor(cs.feeDistributor).claim();\r\n        uint256 newBalance = cs.adminFeeToken.balanceOf(address(this));\r\n        uint256 adminFeeReceived = newBalance - oldBalance;\r\n        oldBalance = cs.crvToken.balanceOf(address(this));\r\n        convertToCRV(adminFeeReceived);\r\n        newBalance = cs.crvToken.balanceOf(address(this));\r\n        uint256 crvReceived = newBalance - oldBalance;\r\n        cs.availableCRVToLock = cs.availableCRVToLock + crvReceived;\r\n        cs.claimableGas[msg.sender] = cs.claimableGas[msg.sender].sub(gasleft().mul(tx.gasprice)); \r\n        return crvReceived;\r\n    }\r\n\r\n    function updateLockPercentage(uint256 _newPercent) external onlyOwner() returns(bool){\r\n        ControllerStorage storage cs = controllerStorage();\r\n        cs.claimableGas[msg.sender] = cs.claimableGas[msg.sender].add((gasleft().add(cs.defaultGas)).mul(tx.gasprice));\r\n        cs.crvLockPercent = _newPercent;\r\n        cs.claimableGas[msg.sender] = cs.claimableGas[msg.sender].sub(gasleft().mul(tx.gasprice)); \r\n        return true;\r\n    } \r\n    \r\n\r\n/****STRATEGY FUNCTIONS****/\r\n\r\n    function stake(uint256 amount) external onlyStrategy(){\r\n        ControllerStorage storage cs = controllerStorage();\r\n        cs.strategyLPTokens[msg.sender].transferFrom(msg.sender, address(this), amount);\r\n        cs.strategyLPTokens[msg.sender].approve(address(cs.strategyGauges[msg.sender]), amount);\r\n        cs.strategyGauges[msg.sender].deposit(amount);  \r\n    }\r\n    \r\n    function unstake() external onlyStrategy() returns(uint256){\r\n        ControllerStorage storage cs = controllerStorage();\r\n        uint256 unstakedAmount = cs.strategyGauges[msg.sender].balanceOf(address(this));\r\n        cs.strategyGauges[msg.sender].withdraw(unstakedAmount);\r\n        cs.strategyLPTokens[msg.sender].transfer(msg.sender, unstakedAmount);\r\n        return unstakedAmount;\r\n    }\r\n\r\n    function claimCRV() external onlyStrategy() returns(uint256){\r\n        ControllerStorage storage cs = controllerStorage();\r\n        uint256 oldBalance = cs.crvToken.balanceOf(address(this));\r\n        Minter(cs.minter).mint(address(cs.strategyGauges[msg.sender]));\r\n        uint256 newBalance = cs.crvToken.balanceOf(address(this));\r\n        uint256 crvReceived = newBalance - oldBalance;\r\n        uint256 crvToLock = crvReceived * cs.crvLockPercent / cs.DENOMINATOR;\r\n        cs.availableCRVToLock = cs.availableCRVToLock + crvToLock;\r\n        uint256 crvToSend = crvReceived - crvToLock;\r\n        cs.crvToken.transfer(msg.sender, crvToSend);\r\n        return crvReceived - crvToLock;\r\n    }\r\n\r\n    function updateGasUsed(uint256 _gasUsed) public onlyStrategyOrPool() {\r\n        ControllerStorage storage cs = controllerStorage();\r\n        cs.claimableGas[msg.sender] = cs.claimableGas[msg.sender] + _gasUsed;\r\n    }\r\n\r\n/****OPEN FUNCTIONS****/\r\n\r\n    receive() external payable {\r\n        ControllerStorage storage cs = controllerStorage();\r\n        cs.ethReceived[msg.sender] = cs.ethReceived[msg.sender] + msg.value;\r\n    }\r\n    \r\n    function claimGasFee() public{\r\n        ControllerStorage storage cs = controllerStorage();     \r\n        uint256 gasAtStart = (gasleft().add(cs.defaultGas)).mul(tx.gasprice);\r\n        uint256 claimableAmount = cs.claimableGas[msg.sender];\r\n        require(claimableAmount > 0, \"Nothing to claim\");\r\n        require(address(this).balance >= claimableAmount, \"Dont have enough fund, Try later!!\");\r\n        cs.claimableGas[msg.sender] = 0;\r\n        msg.sender.transfer(claimableAmount);\r\n        uint256 gasAtEnd = gasleft().mul(tx.gasprice);\r\n        cs.claimableGas[msg.sender] = gasAtStart - gasAtEnd;\r\n    }\r\n/***INTERNAL FUNCTION****/\r\n\r\n    function convertToCRV(uint256 amount) internal {\r\n        ControllerStorage storage cs = controllerStorage();\r\n        cs.crvToken.approve(address(cs.uniswapRouter), amount);\r\n        address[] memory path = new address[](3);\r\n        path[0] = address(cs.adminFeeToken);\r\n        path[1] = cs.uniswapRouter.WETH();\r\n        path[2] = address(cs.crvToken);\r\n        \r\n        cs.uniswapRouter.swapExactTokensForTokens(\r\n            amount, \r\n            uint256(0), \r\n            path, \r\n            address(this), \r\n            block.timestamp + 1800\r\n        );\r\n    }\r\n\r\n/****VIEW FUNCTIONS****/\r\n\r\n    function defaultGas() public view returns(uint256){\r\n        ControllerStorage storage cs = controllerStorage();\r\n        return cs.defaultGas;\r\n    }\r\n\r\n    function availableCRVToLock() public view returns(uint256){\r\n        ControllerStorage storage cs = controllerStorage();\r\n        return cs.availableCRVToLock;\r\n    }\r\n\r\n    function gasUsed(address account) public view returns(uint256){\r\n        ControllerStorage storage cs = controllerStorage();\r\n        return cs.claimableGas[account];\r\n    }\r\n\r\n}",
  "sourcePath": "E:/New Desktop/Projects/AdvancedPool/Controller/contracts/facets/Controller.sol",
  "compiler": {
    "name": "solc",
    "version": "0.7.6+commit.7338295f.Emscripten.clang"
  },
  "schemaVersion": "3.3.2",
  "updatedAt": "2021-05-17T10:26:47.461Z",
  "networkType": "ethereum",
  "devdoc": {
    "kind": "dev",
    "methods": {},
    "version": 1
  },
  "userdoc": {
    "kind": "user",
    "methods": {},
    "version": 1
  }
}