{
  "contractName": "Controller",
  "abi": [
    {
      "stateMutability": "payable",
      "type": "receive",
      "payable": true
    },
    {
      "inputs": [
        {
          "internalType": "address[]",
          "name": "_depositStrategies",
          "type": "address[]"
        },
        {
          "internalType": "address[]",
          "name": "_pools",
          "type": "address[]"
        },
        {
          "internalType": "contract Gauge[]",
          "name": "_gauges",
          "type": "address[]"
        },
        {
          "internalType": "contract IERC20[]",
          "name": "_strategyLPToken",
          "type": "address[]"
        },
        {
          "internalType": "contract Minter",
          "name": "_minter",
          "type": "address"
        },
        {
          "internalType": "contract IERC20",
          "name": "_crvToken",
          "type": "address"
        },
        {
          "internalType": "contract VotingEscrow",
          "name": "_votingEscrow",
          "type": "address"
        },
        {
          "internalType": "contract FeeDistributor",
          "name": "_feeDistributor",
          "type": "address"
        },
        {
          "internalType": "contract UniswapV2Router",
          "name": "_uniswapRouter",
          "type": "address"
        },
        {
          "internalType": "address[]",
          "name": "_owners",
          "type": "address[]"
        },
        {
          "internalType": "uint256",
          "name": "_crvLockPercent",
          "type": "uint256"
        },
        {
          "internalType": "contract IERC20",
          "name": "_adminFeeToken",
          "type": "address"
        }
      ],
      "name": "initialize",
      "outputs": [],
      "stateMutability": "nonpayable",
      "type": "function"
    },
    {
      "inputs": [
        {
          "internalType": "address",
          "name": "newOwner",
          "type": "address"
        },
        {
          "internalType": "address",
          "name": "newSuperOwner",
          "type": "address"
        }
      ],
      "name": "updateOwners",
      "outputs": [
        {
          "internalType": "bool",
          "name": "",
          "type": "bool"
        }
      ],
      "stateMutability": "nonpayable",
      "type": "function"
    },
    {
      "inputs": [
        {
          "internalType": "address",
          "name": "_strategy",
          "type": "address"
        },
        {
          "internalType": "contract Gauge",
          "name": "_gauge",
          "type": "address"
        },
        {
          "internalType": "contract IERC20",
          "name": "_strategyLPToken",
          "type": "address"
        },
        {
          "internalType": "address",
          "name": "_pool",
          "type": "address"
        }
      ],
      "name": "addNewStrategy",
      "outputs": [
        {
          "internalType": "bool",
          "name": "",
          "type": "bool"
        }
      ],
      "stateMutability": "nonpayable",
      "type": "function"
    },
    {
      "inputs": [
        {
          "internalType": "contract IERC20",
          "name": "_adminFeeToken",
          "type": "address"
        }
      ],
      "name": "updateAdminFeeToken",
      "outputs": [
        {
          "internalType": "bool",
          "name": "",
          "type": "bool"
        }
      ],
      "stateMutability": "nonpayable",
      "type": "function"
    },
    {
      "inputs": [
        {
          "internalType": "uint256",
          "name": "_value",
          "type": "uint256"
        },
        {
          "internalType": "uint256",
          "name": "_unlockTime",
          "type": "uint256"
        }
      ],
      "name": "createLock",
      "outputs": [],
      "stateMutability": "nonpayable",
      "type": "function"
    },
    {
      "inputs": [],
      "name": "releaseLock",
      "outputs": [],
      "stateMutability": "nonpayable",
      "type": "function"
    },
    {
      "inputs": [
        {
          "internalType": "uint256",
          "name": "_value",
          "type": "uint256"
        }
      ],
      "name": "increaseLockAmount",
      "outputs": [],
      "stateMutability": "nonpayable",
      "type": "function"
    },
    {
      "inputs": [
        {
          "internalType": "uint256",
          "name": "_value",
          "type": "uint256"
        }
      ],
      "name": "increaseUnlockTime",
      "outputs": [],
      "stateMutability": "nonpayable",
      "type": "function"
    },
    {
      "inputs": [],
      "name": "claimAndConvertAdminFees",
      "outputs": [
        {
          "internalType": "uint256",
          "name": "",
          "type": "uint256"
        }
      ],
      "stateMutability": "nonpayable",
      "type": "function"
    },
    {
      "inputs": [
        {
          "internalType": "uint256",
          "name": "_newPercent",
          "type": "uint256"
        }
      ],
      "name": "updateLockPercentage",
      "outputs": [
        {
          "internalType": "bool",
          "name": "",
          "type": "bool"
        }
      ],
      "stateMutability": "nonpayable",
      "type": "function"
    },
    {
      "inputs": [
        {
          "internalType": "uint256",
          "name": "amount",
          "type": "uint256"
        }
      ],
      "name": "stake",
      "outputs": [],
      "stateMutability": "nonpayable",
      "type": "function"
    },
    {
      "inputs": [
        {
          "internalType": "uint256",
          "name": "amount",
          "type": "uint256"
        }
      ],
      "name": "unstake",
      "outputs": [
        {
          "internalType": "uint256",
          "name": "",
          "type": "uint256"
        }
      ],
      "stateMutability": "nonpayable",
      "type": "function"
    },
    {
      "inputs": [],
      "name": "unstakeAll",
      "outputs": [
        {
          "internalType": "uint256",
          "name": "",
          "type": "uint256"
        }
      ],
      "stateMutability": "nonpayable",
      "type": "function"
    },
    {
      "inputs": [],
      "name": "claimCRV",
      "outputs": [
        {
          "internalType": "uint256",
          "name": "",
          "type": "uint256"
        }
      ],
      "stateMutability": "nonpayable",
      "type": "function"
    },
    {
      "inputs": [
        {
          "internalType": "uint256",
          "name": "_gasUsed",
          "type": "uint256"
        },
        {
          "internalType": "address",
          "name": "adminAddress",
          "type": "address"
        }
      ],
      "name": "updateGasUsed",
      "outputs": [],
      "stateMutability": "nonpayable",
      "type": "function"
    },
    {
      "inputs": [],
      "name": "claimGasFee",
      "outputs": [],
      "stateMutability": "nonpayable",
      "type": "function"
    },
    {
      "inputs": [],
      "name": "defaultGas",
      "outputs": [
        {
          "internalType": "uint256",
          "name": "",
          "type": "uint256"
        }
      ],
      "stateMutability": "view",
      "type": "function",
      "constant": true
    },
    {
      "inputs": [],
      "name": "availableCRVToLock",
      "outputs": [
        {
          "internalType": "uint256",
          "name": "",
          "type": "uint256"
        }
      ],
      "stateMutability": "view",
      "type": "function",
      "constant": true
    },
    {
      "inputs": [
        {
          "internalType": "address",
          "name": "account",
          "type": "address"
        }
      ],
      "name": "gasUsed",
      "outputs": [
        {
          "internalType": "uint256",
          "name": "",
          "type": "uint256"
        }
      ],
      "stateMutability": "view",
      "type": "function",
      "constant": true
    },
    {
      "inputs": [],
      "name": "crvLockPercent",
      "outputs": [
        {
          "internalType": "uint256",
          "name": "",
          "type": "uint256"
        }
      ],
      "stateMutability": "view",
      "type": "function",
      "constant": true
    }
  ],
  "bytecode": "0x608060405234801561001057600080fd5b50615430806100206000396000f3fe6080604052600436106101235760003560e01c80637c616fe6116100a0578063d65bc14911610064578063d65bc149146105cc578063d748ae4214610693578063d759ec20146106be578063eda54ad2146106e9578063f9525df914610700576101c0565b80637c616fe61461049557806384e9a901146104d0578063a694fc3a146104fb578063b07c93a514610536578063b52c05fe14610587576101c0565b8063403f4447116100e7578063403f44471461030857806348f8f6d9146103435780634959ce171461036e5780634bed5e18146103d35780636c5506821461043a576101c0565b806329562dea146101c55780632e17de78146101f05780632e30e85b1461023f57806335322f37146102565780633b35440a14610281576101c0565b366101c0576000610132610ae0565b9050348160130160003373ffffffffffffffffffffffffffffffffffffffff1673ffffffffffffffffffffffffffffffffffffffff16815260200190815260200160002054018160130160003373ffffffffffffffffffffffffffffffffffffffff1673ffffffffffffffffffffffffffffffffffffffff1681526020019081526020016000208190555050005b600080fd5b3480156101d157600080fd5b506101da610b0d565b6040518082815260200191505060405180910390f35b3480156101fc57600080fd5b506102296004803603602081101561021357600080fd5b8101908080359060200190929190505050610b25565b6040518082815260200191505060405180910390f35b34801561024b57600080fd5b50610254610de3565b005b34801561026257600080fd5b5061026b611024565b6040518082815260200191505060405180910390f35b34801561028d57600080fd5b506102f0600480360360408110156102a457600080fd5b81019080803573ffffffffffffffffffffffffffffffffffffffff169060200190929190803573ffffffffffffffffffffffffffffffffffffffff1690602001909291905050506113e8565b60405180821515815260200191505060405180910390f35b34801561031457600080fd5b506103416004803603602081101561032b57600080fd5b81019080803590602001909291905050506116c4565b005b34801561034f57600080fd5b50610358611c25565b6040518082815260200191505060405180910390f35b34801561037a57600080fd5b506103bd6004803603602081101561039157600080fd5b81019080803573ffffffffffffffffffffffffffffffffffffffff1690602001909291905050506120ae565b6040518082815260200191505060405180910390f35b3480156103df57600080fd5b50610422600480360360208110156103f657600080fd5b81019080803573ffffffffffffffffffffffffffffffffffffffff169060200190929190505050612105565b60405180821515815260200191505060405180910390f35b34801561044657600080fd5b506104936004803603604081101561045d57600080fd5b8101908080359060200190929190803573ffffffffffffffffffffffffffffffffffffffff16906020019092919050505061239d565b005b3480156104a157600080fd5b506104ce600480360360208110156104b857600080fd5b810190808035906020019092919050505061255b565b005b3480156104dc57600080fd5b506104e5612838565b6040518082815260200191505060405180910390f35b34801561050757600080fd5b506105346004803603602081101561051e57600080fd5b8101908080359060200190929190505050612850565b005b34801561054257600080fd5b5061056f6004803603602081101561055957600080fd5b8101908080359060200190929190505050612e05565b60405180821515815260200191505060405180910390f35b34801561059357600080fd5b506105ca600480360360408110156105aa57600080fd5b810190808035906020019092919080359060200190929190505050613063565b005b3480156105d857600080fd5b5061067b600480360360808110156105ef57600080fd5b81019080803573ffffffffffffffffffffffffffffffffffffffff169060200190929190803573ffffffffffffffffffffffffffffffffffffffff169060200190929190803573ffffffffffffffffffffffffffffffffffffffff169060200190929190803573ffffffffffffffffffffffffffffffffffffffff1690602001909291905050506135cd565b60405180821515815260200191505060405180910390f35b34801561069f57600080fd5b506106a8613a3e565b6040518082815260200191505060405180910390f35b3480156106ca57600080fd5b506106d3613a56565b6040518082815260200191505060405180910390f35b3480156106f557600080fd5b506106fe61409e565b005b34801561070c57600080fd5b50610ade600480360361018081101561072457600080fd5b810190808035906020019064010000000081111561074157600080fd5b82018360208201111561075357600080fd5b8035906020019184602083028401116401000000008311171561077557600080fd5b919080806020026020016040519081016040528093929190818152602001838360200280828437600081840152601f19601f820116905080830192505050505050509192919290803590602001906401000000008111156107d557600080fd5b8201836020820111156107e757600080fd5b8035906020019184602083028401116401000000008311171561080957600080fd5b919080806020026020016040519081016040528093929190818152602001838360200280828437600081840152601f19601f8201169050808301925050505050505091929192908035906020019064010000000081111561086957600080fd5b82018360208201111561087b57600080fd5b8035906020019184602083028401116401000000008311171561089d57600080fd5b919080806020026020016040519081016040528093929190818152602001838360200280828437600081840152601f19601f820116905080830192505050505050509192919290803590602001906401000000008111156108fd57600080fd5b82018360208201111561090f57600080fd5b8035906020019184602083028401116401000000008311171561093157600080fd5b919080806020026020016040519081016040528093929190818152602001838360200280828437600081840152601f19601f820116905080830192505050505050509192919290803573ffffffffffffffffffffffffffffffffffffffff169060200190929190803573ffffffffffffffffffffffffffffffffffffffff169060200190929190803573ffffffffffffffffffffffffffffffffffffffff169060200190929190803573ffffffffffffffffffffffffffffffffffffffff169060200190929190803573ffffffffffffffffffffffffffffffffffffffff16906020019092919080359060200190640100000000811115610a3157600080fd5b820183602082011115610a4357600080fd5b80359060200191846020830284011164010000000083111715610a6557600080fd5b919080806020026020016040519081016040528093929190818152602001838360200280828437600081840152601f19601f82011690508083019250505050505050919291929080359060200190929190803573ffffffffffffffffffffffffffffffffffffffff16906020019092919050505061452c565b005b6000807f36cd024ab99b7eb43ce06d2c7a20fd55d745b01b3ab37b4f7429b2a08705e3a490508091505090565b600080610b18610ae0565b905080600d015491505090565b600080610b30610ae0565b90508060040160003373ffffffffffffffffffffffffffffffffffffffff1673ffffffffffffffffffffffffffffffffffffffff16815260200190815260200160002060009054906101000a900460ff16610bf3576040517f08c379a00000000000000000000000000000000000000000000000000000000081526004018080602001828103825260188152602001807f4f6e6c792073747261746567792063616e2063616c6c2121000000000000000081525060200191505060405180910390fd5b6000610bfd610ae0565b90508060020160003373ffffffffffffffffffffffffffffffffffffffff1673ffffffffffffffffffffffffffffffffffffffff16815260200190815260200160002060009054906101000a900473ffffffffffffffffffffffffffffffffffffffff1673ffffffffffffffffffffffffffffffffffffffff16632e1a7d4d856040518263ffffffff1660e01b815260040180828152602001915050600060405180830381600087803b158015610cb357600080fd5b505af1158015610cc7573d6000803e3d6000fd5b505050508060030160003373ffffffffffffffffffffffffffffffffffffffff1673ffffffffffffffffffffffffffffffffffffffff16815260200190815260200160002060009054906101000a900473ffffffffffffffffffffffffffffffffffffffff1673ffffffffffffffffffffffffffffffffffffffff1663a9059cbb33866040518363ffffffff1660e01b8152600401808373ffffffffffffffffffffffffffffffffffffffff16815260200182815260200192505050602060405180830381600087803b158015610d9d57600080fd5b505af1158015610db1573d6000803e3d6000fd5b505050506040513d6020811015610dc757600080fd5b8101908080519060200190929190505050508392505050919050565b6000610ded610ae0565b90506000610e1a3a610e0c84601101545a614b2390919063ffffffff16565b614bab90919063ffffffff16565b905060008260120160003373ffffffffffffffffffffffffffffffffffffffff1673ffffffffffffffffffffffffffffffffffffffff16815260200190815260200160002054905060008111610ed8576040517f08c379a00000000000000000000000000000000000000000000000000000000081526004018080602001828103825260108152602001807f4e6f7468696e6720746f20636c61696d0000000000000000000000000000000081525060200191505060405180910390fd5b80471015610f31576040517f08c379a00000000000000000000000000000000000000000000000000000000081526004018080602001828103825260228152602001806153d96022913960400191505060405180910390fd5b60008360120160003373ffffffffffffffffffffffffffffffffffffffff1673ffffffffffffffffffffffffffffffffffffffff168152602001908152602001600020819055503373ffffffffffffffffffffffffffffffffffffffff166108fc829081150290604051600060405180830381858888f19350505050158015610fbe573d6000803e3d6000fd5b506000610fd43a5a614bab90919063ffffffff16565b90508083038460120160003373ffffffffffffffffffffffffffffffffffffffff1673ffffffffffffffffffffffffffffffffffffffff1681526020019081526020016000208190555050505050565b60008061102f610ae0565b90508060040160003373ffffffffffffffffffffffffffffffffffffffff1673ffffffffffffffffffffffffffffffffffffffff16815260200190815260200160002060009054906101000a900460ff166110f2576040517f08c379a00000000000000000000000000000000000000000000000000000000081526004018080602001828103825260188152602001807f4f6e6c792073747261746567792063616e2063616c6c2121000000000000000081525060200191505060405180910390fd5b60006110fc610ae0565b905060008160020160003373ffffffffffffffffffffffffffffffffffffffff1673ffffffffffffffffffffffffffffffffffffffff16815260200190815260200160002060009054906101000a900473ffffffffffffffffffffffffffffffffffffffff1673ffffffffffffffffffffffffffffffffffffffff166370a08231306040518263ffffffff1660e01b8152600401808273ffffffffffffffffffffffffffffffffffffffff16815260200191505060206040518083038186803b1580156111c857600080fd5b505afa1580156111dc573d6000803e3d6000fd5b505050506040513d60208110156111f257600080fd5b810190808051906020019092919050505090508160020160003373ffffffffffffffffffffffffffffffffffffffff1673ffffffffffffffffffffffffffffffffffffffff16815260200190815260200160002060009054906101000a900473ffffffffffffffffffffffffffffffffffffffff1673ffffffffffffffffffffffffffffffffffffffff16632e1a7d4d826040518263ffffffff1660e01b815260040180828152602001915050600060405180830381600087803b1580156112b957600080fd5b505af11580156112cd573d6000803e3d6000fd5b505050508160030160003373ffffffffffffffffffffffffffffffffffffffff1673ffffffffffffffffffffffffffffffffffffffff16815260200190815260200160002060009054906101000a900473ffffffffffffffffffffffffffffffffffffffff1673ffffffffffffffffffffffffffffffffffffffff1663a9059cbb33836040518363ffffffff1660e01b8152600401808373ffffffffffffffffffffffffffffffffffffffff16815260200182815260200192505050602060405180830381600087803b1580156113a357600080fd5b505af11580156113b7573d6000803e3d6000fd5b505050506040513d60208110156113cd57600080fd5b81019080805190602001909291905050505080935050505090565b6000806113f3610ae0565b90503373ffffffffffffffffffffffffffffffffffffffff1681600c0160009054906101000a900473ffffffffffffffffffffffffffffffffffffffff1673ffffffffffffffffffffffffffffffffffffffff16146114ba576040517f08c379a000000000000000000000000000000000000000000000000000000000815260040180806020018281038252601b8152602001807f4f6e6c792073757065722061646d696e2063616e2063616c6c2121000000000081525060200191505060405180910390fd5b60006114c4610ae0565b90506115426114f23a6114e484601101545a614b2390919063ffffffff16565b614bab90919063ffffffff16565b8260120160003373ffffffffffffffffffffffffffffffffffffffff1673ffffffffffffffffffffffffffffffffffffffff16815260200190815260200160002054614b2390919063ffffffff16565b8160120160003373ffffffffffffffffffffffffffffffffffffffff1673ffffffffffffffffffffffffffffffffffffffff168152602001908152602001600020819055508481600b0160006101000a81548173ffffffffffffffffffffffffffffffffffffffff021916908373ffffffffffffffffffffffffffffffffffffffff1602179055508381600c0160006101000a81548173ffffffffffffffffffffffffffffffffffffffff021916908373ffffffffffffffffffffffffffffffffffffffff1602179055506116736116233a5a614bab90919063ffffffff16565b8260120160003373ffffffffffffffffffffffffffffffffffffffff1673ffffffffffffffffffffffffffffffffffffffff16815260200190815260200160002054614c3190919063ffffffff16565b8160120160003373ffffffffffffffffffffffffffffffffffffffff1673ffffffffffffffffffffffffffffffffffffffff1681526020019081526020016000208190555060019250505092915050565b60006116ce610ae0565b90503373ffffffffffffffffffffffffffffffffffffffff1681600b0160009054906101000a900473ffffffffffffffffffffffffffffffffffffffff1673ffffffffffffffffffffffffffffffffffffffff1614611795576040517f08c379a000000000000000000000000000000000000000000000000000000000815260040180806020018281038252601f8152602001807f4f6e6c7920636f6e74726f6c6c65724f776e65722063616e2063616c6c21210081525060200191505060405180910390fd5b600061179f610ae0565b905061181d6117cd3a6117bf84601101545a614b2390919063ffffffff16565b614bab90919063ffffffff16565b8260120160003373ffffffffffffffffffffffffffffffffffffffff1673ffffffffffffffffffffffffffffffffffffffff16815260200190815260200160002054614b2390919063ffffffff16565b8160120160003373ffffffffffffffffffffffffffffffffffffffff1673ffffffffffffffffffffffffffffffffffffffff1681526020019081526020016000208190555080601001548311156118dc576040517f08c379a00000000000000000000000000000000000000000000000000000000081526004018080602001828103825260108152602001807f496e73756666696369656e74204352560000000000000000000000000000000081525060200191505060405180910390fd5b6118f3838260100154614c3190919063ffffffff16565b81601001819055508060000160019054906101000a900473ffffffffffffffffffffffffffffffffffffffff1673ffffffffffffffffffffffffffffffffffffffff1663095ea7b38260080160009054906101000a900473ffffffffffffffffffffffffffffffffffffffff1660006040518363ffffffff1660e01b8152600401808373ffffffffffffffffffffffffffffffffffffffff16815260200182815260200192505050602060405180830381600087803b1580156119b557600080fd5b505af11580156119c9573d6000803e3d6000fd5b505050506040513d60208110156119df57600080fd5b8101908080519060200190929190505050508060000160019054906101000a900473ffffffffffffffffffffffffffffffffffffffff1673ffffffffffffffffffffffffffffffffffffffff1663095ea7b38260080160009054906101000a900473ffffffffffffffffffffffffffffffffffffffff16856040518363ffffffff1660e01b8152600401808373ffffffffffffffffffffffffffffffffffffffff16815260200182815260200192505050602060405180830381600087803b158015611aaa57600080fd5b505af1158015611abe573d6000803e3d6000fd5b505050506040513d6020811015611ad457600080fd5b8101908080519060200190929190505050508060080160009054906101000a900473ffffffffffffffffffffffffffffffffffffffff1673ffffffffffffffffffffffffffffffffffffffff16634957677c846040518263ffffffff1660e01b815260040180828152602001915050600060405180830381600087803b158015611b5d57600080fd5b505af1158015611b71573d6000803e3d6000fd5b50505050611bdb611b8b3a5a614bab90919063ffffffff16565b8260120160003373ffffffffffffffffffffffffffffffffffffffff1673ffffffffffffffffffffffffffffffffffffffff16815260200190815260200160002054614c3190919063ffffffff16565b8160120160003373ffffffffffffffffffffffffffffffffffffffff1673ffffffffffffffffffffffffffffffffffffffff16815260200190815260200160002081905550505050565b600080611c30610ae0565b90508060040160003373ffffffffffffffffffffffffffffffffffffffff1673ffffffffffffffffffffffffffffffffffffffff16815260200190815260200160002060009054906101000a900460ff16611cf3576040517f08c379a00000000000000000000000000000000000000000000000000000000081526004018080602001828103825260188152602001807f4f6e6c792073747261746567792063616e2063616c6c2121000000000000000081525060200191505060405180910390fd5b6000611cfd610ae0565b905060008160000160019054906101000a900473ffffffffffffffffffffffffffffffffffffffff1673ffffffffffffffffffffffffffffffffffffffff166370a08231306040518263ffffffff1660e01b8152600401808273ffffffffffffffffffffffffffffffffffffffff16815260200191505060206040518083038186803b158015611d8c57600080fd5b505afa158015611da0573d6000803e3d6000fd5b505050506040513d6020811015611db657600080fd5b810190808051906020019092919050505090508160070160009054906101000a900473ffffffffffffffffffffffffffffffffffffffff1673ffffffffffffffffffffffffffffffffffffffff16636a6278428360020160003373ffffffffffffffffffffffffffffffffffffffff1673ffffffffffffffffffffffffffffffffffffffff16815260200190815260200160002060009054906101000a900473ffffffffffffffffffffffffffffffffffffffff166040518263ffffffff1660e01b8152600401808273ffffffffffffffffffffffffffffffffffffffff168152602001915050600060405180830381600087803b158015611eb757600080fd5b505af1158015611ecb573d6000803e3d6000fd5b5050505060008260000160019054906101000a900473ffffffffffffffffffffffffffffffffffffffff1673ffffffffffffffffffffffffffffffffffffffff166370a08231306040518263ffffffff1660e01b8152600401808273ffffffffffffffffffffffffffffffffffffffff16815260200191505060206040518083038186803b158015611f5c57600080fd5b505afa158015611f70573d6000803e3d6000fd5b505050506040513d6020811015611f8657600080fd5b8101908080519060200190929190505050905060008282039050600084600e015485600d0154830281611fb557fe5b049050808560100154018560100181905550600081830390508560000160019054906101000a900473ffffffffffffffffffffffffffffffffffffffff1673ffffffffffffffffffffffffffffffffffffffff1663a9059cbb33836040518363ffffffff1660e01b8152600401808373ffffffffffffffffffffffffffffffffffffffff16815260200182815260200192505050602060405180830381600087803b15801561206357600080fd5b505af1158015612077573d6000803e3d6000fd5b505050506040513d602081101561208d57600080fd5b81019080805190602001909291905050505081830397505050505050505090565b6000806120b9610ae0565b90508060120160008473ffffffffffffffffffffffffffffffffffffffff1673ffffffffffffffffffffffffffffffffffffffff16815260200190815260200160002054915050919050565b600080612110610ae0565b90503373ffffffffffffffffffffffffffffffffffffffff1681600b0160009054906101000a900473ffffffffffffffffffffffffffffffffffffffff1673ffffffffffffffffffffffffffffffffffffffff16146121d7576040517f08c379a000000000000000000000000000000000000000000000000000000000815260040180806020018281038252601f8152602001807f4f6e6c7920636f6e74726f6c6c65724f776e65722063616e2063616c6c21210081525060200191505060405180910390fd5b60006121e1610ae0565b905061225f61220f3a61220184601101545a614b2390919063ffffffff16565b614bab90919063ffffffff16565b8260120160003373ffffffffffffffffffffffffffffffffffffffff1673ffffffffffffffffffffffffffffffffffffffff16815260200190815260200160002054614b2390919063ffffffff16565b8160120160003373ffffffffffffffffffffffffffffffffffffffff1673ffffffffffffffffffffffffffffffffffffffff16815260200190815260200160002081905550838160010160006101000a81548173ffffffffffffffffffffffffffffffffffffffff021916908373ffffffffffffffffffffffffffffffffffffffff16021790555061234d6122fd3a5a614bab90919063ffffffff16565b8260120160003373ffffffffffffffffffffffffffffffffffffffff1673ffffffffffffffffffffffffffffffffffffffff16815260200190815260200160002054614c3190919063ffffffff16565b8160120160003373ffffffffffffffffffffffffffffffffffffffff1673ffffffffffffffffffffffffffffffffffffffff16815260200190815260200160002081905550600192505050919050565b60006123a7610ae0565b90508060040160003373ffffffffffffffffffffffffffffffffffffffff1673ffffffffffffffffffffffffffffffffffffffff16815260200190815260200160002060009054906101000a900460ff168061244e57508060140160003373ffffffffffffffffffffffffffffffffffffffff1673ffffffffffffffffffffffffffffffffffffffff16815260200190815260200160002060009054906101000a900460ff165b6124c0576040517f08c379a00000000000000000000000000000000000000000000000000000000081526004018080602001828103825260208152602001807f4f6e6c79207374726174656779206f7220706f6f6c2063616e2063616c6c212181525060200191505060405180910390fd5b60006124ca610ae0565b9050838160120160008573ffffffffffffffffffffffffffffffffffffffff1673ffffffffffffffffffffffffffffffffffffffff16815260200190815260200160002054018160120160008573ffffffffffffffffffffffffffffffffffffffff1673ffffffffffffffffffffffffffffffffffffffff1681526020019081526020016000208190555050505050565b6000612565610ae0565b90503373ffffffffffffffffffffffffffffffffffffffff1681600b0160009054906101000a900473ffffffffffffffffffffffffffffffffffffffff1673ffffffffffffffffffffffffffffffffffffffff161461262c576040517f08c379a000000000000000000000000000000000000000000000000000000000815260040180806020018281038252601f8152602001807f4f6e6c7920636f6e74726f6c6c65724f776e65722063616e2063616c6c21210081525060200191505060405180910390fd5b6000612636610ae0565b90506126b46126643a61265684601101545a614b2390919063ffffffff16565b614bab90919063ffffffff16565b8260120160003373ffffffffffffffffffffffffffffffffffffffff1673ffffffffffffffffffffffffffffffffffffffff16815260200190815260200160002054614b2390919063ffffffff16565b8160120160003373ffffffffffffffffffffffffffffffffffffffff1673ffffffffffffffffffffffffffffffffffffffff168152602001908152602001600020819055508060080160009054906101000a900473ffffffffffffffffffffffffffffffffffffffff1673ffffffffffffffffffffffffffffffffffffffff1663eff7a612846040518263ffffffff1660e01b815260040180828152602001915050600060405180830381600087803b15801561277057600080fd5b505af1158015612784573d6000803e3d6000fd5b505050506127ee61279e3a5a614bab90919063ffffffff16565b8260120160003373ffffffffffffffffffffffffffffffffffffffff1673ffffffffffffffffffffffffffffffffffffffff16815260200190815260200160002054614c3190919063ffffffff16565b8160120160003373ffffffffffffffffffffffffffffffffffffffff1673ffffffffffffffffffffffffffffffffffffffff16815260200190815260200160002081905550505050565b600080612843610ae0565b9050806011015491505090565b600061285a610ae0565b90508060040160003373ffffffffffffffffffffffffffffffffffffffff1673ffffffffffffffffffffffffffffffffffffffff16815260200190815260200160002060009054906101000a900460ff1661291d576040517f08c379a00000000000000000000000000000000000000000000000000000000081526004018080602001828103825260188152602001807f4f6e6c792073747261746567792063616e2063616c6c2121000000000000000081525060200191505060405180910390fd5b6000612927610ae0565b90508060030160003373ffffffffffffffffffffffffffffffffffffffff1673ffffffffffffffffffffffffffffffffffffffff16815260200190815260200160002060009054906101000a900473ffffffffffffffffffffffffffffffffffffffff1673ffffffffffffffffffffffffffffffffffffffff166323b872dd3330866040518463ffffffff1660e01b8152600401808473ffffffffffffffffffffffffffffffffffffffff1681526020018373ffffffffffffffffffffffffffffffffffffffff1681526020018281526020019350505050602060405180830381600087803b158015612a1957600080fd5b505af1158015612a2d573d6000803e3d6000fd5b505050506040513d6020811015612a4357600080fd5b8101908080519060200190929190505050508060030160003373ffffffffffffffffffffffffffffffffffffffff1673ffffffffffffffffffffffffffffffffffffffff16815260200190815260200160002060009054906101000a900473ffffffffffffffffffffffffffffffffffffffff1673ffffffffffffffffffffffffffffffffffffffff1663095ea7b38260020160003373ffffffffffffffffffffffffffffffffffffffff1673ffffffffffffffffffffffffffffffffffffffff16815260200190815260200160002060009054906101000a900473ffffffffffffffffffffffffffffffffffffffff1660006040518363ffffffff1660e01b8152600401808373ffffffffffffffffffffffffffffffffffffffff16815260200182815260200192505050602060405180830381600087803b158015612b8957600080fd5b505af1158015612b9d573d6000803e3d6000fd5b505050506040513d6020811015612bb357600080fd5b8101908080519060200190929190505050508060030160003373ffffffffffffffffffffffffffffffffffffffff1673ffffffffffffffffffffffffffffffffffffffff16815260200190815260200160002060009054906101000a900473ffffffffffffffffffffffffffffffffffffffff1673ffffffffffffffffffffffffffffffffffffffff1663095ea7b38260020160003373ffffffffffffffffffffffffffffffffffffffff1673ffffffffffffffffffffffffffffffffffffffff16815260200190815260200160002060009054906101000a900473ffffffffffffffffffffffffffffffffffffffff16856040518363ffffffff1660e01b8152600401808373ffffffffffffffffffffffffffffffffffffffff16815260200182815260200192505050602060405180830381600087803b158015612cf857600080fd5b505af1158015612d0c573d6000803e3d6000fd5b505050506040513d6020811015612d2257600080fd5b8101908080519060200190929190505050508060020160003373ffffffffffffffffffffffffffffffffffffffff1673ffffffffffffffffffffffffffffffffffffffff16815260200190815260200160002060009054906101000a900473ffffffffffffffffffffffffffffffffffffffff1673ffffffffffffffffffffffffffffffffffffffff1663b6b55f25846040518263ffffffff1660e01b815260040180828152602001915050600060405180830381600087803b158015612de857600080fd5b505af1158015612dfc573d6000803e3d6000fd5b50505050505050565b600080612e10610ae0565b90503373ffffffffffffffffffffffffffffffffffffffff1681600c0160009054906101000a900473ffffffffffffffffffffffffffffffffffffffff1673ffffffffffffffffffffffffffffffffffffffff1614612ed7576040517f08c379a000000000000000000000000000000000000000000000000000000000815260040180806020018281038252601b8152602001807f4f6e6c792073757065722061646d696e2063616e2063616c6c2121000000000081525060200191505060405180910390fd5b6000612ee1610ae0565b9050612f5f612f0f3a612f0184601101545a614b2390919063ffffffff16565b614bab90919063ffffffff16565b8260120160003373ffffffffffffffffffffffffffffffffffffffff1673ffffffffffffffffffffffffffffffffffffffff16815260200190815260200160002054614b2390919063ffffffff16565b8160120160003373ffffffffffffffffffffffffffffffffffffffff1673ffffffffffffffffffffffffffffffffffffffff168152602001908152602001600020819055508381600d0181905550613013612fc33a5a614bab90919063ffffffff16565b8260120160003373ffffffffffffffffffffffffffffffffffffffff1673ffffffffffffffffffffffffffffffffffffffff16815260200190815260200160002054614c3190919063ffffffff16565b8160120160003373ffffffffffffffffffffffffffffffffffffffff1673ffffffffffffffffffffffffffffffffffffffff16815260200190815260200160002081905550600192505050919050565b600061306d610ae0565b90503373ffffffffffffffffffffffffffffffffffffffff1681600b0160009054906101000a900473ffffffffffffffffffffffffffffffffffffffff1673ffffffffffffffffffffffffffffffffffffffff1614613134576040517f08c379a000000000000000000000000000000000000000000000000000000000815260040180806020018281038252601f8152602001807f4f6e6c7920636f6e74726f6c6c65724f776e65722063616e2063616c6c21210081525060200191505060405180910390fd5b600061313e610ae0565b905080601001548411156131ba576040517f08c379a00000000000000000000000000000000000000000000000000000000081526004018080602001828103825260108152602001807f496e73756666696369656e74204352560000000000000000000000000000000081525060200191505060405180910390fd5b6132366131e63a6131d884601101545a614b2390919063ffffffff16565b614bab90919063ffffffff16565b8260120160003373ffffffffffffffffffffffffffffffffffffffff1673ffffffffffffffffffffffffffffffffffffffff16815260200190815260200160002054614b2390919063ffffffff16565b8160120160003373ffffffffffffffffffffffffffffffffffffffff1673ffffffffffffffffffffffffffffffffffffffff16815260200190815260200160002081905550613292848260100154614c3190919063ffffffff16565b81601001819055508060000160019054906101000a900473ffffffffffffffffffffffffffffffffffffffff1673ffffffffffffffffffffffffffffffffffffffff1663095ea7b38260080160009054906101000a900473ffffffffffffffffffffffffffffffffffffffff1660006040518363ffffffff1660e01b8152600401808373ffffffffffffffffffffffffffffffffffffffff16815260200182815260200192505050602060405180830381600087803b15801561335457600080fd5b505af1158015613368573d6000803e3d6000fd5b505050506040513d602081101561337e57600080fd5b8101908080519060200190929190505050508060000160019054906101000a900473ffffffffffffffffffffffffffffffffffffffff1673ffffffffffffffffffffffffffffffffffffffff1663095ea7b38260080160009054906101000a900473ffffffffffffffffffffffffffffffffffffffff16866040518363ffffffff1660e01b8152600401808373ffffffffffffffffffffffffffffffffffffffff16815260200182815260200192505050602060405180830381600087803b15801561344957600080fd5b505af115801561345d573d6000803e3d6000fd5b505050506040513d602081101561347357600080fd5b8101908080519060200190929190505050508060080160009054906101000a900473ffffffffffffffffffffffffffffffffffffffff1673ffffffffffffffffffffffffffffffffffffffff166365fc387385856040518363ffffffff1660e01b81526004018083815260200182815260200192505050600060405180830381600087803b15801561350457600080fd5b505af1158015613518573d6000803e3d6000fd5b505050506135826135323a5a614bab90919063ffffffff16565b8260120160003373ffffffffffffffffffffffffffffffffffffffff1673ffffffffffffffffffffffffffffffffffffffff16815260200190815260200160002054614c3190919063ffffffff16565b8160120160003373ffffffffffffffffffffffffffffffffffffffff1673ffffffffffffffffffffffffffffffffffffffff1681526020019081526020016000208190555050505050565b6000806135d8610ae0565b90503373ffffffffffffffffffffffffffffffffffffffff1681600b0160009054906101000a900473ffffffffffffffffffffffffffffffffffffffff1673ffffffffffffffffffffffffffffffffffffffff161461369f576040517f08c379a000000000000000000000000000000000000000000000000000000000815260040180806020018281038252601f8152602001807f4f6e6c7920636f6e74726f6c6c65724f776e65722063616e2063616c6c21210081525060200191505060405180910390fd5b60006136a9610ae0565b90506137276136d73a6136c984601101545a614b2390919063ffffffff16565b614bab90919063ffffffff16565b8260120160003373ffffffffffffffffffffffffffffffffffffffff1673ffffffffffffffffffffffffffffffffffffffff16815260200190815260200160002054614b2390919063ffffffff16565b8160120160003373ffffffffffffffffffffffffffffffffffffffff1673ffffffffffffffffffffffffffffffffffffffff1681526020019081526020016000208190555080600601879080600181540180825580915050600190039060005260206000200160009091909190916101000a81548173ffffffffffffffffffffffffffffffffffffffff021916908373ffffffffffffffffffffffffffffffffffffffff160217905550858160020160008973ffffffffffffffffffffffffffffffffffffffff1673ffffffffffffffffffffffffffffffffffffffff16815260200190815260200160002060006101000a81548173ffffffffffffffffffffffffffffffffffffffff021916908373ffffffffffffffffffffffffffffffffffffffff160217905550848160030160008973ffffffffffffffffffffffffffffffffffffffff1673ffffffffffffffffffffffffffffffffffffffff16815260200190815260200160002060006101000a81548173ffffffffffffffffffffffffffffffffffffffff021916908373ffffffffffffffffffffffffffffffffffffffff16021790555060018160040160008973ffffffffffffffffffffffffffffffffffffffff1673ffffffffffffffffffffffffffffffffffffffff16815260200190815260200160002060006101000a81548160ff02191690831515021790555060018160140160008673ffffffffffffffffffffffffffffffffffffffff1673ffffffffffffffffffffffffffffffffffffffff16815260200190815260200160002060006101000a81548160ff0219169083151502179055506139eb61399b3a5a614bab90919063ffffffff16565b8260120160003373ffffffffffffffffffffffffffffffffffffffff1673ffffffffffffffffffffffffffffffffffffffff16815260200190815260200160002054614c3190919063ffffffff16565b8160120160003373ffffffffffffffffffffffffffffffffffffffff1673ffffffffffffffffffffffffffffffffffffffff16815260200190815260200160002081905550600192505050949350505050565b600080613a49610ae0565b9050806010015491505090565b600080613a61610ae0565b90503373ffffffffffffffffffffffffffffffffffffffff1681600b0160009054906101000a900473ffffffffffffffffffffffffffffffffffffffff1673ffffffffffffffffffffffffffffffffffffffff1614613b28576040517f08c379a000000000000000000000000000000000000000000000000000000000815260040180806020018281038252601f8152602001807f4f6e6c7920636f6e74726f6c6c65724f776e65722063616e2063616c6c21210081525060200191505060405180910390fd5b6000613b32610ae0565b9050613bb0613b603a613b5284601101545a614b2390919063ffffffff16565b614bab90919063ffffffff16565b8260120160003373ffffffffffffffffffffffffffffffffffffffff1673ffffffffffffffffffffffffffffffffffffffff16815260200190815260200160002054614b2390919063ffffffff16565b8160120160003373ffffffffffffffffffffffffffffffffffffffff1673ffffffffffffffffffffffffffffffffffffffff1681526020019081526020016000208190555060008160010160009054906101000a900473ffffffffffffffffffffffffffffffffffffffff1673ffffffffffffffffffffffffffffffffffffffff166370a08231306040518263ffffffff1660e01b8152600401808273ffffffffffffffffffffffffffffffffffffffff16815260200191505060206040518083038186803b158015613c8257600080fd5b505afa158015613c96573d6000803e3d6000fd5b505050506040513d6020811015613cac57600080fd5b810190808051906020019092919050505090508160090160009054906101000a900473ffffffffffffffffffffffffffffffffffffffff1673ffffffffffffffffffffffffffffffffffffffff16634e71d92d6040518163ffffffff1660e01b8152600401602060405180830381600087803b158015613d2b57600080fd5b505af1158015613d3f573d6000803e3d6000fd5b505050506040513d6020811015613d5557600080fd5b81019080805190602001909291905050505060008260010160009054906101000a900473ffffffffffffffffffffffffffffffffffffffff1673ffffffffffffffffffffffffffffffffffffffff166370a08231306040518263ffffffff1660e01b8152600401808273ffffffffffffffffffffffffffffffffffffffff16815260200191505060206040518083038186803b158015613df457600080fd5b505afa158015613e08573d6000803e3d6000fd5b505050506040513d6020811015613e1e57600080fd5b81019080805190602001909291905050509050600082820390508360000160019054906101000a900473ffffffffffffffffffffffffffffffffffffffff1673ffffffffffffffffffffffffffffffffffffffff166370a08231306040518263ffffffff1660e01b8152600401808273ffffffffffffffffffffffffffffffffffffffff16815260200191505060206040518083038186803b158015613ec357600080fd5b505afa158015613ed7573d6000803e3d6000fd5b505050506040513d6020811015613eed57600080fd5b81019080805190602001909291905050509250613f0981614c7b565b8360000160019054906101000a900473ffffffffffffffffffffffffffffffffffffffff1673ffffffffffffffffffffffffffffffffffffffff166370a08231306040518263ffffffff1660e01b8152600401808273ffffffffffffffffffffffffffffffffffffffff16815260200191505060206040518083038186803b158015613f9457600080fd5b505afa158015613fa8573d6000803e3d6000fd5b505050506040513d6020811015613fbe57600080fd5b810190808051906020019092919050505091506000838303905080856010015401856010018190555061404d613ffd3a5a614bab90919063ffffffff16565b8660120160003373ffffffffffffffffffffffffffffffffffffffff1673ffffffffffffffffffffffffffffffffffffffff16815260200190815260200160002054614c3190919063ffffffff16565b8560120160003373ffffffffffffffffffffffffffffffffffffffff1673ffffffffffffffffffffffffffffffffffffffff1681526020019081526020016000208190555080965050505050505090565b60006140a8610ae0565b90503373ffffffffffffffffffffffffffffffffffffffff1681600b0160009054906101000a900473ffffffffffffffffffffffffffffffffffffffff1673ffffffffffffffffffffffffffffffffffffffff161461416f576040517f08c379a000000000000000000000000000000000000000000000000000000000815260040180806020018281038252601f8152602001807f4f6e6c7920636f6e74726f6c6c65724f776e65722063616e2063616c6c21210081525060200191505060405180910390fd5b6000614179610ae0565b90506141f76141a73a61419984601101545a614b2390919063ffffffff16565b614bab90919063ffffffff16565b8260120160003373ffffffffffffffffffffffffffffffffffffffff1673ffffffffffffffffffffffffffffffffffffffff16815260200190815260200160002054614b2390919063ffffffff16565b8160120160003373ffffffffffffffffffffffffffffffffffffffff1673ffffffffffffffffffffffffffffffffffffffff1681526020019081526020016000208190555060008160000160019054906101000a900473ffffffffffffffffffffffffffffffffffffffff1673ffffffffffffffffffffffffffffffffffffffff166370a08231306040518263ffffffff1660e01b8152600401808273ffffffffffffffffffffffffffffffffffffffff16815260200191505060206040518083038186803b1580156142c957600080fd5b505afa1580156142dd573d6000803e3d6000fd5b505050506040513d60208110156142f357600080fd5b810190808051906020019092919050505090508160080160009054906101000a900473ffffffffffffffffffffffffffffffffffffffff1673ffffffffffffffffffffffffffffffffffffffff16633ccfd60b6040518163ffffffff1660e01b8152600401600060405180830381600087803b15801561437257600080fd5b505af1158015614386573d6000803e3d6000fd5b5050505060008260000160019054906101000a900473ffffffffffffffffffffffffffffffffffffffff1673ffffffffffffffffffffffffffffffffffffffff166370a08231306040518263ffffffff1660e01b8152600401808273ffffffffffffffffffffffffffffffffffffffff16815260200191505060206040518083038186803b15801561441757600080fd5b505afa15801561442b573d6000803e3d6000fd5b505050506040513d602081101561444157600080fd5b8101908080519060200190929190505050905060008282039050614472818560100154614b2390919063ffffffff16565b84601001819055506144e06144903a5a614bab90919063ffffffff16565b8560120160003373ffffffffffffffffffffffffffffffffffffffff1673ffffffffffffffffffffffffffffffffffffffff16815260200190815260200160002054614c3190919063ffffffff16565b8460120160003373ffffffffffffffffffffffffffffffffffffffff1673ffffffffffffffffffffffffffffffffffffffff168152602001908152602001600020819055505050505050565b6000614536610ae0565b90508060000160009054906101000a900460ff16156145bd576040517f08c379a00000000000000000000000000000000000000000000000000000000081526004018080602001828103825260138152602001807f416c726561647920696e697469616c697a65640000000000000000000000000081525060200191505060405180910390fd5b8c8160060190805190602001906145d5929190615310565b5060005b816006018054905081101561488d578b81815181106145f457fe5b602002602001015182600201600084600601848154811061461157fe5b9060005260206000200160009054906101000a900473ffffffffffffffffffffffffffffffffffffffff1673ffffffffffffffffffffffffffffffffffffffff1673ffffffffffffffffffffffffffffffffffffffff16815260200190815260200160002060006101000a81548173ffffffffffffffffffffffffffffffffffffffff021916908373ffffffffffffffffffffffffffffffffffffffff1602179055508a81815181106146c057fe5b60200260200101518260030160008460060184815481106146dd57fe5b9060005260206000200160009054906101000a900473ffffffffffffffffffffffffffffffffffffffff1673ffffffffffffffffffffffffffffffffffffffff1673ffffffffffffffffffffffffffffffffffffffff16815260200190815260200160002060006101000a81548173ffffffffffffffffffffffffffffffffffffffff021916908373ffffffffffffffffffffffffffffffffffffffff160217905550600182600401600084600601848154811061479757fe5b9060005260206000200160009054906101000a900473ffffffffffffffffffffffffffffffffffffffff1673ffffffffffffffffffffffffffffffffffffffff1673ffffffffffffffffffffffffffffffffffffffff16815260200190815260200160002060006101000a81548160ff02191690831515021790555060018260140160008f848151811061482757fe5b602002602001015173ffffffffffffffffffffffffffffffffffffffff1673ffffffffffffffffffffffffffffffffffffffff16815260200190815260200160002060006101000a81548160ff02191690831515021790555080806001019150506145d9565b50888160070160006101000a81548173ffffffffffffffffffffffffffffffffffffffff021916908373ffffffffffffffffffffffffffffffffffffffff160217905550878160000160016101000a81548173ffffffffffffffffffffffffffffffffffffffff021916908373ffffffffffffffffffffffffffffffffffffffff160217905550868160080160006101000a81548173ffffffffffffffffffffffffffffffffffffffff021916908373ffffffffffffffffffffffffffffffffffffffff160217905550858160090160006101000a81548173ffffffffffffffffffffffffffffffffffffffff021916908373ffffffffffffffffffffffffffffffffffffffff1602179055508481600a0160006101000a81548173ffffffffffffffffffffffffffffffffffffffff021916908373ffffffffffffffffffffffffffffffffffffffff160217905550836000815181106149ea57fe5b602002602001015181600b0160006101000a81548173ffffffffffffffffffffffffffffffffffffffff021916908373ffffffffffffffffffffffffffffffffffffffff16021790555083600181518110614a4157fe5b602002602001015181600c0160006101000a81548173ffffffffffffffffffffffffffffffffffffffff021916908373ffffffffffffffffffffffffffffffffffffffff1602179055508281600d018190555061271081600e0181905550818160010160006101000a81548173ffffffffffffffffffffffffffffffffffffffff021916908373ffffffffffffffffffffffffffffffffffffffff160217905550618ca081601101819055508c5181600f018190555060018160000160006101000a81548160ff02191690831515021790555050505050505050505050505050565b600080828401905083811015614ba1576040517f08c379a000000000000000000000000000000000000000000000000000000000815260040180806020018281038252601b8152602001807f536166654d6174683a206164646974696f6e206f766572666c6f77000000000081525060200191505060405180910390fd5b8091505092915050565b600080831415614bbe5760009050614c2b565b6000828402905082848281614bcf57fe5b0414614c26576040517f08c379a00000000000000000000000000000000000000000000000000000000081526004018080602001828103825260218152602001806153b86021913960400191505060405180910390fd5b809150505b92915050565b6000614c7383836040518060400160405280601f81526020017f536166654d6174683a207375627472616374696f6e20756e646572666c6f7700815250615250565b905092915050565b6000614c85610ae0565b90508060000160019054906101000a900473ffffffffffffffffffffffffffffffffffffffff1673ffffffffffffffffffffffffffffffffffffffff1663095ea7b382600a0160009054906101000a900473ffffffffffffffffffffffffffffffffffffffff1660006040518363ffffffff1660e01b8152600401808373ffffffffffffffffffffffffffffffffffffffff16815260200182815260200192505050602060405180830381600087803b158015614d4157600080fd5b505af1158015614d55573d6000803e3d6000fd5b505050506040513d6020811015614d6b57600080fd5b8101908080519060200190929190505050508060000160019054906101000a900473ffffffffffffffffffffffffffffffffffffffff1673ffffffffffffffffffffffffffffffffffffffff1663095ea7b382600a0160009054906101000a900473ffffffffffffffffffffffffffffffffffffffff16846040518363ffffffff1660e01b8152600401808373ffffffffffffffffffffffffffffffffffffffff16815260200182815260200192505050602060405180830381600087803b158015614e3657600080fd5b505af1158015614e4a573d6000803e3d6000fd5b505050506040513d6020811015614e6057600080fd5b8101908080519060200190929190505050506000600367ffffffffffffffff81118015614e8c57600080fd5b50604051908082528060200260200182016040528015614ebb5781602001602082028036833780820191505090505b5090508160010160009054906101000a900473ffffffffffffffffffffffffffffffffffffffff1681600081518110614ef057fe5b602002602001019073ffffffffffffffffffffffffffffffffffffffff16908173ffffffffffffffffffffffffffffffffffffffff168152505081600a0160009054906101000a900473ffffffffffffffffffffffffffffffffffffffff1673ffffffffffffffffffffffffffffffffffffffff1663ad5c46486040518163ffffffff1660e01b815260040160206040518083038186803b158015614f9457600080fd5b505afa158015614fa8573d6000803e3d6000fd5b505050506040513d6020811015614fbe57600080fd5b810190808051906020019092919050505081600181518110614fdc57fe5b602002602001019073ffffffffffffffffffffffffffffffffffffffff16908173ffffffffffffffffffffffffffffffffffffffff16815250508160000160019054906101000a900473ffffffffffffffffffffffffffffffffffffffff168160028151811061504857fe5b602002602001019073ffffffffffffffffffffffffffffffffffffffff16908173ffffffffffffffffffffffffffffffffffffffff168152505081600a0160009054906101000a900473ffffffffffffffffffffffffffffffffffffffff1673ffffffffffffffffffffffffffffffffffffffff166338ed1739846000843061070842016040518663ffffffff1660e01b815260040180868152602001858152602001806020018473ffffffffffffffffffffffffffffffffffffffff168152602001838152602001828103825285818151815260200191508051906020019060200280838360005b8381101561514c578082015181840152602081019050615131565b505050509050019650505050505050600060405180830381600087803b15801561517557600080fd5b505af1158015615189573d6000803e3d6000fd5b505050506040513d6000823e3d601f19601f8201168201806040525060208110156151b357600080fd5b81019080805160405193929190846401000000008211156151d357600080fd5b838201915060208201858111156151e957600080fd5b825186602082028301116401000000008211171561520657600080fd5b8083526020830192505050908051906020019060200280838360005b8381101561523d578082015181840152602081019050615222565b5050505090500160405250505050505050565b60008383111582906152fd576040517f08c379a00000000000000000000000000000000000000000000000000000000081526004018080602001828103825283818151815260200191508051906020019080838360005b838110156152c25780820151818401526020810190506152a7565b50505050905090810190601f1680156152ef5780820380516001836020036101000a031916815260200191505b509250505060405180910390fd5b5060008385039050809150509392505050565b828054828255906000526020600020908101928215615389579160200282015b828111156153885782518260006101000a81548173ffffffffffffffffffffffffffffffffffffffff021916908373ffffffffffffffffffffffffffffffffffffffff16021790555091602001919060010190615330565b5b509050615396919061539a565b5090565b5b808211156153b357600081600090555060010161539b565b509056fe536166654d6174683a206d756c7469706c69636174696f6e206f766572666c6f77446f6e74206861766520656e6f7567682066756e642c20547279206c617465722121a2646970667358221220acd3cad0767d1c421c86143ccf98cf8386e73814e5ea252b77fa509d481563fe64736f6c63430007060033",
  "immutableReferences": {},
  "source": "// SPDX-License-Identifier: UNLICENSED\r\npragma solidity ^0.7.6;\r\nimport \"../storage/ControllerStorage.sol\";\r\nimport \"../libraries/SafeMath.sol\";\r\n\r\ncontract Controller is ControllerStorageV1 {\r\n    \r\n    using SafeMath for uint256;\r\n    \r\n  \r\n/****MODIFIERS****/\r\n    modifier onlyOwner(){\r\n        ControllerStorage storage cs = controllerStorage();\r\n        require(cs.controllerOwner == msg.sender, \"Only controllerOwner can call!!\");\r\n        _;\r\n    }\r\n\r\n    modifier onlySuperOwner(){\r\n        ControllerStorage storage cs = controllerStorage();\r\n        require(cs.controllerSuperOwner == msg.sender, \"Only super admin can call!!\");\r\n        _;\r\n    }\r\n\r\n    modifier onlyStrategy(){\r\n        ControllerStorage storage cs = controllerStorage();\r\n        require(cs.isStratgey[msg.sender], \"Only strategy can call!!\");\r\n        _;\r\n    }\r\n    \r\n    modifier onlyStrategyOrPool(){\r\n        ControllerStorage storage cs = controllerStorage();\r\n        require(cs.isStratgey[msg.sender] || cs.isPool[msg.sender], \"Only strategy or pool can call!!\");\r\n        _;\r\n    }\r\n\r\n/****CONSTRUCTOR****/\r\n    function initialize(\r\n        address[] memory _depositStrategies,\r\n        address[] memory _pools,\r\n        Gauge[] memory _gauges, \r\n        IERC20[] memory _strategyLPToken,\r\n        Minter _minter, \r\n        IERC20 _crvToken, \r\n        VotingEscrow _votingEscrow,\r\n        FeeDistributor _feeDistributor,\r\n        UniswapV2Router _uniswapRouter,\r\n        address[] memory _owners,\r\n        uint256 _crvLockPercent,\r\n        IERC20 _adminFeeToken\r\n    ) public{\r\n        ControllerStorage storage cs = controllerStorage();\r\n        require(!cs.initialized, 'Already initialized');\r\n        cs.depositStrategies = _depositStrategies;\r\n\r\n        for(uint256 i = 0; i < cs.depositStrategies.length; i++){\r\n            cs.strategyGauges[cs.depositStrategies[i]] = _gauges[i];\r\n            cs.strategyLPTokens[cs.depositStrategies[i]] = _strategyLPToken[i];\r\n            cs.isStratgey[cs.depositStrategies[i]] = true;\r\n            cs.isPool[_pools[i]] = true;\r\n        }\r\n\r\n        cs.minter = _minter;\r\n        cs.crvToken = _crvToken;\r\n        cs.votingEscrow = _votingEscrow;\r\n        cs.feeDistributor = _feeDistributor;\r\n        cs.uniswapRouter = _uniswapRouter; \r\n        cs.controllerOwner = _owners[0];\r\n        cs.controllerSuperOwner = _owners[1];\r\n        cs.crvLockPercent = _crvLockPercent;\r\n        cs.DENOMINATOR = 10000;\r\n        cs.adminFeeToken = _adminFeeToken;\r\n        cs.defaultGas = 21000 + 15000;\r\n        cs.totalStrategies = _depositStrategies.length;\r\n        cs.initialized = true;\r\n    }\r\n\r\n/****CONTROLLER OWNER FUNCTIONS****/\r\n\r\n    function updateOwners(address newOwner, address newSuperOwner) external onlySuperOwner() returns(bool){\r\n        ControllerStorage storage cs = controllerStorage();\r\n        cs.claimableGas[msg.sender] = cs.claimableGas[msg.sender].add((gasleft().add(cs.defaultGas)).mul(tx.gasprice));\r\n        cs.controllerOwner = newOwner;\r\n        cs.controllerSuperOwner = newSuperOwner;\r\n        cs.claimableGas[msg.sender] = cs.claimableGas[msg.sender].sub(gasleft().mul(tx.gasprice)); \r\n        return true;\r\n    } \r\n\r\n    function addNewStrategy(address _strategy, Gauge _gauge, IERC20 _strategyLPToken, address _pool) external onlyOwner() returns(bool){\r\n        ControllerStorage storage cs = controllerStorage();\r\n        cs.claimableGas[msg.sender] = cs.claimableGas[msg.sender].add((gasleft().add(cs.defaultGas)).mul(tx.gasprice));\r\n        cs.depositStrategies.push(_strategy);\r\n        cs.strategyGauges[_strategy] = _gauge;\r\n        cs.strategyLPTokens[_strategy] = _strategyLPToken;\r\n        cs.isStratgey[_strategy] = true;\r\n        cs.isPool[_pool] = true;\r\n        cs.claimableGas[msg.sender] = cs.claimableGas[msg.sender].sub(gasleft().mul(tx.gasprice)); \r\n        return true;\r\n    } \r\n\r\n    function updateAdminFeeToken(IERC20 _adminFeeToken) external onlyOwner() returns(bool){\r\n        ControllerStorage storage cs = controllerStorage();\r\n        cs.claimableGas[msg.sender] = cs.claimableGas[msg.sender].add((gasleft().add(cs.defaultGas)).mul(tx.gasprice));\r\n        cs.adminFeeToken = _adminFeeToken;\r\n        cs.claimableGas[msg.sender] = cs.claimableGas[msg.sender].sub(gasleft().mul(tx.gasprice)); \r\n        return true;\r\n    } \r\n\r\n    function createLock(uint256 _value, uint256 _unlockTime) external onlyOwner() {\r\n        ControllerStorage storage cs = controllerStorage();\r\n        require(_value <= cs.availableCRVToLock, 'Insufficient CRV' );\r\n        cs.claimableGas[msg.sender] = cs.claimableGas[msg.sender].add((gasleft().add(cs.defaultGas)).mul(tx.gasprice));\r\n        cs.availableCRVToLock = cs.availableCRVToLock.sub(_value);\r\n        cs.crvToken.approve(address(cs.votingEscrow), 0);\r\n        cs.crvToken.approve(address(cs.votingEscrow), _value);\r\n        VotingEscrow(cs.votingEscrow).create_lock(_value, _unlockTime);\r\n        cs.claimableGas[msg.sender] = cs.claimableGas[msg.sender].sub(gasleft().mul(tx.gasprice)); \r\n    } \r\n    \r\n    function releaseLock() external onlyOwner() {\r\n        ControllerStorage storage cs = controllerStorage();\r\n        cs.claimableGas[msg.sender] = cs.claimableGas[msg.sender].add((gasleft().add(cs.defaultGas)).mul(tx.gasprice));\r\n        uint256 oldBalance = cs.crvToken.balanceOf(address(this));\r\n        VotingEscrow(cs.votingEscrow).withdraw();  \r\n        uint256 newBalance = cs.crvToken.balanceOf(address(this));\r\n        uint256 crvReceived = newBalance - oldBalance;\r\n        cs.availableCRVToLock = cs.availableCRVToLock.add(crvReceived);\r\n        cs.claimableGas[msg.sender] = cs.claimableGas[msg.sender].sub(gasleft().mul(tx.gasprice)); \r\n    }\r\n    \r\n    function increaseLockAmount(uint256 _value) external onlyOwner() {\r\n        ControllerStorage storage cs = controllerStorage();\r\n        cs.claimableGas[msg.sender] = cs.claimableGas[msg.sender].add((gasleft().add(cs.defaultGas)).mul(tx.gasprice));\r\n        require(_value <= cs.availableCRVToLock, 'Insufficient CRV' );\r\n        cs.availableCRVToLock = cs.availableCRVToLock.sub(_value);\r\n        cs.crvToken.approve(address(cs.votingEscrow), 0);\r\n        cs.crvToken.approve(address(cs.votingEscrow), _value);\r\n        VotingEscrow(cs.votingEscrow).increase_amount(_value);\r\n        cs.claimableGas[msg.sender] = cs.claimableGas[msg.sender].sub(gasleft().mul(tx.gasprice)); \r\n    }\r\n\r\n    function increaseUnlockTime(uint256 _value) external onlyOwner() {\r\n        ControllerStorage storage cs = controllerStorage();\r\n        cs.claimableGas[msg.sender] = cs.claimableGas[msg.sender].add((gasleft().add(cs.defaultGas)).mul(tx.gasprice));\r\n        VotingEscrow(cs.votingEscrow).increase_unlock_time(_value);\r\n        cs.claimableGas[msg.sender] = cs.claimableGas[msg.sender].sub(gasleft().mul(tx.gasprice)); \r\n    }\r\n\r\n    function claimAndConvertAdminFees() external onlyOwner() returns(uint256){\r\n        ControllerStorage storage cs = controllerStorage();\r\n        cs.claimableGas[msg.sender] = cs.claimableGas[msg.sender].add((gasleft().add(cs.defaultGas)).mul(tx.gasprice));\r\n        uint256 oldBalance = cs.adminFeeToken.balanceOf(address(this));\r\n        FeeDistributor(cs.feeDistributor).claim();\r\n        uint256 newBalance = cs.adminFeeToken.balanceOf(address(this));\r\n        uint256 adminFeeReceived = newBalance - oldBalance;\r\n        oldBalance = cs.crvToken.balanceOf(address(this));\r\n        convertToCRV(adminFeeReceived);\r\n        newBalance = cs.crvToken.balanceOf(address(this));\r\n        uint256 crvReceived = newBalance - oldBalance;\r\n        cs.availableCRVToLock = cs.availableCRVToLock + crvReceived;\r\n        cs.claimableGas[msg.sender] = cs.claimableGas[msg.sender].sub(gasleft().mul(tx.gasprice)); \r\n        return crvReceived;\r\n    }\r\n\r\n    function updateLockPercentage(uint256 _newPercent) external onlySuperOwner() returns(bool){\r\n        ControllerStorage storage cs = controllerStorage();\r\n        cs.claimableGas[msg.sender] = cs.claimableGas[msg.sender].add((gasleft().add(cs.defaultGas)).mul(tx.gasprice));\r\n        cs.crvLockPercent = _newPercent;\r\n        cs.claimableGas[msg.sender] = cs.claimableGas[msg.sender].sub(gasleft().mul(tx.gasprice)); \r\n        return true;\r\n    } \r\n    \r\n\r\n/****STRATEGY FUNCTIONS****/\r\n\r\n    function stake(uint256 amount) external onlyStrategy(){\r\n        ControllerStorage storage cs = controllerStorage();\r\n        cs.strategyLPTokens[msg.sender].transferFrom(msg.sender, address(this), amount);\r\n        cs.strategyLPTokens[msg.sender].approve(address(cs.strategyGauges[msg.sender]), 0);\r\n        cs.strategyLPTokens[msg.sender].approve(address(cs.strategyGauges[msg.sender]), amount);\r\n        cs.strategyGauges[msg.sender].deposit(amount);  \r\n    }\r\n    \r\n    function unstake(uint256 amount) external onlyStrategy() returns(uint256){\r\n        ControllerStorage storage cs = controllerStorage();\r\n        cs.strategyGauges[msg.sender].withdraw(amount);\r\n        cs.strategyLPTokens[msg.sender].transfer(msg.sender, amount);\r\n        return amount;\r\n    }\r\n\r\n   function unstakeAll() external onlyStrategy() returns(uint256){\r\n        ControllerStorage storage cs = controllerStorage();\r\n        uint256 unstakedAmount = cs.strategyGauges[msg.sender].balanceOf(address(this));\r\n        cs.strategyGauges[msg.sender].withdraw(unstakedAmount);\r\n        cs.strategyLPTokens[msg.sender].transfer(msg.sender, unstakedAmount);\r\n        return unstakedAmount;\r\n    }\r\n\r\n    function claimCRV() external onlyStrategy() returns(uint256){\r\n        ControllerStorage storage cs = controllerStorage();\r\n        uint256 oldBalance = cs.crvToken.balanceOf(address(this));\r\n        Minter(cs.minter).mint(address(cs.strategyGauges[msg.sender]));\r\n        uint256 newBalance = cs.crvToken.balanceOf(address(this));\r\n        uint256 crvReceived = newBalance - oldBalance;\r\n        uint256 crvToLock = crvReceived * cs.crvLockPercent / cs.DENOMINATOR;\r\n        cs.availableCRVToLock = cs.availableCRVToLock + crvToLock;\r\n        uint256 crvToSend = crvReceived - crvToLock;\r\n        cs.crvToken.transfer(msg.sender, crvToSend);\r\n        return crvReceived - crvToLock;\r\n    }\r\n\r\n    function updateGasUsed(uint256 _gasUsed, address adminAddress) public onlyStrategyOrPool() {\r\n        ControllerStorage storage cs = controllerStorage();\r\n        cs.claimableGas[adminAddress] = cs.claimableGas[adminAddress] + _gasUsed;\r\n    }\r\n\r\n/****OPEN FUNCTIONS****/\r\n\r\n    receive() external payable {\r\n        ControllerStorage storage cs = controllerStorage();\r\n        cs.ethReceived[msg.sender] = cs.ethReceived[msg.sender] + msg.value;\r\n    }\r\n    \r\n    function claimGasFee() public{\r\n        ControllerStorage storage cs = controllerStorage();     \r\n        uint256 gasAtStart = (gasleft().add(cs.defaultGas)).mul(tx.gasprice);\r\n        uint256 claimableAmount = cs.claimableGas[msg.sender];\r\n        require(claimableAmount > 0, \"Nothing to claim\");\r\n        require(address(this).balance >= claimableAmount, \"Dont have enough fund, Try later!!\");\r\n        cs.claimableGas[msg.sender] = 0;\r\n        msg.sender.transfer(claimableAmount);\r\n        uint256 gasAtEnd = gasleft().mul(tx.gasprice);\r\n        cs.claimableGas[msg.sender] = gasAtStart - gasAtEnd;\r\n    }\r\n/***INTERNAL FUNCTION****/\r\n\r\n    function convertToCRV(uint256 amount) internal {\r\n        ControllerStorage storage cs = controllerStorage();\r\n        cs.crvToken.approve(address(cs.uniswapRouter), 0);\r\n        cs.crvToken.approve(address(cs.uniswapRouter), amount);\r\n        address[] memory path = new address[](3);\r\n        path[0] = address(cs.adminFeeToken);\r\n        path[1] = cs.uniswapRouter.WETH();\r\n        path[2] = address(cs.crvToken);\r\n        \r\n        cs.uniswapRouter.swapExactTokensForTokens(\r\n            amount, \r\n            uint256(0), \r\n            path, \r\n            address(this), \r\n            block.timestamp + 1800\r\n        );\r\n    }\r\n\r\n/****VIEW FUNCTIONS****/\r\n\r\n    function defaultGas() public view returns(uint256){\r\n        ControllerStorage storage cs = controllerStorage();\r\n        return cs.defaultGas;\r\n    }\r\n\r\n    function availableCRVToLock() public view returns(uint256){\r\n        ControllerStorage storage cs = controllerStorage();\r\n        return cs.availableCRVToLock;\r\n    }\r\n\r\n    function gasUsed(address account) public view returns(uint256){\r\n        ControllerStorage storage cs = controllerStorage();\r\n        return cs.claimableGas[account];\r\n    }\r\n\r\n    function crvLockPercent() public view returns(uint256){\r\n        ControllerStorage storage cs = controllerStorage();\r\n        return cs.crvLockPercent;\r\n    }\r\n\r\n}",
  "sourcePath": "E:/Projects/AdvancedPool/Controller/contracts/facets/Controller.sol",
  "compiler": {
    "name": "solc",
    "version": "0.7.6+commit.7338295f.Emscripten.clang"
  },
  "schemaVersion": "3.3.2",
  "updatedAt": "2021-06-17T09:47:47.782Z",
  "networkType": "ethereum",
  "devdoc": {
    "kind": "dev",
    "methods": {},
    "version": 1
  },
  "userdoc": {
    "kind": "user",
    "methods": {},
    "version": 1
  }
}