{
  "contractName": "Controller",
  "abi": [
    {
      "stateMutability": "payable",
      "type": "receive",
      "payable": true
    },
    {
      "inputs": [
        {
          "internalType": "address[]",
          "name": "_depositStrategies",
          "type": "address[]"
        },
        {
          "internalType": "address[]",
          "name": "_pools",
          "type": "address[]"
        },
        {
          "internalType": "contract Gauge[]",
          "name": "_gauges",
          "type": "address[]"
        },
        {
          "internalType": "contract IERC20[]",
          "name": "_strategyLPToken",
          "type": "address[]"
        },
        {
          "internalType": "contract Minter",
          "name": "_minter",
          "type": "address"
        },
        {
          "internalType": "contract IERC20",
          "name": "_crvToken",
          "type": "address"
        },
        {
          "internalType": "contract VotingEscrow",
          "name": "_votingEscrow",
          "type": "address"
        },
        {
          "internalType": "contract FeeDistributor",
          "name": "_feeDistributor",
          "type": "address"
        },
        {
          "internalType": "contract UniswapV2Router",
          "name": "_uniswapRouter",
          "type": "address"
        },
        {
          "internalType": "address",
          "name": "_controllerOwner",
          "type": "address"
        },
        {
          "internalType": "uint256",
          "name": "_crvLockPercent",
          "type": "uint256"
        },
        {
          "internalType": "contract IERC20",
          "name": "_adminFeeToken",
          "type": "address"
        }
      ],
      "name": "initialize",
      "outputs": [],
      "stateMutability": "nonpayable",
      "type": "function"
    },
    {
      "inputs": [
        {
          "internalType": "address",
          "name": "newOwner",
          "type": "address"
        }
      ],
      "name": "updateOwner",
      "outputs": [
        {
          "internalType": "bool",
          "name": "",
          "type": "bool"
        }
      ],
      "stateMutability": "nonpayable",
      "type": "function"
    },
    {
      "inputs": [
        {
          "internalType": "address",
          "name": "_strategy",
          "type": "address"
        },
        {
          "internalType": "contract Gauge",
          "name": "_gauge",
          "type": "address"
        },
        {
          "internalType": "contract IERC20",
          "name": "_strategyLPToken",
          "type": "address"
        },
        {
          "internalType": "address",
          "name": "_pool",
          "type": "address"
        }
      ],
      "name": "addNewStrategy",
      "outputs": [
        {
          "internalType": "bool",
          "name": "",
          "type": "bool"
        }
      ],
      "stateMutability": "nonpayable",
      "type": "function"
    },
    {
      "inputs": [
        {
          "internalType": "contract IERC20",
          "name": "_adminFeeToken",
          "type": "address"
        }
      ],
      "name": "updateAdminFeeToken",
      "outputs": [
        {
          "internalType": "bool",
          "name": "",
          "type": "bool"
        }
      ],
      "stateMutability": "nonpayable",
      "type": "function"
    },
    {
      "inputs": [
        {
          "internalType": "uint256",
          "name": "_value",
          "type": "uint256"
        },
        {
          "internalType": "uint256",
          "name": "_unlockTime",
          "type": "uint256"
        }
      ],
      "name": "createLock",
      "outputs": [],
      "stateMutability": "nonpayable",
      "type": "function"
    },
    {
      "inputs": [],
      "name": "releaseLock",
      "outputs": [],
      "stateMutability": "nonpayable",
      "type": "function"
    },
    {
      "inputs": [
        {
          "internalType": "uint256",
          "name": "_value",
          "type": "uint256"
        }
      ],
      "name": "increaseLockAmount",
      "outputs": [],
      "stateMutability": "nonpayable",
      "type": "function"
    },
    {
      "inputs": [
        {
          "internalType": "uint256",
          "name": "_value",
          "type": "uint256"
        }
      ],
      "name": "increaseUnlockTime",
      "outputs": [],
      "stateMutability": "nonpayable",
      "type": "function"
    },
    {
      "inputs": [],
      "name": "claimAndConvertAdminFees",
      "outputs": [
        {
          "internalType": "uint256",
          "name": "",
          "type": "uint256"
        }
      ],
      "stateMutability": "nonpayable",
      "type": "function"
    },
    {
      "inputs": [
        {
          "internalType": "uint256",
          "name": "_newPercent",
          "type": "uint256"
        }
      ],
      "name": "updateLockPercentage",
      "outputs": [
        {
          "internalType": "bool",
          "name": "",
          "type": "bool"
        }
      ],
      "stateMutability": "nonpayable",
      "type": "function"
    },
    {
      "inputs": [
        {
          "internalType": "uint256",
          "name": "amount",
          "type": "uint256"
        }
      ],
      "name": "stake",
      "outputs": [],
      "stateMutability": "nonpayable",
      "type": "function"
    },
    {
      "inputs": [],
      "name": "unstake",
      "outputs": [
        {
          "internalType": "uint256",
          "name": "",
          "type": "uint256"
        }
      ],
      "stateMutability": "nonpayable",
      "type": "function"
    },
    {
      "inputs": [],
      "name": "claimCRV",
      "outputs": [
        {
          "internalType": "uint256",
          "name": "",
          "type": "uint256"
        }
      ],
      "stateMutability": "nonpayable",
      "type": "function"
    },
    {
      "inputs": [
        {
          "internalType": "uint256",
          "name": "_gasUsed",
          "type": "uint256"
        }
      ],
      "name": "updateGasUsed",
      "outputs": [],
      "stateMutability": "nonpayable",
      "type": "function"
    },
    {
      "inputs": [],
      "name": "claimGasFee",
      "outputs": [],
      "stateMutability": "nonpayable",
      "type": "function"
    },
    {
      "inputs": [],
      "name": "defaultGas",
      "outputs": [
        {
          "internalType": "uint256",
          "name": "",
          "type": "uint256"
        }
      ],
      "stateMutability": "view",
      "type": "function",
      "constant": true
    },
    {
      "inputs": [],
      "name": "availableCRVToLock",
      "outputs": [
        {
          "internalType": "uint256",
          "name": "",
          "type": "uint256"
        }
      ],
      "stateMutability": "view",
      "type": "function",
      "constant": true
    },
    {
      "inputs": [
        {
          "internalType": "address",
          "name": "account",
          "type": "address"
        }
      ],
      "name": "gasUsed",
      "outputs": [
        {
          "internalType": "uint256",
          "name": "",
          "type": "uint256"
        }
      ],
      "stateMutability": "view",
      "type": "function",
      "constant": true
    },
    {
      "inputs": [],
      "name": "crvLockPercent",
      "outputs": [
        {
          "internalType": "uint256",
          "name": "",
          "type": "uint256"
        }
      ],
      "stateMutability": "view",
      "type": "function",
      "constant": true
    }
  ],
  "bytecode": "0x608060405234801561001057600080fd5b50614ab9806100206000396000f3fe6080604052600436106101185760003560e01c806384e9a901116100a0578063d18c895b11610064578063d18c895b14610532578063d65bc1491461089e578063d748ae4214610965578063d759ec2014610990578063eda54ad2146109bb576101b5565b806384e9a901146103cf578063880cdc31146103fa578063a694fc3a14610461578063b07c93a51461049c578063b52c05fe146104ed576101b5565b806348f8f6d9116100e757806348f8f6d9146102625780634959ce171461028d5780634bed5e18146102f257806357cfd501146103595780637c616fe614610394576101b5565b806329562dea146101ba5780632def6620146101e55780632e30e85b14610210578063403f444714610227576101b5565b366101b55760006101276109d2565b9050348160120160003373ffffffffffffffffffffffffffffffffffffffff1673ffffffffffffffffffffffffffffffffffffffff16815260200190815260200160002054018160120160003373ffffffffffffffffffffffffffffffffffffffff1673ffffffffffffffffffffffffffffffffffffffff1681526020019081526020016000208190555050005b600080fd5b3480156101c657600080fd5b506101cf6109ff565b6040518082815260200191505060405180910390f35b3480156101f157600080fd5b506101fa610a17565b6040518082815260200191505060405180910390f35b34801561021c57600080fd5b50610225610ddb565b005b34801561023357600080fd5b506102606004803603602081101561024a57600080fd5b810190808035906020019092919050505061101c565b005b34801561026e57600080fd5b50610277611487565b6040518082815260200191505060405180910390f35b34801561029957600080fd5b506102dc600480360360208110156102b057600080fd5b81019080803573ffffffffffffffffffffffffffffffffffffffff169060200190929190505050611910565b6040518082815260200191505060405180910390f35b3480156102fe57600080fd5b506103416004803603602081101561031557600080fd5b81019080803573ffffffffffffffffffffffffffffffffffffffff169060200190929190505050611967565b60405180821515815260200191505060405180910390f35b34801561036557600080fd5b506103926004803603602081101561037c57600080fd5b8101908080359060200190929190505050611bff565b005b3480156103a057600080fd5b506103cd600480360360208110156103b757600080fd5b8101908080359060200190929190505050611dbc565b005b3480156103db57600080fd5b506103e4612099565b6040518082815260200191505060405180910390f35b34801561040657600080fd5b506104496004803603602081101561041d57600080fd5b81019080803573ffffffffffffffffffffffffffffffffffffffff1690602001909291905050506120b1565b60405180821515815260200191505060405180910390f35b34801561046d57600080fd5b5061049a6004803603602081101561048457600080fd5b8101908080359060200190929190505050612349565b005b3480156104a857600080fd5b506104d5600480360360208110156104bf57600080fd5b810190808035906020019092919050505061278e565b60405180821515815260200191505060405180910390f35b3480156104f957600080fd5b506105306004803603604081101561051057600080fd5b8101908080359060200190929190803590602001909291905050506129ec565b005b34801561053e57600080fd5b5061089c600480360361018081101561055657600080fd5b810190808035906020019064010000000081111561057357600080fd5b82018360208201111561058557600080fd5b803590602001918460208302840111640100000000831117156105a757600080fd5b919080806020026020016040519081016040528093929190818152602001838360200280828437600081840152601f19601f8201169050808301925050505050505091929192908035906020019064010000000081111561060757600080fd5b82018360208201111561061957600080fd5b8035906020019184602083028401116401000000008311171561063b57600080fd5b919080806020026020016040519081016040528093929190818152602001838360200280828437600081840152601f19601f8201169050808301925050505050505091929192908035906020019064010000000081111561069b57600080fd5b8201836020820111156106ad57600080fd5b803590602001918460208302840111640100000000831117156106cf57600080fd5b919080806020026020016040519081016040528093929190818152602001838360200280828437600081840152601f19601f8201169050808301925050505050505091929192908035906020019064010000000081111561072f57600080fd5b82018360208201111561074157600080fd5b8035906020019184602083028401116401000000008311171561076357600080fd5b919080806020026020016040519081016040528093929190818152602001838360200280828437600081840152601f19601f820116905080830192505050505050509192919290803573ffffffffffffffffffffffffffffffffffffffff169060200190929190803573ffffffffffffffffffffffffffffffffffffffff169060200190929190803573ffffffffffffffffffffffffffffffffffffffff169060200190929190803573ffffffffffffffffffffffffffffffffffffffff169060200190929190803573ffffffffffffffffffffffffffffffffffffffff169060200190929190803573ffffffffffffffffffffffffffffffffffffffff16906020019092919080359060200190929190803573ffffffffffffffffffffffffffffffffffffffff169060200190929190505050612e60565b005b3480156108aa57600080fd5b5061094d600480360360808110156108c157600080fd5b81019080803573ffffffffffffffffffffffffffffffffffffffff169060200190929190803573ffffffffffffffffffffffffffffffffffffffff169060200190929190803573ffffffffffffffffffffffffffffffffffffffff169060200190929190803573ffffffffffffffffffffffffffffffffffffffff169060200190929190505050613367565b60405180821515815260200191505060405180910390f35b34801561097157600080fd5b5061097a6137d8565b6040518082815260200191505060405180910390f35b34801561099c57600080fd5b506109a56137f0565b6040518082815260200191505060405180910390f35b3480156109c757600080fd5b506109d0613e14565b005b6000807f36cd024ab99b7eb43ce06d2c7a20fd55d745b01b3ab37b4f7429b2a08705e3a490508091505090565b600080610a0a6109d2565b905080600c015491505090565b600080610a226109d2565b90508060040160003373ffffffffffffffffffffffffffffffffffffffff1673ffffffffffffffffffffffffffffffffffffffff16815260200190815260200160002060009054906101000a900460ff16610ae5576040517f08c379a00000000000000000000000000000000000000000000000000000000081526004018080602001828103825260188152602001807f4f6e6c792073747261746567792063616e2063616c6c2121000000000000000081525060200191505060405180910390fd5b6000610aef6109d2565b905060008160020160003373ffffffffffffffffffffffffffffffffffffffff1673ffffffffffffffffffffffffffffffffffffffff16815260200190815260200160002060009054906101000a900473ffffffffffffffffffffffffffffffffffffffff1673ffffffffffffffffffffffffffffffffffffffff166370a08231306040518263ffffffff1660e01b8152600401808273ffffffffffffffffffffffffffffffffffffffff16815260200191505060206040518083038186803b158015610bbb57600080fd5b505afa158015610bcf573d6000803e3d6000fd5b505050506040513d6020811015610be557600080fd5b810190808051906020019092919050505090508160020160003373ffffffffffffffffffffffffffffffffffffffff1673ffffffffffffffffffffffffffffffffffffffff16815260200190815260200160002060009054906101000a900473ffffffffffffffffffffffffffffffffffffffff1673ffffffffffffffffffffffffffffffffffffffff16632e1a7d4d826040518263ffffffff1660e01b815260040180828152602001915050600060405180830381600087803b158015610cac57600080fd5b505af1158015610cc0573d6000803e3d6000fd5b505050508160030160003373ffffffffffffffffffffffffffffffffffffffff1673ffffffffffffffffffffffffffffffffffffffff16815260200190815260200160002060009054906101000a900473ffffffffffffffffffffffffffffffffffffffff1673ffffffffffffffffffffffffffffffffffffffff1663a9059cbb33836040518363ffffffff1660e01b8152600401808373ffffffffffffffffffffffffffffffffffffffff16815260200182815260200192505050602060405180830381600087803b158015610d9657600080fd5b505af1158015610daa573d6000803e3d6000fd5b505050506040513d6020811015610dc057600080fd5b81019080805190602001909291905050505080935050505090565b6000610de56109d2565b90506000610e123a610e0484601001545a6142a290919063ffffffff16565b61432a90919063ffffffff16565b905060008260110160003373ffffffffffffffffffffffffffffffffffffffff1673ffffffffffffffffffffffffffffffffffffffff16815260200190815260200160002054905060008111610ed0576040517f08c379a00000000000000000000000000000000000000000000000000000000081526004018080602001828103825260108152602001807f4e6f7468696e6720746f20636c61696d0000000000000000000000000000000081525060200191505060405180910390fd5b80471015610f29576040517f08c379a0000000000000000000000000000000000000000000000000000000008152600401808060200182810382526022815260200180614a626022913960400191505060405180910390fd5b60008360110160003373ffffffffffffffffffffffffffffffffffffffff1673ffffffffffffffffffffffffffffffffffffffff168152602001908152602001600020819055503373ffffffffffffffffffffffffffffffffffffffff166108fc829081150290604051600060405180830381858888f19350505050158015610fb6573d6000803e3d6000fd5b506000610fcc3a5a61432a90919063ffffffff16565b90508083038460110160003373ffffffffffffffffffffffffffffffffffffffff1673ffffffffffffffffffffffffffffffffffffffff1681526020019081526020016000208190555050505050565b60006110266109d2565b90503373ffffffffffffffffffffffffffffffffffffffff1681600b0160009054906101000a900473ffffffffffffffffffffffffffffffffffffffff1673ffffffffffffffffffffffffffffffffffffffff16146110ed576040517f08c379a000000000000000000000000000000000000000000000000000000000815260040180806020018281038252601f8152602001807f4f6e6c7920636f6e74726f6c6c65724f776e65722063616e2063616c6c21210081525060200191505060405180910390fd5b60006110f76109d2565b90506111756111253a61111784601001545a6142a290919063ffffffff16565b61432a90919063ffffffff16565b8260110160003373ffffffffffffffffffffffffffffffffffffffff1673ffffffffffffffffffffffffffffffffffffffff168152602001908152602001600020546142a290919063ffffffff16565b8160110160003373ffffffffffffffffffffffffffffffffffffffff1673ffffffffffffffffffffffffffffffffffffffff1681526020019081526020016000208190555080600f0154831115611234576040517f08c379a00000000000000000000000000000000000000000000000000000000081526004018080602001828103825260108152602001807f496e73756666696369656e74204352560000000000000000000000000000000081525060200191505060405180910390fd5b61124b8382600f01546143b090919063ffffffff16565b81600f01819055508060000160019054906101000a900473ffffffffffffffffffffffffffffffffffffffff1673ffffffffffffffffffffffffffffffffffffffff1663095ea7b38260080160009054906101000a900473ffffffffffffffffffffffffffffffffffffffff16856040518363ffffffff1660e01b8152600401808373ffffffffffffffffffffffffffffffffffffffff16815260200182815260200192505050602060405180830381600087803b15801561130c57600080fd5b505af1158015611320573d6000803e3d6000fd5b505050506040513d602081101561133657600080fd5b8101908080519060200190929190505050508060080160009054906101000a900473ffffffffffffffffffffffffffffffffffffffff1673ffffffffffffffffffffffffffffffffffffffff16634957677c846040518263ffffffff1660e01b815260040180828152602001915050600060405180830381600087803b1580156113bf57600080fd5b505af11580156113d3573d6000803e3d6000fd5b5050505061143d6113ed3a5a61432a90919063ffffffff16565b8260110160003373ffffffffffffffffffffffffffffffffffffffff1673ffffffffffffffffffffffffffffffffffffffff168152602001908152602001600020546143b090919063ffffffff16565b8160110160003373ffffffffffffffffffffffffffffffffffffffff1673ffffffffffffffffffffffffffffffffffffffff16815260200190815260200160002081905550505050565b6000806114926109d2565b90508060040160003373ffffffffffffffffffffffffffffffffffffffff1673ffffffffffffffffffffffffffffffffffffffff16815260200190815260200160002060009054906101000a900460ff16611555576040517f08c379a00000000000000000000000000000000000000000000000000000000081526004018080602001828103825260188152602001807f4f6e6c792073747261746567792063616e2063616c6c2121000000000000000081525060200191505060405180910390fd5b600061155f6109d2565b905060008160000160019054906101000a900473ffffffffffffffffffffffffffffffffffffffff1673ffffffffffffffffffffffffffffffffffffffff166370a08231306040518263ffffffff1660e01b8152600401808273ffffffffffffffffffffffffffffffffffffffff16815260200191505060206040518083038186803b1580156115ee57600080fd5b505afa158015611602573d6000803e3d6000fd5b505050506040513d602081101561161857600080fd5b810190808051906020019092919050505090508160070160009054906101000a900473ffffffffffffffffffffffffffffffffffffffff1673ffffffffffffffffffffffffffffffffffffffff16636a6278428360020160003373ffffffffffffffffffffffffffffffffffffffff1673ffffffffffffffffffffffffffffffffffffffff16815260200190815260200160002060009054906101000a900473ffffffffffffffffffffffffffffffffffffffff166040518263ffffffff1660e01b8152600401808273ffffffffffffffffffffffffffffffffffffffff168152602001915050600060405180830381600087803b15801561171957600080fd5b505af115801561172d573d6000803e3d6000fd5b5050505060008260000160019054906101000a900473ffffffffffffffffffffffffffffffffffffffff1673ffffffffffffffffffffffffffffffffffffffff166370a08231306040518263ffffffff1660e01b8152600401808273ffffffffffffffffffffffffffffffffffffffff16815260200191505060206040518083038186803b1580156117be57600080fd5b505afa1580156117d2573d6000803e3d6000fd5b505050506040513d60208110156117e857600080fd5b8101908080519060200190929190505050905060008282039050600084600d015485600c015483028161181757fe5b0490508085600f01540185600f0181905550600081830390508560000160019054906101000a900473ffffffffffffffffffffffffffffffffffffffff1673ffffffffffffffffffffffffffffffffffffffff1663a9059cbb33836040518363ffffffff1660e01b8152600401808373ffffffffffffffffffffffffffffffffffffffff16815260200182815260200192505050602060405180830381600087803b1580156118c557600080fd5b505af11580156118d9573d6000803e3d6000fd5b505050506040513d60208110156118ef57600080fd5b81019080805190602001909291905050505081830397505050505050505090565b60008061191b6109d2565b90508060110160008473ffffffffffffffffffffffffffffffffffffffff1673ffffffffffffffffffffffffffffffffffffffff16815260200190815260200160002054915050919050565b6000806119726109d2565b90503373ffffffffffffffffffffffffffffffffffffffff1681600b0160009054906101000a900473ffffffffffffffffffffffffffffffffffffffff1673ffffffffffffffffffffffffffffffffffffffff1614611a39576040517f08c379a000000000000000000000000000000000000000000000000000000000815260040180806020018281038252601f8152602001807f4f6e6c7920636f6e74726f6c6c65724f776e65722063616e2063616c6c21210081525060200191505060405180910390fd5b6000611a436109d2565b9050611ac1611a713a611a6384601001545a6142a290919063ffffffff16565b61432a90919063ffffffff16565b8260110160003373ffffffffffffffffffffffffffffffffffffffff1673ffffffffffffffffffffffffffffffffffffffff168152602001908152602001600020546142a290919063ffffffff16565b8160110160003373ffffffffffffffffffffffffffffffffffffffff1673ffffffffffffffffffffffffffffffffffffffff16815260200190815260200160002081905550838160010160006101000a81548173ffffffffffffffffffffffffffffffffffffffff021916908373ffffffffffffffffffffffffffffffffffffffff160217905550611baf611b5f3a5a61432a90919063ffffffff16565b8260110160003373ffffffffffffffffffffffffffffffffffffffff1673ffffffffffffffffffffffffffffffffffffffff168152602001908152602001600020546143b090919063ffffffff16565b8160110160003373ffffffffffffffffffffffffffffffffffffffff1673ffffffffffffffffffffffffffffffffffffffff16815260200190815260200160002081905550600192505050919050565b6000611c096109d2565b90508060040160003373ffffffffffffffffffffffffffffffffffffffff1673ffffffffffffffffffffffffffffffffffffffff16815260200190815260200160002060009054906101000a900460ff1680611cb057508060130160003373ffffffffffffffffffffffffffffffffffffffff1673ffffffffffffffffffffffffffffffffffffffff16815260200190815260200160002060009054906101000a900460ff165b611d22576040517f08c379a00000000000000000000000000000000000000000000000000000000081526004018080602001828103825260208152602001807f4f6e6c79207374726174656779206f7220706f6f6c2063616e2063616c6c212181525060200191505060405180910390fd5b6000611d2c6109d2565b9050828160110160003373ffffffffffffffffffffffffffffffffffffffff1673ffffffffffffffffffffffffffffffffffffffff16815260200190815260200160002054018160110160003373ffffffffffffffffffffffffffffffffffffffff1673ffffffffffffffffffffffffffffffffffffffff16815260200190815260200160002081905550505050565b6000611dc66109d2565b90503373ffffffffffffffffffffffffffffffffffffffff1681600b0160009054906101000a900473ffffffffffffffffffffffffffffffffffffffff1673ffffffffffffffffffffffffffffffffffffffff1614611e8d576040517f08c379a000000000000000000000000000000000000000000000000000000000815260040180806020018281038252601f8152602001807f4f6e6c7920636f6e74726f6c6c65724f776e65722063616e2063616c6c21210081525060200191505060405180910390fd5b6000611e976109d2565b9050611f15611ec53a611eb784601001545a6142a290919063ffffffff16565b61432a90919063ffffffff16565b8260110160003373ffffffffffffffffffffffffffffffffffffffff1673ffffffffffffffffffffffffffffffffffffffff168152602001908152602001600020546142a290919063ffffffff16565b8160110160003373ffffffffffffffffffffffffffffffffffffffff1673ffffffffffffffffffffffffffffffffffffffff168152602001908152602001600020819055508060080160009054906101000a900473ffffffffffffffffffffffffffffffffffffffff1673ffffffffffffffffffffffffffffffffffffffff1663eff7a612846040518263ffffffff1660e01b815260040180828152602001915050600060405180830381600087803b158015611fd157600080fd5b505af1158015611fe5573d6000803e3d6000fd5b5050505061204f611fff3a5a61432a90919063ffffffff16565b8260110160003373ffffffffffffffffffffffffffffffffffffffff1673ffffffffffffffffffffffffffffffffffffffff168152602001908152602001600020546143b090919063ffffffff16565b8160110160003373ffffffffffffffffffffffffffffffffffffffff1673ffffffffffffffffffffffffffffffffffffffff16815260200190815260200160002081905550505050565b6000806120a46109d2565b9050806010015491505090565b6000806120bc6109d2565b90503373ffffffffffffffffffffffffffffffffffffffff1681600b0160009054906101000a900473ffffffffffffffffffffffffffffffffffffffff1673ffffffffffffffffffffffffffffffffffffffff1614612183576040517f08c379a000000000000000000000000000000000000000000000000000000000815260040180806020018281038252601f8152602001807f4f6e6c7920636f6e74726f6c6c65724f776e65722063616e2063616c6c21210081525060200191505060405180910390fd5b600061218d6109d2565b905061220b6121bb3a6121ad84601001545a6142a290919063ffffffff16565b61432a90919063ffffffff16565b8260110160003373ffffffffffffffffffffffffffffffffffffffff1673ffffffffffffffffffffffffffffffffffffffff168152602001908152602001600020546142a290919063ffffffff16565b8160110160003373ffffffffffffffffffffffffffffffffffffffff1673ffffffffffffffffffffffffffffffffffffffff168152602001908152602001600020819055508381600b0160006101000a81548173ffffffffffffffffffffffffffffffffffffffff021916908373ffffffffffffffffffffffffffffffffffffffff1602179055506122f96122a93a5a61432a90919063ffffffff16565b8260110160003373ffffffffffffffffffffffffffffffffffffffff1673ffffffffffffffffffffffffffffffffffffffff168152602001908152602001600020546143b090919063ffffffff16565b8160110160003373ffffffffffffffffffffffffffffffffffffffff1673ffffffffffffffffffffffffffffffffffffffff16815260200190815260200160002081905550600192505050919050565b60006123536109d2565b90508060040160003373ffffffffffffffffffffffffffffffffffffffff1673ffffffffffffffffffffffffffffffffffffffff16815260200190815260200160002060009054906101000a900460ff16612416576040517f08c379a00000000000000000000000000000000000000000000000000000000081526004018080602001828103825260188152602001807f4f6e6c792073747261746567792063616e2063616c6c2121000000000000000081525060200191505060405180910390fd5b60006124206109d2565b90508060030160003373ffffffffffffffffffffffffffffffffffffffff1673ffffffffffffffffffffffffffffffffffffffff16815260200190815260200160002060009054906101000a900473ffffffffffffffffffffffffffffffffffffffff1673ffffffffffffffffffffffffffffffffffffffff166323b872dd3330866040518463ffffffff1660e01b8152600401808473ffffffffffffffffffffffffffffffffffffffff1681526020018373ffffffffffffffffffffffffffffffffffffffff1681526020018281526020019350505050602060405180830381600087803b15801561251257600080fd5b505af1158015612526573d6000803e3d6000fd5b505050506040513d602081101561253c57600080fd5b8101908080519060200190929190505050508060030160003373ffffffffffffffffffffffffffffffffffffffff1673ffffffffffffffffffffffffffffffffffffffff16815260200190815260200160002060009054906101000a900473ffffffffffffffffffffffffffffffffffffffff1673ffffffffffffffffffffffffffffffffffffffff1663095ea7b38260020160003373ffffffffffffffffffffffffffffffffffffffff1673ffffffffffffffffffffffffffffffffffffffff16815260200190815260200160002060009054906101000a900473ffffffffffffffffffffffffffffffffffffffff16856040518363ffffffff1660e01b8152600401808373ffffffffffffffffffffffffffffffffffffffff16815260200182815260200192505050602060405180830381600087803b15801561268157600080fd5b505af1158015612695573d6000803e3d6000fd5b505050506040513d60208110156126ab57600080fd5b8101908080519060200190929190505050508060020160003373ffffffffffffffffffffffffffffffffffffffff1673ffffffffffffffffffffffffffffffffffffffff16815260200190815260200160002060009054906101000a900473ffffffffffffffffffffffffffffffffffffffff1673ffffffffffffffffffffffffffffffffffffffff1663b6b55f25846040518263ffffffff1660e01b815260040180828152602001915050600060405180830381600087803b15801561277157600080fd5b505af1158015612785573d6000803e3d6000fd5b50505050505050565b6000806127996109d2565b90503373ffffffffffffffffffffffffffffffffffffffff1681600b0160009054906101000a900473ffffffffffffffffffffffffffffffffffffffff1673ffffffffffffffffffffffffffffffffffffffff1614612860576040517f08c379a000000000000000000000000000000000000000000000000000000000815260040180806020018281038252601f8152602001807f4f6e6c7920636f6e74726f6c6c65724f776e65722063616e2063616c6c21210081525060200191505060405180910390fd5b600061286a6109d2565b90506128e86128983a61288a84601001545a6142a290919063ffffffff16565b61432a90919063ffffffff16565b8260110160003373ffffffffffffffffffffffffffffffffffffffff1673ffffffffffffffffffffffffffffffffffffffff168152602001908152602001600020546142a290919063ffffffff16565b8160110160003373ffffffffffffffffffffffffffffffffffffffff1673ffffffffffffffffffffffffffffffffffffffff168152602001908152602001600020819055508381600c018190555061299c61294c3a5a61432a90919063ffffffff16565b8260110160003373ffffffffffffffffffffffffffffffffffffffff1673ffffffffffffffffffffffffffffffffffffffff168152602001908152602001600020546143b090919063ffffffff16565b8160110160003373ffffffffffffffffffffffffffffffffffffffff1673ffffffffffffffffffffffffffffffffffffffff16815260200190815260200160002081905550600192505050919050565b60006129f66109d2565b90503373ffffffffffffffffffffffffffffffffffffffff1681600b0160009054906101000a900473ffffffffffffffffffffffffffffffffffffffff1673ffffffffffffffffffffffffffffffffffffffff1614612abd576040517f08c379a000000000000000000000000000000000000000000000000000000000815260040180806020018281038252601f8152602001807f4f6e6c7920636f6e74726f6c6c65724f776e65722063616e2063616c6c21210081525060200191505060405180910390fd5b6000612ac76109d2565b905080600f0154841115612b43576040517f08c379a00000000000000000000000000000000000000000000000000000000081526004018080602001828103825260108152602001807f496e73756666696369656e74204352560000000000000000000000000000000081525060200191505060405180910390fd5b612bbf612b6f3a612b6184601001545a6142a290919063ffffffff16565b61432a90919063ffffffff16565b8260110160003373ffffffffffffffffffffffffffffffffffffffff1673ffffffffffffffffffffffffffffffffffffffff168152602001908152602001600020546142a290919063ffffffff16565b8160110160003373ffffffffffffffffffffffffffffffffffffffff1673ffffffffffffffffffffffffffffffffffffffff16815260200190815260200160002081905550612c1b8482600f01546143b090919063ffffffff16565b81600f01819055508060000160019054906101000a900473ffffffffffffffffffffffffffffffffffffffff1673ffffffffffffffffffffffffffffffffffffffff1663095ea7b38260080160009054906101000a900473ffffffffffffffffffffffffffffffffffffffff16866040518363ffffffff1660e01b8152600401808373ffffffffffffffffffffffffffffffffffffffff16815260200182815260200192505050602060405180830381600087803b158015612cdc57600080fd5b505af1158015612cf0573d6000803e3d6000fd5b505050506040513d6020811015612d0657600080fd5b8101908080519060200190929190505050508060080160009054906101000a900473ffffffffffffffffffffffffffffffffffffffff1673ffffffffffffffffffffffffffffffffffffffff166365fc387385856040518363ffffffff1660e01b81526004018083815260200182815260200192505050600060405180830381600087803b158015612d9757600080fd5b505af1158015612dab573d6000803e3d6000fd5b50505050612e15612dc53a5a61432a90919063ffffffff16565b8260110160003373ffffffffffffffffffffffffffffffffffffffff1673ffffffffffffffffffffffffffffffffffffffff168152602001908152602001600020546143b090919063ffffffff16565b8160110160003373ffffffffffffffffffffffffffffffffffffffff1673ffffffffffffffffffffffffffffffffffffffff1681526020019081526020016000208190555050505050565b6000612e6a6109d2565b90508c816006019080519060200190612e84929190614999565b5060005b816006018054905081101561313c578b8181518110612ea357fe5b6020026020010151826002016000846006018481548110612ec057fe5b9060005260206000200160009054906101000a900473ffffffffffffffffffffffffffffffffffffffff1673ffffffffffffffffffffffffffffffffffffffff1673ffffffffffffffffffffffffffffffffffffffff16815260200190815260200160002060006101000a81548173ffffffffffffffffffffffffffffffffffffffff021916908373ffffffffffffffffffffffffffffffffffffffff1602179055508a8181518110612f6f57fe5b6020026020010151826003016000846006018481548110612f8c57fe5b9060005260206000200160009054906101000a900473ffffffffffffffffffffffffffffffffffffffff1673ffffffffffffffffffffffffffffffffffffffff1673ffffffffffffffffffffffffffffffffffffffff16815260200190815260200160002060006101000a81548173ffffffffffffffffffffffffffffffffffffffff021916908373ffffffffffffffffffffffffffffffffffffffff160217905550600182600401600084600601848154811061304657fe5b9060005260206000200160009054906101000a900473ffffffffffffffffffffffffffffffffffffffff1673ffffffffffffffffffffffffffffffffffffffff1673ffffffffffffffffffffffffffffffffffffffff16815260200190815260200160002060006101000a81548160ff02191690831515021790555060018260130160008f84815181106130d657fe5b602002602001015173ffffffffffffffffffffffffffffffffffffffff1673ffffffffffffffffffffffffffffffffffffffff16815260200190815260200160002060006101000a81548160ff0219169083151502179055508080600101915050612e88565b50888160070160006101000a81548173ffffffffffffffffffffffffffffffffffffffff021916908373ffffffffffffffffffffffffffffffffffffffff160217905550878160000160016101000a81548173ffffffffffffffffffffffffffffffffffffffff021916908373ffffffffffffffffffffffffffffffffffffffff160217905550868160080160006101000a81548173ffffffffffffffffffffffffffffffffffffffff021916908373ffffffffffffffffffffffffffffffffffffffff160217905550858160090160006101000a81548173ffffffffffffffffffffffffffffffffffffffff021916908373ffffffffffffffffffffffffffffffffffffffff1602179055508481600a0160006101000a81548173ffffffffffffffffffffffffffffffffffffffff021916908373ffffffffffffffffffffffffffffffffffffffff1602179055508381600b0160006101000a81548173ffffffffffffffffffffffffffffffffffffffff021916908373ffffffffffffffffffffffffffffffffffffffff1602179055508281600c018190555061271081600d0181905550818160010160006101000a81548173ffffffffffffffffffffffffffffffffffffffff021916908373ffffffffffffffffffffffffffffffffffffffff160217905550618ca081601001819055508c5181600e018190555060018160000160006101000a81548160ff02191690831515021790555050505050505050505050505050565b6000806133726109d2565b90503373ffffffffffffffffffffffffffffffffffffffff1681600b0160009054906101000a900473ffffffffffffffffffffffffffffffffffffffff1673ffffffffffffffffffffffffffffffffffffffff1614613439576040517f08c379a000000000000000000000000000000000000000000000000000000000815260040180806020018281038252601f8152602001807f4f6e6c7920636f6e74726f6c6c65724f776e65722063616e2063616c6c21210081525060200191505060405180910390fd5b60006134436109d2565b90506134c16134713a61346384601001545a6142a290919063ffffffff16565b61432a90919063ffffffff16565b8260110160003373ffffffffffffffffffffffffffffffffffffffff1673ffffffffffffffffffffffffffffffffffffffff168152602001908152602001600020546142a290919063ffffffff16565b8160110160003373ffffffffffffffffffffffffffffffffffffffff1673ffffffffffffffffffffffffffffffffffffffff1681526020019081526020016000208190555080600601879080600181540180825580915050600190039060005260206000200160009091909190916101000a81548173ffffffffffffffffffffffffffffffffffffffff021916908373ffffffffffffffffffffffffffffffffffffffff160217905550858160020160008973ffffffffffffffffffffffffffffffffffffffff1673ffffffffffffffffffffffffffffffffffffffff16815260200190815260200160002060006101000a81548173ffffffffffffffffffffffffffffffffffffffff021916908373ffffffffffffffffffffffffffffffffffffffff160217905550848160030160008973ffffffffffffffffffffffffffffffffffffffff1673ffffffffffffffffffffffffffffffffffffffff16815260200190815260200160002060006101000a81548173ffffffffffffffffffffffffffffffffffffffff021916908373ffffffffffffffffffffffffffffffffffffffff16021790555060018160040160008973ffffffffffffffffffffffffffffffffffffffff1673ffffffffffffffffffffffffffffffffffffffff16815260200190815260200160002060006101000a81548160ff02191690831515021790555060018160130160008673ffffffffffffffffffffffffffffffffffffffff1673ffffffffffffffffffffffffffffffffffffffff16815260200190815260200160002060006101000a81548160ff0219169083151502179055506137856137353a5a61432a90919063ffffffff16565b8260110160003373ffffffffffffffffffffffffffffffffffffffff1673ffffffffffffffffffffffffffffffffffffffff168152602001908152602001600020546143b090919063ffffffff16565b8160110160003373ffffffffffffffffffffffffffffffffffffffff1673ffffffffffffffffffffffffffffffffffffffff16815260200190815260200160002081905550600192505050949350505050565b6000806137e36109d2565b905080600f015491505090565b6000806137fb6109d2565b90503373ffffffffffffffffffffffffffffffffffffffff1681600b0160009054906101000a900473ffffffffffffffffffffffffffffffffffffffff1673ffffffffffffffffffffffffffffffffffffffff16146138c2576040517f08c379a000000000000000000000000000000000000000000000000000000000815260040180806020018281038252601f8152602001807f4f6e6c7920636f6e74726f6c6c65724f776e65722063616e2063616c6c21210081525060200191505060405180910390fd5b60006138cc6109d2565b905061394a6138fa3a6138ec84601001545a6142a290919063ffffffff16565b61432a90919063ffffffff16565b8260110160003373ffffffffffffffffffffffffffffffffffffffff1673ffffffffffffffffffffffffffffffffffffffff168152602001908152602001600020546142a290919063ffffffff16565b8160110160003373ffffffffffffffffffffffffffffffffffffffff1673ffffffffffffffffffffffffffffffffffffffff1681526020019081526020016000208190555060008160010160009054906101000a900473ffffffffffffffffffffffffffffffffffffffff1673ffffffffffffffffffffffffffffffffffffffff166370a08231306040518263ffffffff1660e01b8152600401808273ffffffffffffffffffffffffffffffffffffffff16815260200191505060206040518083038186803b158015613a1c57600080fd5b505afa158015613a30573d6000803e3d6000fd5b505050506040513d6020811015613a4657600080fd5b810190808051906020019092919050505090508160090160009054906101000a900473ffffffffffffffffffffffffffffffffffffffff1673ffffffffffffffffffffffffffffffffffffffff16634e71d92d6040518163ffffffff1660e01b8152600401600060405180830381600087803b158015613ac557600080fd5b505af1158015613ad9573d6000803e3d6000fd5b5050505060008260010160009054906101000a900473ffffffffffffffffffffffffffffffffffffffff1673ffffffffffffffffffffffffffffffffffffffff166370a08231306040518263ffffffff1660e01b8152600401808273ffffffffffffffffffffffffffffffffffffffff16815260200191505060206040518083038186803b158015613b6a57600080fd5b505afa158015613b7e573d6000803e3d6000fd5b505050506040513d6020811015613b9457600080fd5b81019080805190602001909291905050509050600082820390508360000160019054906101000a900473ffffffffffffffffffffffffffffffffffffffff1673ffffffffffffffffffffffffffffffffffffffff166370a08231306040518263ffffffff1660e01b8152600401808273ffffffffffffffffffffffffffffffffffffffff16815260200191505060206040518083038186803b158015613c3957600080fd5b505afa158015613c4d573d6000803e3d6000fd5b505050506040513d6020811015613c6357600080fd5b81019080805190602001909291905050509250613c7f816143fa565b8360000160019054906101000a900473ffffffffffffffffffffffffffffffffffffffff1673ffffffffffffffffffffffffffffffffffffffff166370a08231306040518263ffffffff1660e01b8152600401808273ffffffffffffffffffffffffffffffffffffffff16815260200191505060206040518083038186803b158015613d0a57600080fd5b505afa158015613d1e573d6000803e3d6000fd5b505050506040513d6020811015613d3457600080fd5b81019080805190602001909291905050509150600083830390508085600f01540185600f0181905550613dc3613d733a5a61432a90919063ffffffff16565b8660110160003373ffffffffffffffffffffffffffffffffffffffff1673ffffffffffffffffffffffffffffffffffffffff168152602001908152602001600020546143b090919063ffffffff16565b8560110160003373ffffffffffffffffffffffffffffffffffffffff1673ffffffffffffffffffffffffffffffffffffffff1681526020019081526020016000208190555080965050505050505090565b6000613e1e6109d2565b90503373ffffffffffffffffffffffffffffffffffffffff1681600b0160009054906101000a900473ffffffffffffffffffffffffffffffffffffffff1673ffffffffffffffffffffffffffffffffffffffff1614613ee5576040517f08c379a000000000000000000000000000000000000000000000000000000000815260040180806020018281038252601f8152602001807f4f6e6c7920636f6e74726f6c6c65724f776e65722063616e2063616c6c21210081525060200191505060405180910390fd5b6000613eef6109d2565b9050613f6d613f1d3a613f0f84601001545a6142a290919063ffffffff16565b61432a90919063ffffffff16565b8260110160003373ffffffffffffffffffffffffffffffffffffffff1673ffffffffffffffffffffffffffffffffffffffff168152602001908152602001600020546142a290919063ffffffff16565b8160110160003373ffffffffffffffffffffffffffffffffffffffff1673ffffffffffffffffffffffffffffffffffffffff1681526020019081526020016000208190555060008160000160019054906101000a900473ffffffffffffffffffffffffffffffffffffffff1673ffffffffffffffffffffffffffffffffffffffff166370a08231306040518263ffffffff1660e01b8152600401808273ffffffffffffffffffffffffffffffffffffffff16815260200191505060206040518083038186803b15801561403f57600080fd5b505afa158015614053573d6000803e3d6000fd5b505050506040513d602081101561406957600080fd5b810190808051906020019092919050505090508160080160009054906101000a900473ffffffffffffffffffffffffffffffffffffffff1673ffffffffffffffffffffffffffffffffffffffff16633ccfd60b6040518163ffffffff1660e01b8152600401600060405180830381600087803b1580156140e857600080fd5b505af11580156140fc573d6000803e3d6000fd5b5050505060008260000160019054906101000a900473ffffffffffffffffffffffffffffffffffffffff1673ffffffffffffffffffffffffffffffffffffffff166370a08231306040518263ffffffff1660e01b8152600401808273ffffffffffffffffffffffffffffffffffffffff16815260200191505060206040518083038186803b15801561418d57600080fd5b505afa1580156141a1573d6000803e3d6000fd5b505050506040513d60208110156141b757600080fd5b81019080805190602001909291905050509050600082820390506141e88185600f01546142a290919063ffffffff16565b84600f01819055506142566142063a5a61432a90919063ffffffff16565b8560110160003373ffffffffffffffffffffffffffffffffffffffff1673ffffffffffffffffffffffffffffffffffffffff168152602001908152602001600020546143b090919063ffffffff16565b8460110160003373ffffffffffffffffffffffffffffffffffffffff1673ffffffffffffffffffffffffffffffffffffffff168152602001908152602001600020819055505050505050565b600080828401905083811015614320576040517f08c379a000000000000000000000000000000000000000000000000000000000815260040180806020018281038252601b8152602001807f536166654d6174683a206164646974696f6e206f766572666c6f77000000000081525060200191505060405180910390fd5b8091505092915050565b60008083141561433d57600090506143aa565b600082840290508284828161434e57fe5b04146143a5576040517f08c379a0000000000000000000000000000000000000000000000000000000008152600401808060200182810382526021815260200180614a416021913960400191505060405180910390fd5b809150505b92915050565b60006143f283836040518060400160405280601f81526020017f536166654d6174683a207375627472616374696f6e20756e646572666c6f77008152506148d9565b905092915050565b60006144046109d2565b90508060000160019054906101000a900473ffffffffffffffffffffffffffffffffffffffff1673ffffffffffffffffffffffffffffffffffffffff1663095ea7b382600a0160009054906101000a900473ffffffffffffffffffffffffffffffffffffffff16846040518363ffffffff1660e01b8152600401808373ffffffffffffffffffffffffffffffffffffffff16815260200182815260200192505050602060405180830381600087803b1580156144bf57600080fd5b505af11580156144d3573d6000803e3d6000fd5b505050506040513d60208110156144e957600080fd5b8101908080519060200190929190505050506000600367ffffffffffffffff8111801561451557600080fd5b506040519080825280602002602001820160405280156145445781602001602082028036833780820191505090505b5090508160010160009054906101000a900473ffffffffffffffffffffffffffffffffffffffff168160008151811061457957fe5b602002602001019073ffffffffffffffffffffffffffffffffffffffff16908173ffffffffffffffffffffffffffffffffffffffff168152505081600a0160009054906101000a900473ffffffffffffffffffffffffffffffffffffffff1673ffffffffffffffffffffffffffffffffffffffff1663ad5c46486040518163ffffffff1660e01b815260040160206040518083038186803b15801561461d57600080fd5b505afa158015614631573d6000803e3d6000fd5b505050506040513d602081101561464757600080fd5b81019080805190602001909291905050508160018151811061466557fe5b602002602001019073ffffffffffffffffffffffffffffffffffffffff16908173ffffffffffffffffffffffffffffffffffffffff16815250508160000160019054906101000a900473ffffffffffffffffffffffffffffffffffffffff16816002815181106146d157fe5b602002602001019073ffffffffffffffffffffffffffffffffffffffff16908173ffffffffffffffffffffffffffffffffffffffff168152505081600a0160009054906101000a900473ffffffffffffffffffffffffffffffffffffffff1673ffffffffffffffffffffffffffffffffffffffff166338ed1739846000843061070842016040518663ffffffff1660e01b815260040180868152602001858152602001806020018473ffffffffffffffffffffffffffffffffffffffff168152602001838152602001828103825285818151815260200191508051906020019060200280838360005b838110156147d55780820151818401526020810190506147ba565b505050509050019650505050505050600060405180830381600087803b1580156147fe57600080fd5b505af1158015614812573d6000803e3d6000fd5b505050506040513d6000823e3d601f19601f82011682018060405250602081101561483c57600080fd5b810190808051604051939291908464010000000082111561485c57600080fd5b8382019150602082018581111561487257600080fd5b825186602082028301116401000000008211171561488f57600080fd5b8083526020830192505050908051906020019060200280838360005b838110156148c65780820151818401526020810190506148ab565b5050505090500160405250505050505050565b6000838311158290614986576040517f08c379a00000000000000000000000000000000000000000000000000000000081526004018080602001828103825283818151815260200191508051906020019080838360005b8381101561494b578082015181840152602081019050614930565b50505050905090810190601f1680156149785780820380516001836020036101000a031916815260200191505b509250505060405180910390fd5b5060008385039050809150509392505050565b828054828255906000526020600020908101928215614a12579160200282015b82811115614a115782518260006101000a81548173ffffffffffffffffffffffffffffffffffffffff021916908373ffffffffffffffffffffffffffffffffffffffff160217905550916020019190600101906149b9565b5b509050614a1f9190614a23565b5090565b5b80821115614a3c576000816000905550600101614a24565b509056fe536166654d6174683a206d756c7469706c69636174696f6e206f766572666c6f77446f6e74206861766520656e6f7567682066756e642c20547279206c617465722121a2646970667358221220344101f6041f6ab86e44e8f0538caf4356a26caec74826b66a5a09750ff231cb64736f6c63430007060033",
  "immutableReferences": {},
  "source": "// SPDX-License-Identifier: UNLICENSED\r\npragma solidity ^0.7.6;\r\nimport \"../storage/ControllerStorage.sol\";\r\nimport \"../libraries/SafeMath.sol\";\r\n\r\ncontract Controller is ControllerStorageV1 {\r\n    \r\n    using SafeMath for uint256;\r\n    \r\n  \r\n/****MODIFIERS****/\r\n    modifier onlyOwner(){\r\n        ControllerStorage storage cs = controllerStorage();\r\n        require(cs.controllerOwner == msg.sender, \"Only controllerOwner can call!!\");\r\n        _;\r\n    }\r\n\r\n    modifier onlyStrategy(){\r\n        ControllerStorage storage cs = controllerStorage();\r\n        require(cs.isStratgey[msg.sender], \"Only strategy can call!!\");\r\n        _;\r\n    }\r\n    \r\n    modifier onlyStrategyOrPool(){\r\n        ControllerStorage storage cs = controllerStorage();\r\n        require(cs.isStratgey[msg.sender] || cs.isPool[msg.sender], \"Only strategy or pool can call!!\");\r\n        _;\r\n    }\r\n\r\n/****CONSTRUCTOR****/\r\n    function initialize(\r\n        address[] memory _depositStrategies,\r\n        address[] memory _pools,\r\n        Gauge[] memory _gauges, \r\n        IERC20[] memory _strategyLPToken,\r\n        Minter _minter, \r\n        IERC20 _crvToken, \r\n        VotingEscrow _votingEscrow,\r\n        FeeDistributor _feeDistributor,\r\n        UniswapV2Router _uniswapRouter,\r\n        address _controllerOwner,\r\n        uint256 _crvLockPercent,\r\n        IERC20 _adminFeeToken\r\n    ) public{\r\n        ControllerStorage storage cs = controllerStorage();\r\n        //require(!cs.initialized, 'Already initialized');\r\n        cs.depositStrategies = _depositStrategies;\r\n\r\n        for(uint256 i = 0; i < cs.depositStrategies.length; i++){\r\n            cs.strategyGauges[cs.depositStrategies[i]] = _gauges[i];\r\n            cs.strategyLPTokens[cs.depositStrategies[i]] = _strategyLPToken[i];\r\n            cs.isStratgey[cs.depositStrategies[i]] = true;\r\n            cs.isPool[_pools[i]] = true;\r\n        }\r\n\r\n        cs.minter = _minter;\r\n        cs.crvToken = _crvToken;\r\n        cs.votingEscrow = _votingEscrow;\r\n        cs.feeDistributor = _feeDistributor;\r\n        cs.uniswapRouter = _uniswapRouter; \r\n        cs.controllerOwner = _controllerOwner;\r\n        cs.crvLockPercent = _crvLockPercent;\r\n        cs.DENOMINATOR = 10000;\r\n        cs.adminFeeToken = _adminFeeToken;\r\n        cs.defaultGas = 21000 + 15000;\r\n        cs.totalStrategies = _depositStrategies.length;\r\n        cs.initialized = true;\r\n    }\r\n\r\n/****CONTROLLER OWNER FUNCTIONS****/\r\n\r\n    function updateOwner(address newOwner) external onlyOwner() returns(bool){\r\n        ControllerStorage storage cs = controllerStorage();\r\n        cs.claimableGas[msg.sender] = cs.claimableGas[msg.sender].add((gasleft().add(cs.defaultGas)).mul(tx.gasprice));\r\n        cs.controllerOwner = newOwner;\r\n        cs.claimableGas[msg.sender] = cs.claimableGas[msg.sender].sub(gasleft().mul(tx.gasprice)); \r\n        return true;\r\n    } \r\n\r\n    function addNewStrategy(address _strategy, Gauge _gauge, IERC20 _strategyLPToken, address _pool) external onlyOwner() returns(bool){\r\n        ControllerStorage storage cs = controllerStorage();\r\n        cs.claimableGas[msg.sender] = cs.claimableGas[msg.sender].add((gasleft().add(cs.defaultGas)).mul(tx.gasprice));\r\n        cs.depositStrategies.push(_strategy);\r\n        cs.strategyGauges[_strategy] = _gauge;\r\n        cs.strategyLPTokens[_strategy] = _strategyLPToken;\r\n        cs.isStratgey[_strategy] = true;\r\n        cs.isPool[_pool] = true;\r\n        cs.claimableGas[msg.sender] = cs.claimableGas[msg.sender].sub(gasleft().mul(tx.gasprice)); \r\n        return true;\r\n    } \r\n\r\n    function updateAdminFeeToken(IERC20 _adminFeeToken) external onlyOwner() returns(bool){\r\n        ControllerStorage storage cs = controllerStorage();\r\n        cs.claimableGas[msg.sender] = cs.claimableGas[msg.sender].add((gasleft().add(cs.defaultGas)).mul(tx.gasprice));\r\n        cs.adminFeeToken = _adminFeeToken;\r\n        cs.claimableGas[msg.sender] = cs.claimableGas[msg.sender].sub(gasleft().mul(tx.gasprice)); \r\n        return true;\r\n    } \r\n\r\n    function createLock(uint256 _value, uint256 _unlockTime) external onlyOwner() {\r\n        ControllerStorage storage cs = controllerStorage();\r\n        require(_value <= cs.availableCRVToLock, 'Insufficient CRV' );\r\n        cs.claimableGas[msg.sender] = cs.claimableGas[msg.sender].add((gasleft().add(cs.defaultGas)).mul(tx.gasprice));\r\n        cs.availableCRVToLock = cs.availableCRVToLock.sub(_value);\r\n        cs.crvToken.approve(address(cs.votingEscrow), _value);\r\n        VotingEscrow(cs.votingEscrow).create_lock(_value, _unlockTime);\r\n        cs.claimableGas[msg.sender] = cs.claimableGas[msg.sender].sub(gasleft().mul(tx.gasprice)); \r\n    } \r\n    \r\n    function releaseLock() external onlyOwner() {\r\n        ControllerStorage storage cs = controllerStorage();\r\n        cs.claimableGas[msg.sender] = cs.claimableGas[msg.sender].add((gasleft().add(cs.defaultGas)).mul(tx.gasprice));\r\n        uint256 oldBalance = cs.crvToken.balanceOf(address(this));\r\n        VotingEscrow(cs.votingEscrow).withdraw();  \r\n        uint256 newBalance = cs.crvToken.balanceOf(address(this));\r\n        uint256 crvReceived = newBalance - oldBalance;\r\n        cs.availableCRVToLock = cs.availableCRVToLock.add(crvReceived);\r\n        cs.claimableGas[msg.sender] = cs.claimableGas[msg.sender].sub(gasleft().mul(tx.gasprice)); \r\n    }\r\n    \r\n    function increaseLockAmount(uint256 _value) external onlyOwner() {\r\n        ControllerStorage storage cs = controllerStorage();\r\n        cs.claimableGas[msg.sender] = cs.claimableGas[msg.sender].add((gasleft().add(cs.defaultGas)).mul(tx.gasprice));\r\n        require(_value <= cs.availableCRVToLock, 'Insufficient CRV' );\r\n        cs.availableCRVToLock = cs.availableCRVToLock.sub(_value);\r\n        cs.crvToken.approve(address(cs.votingEscrow), _value);\r\n        VotingEscrow(cs.votingEscrow).increase_amount(_value);\r\n        cs.claimableGas[msg.sender] = cs.claimableGas[msg.sender].sub(gasleft().mul(tx.gasprice)); \r\n    }\r\n\r\n    function increaseUnlockTime(uint256 _value) external onlyOwner() {\r\n        ControllerStorage storage cs = controllerStorage();\r\n        cs.claimableGas[msg.sender] = cs.claimableGas[msg.sender].add((gasleft().add(cs.defaultGas)).mul(tx.gasprice));\r\n        VotingEscrow(cs.votingEscrow).increase_unlock_time(_value);\r\n        cs.claimableGas[msg.sender] = cs.claimableGas[msg.sender].sub(gasleft().mul(tx.gasprice)); \r\n    }\r\n\r\n    function claimAndConvertAdminFees() external onlyOwner() returns(uint256){\r\n        ControllerStorage storage cs = controllerStorage();\r\n        cs.claimableGas[msg.sender] = cs.claimableGas[msg.sender].add((gasleft().add(cs.defaultGas)).mul(tx.gasprice));\r\n        uint256 oldBalance = cs.adminFeeToken.balanceOf(address(this));\r\n        FeeDistributor(cs.feeDistributor).claim();\r\n        uint256 newBalance = cs.adminFeeToken.balanceOf(address(this));\r\n        uint256 adminFeeReceived = newBalance - oldBalance;\r\n        oldBalance = cs.crvToken.balanceOf(address(this));\r\n        convertToCRV(adminFeeReceived);\r\n        newBalance = cs.crvToken.balanceOf(address(this));\r\n        uint256 crvReceived = newBalance - oldBalance;\r\n        cs.availableCRVToLock = cs.availableCRVToLock + crvReceived;\r\n        cs.claimableGas[msg.sender] = cs.claimableGas[msg.sender].sub(gasleft().mul(tx.gasprice)); \r\n        return crvReceived;\r\n    }\r\n\r\n    function updateLockPercentage(uint256 _newPercent) external onlyOwner() returns(bool){\r\n        ControllerStorage storage cs = controllerStorage();\r\n        cs.claimableGas[msg.sender] = cs.claimableGas[msg.sender].add((gasleft().add(cs.defaultGas)).mul(tx.gasprice));\r\n        cs.crvLockPercent = _newPercent;\r\n        cs.claimableGas[msg.sender] = cs.claimableGas[msg.sender].sub(gasleft().mul(tx.gasprice)); \r\n        return true;\r\n    } \r\n    \r\n\r\n/****STRATEGY FUNCTIONS****/\r\n\r\n    function stake(uint256 amount) external onlyStrategy(){\r\n        ControllerStorage storage cs = controllerStorage();\r\n        cs.strategyLPTokens[msg.sender].transferFrom(msg.sender, address(this), amount);\r\n        cs.strategyLPTokens[msg.sender].approve(address(cs.strategyGauges[msg.sender]), amount);\r\n        cs.strategyGauges[msg.sender].deposit(amount);  \r\n    }\r\n    \r\n    function unstake() external onlyStrategy() returns(uint256){\r\n        ControllerStorage storage cs = controllerStorage();\r\n        uint256 unstakedAmount = cs.strategyGauges[msg.sender].balanceOf(address(this));\r\n        cs.strategyGauges[msg.sender].withdraw(unstakedAmount);\r\n        cs.strategyLPTokens[msg.sender].transfer(msg.sender, unstakedAmount);\r\n        return unstakedAmount;\r\n    }\r\n\r\n    function claimCRV() external onlyStrategy() returns(uint256){\r\n        ControllerStorage storage cs = controllerStorage();\r\n        uint256 oldBalance = cs.crvToken.balanceOf(address(this));\r\n        Minter(cs.minter).mint(address(cs.strategyGauges[msg.sender]));\r\n        uint256 newBalance = cs.crvToken.balanceOf(address(this));\r\n        uint256 crvReceived = newBalance - oldBalance;\r\n        uint256 crvToLock = crvReceived * cs.crvLockPercent / cs.DENOMINATOR;\r\n        cs.availableCRVToLock = cs.availableCRVToLock + crvToLock;\r\n        uint256 crvToSend = crvReceived - crvToLock;\r\n        cs.crvToken.transfer(msg.sender, crvToSend);\r\n        return crvReceived - crvToLock;\r\n    }\r\n\r\n    function updateGasUsed(uint256 _gasUsed) public onlyStrategyOrPool() {\r\n        ControllerStorage storage cs = controllerStorage();\r\n        cs.claimableGas[msg.sender] = cs.claimableGas[msg.sender] + _gasUsed;\r\n    }\r\n\r\n/****OPEN FUNCTIONS****/\r\n\r\n    receive() external payable {\r\n        ControllerStorage storage cs = controllerStorage();\r\n        cs.ethReceived[msg.sender] = cs.ethReceived[msg.sender] + msg.value;\r\n    }\r\n    \r\n    function claimGasFee() public{\r\n        ControllerStorage storage cs = controllerStorage();     \r\n        uint256 gasAtStart = (gasleft().add(cs.defaultGas)).mul(tx.gasprice);\r\n        uint256 claimableAmount = cs.claimableGas[msg.sender];\r\n        require(claimableAmount > 0, \"Nothing to claim\");\r\n        require(address(this).balance >= claimableAmount, \"Dont have enough fund, Try later!!\");\r\n        cs.claimableGas[msg.sender] = 0;\r\n        msg.sender.transfer(claimableAmount);\r\n        uint256 gasAtEnd = gasleft().mul(tx.gasprice);\r\n        cs.claimableGas[msg.sender] = gasAtStart - gasAtEnd;\r\n    }\r\n/***INTERNAL FUNCTION****/\r\n\r\n    function convertToCRV(uint256 amount) internal {\r\n        ControllerStorage storage cs = controllerStorage();\r\n        cs.crvToken.approve(address(cs.uniswapRouter), amount);\r\n        address[] memory path = new address[](3);\r\n        path[0] = address(cs.adminFeeToken);\r\n        path[1] = cs.uniswapRouter.WETH();\r\n        path[2] = address(cs.crvToken);\r\n        \r\n        cs.uniswapRouter.swapExactTokensForTokens(\r\n            amount, \r\n            uint256(0), \r\n            path, \r\n            address(this), \r\n            block.timestamp + 1800\r\n        );\r\n    }\r\n\r\n/****VIEW FUNCTIONS****/\r\n\r\n    function defaultGas() public view returns(uint256){\r\n        ControllerStorage storage cs = controllerStorage();\r\n        return cs.defaultGas;\r\n    }\r\n\r\n    function availableCRVToLock() public view returns(uint256){\r\n        ControllerStorage storage cs = controllerStorage();\r\n        return cs.availableCRVToLock;\r\n    }\r\n\r\n    function gasUsed(address account) public view returns(uint256){\r\n        ControllerStorage storage cs = controllerStorage();\r\n        return cs.claimableGas[account];\r\n    }\r\n\r\n    function crvLockPercent() public view returns(uint256){\r\n        ControllerStorage storage cs = controllerStorage();\r\n        return cs.crvLockPercent;\r\n    }\r\n\r\n}",
  "sourcePath": "E:/New Desktop/Projects/AdvancedPool/Controller/contracts/facets/Controller.sol",
  "compiler": {
    "name": "solc",
    "version": "0.7.6+commit.7338295f.Emscripten.clang"
  },
  "schemaVersion": "3.3.2",
  "updatedAt": "2021-05-17T11:04:32.755Z",
  "networkType": "ethereum",
  "devdoc": {
    "kind": "dev",
    "methods": {},
    "version": 1
  },
  "userdoc": {
    "kind": "user",
    "methods": {},
    "version": 1
  }
}