{
  "contractName": "Controller2",
  "abi": [
    {
      "inputs": [],
      "name": "stakedAmount",
      "outputs": [
        {
          "internalType": "uint256",
          "name": "",
          "type": "uint256"
        }
      ],
      "stateMutability": "view",
      "type": "function"
    }
  ],
  "bytecode": "0x608060405234801561001057600080fd5b50610295806100206000396000f3fe608060405234801561001057600080fd5b506004361061002b5760003560e01c8063373d613214610030575b600080fd5b61003861004e565b6040518082815260200191505060405180910390f35b600080610059610232565b90508060040160003373ffffffffffffffffffffffffffffffffffffffff1673ffffffffffffffffffffffffffffffffffffffff16815260200190815260200160002060009054906101000a900460ff1661011c576040517f08c379a00000000000000000000000000000000000000000000000000000000081526004018080602001828103825260188152602001807f4f6e6c792073747261746567792063616e2063616c6c2121000000000000000081525060200191505060405180910390fd5b6000610126610232565b90508060020160003373ffffffffffffffffffffffffffffffffffffffff1673ffffffffffffffffffffffffffffffffffffffff16815260200190815260200160002060009054906101000a900473ffffffffffffffffffffffffffffffffffffffff1673ffffffffffffffffffffffffffffffffffffffff166370a08231306040518263ffffffff1660e01b8152600401808273ffffffffffffffffffffffffffffffffffffffff16815260200191505060206040518083038186803b1580156101f057600080fd5b505afa158015610204573d6000803e3d6000fd5b505050506040513d602081101561021a57600080fd5b81019080805190602001909291905050509250505090565b6000807f36cd024ab99b7eb43ce06d2c7a20fd55d745b01b3ab37b4f7429b2a08705e3a49050809150509056fea2646970667358221220f5800eb0c56e609524ca958d1201046202987b0809149468f00e49a506b0f77564736f6c63430007060033",
  "immutableReferences": {},
  "source": "// SPDX-License-Identifier: UNLICENSED\r\npragma solidity ^0.7.6;\r\nimport \"../storage/ControllerStorage.sol\";\r\nimport \"../libraries/SafeMath.sol\";\r\n\r\ncontract Controller2 is ControllerStorageV1 {\r\n    \r\n    using SafeMath for uint256;\r\n\r\n    modifier onlyStrategy(){\r\n        ControllerStorage storage cs = controllerStorage();\r\n        require(cs.isStratgey[msg.sender], \"Only strategy can call!!\");\r\n        _;\r\n    }\r\n    \r\n    function stakedAmount() public onlyStrategy() view returns(uint256){\r\n        ControllerStorage storage cs = controllerStorage();\r\n        return cs.strategyGauges[msg.sender].balanceOf(address(this));\r\n    }\r\n}",
  "sourcePath": "E:/Projects/AdvancedPool/Controller/contracts/facets/Controller2.sol",
  "compiler": {
    "name": "solc",
    "version": "0.7.6+commit.7338295f.Emscripten.clang"
  },
  "schemaVersion": "3.3.2",
  "updatedAt": "2021-06-29T13:00:35.599Z",
  "devdoc": {
    "kind": "dev",
    "methods": {},
    "version": 1
  },
  "userdoc": {
    "kind": "user",
    "methods": {},
    "version": 1
  }
}