{
  "contractName": "Controller",
  "abi": [
    {
      "inputs": [
        {
          "internalType": "address[]",
          "name": "_depositStrategies",
          "type": "address[]"
        },
        {
          "internalType": "contract Gauge[]",
          "name": "_gauges",
          "type": "address[]"
        },
        {
          "internalType": "contract IERC20[]",
          "name": "_strategyLPToken",
          "type": "address[]"
        },
        {
          "internalType": "contract Minter",
          "name": "_minter",
          "type": "address"
        },
        {
          "internalType": "contract IERC20",
          "name": "_crvToken",
          "type": "address"
        },
        {
          "internalType": "contract VotingEscrow",
          "name": "_votingEscrow",
          "type": "address"
        },
        {
          "internalType": "contract FeeDistributor",
          "name": "_feeDistributor",
          "type": "address"
        },
        {
          "internalType": "contract UniswapV2Router",
          "name": "_uniswapRouter",
          "type": "address"
        },
        {
          "internalType": "address",
          "name": "_controllerOwner",
          "type": "address"
        },
        {
          "internalType": "uint256",
          "name": "_crvLockPercent",
          "type": "uint256"
        },
        {
          "internalType": "contract IERC20",
          "name": "_adminFeeToken",
          "type": "address"
        }
      ],
      "name": "initialize",
      "outputs": [],
      "stateMutability": "nonpayable",
      "type": "function"
    },
    {
      "inputs": [
        {
          "internalType": "address",
          "name": "newOwner",
          "type": "address"
        }
      ],
      "name": "updateOwner",
      "outputs": [
        {
          "internalType": "bool",
          "name": "",
          "type": "bool"
        }
      ],
      "stateMutability": "nonpayable",
      "type": "function"
    },
    {
      "inputs": [
        {
          "internalType": "address",
          "name": "_strategy",
          "type": "address"
        },
        {
          "internalType": "contract Gauge",
          "name": "_gauge",
          "type": "address"
        },
        {
          "internalType": "contract IERC20",
          "name": "_strategyLPToken",
          "type": "address"
        }
      ],
      "name": "addNewStrategy",
      "outputs": [
        {
          "internalType": "bool",
          "name": "",
          "type": "bool"
        }
      ],
      "stateMutability": "nonpayable",
      "type": "function"
    },
    {
      "inputs": [
        {
          "internalType": "contract IERC20",
          "name": "_adminFeeToken",
          "type": "address"
        }
      ],
      "name": "updateAdminFeeToken",
      "outputs": [
        {
          "internalType": "bool",
          "name": "",
          "type": "bool"
        }
      ],
      "stateMutability": "nonpayable",
      "type": "function"
    },
    {
      "inputs": [
        {
          "internalType": "uint256",
          "name": "amount",
          "type": "uint256"
        }
      ],
      "name": "stake",
      "outputs": [],
      "stateMutability": "nonpayable",
      "type": "function"
    },
    {
      "inputs": [],
      "name": "unstake",
      "outputs": [],
      "stateMutability": "nonpayable",
      "type": "function"
    },
    {
      "inputs": [],
      "name": "claimCRV",
      "outputs": [
        {
          "internalType": "uint256",
          "name": "",
          "type": "uint256"
        }
      ],
      "stateMutability": "nonpayable",
      "type": "function"
    },
    {
      "inputs": [
        {
          "internalType": "uint256",
          "name": "_value",
          "type": "uint256"
        },
        {
          "internalType": "uint256",
          "name": "_unlockTime",
          "type": "uint256"
        }
      ],
      "name": "createLock",
      "outputs": [],
      "stateMutability": "nonpayable",
      "type": "function"
    },
    {
      "inputs": [],
      "name": "releaseLock",
      "outputs": [],
      "stateMutability": "nonpayable",
      "type": "function"
    },
    {
      "inputs": [
        {
          "internalType": "uint256",
          "name": "_value",
          "type": "uint256"
        }
      ],
      "name": "increaseLockAmount",
      "outputs": [],
      "stateMutability": "nonpayable",
      "type": "function"
    },
    {
      "inputs": [],
      "name": "claimAndConverAdminFees",
      "outputs": [
        {
          "internalType": "uint256",
          "name": "",
          "type": "uint256"
        }
      ],
      "stateMutability": "nonpayable",
      "type": "function"
    }
  ],
  "bytecode": "0x608060405234801561001057600080fd5b50612e35806100206000396000f3fe608060405234801561001057600080fd5b50600436106100a95760003560e01c80639f7547aa116100715780639f7547aa146101b8578063a694fc3a14610252578063ac244b3214610280578063b52c05fe1461029e578063c020836c146102d6578063eda54ad2146105a1576100a9565b80632def6620146100ae578063403f4447146100b857806348f8f6d9146100e65780634bed5e1814610104578063880cdc311461015e575b600080fd5b6100b66105ab565b005b6100e4600480360360208110156100ce57600080fd5b810190808035906020019092919050505061096a565b005b6100ee610b97565b6040518082815260200191505060405180910390f35b6101466004803603602081101561011a57600080fd5b81019080803573ffffffffffffffffffffffffffffffffffffffff169060200190929190505050611020565b60405180821515815260200191505060405180910390f35b6101a06004803603602081101561017457600080fd5b81019080803573ffffffffffffffffffffffffffffffffffffffff16906020019092919050505061114c565b60405180821515815260200191505060405180910390f35b61023a600480360360608110156101ce57600080fd5b81019080803573ffffffffffffffffffffffffffffffffffffffff169060200190929190803573ffffffffffffffffffffffffffffffffffffffff169060200190929190803573ffffffffffffffffffffffffffffffffffffffff169060200190929190505050611278565b60405180821515815260200191505060405180910390f35b61027e6004803603602081101561026857600080fd5b8101908080359060200190929190505050611522565b005b610288611967565b6040518082815260200191505060405180910390f35b6102d4600480360360408110156102b457600080fd5b810190808035906020019092919080359060200190929190505050611d4d565b005b61059f60048036036101608110156102ed57600080fd5b810190808035906020019064010000000081111561030a57600080fd5b82018360208201111561031c57600080fd5b8035906020019184602083028401116401000000008311171561033e57600080fd5b919080806020026020016040519081016040528093929190818152602001838360200280828437600081840152601f19601f8201169050808301925050505050505091929192908035906020019064010000000081111561039e57600080fd5b8201836020820111156103b057600080fd5b803590602001918460208302840111640100000000831117156103d257600080fd5b919080806020026020016040519081016040528093929190818152602001838360200280828437600081840152601f19601f8201169050808301925050505050505091929192908035906020019064010000000081111561043257600080fd5b82018360208201111561044457600080fd5b8035906020019184602083028401116401000000008311171561046657600080fd5b919080806020026020016040519081016040528093929190818152602001838360200280828437600081840152601f19601f820116905080830192505050505050509192919290803573ffffffffffffffffffffffffffffffffffffffff169060200190929190803573ffffffffffffffffffffffffffffffffffffffff169060200190929190803573ffffffffffffffffffffffffffffffffffffffff169060200190929190803573ffffffffffffffffffffffffffffffffffffffff169060200190929190803573ffffffffffffffffffffffffffffffffffffffff169060200190929190803573ffffffffffffffffffffffffffffffffffffffff16906020019092919080359060200190929190803573ffffffffffffffffffffffffffffffffffffffff169060200190929190505050611f83565b005b6105a961246a565b005b60006105b56126ba565b90508060040160003373ffffffffffffffffffffffffffffffffffffffff1673ffffffffffffffffffffffffffffffffffffffff16815260200190815260200160002060009054906101000a900460ff16610678576040517f08c379a00000000000000000000000000000000000000000000000000000000081526004018080602001828103825260188152602001807f4f6e6c792073747261746567792063616e2063616c6c2121000000000000000081525060200191505060405180910390fd5b60006106826126ba565b905060008160020160003373ffffffffffffffffffffffffffffffffffffffff1673ffffffffffffffffffffffffffffffffffffffff16815260200190815260200160002060009054906101000a900473ffffffffffffffffffffffffffffffffffffffff1673ffffffffffffffffffffffffffffffffffffffff166370a08231306040518263ffffffff1660e01b8152600401808273ffffffffffffffffffffffffffffffffffffffff16815260200191505060206040518083038186803b15801561074e57600080fd5b505afa158015610762573d6000803e3d6000fd5b505050506040513d602081101561077857600080fd5b810190808051906020019092919050505090508160020160003373ffffffffffffffffffffffffffffffffffffffff1673ffffffffffffffffffffffffffffffffffffffff16815260200190815260200160002060009054906101000a900473ffffffffffffffffffffffffffffffffffffffff1673ffffffffffffffffffffffffffffffffffffffff16632e1a7d4d826040518263ffffffff1660e01b815260040180828152602001915050600060405180830381600087803b15801561083f57600080fd5b505af1158015610853573d6000803e3d6000fd5b505050508160030160003373ffffffffffffffffffffffffffffffffffffffff1673ffffffffffffffffffffffffffffffffffffffff16815260200190815260200160002060009054906101000a900473ffffffffffffffffffffffffffffffffffffffff1673ffffffffffffffffffffffffffffffffffffffff1663a9059cbb33836040518363ffffffff1660e01b8152600401808373ffffffffffffffffffffffffffffffffffffffff16815260200182815260200192505050602060405180830381600087803b15801561092957600080fd5b505af115801561093d573d6000803e3d6000fd5b505050506040513d602081101561095357600080fd5b810190808051906020019092919050505050505050565b60006109746126ba565b905080600f01548211156109f0576040517f08c379a00000000000000000000000000000000000000000000000000000000081526004018080602001828103825260108152602001807f496e73756666696369656e74204352560000000000000000000000000000000081525060200191505060405180910390fd5b610a078282600f01546126e790919063ffffffff16565b81600f01819055508060000160019054906101000a900473ffffffffffffffffffffffffffffffffffffffff1673ffffffffffffffffffffffffffffffffffffffff1663095ea7b38260080160009054906101000a900473ffffffffffffffffffffffffffffffffffffffff16846040518363ffffffff1660e01b8152600401808373ffffffffffffffffffffffffffffffffffffffff16815260200182815260200192505050602060405180830381600087803b158015610ac857600080fd5b505af1158015610adc573d6000803e3d6000fd5b505050506040513d6020811015610af257600080fd5b8101908080519060200190929190505050508060080160009054906101000a900473ffffffffffffffffffffffffffffffffffffffff1673ffffffffffffffffffffffffffffffffffffffff16634957677c836040518263ffffffff1660e01b815260040180828152602001915050600060405180830381600087803b158015610b7b57600080fd5b505af1158015610b8f573d6000803e3d6000fd5b505050505050565b600080610ba26126ba565b90508060040160003373ffffffffffffffffffffffffffffffffffffffff1673ffffffffffffffffffffffffffffffffffffffff16815260200190815260200160002060009054906101000a900460ff16610c65576040517f08c379a00000000000000000000000000000000000000000000000000000000081526004018080602001828103825260188152602001807f4f6e6c792073747261746567792063616e2063616c6c2121000000000000000081525060200191505060405180910390fd5b6000610c6f6126ba565b905060008160000160019054906101000a900473ffffffffffffffffffffffffffffffffffffffff1673ffffffffffffffffffffffffffffffffffffffff166370a08231306040518263ffffffff1660e01b8152600401808273ffffffffffffffffffffffffffffffffffffffff16815260200191505060206040518083038186803b158015610cfe57600080fd5b505afa158015610d12573d6000803e3d6000fd5b505050506040513d6020811015610d2857600080fd5b810190808051906020019092919050505090508160070160009054906101000a900473ffffffffffffffffffffffffffffffffffffffff1673ffffffffffffffffffffffffffffffffffffffff16636a6278428360020160003373ffffffffffffffffffffffffffffffffffffffff1673ffffffffffffffffffffffffffffffffffffffff16815260200190815260200160002060009054906101000a900473ffffffffffffffffffffffffffffffffffffffff166040518263ffffffff1660e01b8152600401808273ffffffffffffffffffffffffffffffffffffffff168152602001915050600060405180830381600087803b158015610e2957600080fd5b505af1158015610e3d573d6000803e3d6000fd5b5050505060008260000160019054906101000a900473ffffffffffffffffffffffffffffffffffffffff1673ffffffffffffffffffffffffffffffffffffffff166370a08231306040518263ffffffff1660e01b8152600401808273ffffffffffffffffffffffffffffffffffffffff16815260200191505060206040518083038186803b158015610ece57600080fd5b505afa158015610ee2573d6000803e3d6000fd5b505050506040513d6020811015610ef857600080fd5b8101908080519060200190929190505050905060008282039050600084600d015485600c0154830281610f2757fe5b0490508085600f01540185600f0181905550600081830390508560000160019054906101000a900473ffffffffffffffffffffffffffffffffffffffff1673ffffffffffffffffffffffffffffffffffffffff1663a9059cbb33836040518363ffffffff1660e01b8152600401808373ffffffffffffffffffffffffffffffffffffffff16815260200182815260200192505050602060405180830381600087803b158015610fd557600080fd5b505af1158015610fe9573d6000803e3d6000fd5b505050506040513d6020811015610fff57600080fd5b81019080805190602001909291905050505081830397505050505050505090565b60008061102b6126ba565b90503373ffffffffffffffffffffffffffffffffffffffff1681600b0160009054906101000a900473ffffffffffffffffffffffffffffffffffffffff1673ffffffffffffffffffffffffffffffffffffffff16146110f2576040517f08c379a000000000000000000000000000000000000000000000000000000000815260040180806020018281038252601f8152602001807f4f6e6c7920636f6e74726f6c6c65724f776e65722063616e2063616c6c21210081525060200191505060405180910390fd5b60006110fc6126ba565b9050838160010160006101000a81548173ffffffffffffffffffffffffffffffffffffffff021916908373ffffffffffffffffffffffffffffffffffffffff160217905550600192505050919050565b6000806111576126ba565b90503373ffffffffffffffffffffffffffffffffffffffff1681600b0160009054906101000a900473ffffffffffffffffffffffffffffffffffffffff1673ffffffffffffffffffffffffffffffffffffffff161461121e576040517f08c379a000000000000000000000000000000000000000000000000000000000815260040180806020018281038252601f8152602001807f4f6e6c7920636f6e74726f6c6c65724f776e65722063616e2063616c6c21210081525060200191505060405180910390fd5b60006112286126ba565b90508381600b0160006101000a81548173ffffffffffffffffffffffffffffffffffffffff021916908373ffffffffffffffffffffffffffffffffffffffff160217905550600192505050919050565b6000806112836126ba565b90503373ffffffffffffffffffffffffffffffffffffffff1681600b0160009054906101000a900473ffffffffffffffffffffffffffffffffffffffff1673ffffffffffffffffffffffffffffffffffffffff161461134a576040517f08c379a000000000000000000000000000000000000000000000000000000000815260040180806020018281038252601f8152602001807f4f6e6c7920636f6e74726f6c6c65724f776e65722063616e2063616c6c21210081525060200191505060405180910390fd5b60006113546126ba565b905080600601869080600181540180825580915050600190039060005260206000200160009091909190916101000a81548173ffffffffffffffffffffffffffffffffffffffff021916908373ffffffffffffffffffffffffffffffffffffffff160217905550848160020160008873ffffffffffffffffffffffffffffffffffffffff1673ffffffffffffffffffffffffffffffffffffffff16815260200190815260200160002060006101000a81548173ffffffffffffffffffffffffffffffffffffffff021916908373ffffffffffffffffffffffffffffffffffffffff160217905550838160030160008873ffffffffffffffffffffffffffffffffffffffff1673ffffffffffffffffffffffffffffffffffffffff16815260200190815260200160002060006101000a81548173ffffffffffffffffffffffffffffffffffffffff021916908373ffffffffffffffffffffffffffffffffffffffff16021790555060018160040160008873ffffffffffffffffffffffffffffffffffffffff1673ffffffffffffffffffffffffffffffffffffffff16815260200190815260200160002060006101000a81548160ff0219169083151502179055506001925050509392505050565b600061152c6126ba565b90508060040160003373ffffffffffffffffffffffffffffffffffffffff1673ffffffffffffffffffffffffffffffffffffffff16815260200190815260200160002060009054906101000a900460ff166115ef576040517f08c379a00000000000000000000000000000000000000000000000000000000081526004018080602001828103825260188152602001807f4f6e6c792073747261746567792063616e2063616c6c2121000000000000000081525060200191505060405180910390fd5b60006115f96126ba565b90508060030160003373ffffffffffffffffffffffffffffffffffffffff1673ffffffffffffffffffffffffffffffffffffffff16815260200190815260200160002060009054906101000a900473ffffffffffffffffffffffffffffffffffffffff1673ffffffffffffffffffffffffffffffffffffffff166323b872dd3330866040518463ffffffff1660e01b8152600401808473ffffffffffffffffffffffffffffffffffffffff1681526020018373ffffffffffffffffffffffffffffffffffffffff1681526020018281526020019350505050602060405180830381600087803b1580156116eb57600080fd5b505af11580156116ff573d6000803e3d6000fd5b505050506040513d602081101561171557600080fd5b8101908080519060200190929190505050508060030160003373ffffffffffffffffffffffffffffffffffffffff1673ffffffffffffffffffffffffffffffffffffffff16815260200190815260200160002060009054906101000a900473ffffffffffffffffffffffffffffffffffffffff1673ffffffffffffffffffffffffffffffffffffffff1663095ea7b38260020160003373ffffffffffffffffffffffffffffffffffffffff1673ffffffffffffffffffffffffffffffffffffffff16815260200190815260200160002060009054906101000a900473ffffffffffffffffffffffffffffffffffffffff16856040518363ffffffff1660e01b8152600401808373ffffffffffffffffffffffffffffffffffffffff16815260200182815260200192505050602060405180830381600087803b15801561185a57600080fd5b505af115801561186e573d6000803e3d6000fd5b505050506040513d602081101561188457600080fd5b8101908080519060200190929190505050508060020160003373ffffffffffffffffffffffffffffffffffffffff1673ffffffffffffffffffffffffffffffffffffffff16815260200190815260200160002060009054906101000a900473ffffffffffffffffffffffffffffffffffffffff1673ffffffffffffffffffffffffffffffffffffffff1663b6b55f25846040518263ffffffff1660e01b815260040180828152602001915050600060405180830381600087803b15801561194a57600080fd5b505af115801561195e573d6000803e3d6000fd5b50505050505050565b6000806119726126ba565b905060008160010160009054906101000a900473ffffffffffffffffffffffffffffffffffffffff1673ffffffffffffffffffffffffffffffffffffffff166370a08231306040518263ffffffff1660e01b8152600401808273ffffffffffffffffffffffffffffffffffffffff16815260200191505060206040518083038186803b158015611a0157600080fd5b505afa158015611a15573d6000803e3d6000fd5b505050506040513d6020811015611a2b57600080fd5b810190808051906020019092919050505090508160090160009054906101000a900473ffffffffffffffffffffffffffffffffffffffff1673ffffffffffffffffffffffffffffffffffffffff16634e71d92d6040518163ffffffff1660e01b8152600401600060405180830381600087803b158015611aaa57600080fd5b505af1158015611abe573d6000803e3d6000fd5b5050505060008260010160009054906101000a900473ffffffffffffffffffffffffffffffffffffffff1673ffffffffffffffffffffffffffffffffffffffff166370a08231306040518263ffffffff1660e01b8152600401808273ffffffffffffffffffffffffffffffffffffffff16815260200191505060206040518083038186803b158015611b4f57600080fd5b505afa158015611b63573d6000803e3d6000fd5b505050506040513d6020811015611b7957600080fd5b81019080805190602001909291905050509050600082820390508360000160019054906101000a900473ffffffffffffffffffffffffffffffffffffffff1673ffffffffffffffffffffffffffffffffffffffff166370a08231306040518263ffffffff1660e01b8152600401808273ffffffffffffffffffffffffffffffffffffffff16815260200191505060206040518083038186803b158015611c1e57600080fd5b505afa158015611c32573d6000803e3d6000fd5b505050506040513d6020811015611c4857600080fd5b81019080805190602001909291905050509250611c6481612731565b8360000160019054906101000a900473ffffffffffffffffffffffffffffffffffffffff1673ffffffffffffffffffffffffffffffffffffffff166370a08231306040518263ffffffff1660e01b8152600401808273ffffffffffffffffffffffffffffffffffffffff16815260200191505060206040518083038186803b158015611cef57600080fd5b505afa158015611d03573d6000803e3d6000fd5b505050506040513d6020811015611d1957600080fd5b81019080805190602001909291905050509150600083830390508085600f01540185600f0181905550809550505050505090565b6000611d576126ba565b905080600f0154831115611dd3576040517f08c379a00000000000000000000000000000000000000000000000000000000081526004018080602001828103825260108152602001807f496e73756666696369656e74204352560000000000000000000000000000000081525060200191505060405180910390fd5b611dea8382600f01546126e790919063ffffffff16565b81600f01819055508060000160019054906101000a900473ffffffffffffffffffffffffffffffffffffffff1673ffffffffffffffffffffffffffffffffffffffff1663095ea7b38260080160009054906101000a900473ffffffffffffffffffffffffffffffffffffffff16856040518363ffffffff1660e01b8152600401808373ffffffffffffffffffffffffffffffffffffffff16815260200182815260200192505050602060405180830381600087803b158015611eab57600080fd5b505af1158015611ebf573d6000803e3d6000fd5b505050506040513d6020811015611ed557600080fd5b8101908080519060200190929190505050508060080160009054906101000a900473ffffffffffffffffffffffffffffffffffffffff1673ffffffffffffffffffffffffffffffffffffffff166365fc387384846040518363ffffffff1660e01b81526004018083815260200182815260200192505050600060405180830381600087803b158015611f6657600080fd5b505af1158015611f7a573d6000803e3d6000fd5b50505050505050565b6000611f8d6126ba565b90508060000160009054906101000a900460ff1615612014576040517f08c379a00000000000000000000000000000000000000000000000000000000081526004018080602001828103825260138152602001807f416c726561647920696e697469616c697a65640000000000000000000000000081525060200191505060405180910390fd5b8b81600601908051906020019061202c929190612d58565b5060005b8c5181101561224b578b818151811061204557fe5b602002602001015182600201600084600601848154811061206257fe5b9060005260206000200160009054906101000a900473ffffffffffffffffffffffffffffffffffffffff1673ffffffffffffffffffffffffffffffffffffffff1673ffffffffffffffffffffffffffffffffffffffff16815260200190815260200160002060006101000a81548173ffffffffffffffffffffffffffffffffffffffff021916908373ffffffffffffffffffffffffffffffffffffffff1602179055508a818151811061211157fe5b602002602001015182600301600084600601848154811061212e57fe5b9060005260206000200160009054906101000a900473ffffffffffffffffffffffffffffffffffffffff1673ffffffffffffffffffffffffffffffffffffffff1673ffffffffffffffffffffffffffffffffffffffff16815260200190815260200160002060006101000a81548173ffffffffffffffffffffffffffffffffffffffff021916908373ffffffffffffffffffffffffffffffffffffffff16021790555060018260040160008f84815181106121e557fe5b602002602001015173ffffffffffffffffffffffffffffffffffffffff1673ffffffffffffffffffffffffffffffffffffffff16815260200190815260200160002060006101000a81548160ff0219169083151502179055508080600101915050612030565b50888160070160006101000a81548173ffffffffffffffffffffffffffffffffffffffff021916908373ffffffffffffffffffffffffffffffffffffffff160217905550878160000160016101000a81548173ffffffffffffffffffffffffffffffffffffffff021916908373ffffffffffffffffffffffffffffffffffffffff160217905550868160080160006101000a81548173ffffffffffffffffffffffffffffffffffffffff021916908373ffffffffffffffffffffffffffffffffffffffff160217905550858160090160006101000a81548173ffffffffffffffffffffffffffffffffffffffff021916908373ffffffffffffffffffffffffffffffffffffffff1602179055508481600a0160006101000a81548173ffffffffffffffffffffffffffffffffffffffff021916908373ffffffffffffffffffffffffffffffffffffffff1602179055508381600b0160006101000a81548173ffffffffffffffffffffffffffffffffffffffff021916908373ffffffffffffffffffffffffffffffffffffffff1602179055508281600c018190555061271081600d0181905550818160010160006101000a81548173ffffffffffffffffffffffffffffffffffffffff021916908373ffffffffffffffffffffffffffffffffffffffff1602179055508b5181600e018190555060018160000160006101000a81548160ff021916908315150217905550505050505050505050505050565b60006124746126ba565b905060008160000160019054906101000a900473ffffffffffffffffffffffffffffffffffffffff1673ffffffffffffffffffffffffffffffffffffffff166370a08231306040518263ffffffff1660e01b8152600401808273ffffffffffffffffffffffffffffffffffffffff16815260200191505060206040518083038186803b15801561250357600080fd5b505afa158015612517573d6000803e3d6000fd5b505050506040513d602081101561252d57600080fd5b810190808051906020019092919050505090508160080160009054906101000a900473ffffffffffffffffffffffffffffffffffffffff1673ffffffffffffffffffffffffffffffffffffffff16633ccfd60b6040518163ffffffff1660e01b8152600401600060405180830381600087803b1580156125ac57600080fd5b505af11580156125c0573d6000803e3d6000fd5b5050505060008260000160019054906101000a900473ffffffffffffffffffffffffffffffffffffffff1673ffffffffffffffffffffffffffffffffffffffff166370a08231306040518263ffffffff1660e01b8152600401808273ffffffffffffffffffffffffffffffffffffffff16815260200191505060206040518083038186803b15801561265157600080fd5b505afa158015612665573d6000803e3d6000fd5b505050506040513d602081101561267b57600080fd5b81019080805190602001909291905050509050600082820390506126ac8185600f0154612c1090919063ffffffff16565b84600f018190555050505050565b6000807f36cd024ab99b7eb43ce06d2c7a20fd55d745b01b3ab37b4f7429b2a08705e3a490508091505090565b600061272983836040518060400160405280601f81526020017f536166654d6174683a207375627472616374696f6e20756e646572666c6f7700815250612c98565b905092915050565b600061273b6126ba565b90508060000160019054906101000a900473ffffffffffffffffffffffffffffffffffffffff1673ffffffffffffffffffffffffffffffffffffffff1663095ea7b382600a0160009054906101000a900473ffffffffffffffffffffffffffffffffffffffff16846040518363ffffffff1660e01b8152600401808373ffffffffffffffffffffffffffffffffffffffff16815260200182815260200192505050602060405180830381600087803b1580156127f657600080fd5b505af115801561280a573d6000803e3d6000fd5b505050506040513d602081101561282057600080fd5b8101908080519060200190929190505050506000600367ffffffffffffffff8111801561284c57600080fd5b5060405190808252806020026020018201604052801561287b5781602001602082028036833780820191505090505b5090508160010160009054906101000a900473ffffffffffffffffffffffffffffffffffffffff16816000815181106128b057fe5b602002602001019073ffffffffffffffffffffffffffffffffffffffff16908173ffffffffffffffffffffffffffffffffffffffff168152505081600a0160009054906101000a900473ffffffffffffffffffffffffffffffffffffffff1673ffffffffffffffffffffffffffffffffffffffff1663ad5c46486040518163ffffffff1660e01b815260040160206040518083038186803b15801561295457600080fd5b505afa158015612968573d6000803e3d6000fd5b505050506040513d602081101561297e57600080fd5b81019080805190602001909291905050508160018151811061299c57fe5b602002602001019073ffffffffffffffffffffffffffffffffffffffff16908173ffffffffffffffffffffffffffffffffffffffff16815250508160000160019054906101000a900473ffffffffffffffffffffffffffffffffffffffff1681600281518110612a0857fe5b602002602001019073ffffffffffffffffffffffffffffffffffffffff16908173ffffffffffffffffffffffffffffffffffffffff168152505081600a0160009054906101000a900473ffffffffffffffffffffffffffffffffffffffff1673ffffffffffffffffffffffffffffffffffffffff166338ed1739846000843061070842016040518663ffffffff1660e01b815260040180868152602001858152602001806020018473ffffffffffffffffffffffffffffffffffffffff168152602001838152602001828103825285818151815260200191508051906020019060200280838360005b83811015612b0c578082015181840152602081019050612af1565b505050509050019650505050505050600060405180830381600087803b158015612b3557600080fd5b505af1158015612b49573d6000803e3d6000fd5b505050506040513d6000823e3d601f19601f820116820180604052506020811015612b7357600080fd5b8101908080516040519392919084640100000000821115612b9357600080fd5b83820191506020820185811115612ba957600080fd5b8251866020820283011164010000000082111715612bc657600080fd5b8083526020830192505050908051906020019060200280838360005b83811015612bfd578082015181840152602081019050612be2565b5050505090500160405250505050505050565b600080828401905083811015612c8e576040517f08c379a000000000000000000000000000000000000000000000000000000000815260040180806020018281038252601b8152602001807f536166654d6174683a206164646974696f6e206f766572666c6f77000000000081525060200191505060405180910390fd5b8091505092915050565b6000838311158290612d45576040517f08c379a00000000000000000000000000000000000000000000000000000000081526004018080602001828103825283818151815260200191508051906020019080838360005b83811015612d0a578082015181840152602081019050612cef565b50505050905090810190601f168015612d375780820380516001836020036101000a031916815260200191505b509250505060405180910390fd5b5060008385039050809150509392505050565b828054828255906000526020600020908101928215612dd1579160200282015b82811115612dd05782518260006101000a81548173ffffffffffffffffffffffffffffffffffffffff021916908373ffffffffffffffffffffffffffffffffffffffff16021790555091602001919060010190612d78565b5b509050612dde9190612de2565b5090565b5b80821115612dfb576000816000905550600101612de3565b509056fea2646970667358221220281653d7f8d01fdd102fbc6547d3e9b3afc3f8c0cdc4db01ab73e2d1204395ee64736f6c63430007060033",
  "immutableReferences": {},
  "source": "// SPDX-License-Identifier: UNLICENSED\r\npragma solidity ^0.7.6;\r\nimport \"../storage/ControllerStorage.sol\";\r\nimport \"../libraries/SafeMath.sol\";\r\n\r\ncontract Controller is ControllerStorageV1 {\r\n    \r\n    using SafeMath for uint256;\r\n    \r\n  \r\n/****MODIFIERS****/\r\n    modifier onlyOwner(){\r\n        ControllerStorage storage cs = controllerStorage();\r\n        require(cs.controllerOwner == msg.sender, \"Only controllerOwner can call!!\");\r\n        _;\r\n    }\r\n\r\n    modifier onlyStrategy(){\r\n        ControllerStorage storage cs = controllerStorage();\r\n        require(cs.isStratgey[msg.sender], \"Only strategy can call!!\");\r\n        _;\r\n    }\r\n    \r\n\r\n/****CONSTRUCTOR****/\r\n    function initialize(\r\n        address[] memory _depositStrategies,\r\n        Gauge[] memory _gauges, \r\n        IERC20[] memory _strategyLPToken,\r\n        Minter _minter, \r\n        IERC20 _crvToken, \r\n        VotingEscrow _votingEscrow,\r\n        FeeDistributor _feeDistributor,\r\n        UniswapV2Router _uniswapRouter,\r\n        address _controllerOwner,\r\n        uint256 _crvLockPercent,\r\n        IERC20 _adminFeeToken\r\n    ) public{\r\n        ControllerStorage storage cs = controllerStorage();\r\n        require(!cs.initialized, 'Already initialized');\r\n        cs.depositStrategies = _depositStrategies;\r\n\r\n        for(uint256 i = 0; i < _depositStrategies.length; i++){\r\n            cs.strategyGauges[cs.depositStrategies[i]] = _gauges[i];\r\n            cs.strategyLPTokens[cs.depositStrategies[i]] = _strategyLPToken[i];\r\n            cs.isStratgey[_depositStrategies[i]] = true;\r\n        }\r\n\r\n        cs.minter = _minter;\r\n        cs.crvToken = _crvToken;\r\n        cs.votingEscrow = _votingEscrow;\r\n        cs.feeDistributor = _feeDistributor;\r\n        cs.uniswapRouter = _uniswapRouter; \r\n        cs.controllerOwner = _controllerOwner;\r\n        cs.crvLockPercent = _crvLockPercent;\r\n        cs.DENOMINATOR = 10000;\r\n        cs.adminFeeToken = _adminFeeToken;\r\n        cs.totalStrategies = _depositStrategies.length;\r\n        cs.initialized = true;\r\n    }\r\n\r\n/****CONTROLLER OWNER FUNCTIONS****/\r\n\r\n    function updateOwner(address newOwner) external onlyOwner() returns(bool){\r\n        ControllerStorage storage cs = controllerStorage();\r\n        cs.controllerOwner = newOwner;\r\n        return true;\r\n    } \r\n\r\n    function addNewStrategy(address _strategy, Gauge _gauge, IERC20 _strategyLPToken) external onlyOwner() returns(bool){\r\n        ControllerStorage storage cs = controllerStorage();\r\n        cs.depositStrategies.push(_strategy);\r\n        cs.strategyGauges[_strategy] = _gauge;\r\n        cs.strategyLPTokens[_strategy] = _strategyLPToken;\r\n        cs.isStratgey[_strategy] = true;\r\n        return true;\r\n    } \r\n\r\n    function updateAdminFeeToken(IERC20 _adminFeeToken) external onlyOwner() returns(bool){\r\n        ControllerStorage storage cs = controllerStorage();\r\n        cs.adminFeeToken = _adminFeeToken;\r\n        return true;\r\n    } \r\n\r\n/****STRATEGY FUNCTIONS****/\r\n\r\n    function stake(uint256 amount) external onlyStrategy(){\r\n        ControllerStorage storage cs = controllerStorage();\r\n        cs.strategyLPTokens[msg.sender].transferFrom(msg.sender, address(this), amount);\r\n        cs.strategyLPTokens[msg.sender].approve(address(cs.strategyGauges[msg.sender]), amount);\r\n        cs.strategyGauges[msg.sender].deposit(amount);  \r\n    }\r\n    \r\n    function unstake() external onlyStrategy(){\r\n        ControllerStorage storage cs = controllerStorage();\r\n        uint256 unstakedAmount = cs.strategyGauges[msg.sender].balanceOf(address(this));\r\n        cs.strategyGauges[msg.sender].withdraw(unstakedAmount);\r\n        cs.strategyLPTokens[msg.sender].transfer(msg.sender, unstakedAmount);\r\n    }\r\n\r\n    function claimCRV() external onlyStrategy() returns(uint256){\r\n        ControllerStorage storage cs = controllerStorage();\r\n        uint256 oldBalance = cs.crvToken.balanceOf(address(this));\r\n        Minter(cs.minter).mint(address(cs.strategyGauges[msg.sender]));\r\n        uint256 newBalance = cs.crvToken.balanceOf(address(this));\r\n        uint256 crvReceived = newBalance - oldBalance;\r\n        uint256 crvToLock = crvReceived * cs.crvLockPercent / cs.DENOMINATOR;\r\n        cs.availableCRVToLock = cs.availableCRVToLock + crvToLock;\r\n        uint256 crvToSend = crvReceived - crvToLock;\r\n        cs.crvToken.transfer(msg.sender, crvToSend);\r\n        return crvReceived - crvToLock;\r\n    }\r\n\r\n/****OPEN FUNCTIONS****/\r\n\r\n    function createLock(uint256 _value, uint256 _unlockTime) external{\r\n        ControllerStorage storage cs = controllerStorage();\r\n        require(_value <= cs.availableCRVToLock, 'Insufficient CRV' );\r\n        cs.availableCRVToLock = cs.availableCRVToLock.sub(_value);\r\n        cs.crvToken.approve(address(cs.votingEscrow), _value);\r\n        VotingEscrow(cs.votingEscrow).create_lock(_value, _unlockTime);\r\n    } \r\n    \r\n    function releaseLock() external{\r\n        ControllerStorage storage cs = controllerStorage();\r\n        uint256 oldBalance = cs.crvToken.balanceOf(address(this));\r\n        VotingEscrow(cs.votingEscrow).withdraw();  \r\n        uint256 newBalance = cs.crvToken.balanceOf(address(this));\r\n        uint256 crvReceived = newBalance - oldBalance;\r\n        cs.availableCRVToLock = cs.availableCRVToLock.add(crvReceived);\r\n    }\r\n    \r\n    function increaseLockAmount(uint256 _value) external {\r\n        ControllerStorage storage cs = controllerStorage();\r\n        require(_value <= cs.availableCRVToLock, 'Insufficient CRV' );\r\n        cs.availableCRVToLock = cs.availableCRVToLock.sub(_value);\r\n        cs.crvToken.approve(address(cs.votingEscrow), _value);\r\n        VotingEscrow(cs.votingEscrow).increase_amount(_value);\r\n    }\r\n\r\n    function claimAndConverAdminFees() external returns(uint256){\r\n        ControllerStorage storage cs = controllerStorage();\r\n        uint256 oldBalance = cs.adminFeeToken.balanceOf(address(this));\r\n        FeeDistributor(cs.feeDistributor).claim();\r\n        uint256 newBalance = cs.adminFeeToken.balanceOf(address(this));\r\n        uint256 adminFeeReceived = newBalance - oldBalance;\r\n        oldBalance = cs.crvToken.balanceOf(address(this));\r\n        convertToCRV(adminFeeReceived);\r\n        newBalance = cs.crvToken.balanceOf(address(this));\r\n        uint256 crvReceived = newBalance - oldBalance;\r\n        cs.availableCRVToLock = cs.availableCRVToLock + crvReceived;\r\n        return crvReceived;\r\n    }\r\n    \r\n/***INTERNAL FUNCTION****/\r\n\r\n    function convertToCRV(uint256 amount) internal {\r\n        ControllerStorage storage cs = controllerStorage();\r\n        cs.crvToken.approve(address(cs.uniswapRouter), amount);\r\n        address[] memory path = new address[](3);\r\n        path[0] = address(cs.adminFeeToken);\r\n        path[1] = cs.uniswapRouter.WETH();\r\n        path[2] = address(cs.crvToken);\r\n        \r\n        cs.uniswapRouter.swapExactTokensForTokens(\r\n            amount, \r\n            uint256(0), \r\n            path, \r\n            address(this), \r\n            block.timestamp + 1800\r\n        );\r\n    }\r\n\r\n}",
  "sourcePath": "E:/New Desktop/Projects/AdvancedPool/Controller/contracts/facets/Controller.sol",
  "compiler": {
    "name": "solc",
    "version": "0.7.6+commit.7338295f.Emscripten.clang"
  },
  "schemaVersion": "3.3.2",
  "updatedAt": "2021-05-09T08:00:23.957Z",
  "networkType": "ethereum",
  "devdoc": {
    "kind": "dev",
    "methods": {},
    "version": 1
  },
  "userdoc": {
    "kind": "user",
    "methods": {},
    "version": 1
  }
}