{
  "contractName": "TriPoolStrategy",
  "abi": [
    {
      "inputs": [
        {
          "internalType": "contract Pool",
          "name": "_poolAddress",
          "type": "address"
        },
        {
          "internalType": "contract Gauge",
          "name": "_gauge",
          "type": "address"
        },
        {
          "internalType": "contract Minter",
          "name": "_minter",
          "type": "address"
        },
        {
          "internalType": "contract IERC20",
          "name": "_crvToken",
          "type": "address"
        },
        {
          "internalType": "contract IERC20",
          "name": "_poolToken",
          "type": "address"
        },
        {
          "internalType": "contract VotingEscrow",
          "name": "_votingEscrow",
          "type": "address"
        },
        {
          "internalType": "contract FeeDistributor",
          "name": "_feeDistributor",
          "type": "address"
        },
        {
          "internalType": "contract IERC20[3]",
          "name": "_coins",
          "type": "address[3]"
        },
        {
          "internalType": "contract UniswapV2Router",
          "name": "_uniswapRouter",
          "type": "address"
        },
        {
          "internalType": "address",
          "name": "_poolOwner",
          "type": "address"
        },
        {
          "internalType": "uint256",
          "name": "_crvLockPercent",
          "type": "uint256"
        }
      ],
      "name": "initialize",
      "outputs": [],
      "stateMutability": "nonpayable",
      "type": "function"
    },
    {
      "inputs": [
        {
          "internalType": "address",
          "name": "newOwner",
          "type": "address"
        }
      ],
      "name": "updateOwner",
      "outputs": [
        {
          "internalType": "bool",
          "name": "",
          "type": "bool"
        }
      ],
      "stateMutability": "nonpayable",
      "type": "function"
    },
    {
      "inputs": [
        {
          "internalType": "contract IERC20",
          "name": "_rewardCoin",
          "type": "address"
        }
      ],
      "name": "setRewardCoin",
      "outputs": [
        {
          "internalType": "bool",
          "name": "",
          "type": "bool"
        }
      ],
      "stateMutability": "nonpayable",
      "type": "function"
    },
    {
      "inputs": [
        {
          "internalType": "uint256[10]",
          "name": "amounts",
          "type": "uint256[10]"
        }
      ],
      "name": "deposit",
      "outputs": [],
      "stateMutability": "nonpayable",
      "type": "function"
    },
    {
      "inputs": [
        {
          "internalType": "uint256[10]",
          "name": "amounts",
          "type": "uint256[10]"
        }
      ],
      "name": "withdraw",
      "outputs": [],
      "stateMutability": "nonpayable",
      "type": "function"
    },
    {
      "inputs": [],
      "name": "claimCRV",
      "outputs": [
        {
          "internalType": "uint256",
          "name": "",
          "type": "uint256"
        }
      ],
      "stateMutability": "nonpayable",
      "type": "function"
    },
    {
      "inputs": [
        {
          "internalType": "uint256",
          "name": "_value",
          "type": "uint256"
        },
        {
          "internalType": "uint256",
          "name": "_unlockTime",
          "type": "uint256"
        }
      ],
      "name": "createLock",
      "outputs": [],
      "stateMutability": "nonpayable",
      "type": "function"
    },
    {
      "inputs": [],
      "name": "releaseLock",
      "outputs": [],
      "stateMutability": "nonpayable",
      "type": "function"
    },
    {
      "inputs": [
        {
          "internalType": "uint256",
          "name": "_value",
          "type": "uint256"
        }
      ],
      "name": "increaseLockAmount",
      "outputs": [],
      "stateMutability": "nonpayable",
      "type": "function"
    },
    {
      "inputs": [],
      "name": "claimAndConvert3CRV",
      "outputs": [
        {
          "internalType": "uint256",
          "name": "",
          "type": "uint256"
        }
      ],
      "stateMutability": "nonpayable",
      "type": "function"
    },
    {
      "inputs": [
        {
          "internalType": "uint256",
          "name": "amount",
          "type": "uint256"
        }
      ],
      "name": "convertCRV",
      "outputs": [
        {
          "internalType": "uint256",
          "name": "",
          "type": "uint256"
        }
      ],
      "stateMutability": "nonpayable",
      "type": "function"
    }
  ],
  "bytecode": "0x608060405234801561001057600080fd5b506130de806100206000396000f3fe608060405234801561001057600080fd5b50600436106100a95760003560e01c8063a9834c6d11610071578063a9834c6d1461034b578063b52c05fe146103b2578063b7fdf784146103ea578063badcac3914610444578063eb24280a14610486578063eda54ad2146104a4576100a9565b8063403f4447146100ae57806345ce0360146100dc57806348f8f6d914610143578063880cdc311461016157806390fcd6e0146101bb575b600080fd5b6100da600480360360208110156100c457600080fd5b81019080803590602001909291905050506104ae565b005b61014160048036036101408110156100f357600080fd5b81019080806101400190600a806020026040519081016040528092919082600a60200280828437600081840152601f19601f82011690508083019250505050505091929192905050506106db565b005b61014b610b93565b6040518082815260200191505060405180910390f35b6101a36004803603602081101561017757600080fd5b81019080803573ffffffffffffffffffffffffffffffffffffffff169060200190929190505050610e67565b60405180821515815260200191505060405180910390f35b61034960048036036101a08110156101d257600080fd5b81019080803573ffffffffffffffffffffffffffffffffffffffff169060200190929190803573ffffffffffffffffffffffffffffffffffffffff169060200190929190803573ffffffffffffffffffffffffffffffffffffffff169060200190929190803573ffffffffffffffffffffffffffffffffffffffff169060200190929190803573ffffffffffffffffffffffffffffffffffffffff169060200190929190803573ffffffffffffffffffffffffffffffffffffffff169060200190929190803573ffffffffffffffffffffffffffffffffffffffff16906020019092919080606001906003806020026040519081016040528092919082600360200280828437600081840152601f19601f8201169050808301925050505050509192919290803573ffffffffffffffffffffffffffffffffffffffff169060200190929190803573ffffffffffffffffffffffffffffffffffffffff16906020019092919080359060200190929190505050610f93565b005b6103b0600480360361014081101561036257600080fd5b81019080806101400190600a806020026040519081016040528092919082600a60200280828437600081840152601f19601f82011690508083019250505050505091929192905050506112d2565b005b6103e8600480360360408110156103c857600080fd5b810190808035906020019092919080359060200190929190505050611713565b005b61042c6004803603602081101561040057600080fd5b81019080803573ffffffffffffffffffffffffffffffffffffffff169060200190929190505050611949565b60405180821515815260200191505060405180910390f35b6104706004803603602081101561045a57600080fd5b8101908080359060200190929190505050611abe565b6040518082815260200191505060405180910390f35b61048e61230f565b6040518082815260200191505060405180910390f35b6104ac6128a6565b005b60006104b8612b30565b905080600f0154821115610534576040517f08c379a00000000000000000000000000000000000000000000000000000000081526004018080602001828103825260108152602001807f496e73756666696369656e74204352560000000000000000000000000000000081525060200191505060405180910390fd5b61054b8282600f0154612b5d90919063ffffffff16565b81600f01819055508060040160009054906101000a900473ffffffffffffffffffffffffffffffffffffffff1673ffffffffffffffffffffffffffffffffffffffff1663095ea7b38260090160009054906101000a900473ffffffffffffffffffffffffffffffffffffffff16846040518363ffffffff1660e01b8152600401808373ffffffffffffffffffffffffffffffffffffffff16815260200182815260200192505050602060405180830381600087803b15801561060c57600080fd5b505af1158015610620573d6000803e3d6000fd5b505050506040513d602081101561063657600080fd5b8101908080519060200190929190505050508060090160009054906101000a900473ffffffffffffffffffffffffffffffffffffffff1673ffffffffffffffffffffffffffffffffffffffff16634957677c836040518263ffffffff1660e01b815260040180828152602001915050600060405180830381600087803b1580156106bf57600080fd5b505af11580156106d3573d6000803e3d6000fd5b505050505050565b60006106e5612b30565b90503373ffffffffffffffffffffffffffffffffffffffff1681600c0160009054906101000a900473ffffffffffffffffffffffffffffffffffffffff1673ffffffffffffffffffffffffffffffffffffffff16146107ac576040517f08c379a00000000000000000000000000000000000000000000000000000000081526004018080602001828103825260198152602001807f4f6e6c7920706f6f6c4f776e65722063616e2063616c6c21210000000000000081525060200191505060405180910390fd5b60006107b6612b30565b905060006107c2612fec565b60005b600381101561081e578581600a81106107da57fe5b60200201518282600381106107eb57fe5b602002018181525050600082826003811061080257fe5b60200201511115610811578092505b80806001019150506107c5565b5060008360070160009054906101000a900473ffffffffffffffffffffffffffffffffffffffff1673ffffffffffffffffffffffffffffffffffffffff166370a08231306040518263ffffffff1660e01b8152600401808273ffffffffffffffffffffffffffffffffffffffff16815260200191505060206040518083038186803b1580156108ac57600080fd5b505afa1580156108c0573d6000803e3d6000fd5b505050506040513d60208110156108d657600080fd5b810190808051906020019092919050505090506108f281612ba7565b8360060160009054906101000a900473ffffffffffffffffffffffffffffffffffffffff1673ffffffffffffffffffffffffffffffffffffffff16639fdaea0c83836040518363ffffffff1660e01b81526004018083600360200280838360005b8381101561096e578082015181840152602081019050610953565b5050505090500182815260200192505050600060405180830381600087803b15801561099957600080fd5b505af11580156109ad573d6000803e3d6000fd5b505050508360010183600381106109c057fe5b0160009054906101000a900473ffffffffffffffffffffffffffffffffffffffff1673ffffffffffffffffffffffffffffffffffffffff1663a9059cbb85600c0160009054906101000a900473ffffffffffffffffffffffffffffffffffffffff16866001018660038110610a3157fe5b0160009054906101000a900473ffffffffffffffffffffffffffffffffffffffff1673ffffffffffffffffffffffffffffffffffffffff166370a08231306040518263ffffffff1660e01b8152600401808273ffffffffffffffffffffffffffffffffffffffff16815260200191505060206040518083038186803b158015610ab957600080fd5b505afa158015610acd573d6000803e3d6000fd5b505050506040513d6020811015610ae357600080fd5b81019080805190602001909291905050506040518363ffffffff1660e01b8152600401808373ffffffffffffffffffffffffffffffffffffffff16815260200182815260200192505050602060405180830381600087803b158015610b4757600080fd5b505af1158015610b5b573d6000803e3d6000fd5b505050506040513d6020811015610b7157600080fd5b810190808051906020019092919050505050610b8b612c46565b505050505050565b600080610b9e612b30565b905060008160040160009054906101000a900473ffffffffffffffffffffffffffffffffffffffff1673ffffffffffffffffffffffffffffffffffffffff166370a08231306040518263ffffffff1660e01b8152600401808273ffffffffffffffffffffffffffffffffffffffff16815260200191505060206040518083038186803b158015610c2d57600080fd5b505afa158015610c41573d6000803e3d6000fd5b505050506040513d6020811015610c5757600080fd5b810190808051906020019092919050505090508160080160009054906101000a900473ffffffffffffffffffffffffffffffffffffffff1673ffffffffffffffffffffffffffffffffffffffff16636a6278428360070160009054906101000a900473ffffffffffffffffffffffffffffffffffffffff166040518263ffffffff1660e01b8152600401808273ffffffffffffffffffffffffffffffffffffffff168152602001915050600060405180830381600087803b158015610d1b57600080fd5b505af1158015610d2f573d6000803e3d6000fd5b5050505060008260040160009054906101000a900473ffffffffffffffffffffffffffffffffffffffff1673ffffffffffffffffffffffffffffffffffffffff166370a08231306040518263ffffffff1660e01b8152600401808273ffffffffffffffffffffffffffffffffffffffff16815260200191505060206040518083038186803b158015610dc057600080fd5b505afa158015610dd4573d6000803e3d6000fd5b505050506040513d6020811015610dea57600080fd5b81019080805190602001909291905050509050600082820390506000846011015485600e0154830281610e1957fe5b049050610e338186600f0154612ea490919063ffffffff16565b85600f0181905550610e5481830386600d0154612ea490919063ffffffff16565b85600d0181905550819550505050505090565b600080610e72612b30565b90503373ffffffffffffffffffffffffffffffffffffffff1681600c0160009054906101000a900473ffffffffffffffffffffffffffffffffffffffff1673ffffffffffffffffffffffffffffffffffffffff1614610f39576040517f08c379a00000000000000000000000000000000000000000000000000000000081526004018080602001828103825260198152602001807f4f6e6c7920706f6f6c4f776e65722063616e2063616c6c21210000000000000081525060200191505060405180910390fd5b6000610f43612b30565b90508381600c0160006101000a81548173ffffffffffffffffffffffffffffffffffffffff021916908373ffffffffffffffffffffffffffffffffffffffff160217905550600192505050919050565b6000610f9d612b30565b90508060000160009054906101000a900460ff1615611024576040517f08c379a00000000000000000000000000000000000000000000000000000000081526004018080602001828103825260138152602001807f416c726561647920696e697469616c697a65640000000000000000000000000081525060200191505060405180910390fd5b8b8160060160006101000a81548173ffffffffffffffffffffffffffffffffffffffff021916908373ffffffffffffffffffffffffffffffffffffffff1602179055508a8160070160006101000a81548173ffffffffffffffffffffffffffffffffffffffff021916908373ffffffffffffffffffffffffffffffffffffffff160217905550898160080160006101000a81548173ffffffffffffffffffffffffffffffffffffffff021916908373ffffffffffffffffffffffffffffffffffffffff160217905550888160040160006101000a81548173ffffffffffffffffffffffffffffffffffffffff021916908373ffffffffffffffffffffffffffffffffffffffff160217905550868160090160006101000a81548173ffffffffffffffffffffffffffffffffffffffff021916908373ffffffffffffffffffffffffffffffffffffffff1602179055508581600a0160006101000a81548173ffffffffffffffffffffffffffffffffffffffff021916908373ffffffffffffffffffffffffffffffffffffffff16021790555084816001019060036111c992919061300e565b508381600b0160006101000a81548173ffffffffffffffffffffffffffffffffffffffff021916908373ffffffffffffffffffffffffffffffffffffffff1602179055508281600c0160006101000a81548173ffffffffffffffffffffffffffffffffffffffff021916908373ffffffffffffffffffffffffffffffffffffffff160217905550878160050160006101000a81548173ffffffffffffffffffffffffffffffffffffffff021916908373ffffffffffffffffffffffffffffffffffffffff1602179055508181600e0181905550612710816011018190555060018160000160006101000a81548160ff021916908315150217905550505050505050505050505050565b60006112dc612b30565b90503373ffffffffffffffffffffffffffffffffffffffff1681600c0160009054906101000a900473ffffffffffffffffffffffffffffffffffffffff1673ffffffffffffffffffffffffffffffffffffffff16146113a3576040517f08c379a00000000000000000000000000000000000000000000000000000000081526004018080602001828103825260198152602001807f4f6e6c7920706f6f6c4f776e65722063616e2063616c6c21210000000000000081525060200191505060405180910390fd5b60006113ad612b30565b90506113b7612fec565b60005b60038160ff16101561164457848160ff16600a81106113d557fe5b6020020151828260ff16600381106113e957fe5b6020020181815250506000858260ff16600a811061140357fe5b6020020151111561163757826001018160ff166003811061142057fe5b0160009054906101000a900473ffffffffffffffffffffffffffffffffffffffff1673ffffffffffffffffffffffffffffffffffffffff166323b872dd3330888560ff16600a811061146e57fe5b60200201516040518463ffffffff1660e01b8152600401808473ffffffffffffffffffffffffffffffffffffffff1681526020018373ffffffffffffffffffffffffffffffffffffffff1681526020018281526020019350505050602060405180830381600087803b1580156114e357600080fd5b505af11580156114f7573d6000803e3d6000fd5b505050506040513d602081101561150d57600080fd5b810190808051906020019092919050505050826001018160ff166003811061153157fe5b0160009054906101000a900473ffffffffffffffffffffffffffffffffffffffff1673ffffffffffffffffffffffffffffffffffffffff1663095ea7b38460060160009054906101000a900473ffffffffffffffffffffffffffffffffffffffff16878460ff16600a81106115a257fe5b60200201516040518363ffffffff1660e01b8152600401808373ffffffffffffffffffffffffffffffffffffffff16815260200182815260200192505050602060405180830381600087803b1580156115fa57600080fd5b505af115801561160e573d6000803e3d6000fd5b505050506040513d602081101561162457600080fd5b8101908080519060200190929190505050505b80806001019150506113ba565b508160060160009054906101000a900473ffffffffffffffffffffffffffffffffffffffff1673ffffffffffffffffffffffffffffffffffffffff16634515cef38260006040518363ffffffff1660e01b81526004018083600360200280838360005b838110156116c25780820151818401526020810190506116a7565b5050505090500182815260200192505050600060405180830381600087803b1580156116ed57600080fd5b505af1158015611701573d6000803e3d6000fd5b5050505061170d612c46565b50505050565b600061171d612b30565b905080600f0154831115611799576040517f08c379a00000000000000000000000000000000000000000000000000000000081526004018080602001828103825260108152602001807f496e73756666696369656e74204352560000000000000000000000000000000081525060200191505060405180910390fd5b6117b08382600f0154612b5d90919063ffffffff16565b81600f01819055508060040160009054906101000a900473ffffffffffffffffffffffffffffffffffffffff1673ffffffffffffffffffffffffffffffffffffffff1663095ea7b38260090160009054906101000a900473ffffffffffffffffffffffffffffffffffffffff16856040518363ffffffff1660e01b8152600401808373ffffffffffffffffffffffffffffffffffffffff16815260200182815260200192505050602060405180830381600087803b15801561187157600080fd5b505af1158015611885573d6000803e3d6000fd5b505050506040513d602081101561189b57600080fd5b8101908080519060200190929190505050508060090160009054906101000a900473ffffffffffffffffffffffffffffffffffffffff1673ffffffffffffffffffffffffffffffffffffffff166365fc387384846040518363ffffffff1660e01b81526004018083815260200182815260200192505050600060405180830381600087803b15801561192c57600080fd5b505af1158015611940573d6000803e3d6000fd5b50505050505050565b600080611954612b30565b90503373ffffffffffffffffffffffffffffffffffffffff1681600c0160009054906101000a900473ffffffffffffffffffffffffffffffffffffffff1673ffffffffffffffffffffffffffffffffffffffff1614611a1b576040517f08c379a00000000000000000000000000000000000000000000000000000000081526004018080602001828103825260198152602001807f4f6e6c7920706f6f6c4f776e65722063616e2063616c6c21210000000000000081525060200191505060405180910390fd5b6000611a25612b30565b905060005b6003811015611ab2578473ffffffffffffffffffffffffffffffffffffffff16826001018260038110611a5957fe5b0160009054906101000a900473ffffffffffffffffffffffffffffffffffffffff1673ffffffffffffffffffffffffffffffffffffffff161415611aa557808260100181905550611ab2565b8080600101915050611a2a565b50600192505050919050565b600080611ac9612b30565b905080600d0154831115611b45576040517f08c379a00000000000000000000000000000000000000000000000000000000081526004018080602001828103825260128152602001807f696e73756666696369656e7420746f6b656e000000000000000000000000000081525060200191505060405180910390fd5b611b5c8382600d0154612b5d90919063ffffffff16565b81600d0181905550600081600101826010015460038110611b7957fe5b0160009054906101000a900473ffffffffffffffffffffffffffffffffffffffff1673ffffffffffffffffffffffffffffffffffffffff166370a08231306040518263ffffffff1660e01b8152600401808273ffffffffffffffffffffffffffffffffffffffff16815260200191505060206040518083038186803b158015611c0157600080fd5b505afa158015611c15573d6000803e3d6000fd5b505050506040513d6020811015611c2b57600080fd5b810190808051906020019092919050505090508160040160009054906101000a900473ffffffffffffffffffffffffffffffffffffffff1673ffffffffffffffffffffffffffffffffffffffff1663095ea7b383600b0160009054906101000a900473ffffffffffffffffffffffffffffffffffffffff16866040518363ffffffff1660e01b8152600401808373ffffffffffffffffffffffffffffffffffffffff16815260200182815260200192505050602060405180830381600087803b158015611cf757600080fd5b505af1158015611d0b573d6000803e3d6000fd5b505050506040513d6020811015611d2157600080fd5b8101908080519060200190929190505050506000600367ffffffffffffffff81118015611d4d57600080fd5b50604051908082528060200260200182016040528015611d7c5781602001602082028036833780820191505090505b5090508260040160009054906101000a900473ffffffffffffffffffffffffffffffffffffffff1681600081518110611db157fe5b602002602001019073ffffffffffffffffffffffffffffffffffffffff16908173ffffffffffffffffffffffffffffffffffffffff168152505082600b0160009054906101000a900473ffffffffffffffffffffffffffffffffffffffff1673ffffffffffffffffffffffffffffffffffffffff1663ad5c46486040518163ffffffff1660e01b815260040160206040518083038186803b158015611e5557600080fd5b505afa158015611e69573d6000803e3d6000fd5b505050506040513d6020811015611e7f57600080fd5b810190808051906020019092919050505081600181518110611e9d57fe5b602002602001019073ffffffffffffffffffffffffffffffffffffffff16908173ffffffffffffffffffffffffffffffffffffffff168152505082600101836010015460038110611eea57fe5b0160009054906101000a900473ffffffffffffffffffffffffffffffffffffffff1681600281518110611f1957fe5b602002602001019073ffffffffffffffffffffffffffffffffffffffff16908173ffffffffffffffffffffffffffffffffffffffff168152505082600b0160009054906101000a900473ffffffffffffffffffffffffffffffffffffffff1673ffffffffffffffffffffffffffffffffffffffff166338ed1739866000843061070842016040518663ffffffff1660e01b815260040180868152602001858152602001806020018473ffffffffffffffffffffffffffffffffffffffff168152602001838152602001828103825285818151815260200191508051906020019060200280838360005b8381101561201d578082015181840152602081019050612002565b505050509050019650505050505050600060405180830381600087803b15801561204657600080fd5b505af115801561205a573d6000803e3d6000fd5b505050506040513d6000823e3d601f19601f82011682018060405250602081101561208457600080fd5b81019080805160405193929190846401000000008211156120a457600080fd5b838201915060208201858111156120ba57600080fd5b82518660208202830111640100000000821117156120d757600080fd5b8083526020830192505050908051906020019060200280838360005b8381101561210e5780820151818401526020810190506120f3565b505050509050016040525050505060008360010184601001546003811061213157fe5b0160009054906101000a900473ffffffffffffffffffffffffffffffffffffffff1673ffffffffffffffffffffffffffffffffffffffff166370a08231306040518263ffffffff1660e01b8152600401808273ffffffffffffffffffffffffffffffffffffffff16815260200191505060206040518083038186803b1580156121b957600080fd5b505afa1580156121cd573d6000803e3d6000fd5b505050506040513d60208110156121e357600080fd5b81019080805190602001909291905050509050600083820390508460010185601001546003811061221057fe5b0160009054906101000a900473ffffffffffffffffffffffffffffffffffffffff1673ffffffffffffffffffffffffffffffffffffffff1663a9059cbb86600c0160009054906101000a900473ffffffffffffffffffffffffffffffffffffffff16836040518363ffffffff1660e01b8152600401808373ffffffffffffffffffffffffffffffffffffffff16815260200182815260200192505050602060405180830381600087803b1580156122c657600080fd5b505af11580156122da573d6000803e3d6000fd5b505050506040513d60208110156122f057600080fd5b8101908080519060200190929190505050508095505050505050919050565b60008061231a612b30565b905060008160050160009054906101000a900473ffffffffffffffffffffffffffffffffffffffff1673ffffffffffffffffffffffffffffffffffffffff166370a08231306040518263ffffffff1660e01b8152600401808273ffffffffffffffffffffffffffffffffffffffff16815260200191505060206040518083038186803b1580156123a957600080fd5b505afa1580156123bd573d6000803e3d6000fd5b505050506040513d60208110156123d357600080fd5b8101908080519060200190929190505050905081600a0160009054906101000a900473ffffffffffffffffffffffffffffffffffffffff1673ffffffffffffffffffffffffffffffffffffffff16634e71d92d6040518163ffffffff1660e01b8152600401600060405180830381600087803b15801561245257600080fd5b505af1158015612466573d6000803e3d6000fd5b5050505060008260050160009054906101000a900473ffffffffffffffffffffffffffffffffffffffff1673ffffffffffffffffffffffffffffffffffffffff166370a08231306040518263ffffffff1660e01b8152600401808273ffffffffffffffffffffffffffffffffffffffff16815260200191505060206040518083038186803b1580156124f757600080fd5b505afa15801561250b573d6000803e3d6000fd5b505050506040513d602081101561252157600080fd5b81019080805190602001909291905050509050600082820390508360010184601001546003811061254e57fe5b0160009054906101000a900473ffffffffffffffffffffffffffffffffffffffff1673ffffffffffffffffffffffffffffffffffffffff166370a08231306040518263ffffffff1660e01b8152600401808273ffffffffffffffffffffffffffffffffffffffff16815260200191505060206040518083038186803b1580156125d657600080fd5b505afa1580156125ea573d6000803e3d6000fd5b505050506040513d602081101561260057600080fd5b810190808051906020019092919050505092508360060160009054906101000a900473ffffffffffffffffffffffffffffffffffffffff1673ffffffffffffffffffffffffffffffffffffffff16631a4d01d282866010015460006040518463ffffffff1660e01b81526004018084815260200183600f0b81526020018281526020019350505050600060405180830381600087803b1580156126a257600080fd5b505af11580156126b6573d6000803e3d6000fd5b50505050836001018460100154600381106126cd57fe5b0160009054906101000a900473ffffffffffffffffffffffffffffffffffffffff1673ffffffffffffffffffffffffffffffffffffffff166370a08231306040518263ffffffff1660e01b8152600401808273ffffffffffffffffffffffffffffffffffffffff16815260200191505060206040518083038186803b15801561275557600080fd5b505afa158015612769573d6000803e3d6000fd5b505050506040513d602081101561277f57600080fd5b810190808051906020019092919050505091508282039050836001018460100154600381106127aa57fe5b0160009054906101000a900473ffffffffffffffffffffffffffffffffffffffff1673ffffffffffffffffffffffffffffffffffffffff1663a9059cbb85600c0160009054906101000a900473ffffffffffffffffffffffffffffffffffffffff16836040518363ffffffff1660e01b8152600401808373ffffffffffffffffffffffffffffffffffffffff16815260200182815260200192505050602060405180830381600087803b15801561286057600080fd5b505af1158015612874573d6000803e3d6000fd5b505050506040513d602081101561288a57600080fd5b8101908080519060200190929190505050508094505050505090565b60006128b0612b30565b905060008160040160009054906101000a900473ffffffffffffffffffffffffffffffffffffffff1673ffffffffffffffffffffffffffffffffffffffff166370a08231306040518263ffffffff1660e01b8152600401808273ffffffffffffffffffffffffffffffffffffffff16815260200191505060206040518083038186803b15801561293f57600080fd5b505afa158015612953573d6000803e3d6000fd5b505050506040513d602081101561296957600080fd5b810190808051906020019092919050505090508160090160009054906101000a900473ffffffffffffffffffffffffffffffffffffffff1673ffffffffffffffffffffffffffffffffffffffff16633ccfd60b6040518163ffffffff1660e01b8152600401600060405180830381600087803b1580156129e857600080fd5b505af11580156129fc573d6000803e3d6000fd5b5050505060008260040160009054906101000a900473ffffffffffffffffffffffffffffffffffffffff1673ffffffffffffffffffffffffffffffffffffffff166370a08231306040518263ffffffff1660e01b8152600401808273ffffffffffffffffffffffffffffffffffffffff16815260200191505060206040518083038186803b158015612a8d57600080fd5b505afa158015612aa1573d6000803e3d6000fd5b505050506040513d6020811015612ab757600080fd5b81019080805190602001909291905050509050600082820390506000846011015485600e0154830281612ae657fe5b049050612b008186600f0154612ea490919063ffffffff16565b85600f0181905550612b2181830386600d0154612ea490919063ffffffff16565b85600d01819055505050505050565b6000807fa506df5f541d029605b005e2b87f8940c5564e1681adf4fd4a0c5e76b5d54ac990508091505090565b6000612b9f83836040518060400160405280601f81526020017f536166654d6174683a207375627472616374696f6e20756e646572666c6f7700815250612f2c565b905092915050565b6000612bb1612b30565b90508060070160009054906101000a900473ffffffffffffffffffffffffffffffffffffffff1673ffffffffffffffffffffffffffffffffffffffff16632e1a7d4d836040518263ffffffff1660e01b815260040180828152602001915050600060405180830381600087803b158015612c2a57600080fd5b505af1158015612c3e573d6000803e3d6000fd5b505050505050565b6000612c50612b30565b905060008160050160009054906101000a900473ffffffffffffffffffffffffffffffffffffffff1673ffffffffffffffffffffffffffffffffffffffff166370a08231306040518263ffffffff1660e01b8152600401808273ffffffffffffffffffffffffffffffffffffffff16815260200191505060206040518083038186803b158015612cdf57600080fd5b505afa158015612cf3573d6000803e3d6000fd5b505050506040513d6020811015612d0957600080fd5b810190808051906020019092919050505090508160050160009054906101000a900473ffffffffffffffffffffffffffffffffffffffff1673ffffffffffffffffffffffffffffffffffffffff1663095ea7b38360070160009054906101000a900473ffffffffffffffffffffffffffffffffffffffff16836040518363ffffffff1660e01b8152600401808373ffffffffffffffffffffffffffffffffffffffff16815260200182815260200192505050602060405180830381600087803b158015612dd557600080fd5b505af1158015612de9573d6000803e3d6000fd5b505050506040513d6020811015612dff57600080fd5b8101908080519060200190929190505050508160070160009054906101000a900473ffffffffffffffffffffffffffffffffffffffff1673ffffffffffffffffffffffffffffffffffffffff1663b6b55f25826040518263ffffffff1660e01b815260040180828152602001915050600060405180830381600087803b158015612e8857600080fd5b505af1158015612e9c573d6000803e3d6000fd5b505050505050565b600080828401905083811015612f22576040517f08c379a000000000000000000000000000000000000000000000000000000000815260040180806020018281038252601b8152602001807f536166654d6174683a206164646974696f6e206f766572666c6f77000000000081525060200191505060405180910390fd5b8091505092915050565b6000838311158290612fd9576040517f08c379a00000000000000000000000000000000000000000000000000000000081526004018080602001828103825283818151815260200191508051906020019080838360005b83811015612f9e578082015181840152602081019050612f83565b50505050905090810190601f168015612fcb5780820380516001836020036101000a031916815260200191505b509250505060405180910390fd5b5060008385039050809150509392505050565b6040518060600160405280600390602082028036833780820191505090505090565b826003810192821561307a579160200282015b828111156130795782518260006101000a81548173ffffffffffffffffffffffffffffffffffffffff021916908373ffffffffffffffffffffffffffffffffffffffff16021790555091602001919060010190613021565b5b509050613087919061308b565b5090565b5b808211156130a457600081600090555060010161308c565b509056fea26469706673582212202c105fc55f6fef5335226ba5771de4829fa31e210dc7c64a7f913a8e0149d7f164736f6c63430007060033",
  "immutableReferences": {},
  "source": "// SPDX-License-Identifier: UNLICENSED\r\npragma solidity ^0.7.6;\r\nimport \"../storage/StrategyStorage.sol\";\r\nimport \"../libraries/SafeMath.sol\";\r\n\r\ncontract TriPoolStrategy is StrategyStorageV1 {\r\n    \r\n    using SafeMath for uint256;\r\n    \r\n  \r\n/****MODIFIERS****/\r\n    modifier onlyPoolOnwer(){\r\n        StrategyStorage storage ss = strategyStorage();\r\n        require(ss.poolOwner == msg.sender, \"Only poolOwner can call!!\");\r\n        _;\r\n    }\r\n    \r\n/****CONSTRUCTOR****/\r\n    function initialize(\r\n        Pool _poolAddress,\r\n        Gauge _gauge, \r\n        Minter _minter, \r\n        IERC20 _crvToken, \r\n        IERC20 _poolToken,\r\n        VotingEscrow _votingEscrow,\r\n        FeeDistributor _feeDistributor,\r\n        IERC20[3] memory _coins,\r\n        UniswapV2Router _uniswapRouter,\r\n        address _poolOwner,\r\n        uint256 _crvLockPercent\r\n        \r\n    ) public{\r\n        StrategyStorage storage ss = strategyStorage();\r\n        require(!ss.initialized, 'Already initialized');\r\n        ss.poolAddress = _poolAddress;\r\n        ss.gauge = _gauge;\r\n        ss.minter = _minter;\r\n        ss.crvToken = _crvToken;\r\n        ss.votingEscrow = _votingEscrow;\r\n        ss.feeDistributor = _feeDistributor;\r\n        ss.coins = _coins;\r\n        ss.uniswapRouter = _uniswapRouter; \r\n        ss.poolOwner = _poolOwner;\r\n        ss.poolToken = _poolToken;\r\n        ss.crvLockPercent = _crvLockPercent;\r\n        ss.DENOMINATOR = 10000;\r\n        ss.initialized = true;\r\n    }\r\n\r\n/****POOLOWNER FUNCTIONS****/\r\n\r\n    function updateOwner(address newOwner) external onlyPoolOnwer() returns(bool){\r\n        StrategyStorage storage ss = strategyStorage();\r\n        ss.poolOwner = newOwner;\r\n        return true;\r\n    } \r\n    \r\n    function setRewardCoin(IERC20 _rewardCoin) external onlyPoolOnwer() returns(bool){\r\n        StrategyStorage storage ss = strategyStorage();\r\n        for(uint256 i = 0; i < ss.coins.length; i++){\r\n            if(ss.coins[i] == _rewardCoin){\r\n                ss.rewardCoin = i;\r\n                break;\r\n            }\r\n        }\r\n        return true;\r\n    }\r\n    \r\n    function deposit(uint256[10] memory amounts) external onlyPoolOnwer(){\r\n        StrategyStorage storage ss = strategyStorage();\r\n        uint256[3] memory updatedAmounts;\r\n        for(uint8 i = 0 ; i < updatedAmounts.length; i++){\r\n            updatedAmounts[i] = amounts[i];\r\n            if(amounts[i] > 0){\r\n                ss.coins[i].transferFrom(msg.sender, address(this), amounts[i]);\r\n                ss.coins[i].approve(address(ss.poolAddress), amounts[i]);\r\n            }\r\n        }\r\n        ss.poolAddress.add_liquidity(updatedAmounts, 0);\r\n        stake();\r\n    }\r\n    \r\n    function withdraw(uint256[10] memory amounts) external onlyPoolOnwer(){\r\n        StrategyStorage storage ss = strategyStorage();\r\n        uint coinIndex;\r\n        uint256[3] memory updatedAmounts;\r\n        for(uint256 i = 0 ; i < updatedAmounts.length; i++){\r\n            updatedAmounts[i] = amounts[i];\r\n            if(updatedAmounts[i] > 0 ){\r\n                coinIndex = i;\r\n            }\r\n        }\r\n        uint256 unstakeAmount = ss.gauge.balanceOf(address(this));\r\n        unStake(unstakeAmount);\r\n        ss.poolAddress.remove_liquidity_imbalance(updatedAmounts,unstakeAmount);\r\n        ss.coins[coinIndex].transfer(ss.poolOwner, ss.coins[coinIndex].balanceOf(address(this)));\r\n        stake();\r\n    }\r\n    \r\n/****INTERNAL FUNCTIONS****/\r\n\r\n    function stake() internal {\r\n        StrategyStorage storage ss = strategyStorage();\r\n        uint256 stakeAmount = ss.poolToken.balanceOf(address(this)) ;\r\n        ss.poolToken.approve(address(ss.gauge), stakeAmount);\r\n        ss.gauge.deposit(stakeAmount);  \r\n    }\r\n    \r\n    function unStake(uint amount) internal{\r\n        StrategyStorage storage ss = strategyStorage();\r\n        ss.gauge.withdraw(amount);\r\n    }\r\n\r\n/****OPEN FUNCTIONS****/\r\n \r\n    function claimCRV() external returns(uint256){\r\n        StrategyStorage storage ss = strategyStorage();\r\n        uint256 oldBalance = ss.crvToken.balanceOf(address(this));\r\n        Minter(ss.minter).mint(address(ss.gauge));\r\n        uint256 newBalance = ss.crvToken.balanceOf(address(this));\r\n        uint256 crvReceived = newBalance - oldBalance;\r\n        uint256 crvToLock = crvReceived * ss.crvLockPercent / ss.DENOMINATOR;\r\n        ss.availableCRVToLock = ss.availableCRVToLock.add(crvToLock);\r\n        ss.availableCRVToSwap = ss.availableCRVToSwap.add(crvReceived - crvToLock);\r\n        return crvReceived;\r\n    }\r\n    \r\n    function createLock(uint256 _value, uint256 _unlockTime) external{\r\n        StrategyStorage storage ss = strategyStorage();\r\n        require(_value <= ss.availableCRVToLock, 'Insufficient CRV' );\r\n        ss.availableCRVToLock = ss.availableCRVToLock.sub(_value);\r\n        ss.crvToken.approve(address(ss.votingEscrow), _value);\r\n        VotingEscrow(ss.votingEscrow).create_lock(_value, _unlockTime);\r\n    } \r\n    \r\n    function releaseLock() external{\r\n        StrategyStorage storage ss = strategyStorage();\r\n        uint256 oldBalance = ss.crvToken.balanceOf(address(this));\r\n        VotingEscrow(ss.votingEscrow).withdraw();  \r\n        uint256 newBalance = ss.crvToken.balanceOf(address(this));\r\n        uint256 crvReceived = newBalance - oldBalance;\r\n        uint256 crvToLock = crvReceived * ss.crvLockPercent / ss.DENOMINATOR;\r\n        ss.availableCRVToLock = ss.availableCRVToLock.add(crvToLock);\r\n        ss.availableCRVToSwap = ss.availableCRVToSwap.add(crvReceived - crvToLock);\r\n    }\r\n    \r\n    function increaseLockAmount(uint256 _value) external {\r\n        StrategyStorage storage ss = strategyStorage();\r\n        require(_value <= ss.availableCRVToLock, 'Insufficient CRV' );\r\n        ss.availableCRVToLock = ss.availableCRVToLock.sub(_value);\r\n        ss.crvToken.approve(address(ss.votingEscrow), _value);\r\n        VotingEscrow(ss.votingEscrow).increase_amount(_value);\r\n    }\r\n   \r\n    function claimAndConvert3CRV() external returns(uint256){\r\n        StrategyStorage storage ss = strategyStorage();\r\n        uint256 oldBalance = ss.poolToken.balanceOf(address(this));\r\n        FeeDistributor(ss.feeDistributor).claim();\r\n        uint256 newBalance = ss.poolToken.balanceOf(address(this));\r\n        uint256 tokenReceived = newBalance - oldBalance;\r\n        oldBalance = ss.coins[ss.rewardCoin].balanceOf(address(this));\r\n        ss.poolAddress.remove_liquidity_one_coin(tokenReceived, int128(ss.rewardCoin), 0);\r\n        newBalance = ss.coins[ss.rewardCoin].balanceOf(address(this));\r\n        tokenReceived = newBalance - oldBalance;\r\n        ss.coins[ss.rewardCoin].transfer(ss.poolOwner, tokenReceived);\r\n        return tokenReceived;\r\n    }\r\n    \r\n    function convertCRV(uint256 amount) external returns(uint256) {\r\n        StrategyStorage storage ss = strategyStorage();\r\n        require(amount <= ss.availableCRVToSwap, \"insufficient token\");\r\n        ss.availableCRVToSwap = ss.availableCRVToSwap.sub(amount);\r\n        uint256 oldBalance = ss.coins[ss.rewardCoin].balanceOf(address(this));\r\n        ss.crvToken.approve(address(ss.uniswapRouter), amount);\r\n        address[] memory path = new address[](3);\r\n        path[0] = address(ss.crvToken);\r\n        path[1] = ss.uniswapRouter.WETH();\r\n        path[2] = address(ss.coins[ss.rewardCoin]);\r\n        \r\n        ss.uniswapRouter.swapExactTokensForTokens(\r\n            amount, \r\n            uint256(0), \r\n            path, \r\n            address(this), \r\n            block.timestamp + 1800\r\n        );\r\n        \r\n        uint256 newBalance = ss.coins[ss.rewardCoin].balanceOf(address(this));\r\n        uint256 tokenReceived = newBalance - oldBalance;\r\n        ss.coins[ss.rewardCoin].transfer(ss.poolOwner, tokenReceived);\r\n        return tokenReceived;\r\n    }\r\n\r\n}",
  "sourcePath": "E:/New Desktop/Projects/AdvancedPool/contracts/facets/TripoolStrategy.sol",
  "compiler": {
    "name": "solc",
    "version": "0.7.6+commit.7338295f.Emscripten.clang"
  },
  "schemaVersion": "3.3.2",
  "updatedAt": "2021-04-18T15:45:37.023Z",
  "networkType": "ethereum",
  "devdoc": {
    "kind": "dev",
    "methods": {},
    "version": 1
  },
  "userdoc": {
    "kind": "user",
    "methods": {},
    "version": 1
  }
}