{
  "contractName": "DiamondLoupeFacet",
  "abi": [
    {
      "inputs": [],
      "name": "facets",
      "outputs": [
        {
          "components": [
            {
              "internalType": "address",
              "name": "facetAddress",
              "type": "address"
            },
            {
              "internalType": "bytes4[]",
              "name": "functionSelectors",
              "type": "bytes4[]"
            }
          ],
          "internalType": "struct IDiamondLoupe.Facet[]",
          "name": "facets_",
          "type": "tuple[]"
        }
      ],
      "stateMutability": "view",
      "type": "function",
      "constant": true
    },
    {
      "inputs": [
        {
          "internalType": "address",
          "name": "_facet",
          "type": "address"
        }
      ],
      "name": "facetFunctionSelectors",
      "outputs": [
        {
          "internalType": "bytes4[]",
          "name": "_facetFunctionSelectors",
          "type": "bytes4[]"
        }
      ],
      "stateMutability": "view",
      "type": "function",
      "constant": true
    },
    {
      "inputs": [],
      "name": "facetAddresses",
      "outputs": [
        {
          "internalType": "address[]",
          "name": "facetAddresses_",
          "type": "address[]"
        }
      ],
      "stateMutability": "view",
      "type": "function",
      "constant": true
    },
    {
      "inputs": [
        {
          "internalType": "bytes4",
          "name": "_functionSelector",
          "type": "bytes4"
        }
      ],
      "name": "facetAddress",
      "outputs": [
        {
          "internalType": "address",
          "name": "facetAddress_",
          "type": "address"
        }
      ],
      "stateMutability": "view",
      "type": "function",
      "constant": true
    },
    {
      "inputs": [
        {
          "internalType": "bytes4",
          "name": "_interfaceId",
          "type": "bytes4"
        }
      ],
      "name": "supportsInterface",
      "outputs": [
        {
          "internalType": "bool",
          "name": "",
          "type": "bool"
        }
      ],
      "stateMutability": "view",
      "type": "function",
      "constant": true
    }
  ],
  "bytecode": "0x608060405234801561001057600080fd5b50610fca806100206000396000f3fe608060405234801561001057600080fd5b50600436106100575760003560e01c806301ffc9a71461005c57806352ef6b2c1461008c5780637a0ed627146100aa578063adfca15e146100c8578063cdffacc6146100f8575b600080fd5b61007660048036038101906100719190610b2f565b610128565b6040516100839190610e25565b60405180910390f35b61009461019e565b6040516100a19190610dbf565b60405180910390f35b6100b26103a4565b6040516100bf9190610e03565b60405180910390f35b6100e260048036038101906100dd9190610b06565b610821565b6040516100ef9190610de1565b60405180910390f35b610112600480360381019061010d9190610b2f565b6109f3565b60405161011f9190610da4565b60405180910390f35b600080610133610a7f565b9050806002016000847bffffffffffffffffffffffffffffffffffffffffffffffffffffffff19167bffffffffffffffffffffffffffffffffffffffffffffffffffffffff1916815260200190815260200160002060009054906101000a900460ff16915050919050565b606060006101aa610a7f565b90506000816001018054905090508067ffffffffffffffff811180156101cf57600080fd5b506040519080825280602002602001820160405280156101fe5781602001602082028036833780820191505090505b5092506000805b8281101561039a57600084600101828154811061021e57fe5b90600052602060002090600891828204019190066004029054906101000a900460e01b90506000856000016000837bffffffffffffffffffffffffffffffffffffffffffffffffffffffff19167bffffffffffffffffffffffffffffffffffffffffffffffffffffffff1916815260200190815260200160002060000160009054906101000a900473ffffffffffffffffffffffffffffffffffffffff1690506000805b85811015610327578881815181106102d657fe5b602002602001015173ffffffffffffffffffffffffffffffffffffffff168373ffffffffffffffffffffffffffffffffffffffff16141561031a5760019150610327565b80806001019150506102c2565b50801561033a576000905050505061038d565b8188868151811061034757fe5b602002602001019073ffffffffffffffffffffffffffffffffffffffff16908173ffffffffffffffffffffffffffffffffffffffff168152505084806001019550505050505b8080600101915050610205565b5080845250505090565b606060006103b0610a7f565b90506000816001018054905090508067ffffffffffffffff811180156103d557600080fd5b5060405190808252806020026020018201604052801561040f57816020015b6103fc610aac565b8152602001906001900390816103f45790505b50925060008167ffffffffffffffff8111801561042b57600080fd5b5060405190808252806020026020018201604052801561045a5781602001602082028036833780820191505090505b5090506000805b838110156107c157600085600101828154811061047a57fe5b90600052602060002090600891828204019190066004029054906101000a900460e01b90506000866000016000837bffffffffffffffffffffffffffffffffffffffffffffffffffffffff19167bffffffffffffffffffffffffffffffffffffffffffffffffffffffff1916815260200190815260200160002060000160009054906101000a900473ffffffffffffffffffffffffffffffffffffffff1690506000805b85811015610655578273ffffffffffffffffffffffffffffffffffffffff168a828151811061054957fe5b60200260200101516000015173ffffffffffffffffffffffffffffffffffffffff16141561064857838a828151811061057e57fe5b60200260200101516020015188838151811061059657fe5b602002602001015160ff16815181106105ab57fe5b60200260200101907bffffffffffffffffffffffffffffffffffffffffffffffffffffffff191690817bffffffffffffffffffffffffffffffffffffffffffffffffffffffff19168152505060ff87828151811061060557fe5b602002602001015160ff161061061a57600080fd5b86818151811061062657fe5b60200260200101805180919060010160ff1660ff168152505060019150610655565b808060010191505061051e565b50801561066857600090505050506107b4565b8189868151811061067557fe5b60200260200101516000019073ffffffffffffffffffffffffffffffffffffffff16908173ffffffffffffffffffffffffffffffffffffffff16815250508667ffffffffffffffff811180156106ca57600080fd5b506040519080825280602002602001820160405280156106f95781602001602082028036833780820191505090505b5089868151811061070657fe5b6020026020010151602001819052508289868151811061072257fe5b60200260200101516020015160008151811061073a57fe5b60200260200101907bffffffffffffffffffffffffffffffffffffffffffffffffffffffff191690817bffffffffffffffffffffffffffffffffffffffffffffffffffffffff191681525050600186868151811061079457fe5b602002602001019060ff16908160ff168152505084806001019550505050505b8080600101915050610461565b5060005b818110156108165760008382815181106107db57fe5b602002602001015160ff16905060008783815181106107f657fe5b6020026020010151602001519050818152505080806001019150506107c5565b508085525050505090565b6060600061082d610a7f565b905060008160010180549050905060008167ffffffffffffffff8111801561085457600080fd5b506040519080825280602002602001820160405280156108835781602001602082028036833780820191505090505b50935060005b828110156109e75760008460010182815481106108a257fe5b90600052602060002090600891828204019190066004029054906101000a900460e01b90506000856000016000837bffffffffffffffffffffffffffffffffffffffffffffffffffffffff19167bffffffffffffffffffffffffffffffffffffffffffffffffffffffff1916815260200190815260200160002060000160009054906101000a900473ffffffffffffffffffffffffffffffffffffffff1690508073ffffffffffffffffffffffffffffffffffffffff168873ffffffffffffffffffffffffffffffffffffffff1614156109d8578187858151811061098357fe5b60200260200101907bffffffffffffffffffffffffffffffffffffffffffffffffffffffff191690817bffffffffffffffffffffffffffffffffffffffffffffffffffffffff19168152505083806001019450505b50508080600101915050610889565b50808452505050919050565b6000806109fe610a7f565b9050806000016000847bffffffffffffffffffffffffffffffffffffffffffffffffffffffff19167bffffffffffffffffffffffffffffffffffffffffffffffffffffffff1916815260200190815260200160002060000160009054906101000a900473ffffffffffffffffffffffffffffffffffffffff16915050919050565b6000807fc8fcad8db84d3cc18b4c41d551ea0ee66dd599cde068d998e57d5e09332c131c90508091505090565b6040518060400160405280600073ffffffffffffffffffffffffffffffffffffffff168152602001606081525090565b600081359050610aeb81610f66565b92915050565b600081359050610b0081610f7d565b92915050565b600060208284031215610b1857600080fd5b6000610b2684828501610adc565b91505092915050565b600060208284031215610b4157600080fd5b6000610b4f84828501610af1565b91505092915050565b6000610b648383610b9c565b60208301905092915050565b6000610b7c8383610d58565b60208301905092915050565b6000610b948383610d67565b905092915050565b610ba581610efc565b82525050565b610bb481610efc565b82525050565b6000610bc582610e70565b610bcf8185610eb8565b9350610bda83610e40565b8060005b83811015610c0b578151610bf28882610b58565b9750610bfd83610e91565b925050600181019050610bde565b5085935050505092915050565b6000610c2382610e7b565b610c2d8185610ec9565b9350610c3883610e50565b8060005b83811015610c69578151610c508882610b70565b9750610c5b83610e9e565b925050600181019050610c3c565b5085935050505092915050565b6000610c8182610e7b565b610c8b8185610eda565b9350610c9683610e50565b8060005b83811015610cc7578151610cae8882610b70565b9750610cb983610e9e565b925050600181019050610c9a565b5085935050505092915050565b6000610cdf82610e86565b610ce98185610eeb565b935083602082028501610cfb85610e60565b8060005b85811015610d375784840389528151610d188582610b88565b9450610d2383610eab565b925060208a01995050600181019050610cff565b50829750879550505050505092915050565b610d5281610f0e565b82525050565b610d6181610f1a565b82525050565b6000604083016000830151610d7f6000860182610b9c565b5060208301518482036020860152610d978282610c18565b9150508091505092915050565b6000602082019050610db96000830184610bab565b92915050565b60006020820190508181036000830152610dd98184610bba565b905092915050565b60006020820190508181036000830152610dfb8184610c76565b905092915050565b60006020820190508181036000830152610e1d8184610cd4565b905092915050565b6000602082019050610e3a6000830184610d49565b92915050565b6000819050602082019050919050565b6000819050602082019050919050565b6000819050602082019050919050565b600081519050919050565b600081519050919050565b600081519050919050565b6000602082019050919050565b6000602082019050919050565b6000602082019050919050565b600082825260208201905092915050565b600082825260208201905092915050565b600082825260208201905092915050565b600082825260208201905092915050565b6000610f0782610f46565b9050919050565b60008115159050919050565b60007fffffffff0000000000000000000000000000000000000000000000000000000082169050919050565b600073ffffffffffffffffffffffffffffffffffffffff82169050919050565b610f6f81610efc565b8114610f7a57600080fd5b50565b610f8681610f1a565b8114610f9157600080fd5b5056fea2646970667358221220e9a8ed99d6ed64b1308b82b4189ecf6190a1b05a300d385ab86a000c1350874d64736f6c63430007060033",
  "immutableReferences": {},
  "source": "// SPDX-License-Identifier: MIT\r\npragma solidity ^0.7.6;\r\npragma experimental ABIEncoderV2;\r\n\r\n\r\nimport \"../libraries/LibDiamond.sol\";\r\nimport \"../interfaces/IDiamondLoupe.sol\";\r\nimport \"../interfaces/IERC165.sol\";\r\n\r\ncontract DiamondLoupeFacet is IDiamondLoupe, IERC165 {\r\n    function facets() external override view returns (Facet[] memory facets_) {\r\n        LibDiamond.DiamondStorage storage ds = LibDiamond.diamondStorage();\r\n        uint256 selectorCount = ds.selectors.length;\r\n        facets_ = new Facet[](selectorCount);\r\n        uint8[] memory numFacetSelectors = new uint8[](selectorCount);\r\n        uint256 numFacets;\r\n        for (uint256 selectorIndex; selectorIndex < selectorCount; selectorIndex++) {\r\n            bytes4 selector = ds.selectors[selectorIndex];\r\n            address facetAddress_ = ds.facetAddressAndSelectorPosition[selector].facetAddress;\r\n            bool continueLoop = false;\r\n            for (uint256 facetIndex; facetIndex < numFacets; facetIndex++) {\r\n                if (facets_[facetIndex].facetAddress == facetAddress_) {\r\n                    facets_[facetIndex].functionSelectors[numFacetSelectors[facetIndex]] = selector;\r\n                    require(numFacetSelectors[facetIndex] < 255);\r\n                    numFacetSelectors[facetIndex]++;\r\n                    continueLoop = true;\r\n                    break;\r\n                }\r\n            }\r\n            if (continueLoop) {\r\n                continueLoop = false;\r\n                continue;\r\n            }\r\n            facets_[numFacets].facetAddress = facetAddress_;\r\n            facets_[numFacets].functionSelectors = new bytes4[](selectorCount);\r\n            facets_[numFacets].functionSelectors[0] = selector;\r\n            numFacetSelectors[numFacets] = 1;\r\n            numFacets++;\r\n        }\r\n        for (uint256 facetIndex; facetIndex < numFacets; facetIndex++) {\r\n            uint256 numSelectors = numFacetSelectors[facetIndex];\r\n            bytes4[] memory selectors = facets_[facetIndex].functionSelectors;\r\n            assembly {\r\n                mstore(selectors, numSelectors)\r\n            }\r\n        }\r\n        assembly {\r\n            mstore(facets_, numFacets)\r\n        }\r\n    }\r\n\r\n    function facetFunctionSelectors(address _facet) external override view returns (bytes4[] memory _facetFunctionSelectors) {\r\n        LibDiamond.DiamondStorage storage ds = LibDiamond.diamondStorage();\r\n        uint256 selectorCount = ds.selectors.length;\r\n        uint256 numSelectors;\r\n        _facetFunctionSelectors = new bytes4[](selectorCount);\r\n        for (uint256 selectorIndex; selectorIndex < selectorCount; selectorIndex++) {\r\n            bytes4 selector = ds.selectors[selectorIndex];\r\n            address facetAddress_ = ds.facetAddressAndSelectorPosition[selector].facetAddress;\r\n            if (_facet == facetAddress_) {\r\n                _facetFunctionSelectors[numSelectors] = selector;\r\n                numSelectors++;\r\n            }\r\n        }\r\n        assembly {\r\n            mstore(_facetFunctionSelectors, numSelectors)\r\n        }\r\n    }\r\n\r\n    function facetAddresses() external override view returns (address[] memory facetAddresses_) {\r\n        LibDiamond.DiamondStorage storage ds = LibDiamond.diamondStorage();\r\n        uint256 selectorCount = ds.selectors.length;\r\n        facetAddresses_ = new address[](selectorCount);\r\n        uint256 numFacets;\r\n        for (uint256 selectorIndex; selectorIndex < selectorCount; selectorIndex++) {\r\n            bytes4 selector = ds.selectors[selectorIndex];\r\n            address facetAddress_ = ds.facetAddressAndSelectorPosition[selector].facetAddress;\r\n            bool continueLoop = false;\r\n            for (uint256 facetIndex; facetIndex < numFacets; facetIndex++) {\r\n                if (facetAddress_ == facetAddresses_[facetIndex]) {\r\n                    continueLoop = true;\r\n                    break;\r\n                }\r\n            }\r\n            if (continueLoop) {\r\n                continueLoop = false;\r\n                continue;\r\n            }\r\n            facetAddresses_[numFacets] = facetAddress_;\r\n            numFacets++;\r\n        }\r\n        assembly {\r\n            mstore(facetAddresses_, numFacets)\r\n        }\r\n    }\r\n\r\n    function facetAddress(bytes4 _functionSelector) external override view returns (address facetAddress_) {\r\n        LibDiamond.DiamondStorage storage ds = LibDiamond.diamondStorage();\r\n        facetAddress_ = ds.facetAddressAndSelectorPosition[_functionSelector].facetAddress;\r\n    }\r\n\r\n    function supportsInterface(bytes4 _interfaceId) external override view returns (bool) {\r\n        LibDiamond.DiamondStorage storage ds = LibDiamond.diamondStorage();\r\n        return ds.supportedInterfaces[_interfaceId];\r\n    }\r\n}\r\n",
  "sourcePath": "E:/New Desktop/Projects/AdvancedPool/Strategy/contracts/facets/DiamondLoupeFacet.sol",
  "compiler": {
    "name": "solc",
    "version": "0.7.6+commit.7338295f.Emscripten.clang"
  },
  "schemaVersion": "3.3.2",
  "updatedAt": "2021-05-09T06:12:51.107Z",
  "networkType": "ethereum",
  "devdoc": {
    "kind": "dev",
    "methods": {},
    "version": 1
  },
  "userdoc": {
    "kind": "user",
    "methods": {},
    "version": 1
  }
}