{
  "contractName": "Strategy2",
  "abi": [
    {
      "inputs": [],
      "name": "depositedAmount",
      "outputs": [
        {
          "internalType": "uint256",
          "name": "",
          "type": "uint256"
        }
      ],
      "stateMutability": "view",
      "type": "function",
      "constant": true
    },
    {
      "inputs": [],
      "name": "curveLPTokenPrice",
      "outputs": [
        {
          "internalType": "uint256",
          "name": "",
          "type": "uint256"
        }
      ],
      "stateMutability": "view",
      "type": "function",
      "constant": true
    }
  ],
  "bytecode": "0x608060405234801561001057600080fd5b5061046f806100206000396000f3fe608060405234801561001057600080fd5b50600436106100365760003560e01c80631d01364c1461003b578063b6a2839a14610059575b600080fd5b610043610077565b6040518082815260200191505060405180910390f35b610061610354565b6040518082815260200191505060405180910390f35b60008061008261040c565b905060008160080160009054906101000a900473ffffffffffffffffffffffffffffffffffffffff1673ffffffffffffffffffffffffffffffffffffffff1663373d61326040518163ffffffff1660e01b815260040160206040518083038186803b1580156100f057600080fd5b505afa158015610104573d6000803e3d6000fd5b505050506040513d602081101561011a57600080fd5b810190808051906020019092919050505090508160010182600a01546003811061014057fe5b0160009054906101000a900473ffffffffffffffffffffffffffffffffffffffff1673ffffffffffffffffffffffffffffffffffffffff1663313ce5676040518163ffffffff1660e01b815260040160206040518083038186803b1580156101a757600080fd5b505afa1580156101bb573d6000803e3d6000fd5b505050506040513d60208110156101d157600080fd5b81019080805190602001909291905050508260050160009054906101000a900473ffffffffffffffffffffffffffffffffffffffff1673ffffffffffffffffffffffffffffffffffffffff1663313ce5676040518163ffffffff1660e01b815260040160206040518083038186803b15801561024c57600080fd5b505afa158015610260573d6000803e3d6000fd5b505050506040513d602081101561027657600080fd5b810190808051906020019092919050505003600a0a8260050160009054906101000a900473ffffffffffffffffffffffffffffffffffffffff1673ffffffffffffffffffffffffffffffffffffffff1663313ce5676040518163ffffffff1660e01b815260040160206040518083038186803b1580156102f557600080fd5b505afa158015610309573d6000803e3d6000fd5b505050506040513d602081101561031f57600080fd5b8101908080519060200190929190505050600a0a8261033c610354565b028161034457fe5b048161034c57fe5b049250505090565b60008061035f61040c565b90508060060160009054906101000a900473ffffffffffffffffffffffffffffffffffffffff1673ffffffffffffffffffffffffffffffffffffffff1663bb7b8b806040518163ffffffff1660e01b815260040160206040518083038186803b1580156103cb57600080fd5b505afa1580156103df573d6000803e3d6000fd5b505050506040513d60208110156103f557600080fd5b810190808051906020019092919050505091505090565b6000807fa506df5f541d029605b005e2b87f8940c5564e1681adf4fd4a0c5e76b5d54ac99050809150509056fea26469706673582212203f0c92a2551a68dc4e0e1d98ca6050ee16adabc1818a61ad0ed2741141ed849164736f6c63430007060033",
  "immutableReferences": {},
  "source": "// SPDX-License-Identifier: UNLICENSED\r\npragma solidity ^0.7.6;\r\nimport \"../storage/StrategyStorage.sol\";\r\nimport \"../libraries/SafeMath.sol\";\r\n\r\ncontract Strategy2 is StrategyStorageV1 {\r\n    \r\n    using SafeMath for uint256;\r\n\r\n/****VIEW FUNTION****/\r\n    function depositedAmount() public view returns(uint256){\r\n        StrategyStorage storage ss = strategyStorage();\r\n        uint256 stakedAmount = ss.controller.stakedAmount();\r\n        return (curveLPTokenPrice() * stakedAmount / (10**ss.curvePoolToken.decimals())) / (10**(ss.curvePoolToken.decimals() - ss.coins[ss.coinIndex].decimals()));\r\n    }\r\n\r\n    function curveLPTokenPrice() public view returns(uint256){\r\n        StrategyStorage storage ss = strategyStorage();\r\n        return ss.curvePool.get_virtual_price();\r\n    }\r\n}",
  "sourcePath": "E:/Projects/AdvancedPool/Strategy/contracts/facets/Strategy2.sol",
  "compiler": {
    "name": "solc",
    "version": "0.7.6+commit.7338295f.Emscripten.clang"
  },
  "schemaVersion": "3.3.2",
  "updatedAt": "2021-06-28T13:32:58.677Z",
  "networkType": "ethereum",
  "devdoc": {
    "kind": "dev",
    "methods": {},
    "version": 1
  },
  "userdoc": {
    "kind": "user",
    "methods": {},
    "version": 1
  }
}