{
  "contractName": "Strategy",
  "abi": [
    {
      "inputs": [
        {
          "internalType": "contract CurvePool",
          "name": "_curvePool",
          "type": "address"
        },
        {
          "internalType": "contract IERC20",
          "name": "_curvePoolToken",
          "type": "address"
        },
        {
          "internalType": "contract IERC20",
          "name": "_crvToken",
          "type": "address"
        },
        {
          "internalType": "contract IERC20[3]",
          "name": "_coins",
          "type": "address[3]"
        },
        {
          "internalType": "contract UniswapV2Router",
          "name": "_uniswapRouter",
          "type": "address"
        },
        {
          "internalType": "address",
          "name": "_pool",
          "type": "address"
        },
        {
          "internalType": "contract Controller",
          "name": "_controller",
          "type": "address"
        },
        {
          "internalType": "uint256",
          "name": "_coinIndex",
          "type": "uint256"
        }
      ],
      "name": "initialize",
      "outputs": [],
      "stateMutability": "nonpayable",
      "type": "function"
    },
    {
      "inputs": [
        {
          "internalType": "uint256",
          "name": "amount",
          "type": "uint256"
        },
        {
          "internalType": "uint256",
          "name": "minMintAmount",
          "type": "uint256"
        }
      ],
      "name": "deposit",
      "outputs": [],
      "stateMutability": "nonpayable",
      "type": "function"
    },
    {
      "inputs": [
        {
          "internalType": "uint256",
          "name": "amount",
          "type": "uint256"
        },
        {
          "internalType": "uint256",
          "name": "maxBurnAmount",
          "type": "uint256"
        }
      ],
      "name": "withdraw",
      "outputs": [],
      "stateMutability": "nonpayable",
      "type": "function"
    },
    {
      "inputs": [
        {
          "internalType": "uint256",
          "name": "minAmount",
          "type": "uint256"
        }
      ],
      "name": "withdrawAll",
      "outputs": [],
      "stateMutability": "nonpayable",
      "type": "function"
    },
    {
      "inputs": [],
      "name": "claimAndConvertCRV",
      "outputs": [
        {
          "internalType": "uint256",
          "name": "",
          "type": "uint256"
        }
      ],
      "stateMutability": "nonpayable",
      "type": "function"
    }
  ],
  "bytecode": "0x608060405234801561001057600080fd5b5061210f806100206000396000f3fe608060405234801561001057600080fd5b50600436106100575760003560e01c80630c32fd061461005c5780632fbd70821461018c578063441a3e70146101aa578063958e2d31146101e2578063e2bbb15814610210575b600080fd5b61018a600480360361014081101561007357600080fd5b81019080803573ffffffffffffffffffffffffffffffffffffffff169060200190929190803573ffffffffffffffffffffffffffffffffffffffff169060200190929190803573ffffffffffffffffffffffffffffffffffffffff16906020019092919080606001906003806020026040519081016040528092919082600360200280828437600081840152601f19601f8201169050808301925050505050509192919290803573ffffffffffffffffffffffffffffffffffffffff169060200190929190803573ffffffffffffffffffffffffffffffffffffffff169060200190929190803573ffffffffffffffffffffffffffffffffffffffff16906020019092919080359060200190929190505050610248565b005b61019461042b565b6040518082815260200191505060405180910390f35b6101e0600480360360408110156101c057600080fd5b810190808035906020019092919080359060200190929190505050610e8b565b005b61020e600480360360208110156101f857600080fd5b810190808035906020019092919050505061126b565b005b6102466004803603604081101561022657600080fd5b810190808035906020019092919080359060200190929190505050611609565b005b6000610252611b0f565b9050888160060160006101000a81548173ffffffffffffffffffffffffffffffffffffffff021916908373ffffffffffffffffffffffffffffffffffffffff160217905550878160050160006101000a81548173ffffffffffffffffffffffffffffffffffffffff021916908373ffffffffffffffffffffffffffffffffffffffff160217905550868160040160006101000a81548173ffffffffffffffffffffffffffffffffffffffff021916908373ffffffffffffffffffffffffffffffffffffffff160217905550858160010190600361033092919061201d565b50848160070160006101000a81548173ffffffffffffffffffffffffffffffffffffffff021916908373ffffffffffffffffffffffffffffffffffffffff160217905550838160090160006101000a81548173ffffffffffffffffffffffffffffffffffffffff021916908373ffffffffffffffffffffffffffffffffffffffff160217905550828160080160006101000a81548173ffffffffffffffffffffffffffffffffffffffff021916908373ffffffffffffffffffffffffffffffffffffffff1602179055508181600a018190555060018160000160006101000a81548160ff021916908315150217905550505050505050505050565b600080610436611b0f565b90508060090160009054906101000a900473ffffffffffffffffffffffffffffffffffffffff1673ffffffffffffffffffffffffffffffffffffffff163373ffffffffffffffffffffffffffffffffffffffff16146104fd576040517f08c379a00000000000000000000000000000000000000000000000000000000081526004018080602001828103825260148152602001807f4f6e6c7920706f6f6c2063616e2063616c6c212100000000000000000000000081525060200191505060405180910390fd5b6000610507611b0f565b90508060080160009054906101000a900473ffffffffffffffffffffffffffffffffffffffff1673ffffffffffffffffffffffffffffffffffffffff166348f8f6d96040518163ffffffff1660e01b8152600401600060405180830381600087803b15801561057557600080fd5b505af1158015610589573d6000803e3d6000fd5b5050505060008160040160009054906101000a900473ffffffffffffffffffffffffffffffffffffffff1673ffffffffffffffffffffffffffffffffffffffff166370a08231306040518263ffffffff1660e01b8152600401808273ffffffffffffffffffffffffffffffffffffffff16815260200191505060206040518083038186803b15801561061a57600080fd5b505afa15801561062e573d6000803e3d6000fd5b505050506040513d602081101561064457600080fd5b81019080805190602001909291905050509050600081116106cd576040517f08c379a00000000000000000000000000000000000000000000000000000000081526004018080602001828103825260108152602001807f4e6f7468696e6720746f20636c61696d0000000000000000000000000000000081525060200191505060405180910390fd5b8160040160009054906101000a900473ffffffffffffffffffffffffffffffffffffffff1673ffffffffffffffffffffffffffffffffffffffff1663095ea7b38360070160009054906101000a900473ffffffffffffffffffffffffffffffffffffffff1660006040518363ffffffff1660e01b8152600401808373ffffffffffffffffffffffffffffffffffffffff16815260200182815260200192505050602060405180830381600087803b15801561078757600080fd5b505af115801561079b573d6000803e3d6000fd5b505050506040513d60208110156107b157600080fd5b8101908080519060200190929190505050508160040160009054906101000a900473ffffffffffffffffffffffffffffffffffffffff1673ffffffffffffffffffffffffffffffffffffffff1663095ea7b38360070160009054906101000a900473ffffffffffffffffffffffffffffffffffffffff16836040518363ffffffff1660e01b8152600401808373ffffffffffffffffffffffffffffffffffffffff16815260200182815260200192505050602060405180830381600087803b15801561087c57600080fd5b505af1158015610890573d6000803e3d6000fd5b505050506040513d60208110156108a657600080fd5b8101908080519060200190929190505050506000600367ffffffffffffffff811180156108d257600080fd5b506040519080825280602002602001820160405280156109015781602001602082028036833780820191505090505b5090508260040160009054906101000a900473ffffffffffffffffffffffffffffffffffffffff168160008151811061093657fe5b602002602001019073ffffffffffffffffffffffffffffffffffffffff16908173ffffffffffffffffffffffffffffffffffffffff16815250508260070160009054906101000a900473ffffffffffffffffffffffffffffffffffffffff1673ffffffffffffffffffffffffffffffffffffffff1663ad5c46486040518163ffffffff1660e01b815260040160206040518083038186803b1580156109da57600080fd5b505afa1580156109ee573d6000803e3d6000fd5b505050506040513d6020811015610a0457600080fd5b810190808051906020019092919050505081600181518110610a2257fe5b602002602001019073ffffffffffffffffffffffffffffffffffffffff16908173ffffffffffffffffffffffffffffffffffffffff16815250508260010183600a015460038110610a6f57fe5b0160009054906101000a900473ffffffffffffffffffffffffffffffffffffffff1681600281518110610a9e57fe5b602002602001019073ffffffffffffffffffffffffffffffffffffffff16908173ffffffffffffffffffffffffffffffffffffffff16815250508260070160009054906101000a900473ffffffffffffffffffffffffffffffffffffffff1673ffffffffffffffffffffffffffffffffffffffff166338ed1739836000843061070842016040518663ffffffff1660e01b815260040180868152602001858152602001806020018473ffffffffffffffffffffffffffffffffffffffff168152602001838152602001828103825285818151815260200191508051906020019060200280838360005b83811015610ba2578082015181840152602081019050610b87565b505050509050019650505050505050600060405180830381600087803b158015610bcb57600080fd5b505af1158015610bdf573d6000803e3d6000fd5b505050506040513d6000823e3d601f19601f820116820180604052506020811015610c0957600080fd5b8101908080516040519392919084640100000000821115610c2957600080fd5b83820191506020820185811115610c3f57600080fd5b8251866020820283011164010000000082111715610c5c57600080fd5b8083526020830192505050908051906020019060200280838360005b83811015610c93578082015181840152602081019050610c78565b505050509050016040525050505060008360010184600a015460038110610cb657fe5b0160009054906101000a900473ffffffffffffffffffffffffffffffffffffffff1673ffffffffffffffffffffffffffffffffffffffff166370a08231306040518263ffffffff1660e01b8152600401808273ffffffffffffffffffffffffffffffffffffffff16815260200191505060206040518083038186803b158015610d3e57600080fd5b505afa158015610d52573d6000803e3d6000fd5b505050506040513d6020811015610d6857600080fd5b810190808051906020019092919050505090508360010184600a015460038110610d8e57fe5b0160009054906101000a900473ffffffffffffffffffffffffffffffffffffffff1673ffffffffffffffffffffffffffffffffffffffff1663a9059cbb8560090160009054906101000a900473ffffffffffffffffffffffffffffffffffffffff16836040518363ffffffff1660e01b8152600401808373ffffffffffffffffffffffffffffffffffffffff16815260200182815260200192505050602060405180830381600087803b158015610e4457600080fd5b505af1158015610e58573d6000803e3d6000fd5b505050506040513d6020811015610e6e57600080fd5b810190808051906020019092919050505050809550505050505090565b6000610e95611b0f565b90508060090160009054906101000a900473ffffffffffffffffffffffffffffffffffffffff1673ffffffffffffffffffffffffffffffffffffffff163373ffffffffffffffffffffffffffffffffffffffff1614610f5c576040517f08c379a00000000000000000000000000000000000000000000000000000000081526004018080602001828103825260148152602001807f4f6e6c7920706f6f6c2063616e2063616c6c212100000000000000000000000081525060200191505060405180910390fd5b6000610f66611b0f565b9050610f7061209a565b848183600a015460038110610f8157fe5b602002018181525050610f9384611b3c565b508160060160009054906101000a900473ffffffffffffffffffffffffffffffffffffffff1673ffffffffffffffffffffffffffffffffffffffff16635b8369f5828660016040518463ffffffff1660e01b81526004018084600360200280838360005b83811015611012578082015181840152602081019050610ff7565b5050505090500183815260200182151581526020019350505050602060405180830381600087803b15801561104657600080fd5b505af115801561105a573d6000803e3d6000fd5b505050506040513d602081101561107057600080fd5b8101908080519060200190929190505050508160010182600a01546003811061109557fe5b0160009054906101000a900473ffffffffffffffffffffffffffffffffffffffff1673ffffffffffffffffffffffffffffffffffffffff1663a9059cbb8360090160009054906101000a900473ffffffffffffffffffffffffffffffffffffffff168460010185600a01546003811061110a57fe5b0160009054906101000a900473ffffffffffffffffffffffffffffffffffffffff1673ffffffffffffffffffffffffffffffffffffffff166370a08231306040518263ffffffff1660e01b8152600401808273ffffffffffffffffffffffffffffffffffffffff16815260200191505060206040518083038186803b15801561119257600080fd5b505afa1580156111a6573d6000803e3d6000fd5b505050506040513d60208110156111bc57600080fd5b81019080805190602001909291905050506040518363ffffffff1660e01b8152600401808373ffffffffffffffffffffffffffffffffffffffff16815260200182815260200192505050602060405180830381600087803b15801561122057600080fd5b505af1158015611234573d6000803e3d6000fd5b505050506040513d602081101561124a57600080fd5b810190808051906020019092919050505050611264611c09565b5050505050565b6000611275611b0f565b90508060090160009054906101000a900473ffffffffffffffffffffffffffffffffffffffff1673ffffffffffffffffffffffffffffffffffffffff163373ffffffffffffffffffffffffffffffffffffffff161461133c576040517f08c379a00000000000000000000000000000000000000000000000000000000081526004018080602001828103825260148152602001807f4f6e6c7920706f6f6c2063616e2063616c6c212100000000000000000000000081525060200191505060405180910390fd5b6000611346611b0f565b90506000611352611f5d565b90508160060160009054906101000a900473ffffffffffffffffffffffffffffffffffffffff1673ffffffffffffffffffffffffffffffffffffffff1663517a55a38284600a01548760016040518563ffffffff1660e01b81526004018085815260200184600f0b81526020018381526020018215158152602001945050505050602060405180830381600087803b1580156113ed57600080fd5b505af1158015611401573d6000803e3d6000fd5b505050506040513d602081101561141757600080fd5b8101908080519060200190929190505050508160010182600a01546003811061143c57fe5b0160009054906101000a900473ffffffffffffffffffffffffffffffffffffffff1673ffffffffffffffffffffffffffffffffffffffff1663a9059cbb8360090160009054906101000a900473ffffffffffffffffffffffffffffffffffffffff168460010185600a0154600381106114b157fe5b0160009054906101000a900473ffffffffffffffffffffffffffffffffffffffff1673ffffffffffffffffffffffffffffffffffffffff166370a08231306040518263ffffffff1660e01b8152600401808273ffffffffffffffffffffffffffffffffffffffff16815260200191505060206040518083038186803b15801561153957600080fd5b505afa15801561154d573d6000803e3d6000fd5b505050506040513d602081101561156357600080fd5b81019080805190602001909291905050506040518363ffffffff1660e01b8152600401808373ffffffffffffffffffffffffffffffffffffffff16815260200182815260200192505050602060405180830381600087803b1580156115c757600080fd5b505af11580156115db573d6000803e3d6000fd5b505050506040513d60208110156115f157600080fd5b81019080805190602001909291905050505050505050565b6000611613611b0f565b90508060090160009054906101000a900473ffffffffffffffffffffffffffffffffffffffff1673ffffffffffffffffffffffffffffffffffffffff163373ffffffffffffffffffffffffffffffffffffffff16146116da576040517f08c379a00000000000000000000000000000000000000000000000000000000081526004018080602001828103825260148152602001807f4f6e6c7920706f6f6c2063616e2063616c6c212100000000000000000000000081525060200191505060405180910390fd5b60006116e4611b0f565b90506116ee61209a565b848183600a0154600381106116ff57fe5b6020020181815250508160010182600a01546003811061171b57fe5b0160009054906101000a900473ffffffffffffffffffffffffffffffffffffffff1673ffffffffffffffffffffffffffffffffffffffff166323b872dd3330886040518463ffffffff1660e01b8152600401808473ffffffffffffffffffffffffffffffffffffffff1681526020018373ffffffffffffffffffffffffffffffffffffffff1681526020018281526020019350505050602060405180830381600087803b1580156117cb57600080fd5b505af11580156117df573d6000803e3d6000fd5b505050506040513d60208110156117f557600080fd5b8101908080519060200190929190505050508160010182600a01546003811061181a57fe5b0160009054906101000a900473ffffffffffffffffffffffffffffffffffffffff1673ffffffffffffffffffffffffffffffffffffffff1663095ea7b38360060160009054906101000a900473ffffffffffffffffffffffffffffffffffffffff1660006040518363ffffffff1660e01b8152600401808373ffffffffffffffffffffffffffffffffffffffff16815260200182815260200192505050602060405180830381600087803b1580156118d157600080fd5b505af11580156118e5573d6000803e3d6000fd5b505050506040513d60208110156118fb57600080fd5b8101908080519060200190929190505050508160010182600a01546003811061192057fe5b0160009054906101000a900473ffffffffffffffffffffffffffffffffffffffff1673ffffffffffffffffffffffffffffffffffffffff1663095ea7b38360060160009054906101000a900473ffffffffffffffffffffffffffffffffffffffff16876040518363ffffffff1660e01b8152600401808373ffffffffffffffffffffffffffffffffffffffff16815260200182815260200192505050602060405180830381600087803b1580156119d657600080fd5b505af11580156119ea573d6000803e3d6000fd5b505050506040513d6020811015611a0057600080fd5b8101908080519060200190929190505050508160060160009054906101000a900473ffffffffffffffffffffffffffffffffffffffff1673ffffffffffffffffffffffffffffffffffffffff16632b6e993a828660016040518463ffffffff1660e01b81526004018084600360200280838360005b83811015611a90578082015181840152602081019050611a75565b5050505090500183815260200182151581526020019350505050602060405180830381600087803b158015611ac457600080fd5b505af1158015611ad8573d6000803e3d6000fd5b505050506040513d6020811015611aee57600080fd5b810190808051906020019092919050505050611b08611c09565b5050505050565b6000807fa506df5f541d029605b005e2b87f8940c5564e1681adf4fd4a0c5e76b5d54ac990508091505090565b600080611b47611b0f565b905060008160080160009054906101000a900473ffffffffffffffffffffffffffffffffffffffff1673ffffffffffffffffffffffffffffffffffffffff16632e17de78856040518263ffffffff1660e01b815260040180828152602001915050602060405180830381600087803b158015611bc257600080fd5b505af1158015611bd6573d6000803e3d6000fd5b505050506040513d6020811015611bec57600080fd5b810190808051906020019092919050505090508092505050919050565b6000611c13611b0f565b905060008160050160009054906101000a900473ffffffffffffffffffffffffffffffffffffffff1673ffffffffffffffffffffffffffffffffffffffff166370a08231306040518263ffffffff1660e01b8152600401808273ffffffffffffffffffffffffffffffffffffffff16815260200191505060206040518083038186803b158015611ca257600080fd5b505afa158015611cb6573d6000803e3d6000fd5b505050506040513d6020811015611ccc57600080fd5b810190808051906020019092919050505090508160050160009054906101000a900473ffffffffffffffffffffffffffffffffffffffff1673ffffffffffffffffffffffffffffffffffffffff1663095ea7b38360080160009054906101000a900473ffffffffffffffffffffffffffffffffffffffff1660006040518363ffffffff1660e01b8152600401808373ffffffffffffffffffffffffffffffffffffffff16815260200182815260200192505050602060405180830381600087803b158015611d9957600080fd5b505af1158015611dad573d6000803e3d6000fd5b505050506040513d6020811015611dc357600080fd5b8101908080519060200190929190505050508160050160009054906101000a900473ffffffffffffffffffffffffffffffffffffffff1673ffffffffffffffffffffffffffffffffffffffff1663095ea7b38360080160009054906101000a900473ffffffffffffffffffffffffffffffffffffffff16836040518363ffffffff1660e01b8152600401808373ffffffffffffffffffffffffffffffffffffffff16815260200182815260200192505050602060405180830381600087803b158015611e8e57600080fd5b505af1158015611ea2573d6000803e3d6000fd5b505050506040513d6020811015611eb857600080fd5b8101908080519060200190929190505050508160080160009054906101000a900473ffffffffffffffffffffffffffffffffffffffff1673ffffffffffffffffffffffffffffffffffffffff1663a694fc3a826040518263ffffffff1660e01b815260040180828152602001915050600060405180830381600087803b158015611f4157600080fd5b505af1158015611f55573d6000803e3d6000fd5b505050505050565b600080611f68611b0f565b905060008160080160009054906101000a900473ffffffffffffffffffffffffffffffffffffffff1673ffffffffffffffffffffffffffffffffffffffff166335322f376040518163ffffffff1660e01b8152600401602060405180830381600087803b158015611fd857600080fd5b505af1158015611fec573d6000803e3d6000fd5b505050506040513d602081101561200257600080fd5b81019080805190602001909291905050509050809250505090565b8260038101928215612089579160200282015b828111156120885782518260006101000a81548173ffffffffffffffffffffffffffffffffffffffff021916908373ffffffffffffffffffffffffffffffffffffffff16021790555091602001919060010190612030565b5b50905061209691906120bc565b5090565b6040518060600160405280600390602082028036833780820191505090505090565b5b808211156120d55760008160009055506001016120bd565b509056fea2646970667358221220a0a3993f71578d7fc2e552b4e3dcca4842ebec2dff076be436bb4027a70de0cc64736f6c63430007060033",
  "immutableReferences": {},
  "source": "// SPDX-License-Identifier: UNLICENSED\r\npragma solidity ^0.7.6;\r\nimport \"../storage/StrategyStorage.sol\";\r\nimport \"../libraries/SafeMath.sol\";\r\n\r\ncontract Strategy is StrategyStorageV1 {\r\n    \r\n    using SafeMath for uint256;\r\n    \r\n  \r\n/****MODIFIERS****/\r\n    modifier onlyPool(){\r\n        StrategyStorage storage ss = strategyStorage();\r\n        require(msg.sender == ss.pool, \"Only pool can call!!\");\r\n        _;\r\n    }\r\n    \r\n/****CONSTRUCTOR****/\r\n    function initialize(\r\n        CurvePool _curvePool,\r\n        IERC20 _curvePoolToken,\r\n        IERC20 _crvToken, \r\n        IERC20[3] memory _coins,\r\n        UniswapV2Router _uniswapRouter,\r\n        address _pool,\r\n        Controller _controller,\r\n        uint256 _coinIndex\r\n    ) public{\r\n        StrategyStorage storage ss = strategyStorage();\r\n       // require(!ss.initialized, 'Already initialized');\r\n        ss.curvePool = _curvePool;\r\n        ss.curvePoolToken = _curvePoolToken;\r\n        ss.crvToken = _crvToken;\r\n        ss.coins = _coins;\r\n        ss.uniswapRouter = _uniswapRouter; \r\n        ss.pool = _pool;\r\n        ss.controller = _controller;\r\n        ss.coinIndex = _coinIndex;\r\n        ss.initialized = true;\r\n    }\r\n\r\n/****POOL FUNCTIONS****/\r\n    \r\n    function deposit(uint256 amount, uint256 minMintAmount) external onlyPool(){\r\n        StrategyStorage storage ss = strategyStorage();\r\n        uint256[3] memory amountArray;\r\n        amountArray[ss.coinIndex] = amount;\r\n        ss.coins[ss.coinIndex].transferFrom(msg.sender, address(this), amount);\r\n        ss.coins[ss.coinIndex].approve(address(ss.curvePool), 0);\r\n        ss.coins[ss.coinIndex].approve(address(ss.curvePool), amount);\r\n        ss.curvePool.add_liquidity(amountArray, minMintAmount, true);\r\n        stakeOnController();\r\n    }\r\n    \r\n    function withdraw(uint256 amount, uint256 maxBurnAmount) external onlyPool(){\r\n        StrategyStorage storage ss = strategyStorage();\r\n        uint256[3] memory amountArray;\r\n        amountArray[ss.coinIndex] = amount;\r\n        unstakeFromController(maxBurnAmount);\r\n        ss.curvePool.remove_liquidity_imbalance(amountArray, maxBurnAmount, true);\r\n        ss.coins[ss.coinIndex].transfer(ss.pool, ss.coins[ss.coinIndex].balanceOf(address(this)));\r\n        stakeOnController();\r\n    }\r\n\r\n    function withdrawAll(uint256 minAmount) external onlyPool(){\r\n        StrategyStorage storage ss = strategyStorage();\r\n        uint256 unstakedAmount = unstakeAllFromController();\r\n        ss.curvePool.remove_liquidity_one_coin(unstakedAmount, int128(ss.coinIndex), minAmount, true);\r\n        ss.coins[ss.coinIndex].transfer(ss.pool, ss.coins[ss.coinIndex].balanceOf(address(this)));\r\n    }\r\n\r\n    function claimAndConvertCRV() external onlyPool() returns(uint256) {\r\n        StrategyStorage storage ss = strategyStorage();\r\n        ss.controller.claimCRV();\r\n        uint256 claimedAmount = ss.crvToken.balanceOf(address(this));\r\n        require(claimedAmount > 0, \"Nothing to claim\");\r\n        ss.crvToken.approve(address(ss.uniswapRouter), 0);\r\n        ss.crvToken.approve(address(ss.uniswapRouter), claimedAmount);\r\n        address[] memory path = new address[](3);\r\n        path[0] = address(ss.crvToken);\r\n        path[1] = ss.uniswapRouter.WETH();\r\n        path[2] = address(ss.coins[ss.coinIndex]);\r\n        \r\n        ss.uniswapRouter.swapExactTokensForTokens(\r\n            claimedAmount, \r\n            uint256(0), \r\n            path, \r\n            address(this), \r\n            block.timestamp + 1800\r\n        );\r\n        uint256 tokenReceived = ss.coins[ss.coinIndex].balanceOf(address(this));\r\n        ss.coins[ss.coinIndex].transfer(ss.pool, tokenReceived);\r\n        return tokenReceived;\r\n    }\r\n    \r\n/****INTERNAL FUNCTIONS****/\r\n\r\n    function stakeOnController() internal {\r\n        StrategyStorage storage ss = strategyStorage();\r\n        uint256 stakeAmount = ss.curvePoolToken.balanceOf(address(this)) ;\r\n        ss.curvePoolToken.approve(address(ss.controller), 0);\r\n        ss.curvePoolToken.approve(address(ss.controller), stakeAmount);\r\n        ss.controller.stake(stakeAmount);  \r\n    }\r\n\r\n    function unstakeFromController(uint256 amount) internal returns(uint256){\r\n        StrategyStorage storage ss = strategyStorage();\r\n        uint256 unstakedAmount = ss.controller.unstake(amount);\r\n        return unstakedAmount;\r\n    }\r\n\r\n    function unstakeAllFromController() internal returns(uint256){\r\n        StrategyStorage storage ss = strategyStorage();\r\n        uint256 unstakedAmount = ss.controller.unstakeAll();\r\n        return unstakedAmount;\r\n    }\r\n\r\n/****VIEW FUNTION****/\r\n/*\r\n    function depositedAmount() public view returns(uint256){\r\n        StrategyStorage storage ss = strategyStorage();\r\n        uint256 stakedAmount = ss.controller.stakedAmount();\r\n        return curveLPTokenPrice() * stakedAmount / (10**ss.curvePoolToken.decimals());\r\n    }\r\n\r\n    function curveLPTokenPrice() public view returns(uint256){\r\n        StrategyStorage storage ss = strategyStorage();\r\n        return ss.curvePool.get_virtual_price();\r\n    }\r\n*/\r\n}",
  "sourcePath": "E:/Projects/AdvancedPool/Strategy/contracts/facets/Strategy.sol",
  "compiler": {
    "name": "solc",
    "version": "0.7.6+commit.7338295f.Emscripten.clang"
  },
  "schemaVersion": "3.3.2",
  "updatedAt": "2021-06-23T11:17:55.327Z",
  "networkType": "ethereum",
  "devdoc": {
    "kind": "dev",
    "methods": {},
    "version": 1
  },
  "userdoc": {
    "kind": "user",
    "methods": {},
    "version": 1
  }
}