{
  "contractName": "Strategy",
  "abi": [
    {
      "inputs": [
        {
          "internalType": "contract CurvePool",
          "name": "_curvePool",
          "type": "address"
        },
        {
          "internalType": "contract IERC20",
          "name": "_curvePoolToken",
          "type": "address"
        },
        {
          "internalType": "contract IERC20",
          "name": "_crvToken",
          "type": "address"
        },
        {
          "internalType": "contract IERC20[3]",
          "name": "_coins",
          "type": "address[3]"
        },
        {
          "internalType": "contract UniswapV2Router",
          "name": "_uniswapRouter",
          "type": "address"
        },
        {
          "internalType": "address",
          "name": "_pool",
          "type": "address"
        },
        {
          "internalType": "contract Controller",
          "name": "_controller",
          "type": "address"
        },
        {
          "internalType": "uint256",
          "name": "_coinIndex",
          "type": "uint256"
        }
      ],
      "name": "initialize",
      "outputs": [],
      "stateMutability": "nonpayable",
      "type": "function"
    },
    {
      "inputs": [
        {
          "internalType": "uint256",
          "name": "amount",
          "type": "uint256"
        },
        {
          "internalType": "uint256",
          "name": "minMintAmount",
          "type": "uint256"
        }
      ],
      "name": "deposit",
      "outputs": [],
      "stateMutability": "nonpayable",
      "type": "function"
    },
    {
      "inputs": [
        {
          "internalType": "uint256",
          "name": "amount",
          "type": "uint256"
        },
        {
          "internalType": "uint256",
          "name": "maxBurnAmount",
          "type": "uint256"
        }
      ],
      "name": "withdraw",
      "outputs": [],
      "stateMutability": "nonpayable",
      "type": "function"
    },
    {
      "inputs": [
        {
          "internalType": "uint256",
          "name": "minAmount",
          "type": "uint256"
        }
      ],
      "name": "withdrawAll",
      "outputs": [],
      "stateMutability": "nonpayable",
      "type": "function"
    },
    {
      "inputs": [],
      "name": "claimAndConvertCRV",
      "outputs": [
        {
          "internalType": "uint256",
          "name": "",
          "type": "uint256"
        }
      ],
      "stateMutability": "nonpayable",
      "type": "function"
    }
  ],
  "bytecode": "0x608060405234801561001057600080fd5b50612194806100206000396000f3fe608060405234801561001057600080fd5b50600436106100575760003560e01c80630c32fd061461005c5780632fbd70821461018c578063441a3e70146101aa578063958e2d31146101e2578063e2bbb15814610210575b600080fd5b61018a600480360361014081101561007357600080fd5b81019080803573ffffffffffffffffffffffffffffffffffffffff169060200190929190803573ffffffffffffffffffffffffffffffffffffffff169060200190929190803573ffffffffffffffffffffffffffffffffffffffff16906020019092919080606001906003806020026040519081016040528092919082600360200280828437600081840152601f19601f8201169050808301925050505050509192919290803573ffffffffffffffffffffffffffffffffffffffff169060200190929190803573ffffffffffffffffffffffffffffffffffffffff169060200190929190803573ffffffffffffffffffffffffffffffffffffffff16906020019092919080359060200190929190505050610248565b005b6101946104b0565b6040518082815260200191505060405180910390f35b6101e0600480360360408110156101c057600080fd5b810190808035906020019092919080359060200190929190505050610f10565b005b61020e600480360360208110156101f857600080fd5b81019080803590602001909291905050506112f0565b005b6102466004803603604081101561022657600080fd5b81019080803590602001909291908035906020019092919050505061168e565b005b6000610252611b94565b90508060000160009054906101000a900460ff16156102d9576040517f08c379a00000000000000000000000000000000000000000000000000000000081526004018080602001828103825260138152602001807f416c726561647920696e697469616c697a65640000000000000000000000000081525060200191505060405180910390fd5b888160060160006101000a81548173ffffffffffffffffffffffffffffffffffffffff021916908373ffffffffffffffffffffffffffffffffffffffff160217905550878160050160006101000a81548173ffffffffffffffffffffffffffffffffffffffff021916908373ffffffffffffffffffffffffffffffffffffffff160217905550868160040160006101000a81548173ffffffffffffffffffffffffffffffffffffffff021916908373ffffffffffffffffffffffffffffffffffffffff16021790555085816001019060036103b59291906120a2565b50848160070160006101000a81548173ffffffffffffffffffffffffffffffffffffffff021916908373ffffffffffffffffffffffffffffffffffffffff160217905550838160090160006101000a81548173ffffffffffffffffffffffffffffffffffffffff021916908373ffffffffffffffffffffffffffffffffffffffff160217905550828160080160006101000a81548173ffffffffffffffffffffffffffffffffffffffff021916908373ffffffffffffffffffffffffffffffffffffffff1602179055508181600a018190555060018160000160006101000a81548160ff021916908315150217905550505050505050505050565b6000806104bb611b94565b90508060090160009054906101000a900473ffffffffffffffffffffffffffffffffffffffff1673ffffffffffffffffffffffffffffffffffffffff163373ffffffffffffffffffffffffffffffffffffffff1614610582576040517f08c379a00000000000000000000000000000000000000000000000000000000081526004018080602001828103825260148152602001807f4f6e6c7920706f6f6c2063616e2063616c6c212100000000000000000000000081525060200191505060405180910390fd5b600061058c611b94565b90508060080160009054906101000a900473ffffffffffffffffffffffffffffffffffffffff1673ffffffffffffffffffffffffffffffffffffffff166348f8f6d96040518163ffffffff1660e01b8152600401600060405180830381600087803b1580156105fa57600080fd5b505af115801561060e573d6000803e3d6000fd5b5050505060008160040160009054906101000a900473ffffffffffffffffffffffffffffffffffffffff1673ffffffffffffffffffffffffffffffffffffffff166370a08231306040518263ffffffff1660e01b8152600401808273ffffffffffffffffffffffffffffffffffffffff16815260200191505060206040518083038186803b15801561069f57600080fd5b505afa1580156106b3573d6000803e3d6000fd5b505050506040513d60208110156106c957600080fd5b8101908080519060200190929190505050905060008111610752576040517f08c379a00000000000000000000000000000000000000000000000000000000081526004018080602001828103825260108152602001807f4e6f7468696e6720746f20636c61696d0000000000000000000000000000000081525060200191505060405180910390fd5b8160040160009054906101000a900473ffffffffffffffffffffffffffffffffffffffff1673ffffffffffffffffffffffffffffffffffffffff1663095ea7b38360070160009054906101000a900473ffffffffffffffffffffffffffffffffffffffff1660006040518363ffffffff1660e01b8152600401808373ffffffffffffffffffffffffffffffffffffffff16815260200182815260200192505050602060405180830381600087803b15801561080c57600080fd5b505af1158015610820573d6000803e3d6000fd5b505050506040513d602081101561083657600080fd5b8101908080519060200190929190505050508160040160009054906101000a900473ffffffffffffffffffffffffffffffffffffffff1673ffffffffffffffffffffffffffffffffffffffff1663095ea7b38360070160009054906101000a900473ffffffffffffffffffffffffffffffffffffffff16836040518363ffffffff1660e01b8152600401808373ffffffffffffffffffffffffffffffffffffffff16815260200182815260200192505050602060405180830381600087803b15801561090157600080fd5b505af1158015610915573d6000803e3d6000fd5b505050506040513d602081101561092b57600080fd5b8101908080519060200190929190505050506000600367ffffffffffffffff8111801561095757600080fd5b506040519080825280602002602001820160405280156109865781602001602082028036833780820191505090505b5090508260040160009054906101000a900473ffffffffffffffffffffffffffffffffffffffff16816000815181106109bb57fe5b602002602001019073ffffffffffffffffffffffffffffffffffffffff16908173ffffffffffffffffffffffffffffffffffffffff16815250508260070160009054906101000a900473ffffffffffffffffffffffffffffffffffffffff1673ffffffffffffffffffffffffffffffffffffffff1663ad5c46486040518163ffffffff1660e01b815260040160206040518083038186803b158015610a5f57600080fd5b505afa158015610a73573d6000803e3d6000fd5b505050506040513d6020811015610a8957600080fd5b810190808051906020019092919050505081600181518110610aa757fe5b602002602001019073ffffffffffffffffffffffffffffffffffffffff16908173ffffffffffffffffffffffffffffffffffffffff16815250508260010183600a015460038110610af457fe5b0160009054906101000a900473ffffffffffffffffffffffffffffffffffffffff1681600281518110610b2357fe5b602002602001019073ffffffffffffffffffffffffffffffffffffffff16908173ffffffffffffffffffffffffffffffffffffffff16815250508260070160009054906101000a900473ffffffffffffffffffffffffffffffffffffffff1673ffffffffffffffffffffffffffffffffffffffff166338ed1739836000843061070842016040518663ffffffff1660e01b815260040180868152602001858152602001806020018473ffffffffffffffffffffffffffffffffffffffff168152602001838152602001828103825285818151815260200191508051906020019060200280838360005b83811015610c27578082015181840152602081019050610c0c565b505050509050019650505050505050600060405180830381600087803b158015610c5057600080fd5b505af1158015610c64573d6000803e3d6000fd5b505050506040513d6000823e3d601f19601f820116820180604052506020811015610c8e57600080fd5b8101908080516040519392919084640100000000821115610cae57600080fd5b83820191506020820185811115610cc457600080fd5b8251866020820283011164010000000082111715610ce157600080fd5b8083526020830192505050908051906020019060200280838360005b83811015610d18578082015181840152602081019050610cfd565b505050509050016040525050505060008360010184600a015460038110610d3b57fe5b0160009054906101000a900473ffffffffffffffffffffffffffffffffffffffff1673ffffffffffffffffffffffffffffffffffffffff166370a08231306040518263ffffffff1660e01b8152600401808273ffffffffffffffffffffffffffffffffffffffff16815260200191505060206040518083038186803b158015610dc357600080fd5b505afa158015610dd7573d6000803e3d6000fd5b505050506040513d6020811015610ded57600080fd5b810190808051906020019092919050505090508360010184600a015460038110610e1357fe5b0160009054906101000a900473ffffffffffffffffffffffffffffffffffffffff1673ffffffffffffffffffffffffffffffffffffffff1663a9059cbb8560090160009054906101000a900473ffffffffffffffffffffffffffffffffffffffff16836040518363ffffffff1660e01b8152600401808373ffffffffffffffffffffffffffffffffffffffff16815260200182815260200192505050602060405180830381600087803b158015610ec957600080fd5b505af1158015610edd573d6000803e3d6000fd5b505050506040513d6020811015610ef357600080fd5b810190808051906020019092919050505050809550505050505090565b6000610f1a611b94565b90508060090160009054906101000a900473ffffffffffffffffffffffffffffffffffffffff1673ffffffffffffffffffffffffffffffffffffffff163373ffffffffffffffffffffffffffffffffffffffff1614610fe1576040517f08c379a00000000000000000000000000000000000000000000000000000000081526004018080602001828103825260148152602001807f4f6e6c7920706f6f6c2063616e2063616c6c212100000000000000000000000081525060200191505060405180910390fd5b6000610feb611b94565b9050610ff561211f565b848183600a01546003811061100657fe5b60200201818152505061101884611bc1565b508160060160009054906101000a900473ffffffffffffffffffffffffffffffffffffffff1673ffffffffffffffffffffffffffffffffffffffff16635b8369f5828660016040518463ffffffff1660e01b81526004018084600360200280838360005b8381101561109757808201518184015260208101905061107c565b5050505090500183815260200182151581526020019350505050602060405180830381600087803b1580156110cb57600080fd5b505af11580156110df573d6000803e3d6000fd5b505050506040513d60208110156110f557600080fd5b8101908080519060200190929190505050508160010182600a01546003811061111a57fe5b0160009054906101000a900473ffffffffffffffffffffffffffffffffffffffff1673ffffffffffffffffffffffffffffffffffffffff1663a9059cbb8360090160009054906101000a900473ffffffffffffffffffffffffffffffffffffffff168460010185600a01546003811061118f57fe5b0160009054906101000a900473ffffffffffffffffffffffffffffffffffffffff1673ffffffffffffffffffffffffffffffffffffffff166370a08231306040518263ffffffff1660e01b8152600401808273ffffffffffffffffffffffffffffffffffffffff16815260200191505060206040518083038186803b15801561121757600080fd5b505afa15801561122b573d6000803e3d6000fd5b505050506040513d602081101561124157600080fd5b81019080805190602001909291905050506040518363ffffffff1660e01b8152600401808373ffffffffffffffffffffffffffffffffffffffff16815260200182815260200192505050602060405180830381600087803b1580156112a557600080fd5b505af11580156112b9573d6000803e3d6000fd5b505050506040513d60208110156112cf57600080fd5b8101908080519060200190929190505050506112e9611c8e565b5050505050565b60006112fa611b94565b90508060090160009054906101000a900473ffffffffffffffffffffffffffffffffffffffff1673ffffffffffffffffffffffffffffffffffffffff163373ffffffffffffffffffffffffffffffffffffffff16146113c1576040517f08c379a00000000000000000000000000000000000000000000000000000000081526004018080602001828103825260148152602001807f4f6e6c7920706f6f6c2063616e2063616c6c212100000000000000000000000081525060200191505060405180910390fd5b60006113cb611b94565b905060006113d7611fe2565b90508160060160009054906101000a900473ffffffffffffffffffffffffffffffffffffffff1673ffffffffffffffffffffffffffffffffffffffff1663517a55a38284600a01548760016040518563ffffffff1660e01b81526004018085815260200184600f0b81526020018381526020018215158152602001945050505050602060405180830381600087803b15801561147257600080fd5b505af1158015611486573d6000803e3d6000fd5b505050506040513d602081101561149c57600080fd5b8101908080519060200190929190505050508160010182600a0154600381106114c157fe5b0160009054906101000a900473ffffffffffffffffffffffffffffffffffffffff1673ffffffffffffffffffffffffffffffffffffffff1663a9059cbb8360090160009054906101000a900473ffffffffffffffffffffffffffffffffffffffff168460010185600a01546003811061153657fe5b0160009054906101000a900473ffffffffffffffffffffffffffffffffffffffff1673ffffffffffffffffffffffffffffffffffffffff166370a08231306040518263ffffffff1660e01b8152600401808273ffffffffffffffffffffffffffffffffffffffff16815260200191505060206040518083038186803b1580156115be57600080fd5b505afa1580156115d2573d6000803e3d6000fd5b505050506040513d60208110156115e857600080fd5b81019080805190602001909291905050506040518363ffffffff1660e01b8152600401808373ffffffffffffffffffffffffffffffffffffffff16815260200182815260200192505050602060405180830381600087803b15801561164c57600080fd5b505af1158015611660573d6000803e3d6000fd5b505050506040513d602081101561167657600080fd5b81019080805190602001909291905050505050505050565b6000611698611b94565b90508060090160009054906101000a900473ffffffffffffffffffffffffffffffffffffffff1673ffffffffffffffffffffffffffffffffffffffff163373ffffffffffffffffffffffffffffffffffffffff161461175f576040517f08c379a00000000000000000000000000000000000000000000000000000000081526004018080602001828103825260148152602001807f4f6e6c7920706f6f6c2063616e2063616c6c212100000000000000000000000081525060200191505060405180910390fd5b6000611769611b94565b905061177361211f565b848183600a01546003811061178457fe5b6020020181815250508160010182600a0154600381106117a057fe5b0160009054906101000a900473ffffffffffffffffffffffffffffffffffffffff1673ffffffffffffffffffffffffffffffffffffffff166323b872dd3330886040518463ffffffff1660e01b8152600401808473ffffffffffffffffffffffffffffffffffffffff1681526020018373ffffffffffffffffffffffffffffffffffffffff1681526020018281526020019350505050602060405180830381600087803b15801561185057600080fd5b505af1158015611864573d6000803e3d6000fd5b505050506040513d602081101561187a57600080fd5b8101908080519060200190929190505050508160010182600a01546003811061189f57fe5b0160009054906101000a900473ffffffffffffffffffffffffffffffffffffffff1673ffffffffffffffffffffffffffffffffffffffff1663095ea7b38360060160009054906101000a900473ffffffffffffffffffffffffffffffffffffffff1660006040518363ffffffff1660e01b8152600401808373ffffffffffffffffffffffffffffffffffffffff16815260200182815260200192505050602060405180830381600087803b15801561195657600080fd5b505af115801561196a573d6000803e3d6000fd5b505050506040513d602081101561198057600080fd5b8101908080519060200190929190505050508160010182600a0154600381106119a557fe5b0160009054906101000a900473ffffffffffffffffffffffffffffffffffffffff1673ffffffffffffffffffffffffffffffffffffffff1663095ea7b38360060160009054906101000a900473ffffffffffffffffffffffffffffffffffffffff16876040518363ffffffff1660e01b8152600401808373ffffffffffffffffffffffffffffffffffffffff16815260200182815260200192505050602060405180830381600087803b158015611a5b57600080fd5b505af1158015611a6f573d6000803e3d6000fd5b505050506040513d6020811015611a8557600080fd5b8101908080519060200190929190505050508160060160009054906101000a900473ffffffffffffffffffffffffffffffffffffffff1673ffffffffffffffffffffffffffffffffffffffff16632b6e993a828660016040518463ffffffff1660e01b81526004018084600360200280838360005b83811015611b15578082015181840152602081019050611afa565b5050505090500183815260200182151581526020019350505050602060405180830381600087803b158015611b4957600080fd5b505af1158015611b5d573d6000803e3d6000fd5b505050506040513d6020811015611b7357600080fd5b810190808051906020019092919050505050611b8d611c8e565b5050505050565b6000807fa506df5f541d029605b005e2b87f8940c5564e1681adf4fd4a0c5e76b5d54ac990508091505090565b600080611bcc611b94565b905060008160080160009054906101000a900473ffffffffffffffffffffffffffffffffffffffff1673ffffffffffffffffffffffffffffffffffffffff16632e17de78856040518263ffffffff1660e01b815260040180828152602001915050602060405180830381600087803b158015611c4757600080fd5b505af1158015611c5b573d6000803e3d6000fd5b505050506040513d6020811015611c7157600080fd5b810190808051906020019092919050505090508092505050919050565b6000611c98611b94565b905060008160050160009054906101000a900473ffffffffffffffffffffffffffffffffffffffff1673ffffffffffffffffffffffffffffffffffffffff166370a08231306040518263ffffffff1660e01b8152600401808273ffffffffffffffffffffffffffffffffffffffff16815260200191505060206040518083038186803b158015611d2757600080fd5b505afa158015611d3b573d6000803e3d6000fd5b505050506040513d6020811015611d5157600080fd5b810190808051906020019092919050505090508160050160009054906101000a900473ffffffffffffffffffffffffffffffffffffffff1673ffffffffffffffffffffffffffffffffffffffff1663095ea7b38360080160009054906101000a900473ffffffffffffffffffffffffffffffffffffffff1660006040518363ffffffff1660e01b8152600401808373ffffffffffffffffffffffffffffffffffffffff16815260200182815260200192505050602060405180830381600087803b158015611e1e57600080fd5b505af1158015611e32573d6000803e3d6000fd5b505050506040513d6020811015611e4857600080fd5b8101908080519060200190929190505050508160050160009054906101000a900473ffffffffffffffffffffffffffffffffffffffff1673ffffffffffffffffffffffffffffffffffffffff1663095ea7b38360080160009054906101000a900473ffffffffffffffffffffffffffffffffffffffff16836040518363ffffffff1660e01b8152600401808373ffffffffffffffffffffffffffffffffffffffff16815260200182815260200192505050602060405180830381600087803b158015611f1357600080fd5b505af1158015611f27573d6000803e3d6000fd5b505050506040513d6020811015611f3d57600080fd5b8101908080519060200190929190505050508160080160009054906101000a900473ffffffffffffffffffffffffffffffffffffffff1673ffffffffffffffffffffffffffffffffffffffff1663a694fc3a826040518263ffffffff1660e01b815260040180828152602001915050600060405180830381600087803b158015611fc657600080fd5b505af1158015611fda573d6000803e3d6000fd5b505050505050565b600080611fed611b94565b905060008160080160009054906101000a900473ffffffffffffffffffffffffffffffffffffffff1673ffffffffffffffffffffffffffffffffffffffff166335322f376040518163ffffffff1660e01b8152600401602060405180830381600087803b15801561205d57600080fd5b505af1158015612071573d6000803e3d6000fd5b505050506040513d602081101561208757600080fd5b81019080805190602001909291905050509050809250505090565b826003810192821561210e579160200282015b8281111561210d5782518260006101000a81548173ffffffffffffffffffffffffffffffffffffffff021916908373ffffffffffffffffffffffffffffffffffffffff160217905550916020019190600101906120b5565b5b50905061211b9190612141565b5090565b6040518060600160405280600390602082028036833780820191505090505090565b5b8082111561215a576000816000905550600101612142565b509056fea264697066735822122047d9c5953cd99655e674b71675357565561404576de236db55df41070e4150c064736f6c63430007060033",
  "immutableReferences": {},
  "source": "// SPDX-License-Identifier: UNLICENSED\r\npragma solidity ^0.7.6;\r\nimport \"../storage/StrategyStorage.sol\";\r\nimport \"../libraries/SafeMath.sol\";\r\n\r\ncontract Strategy is StrategyStorageV1 {\r\n    \r\n    using SafeMath for uint256;\r\n    \r\n  \r\n/****MODIFIERS****/\r\n    modifier onlyPool(){\r\n        StrategyStorage storage ss = strategyStorage();\r\n        require(msg.sender == ss.pool, \"Only pool can call!!\");\r\n        _;\r\n    }\r\n    \r\n/****CONSTRUCTOR****/\r\n    function initialize(\r\n        CurvePool _curvePool,\r\n        IERC20 _curvePoolToken,\r\n        IERC20 _crvToken, \r\n        IERC20[3] memory _coins,\r\n        UniswapV2Router _uniswapRouter,\r\n        address _pool,\r\n        Controller _controller,\r\n        uint256 _coinIndex\r\n    ) public{\r\n        StrategyStorage storage ss = strategyStorage();\r\n        require(!ss.initialized, 'Already initialized');\r\n        ss.curvePool = _curvePool;\r\n        ss.curvePoolToken = _curvePoolToken;\r\n        ss.crvToken = _crvToken;\r\n        ss.coins = _coins;\r\n        ss.uniswapRouter = _uniswapRouter; \r\n        ss.pool = _pool;\r\n        ss.controller = _controller;\r\n        ss.coinIndex = _coinIndex;\r\n        ss.initialized = true;\r\n    }\r\n\r\n/****POOL FUNCTIONS****/\r\n    \r\n    function deposit(uint256 amount, uint256 minMintAmount) external onlyPool(){\r\n        StrategyStorage storage ss = strategyStorage();\r\n        uint256[3] memory amountArray;\r\n        amountArray[ss.coinIndex] = amount;\r\n        ss.coins[ss.coinIndex].transferFrom(msg.sender, address(this), amount);\r\n        ss.coins[ss.coinIndex].approve(address(ss.curvePool), 0);\r\n        ss.coins[ss.coinIndex].approve(address(ss.curvePool), amount);\r\n        ss.curvePool.add_liquidity(amountArray, minMintAmount, true);\r\n        stakeOnController();\r\n    }\r\n    \r\n    function withdraw(uint256 amount, uint256 maxBurnAmount) external onlyPool(){\r\n        StrategyStorage storage ss = strategyStorage();\r\n        uint256[3] memory amountArray;\r\n        amountArray[ss.coinIndex] = amount;\r\n        unstakeFromController(maxBurnAmount);\r\n        ss.curvePool.remove_liquidity_imbalance(amountArray, maxBurnAmount, true);\r\n        ss.coins[ss.coinIndex].transfer(ss.pool, ss.coins[ss.coinIndex].balanceOf(address(this)));\r\n        stakeOnController();\r\n    }\r\n\r\n    function withdrawAll(uint256 minAmount) external onlyPool(){\r\n        StrategyStorage storage ss = strategyStorage();\r\n        uint256 unstakedAmount = unstakeAllFromController();\r\n        ss.curvePool.remove_liquidity_one_coin(unstakedAmount, int128(ss.coinIndex), minAmount, true);\r\n        ss.coins[ss.coinIndex].transfer(ss.pool, ss.coins[ss.coinIndex].balanceOf(address(this)));\r\n    }\r\n\r\n    function claimAndConvertCRV() external onlyPool() returns(uint256) {\r\n        StrategyStorage storage ss = strategyStorage();\r\n        ss.controller.claimCRV();\r\n        uint256 claimedAmount = ss.crvToken.balanceOf(address(this));\r\n        require(claimedAmount > 0, \"Nothing to claim\");\r\n        ss.crvToken.approve(address(ss.uniswapRouter), 0);\r\n        ss.crvToken.approve(address(ss.uniswapRouter), claimedAmount);\r\n        address[] memory path = new address[](3);\r\n        path[0] = address(ss.crvToken);\r\n        path[1] = ss.uniswapRouter.WETH();\r\n        path[2] = address(ss.coins[ss.coinIndex]);\r\n        \r\n        ss.uniswapRouter.swapExactTokensForTokens(\r\n            claimedAmount, \r\n            uint256(0), \r\n            path, \r\n            address(this), \r\n            block.timestamp + 1800\r\n        );\r\n        uint256 tokenReceived = ss.coins[ss.coinIndex].balanceOf(address(this));\r\n        ss.coins[ss.coinIndex].transfer(ss.pool, tokenReceived);\r\n        return tokenReceived;\r\n    }\r\n    \r\n/****INTERNAL FUNCTIONS****/\r\n\r\n    function stakeOnController() internal {\r\n        StrategyStorage storage ss = strategyStorage();\r\n        uint256 stakeAmount = ss.curvePoolToken.balanceOf(address(this)) ;\r\n        ss.curvePoolToken.approve(address(ss.controller), 0);\r\n        ss.curvePoolToken.approve(address(ss.controller), stakeAmount);\r\n        ss.controller.stake(stakeAmount);  \r\n    }\r\n\r\n    function unstakeFromController(uint256 amount) internal returns(uint256){\r\n        StrategyStorage storage ss = strategyStorage();\r\n        uint256 unstakedAmount = ss.controller.unstake(amount);\r\n        return unstakedAmount;\r\n    }\r\n\r\n    function unstakeAllFromController() internal returns(uint256){\r\n        StrategyStorage storage ss = strategyStorage();\r\n        uint256 unstakedAmount = ss.controller.unstakeAll();\r\n        return unstakedAmount;\r\n    }\r\n\r\n}",
  "sourcePath": "E:/Projects/AdvancedPool/Strategy/contracts/facets/Strategy.sol",
  "compiler": {
    "name": "solc",
    "version": "0.7.6+commit.7338295f.Emscripten.clang"
  },
  "schemaVersion": "3.3.2",
  "updatedAt": "2021-06-23T17:23:29.231Z",
  "devdoc": {
    "kind": "dev",
    "methods": {},
    "version": 1
  },
  "userdoc": {
    "kind": "user",
    "methods": {},
    "version": 1
  }
}