{
  "contractName": "TriPoolStrategy",
  "abi": [
    {
      "inputs": [
        {
          "internalType": "contract CurvePool",
          "name": "_curvePool",
          "type": "address"
        },
        {
          "internalType": "contract IERC20",
          "name": "_curvePoolToken",
          "type": "address"
        },
        {
          "internalType": "contract IERC20",
          "name": "_crvToken",
          "type": "address"
        },
        {
          "internalType": "contract IERC20[3]",
          "name": "_coins",
          "type": "address[3]"
        },
        {
          "internalType": "contract UniswapV2Router",
          "name": "_uniswapRouter",
          "type": "address"
        },
        {
          "internalType": "address",
          "name": "_pool",
          "type": "address"
        },
        {
          "internalType": "contract Controller",
          "name": "_controller",
          "type": "address"
        },
        {
          "internalType": "uint256",
          "name": "_coinIndex",
          "type": "uint256"
        }
      ],
      "name": "initialize",
      "outputs": [],
      "stateMutability": "nonpayable",
      "type": "function"
    },
    {
      "inputs": [
        {
          "internalType": "uint256",
          "name": "amount",
          "type": "uint256"
        }
      ],
      "name": "deposit",
      "outputs": [],
      "stateMutability": "nonpayable",
      "type": "function"
    },
    {
      "inputs": [
        {
          "internalType": "uint256",
          "name": "amount",
          "type": "uint256"
        }
      ],
      "name": "withdraw",
      "outputs": [],
      "stateMutability": "nonpayable",
      "type": "function"
    },
    {
      "inputs": [],
      "name": "claimAndConvertCRV",
      "outputs": [
        {
          "internalType": "uint256",
          "name": "",
          "type": "uint256"
        }
      ],
      "stateMutability": "nonpayable",
      "type": "function"
    }
  ],
  "bytecode": "0x608060405234801561001057600080fd5b5061198e806100206000396000f3fe608060405234801561001057600080fd5b506004361061004c5760003560e01c80630c32fd06146100515780632e1a7d4d146101815780632fbd7082146101af578063b6b55f25146101cd575b600080fd5b61017f600480360361014081101561006857600080fd5b81019080803573ffffffffffffffffffffffffffffffffffffffff169060200190929190803573ffffffffffffffffffffffffffffffffffffffff169060200190929190803573ffffffffffffffffffffffffffffffffffffffff16906020019092919080606001906003806020026040519081016040528092919082600360200280828437600081840152601f19601f8201169050808301925050505050509192919290803573ffffffffffffffffffffffffffffffffffffffff169060200190929190803573ffffffffffffffffffffffffffffffffffffffff169060200190929190803573ffffffffffffffffffffffffffffffffffffffff169060200190929190803590602001909291905050506101fb565b005b6101ad6004803603602081101561019757600080fd5b8101908080359060200190929190505050610463565b005b6101b7610816565b6040518082815260200191505060405180910390f35b6101f9600480360360208110156101e357600080fd5b8101908080359060200190929190505050611180565b005b6000610205611551565b90508060000160009054906101000a900460ff161561028c576040517f08c379a00000000000000000000000000000000000000000000000000000000081526004018080602001828103825260138152602001807f416c726561647920696e697469616c697a65640000000000000000000000000081525060200191505060405180910390fd5b888160060160006101000a81548173ffffffffffffffffffffffffffffffffffffffff021916908373ffffffffffffffffffffffffffffffffffffffff160217905550878160050160006101000a81548173ffffffffffffffffffffffffffffffffffffffff021916908373ffffffffffffffffffffffffffffffffffffffff160217905550868160040160006101000a81548173ffffffffffffffffffffffffffffffffffffffff021916908373ffffffffffffffffffffffffffffffffffffffff160217905550858160010190600361036892919061189c565b50848160070160006101000a81548173ffffffffffffffffffffffffffffffffffffffff021916908373ffffffffffffffffffffffffffffffffffffffff160217905550838160090160006101000a81548173ffffffffffffffffffffffffffffffffffffffff021916908373ffffffffffffffffffffffffffffffffffffffff160217905550828160080160006101000a81548173ffffffffffffffffffffffffffffffffffffffff021916908373ffffffffffffffffffffffffffffffffffffffff1602179055508181600a018190555060018160000160006101000a81548160ff021916908315150217905550505050505050505050565b600061046d611551565b90508060090160009054906101000a900473ffffffffffffffffffffffffffffffffffffffff1673ffffffffffffffffffffffffffffffffffffffff163373ffffffffffffffffffffffffffffffffffffffff1614610534576040517f08c379a00000000000000000000000000000000000000000000000000000000081526004018080602001828103825260148152602001807f4f6e6c7920706f6f6c2063616e2063616c6c212100000000000000000000000081525060200191505060405180910390fd5b600061053e611551565b9050610548611919565b838183600a01546003811061055957fe5b602002018181525050600061056c61157e565b90508260060160009054906101000a900473ffffffffffffffffffffffffffffffffffffffff1673ffffffffffffffffffffffffffffffffffffffff16639fdaea0c83836040518363ffffffff1660e01b81526004018083600360200280838360005b838110156105ea5780820151818401526020810190506105cf565b5050505090500182815260200192505050600060405180830381600087803b15801561061557600080fd5b505af1158015610629573d6000803e3d6000fd5b505050508260010183600a01546003811061064057fe5b0160009054906101000a900473ffffffffffffffffffffffffffffffffffffffff1673ffffffffffffffffffffffffffffffffffffffff1663a9059cbb8460090160009054906101000a900473ffffffffffffffffffffffffffffffffffffffff168560010186600a0154600381106106b557fe5b0160009054906101000a900473ffffffffffffffffffffffffffffffffffffffff1673ffffffffffffffffffffffffffffffffffffffff166370a08231306040518263ffffffff1660e01b8152600401808273ffffffffffffffffffffffffffffffffffffffff16815260200191505060206040518083038186803b15801561073d57600080fd5b505afa158015610751573d6000803e3d6000fd5b505050506040513d602081101561076757600080fd5b81019080805190602001909291905050506040518363ffffffff1660e01b8152600401808373ffffffffffffffffffffffffffffffffffffffff16815260200182815260200192505050602060405180830381600087803b1580156107cb57600080fd5b505af11580156107df573d6000803e3d6000fd5b505050506040513d60208110156107f557600080fd5b81019080805190602001909291905050505061080f61163e565b5050505050565b600080610821611551565b90508060090160009054906101000a900473ffffffffffffffffffffffffffffffffffffffff1673ffffffffffffffffffffffffffffffffffffffff163373ffffffffffffffffffffffffffffffffffffffff16146108e8576040517f08c379a00000000000000000000000000000000000000000000000000000000081526004018080602001828103825260148152602001807f4f6e6c7920706f6f6c2063616e2063616c6c212100000000000000000000000081525060200191505060405180910390fd5b60006108f2611551565b90508060080160009054906101000a900473ffffffffffffffffffffffffffffffffffffffff1673ffffffffffffffffffffffffffffffffffffffff166348f8f6d96040518163ffffffff1660e01b8152600401600060405180830381600087803b15801561096057600080fd5b505af1158015610974573d6000803e3d6000fd5b5050505060008160040160009054906101000a900473ffffffffffffffffffffffffffffffffffffffff1673ffffffffffffffffffffffffffffffffffffffff166370a08231306040518263ffffffff1660e01b8152600401808273ffffffffffffffffffffffffffffffffffffffff16815260200191505060206040518083038186803b158015610a0557600080fd5b505afa158015610a19573d6000803e3d6000fd5b505050506040513d6020811015610a2f57600080fd5b8101908080519060200190929190505050905060008111610ab8576040517f08c379a00000000000000000000000000000000000000000000000000000000081526004018080602001828103825260108152602001807f4e6f7468696e6720746f20636c61696d0000000000000000000000000000000081525060200191505060405180910390fd5b8160040160009054906101000a900473ffffffffffffffffffffffffffffffffffffffff1673ffffffffffffffffffffffffffffffffffffffff1663095ea7b38360070160009054906101000a900473ffffffffffffffffffffffffffffffffffffffff16836040518363ffffffff1660e01b8152600401808373ffffffffffffffffffffffffffffffffffffffff16815260200182815260200192505050602060405180830381600087803b158015610b7157600080fd5b505af1158015610b85573d6000803e3d6000fd5b505050506040513d6020811015610b9b57600080fd5b8101908080519060200190929190505050506000600367ffffffffffffffff81118015610bc757600080fd5b50604051908082528060200260200182016040528015610bf65781602001602082028036833780820191505090505b5090508260040160009054906101000a900473ffffffffffffffffffffffffffffffffffffffff1681600081518110610c2b57fe5b602002602001019073ffffffffffffffffffffffffffffffffffffffff16908173ffffffffffffffffffffffffffffffffffffffff16815250508260070160009054906101000a900473ffffffffffffffffffffffffffffffffffffffff1673ffffffffffffffffffffffffffffffffffffffff1663ad5c46486040518163ffffffff1660e01b815260040160206040518083038186803b158015610ccf57600080fd5b505afa158015610ce3573d6000803e3d6000fd5b505050506040513d6020811015610cf957600080fd5b810190808051906020019092919050505081600181518110610d1757fe5b602002602001019073ffffffffffffffffffffffffffffffffffffffff16908173ffffffffffffffffffffffffffffffffffffffff16815250508260010183600a015460038110610d6457fe5b0160009054906101000a900473ffffffffffffffffffffffffffffffffffffffff1681600281518110610d9357fe5b602002602001019073ffffffffffffffffffffffffffffffffffffffff16908173ffffffffffffffffffffffffffffffffffffffff16815250508260070160009054906101000a900473ffffffffffffffffffffffffffffffffffffffff1673ffffffffffffffffffffffffffffffffffffffff166338ed1739836000843061070842016040518663ffffffff1660e01b815260040180868152602001858152602001806020018473ffffffffffffffffffffffffffffffffffffffff168152602001838152602001828103825285818151815260200191508051906020019060200280838360005b83811015610e97578082015181840152602081019050610e7c565b505050509050019650505050505050600060405180830381600087803b158015610ec057600080fd5b505af1158015610ed4573d6000803e3d6000fd5b505050506040513d6000823e3d601f19601f820116820180604052506020811015610efe57600080fd5b8101908080516040519392919084640100000000821115610f1e57600080fd5b83820191506020820185811115610f3457600080fd5b8251866020820283011164010000000082111715610f5157600080fd5b8083526020830192505050908051906020019060200280838360005b83811015610f88578082015181840152602081019050610f6d565b505050509050016040525050505060008360010184600a015460038110610fab57fe5b0160009054906101000a900473ffffffffffffffffffffffffffffffffffffffff1673ffffffffffffffffffffffffffffffffffffffff166370a08231306040518263ffffffff1660e01b8152600401808273ffffffffffffffffffffffffffffffffffffffff16815260200191505060206040518083038186803b15801561103357600080fd5b505afa158015611047573d6000803e3d6000fd5b505050506040513d602081101561105d57600080fd5b810190808051906020019092919050505090508360010184600a01546003811061108357fe5b0160009054906101000a900473ffffffffffffffffffffffffffffffffffffffff1673ffffffffffffffffffffffffffffffffffffffff1663a9059cbb8560090160009054906101000a900473ffffffffffffffffffffffffffffffffffffffff16836040518363ffffffff1660e01b8152600401808373ffffffffffffffffffffffffffffffffffffffff16815260200182815260200192505050602060405180830381600087803b15801561113957600080fd5b505af115801561114d573d6000803e3d6000fd5b505050506040513d602081101561116357600080fd5b810190808051906020019092919050505050809550505050505090565b600061118a611551565b90508060090160009054906101000a900473ffffffffffffffffffffffffffffffffffffffff1673ffffffffffffffffffffffffffffffffffffffff163373ffffffffffffffffffffffffffffffffffffffff1614611251576040517f08c379a00000000000000000000000000000000000000000000000000000000081526004018080602001828103825260148152602001807f4f6e6c7920706f6f6c2063616e2063616c6c212100000000000000000000000081525060200191505060405180910390fd5b600061125b611551565b9050611265611919565b838183600a01546003811061127657fe5b6020020181815250508160010182600a01546003811061129257fe5b0160009054906101000a900473ffffffffffffffffffffffffffffffffffffffff1673ffffffffffffffffffffffffffffffffffffffff166323b872dd3330876040518463ffffffff1660e01b8152600401808473ffffffffffffffffffffffffffffffffffffffff1681526020018373ffffffffffffffffffffffffffffffffffffffff1681526020018281526020019350505050602060405180830381600087803b15801561134257600080fd5b505af1158015611356573d6000803e3d6000fd5b505050506040513d602081101561136c57600080fd5b8101908080519060200190929190505050508160010182600a01546003811061139157fe5b0160009054906101000a900473ffffffffffffffffffffffffffffffffffffffff1673ffffffffffffffffffffffffffffffffffffffff1663095ea7b38360060160009054906101000a900473ffffffffffffffffffffffffffffffffffffffff16866040518363ffffffff1660e01b8152600401808373ffffffffffffffffffffffffffffffffffffffff16815260200182815260200192505050602060405180830381600087803b15801561144757600080fd5b505af115801561145b573d6000803e3d6000fd5b505050506040513d602081101561147157600080fd5b8101908080519060200190929190505050508160060160009054906101000a900473ffffffffffffffffffffffffffffffffffffffff1673ffffffffffffffffffffffffffffffffffffffff16634515cef38260006040518363ffffffff1660e01b81526004018083600360200280838360005b838110156115005780820151818401526020810190506114e5565b5050505090500182815260200192505050600060405180830381600087803b15801561152b57600080fd5b505af115801561153f573d6000803e3d6000fd5b5050505061154b61163e565b50505050565b6000807fa506df5f541d029605b005e2b87f8940c5564e1681adf4fd4a0c5e76b5d54ac990508091505090565b600080611589611551565b905060008160080160009054906101000a900473ffffffffffffffffffffffffffffffffffffffff1673ffffffffffffffffffffffffffffffffffffffff16632def66206040518163ffffffff1660e01b8152600401602060405180830381600087803b1580156115f957600080fd5b505af115801561160d573d6000803e3d6000fd5b505050506040513d602081101561162357600080fd5b81019080805190602001909291905050509050809250505090565b6000611648611551565b905060008160050160009054906101000a900473ffffffffffffffffffffffffffffffffffffffff1673ffffffffffffffffffffffffffffffffffffffff166370a08231306040518263ffffffff1660e01b8152600401808273ffffffffffffffffffffffffffffffffffffffff16815260200191505060206040518083038186803b1580156116d757600080fd5b505afa1580156116eb573d6000803e3d6000fd5b505050506040513d602081101561170157600080fd5b810190808051906020019092919050505090508160050160009054906101000a900473ffffffffffffffffffffffffffffffffffffffff1673ffffffffffffffffffffffffffffffffffffffff1663095ea7b38360080160009054906101000a900473ffffffffffffffffffffffffffffffffffffffff16836040518363ffffffff1660e01b8152600401808373ffffffffffffffffffffffffffffffffffffffff16815260200182815260200192505050602060405180830381600087803b1580156117cd57600080fd5b505af11580156117e1573d6000803e3d6000fd5b505050506040513d60208110156117f757600080fd5b8101908080519060200190929190505050508160080160009054906101000a900473ffffffffffffffffffffffffffffffffffffffff1673ffffffffffffffffffffffffffffffffffffffff1663a694fc3a826040518263ffffffff1660e01b815260040180828152602001915050600060405180830381600087803b15801561188057600080fd5b505af1158015611894573d6000803e3d6000fd5b505050505050565b8260038101928215611908579160200282015b828111156119075782518260006101000a81548173ffffffffffffffffffffffffffffffffffffffff021916908373ffffffffffffffffffffffffffffffffffffffff160217905550916020019190600101906118af565b5b509050611915919061193b565b5090565b6040518060600160405280600390602082028036833780820191505090505090565b5b8082111561195457600081600090555060010161193c565b509056fea264697066735822122093264b181e5ee4d75a037610fd41c1205fa4d3adf88e1efbdb7957168273f4e564736f6c63430007060033",
  "immutableReferences": {},
  "source": "// SPDX-License-Identifier: UNLICENSED\r\npragma solidity ^0.7.6;\r\nimport \"../storage/StrategyStorage.sol\";\r\nimport \"../libraries/SafeMath.sol\";\r\n\r\ncontract TriPoolStrategy is StrategyStorageV1 {\r\n    \r\n    using SafeMath for uint256;\r\n    \r\n  \r\n/****MODIFIERS****/\r\n    modifier onlyPool(){\r\n        StrategyStorage storage ss = strategyStorage();\r\n        require(msg.sender == ss.pool, \"Only pool can call!!\");\r\n        _;\r\n    }\r\n    \r\n/****CONSTRUCTOR****/\r\n    function initialize(\r\n        CurvePool _curvePool,\r\n        IERC20 _curvePoolToken,\r\n        IERC20 _crvToken, \r\n        IERC20[3] memory _coins,\r\n        UniswapV2Router _uniswapRouter,\r\n        address _pool,\r\n        Controller _controller,\r\n        uint256 _coinIndex\r\n    ) public{\r\n        StrategyStorage storage ss = strategyStorage();\r\n        require(!ss.initialized, 'Already initialized');\r\n        ss.curvePool = _curvePool;\r\n        ss.curvePoolToken = _curvePoolToken;\r\n        ss.crvToken = _crvToken;\r\n        ss.coins = _coins;\r\n        ss.uniswapRouter = _uniswapRouter; \r\n        ss.pool = _pool;\r\n        ss.controller = _controller;\r\n        ss.coinIndex = _coinIndex;\r\n        ss.initialized = true;\r\n    }\r\n\r\n/****POOL FUNCTIONS****/\r\n    \r\n    function deposit(uint256 amount) external onlyPool(){\r\n        StrategyStorage storage ss = strategyStorage();\r\n        uint256[3] memory amountArray;\r\n        amountArray[ss.coinIndex] = amount;\r\n        ss.coins[ss.coinIndex].transferFrom(msg.sender, address(this), amount);\r\n        ss.coins[ss.coinIndex].approve(address(ss.curvePool), amount);\r\n        ss.curvePool.add_liquidity(amountArray, 0);\r\n        stakeOnController();\r\n    }\r\n    \r\n    function withdraw(uint256 amount) external onlyPool(){\r\n        StrategyStorage storage ss = strategyStorage();\r\n        uint256[3] memory amountArray;\r\n        amountArray[ss.coinIndex] = amount;\r\n        uint256 unstakedAmount = unstakeFromController();\r\n        ss.curvePool.remove_liquidity_imbalance(amountArray, unstakedAmount);\r\n        ss.coins[ss.coinIndex].transfer(ss.pool, ss.coins[ss.coinIndex].balanceOf(address(this)));\r\n        stakeOnController();\r\n    }\r\n\r\n    function claimAndConvertCRV() external onlyPool() returns(uint256) {\r\n        StrategyStorage storage ss = strategyStorage();\r\n        ss.controller.claimCRV();\r\n        uint256 claimedAmount = ss.crvToken.balanceOf(address(this));\r\n        require(claimedAmount > 0, \"Nothing to claim\");\r\n        ss.crvToken.approve(address(ss.uniswapRouter), claimedAmount);\r\n        address[] memory path = new address[](3);\r\n        path[0] = address(ss.crvToken);\r\n        path[1] = ss.uniswapRouter.WETH();\r\n        path[2] = address(ss.coins[ss.coinIndex]);\r\n        \r\n        ss.uniswapRouter.swapExactTokensForTokens(\r\n            claimedAmount, \r\n            uint256(0), \r\n            path, \r\n            address(this), \r\n            block.timestamp + 1800\r\n        );\r\n        uint256 tokenReceived = ss.coins[ss.coinIndex].balanceOf(address(this));\r\n        ss.coins[ss.coinIndex].transfer(ss.pool, tokenReceived);\r\n        return tokenReceived;\r\n    }\r\n    \r\n/****INTERNAL FUNCTIONS****/\r\n\r\n    function stakeOnController() internal {\r\n        StrategyStorage storage ss = strategyStorage();\r\n        uint256 stakeAmount = ss.curvePoolToken.balanceOf(address(this)) ;\r\n        ss.curvePoolToken.approve(address(ss.controller), stakeAmount);\r\n        ss.controller.stake(stakeAmount);  \r\n    }\r\n\r\n    function unstakeFromController() internal returns(uint256){\r\n        StrategyStorage storage ss = strategyStorage();\r\n        uint256 unstakedAmount = ss.controller.unstake();\r\n        return unstakedAmount;\r\n    }\r\n\r\n}",
  "sourcePath": "E:/New Desktop/Projects/AdvancedPool/Strategy/contracts/facets/TripoolStrategy.sol",
  "compiler": {
    "name": "solc",
    "version": "0.7.6+commit.7338295f.Emscripten.clang"
  },
  "schemaVersion": "3.3.2",
  "updatedAt": "2021-05-12T10:07:46.718Z",
  "devdoc": {
    "kind": "dev",
    "methods": {},
    "version": 1
  },
  "userdoc": {
    "kind": "user",
    "methods": {},
    "version": 1
  }
}