{
  "contractName": "AdvancedPool",
  "abi": [
    {
      "anonymous": false,
      "inputs": [
        {
          "indexed": false,
          "internalType": "address",
          "name": "user",
          "type": "address"
        },
        {
          "indexed": false,
          "internalType": "address",
          "name": "pool",
          "type": "address"
        },
        {
          "indexed": false,
          "internalType": "address",
          "name": "coin",
          "type": "address"
        },
        {
          "indexed": false,
          "internalType": "uint256",
          "name": "amount",
          "type": "uint256"
        }
      ],
      "name": "poolDeposit",
      "type": "event"
    },
    {
      "anonymous": false,
      "inputs": [
        {
          "indexed": false,
          "internalType": "address",
          "name": "user",
          "type": "address"
        },
        {
          "indexed": false,
          "internalType": "address",
          "name": "pool",
          "type": "address"
        },
        {
          "indexed": false,
          "internalType": "address",
          "name": "coin",
          "type": "address"
        },
        {
          "indexed": false,
          "internalType": "uint256",
          "name": "amount",
          "type": "uint256"
        }
      ],
      "name": "poolWithdrawal",
      "type": "event"
    },
    {
      "anonymous": false,
      "inputs": [
        {
          "indexed": false,
          "internalType": "address",
          "name": "user",
          "type": "address"
        },
        {
          "indexed": false,
          "internalType": "uint256",
          "name": "amount",
          "type": "uint256"
        }
      ],
      "name": "userDeposits",
      "type": "event"
    },
    {
      "anonymous": false,
      "inputs": [
        {
          "indexed": false,
          "internalType": "address",
          "name": "user",
          "type": "address"
        },
        {
          "indexed": false,
          "internalType": "uint256",
          "name": "amount",
          "type": "uint256"
        }
      ],
      "name": "userWithdrawal",
      "type": "event"
    },
    {
      "inputs": [
        {
          "internalType": "contract IERC20",
          "name": "_coin",
          "type": "address"
        },
        {
          "internalType": "contract IERC20",
          "name": "_poolToken",
          "type": "address"
        },
        {
          "internalType": "uint256",
          "name": "_minLiquidity",
          "type": "uint256"
        },
        {
          "internalType": "uint256",
          "name": "_maxLiquidity",
          "type": "uint256"
        },
        {
          "internalType": "uint256",
          "name": "_withdrawFees",
          "type": "uint256"
        },
        {
          "internalType": "uint256",
          "name": "_depositFees",
          "type": "uint256"
        },
        {
          "internalType": "contract DepositStrategy",
          "name": "_depositStrategy",
          "type": "address"
        },
        {
          "internalType": "uint256",
          "name": "_maxWithdrawalAllowed",
          "type": "uint256"
        }
      ],
      "name": "initialize",
      "outputs": [],
      "stateMutability": "nonpayable",
      "type": "function"
    },
    {
      "inputs": [
        {
          "internalType": "uint256",
          "name": "amount",
          "type": "uint256"
        }
      ],
      "name": "stake",
      "outputs": [
        {
          "internalType": "uint256",
          "name": "",
          "type": "uint256"
        }
      ],
      "stateMutability": "nonpayable",
      "type": "function"
    },
    {
      "inputs": [
        {
          "internalType": "uint256",
          "name": "amount",
          "type": "uint256"
        }
      ],
      "name": "unStake",
      "outputs": [
        {
          "internalType": "uint256",
          "name": "",
          "type": "uint256"
        }
      ],
      "stateMutability": "nonpayable",
      "type": "function"
    },
    {
      "inputs": [
        {
          "internalType": "uint256",
          "name": "_minLiquidity",
          "type": "uint256"
        },
        {
          "internalType": "uint256",
          "name": "_maxLiquidity",
          "type": "uint256"
        },
        {
          "internalType": "uint256",
          "name": "_maxWithdrawalAllowed",
          "type": "uint256"
        }
      ],
      "name": "updateLiquidityParam",
      "outputs": [
        {
          "internalType": "bool",
          "name": "",
          "type": "bool"
        }
      ],
      "stateMutability": "nonpayable",
      "type": "function"
    },
    {
      "inputs": [
        {
          "internalType": "uint256",
          "name": "_depositFees",
          "type": "uint256"
        },
        {
          "internalType": "uint256",
          "name": "_withdrawFees",
          "type": "uint256"
        }
      ],
      "name": "updateFees",
      "outputs": [
        {
          "internalType": "bool",
          "name": "",
          "type": "bool"
        }
      ],
      "stateMutability": "nonpayable",
      "type": "function"
    },
    {
      "inputs": [],
      "name": "changeLockStatus",
      "outputs": [
        {
          "internalType": "bool",
          "name": "",
          "type": "bool"
        }
      ],
      "stateMutability": "nonpayable",
      "type": "function"
    },
    {
      "inputs": [
        {
          "internalType": "address",
          "name": "newOwner",
          "type": "address"
        }
      ],
      "name": "updateOwner",
      "outputs": [
        {
          "internalType": "bool",
          "name": "",
          "type": "bool"
        }
      ],
      "stateMutability": "nonpayable",
      "type": "function"
    },
    {
      "inputs": [],
      "name": "addToStrategy",
      "outputs": [
        {
          "internalType": "uint256",
          "name": "",
          "type": "uint256"
        }
      ],
      "stateMutability": "nonpayable",
      "type": "function"
    },
    {
      "inputs": [],
      "name": "removeFromPool",
      "outputs": [
        {
          "internalType": "uint256",
          "name": "",
          "type": "uint256"
        }
      ],
      "stateMutability": "nonpayable",
      "type": "function"
    },
    {
      "inputs": [
        {
          "internalType": "uint256",
          "name": "amountOfStableCoins",
          "type": "uint256"
        }
      ],
      "name": "calculatePoolTokens",
      "outputs": [
        {
          "internalType": "uint256",
          "name": "",
          "type": "uint256"
        }
      ],
      "stateMutability": "view",
      "type": "function"
    },
    {
      "inputs": [],
      "name": "stableCoinPrice",
      "outputs": [
        {
          "internalType": "uint256",
          "name": "",
          "type": "uint256"
        }
      ],
      "stateMutability": "view",
      "type": "function"
    },
    {
      "inputs": [
        {
          "internalType": "uint256",
          "name": "amountOfPoolToken",
          "type": "uint256"
        }
      ],
      "name": "calculateStableCoins",
      "outputs": [
        {
          "internalType": "uint256",
          "name": "",
          "type": "uint256"
        }
      ],
      "stateMutability": "view",
      "type": "function"
    },
    {
      "inputs": [],
      "name": "poolTokenPrice",
      "outputs": [
        {
          "internalType": "uint256",
          "name": "",
          "type": "uint256"
        }
      ],
      "stateMutability": "view",
      "type": "function"
    },
    {
      "inputs": [],
      "name": "maxBurnAllowed",
      "outputs": [
        {
          "internalType": "uint256",
          "name": "",
          "type": "uint256"
        }
      ],
      "stateMutability": "view",
      "type": "function"
    },
    {
      "inputs": [],
      "name": "feesCollected",
      "outputs": [
        {
          "internalType": "uint256",
          "name": "",
          "type": "uint256"
        }
      ],
      "stateMutability": "view",
      "type": "function"
    },
    {
      "inputs": [],
      "name": "currentLiquidity",
      "outputs": [
        {
          "internalType": "uint256",
          "name": "",
          "type": "uint256"
        }
      ],
      "stateMutability": "view",
      "type": "function"
    },
    {
      "inputs": [],
      "name": "idealAmount",
      "outputs": [
        {
          "internalType": "uint256",
          "name": "",
          "type": "uint256"
        }
      ],
      "stateMutability": "view",
      "type": "function"
    },
    {
      "inputs": [],
      "name": "maxLiquidityAllowedInPool",
      "outputs": [
        {
          "internalType": "uint256",
          "name": "",
          "type": "uint256"
        }
      ],
      "stateMutability": "view",
      "type": "function"
    },
    {
      "inputs": [],
      "name": "amountToDeposit",
      "outputs": [
        {
          "internalType": "uint256",
          "name": "",
          "type": "uint256"
        }
      ],
      "stateMutability": "view",
      "type": "function"
    },
    {
      "inputs": [],
      "name": "minLiquidityToMaintainInPool",
      "outputs": [
        {
          "internalType": "uint256",
          "name": "",
          "type": "uint256"
        }
      ],
      "stateMutability": "view",
      "type": "function"
    },
    {
      "inputs": [],
      "name": "amountToWithdraw",
      "outputs": [
        {
          "internalType": "uint256",
          "name": "",
          "type": "uint256"
        }
      ],
      "stateMutability": "view",
      "type": "function"
    }
  ],
  "bytecode": "0x608060405234801561001057600080fd5b50612788806100206000396000f3fe608060405234801561001057600080fd5b50600436106101375760003560e01c80638a98cdd4116100b8578063cc4a61141161007c578063cc4a611414610368578063d395fbc514610386578063e4255342146103a4578063f071db5a146103c2578063fb60946d146103e0578063fe135c0e1461041057610137565b80638a98cdd41461029c5780639d21a0be146102cc578063a694fc3a146102ea578063b4ad5e081461031a578063c3c9f52b1461033857610137565b80635b404bad116100ff5780635b404bad146101d05780635d3eea91146101ee5780636db794371461021e5780637260cc761461024e578063880cdc311461026c57610137565b8063077622a21461013c5780632237f97a1461015a578063269fa1281461017657806329093c691461019457806346caf2ae146101b2575b600080fd5b61014461042e565b6040516101519190612611565b60405180910390f35b610174600480360381019061016f9190612056565b610462565b005b61017e61062c565b60405161018b9190612611565b60405180910390f35b61019c61069a565b6040516101a99190612611565b60405180910390f35b6101ba610966565b6040516101c79190612611565b60405180910390f35b6101d8610984565b6040516101e59190612611565b60405180910390f35b61020860048036038101906102039190612108565b610c49565b6040516102159190612611565b60405180910390f35b6102386004803603810190610233919061215a565b611024565b6040516102459190612516565b60405180910390f35b61025661114c565b6040516102639190612611565b60405180910390f35b61028660048036038101906102819190612004565b611177565b6040516102939190612516565b60405180910390f35b6102b660048036038101906102b19190612108565b611270565b6040516102c39190612611565b60405180910390f35b6102d461133c565b6040516102e19190612611565b60405180910390f35b61030460048036038101906102ff9190612108565b611532565b6040516103119190612611565b60405180910390f35b61032261177c565b60405161032f9190612611565b60405180910390f35b610352600480360381019061034d9190612108565b6117a7565b60405161035f9190612611565b60405180910390f35b610370611870565b60405161037d9190612611565b60405180910390f35b61038e611890565b60405161039b9190612516565b60405180910390f35b6103ac611982565b6040516103b99190612611565b60405180910390f35b6103ca611c47565b6040516103d79190612611565b60405180910390f35b6103fa60048036038101906103f59190612196565b611c5f565b6040516104079190612516565b60405180910390f35b610418611d91565b6040516104259190612611565b60405180910390f35b600080610439611dc7565b9050806003015460020281600701548260060154018260090154028161045b57fe5b0491505090565b600061046c611dc7565b90508060000160009054906101000a900460ff16156104c0576040517f08c379a00000000000000000000000000000000000000000000000000000000081526004016104b7906125f1565b60405180910390fd5b3381600d0160016101000a81548173ffffffffffffffffffffffffffffffffffffffff021916908373ffffffffffffffffffffffffffffffffffffffff1602179055506127108160030181905550888160000160016101000a81548173ffffffffffffffffffffffffffffffffffffffff021916908373ffffffffffffffffffffffffffffffffffffffff160217905550878160010160006101000a81548173ffffffffffffffffffffffffffffffffffffffff021916908373ffffffffffffffffffffffffffffffffffffffff160217905550868160060181905550858160070181905550848160050181905550838160040181905550828160020160006101000a81548173ffffffffffffffffffffffffffffffffffffffff021916908373ffffffffffffffffffffffffffffffffffffffff1602179055508181600c018190555060018160000160006101000a81548160ff021916908315150217905550505050505050505050565b600080610637611dc7565b905061064161114c565b610649610966565b11806106595750600081600b0154145b806106775750610667610966565b61066f61042e565b0381600b0154105b61069157610683610966565b61068b61042e565b03610694565b60005b91505090565b6000806106a5611dc7565b905080600d0160009054906101000a900460ff16156106f9576040517f08c379a00000000000000000000000000000000000000000000000000000000081526004016106f0906125d1565b60405180910390fd5b6000610703611dc7565b9050600061070f611d91565b905060008111610754576040517f08c379a000000000000000000000000000000000000000000000000000000000815260040161074b90612531565b60405180910390fd5b61076b8183600b0154611df490919063ffffffff16565b82600b01819055508160000160019054906101000a900473ffffffffffffffffffffffffffffffffffffffff1673ffffffffffffffffffffffffffffffffffffffff1663095ea7b38360020160009054906101000a900473ffffffffffffffffffffffffffffffffffffffff16836040518363ffffffff1660e01b81526004016107f69291906124ed565b602060405180830381600087803b15801561081057600080fd5b505af1158015610824573d6000803e3d6000fd5b505050506040513d601f19601f82011682018060405250810190610848919061202d565b508160020160009054906101000a900473ffffffffffffffffffffffffffffffffffffffff1673ffffffffffffffffffffffffffffffffffffffff1663b6b55f25826040518263ffffffff1660e01b81526004016108a69190612611565b600060405180830381600087803b1580156108c057600080fd5b505af11580156108d4573d6000803e3d6000fd5b505050507f8a3c46035b966898b4542598f6680f7d7644bad07f874b70c3e034f33c7a78ff338360020160009054906101000a900473ffffffffffffffffffffffffffffffffffffffff168460000160019054906101000a900473ffffffffffffffffffffffffffffffffffffffff16846040516109559493929190612448565b60405180910390a180935050505090565b600080610971611dc7565b905080600b015481600901540391505090565b60008061098f611dc7565b905060008160010160009054906101000a900473ffffffffffffffffffffffffffffffffffffffff1673ffffffffffffffffffffffffffffffffffffffff166318160ddd6040518163ffffffff1660e01b815260040160206040518083038186803b1580156109fd57600080fd5b505afa158015610a11573d6000803e3d6000fd5b505050506040513d601f19601f82011682018060405250810190610a359190612131565b1480610a45575060008160090154145b610ba05780600901548160010160009054906101000a900473ffffffffffffffffffffffffffffffffffffffff1673ffffffffffffffffffffffffffffffffffffffff166318160ddd6040518163ffffffff1660e01b815260040160206040518083038186803b158015610ab857600080fd5b505afa158015610acc573d6000803e3d6000fd5b505050506040513d601f19601f82011682018060405250810190610af09190612131565b8260000160019054906101000a900473ffffffffffffffffffffffffffffffffffffffff1673ffffffffffffffffffffffffffffffffffffffff1663313ce5676040518163ffffffff1660e01b815260040160206040518083038186803b158015610b5a57600080fd5b505afa158015610b6e573d6000803e3d6000fd5b505050506040513d601f19601f82011682018060405250810190610b929190612131565b0281610b9a57fe5b04610c43565b8060000160019054906101000a900473ffffffffffffffffffffffffffffffffffffffff1673ffffffffffffffffffffffffffffffffffffffff1663313ce5676040518163ffffffff1660e01b815260040160206040518083038186803b158015610c0a57600080fd5b505afa158015610c1e573d6000803e3d6000fd5b505050506040513d601f19601f82011682018060405250810190610c429190612131565b5b91505090565b600080610c54611dc7565b905080600d0160009054906101000a900460ff1615610ca8576040517f08c379a0000000000000000000000000000000000000000000000000000000008152600401610c9f906125d1565b60405180910390fd5b6000610cb2611dc7565b90508060010160009054906101000a900473ffffffffffffffffffffffffffffffffffffffff1673ffffffffffffffffffffffffffffffffffffffff166370a08231336040518263ffffffff1660e01b8152600401610d11919061242d565b60206040518083038186803b158015610d2957600080fd5b505afa158015610d3d573d6000803e3d6000fd5b505050506040513d601f19601f82011682018060405250810190610d619190612131565b841115610da3576040517f08c379a0000000000000000000000000000000000000000000000000000000008152600401610d9a906125b1565b60405180910390fd5b610dab611870565b841115610ded576040517f08c379a0000000000000000000000000000000000000000000000000000000008152600401610de490612591565b60405180910390fd5b610df561114c565b8482600b0154836009015403031015610e43576040517f08c379a0000000000000000000000000000000000000000000000000000000008152600401610e3a90612591565b60405180910390fd5b6000610e4e85611270565b9050600082600301548360050154830281610e6557fe5b0490508083600a01540183600a0181905550610e908183038460090154611e7c90919063ffffffff16565b83600901819055508260000160019054906101000a900473ffffffffffffffffffffffffffffffffffffffff1673ffffffffffffffffffffffffffffffffffffffff1663a9059cbb338385036040518363ffffffff1660e01b8152600401610ef99291906124c4565b602060405180830381600087803b158015610f1357600080fd5b505af1158015610f27573d6000803e3d6000fd5b505050506040513d601f19601f82011682018060405250810190610f4b919061202d565b508260010160009054906101000a900473ffffffffffffffffffffffffffffffffffffffff1673ffffffffffffffffffffffffffffffffffffffff16639dc29fac33886040518363ffffffff1660e01b8152600401610fab9291906124c4565b600060405180830381600087803b158015610fc557600080fd5b505af1158015610fd9573d6000803e3d6000fd5b505050507f42b2a4ad2d4bdf57e819ccd3c6ce6d0a8d6d20b5d3dbf94ef2b05c42f523c610338760405161100e9291906124c4565b60405180910390a1808203945050505050919050565b60008061102f611dc7565b90503373ffffffffffffffffffffffffffffffffffffffff1681600d0160019054906101000a900473ffffffffffffffffffffffffffffffffffffffff1673ffffffffffffffffffffffffffffffffffffffff16146110c3576040517f08c379a00000000000000000000000000000000000000000000000000000000081526004016110ba90612551565b60405180910390fd5b60006110cd611dc7565b905080600d0160009054906101000a900460ff1615611121576040517f08c379a0000000000000000000000000000000000000000000000000000000008152600401611118906125d1565b60405180910390fd5b600061112b611dc7565b90508481600501819055508581600401819055506001935050505092915050565b600080611157611dc7565b9050806003015481600601548260090154028161117057fe5b0491505090565b600080611182611dc7565b90503373ffffffffffffffffffffffffffffffffffffffff1681600d0160019054906101000a900473ffffffffffffffffffffffffffffffffffffffff1673ffffffffffffffffffffffffffffffffffffffff1614611216576040517f08c379a000000000000000000000000000000000000000000000000000000000815260040161120d90612551565b60405180910390fd5b6000611220611dc7565b90508381600d0160016101000a81548173ffffffffffffffffffffffffffffffffffffffff021916908373ffffffffffffffffffffffffffffffffffffffff160217905550600192505050919050565b60008061127b611dc7565b90508060000160019054906101000a900473ffffffffffffffffffffffffffffffffffffffff1673ffffffffffffffffffffffffffffffffffffffff1663313ce5676040518163ffffffff1660e01b815260040160206040518083038186803b1580156112e757600080fd5b505afa1580156112fb573d6000803e3d6000fd5b505050506040513d601f19601f8201168201806040525081019061131f9190612131565b611327611982565b84028161133057fe5b04925082915050919050565b600080611347611dc7565b905080600d0160009054906101000a900460ff161561139b576040517f08c379a0000000000000000000000000000000000000000000000000000000008152600401611392906125d1565b60405180910390fd5b60006113a5611dc7565b905060006113b161062c565b9050600081116113f6576040517f08c379a00000000000000000000000000000000000000000000000000000000081526004016113ed90612571565b60405180910390fd5b61140d8183600b0154611e7c90919063ffffffff16565b82600b01819055508160020160009054906101000a900473ffffffffffffffffffffffffffffffffffffffff1673ffffffffffffffffffffffffffffffffffffffff16632e1a7d4d826040518263ffffffff1660e01b81526004016114729190612611565b600060405180830381600087803b15801561148c57600080fd5b505af11580156114a0573d6000803e3d6000fd5b505050507f2441be9fc17408ea9902cf641305826f3b04cff339db1e0df3e9849d9bbd2e82338360020160009054906101000a900473ffffffffffffffffffffffffffffffffffffffff168460000160019054906101000a900473ffffffffffffffffffffffffffffffffffffffff16846040516115219493929190612448565b60405180910390a180935050505090565b60008061153d611dc7565b905080600d0160009054906101000a900460ff1615611591576040517f08c379a0000000000000000000000000000000000000000000000000000000008152600401611588906125d1565b60405180910390fd5b600061159b611dc7565b90506000816003015482600401548602816115b257fe5b0490508082600a01540182600a01819055506115db858360090154611df490919063ffffffff16565b826009018190555060006115f08287036117a7565b90508260000160019054906101000a900473ffffffffffffffffffffffffffffffffffffffff1673ffffffffffffffffffffffffffffffffffffffff166323b872dd3330896040518463ffffffff1660e01b81526004016116539392919061248d565b602060405180830381600087803b15801561166d57600080fd5b505af1158015611681573d6000803e3d6000fd5b505050506040513d601f19601f820116820180604052508101906116a5919061202d565b508260010160009054906101000a900473ffffffffffffffffffffffffffffffffffffffff1673ffffffffffffffffffffffffffffffffffffffff166340c10f1933836040518363ffffffff1660e01b81526004016117059291906124c4565b600060405180830381600087803b15801561171f57600080fd5b505af1158015611733573d6000803e3d6000fd5b505050507f08f43333671aca8015183efb2197dac68519c827a11e6788eac8c80131169a6433876040516117689291906124c4565b60405180910390a180945050505050919050565b600080611787611dc7565b905080600301548160070154826009015402816117a057fe5b0491505090565b6000806117b2611dc7565b90508060000160019054906101000a900473ffffffffffffffffffffffffffffffffffffffff1673ffffffffffffffffffffffffffffffffffffffff1663313ce5676040518163ffffffff1660e01b815260040160206040518083038186803b15801561181e57600080fd5b505afa158015611832573d6000803e3d6000fd5b505050506040513d601f19601f820116820180604052508101906118569190612131565b61185e610984565b84028161186757fe5b04915050919050565b60008061187b611dc7565b905061188a81600c01546117a7565b91505090565b60008061189b611dc7565b90503373ffffffffffffffffffffffffffffffffffffffff1681600d0160019054906101000a900473ffffffffffffffffffffffffffffffffffffffff1673ffffffffffffffffffffffffffffffffffffffff161461192f576040517f08c379a000000000000000000000000000000000000000000000000000000000815260040161192690612551565b60405180910390fd5b6000611939611dc7565b905080600d0160009054906101000a900460ff161581600d0160006101000a81548160ff02191690831515021790555080600d0160009054906101000a900460ff169250505090565b60008061198d611dc7565b905060008160010160009054906101000a900473ffffffffffffffffffffffffffffffffffffffff1673ffffffffffffffffffffffffffffffffffffffff166318160ddd6040518163ffffffff1660e01b815260040160206040518083038186803b1580156119fb57600080fd5b505afa158015611a0f573d6000803e3d6000fd5b505050506040513d601f19601f82011682018060405250810190611a339190612131565b1480611a43575060008160090154145b611b9e578060010160009054906101000a900473ffffffffffffffffffffffffffffffffffffffff1673ffffffffffffffffffffffffffffffffffffffff166318160ddd6040518163ffffffff1660e01b815260040160206040518083038186803b158015611ab157600080fd5b505afa158015611ac5573d6000803e3d6000fd5b505050506040513d601f19601f82011682018060405250810190611ae99190612131565b81600901548260010160009054906101000a900473ffffffffffffffffffffffffffffffffffffffff1673ffffffffffffffffffffffffffffffffffffffff1663313ce5676040518163ffffffff1660e01b815260040160206040518083038186803b158015611b5857600080fd5b505afa158015611b6c573d6000803e3d6000fd5b505050506040513d601f19601f82011682018060405250810190611b909190612131565b0281611b9857fe5b04611c41565b8060010160009054906101000a900473ffffffffffffffffffffffffffffffffffffffff1673ffffffffffffffffffffffffffffffffffffffff1663313ce5676040518163ffffffff1660e01b815260040160206040518083038186803b158015611c0857600080fd5b505afa158015611c1c573d6000803e3d6000fd5b505050506040513d601f19601f82011682018060405250810190611c409190612131565b5b91505090565b600080611c52611dc7565b905080600a015491505090565b600080611c6a611dc7565b90503373ffffffffffffffffffffffffffffffffffffffff1681600d0160019054906101000a900473ffffffffffffffffffffffffffffffffffffffff1673ffffffffffffffffffffffffffffffffffffffff1614611cfe576040517f08c379a0000000000000000000000000000000000000000000000000000000008152600401611cf590612551565b60405180910390fd5b6000611d08611dc7565b905080600d0160009054906101000a900460ff1615611d5c576040517f08c379a0000000000000000000000000000000000000000000000000000000008152600401611d53906125d1565b60405180910390fd5b6000611d66611dc7565b90508681600601819055508581600701819055508481600c0181905550600193505050509392505050565b6000611d9b61177c565b611da3610966565b1115611dbf57611db161042e565b611db9610966565b03611dc2565b60005b905090565b6000807f6c2f2617da7540533aede37184df9fe8d14d2f091e9a392f2685af4b9851d17290508091505090565b600080828401905083811015611e72576040517f08c379a000000000000000000000000000000000000000000000000000000000815260040180806020018281038252601b8152602001807f536166654d6174683a206164646974696f6e206f766572666c6f77000000000081525060200191505060405180910390fd5b8091505092915050565b6000611ebe83836040518060400160405280601f81526020017f536166654d6174683a207375627472616374696f6e20756e646572666c6f7700815250611ec6565b905092915050565b6000838311158290611f73576040517f08c379a00000000000000000000000000000000000000000000000000000000081526004018080602001828103825283818151815260200191508051906020019080838360005b83811015611f38578082015181840152602081019050611f1d565b50505050905090810190601f168015611f655780820380516001836020036101000a031916815260200191505b509250505060405180910390fd5b5060008385039050809150509392505050565b600081359050611f95816126df565b92915050565b600081519050611faa816126f6565b92915050565b600081359050611fbf8161270d565b92915050565b600081359050611fd481612724565b92915050565b600081359050611fe98161273b565b92915050565b600081519050611ffe8161273b565b92915050565b60006020828403121561201657600080fd5b600061202484828501611f86565b91505092915050565b60006020828403121561203f57600080fd5b600061204d84828501611f9b565b91505092915050565b600080600080600080600080610100898b03121561207357600080fd5b60006120818b828c01611fc5565b98505060206120928b828c01611fc5565b97505060406120a38b828c01611fda565b96505060606120b48b828c01611fda565b95505060806120c58b828c01611fda565b94505060a06120d68b828c01611fda565b93505060c06120e78b828c01611fb0565b92505060e06120f88b828c01611fda565b9150509295985092959890939650565b60006020828403121561211a57600080fd5b600061212884828501611fda565b91505092915050565b60006020828403121561214357600080fd5b600061215184828501611fef565b91505092915050565b6000806040838503121561216d57600080fd5b600061217b85828601611fda565b925050602061218c85828601611fda565b9150509250929050565b6000806000606084860312156121ab57600080fd5b60006121b986828701611fda565b93505060206121ca86828701611fda565b92505060406121db86828701611fda565b9150509250925092565b6121ee816126a9565b82525050565b6121fd8161263d565b82525050565b61220c8161264f565b82525050565b600061221f60128361262c565b91507f4e6f7468696e6720746f206465706f73697400000000000000000000000000006000830152602082019050919050565b600061225f60158361262c565b91507f4f6e6c792061646d696e2063616e2063616c6c212100000000000000000000006000830152602082019050919050565b600061229f60138361262c565b91507f4e6f7468696e6720746f207769746864726177000000000000000000000000006000830152602082019050919050565b60006122df60298361262c565b91507f446f6e74206861766520656e6f7567682066756e642c20506c6561736520747260008301527f79206c61746572212100000000000000000000000000000000000000000000006020830152604082019050919050565b600061234560218361262c565b91507f596f7520646f6e74206861766520656e6f75676820706f6f6c20746f6b656e2160008301527f21000000000000000000000000000000000000000000000000000000000000006020830152604082019050919050565b60006123ab60128361262c565b91507f636f6e7472616374206973206c6f636b656400000000000000000000000000006000830152602082019050919050565b60006123eb60138361262c565b91507f416c726561647920696e697469616c697a6564000000000000000000000000006000830152602082019050919050565b6124278161269f565b82525050565b600060208201905061244260008301846121e5565b92915050565b600060808201905061245d60008301876121e5565b61246a60208301866121f4565b61247760408301856121f4565b612484606083018461241e565b95945050505050565b60006060820190506124a260008301866121e5565b6124af60208301856121f4565b6124bc604083018461241e565b949350505050565b60006040820190506124d960008301856121e5565b6124e6602083018461241e565b9392505050565b600060408201905061250260008301856121f4565b61250f602083018461241e565b9392505050565b600060208201905061252b6000830184612203565b92915050565b6000602082019050818103600083015261254a81612212565b9050919050565b6000602082019050818103600083015261256a81612252565b9050919050565b6000602082019050818103600083015261258a81612292565b9050919050565b600060208201905081810360008301526125aa816122d2565b9050919050565b600060208201905081810360008301526125ca81612338565b9050919050565b600060208201905081810360008301526125ea8161239e565b9050919050565b6000602082019050818103600083015261260a816123de565b9050919050565b6000602082019050612626600083018461241e565b92915050565b600082825260208201905092915050565b60006126488261267f565b9050919050565b60008115159050919050565b60006126668261263d565b9050919050565b60006126788261263d565b9050919050565b600073ffffffffffffffffffffffffffffffffffffffff82169050919050565b6000819050919050565b60006126b4826126bb565b9050919050565b60006126c6826126cd565b9050919050565b60006126d88261267f565b9050919050565b6126e88161263d565b81146126f357600080fd5b50565b6126ff8161264f565b811461270a57600080fd5b50565b6127168161265b565b811461272157600080fd5b50565b61272d8161266d565b811461273857600080fd5b50565b6127448161269f565b811461274f57600080fd5b5056fea264697066735822122052cc88d55fa1c9753196a0496dd57f424022ea8993d25f46ab590694e83f71a864736f6c63430007060033",
  "immutableReferences": {},
  "source": "// SPDX-License-Identifier: UNLICENSED\r\npragma solidity ^0.7.6;\r\npragma experimental ABIEncoderV2;\r\nimport \"../storage/PoolStorage.sol\";\r\ncontract AdvancedPool is PoolStorageV1 {\r\n    \r\n/****VARIABLES*****/\r\n    using SafeMath for uint256;\r\n   \r\n\r\n/****MODIFIERS*****/\r\n    \r\n    modifier onlyOnwer(){\r\n        PoolStorage storage ps = poolStorage();\r\n        require(ps.owner == msg.sender, \"Only admin can call!!\");\r\n        _;\r\n    }\r\n    modifier notLocked {\r\n        PoolStorage storage ps = poolStorage();\r\n        require(!ps.locked, \"contract is locked\");\r\n        _;\r\n    }\r\n  \r\n/****EVENTS****/ \r\n    event userDeposits(address user,uint amount);\r\n    event userWithdrawal(address user,uint amount);\r\n    event poolDeposit(address user, address pool, address coin, uint amount);\r\n    event poolWithdrawal(address user, address pool, address coin, uint amount);\r\n    \r\n/****CONSTRUCTOR****/\r\n    function initialize(\r\n        IERC20 _coin,\r\n        IERC20 _poolToken, \r\n        uint256 _minLiquidity, \r\n        uint256 _maxLiquidity, \r\n        uint256 _withdrawFees, \r\n        uint256 _depositFees,\r\n        DepositStrategy _depositStrategy,\r\n        uint256 _maxWithdrawalAllowed\r\n    ) public {\r\n        PoolStorage storage ps = poolStorage();\r\n        require(!ps.initialized, 'Already initialized');\r\n        ps.owner = msg.sender;\r\n        ps.DENOMINATOR = 10000;\r\n        ps.coin = _coin;\r\n        ps.poolToken = _poolToken;\r\n        ps.minLiquidity = _minLiquidity;\r\n        ps.maxLiquidity = _maxLiquidity;\r\n        ps.withdrawFees = _withdrawFees;\r\n        ps.depositFees = _depositFees;\r\n        ps.depositStrategy = _depositStrategy;\r\n        ps.maxWithdrawalAllowed = _maxWithdrawalAllowed;\r\n        ps.initialized = true;\r\n    }\r\n    \r\n/*****USERS FUNCTIONS****/\r\n    // amount will be in coins precision\r\n    function stake(uint256 amount) external notLocked() returns(uint256){\r\n        PoolStorage storage ps = poolStorage();\r\n        uint256 feeAmount = amount * ps.depositFees / ps.DENOMINATOR;\r\n        ps.feesCollected = ps.feesCollected + feeAmount;\r\n        ps.poolBalance = ps.poolBalance.add(amount);\r\n        uint256 mintAmount = calculatePoolTokens(amount - feeAmount);\r\n        ps.coin.transferFrom(msg.sender, address(this), amount);\r\n        ps.poolToken.mint(msg.sender, mintAmount);\r\n        emit userDeposits(msg.sender,amount);\r\n        return mintAmount;\r\n    }\r\n    \r\n    //amount is the amount of LP token user want to burn\r\n    function unStake(uint256 amount) external notLocked() returns(uint256){\r\n        PoolStorage storage ps = poolStorage();\r\n        require(amount <= ps.poolToken.balanceOf(msg.sender), \"You dont have enough pool token!!\");\r\n        require(amount <= maxBurnAllowed(), \"Dont have enough fund, Please try later!!\");\r\n        require(ps.poolBalance - ps.strategyDeposit - amount >= minLiquidityToMaintainInPool() , \"Dont have enough fund, Please try later!!\");\r\n        uint256 tokenAmount = calculateStableCoins(amount);\r\n        uint256 feeAmount = tokenAmount * ps.withdrawFees/ ps.DENOMINATOR;\r\n        ps.feesCollected = ps.feesCollected + feeAmount;\r\n        ps.poolBalance = ps.poolBalance.sub(tokenAmount - feeAmount);\r\n        ps.coin.transfer(msg.sender, tokenAmount - feeAmount);\r\n        ps.poolToken.burn(msg.sender, amount);  \r\n        emit userWithdrawal(msg.sender,amount);\r\n        return tokenAmount - feeAmount;\r\n    }\r\n    \r\n/****ADMIN FUNCTIONS*****/\r\n    \r\n    function updateLiquidityParam(uint256 _minLiquidity, uint256 _maxLiquidity, uint256 _maxWithdrawalAllowed) external onlyOnwer() notLocked() returns(bool){\r\n        PoolStorage storage ps = poolStorage();\r\n        ps.minLiquidity = _minLiquidity;\r\n        ps.maxLiquidity = _maxLiquidity;\r\n        ps.maxWithdrawalAllowed = _maxWithdrawalAllowed;\r\n        return true;\r\n    }\r\n    \r\n    function updateFees(uint256 _depositFees, uint256 _withdrawFees) external onlyOnwer() notLocked() returns(bool){\r\n        PoolStorage storage ps = poolStorage();\r\n        ps.withdrawFees = _withdrawFees;\r\n        ps.depositFees = _depositFees;\r\n        return true;\r\n    }\r\n    \r\n    function changeLockStatus() external onlyOnwer() returns(bool){\r\n        PoolStorage storage ps = poolStorage();\r\n        ps.locked = !ps.locked;\r\n        return ps.locked;\r\n    }\r\n    \r\n    function updateOwner(address newOwner) external onlyOnwer() returns(bool){\r\n        PoolStorage storage ps = poolStorage();\r\n        ps.owner = newOwner;\r\n        return true;\r\n    } \r\n    \r\n/****POOL FUNCTIONS****/\r\n\r\n    function addToStrategy() external notLocked() returns(uint256){\r\n        PoolStorage storage ps = poolStorage();\r\n        uint256 amount = amountToDeposit();\r\n        require(amount > 0 , \"Nothing to deposit\");\r\n        ps.strategyDeposit = ps.strategyDeposit.add(amount);\r\n        ps.coin.approve(address(ps.depositStrategy), amount);\r\n        ps.depositStrategy.deposit(amount);\r\n        emit poolDeposit(msg.sender, address(ps.depositStrategy), address(ps.coin), amount);\r\n        return amount;\r\n    }\r\n    \r\n    function removeFromPool() external notLocked() returns(uint256){\r\n        PoolStorage storage ps = poolStorage();\r\n        uint256 amount = amountToWithdraw();\r\n        require(amount > 0 , \"Nothing to withdraw\");\r\n        ps.strategyDeposit = ps.strategyDeposit.sub(amount);\r\n        ps.depositStrategy.withdraw(amount);\r\n        emit poolWithdrawal(msg.sender, address(ps.depositStrategy), address(ps.coin),  amount);\r\n        return amount;\r\n    }\r\n    \r\n/****OTHER FUNCTIONS****/\r\n    \r\n    //TOKEN MUST BE SENT IN COINS PRECISION\r\n    function calculatePoolTokens(uint256 amountOfStableCoins) public view returns(uint256){\r\n        PoolStorage storage ps = poolStorage();\r\n        return amountOfStableCoins * stableCoinPrice() / ps.coin.decimals() ;\r\n    }\r\n    \r\n    //Returning in pool token PRECISION\r\n    function stableCoinPrice() public view returns(uint256){\r\n        PoolStorage storage ps = poolStorage();\r\n        return (ps.poolToken.totalSupply() == 0 || ps.poolBalance == 0) ? ps.coin.decimals() : ps.coin.decimals() * ps.poolToken.totalSupply()/ps.poolBalance;\r\n    }\r\n    \r\n       //RETURNING IN COIN PRECISION\r\n    function calculateStableCoins(uint256 amountOfPoolToken) public view returns(uint256){\r\n        PoolStorage storage ps = poolStorage();\r\n        amountOfPoolToken = amountOfPoolToken * poolTokenPrice() / ps.coin.decimals();\r\n        return amountOfPoolToken;\r\n    }\r\n    \r\n    function poolTokenPrice() public view returns(uint256){\r\n        PoolStorage storage ps = poolStorage();\r\n        return (ps.poolToken.totalSupply() == 0 || ps.poolBalance == 0) ? ps.poolToken.decimals() : ps.poolToken.decimals() * ps.poolBalance/ps.poolToken.totalSupply();\r\n    }\r\n    \r\n    \r\n    // returning max number of pool token that can be burnt\r\n    // if min is also less than actual\r\n    function maxBurnAllowed() public view returns(uint256){\r\n        PoolStorage storage ps = poolStorage();\r\n        return calculatePoolTokens(ps.maxWithdrawalAllowed);\r\n    }\r\n    \r\n    function feesCollected() public view returns(uint256){\r\n        PoolStorage storage ps = poolStorage();\r\n        return ps.feesCollected;\r\n    }\r\n\r\n    function currentLiquidity() public view returns(uint256){\r\n        PoolStorage storage ps = poolStorage();\r\n        return ps.poolBalance - ps.strategyDeposit;\r\n    }\r\n   \r\n    function idealAmount() public view returns(uint256){\r\n        PoolStorage storage ps = poolStorage();\r\n        return ps.poolBalance * (ps.minLiquidity + ps.maxLiquidity) / (2 * ps.DENOMINATOR);\r\n    }\r\n     \r\n    function maxLiquidityAllowedInPool() public view returns(uint256){\r\n        PoolStorage storage ps = poolStorage();\r\n        return ps.poolBalance * ps.maxLiquidity / ps.DENOMINATOR;\r\n    }\r\n\r\n    function amountToDeposit() public view returns(uint256){\r\n        return currentLiquidity() <= maxLiquidityAllowedInPool() ? 0 : currentLiquidity() - idealAmount();\r\n    }\r\n    \r\n      \r\n    function minLiquidityToMaintainInPool() public view returns(uint256){\r\n        PoolStorage storage ps = poolStorage();\r\n        return ps.poolBalance * ps.minLiquidity / ps.DENOMINATOR;\r\n    }\r\n   \r\n    function amountToWithdraw() public view returns(uint256){\r\n        PoolStorage storage ps = poolStorage();\r\n        return currentLiquidity() > minLiquidityToMaintainInPool() || ps.strategyDeposit == 0 || ps.strategyDeposit < idealAmount() - currentLiquidity() ? 0 : idealAmount() - currentLiquidity();\r\n    }\r\n    \r\n}",
  "sourcePath": "E:/New Desktop/Projects/AdvancedPool/contracts/facets/AdvancedPool.sol",
  "compiler": {
    "name": "solc",
    "version": "0.7.6+commit.7338295f.Emscripten.clang"
  },
  "schemaVersion": "3.3.2",
  "updatedAt": "2021-04-19T11:03:41.225Z",
  "devdoc": {
    "kind": "dev",
    "methods": {},
    "version": 1
  },
  "userdoc": {
    "kind": "user",
    "methods": {},
    "version": 1
  }
}