{
  "contractName": "AdvancedPool",
  "abi": [
    {
      "anonymous": false,
      "inputs": [
        {
          "indexed": false,
          "internalType": "address",
          "name": "user",
          "type": "address"
        },
        {
          "indexed": false,
          "internalType": "address",
          "name": "pool",
          "type": "address"
        },
        {
          "indexed": false,
          "internalType": "address",
          "name": "coin",
          "type": "address"
        },
        {
          "indexed": false,
          "internalType": "uint256",
          "name": "amount",
          "type": "uint256"
        }
      ],
      "name": "poolDeposit",
      "type": "event"
    },
    {
      "anonymous": false,
      "inputs": [
        {
          "indexed": false,
          "internalType": "address",
          "name": "user",
          "type": "address"
        },
        {
          "indexed": false,
          "internalType": "address",
          "name": "pool",
          "type": "address"
        },
        {
          "indexed": false,
          "internalType": "address",
          "name": "coin",
          "type": "address"
        },
        {
          "indexed": false,
          "internalType": "uint256",
          "name": "amount",
          "type": "uint256"
        }
      ],
      "name": "poolWithdrawal",
      "type": "event"
    },
    {
      "anonymous": false,
      "inputs": [
        {
          "indexed": false,
          "internalType": "address",
          "name": "user",
          "type": "address"
        },
        {
          "indexed": false,
          "internalType": "uint256",
          "name": "amount",
          "type": "uint256"
        }
      ],
      "name": "userDeposits",
      "type": "event"
    },
    {
      "anonymous": false,
      "inputs": [
        {
          "indexed": false,
          "internalType": "address",
          "name": "user",
          "type": "address"
        },
        {
          "indexed": false,
          "internalType": "uint256",
          "name": "amount",
          "type": "uint256"
        }
      ],
      "name": "userWithdrawal",
      "type": "event"
    },
    {
      "inputs": [
        {
          "internalType": "contract IERC20[]",
          "name": "_coins",
          "type": "address[]"
        },
        {
          "internalType": "contract IERC20",
          "name": "_poolToken",
          "type": "address"
        },
        {
          "internalType": "uint256",
          "name": "_minLiquidity",
          "type": "uint256"
        },
        {
          "internalType": "uint256",
          "name": "_maxLiquidity",
          "type": "uint256"
        },
        {
          "internalType": "uint256",
          "name": "_withdrawFees",
          "type": "uint256"
        },
        {
          "internalType": "uint256",
          "name": "_depositFees",
          "type": "uint256"
        },
        {
          "internalType": "contract DepositStrategy[]",
          "name": "_depositStrategies",
          "type": "address[]"
        },
        {
          "internalType": "uint256[]",
          "name": "_strategyForCoin",
          "type": "uint256[]"
        },
        {
          "internalType": "uint256[][]",
          "name": "_coinsPositionInStrategy",
          "type": "uint256[][]"
        }
      ],
      "name": "initialize",
      "outputs": [],
      "stateMutability": "nonpayable",
      "type": "function"
    },
    {
      "inputs": [
        {
          "internalType": "uint256",
          "name": "coinIndex",
          "type": "uint256"
        },
        {
          "internalType": "uint256",
          "name": "amount",
          "type": "uint256"
        }
      ],
      "name": "stake",
      "outputs": [
        {
          "internalType": "uint256",
          "name": "",
          "type": "uint256"
        }
      ],
      "stateMutability": "nonpayable",
      "type": "function"
    },
    {
      "inputs": [
        {
          "internalType": "uint256",
          "name": "coinIndex",
          "type": "uint256"
        },
        {
          "internalType": "uint256",
          "name": "amount",
          "type": "uint256"
        }
      ],
      "name": "unStake",
      "outputs": [
        {
          "internalType": "uint256",
          "name": "",
          "type": "uint256"
        }
      ],
      "stateMutability": "nonpayable",
      "type": "function"
    },
    {
      "inputs": [
        {
          "internalType": "uint256",
          "name": "_minLiquidity",
          "type": "uint256"
        },
        {
          "internalType": "uint256",
          "name": "_maxLiquidity",
          "type": "uint256"
        }
      ],
      "name": "updateLiquidityParam",
      "outputs": [
        {
          "internalType": "bool",
          "name": "",
          "type": "bool"
        }
      ],
      "stateMutability": "nonpayable",
      "type": "function"
    },
    {
      "inputs": [
        {
          "internalType": "uint256",
          "name": "_depositFees",
          "type": "uint256"
        },
        {
          "internalType": "uint256",
          "name": "_withdrawFees",
          "type": "uint256"
        }
      ],
      "name": "updateFees",
      "outputs": [
        {
          "internalType": "bool",
          "name": "",
          "type": "bool"
        }
      ],
      "stateMutability": "nonpayable",
      "type": "function"
    },
    {
      "inputs": [],
      "name": "changeLockStatus",
      "outputs": [
        {
          "internalType": "bool",
          "name": "",
          "type": "bool"
        }
      ],
      "stateMutability": "nonpayable",
      "type": "function"
    },
    {
      "inputs": [
        {
          "internalType": "address",
          "name": "newOwner",
          "type": "address"
        }
      ],
      "name": "updateOwner",
      "outputs": [
        {
          "internalType": "bool",
          "name": "",
          "type": "bool"
        }
      ],
      "stateMutability": "nonpayable",
      "type": "function"
    },
    {
      "inputs": [
        {
          "internalType": "uint256",
          "name": "strategyIndex",
          "type": "uint256"
        },
        {
          "internalType": "uint256",
          "name": "coinIndex",
          "type": "uint256"
        }
      ],
      "name": "setStrategyRewardCoin",
      "outputs": [
        {
          "internalType": "bool",
          "name": "",
          "type": "bool"
        }
      ],
      "stateMutability": "nonpayable",
      "type": "function"
    },
    {
      "inputs": [
        {
          "internalType": "uint256",
          "name": "coinIndex",
          "type": "uint256"
        }
      ],
      "name": "addToStrategy",
      "outputs": [
        {
          "internalType": "uint256",
          "name": "",
          "type": "uint256"
        }
      ],
      "stateMutability": "nonpayable",
      "type": "function"
    },
    {
      "inputs": [
        {
          "internalType": "uint256",
          "name": "coinIndex",
          "type": "uint256"
        }
      ],
      "name": "removeFromPool",
      "outputs": [
        {
          "internalType": "uint256",
          "name": "",
          "type": "uint256"
        }
      ],
      "stateMutability": "nonpayable",
      "type": "function"
    },
    {
      "inputs": [
        {
          "internalType": "uint256",
          "name": "amountOfStableCoins",
          "type": "uint256"
        },
        {
          "internalType": "uint256",
          "name": "coinIndex",
          "type": "uint256"
        }
      ],
      "name": "calculatePoolTokens",
      "outputs": [
        {
          "internalType": "uint256",
          "name": "",
          "type": "uint256"
        }
      ],
      "stateMutability": "view",
      "type": "function",
      "constant": true
    },
    {
      "inputs": [],
      "name": "stableCoinPrice",
      "outputs": [
        {
          "internalType": "uint256",
          "name": "",
          "type": "uint256"
        }
      ],
      "stateMutability": "view",
      "type": "function",
      "constant": true
    },
    {
      "inputs": [
        {
          "internalType": "uint256",
          "name": "amountOfPoolToken",
          "type": "uint256"
        },
        {
          "internalType": "uint256",
          "name": "coinIndex",
          "type": "uint256"
        }
      ],
      "name": "calculateStableCoins",
      "outputs": [
        {
          "internalType": "uint256",
          "name": "",
          "type": "uint256"
        }
      ],
      "stateMutability": "view",
      "type": "function",
      "constant": true
    },
    {
      "inputs": [],
      "name": "poolTokenPrice",
      "outputs": [
        {
          "internalType": "uint256",
          "name": "",
          "type": "uint256"
        }
      ],
      "stateMutability": "view",
      "type": "function",
      "constant": true
    },
    {
      "inputs": [
        {
          "internalType": "uint256",
          "name": "coinIndex",
          "type": "uint256"
        }
      ],
      "name": "maxBurnAllowed",
      "outputs": [
        {
          "internalType": "uint256",
          "name": "",
          "type": "uint256"
        }
      ],
      "stateMutability": "view",
      "type": "function",
      "constant": true
    },
    {
      "inputs": [
        {
          "internalType": "uint256",
          "name": "coinIndex",
          "type": "uint256"
        }
      ],
      "name": "feesCollected",
      "outputs": [
        {
          "internalType": "uint256",
          "name": "",
          "type": "uint256"
        }
      ],
      "stateMutability": "view",
      "type": "function",
      "constant": true
    },
    {
      "inputs": [
        {
          "internalType": "uint256",
          "name": "coinIndex",
          "type": "uint256"
        }
      ],
      "name": "currentLiquidity",
      "outputs": [
        {
          "internalType": "uint256",
          "name": "",
          "type": "uint256"
        }
      ],
      "stateMutability": "view",
      "type": "function",
      "constant": true
    },
    {
      "inputs": [
        {
          "internalType": "uint256",
          "name": "coinIndex",
          "type": "uint256"
        }
      ],
      "name": "idealAmount",
      "outputs": [
        {
          "internalType": "uint256",
          "name": "",
          "type": "uint256"
        }
      ],
      "stateMutability": "view",
      "type": "function",
      "constant": true
    },
    {
      "inputs": [
        {
          "internalType": "uint256",
          "name": "coinIndex",
          "type": "uint256"
        }
      ],
      "name": "maxLiquidityAllowedInPool",
      "outputs": [
        {
          "internalType": "uint256",
          "name": "",
          "type": "uint256"
        }
      ],
      "stateMutability": "view",
      "type": "function",
      "constant": true
    },
    {
      "inputs": [
        {
          "internalType": "uint256",
          "name": "coinIndex",
          "type": "uint256"
        }
      ],
      "name": "amountToDeposit",
      "outputs": [
        {
          "internalType": "uint256",
          "name": "",
          "type": "uint256"
        }
      ],
      "stateMutability": "view",
      "type": "function",
      "constant": true
    },
    {
      "inputs": [
        {
          "internalType": "uint256",
          "name": "coinIndex",
          "type": "uint256"
        }
      ],
      "name": "minLiquidityToMaintainInPool",
      "outputs": [
        {
          "internalType": "uint256",
          "name": "",
          "type": "uint256"
        }
      ],
      "stateMutability": "view",
      "type": "function",
      "constant": true
    },
    {
      "inputs": [
        {
          "internalType": "uint256",
          "name": "coinIndex",
          "type": "uint256"
        }
      ],
      "name": "amountToWithdraw",
      "outputs": [
        {
          "internalType": "uint256",
          "name": "",
          "type": "uint256"
        }
      ],
      "stateMutability": "view",
      "type": "function",
      "constant": true
    }
  ],
  "bytecode": "0x608060405234801561001057600080fd5b50613693806100206000396000f3fe608060405234801561001057600080fd5b50600436106101425760003560e01c8063880cdc31116100b8578063cfee76b51161007c578063cfee76b514610421578063d0a8bc2c14610451578063d395fbc514610481578063e42553421461049f578063f9787f99146104bd578063ff48c6b4146104ed57610142565b8063880cdc31146103315780638f8a42c6146103615780639cb779b214610391578063a756e2ad146103c1578063cd1bef21146103f157610142565b80635b404bad1161010a5780635b404bad14610223578063607622af146102415780636db79437146102715780637039206b146102a15780637b0472f0146102d15780637dc0ac3b1461030157610142565b8063048bfc0814610147578063175bcf4a1461017757806321f801da146101a7578063372caeb8146101c35780633ed18fb7146101f3575b600080fd5b610161600480360381019061015c9190612ece565b61051d565b60405161016e91906133eb565b60405180910390f35b610191600480360381019061018c9190612e7c565b61062e565b60405161019e91906133eb565b60405180910390f35b6101c160048036038101906101bc9190612d2d565b610659565b005b6101dd60048036038101906101d89190612ece565b610876565b6040516101ea91906133eb565b60405180910390f35b61020d60048036038101906102089190612e7c565b610d59565b60405161021a91906133eb565b60405180910390f35b61022b610d95565b60405161023891906133eb565b60405180910390f35b61025b60048036038101906102569190612ece565b610f20565b60405161026891906132f0565b60405180910390f35b61028b60048036038101906102869190612ece565b611048565b60405161029891906132f0565b60405180910390f35b6102bb60048036038101906102b69190612e7c565b611170565b6040516102c891906133eb565b60405180910390f35b6102eb60048036038101906102e69190612ece565b6115d8565b6040516102f891906133eb565b60405180910390f35b61031b60048036038101906103169190612e7c565b61197d565b60405161032891906133eb565b60405180910390f35b61034b60048036038101906103469190612d04565b6119c4565b60405161035891906132f0565b60405180910390f35b61037b60048036038101906103769190612ece565b611abd565b60405161038891906133eb565b60405180910390f35b6103ab60048036038101906103a69190612ece565b611bce565b6040516103b891906132f0565b60405180910390f35b6103db60048036038101906103d69190612e7c565b611de2565b6040516103e891906133eb565b60405180910390f35b61040b60048036038101906104069190612e7c565b611e20565b60405161041891906133eb565b60405180910390f35b61043b60048036038101906104369190612e7c565b611e62565b60405161044891906133eb565b60405180910390f35b61046b60048036038101906104669190612e7c565b611efa565b60405161047891906133eb565b60405180910390f35b610489612262565b60405161049691906132f0565b60405180910390f35b6104a7612354565b6040516104b491906133eb565b60405180910390f35b6104d760048036038101906104d29190612e7c565b6124df565b6040516104e491906133eb565b60405180910390f35b61050760048036038101906105029190612e7c565b612509565b60405161051491906133eb565b60405180910390f35b600080610528612547565b905061060c81600101848154811061053c57fe5b9060005260206000200160009054906101000a900473ffffffffffffffffffffffffffffffffffffffff1673ffffffffffffffffffffffffffffffffffffffff1663313ce5676040518163ffffffff1660e01b815260040160206040518083038186803b1580156105ac57600080fd5b505afa1580156105c0573d6000803e3d6000fd5b505050506040513d601f19601f820116820180604052508101906105e49190612ea5565b600a0a6105fe83600501548761257490919063ffffffff16565b6125fa90919063ffffffff16565b9350806005015461061b610d95565b85028161062457fe5b0491505092915050565b600080610639612547565b905080601001600084815260200190815260200160002054915050919050565b6000610663612547565b90508060000160009054906101000a900460ff16156106b7576040517f08c379a00000000000000000000000000000000000000000000000000000000081526004016106ae906133cb565b60405180910390fd5b338160110160016101000a81548173ffffffffffffffffffffffffffffffffffffffff021916908373ffffffffffffffffffffffffffffffffffffffff1602179055506127108160040181905550670de0b6b3a764000081600501819055508981600101908051906020019061072e92919061289c565b50888160020160006101000a81548173ffffffffffffffffffffffffffffffffffffffff021916908373ffffffffffffffffffffffffffffffffffffffff160217905550878160080181905550868160090181905550858160070181905550848160060181905550838160030190805190602001906107ae929190612926565b5060018160000160006101000a81548160ff02191690831515021790555060005b8351811015610812578381815181106107e457fe5b602002602001015182600d0160008381526020019081526020016000208190555080806001019150506107cf565b5060005b82518110156108695782818151811061082b57fe5b602002602001015182600c016000838152602001908152602001600020908051906020019061085b9291906129b0565b508080600101915050610816565b5050505050505050505050565b600080610881612547565b90508060110160009054906101000a900460ff16156108d5576040517f08c379a00000000000000000000000000000000000000000000000000000000081526004016108cc906133ab565b60405180910390fd5b60006108df612547565b90508060020160009054906101000a900473ffffffffffffffffffffffffffffffffffffffff1673ffffffffffffffffffffffffffffffffffffffff166370a08231336040518263ffffffff1660e01b815260040161093e91906131eb565b60206040518083038186803b15801561095657600080fd5b505afa15801561096a573d6000803e3d6000fd5b505050506040513d601f19601f8201168201806040525081019061098e9190612ea5565b8411156109d0576040517f08c379a00000000000000000000000000000000000000000000000000000000081526004016109c79061338b565b60405180910390fd5b6109d9856124df565b841115610a1b576040517f08c379a0000000000000000000000000000000000000000000000000000000008152600401610a129061336b565b60405180910390fd5b6000610a278587611abd565b9050600082600401548360070154830281610a3e57fe5b04905080836010016000898152602001908152602001600020540183601001600089815260200190815260200160002081905550610a9c81830384600e0160008a81526020019081526020016000205461264490919063ffffffff16565b83600e01600089815260200190815260200160002081905550610baf610b9c846001018981548110610aca57fe5b9060005260206000200160009054906101000a900473ffffffffffffffffffffffffffffffffffffffff1673ffffffffffffffffffffffffffffffffffffffff1663313ce5676040518163ffffffff1660e01b815260040160206040518083038186803b158015610b3a57600080fd5b505afa158015610b4e573d6000803e3d6000fd5b505050506040513d601f19601f82011682018060405250810190610b729190612ea5565b600a0a610b8e866005015485870361257490919063ffffffff16565b6125fa90919063ffffffff16565b84600b015461264490919063ffffffff16565b83600b0181905550826001018781548110610bc657fe5b9060005260206000200160009054906101000a900473ffffffffffffffffffffffffffffffffffffffff1673ffffffffffffffffffffffffffffffffffffffff1663a9059cbb338385036040518363ffffffff1660e01b8152600401610c2d929190613282565b602060405180830381600087803b158015610c4757600080fd5b505af1158015610c5b573d6000803e3d6000fd5b505050506040513d601f19601f82011682018060405250810190610c7f9190612e53565b508260020160009054906101000a900473ffffffffffffffffffffffffffffffffffffffff1673ffffffffffffffffffffffffffffffffffffffff16639dc29fac33886040518363ffffffff1660e01b8152600401610cdf929190613282565b600060405180830381600087803b158015610cf957600080fd5b505af1158015610d0d573d6000803e3d6000fd5b505050507f42b2a4ad2d4bdf57e819ccd3c6ce6d0a8d6d20b5d3dbf94ef2b05c42f523c6103387604051610d42929190613282565b60405180910390a180820394505050505092915050565b6000610d6482612509565b610d6d83611e20565b1115610d8b57610d7c8261197d565b610d8583611e20565b03610d8e565b60005b9050919050565b600080610da0612547565b905060008160020160009054906101000a900473ffffffffffffffffffffffffffffffffffffffff1673ffffffffffffffffffffffffffffffffffffffff166318160ddd6040518163ffffffff1660e01b815260040160206040518083038186803b158015610e0e57600080fd5b505afa158015610e22573d6000803e3d6000fd5b505050506040513d601f19601f82011682018060405250810190610e469190612ea5565b1480610e565750600081600b0154145b610f145780600b01548160020160009054906101000a900473ffffffffffffffffffffffffffffffffffffffff1673ffffffffffffffffffffffffffffffffffffffff166318160ddd6040518163ffffffff1660e01b815260040160206040518083038186803b158015610ec957600080fd5b505afa158015610edd573d6000803e3d6000fd5b505050506040513d601f19601f82011682018060405250810190610f019190612ea5565b82600501540281610f0e57fe5b04610f1a565b80600501545b91505090565b600080610f2b612547565b90503373ffffffffffffffffffffffffffffffffffffffff168160110160019054906101000a900473ffffffffffffffffffffffffffffffffffffffff1673ffffffffffffffffffffffffffffffffffffffff1614610fbf576040517f08c379a0000000000000000000000000000000000000000000000000000000008152600401610fb69061332b565b60405180910390fd5b6000610fc9612547565b90508060110160009054906101000a900460ff161561101d576040517f08c379a0000000000000000000000000000000000000000000000000000000008152600401611014906133ab565b60405180910390fd5b6000611027612547565b90508581600801819055508481600901819055506001935050505092915050565b600080611053612547565b90503373ffffffffffffffffffffffffffffffffffffffff168160110160019054906101000a900473ffffffffffffffffffffffffffffffffffffffff1673ffffffffffffffffffffffffffffffffffffffff16146110e7576040517f08c379a00000000000000000000000000000000000000000000000000000000081526004016110de9061332b565b60405180910390fd5b60006110f1612547565b90508060110160009054906101000a900460ff1615611145576040517f08c379a000000000000000000000000000000000000000000000000000000000815260040161113c906133ab565b60405180910390fd5b600061114f612547565b90508481600701819055508581600601819055506001935050505092915050565b60008061117b612547565b90508060110160009054906101000a900460ff16156111cf576040517f08c379a00000000000000000000000000000000000000000000000000000000081526004016111c6906133ab565b60405180910390fd5b60006111d9612547565b905060006111e685610d59565b90506000811161122b576040517f08c379a00000000000000000000000000000000000000000000000000000000081526004016112229061330b565b60405180910390fd5b6112538183600f0160008881526020019081526020016000205461268e90919063ffffffff16565b82600f01600087815260200190815260200160002081905550600082600d01600087815260200190815260200160002054905061128e6129fd565b60005b84600c01600084815260200190815260200160002080549050811015611377578785600c01600085815260200190815260200160002082815481106112d257fe5b9060005260206000200154141561132857838286600c016000868152602001908152602001600020838154811061130557fe5b9060005260206000200154600a811061131a57fe5b60200201818152505061136a565b60008286600c016000868152602001908152602001600020838154811061134b57fe5b9060005260206000200154600a811061136057fe5b6020020181815250505b8080600101915050611291565b5083600101878154811061138757fe5b9060005260206000200160009054906101000a900473ffffffffffffffffffffffffffffffffffffffff1673ffffffffffffffffffffffffffffffffffffffff1663095ea7b38560030184815481106113dc57fe5b9060005260206000200160009054906101000a900473ffffffffffffffffffffffffffffffffffffffff16856040518363ffffffff1660e01b81526004016114259291906132ab565b602060405180830381600087803b15801561143f57600080fd5b505af1158015611453573d6000803e3d6000fd5b505050506040513d601f19601f820116820180604052508101906114779190612e53565b5083600301828154811061148757fe5b9060005260206000200160009054906101000a900473ffffffffffffffffffffffffffffffffffffffff1673ffffffffffffffffffffffffffffffffffffffff1663a9834c6d826040518263ffffffff1660e01b81526004016114ea91906132d4565b600060405180830381600087803b15801561150457600080fd5b505af1158015611518573d6000803e3d6000fd5b505050507f8a3c46035b966898b4542598f6680f7d7644bad07f874b70c3e034f33c7a78ff3385600301848154811061154d57fe5b9060005260206000200160009054906101000a900473ffffffffffffffffffffffffffffffffffffffff16866001018a8154811061158757fe5b9060005260206000200160009054906101000a900473ffffffffffffffffffffffffffffffffffffffff16866040516115c39493929190613206565b60405180910390a18295505050505050919050565b6000806115e3612547565b90508060110160009054906101000a900460ff1615611637576040517f08c379a000000000000000000000000000000000000000000000000000000000815260040161162e906133ab565b60405180910390fd5b6000611641612547565b905060008160040154826006015486028161165857fe5b049050808260100160008881526020019081526020016000205401826010016000888152602001908152602001600020819055506116b48583600e0160008981526020019081526020016000205461268e90919063ffffffff16565b82600e0160008881526020019081526020016000208190555060006116db8287038861051d565b90506117d56117c28460010189815481106116f257fe5b9060005260206000200160009054906101000a900473ffffffffffffffffffffffffffffffffffffffff1673ffffffffffffffffffffffffffffffffffffffff1663313ce5676040518163ffffffff1660e01b815260040160206040518083038186803b15801561176257600080fd5b505afa158015611776573d6000803e3d6000fd5b505050506040513d601f19601f8201168201806040525081019061179a9190612ea5565b600a0a6117b486600501548a61257490919063ffffffff16565b6125fa90919063ffffffff16565b84600b015461268e90919063ffffffff16565b83600b01819055508260010187815481106117ec57fe5b9060005260206000200160009054906101000a900473ffffffffffffffffffffffffffffffffffffffff1673ffffffffffffffffffffffffffffffffffffffff166323b872dd3330896040518463ffffffff1660e01b81526004016118539392919061324b565b602060405180830381600087803b15801561186d57600080fd5b505af1158015611881573d6000803e3d6000fd5b505050506040513d601f19601f820116820180604052508101906118a59190612e53565b508260020160009054906101000a900473ffffffffffffffffffffffffffffffffffffffff1673ffffffffffffffffffffffffffffffffffffffff166340c10f1933836040518363ffffffff1660e01b8152600401611905929190613282565b600060405180830381600087803b15801561191f57600080fd5b505af1158015611933573d6000803e3d6000fd5b505050507f08f43333671aca8015183efb2197dac68519c827a11e6788eac8c80131169a643387604051611968929190613282565b60405180910390a18094505050505092915050565b600080611988612547565b90508060040154600202816009015482600801540182600e0160008681526020019081526020016000205402816119bb57fe5b04915050919050565b6000806119cf612547565b90503373ffffffffffffffffffffffffffffffffffffffff168160110160019054906101000a900473ffffffffffffffffffffffffffffffffffffffff1673ffffffffffffffffffffffffffffffffffffffff1614611a63576040517f08c379a0000000000000000000000000000000000000000000000000000000008152600401611a5a9061332b565b60405180910390fd5b6000611a6d612547565b9050838160110160016101000a81548173ffffffffffffffffffffffffffffffffffffffff021916908373ffffffffffffffffffffffffffffffffffffffff160217905550600192505050919050565b600080611ac8612547565b90508060050154611ad7612354565b850281611ae057fe5b049350611bc58160050154611bb7836001018681548110611afd57fe5b9060005260206000200160009054906101000a900473ffffffffffffffffffffffffffffffffffffffff1673ffffffffffffffffffffffffffffffffffffffff1663313ce5676040518163ffffffff1660e01b815260040160206040518083038186803b158015611b6d57600080fd5b505afa158015611b81573d6000803e3d6000fd5b505050506040513d601f19601f82011682018060405250810190611ba59190612ea5565b600a0a8761257490919063ffffffff16565b6125fa90919063ffffffff16565b91505092915050565b600080611bd9612547565b90503373ffffffffffffffffffffffffffffffffffffffff168160110160019054906101000a900473ffffffffffffffffffffffffffffffffffffffff1673ffffffffffffffffffffffffffffffffffffffff1614611c6d576040517f08c379a0000000000000000000000000000000000000000000000000000000008152600401611c649061332b565b60405180910390fd5b6000611c77612547565b90508060110160009054906101000a900460ff1615611ccb576040517f08c379a0000000000000000000000000000000000000000000000000000000008152600401611cc2906133ab565b60405180910390fd5b6000611cd5612547565b9050806003018681548110611ce657fe5b9060005260206000200160009054906101000a900473ffffffffffffffffffffffffffffffffffffffff1673ffffffffffffffffffffffffffffffffffffffff1663b7fdf784826001018781548110611d3b57fe5b9060005260206000200160009054906101000a900473ffffffffffffffffffffffffffffffffffffffff166040518263ffffffff1660e01b8152600401611d8291906131d0565b602060405180830381600087803b158015611d9c57600080fd5b505af1158015611db0573d6000803e3d6000fd5b505050506040513d601f19601f82011682018060405250810190611dd49190612e53565b506001935050505092915050565b600080611ded612547565b90508060040154816008015482600e016000868152602001908152602001600020540281611e1757fe5b04915050919050565b600080611e2b612547565b905080600f0160008481526020019081526020016000205481600e0160008581526020019081526020016000205403915050919050565b600080611e6d612547565b9050611e7883611de2565b611e8184611e20565b1180611ea25750600081600f01600085815260200190815260200160002054145b80611ed35750611eb183611e20565b611eba8461197d565b0381600f01600085815260200190815260200160002054105b611eef57611ee083611e20565b611ee98461197d565b03611ef2565b60005b915050919050565b600080611f05612547565b90508060110160009054906101000a900460ff1615611f59576040517f08c379a0000000000000000000000000000000000000000000000000000000008152600401611f50906133ab565b60405180910390fd5b6000611f63612547565b90506000611f7085611e62565b905060008111611fb5576040517f08c379a0000000000000000000000000000000000000000000000000000000008152600401611fac9061334b565b60405180910390fd5b611fdd8183600f0160008881526020019081526020016000205461264490919063ffffffff16565b82600f01600087815260200190815260200160002081905550600082600d0160008781526020019081526020016000205490506120186129fd565b60005b84600c01600084815260200190815260200160002080549050811015612101578785600c016000858152602001908152602001600020828154811061205c57fe5b906000526020600020015414156120b257838286600c016000868152602001908152602001600020838154811061208f57fe5b9060005260206000200154600a81106120a457fe5b6020020181815250506120f4565b60008286600c01600086815260200190815260200160002083815481106120d557fe5b9060005260206000200154600a81106120ea57fe5b6020020181815250505b808060010191505061201b565b5083600301828154811061211157fe5b9060005260206000200160009054906101000a900473ffffffffffffffffffffffffffffffffffffffff1673ffffffffffffffffffffffffffffffffffffffff166345ce0360826040518263ffffffff1660e01b815260040161217491906132d4565b600060405180830381600087803b15801561218e57600080fd5b505af11580156121a2573d6000803e3d6000fd5b505050507f2441be9fc17408ea9902cf641305826f3b04cff339db1e0df3e9849d9bbd2e82338560030184815481106121d757fe5b9060005260206000200160009054906101000a900473ffffffffffffffffffffffffffffffffffffffff16866001018a8154811061221157fe5b9060005260206000200160009054906101000a900473ffffffffffffffffffffffffffffffffffffffff168660405161224d9493929190613206565b60405180910390a18295505050505050919050565b60008061226d612547565b90503373ffffffffffffffffffffffffffffffffffffffff168160110160019054906101000a900473ffffffffffffffffffffffffffffffffffffffff1673ffffffffffffffffffffffffffffffffffffffff1614612301576040517f08c379a00000000000000000000000000000000000000000000000000000000081526004016122f89061332b565b60405180910390fd5b600061230b612547565b90508060110160009054906101000a900460ff16158160110160006101000a81548160ff0219169083151502179055508060110160009054906101000a900460ff169250505090565b60008061235f612547565b905060008160020160009054906101000a900473ffffffffffffffffffffffffffffffffffffffff1673ffffffffffffffffffffffffffffffffffffffff166318160ddd6040518163ffffffff1660e01b815260040160206040518083038186803b1580156123cd57600080fd5b505afa1580156123e1573d6000803e3d6000fd5b505050506040513d601f19601f820116820180604052508101906124059190612ea5565b14806124155750600081600b0154145b6124d3578060020160009054906101000a900473ffffffffffffffffffffffffffffffffffffffff1673ffffffffffffffffffffffffffffffffffffffff166318160ddd6040518163ffffffff1660e01b815260040160206040518083038186803b15801561248357600080fd5b505afa158015612497573d6000803e3d6000fd5b505050506040513d601f19601f820116820180604052508101906124bb9190612ea5565b81600b0154826005015402816124cd57fe5b046124d9565b80600501545b91505090565b60008060026124ed84611de2565b816124f457fe5b049050612501818461051d565b915050919050565b600080612514612547565b90508060040154816009015482600e01600086815260200190815260200160002054028161253e57fe5b04915050919050565b6000807f6c2f2617da7540533aede37184df9fe8d14d2f091e9a392f2685af4b9851d17290508091505090565b60008083141561258757600090506125f4565b600082840290508284828161259857fe5b04146125ef576040517f08c379a000000000000000000000000000000000000000000000000000000000815260040180806020018281038252602181526020018061363d6021913960400191505060405180910390fd5b809150505b92915050565b600061263c83836040518060400160405280601a81526020017f536166654d6174683a206469766973696f6e206279207a65726f000000000000815250612716565b905092915050565b600061268683836040518060400160405280601f81526020017f536166654d6174683a207375627472616374696f6e20756e646572666c6f77008152506127dc565b905092915050565b60008082840190508381101561270c576040517f08c379a000000000000000000000000000000000000000000000000000000000815260040180806020018281038252601b8152602001807f536166654d6174683a206164646974696f6e206f766572666c6f77000000000081525060200191505060405180910390fd5b8091505092915050565b600080831182906127c2576040517f08c379a00000000000000000000000000000000000000000000000000000000081526004018080602001828103825283818151815260200191508051906020019080838360005b8381101561278757808201518184015260208101905061276c565b50505050905090810190601f1680156127b45780820380516001836020036101000a031916815260200191505b509250505060405180910390fd5b5060008385816127ce57fe5b049050809150509392505050565b6000838311158290612889576040517f08c379a00000000000000000000000000000000000000000000000000000000081526004018080602001828103825283818151815260200191508051906020019080838360005b8381101561284e578082015181840152602081019050612833565b50505050905090810190601f16801561287b5780820380516001836020036101000a031916815260200191505b509250505060405180910390fd5b5060008385039050809150509392505050565b828054828255906000526020600020908101928215612915579160200282015b828111156129145782518260006101000a81548173ffffffffffffffffffffffffffffffffffffffff021916908373ffffffffffffffffffffffffffffffffffffffff160217905550916020019190600101906128bc565b5b5090506129229190612a20565b5090565b82805482825590600052602060002090810192821561299f579160200282015b8281111561299e5782518260006101000a81548173ffffffffffffffffffffffffffffffffffffffff021916908373ffffffffffffffffffffffffffffffffffffffff16021790555091602001919060010190612946565b5b5090506129ac9190612a20565b5090565b8280548282559060005260206000209081019282156129ec579160200282015b828111156129eb5782518255916020019190600101906129d0565b5b5090506129f99190612a20565b5090565b604051806101400160405280600a90602082028036833780820191505090505090565b5b80821115612a39576000816000905550600101612a21565b5090565b6000612a50612a4b84613437565b613406565b9050808382526020820190508260005b85811015612a905781358501612a768882612c71565b845260208401935060208301925050600181019050612a60565b5050509392505050565b6000612aad612aa884613463565b613406565b90508083825260208201905082856020860282011115612acc57600080fd5b60005b85811015612afc5781612ae28882612cb0565b845260208401935060208301925050600181019050612acf565b5050509392505050565b6000612b19612b148461348f565b613406565b90508083825260208201905082856020860282011115612b3857600080fd5b60005b85811015612b685781612b4e8882612cc5565b845260208401935060208301925050600181019050612b3b565b5050509392505050565b6000612b85612b80846134bb565b613406565b90508083825260208201905082856020860282011115612ba457600080fd5b60005b85811015612bd45781612bba8882612cda565b845260208401935060208301925050600181019050612ba7565b5050509392505050565b600081359050612bed816135c9565b92915050565b600082601f830112612c0457600080fd5b8135612c14848260208601612a3d565b91505092915050565b600082601f830112612c2e57600080fd5b8135612c3e848260208601612a9a565b91505092915050565b600082601f830112612c5857600080fd5b8135612c68848260208601612b06565b91505092915050565b600082601f830112612c8257600080fd5b8135612c92848260208601612b72565b91505092915050565b600081519050612caa816135e0565b92915050565b600081359050612cbf816135f7565b92915050565b600081359050612cd48161360e565b92915050565b600081359050612ce981613625565b92915050565b600081519050612cfe81613625565b92915050565b600060208284031215612d1657600080fd5b6000612d2484828501612bde565b91505092915050565b60008060008060008060008060006101208a8c031215612d4c57600080fd5b60008a013567ffffffffffffffff811115612d6657600080fd5b612d728c828d01612c47565b9950506020612d838c828d01612cc5565b9850506040612d948c828d01612cda565b9750506060612da58c828d01612cda565b9650506080612db68c828d01612cda565b95505060a0612dc78c828d01612cda565b94505060c08a013567ffffffffffffffff811115612de457600080fd5b612df08c828d01612c1d565b93505060e08a013567ffffffffffffffff811115612e0d57600080fd5b612e198c828d01612c71565b9250506101008a013567ffffffffffffffff811115612e3757600080fd5b612e438c828d01612bf3565b9150509295985092959850929598565b600060208284031215612e6557600080fd5b6000612e7384828501612c9b565b91505092915050565b600060208284031215612e8e57600080fd5b6000612e9c84828501612cda565b91505092915050565b600060208284031215612eb757600080fd5b6000612ec584828501612cef565b91505092915050565b60008060408385031215612ee157600080fd5b6000612eef85828601612cda565b9250506020612f0085828601612cda565b9150509250929050565b6000612f1683836131b2565b60208301905092915050565b612f2b81613591565b82525050565b612f3a81613525565b82525050565b612f49816134f1565b612f538184613509565b9250612f5e826134e7565b8060005b83811015612f8f578151612f768782612f0a565b9650612f81836134fc565b925050600181019050612f62565b505050505050565b612fa081613537565b82525050565b6000612fb3601283613514565b91507f4e6f7468696e6720746f206465706f73697400000000000000000000000000006000830152602082019050919050565b6000612ff3601583613514565b91507f4f6e6c792061646d696e2063616e2063616c6c212100000000000000000000006000830152602082019050919050565b6000613033601383613514565b91507f4e6f7468696e6720746f207769746864726177000000000000000000000000006000830152602082019050919050565b6000613073602983613514565b91507f446f6e74206861766520656e6f7567682066756e642c20506c6561736520747260008301527f79206c61746572212100000000000000000000000000000000000000000000006020830152604082019050919050565b60006130d9602183613514565b91507f596f7520646f6e74206861766520656e6f75676820706f6f6c20746f6b656e2160008301527f21000000000000000000000000000000000000000000000000000000000000006020830152604082019050919050565b600061313f601283613514565b91507f636f6e7472616374206973206c6f636b656400000000000000000000000000006000830152602082019050919050565b600061317f601383613514565b91507f416c726561647920696e697469616c697a6564000000000000000000000000006000830152602082019050919050565b6131bb81613587565b82525050565b6131ca81613587565b82525050565b60006020820190506131e56000830184612f31565b92915050565b60006020820190506132006000830184612f22565b92915050565b600060808201905061321b6000830187612f22565b6132286020830186612f31565b6132356040830185612f31565b61324260608301846131c1565b95945050505050565b60006060820190506132606000830186612f22565b61326d6020830185612f31565b61327a60408301846131c1565b949350505050565b60006040820190506132976000830185612f22565b6132a460208301846131c1565b9392505050565b60006040820190506132c06000830185612f31565b6132cd60208301846131c1565b9392505050565b6000610140820190506132ea6000830184612f40565b92915050565b60006020820190506133056000830184612f97565b92915050565b6000602082019050818103600083015261332481612fa6565b9050919050565b6000602082019050818103600083015261334481612fe6565b9050919050565b6000602082019050818103600083015261336481613026565b9050919050565b6000602082019050818103600083015261338481613066565b9050919050565b600060208201905081810360008301526133a4816130cc565b9050919050565b600060208201905081810360008301526133c481613132565b9050919050565b600060208201905081810360008301526133e481613172565b9050919050565b600060208201905061340060008301846131c1565b92915050565b6000604051905081810181811067ffffffffffffffff8211171561342d5761342c6135c7565b5b8060405250919050565b600067ffffffffffffffff821115613452576134516135c7565b5b602082029050602081019050919050565b600067ffffffffffffffff82111561347e5761347d6135c7565b5b602082029050602081019050919050565b600067ffffffffffffffff8211156134aa576134a96135c7565b5b602082029050602081019050919050565b600067ffffffffffffffff8211156134d6576134d56135c7565b5b602082029050602081019050919050565b6000819050919050565b6000600a9050919050565b6000602082019050919050565b600081905092915050565b600082825260208201905092915050565b600061353082613567565b9050919050565b60008115159050919050565b600061354e82613525565b9050919050565b600061356082613525565b9050919050565b600073ffffffffffffffffffffffffffffffffffffffff82169050919050565b6000819050919050565b600061359c826135a3565b9050919050565b60006135ae826135b5565b9050919050565b60006135c082613567565b9050919050565bfe5b6135d281613525565b81146135dd57600080fd5b50565b6135e981613537565b81146135f457600080fd5b50565b61360081613543565b811461360b57600080fd5b50565b61361781613555565b811461362257600080fd5b50565b61362e81613587565b811461363957600080fd5b5056fe536166654d6174683a206d756c7469706c69636174696f6e206f766572666c6f77a26469706673582212206c8b67e6564c5af9af17745a82209001501453a7d59088de7078aba0791bf4c264736f6c63430007060033",
  "immutableReferences": {},
  "source": "// SPDX-License-Identifier: UNLICENSED\r\npragma solidity ^0.7.6;\r\npragma experimental ABIEncoderV2;\r\nimport \"../storage/PoolStorage.sol\";\r\ncontract AdvancedPool is PoolStorageV1 {\r\n    \r\n/****VARIABLES*****/\r\n    using SafeMath for uint256;\r\n   \r\n\r\n/****MODIFIERS*****/\r\n    \r\n    modifier onlyOnwer(){\r\n        PoolStorage storage ps = poolStorage();\r\n        require(ps.owner == msg.sender, \"Only admin can call!!\");\r\n        _;\r\n    }\r\n    modifier notLocked {\r\n        PoolStorage storage ps = poolStorage();\r\n        require(!ps.locked, \"contract is locked\");\r\n        _;\r\n    }\r\n  \r\n/****EVENTS****/ \r\n    event userDeposits(address user,uint amount);\r\n    event userWithdrawal(address user,uint amount);\r\n    event poolDeposit(address user, address pool, address coin, uint amount);\r\n    event poolWithdrawal(address user, address pool, address coin, uint amount);\r\n    \r\n/****CONSTRUCTOR****/\r\n    function initialize(\r\n        IERC20[] memory _coins,\r\n        IERC20 _poolToken, \r\n        uint256 _minLiquidity, \r\n        uint256 _maxLiquidity, \r\n        uint256 _withdrawFees, \r\n        uint256 _depositFees,\r\n        DepositStrategy[] memory _depositStrategies,\r\n        uint256[] memory _strategyForCoin,\r\n        uint256[][] memory _coinsPositionInStrategy\r\n    ) public {\r\n        PoolStorage storage ps = poolStorage();\r\n        require(!ps.initialized, 'Already initialized');\r\n        ps.owner = msg.sender;\r\n        ps.DENOMINATOR = 10000;\r\n        ps.PRECISION = 10**18;\r\n        ps.coins = _coins;\r\n        ps.poolToken = _poolToken;\r\n        ps.minLiquidity = _minLiquidity;\r\n        ps.maxLiquidity = _maxLiquidity;\r\n        ps.withdrawFees = _withdrawFees;\r\n        ps.depositFees = _depositFees;\r\n        ps.depositStrategies = _depositStrategies;\r\n        ps.initialized = true;\r\n        for(uint256 i = 0; i < _strategyForCoin.length; i++){\r\n            ps.strategyForCoin[i] = _strategyForCoin[i];\r\n        }\r\n        for(uint256 i = 0; i < _coinsPositionInStrategy.length; i++){\r\n            ps.coinsPositionInStrategy[i] = _coinsPositionInStrategy[i];\r\n        }\r\n    }\r\n    \r\n/*****USERS FUNCTIONS****/\r\n    // amount will be in coins precision\r\n    function stake(uint256 coinIndex, uint256 amount) external notLocked() returns(uint256){\r\n        PoolStorage storage ps = poolStorage();\r\n        uint256 feeAmount = amount * ps.depositFees / ps.DENOMINATOR;\r\n        ps.feesCollected[coinIndex] = ps.feesCollected[coinIndex] + feeAmount;\r\n        ps.poolBalances[coinIndex] = ps.poolBalances[coinIndex].add(amount);\r\n        uint256 mintAmount = calculatePoolTokens(amount - feeAmount, coinIndex);\r\n        ps.totalStaked = ps.totalStaked.add(amount.mul(ps.PRECISION).div(10**ps.coins[coinIndex].decimals()));\r\n        ps.coins[coinIndex].transferFrom(msg.sender, address(this), amount);\r\n        ps.poolToken.mint(msg.sender, mintAmount);\r\n        emit userDeposits(msg.sender,amount);\r\n        return mintAmount;\r\n    }\r\n    \r\n    //amount is the amount of LP token user want to burn\r\n    function unStake(uint256 coinIndex, uint256 amount) external notLocked() returns(uint256){\r\n        PoolStorage storage ps = poolStorage();\r\n        require(amount <= ps.poolToken.balanceOf(msg.sender), \"You dont have enough pool token!!\");\r\n        require(amount <= maxBurnAllowed(coinIndex), \"Dont have enough fund, Please try later!!\");\r\n        uint256 tokenAmount = calculateStableCoins(amount, coinIndex);\r\n        uint256 feeAmount = tokenAmount * ps.withdrawFees/ ps.DENOMINATOR;\r\n        ps.feesCollected[coinIndex] = ps.feesCollected[coinIndex] + feeAmount;\r\n        ps.poolBalances[coinIndex] = ps.poolBalances[coinIndex].sub(tokenAmount - feeAmount);\r\n        ps.totalStaked = ps.totalStaked.sub((tokenAmount - feeAmount).mul(ps.PRECISION).div(10**ps.coins[coinIndex].decimals()));\r\n        ps.coins[coinIndex].transfer(msg.sender, tokenAmount - feeAmount);\r\n        ps.poolToken.burn(msg.sender, amount);  \r\n        emit userWithdrawal(msg.sender,amount);\r\n        return tokenAmount - feeAmount;\r\n    }\r\n    \r\n/****ADMIN FUNCTIONS*****/\r\n    \r\n    function updateLiquidityParam(uint256 _minLiquidity, uint256 _maxLiquidity) external onlyOnwer() notLocked() returns(bool){\r\n        PoolStorage storage ps = poolStorage();\r\n        ps.minLiquidity = _minLiquidity;\r\n        ps.maxLiquidity = _maxLiquidity;\r\n        return true;\r\n    }\r\n    \r\n    function updateFees(uint256 _depositFees, uint256 _withdrawFees) external onlyOnwer() notLocked() returns(bool){\r\n        PoolStorage storage ps = poolStorage();\r\n        ps.withdrawFees = _withdrawFees;\r\n        ps.depositFees = _depositFees;\r\n        return true;\r\n    }\r\n    \r\n    function changeLockStatus() external onlyOnwer() returns(bool){\r\n        PoolStorage storage ps = poolStorage();\r\n        ps.locked = !ps.locked;\r\n        return ps.locked;\r\n    }\r\n    \r\n    function updateOwner(address newOwner) external onlyOnwer() returns(bool){\r\n        PoolStorage storage ps = poolStorage();\r\n        ps.owner = newOwner;\r\n        return true;\r\n    } \r\n    \r\n    function setStrategyRewardCoin(uint256 strategyIndex, uint256 coinIndex) external onlyOnwer() notLocked() returns(bool){\r\n        PoolStorage storage ps = poolStorage();\r\n        ps.depositStrategies[strategyIndex].setRewardCoin(address(ps.coins[coinIndex]));\r\n        return true;\r\n    }\r\n    \r\n/****POOL FUNCTIONS****/\r\n\r\n    function addToStrategy(uint256 coinIndex) external notLocked() returns(uint256){\r\n        PoolStorage storage ps = poolStorage();\r\n        uint256 amount = amountToDeposit(coinIndex);\r\n        require(amount > 0 , \"Nothing to deposit\");\r\n        ps.coinsDepositInStrategy[coinIndex] = ps.coinsDepositInStrategy[coinIndex].add(amount);\r\n        uint256 strategyIndex = ps.strategyForCoin[coinIndex];\r\n        uint256[10] memory amounts;\r\n        for(uint256 i = 0; i < ps.coinsPositionInStrategy[strategyIndex].length; i++ ){\r\n            if(ps.coinsPositionInStrategy[strategyIndex][i] == coinIndex){\r\n                amounts[ps.coinsPositionInStrategy[strategyIndex][i]] = amount;\r\n            }\r\n            else{\r\n                amounts[ps.coinsPositionInStrategy[strategyIndex][i]] = 0;\r\n            }\r\n        }\r\n        ps.coins[coinIndex].approve(address(ps.depositStrategies[strategyIndex]), amount);\r\n        ps.depositStrategies[strategyIndex].deposit(amounts);\r\n        emit poolDeposit(msg.sender, address(ps.depositStrategies[strategyIndex]), address(ps.coins[coinIndex]), amount);\r\n        return amount;\r\n        \r\n    }\r\n    \r\n    function removeFromPool(uint256 coinIndex) external notLocked() returns(uint256){\r\n        PoolStorage storage ps = poolStorage();\r\n        uint256 amount = amountToWithdraw(coinIndex);\r\n        require(amount > 0 , \"Nothing to withdraw\");\r\n        ps.coinsDepositInStrategy[coinIndex] = ps.coinsDepositInStrategy[coinIndex].sub(amount);\r\n        uint256 strategyIndex = ps.strategyForCoin[coinIndex];\r\n        uint256[10] memory amounts;\r\n        for(uint256 i = 0; i < ps.coinsPositionInStrategy[strategyIndex].length; i++ ){\r\n            if(ps.coinsPositionInStrategy[strategyIndex][i] == coinIndex){\r\n                amounts[ps.coinsPositionInStrategy[strategyIndex][i]] = amount;\r\n            }\r\n            else{\r\n                amounts[ps.coinsPositionInStrategy[strategyIndex][i]] = 0;\r\n            }\r\n        }\r\n        ps.depositStrategies[strategyIndex].withdraw(amounts);\r\n        emit poolWithdrawal(msg.sender, address(ps.depositStrategies[strategyIndex]), address(ps.coins[coinIndex]),  amount);\r\n        return amount;\r\n    }\r\n    \r\n/****OTHER FUNCTIONS****/\r\n    \r\n    //TOKEN MUST BE SENT IN COINS PRECISION\r\n    function calculatePoolTokens(uint256 amountOfStableCoins, uint256 coinIndex) public view returns(uint256){\r\n        PoolStorage storage ps = poolStorage();\r\n        amountOfStableCoins = amountOfStableCoins.mul(ps.PRECISION).div(10**ps.coins[coinIndex].decimals());\r\n        return amountOfStableCoins * stableCoinPrice() / ps.PRECISION;\r\n    }\r\n    \r\n    //Returning in pool token PRECISION\r\n    function stableCoinPrice() public view returns(uint256){\r\n        PoolStorage storage ps = poolStorage();\r\n        return (ps.poolToken.totalSupply() == 0 || ps.totalStaked == 0) ? ps.PRECISION : ps.PRECISION * ps.poolToken.totalSupply()/ps.totalStaked;\r\n    }\r\n    \r\n       //RETURNING IN COIN PRECISION\r\n    function calculateStableCoins(uint256 amountOfPoolToken, uint256 coinIndex) public view returns(uint256){\r\n        PoolStorage storage ps = poolStorage();\r\n        amountOfPoolToken = amountOfPoolToken * poolTokenPrice() / ps.PRECISION;\r\n        return amountOfPoolToken.mul(10 ** ps.coins[coinIndex].decimals()).div(ps.PRECISION);\r\n    }\r\n    \r\n     function poolTokenPrice() public view returns(uint256){\r\n        PoolStorage storage ps = poolStorage();\r\n        return (ps.poolToken.totalSupply() == 0 || ps.totalStaked == 0) ? ps.PRECISION : ps.PRECISION * ps.totalStaked/ps.poolToken.totalSupply();\r\n    }\r\n    \r\n    \r\n    // returning max number of pool token that can be burnt\r\n    // if min is also less than actual\r\n    function maxBurnAllowed(uint256 coinIndex) public view returns(uint256){\r\n        uint256 maxTokenAmount = minLiquidityToMaintainInPool(coinIndex)/2;\r\n        return calculatePoolTokens(maxTokenAmount, coinIndex);\r\n    }\r\n    \r\n    function feesCollected(uint256 coinIndex) public view returns(uint256){\r\n        PoolStorage storage ps = poolStorage();\r\n        return ps.feesCollected[coinIndex];\r\n    }\r\n\r\n    function currentLiquidity(uint256 coinIndex) public view returns(uint256){\r\n        PoolStorage storage ps = poolStorage();\r\n        return ps.poolBalances[coinIndex] - ps.coinsDepositInStrategy[coinIndex];\r\n    }\r\n   \r\n    function idealAmount(uint256 coinIndex) public view returns(uint256){\r\n        PoolStorage storage ps = poolStorage();\r\n        return ps.poolBalances[coinIndex] * (ps.minLiquidity + ps.maxLiquidity) / (2 * ps.DENOMINATOR);\r\n    }\r\n     \r\n    function maxLiquidityAllowedInPool(uint256 coinIndex) public view returns(uint256){\r\n        PoolStorage storage ps = poolStorage();\r\n        return ps.poolBalances[coinIndex] * ps.maxLiquidity / ps.DENOMINATOR;\r\n    }\r\n\r\n    function amountToDeposit(uint256 coinIndex) public view returns(uint256){\r\n        return currentLiquidity(coinIndex) <= maxLiquidityAllowedInPool(coinIndex) ? 0 : currentLiquidity(coinIndex) - idealAmount(coinIndex);\r\n    }\r\n    \r\n      \r\n    function minLiquidityToMaintainInPool(uint256 coinIndex) public view returns(uint256){\r\n        PoolStorage storage ps = poolStorage();\r\n        return ps.poolBalances[coinIndex] * ps.minLiquidity / ps.DENOMINATOR;\r\n    }\r\n   \r\n    function amountToWithdraw(uint256 coinIndex) public view returns(uint256){\r\n        PoolStorage storage ps = poolStorage();\r\n        return currentLiquidity(coinIndex) > minLiquidityToMaintainInPool(coinIndex) || ps.coinsDepositInStrategy[coinIndex] == 0 || ps.coinsDepositInStrategy[coinIndex] < idealAmount(coinIndex) - currentLiquidity(coinIndex) ? 0 : idealAmount(coinIndex) - currentLiquidity(coinIndex);\r\n    }\r\n    \r\n}",
  "sourcePath": "E:/New Desktop/Projects/AdvancedPool/contracts/facets/AdvancedPool.sol",
  "compiler": {
    "name": "solc",
    "version": "0.7.6+commit.7338295f.Emscripten.clang"
  },
  "schemaVersion": "3.3.2",
  "updatedAt": "2021-04-18T18:52:06.054Z",
  "networkType": "ethereum",
  "devdoc": {
    "kind": "dev",
    "methods": {},
    "version": 1
  },
  "userdoc": {
    "kind": "user",
    "methods": {},
    "version": 1
  }
}