{
  "contractName": "TriPoolStrategy",
  "abi": [
    {
      "inputs": [
        {
          "internalType": "contract Pool",
          "name": "_poolAddress",
          "type": "address"
        },
        {
          "internalType": "contract Gauge",
          "name": "_gauge",
          "type": "address"
        },
        {
          "internalType": "contract Minter",
          "name": "_minter",
          "type": "address"
        },
        {
          "internalType": "contract IERC20",
          "name": "_crvToken",
          "type": "address"
        },
        {
          "internalType": "contract IERC20",
          "name": "_poolToken",
          "type": "address"
        },
        {
          "internalType": "contract VotingEscrow",
          "name": "_votingEscrow",
          "type": "address"
        },
        {
          "internalType": "contract FeeDistributor",
          "name": "_feeDistributor",
          "type": "address"
        },
        {
          "internalType": "contract IERC20[3]",
          "name": "_coins",
          "type": "address[3]"
        },
        {
          "internalType": "contract UniswapV2Router",
          "name": "_uniswapRouter",
          "type": "address"
        },
        {
          "internalType": "address",
          "name": "_poolOwner",
          "type": "address"
        },
        {
          "internalType": "uint256",
          "name": "_crvLockPercent",
          "type": "uint256"
        }
      ],
      "name": "initialize",
      "outputs": [],
      "stateMutability": "nonpayable",
      "type": "function"
    },
    {
      "inputs": [
        {
          "internalType": "address",
          "name": "newOwner",
          "type": "address"
        }
      ],
      "name": "transferOwnership",
      "outputs": [
        {
          "internalType": "bool",
          "name": "",
          "type": "bool"
        }
      ],
      "stateMutability": "nonpayable",
      "type": "function"
    },
    {
      "inputs": [
        {
          "internalType": "contract IERC20",
          "name": "_rewardCoin",
          "type": "address"
        }
      ],
      "name": "setRewardCoin",
      "outputs": [
        {
          "internalType": "bool",
          "name": "",
          "type": "bool"
        }
      ],
      "stateMutability": "nonpayable",
      "type": "function"
    },
    {
      "inputs": [
        {
          "internalType": "uint256[10]",
          "name": "amounts",
          "type": "uint256[10]"
        }
      ],
      "name": "deposit",
      "outputs": [],
      "stateMutability": "nonpayable",
      "type": "function"
    },
    {
      "inputs": [
        {
          "internalType": "uint256[10]",
          "name": "amounts",
          "type": "uint256[10]"
        }
      ],
      "name": "withdraw",
      "outputs": [],
      "stateMutability": "nonpayable",
      "type": "function"
    },
    {
      "inputs": [],
      "name": "claimCRV",
      "outputs": [
        {
          "internalType": "uint256",
          "name": "",
          "type": "uint256"
        }
      ],
      "stateMutability": "nonpayable",
      "type": "function"
    },
    {
      "inputs": [
        {
          "internalType": "uint256",
          "name": "_value",
          "type": "uint256"
        },
        {
          "internalType": "uint256",
          "name": "_unlockTime",
          "type": "uint256"
        }
      ],
      "name": "createLock",
      "outputs": [],
      "stateMutability": "nonpayable",
      "type": "function"
    },
    {
      "inputs": [],
      "name": "releaseLock",
      "outputs": [],
      "stateMutability": "nonpayable",
      "type": "function"
    },
    {
      "inputs": [
        {
          "internalType": "uint256",
          "name": "_value",
          "type": "uint256"
        }
      ],
      "name": "increaseLockAmount",
      "outputs": [],
      "stateMutability": "nonpayable",
      "type": "function"
    },
    {
      "inputs": [],
      "name": "claimAndConvert3CRV",
      "outputs": [
        {
          "internalType": "uint256",
          "name": "",
          "type": "uint256"
        }
      ],
      "stateMutability": "nonpayable",
      "type": "function"
    },
    {
      "inputs": [
        {
          "internalType": "uint256",
          "name": "amount",
          "type": "uint256"
        }
      ],
      "name": "convertCRV",
      "outputs": [
        {
          "internalType": "uint256",
          "name": "",
          "type": "uint256"
        }
      ],
      "stateMutability": "nonpayable",
      "type": "function"
    }
  ],
  "bytecode": "0x608060405234801561001057600080fd5b50612bf3806100206000396000f3fe608060405234801561001057600080fd5b50600436106100a95760003560e01c8063b52c05fe11610071578063b52c05fe14610358578063b7fdf78414610390578063badcac39146103ea578063eb24280a1461042c578063eda54ad21461044a578063f2fde38b14610454576100a9565b8063403f4447146100ae57806345ce0360146100dc57806348f8f6d91461014357806390fcd6e014610161578063a9834c6d146102f1575b600080fd5b6100da600480360360208110156100c457600080fd5b81019080803590602001909291905050506104ae565b005b61014160048036036101408110156100f357600080fd5b81019080806101400190600a806020026040519081016040528092919082600a60200280828437600081840152601f19601f82011690508083019250505050505091929192905050506105e6565b005b61014b610a9e565b6040518082815260200191505060405180910390f35b6102ef60048036036101a081101561017857600080fd5b81019080803573ffffffffffffffffffffffffffffffffffffffff169060200190929190803573ffffffffffffffffffffffffffffffffffffffff169060200190929190803573ffffffffffffffffffffffffffffffffffffffff169060200190929190803573ffffffffffffffffffffffffffffffffffffffff169060200190929190803573ffffffffffffffffffffffffffffffffffffffff169060200190929190803573ffffffffffffffffffffffffffffffffffffffff169060200190929190803573ffffffffffffffffffffffffffffffffffffffff16906020019092919080606001906003806020026040519081016040528092919082600360200280828437600081840152601f19601f8201169050808301925050505050509192919290803573ffffffffffffffffffffffffffffffffffffffff169060200190929190803573ffffffffffffffffffffffffffffffffffffffff16906020019092919080359060200190929190505050610d72565b005b610356600480360361014081101561030857600080fd5b81019080806101400190600a806020026040519081016040528092919082600a60200280828437600081840152601f19601f82011690508083019250505050505091929192905050506110b1565b005b61038e6004803603604081101561036e57600080fd5b8101908080359060200190929190803590602001909291905050506113db565b005b6103d2600480360360208110156103a657600080fd5b81019080803573ffffffffffffffffffffffffffffffffffffffff16906020019092919050505061151c565b60405180821515815260200191505060405180910390f35b6104166004803603602081101561040057600080fd5b8101908080359060200190929190505050611691565b6040518082815260200191505060405180910390f35b610434611ded565b6040518082815260200191505060405180910390f35b610452612384565b005b6104966004803603602081101561046a57600080fd5b81019080803573ffffffffffffffffffffffffffffffffffffffff16906020019092919050505061260e565b60405180821515815260200191505060405180910390f35b60006104b861273a565b905080600f0154821115610534576040517f08c379a00000000000000000000000000000000000000000000000000000000081526004018080602001828103825260108152602001807f496e73756666696369656e74204352560000000000000000000000000000000081525060200191505060405180910390fd5b61054b8282600f015461276790919063ffffffff16565b81600f01819055508060090160009054906101000a900473ffffffffffffffffffffffffffffffffffffffff1673ffffffffffffffffffffffffffffffffffffffff16634957677c836040518263ffffffff1660e01b815260040180828152602001915050600060405180830381600087803b1580156105ca57600080fd5b505af11580156105de573d6000803e3d6000fd5b505050505050565b60006105f061273a565b90503373ffffffffffffffffffffffffffffffffffffffff1681600c0160009054906101000a900473ffffffffffffffffffffffffffffffffffffffff1673ffffffffffffffffffffffffffffffffffffffff16146106b7576040517f08c379a00000000000000000000000000000000000000000000000000000000081526004018080602001828103825260198152602001807f4f6e6c7920706f6f6c4f776e65722063616e2063616c6c21210000000000000081525060200191505060405180910390fd5b60006106c161273a565b905060006106cd612b01565b60005b6003811015610729578581600a81106106e557fe5b60200201518282600381106106f657fe5b602002018181525050600082826003811061070d57fe5b6020020151111561071c578092505b80806001019150506106d0565b5060008360070160009054906101000a900473ffffffffffffffffffffffffffffffffffffffff1673ffffffffffffffffffffffffffffffffffffffff166370a08231306040518263ffffffff1660e01b8152600401808273ffffffffffffffffffffffffffffffffffffffff16815260200191505060206040518083038186803b1580156107b757600080fd5b505afa1580156107cb573d6000803e3d6000fd5b505050506040513d60208110156107e157600080fd5b810190808051906020019092919050505090506107fd816127b1565b8360060160009054906101000a900473ffffffffffffffffffffffffffffffffffffffff1673ffffffffffffffffffffffffffffffffffffffff16639fdaea0c83836040518363ffffffff1660e01b81526004018083600360200280838360005b8381101561087957808201518184015260208101905061085e565b5050505090500182815260200192505050600060405180830381600087803b1580156108a457600080fd5b505af11580156108b8573d6000803e3d6000fd5b505050508360010183600381106108cb57fe5b0160009054906101000a900473ffffffffffffffffffffffffffffffffffffffff1673ffffffffffffffffffffffffffffffffffffffff1663a9059cbb85600c0160009054906101000a900473ffffffffffffffffffffffffffffffffffffffff1686600101866003811061093c57fe5b0160009054906101000a900473ffffffffffffffffffffffffffffffffffffffff1673ffffffffffffffffffffffffffffffffffffffff166370a08231306040518263ffffffff1660e01b8152600401808273ffffffffffffffffffffffffffffffffffffffff16815260200191505060206040518083038186803b1580156109c457600080fd5b505afa1580156109d8573d6000803e3d6000fd5b505050506040513d60208110156109ee57600080fd5b81019080805190602001909291905050506040518363ffffffff1660e01b8152600401808373ffffffffffffffffffffffffffffffffffffffff16815260200182815260200192505050602060405180830381600087803b158015610a5257600080fd5b505af1158015610a66573d6000803e3d6000fd5b505050506040513d6020811015610a7c57600080fd5b810190808051906020019092919050505050610a96612850565b505050505050565b600080610aa961273a565b905060008160040160009054906101000a900473ffffffffffffffffffffffffffffffffffffffff1673ffffffffffffffffffffffffffffffffffffffff166370a08231306040518263ffffffff1660e01b8152600401808273ffffffffffffffffffffffffffffffffffffffff16815260200191505060206040518083038186803b158015610b3857600080fd5b505afa158015610b4c573d6000803e3d6000fd5b505050506040513d6020811015610b6257600080fd5b810190808051906020019092919050505090508160080160009054906101000a900473ffffffffffffffffffffffffffffffffffffffff1673ffffffffffffffffffffffffffffffffffffffff16636a6278428360070160009054906101000a900473ffffffffffffffffffffffffffffffffffffffff166040518263ffffffff1660e01b8152600401808273ffffffffffffffffffffffffffffffffffffffff168152602001915050600060405180830381600087803b158015610c2657600080fd5b505af1158015610c3a573d6000803e3d6000fd5b5050505060008260040160009054906101000a900473ffffffffffffffffffffffffffffffffffffffff1673ffffffffffffffffffffffffffffffffffffffff166370a08231306040518263ffffffff1660e01b8152600401808273ffffffffffffffffffffffffffffffffffffffff16815260200191505060206040518083038186803b158015610ccb57600080fd5b505afa158015610cdf573d6000803e3d6000fd5b505050506040513d6020811015610cf557600080fd5b81019080805190602001909291905050509050600082820390506000846011015485600e0154830281610d2457fe5b049050610d3e8186600f01546129b990919063ffffffff16565b85600f0181905550610d5f81830386600d01546129b990919063ffffffff16565b85600d0181905550819550505050505090565b6000610d7c61273a565b90508060000160009054906101000a900460ff1615610e03576040517f08c379a00000000000000000000000000000000000000000000000000000000081526004018080602001828103825260138152602001807f416c726561647920696e697469616c697a65640000000000000000000000000081525060200191505060405180910390fd5b8b8160060160006101000a81548173ffffffffffffffffffffffffffffffffffffffff021916908373ffffffffffffffffffffffffffffffffffffffff1602179055508a8160070160006101000a81548173ffffffffffffffffffffffffffffffffffffffff021916908373ffffffffffffffffffffffffffffffffffffffff160217905550898160080160006101000a81548173ffffffffffffffffffffffffffffffffffffffff021916908373ffffffffffffffffffffffffffffffffffffffff160217905550888160040160006101000a81548173ffffffffffffffffffffffffffffffffffffffff021916908373ffffffffffffffffffffffffffffffffffffffff160217905550868160090160006101000a81548173ffffffffffffffffffffffffffffffffffffffff021916908373ffffffffffffffffffffffffffffffffffffffff1602179055508581600a0160006101000a81548173ffffffffffffffffffffffffffffffffffffffff021916908373ffffffffffffffffffffffffffffffffffffffff1602179055508481600101906003610fa8929190612b23565b508381600b0160006101000a81548173ffffffffffffffffffffffffffffffffffffffff021916908373ffffffffffffffffffffffffffffffffffffffff1602179055508281600c0160006101000a81548173ffffffffffffffffffffffffffffffffffffffff021916908373ffffffffffffffffffffffffffffffffffffffff160217905550878160050160006101000a81548173ffffffffffffffffffffffffffffffffffffffff021916908373ffffffffffffffffffffffffffffffffffffffff1602179055508181600e0181905550612710816011018190555060018160000160006101000a81548160ff021916908315150217905550505050505050505050505050565b60006110bb61273a565b90503373ffffffffffffffffffffffffffffffffffffffff1681600c0160009054906101000a900473ffffffffffffffffffffffffffffffffffffffff1673ffffffffffffffffffffffffffffffffffffffff1614611182576040517f08c379a00000000000000000000000000000000000000000000000000000000081526004018080602001828103825260198152602001807f4f6e6c7920706f6f6c4f776e65722063616e2063616c6c21210000000000000081525060200191505060405180910390fd5b600061118c61273a565b9050611196612b01565b60005b60038160ff16101561130c57848160ff16600a81106111b457fe5b6020020151828260ff16600381106111c857fe5b6020020181815250506000858260ff16600a81106111e257fe5b602002015111156112ff57826001018160ff16600381106111ff57fe5b0160009054906101000a900473ffffffffffffffffffffffffffffffffffffffff1673ffffffffffffffffffffffffffffffffffffffff166323b872dd3330888560ff16600a811061124d57fe5b60200201516040518463ffffffff1660e01b8152600401808473ffffffffffffffffffffffffffffffffffffffff1681526020018373ffffffffffffffffffffffffffffffffffffffff1681526020018281526020019350505050602060405180830381600087803b1580156112c257600080fd5b505af11580156112d6573d6000803e3d6000fd5b505050506040513d60208110156112ec57600080fd5b8101908080519060200190929190505050505b8080600101915050611199565b508160060160009054906101000a900473ffffffffffffffffffffffffffffffffffffffff1673ffffffffffffffffffffffffffffffffffffffff16634515cef38260006040518363ffffffff1660e01b81526004018083600360200280838360005b8381101561138a57808201518184015260208101905061136f565b5050505090500182815260200192505050600060405180830381600087803b1580156113b557600080fd5b505af11580156113c9573d6000803e3d6000fd5b505050506113d5612850565b50505050565b60006113e561273a565b905080600f0154831115611461576040517f08c379a00000000000000000000000000000000000000000000000000000000081526004018080602001828103825260108152602001807f496e73756666696369656e74204352560000000000000000000000000000000081525060200191505060405180910390fd5b6114788382600f015461276790919063ffffffff16565b81600f01819055508060090160009054906101000a900473ffffffffffffffffffffffffffffffffffffffff1673ffffffffffffffffffffffffffffffffffffffff166365fc387384846040518363ffffffff1660e01b81526004018083815260200182815260200192505050600060405180830381600087803b1580156114ff57600080fd5b505af1158015611513573d6000803e3d6000fd5b50505050505050565b60008061152761273a565b90503373ffffffffffffffffffffffffffffffffffffffff1681600c0160009054906101000a900473ffffffffffffffffffffffffffffffffffffffff1673ffffffffffffffffffffffffffffffffffffffff16146115ee576040517f08c379a00000000000000000000000000000000000000000000000000000000081526004018080602001828103825260198152602001807f4f6e6c7920706f6f6c4f776e65722063616e2063616c6c21210000000000000081525060200191505060405180910390fd5b60006115f861273a565b905060005b6003811015611685578473ffffffffffffffffffffffffffffffffffffffff1682600101826003811061162c57fe5b0160009054906101000a900473ffffffffffffffffffffffffffffffffffffffff1673ffffffffffffffffffffffffffffffffffffffff16141561167857808260100181905550611685565b80806001019150506115fd565b50600192505050919050565b60008061169c61273a565b905080600d0154831115611718576040517f08c379a00000000000000000000000000000000000000000000000000000000081526004018080602001828103825260128152602001807f696e73756666696369656e7420746f6b656e000000000000000000000000000081525060200191505060405180910390fd5b61172f8382600d015461276790919063ffffffff16565b81600d018190555060008160010182601001546003811061174c57fe5b0160009054906101000a900473ffffffffffffffffffffffffffffffffffffffff1673ffffffffffffffffffffffffffffffffffffffff166370a08231306040518263ffffffff1660e01b8152600401808273ffffffffffffffffffffffffffffffffffffffff16815260200191505060206040518083038186803b1580156117d457600080fd5b505afa1580156117e8573d6000803e3d6000fd5b505050506040513d60208110156117fe57600080fd5b810190808051906020019092919050505090506000600367ffffffffffffffff8111801561182b57600080fd5b5060405190808252806020026020018201604052801561185a5781602001602082028036833780820191505090505b5090508260040160009054906101000a900473ffffffffffffffffffffffffffffffffffffffff168160008151811061188f57fe5b602002602001019073ffffffffffffffffffffffffffffffffffffffff16908173ffffffffffffffffffffffffffffffffffffffff168152505082600b0160009054906101000a900473ffffffffffffffffffffffffffffffffffffffff1673ffffffffffffffffffffffffffffffffffffffff1663ad5c46486040518163ffffffff1660e01b815260040160206040518083038186803b15801561193357600080fd5b505afa158015611947573d6000803e3d6000fd5b505050506040513d602081101561195d57600080fd5b81019080805190602001909291905050508160018151811061197b57fe5b602002602001019073ffffffffffffffffffffffffffffffffffffffff16908173ffffffffffffffffffffffffffffffffffffffff1681525050826001018360100154600381106119c857fe5b0160009054906101000a900473ffffffffffffffffffffffffffffffffffffffff16816002815181106119f757fe5b602002602001019073ffffffffffffffffffffffffffffffffffffffff16908173ffffffffffffffffffffffffffffffffffffffff168152505082600b0160009054906101000a900473ffffffffffffffffffffffffffffffffffffffff1673ffffffffffffffffffffffffffffffffffffffff166338ed1739866000843061070842016040518663ffffffff1660e01b815260040180868152602001858152602001806020018473ffffffffffffffffffffffffffffffffffffffff168152602001838152602001828103825285818151815260200191508051906020019060200280838360005b83811015611afb578082015181840152602081019050611ae0565b505050509050019650505050505050600060405180830381600087803b158015611b2457600080fd5b505af1158015611b38573d6000803e3d6000fd5b505050506040513d6000823e3d601f19601f820116820180604052506020811015611b6257600080fd5b8101908080516040519392919084640100000000821115611b8257600080fd5b83820191506020820185811115611b9857600080fd5b8251866020820283011164010000000082111715611bb557600080fd5b8083526020830192505050908051906020019060200280838360005b83811015611bec578082015181840152602081019050611bd1565b5050505090500160405250505050600083600101846010015460038110611c0f57fe5b0160009054906101000a900473ffffffffffffffffffffffffffffffffffffffff1673ffffffffffffffffffffffffffffffffffffffff166370a08231306040518263ffffffff1660e01b8152600401808273ffffffffffffffffffffffffffffffffffffffff16815260200191505060206040518083038186803b158015611c9757600080fd5b505afa158015611cab573d6000803e3d6000fd5b505050506040513d6020811015611cc157600080fd5b810190808051906020019092919050505090506000838203905084600101856010015460038110611cee57fe5b0160009054906101000a900473ffffffffffffffffffffffffffffffffffffffff1673ffffffffffffffffffffffffffffffffffffffff1663a9059cbb86600c0160009054906101000a900473ffffffffffffffffffffffffffffffffffffffff16836040518363ffffffff1660e01b8152600401808373ffffffffffffffffffffffffffffffffffffffff16815260200182815260200192505050602060405180830381600087803b158015611da457600080fd5b505af1158015611db8573d6000803e3d6000fd5b505050506040513d6020811015611dce57600080fd5b8101908080519060200190929190505050508095505050505050919050565b600080611df861273a565b905060008160050160009054906101000a900473ffffffffffffffffffffffffffffffffffffffff1673ffffffffffffffffffffffffffffffffffffffff166370a08231306040518263ffffffff1660e01b8152600401808273ffffffffffffffffffffffffffffffffffffffff16815260200191505060206040518083038186803b158015611e8757600080fd5b505afa158015611e9b573d6000803e3d6000fd5b505050506040513d6020811015611eb157600080fd5b8101908080519060200190929190505050905081600a0160009054906101000a900473ffffffffffffffffffffffffffffffffffffffff1673ffffffffffffffffffffffffffffffffffffffff16634e71d92d6040518163ffffffff1660e01b8152600401600060405180830381600087803b158015611f3057600080fd5b505af1158015611f44573d6000803e3d6000fd5b5050505060008260050160009054906101000a900473ffffffffffffffffffffffffffffffffffffffff1673ffffffffffffffffffffffffffffffffffffffff166370a08231306040518263ffffffff1660e01b8152600401808273ffffffffffffffffffffffffffffffffffffffff16815260200191505060206040518083038186803b158015611fd557600080fd5b505afa158015611fe9573d6000803e3d6000fd5b505050506040513d6020811015611fff57600080fd5b81019080805190602001909291905050509050600082820390508360010184601001546003811061202c57fe5b0160009054906101000a900473ffffffffffffffffffffffffffffffffffffffff1673ffffffffffffffffffffffffffffffffffffffff166370a08231306040518263ffffffff1660e01b8152600401808273ffffffffffffffffffffffffffffffffffffffff16815260200191505060206040518083038186803b1580156120b457600080fd5b505afa1580156120c8573d6000803e3d6000fd5b505050506040513d60208110156120de57600080fd5b810190808051906020019092919050505092508360060160009054906101000a900473ffffffffffffffffffffffffffffffffffffffff1673ffffffffffffffffffffffffffffffffffffffff16631a4d01d282866010015460006040518463ffffffff1660e01b81526004018084815260200183600f0b81526020018281526020019350505050600060405180830381600087803b15801561218057600080fd5b505af1158015612194573d6000803e3d6000fd5b50505050836001018460100154600381106121ab57fe5b0160009054906101000a900473ffffffffffffffffffffffffffffffffffffffff1673ffffffffffffffffffffffffffffffffffffffff166370a08231306040518263ffffffff1660e01b8152600401808273ffffffffffffffffffffffffffffffffffffffff16815260200191505060206040518083038186803b15801561223357600080fd5b505afa158015612247573d6000803e3d6000fd5b505050506040513d602081101561225d57600080fd5b8101908080519060200190929190505050915082820390508360010184601001546003811061228857fe5b0160009054906101000a900473ffffffffffffffffffffffffffffffffffffffff1673ffffffffffffffffffffffffffffffffffffffff1663a9059cbb85600c0160009054906101000a900473ffffffffffffffffffffffffffffffffffffffff16836040518363ffffffff1660e01b8152600401808373ffffffffffffffffffffffffffffffffffffffff16815260200182815260200192505050602060405180830381600087803b15801561233e57600080fd5b505af1158015612352573d6000803e3d6000fd5b505050506040513d602081101561236857600080fd5b8101908080519060200190929190505050508094505050505090565b600061238e61273a565b905060008160040160009054906101000a900473ffffffffffffffffffffffffffffffffffffffff1673ffffffffffffffffffffffffffffffffffffffff166370a08231306040518263ffffffff1660e01b8152600401808273ffffffffffffffffffffffffffffffffffffffff16815260200191505060206040518083038186803b15801561241d57600080fd5b505afa158015612431573d6000803e3d6000fd5b505050506040513d602081101561244757600080fd5b810190808051906020019092919050505090508160090160009054906101000a900473ffffffffffffffffffffffffffffffffffffffff1673ffffffffffffffffffffffffffffffffffffffff16633ccfd60b6040518163ffffffff1660e01b8152600401600060405180830381600087803b1580156124c657600080fd5b505af11580156124da573d6000803e3d6000fd5b5050505060008260040160009054906101000a900473ffffffffffffffffffffffffffffffffffffffff1673ffffffffffffffffffffffffffffffffffffffff166370a08231306040518263ffffffff1660e01b8152600401808273ffffffffffffffffffffffffffffffffffffffff16815260200191505060206040518083038186803b15801561256b57600080fd5b505afa15801561257f573d6000803e3d6000fd5b505050506040513d602081101561259557600080fd5b81019080805190602001909291905050509050600082820390506000846011015485600e01548302816125c457fe5b0490506125de8186600f01546129b990919063ffffffff16565b85600f01819055506125ff81830386600d01546129b990919063ffffffff16565b85600d01819055505050505050565b60008061261961273a565b90503373ffffffffffffffffffffffffffffffffffffffff1681600c0160009054906101000a900473ffffffffffffffffffffffffffffffffffffffff1673ffffffffffffffffffffffffffffffffffffffff16146126e0576040517f08c379a00000000000000000000000000000000000000000000000000000000081526004018080602001828103825260198152602001807f4f6e6c7920706f6f6c4f776e65722063616e2063616c6c21210000000000000081525060200191505060405180910390fd5b60006126ea61273a565b90508381600c0160006101000a81548173ffffffffffffffffffffffffffffffffffffffff021916908373ffffffffffffffffffffffffffffffffffffffff160217905550600192505050919050565b6000807fa506df5f541d029605b005e2b87f8940c5564e1681adf4fd4a0c5e76b5d54ac990508091505090565b60006127a983836040518060400160405280601f81526020017f536166654d6174683a207375627472616374696f6e20756e646572666c6f7700815250612a41565b905092915050565b60006127bb61273a565b90508060070160009054906101000a900473ffffffffffffffffffffffffffffffffffffffff1673ffffffffffffffffffffffffffffffffffffffff16632e1a7d4d836040518263ffffffff1660e01b815260040180828152602001915050600060405180830381600087803b15801561283457600080fd5b505af1158015612848573d6000803e3d6000fd5b505050505050565b600061285a61273a565b905060008160050160009054906101000a900473ffffffffffffffffffffffffffffffffffffffff1673ffffffffffffffffffffffffffffffffffffffff166370a08231306040518263ffffffff1660e01b8152600401808273ffffffffffffffffffffffffffffffffffffffff16815260200191505060206040518083038186803b1580156128e957600080fd5b505afa1580156128fd573d6000803e3d6000fd5b505050506040513d602081101561291357600080fd5b810190808051906020019092919050505090508160070160009054906101000a900473ffffffffffffffffffffffffffffffffffffffff1673ffffffffffffffffffffffffffffffffffffffff1663b6b55f25826040518263ffffffff1660e01b815260040180828152602001915050600060405180830381600087803b15801561299d57600080fd5b505af11580156129b1573d6000803e3d6000fd5b505050505050565b600080828401905083811015612a37576040517f08c379a000000000000000000000000000000000000000000000000000000000815260040180806020018281038252601b8152602001807f536166654d6174683a206164646974696f6e206f766572666c6f77000000000081525060200191505060405180910390fd5b8091505092915050565b6000838311158290612aee576040517f08c379a00000000000000000000000000000000000000000000000000000000081526004018080602001828103825283818151815260200191508051906020019080838360005b83811015612ab3578082015181840152602081019050612a98565b50505050905090810190601f168015612ae05780820380516001836020036101000a031916815260200191505b509250505060405180910390fd5b5060008385039050809150509392505050565b6040518060600160405280600390602082028036833780820191505090505090565b8260038101928215612b8f579160200282015b82811115612b8e5782518260006101000a81548173ffffffffffffffffffffffffffffffffffffffff021916908373ffffffffffffffffffffffffffffffffffffffff16021790555091602001919060010190612b36565b5b509050612b9c9190612ba0565b5090565b5b80821115612bb9576000816000905550600101612ba1565b509056fea26469706673582212206aa552e039ced6b59ee890253c06c729590c7b7ab4e459c12256de81762d01e664736f6c63430007060033",
  "immutableReferences": {},
  "source": "// SPDX-License-Identifier: UNLICENSED\r\npragma solidity ^0.7.6;\r\nimport \"../storage/StrategyStorage.sol\";\r\nimport \"../libraries/SafeMath.sol\";\r\n\r\ncontract TriPoolStrategy is StrategyStorageV1 {\r\n    \r\n    using SafeMath for uint256;\r\n    \r\n  \r\n/****MODIFIERS****/\r\n    modifier onlyPoolOnwer(){\r\n        StrategyStorage storage ss = strategyStorage();\r\n        require(ss.poolOwner == msg.sender, \"Only poolOwner can call!!\");\r\n        _;\r\n    }\r\n    \r\n/****CONSTRUCTOR****/\r\n    function initialize(\r\n        Pool _poolAddress,\r\n        Gauge _gauge, \r\n        Minter _minter, \r\n        IERC20 _crvToken, \r\n        IERC20 _poolToken,\r\n        VotingEscrow _votingEscrow,\r\n        FeeDistributor _feeDistributor,\r\n        IERC20[3] memory _coins,\r\n        UniswapV2Router _uniswapRouter,\r\n        address _poolOwner,\r\n        uint256 _crvLockPercent\r\n        \r\n    ) public{\r\n        StrategyStorage storage ss = strategyStorage();\r\n        require(!ss.initialized, 'Already initialized');\r\n        ss.poolAddress = _poolAddress;\r\n        ss.gauge = _gauge;\r\n        ss.minter = _minter;\r\n        ss.crvToken = _crvToken;\r\n        ss.votingEscrow = _votingEscrow;\r\n        ss.feeDistributor = _feeDistributor;\r\n        ss.coins = _coins;\r\n        ss.uniswapRouter = _uniswapRouter; \r\n        ss.poolOwner = _poolOwner;\r\n        ss.poolToken = _poolToken;\r\n        ss.crvLockPercent = _crvLockPercent;\r\n        ss.DENOMINATOR = 10000;\r\n        ss.initialized = true;\r\n    }\r\n\r\n/****POOLOWNER FUNCTIONS****/\r\n\r\n    function transferOwnership(address newOwner) external onlyPoolOnwer() returns(bool){\r\n        StrategyStorage storage ss = strategyStorage();\r\n        ss.poolOwner = newOwner;\r\n        return true;\r\n    } \r\n    \r\n    function setRewardCoin(IERC20 _rewardCoin) external onlyPoolOnwer() returns(bool){\r\n        StrategyStorage storage ss = strategyStorage();\r\n        for(uint256 i = 0; i < ss.coins.length; i++){\r\n            if(ss.coins[i] == _rewardCoin){\r\n                ss.rewardCoin = i;\r\n                break;\r\n            }\r\n        }\r\n        return true;\r\n    }\r\n    \r\n    function deposit(uint256[10] memory amounts) external onlyPoolOnwer(){\r\n        StrategyStorage storage ss = strategyStorage();\r\n        uint256[3] memory updatedAmounts;\r\n        for(uint8 i = 0 ; i < updatedAmounts.length; i++){\r\n            updatedAmounts[i] = amounts[i];\r\n            if(amounts[i] > 0){\r\n                ss.coins[i].transferFrom(msg.sender, address(this), amounts[i]);\r\n                // ss.coins[i].approve(address(ss.poolAddress), amounts[i]);\r\n            }\r\n        }\r\n        ss.poolAddress.add_liquidity(updatedAmounts, 0);\r\n        stake();\r\n    }\r\n    \r\n    function withdraw(uint256[10] memory amounts) external onlyPoolOnwer(){\r\n        StrategyStorage storage ss = strategyStorage();\r\n        uint coinIndex;\r\n        uint256[3] memory updatedAmounts;\r\n        for(uint256 i = 0 ; i < updatedAmounts.length; i++){\r\n            updatedAmounts[i] = amounts[i];\r\n            if(updatedAmounts[i] > 0 ){\r\n                coinIndex = i;\r\n            }\r\n        }\r\n        uint256 unstakeAmount = ss.gauge.balanceOf(address(this));\r\n        unStake(unstakeAmount);\r\n        ss.poolAddress.remove_liquidity_imbalance(updatedAmounts,unstakeAmount);\r\n        ss.coins[coinIndex].transfer(ss.poolOwner, ss.coins[coinIndex].balanceOf(address(this)));\r\n        stake();\r\n    }\r\n    \r\n/****INTERNAL FUNCTIONS****/\r\n\r\n    function stake() internal {\r\n        StrategyStorage storage ss = strategyStorage();\r\n        uint256 stakeAmount = ss.poolToken.balanceOf(address(this)) ;\r\n        // ss.poolToken.approve(address(ss.gauge), stakeAmount);\r\n        ss.gauge.deposit(stakeAmount);  \r\n    }\r\n    \r\n    function unStake(uint amount) internal{\r\n        StrategyStorage storage ss = strategyStorage();\r\n        ss.gauge.withdraw(amount);\r\n    }\r\n\r\n/****OPEN FUNCTIONS****/\r\n \r\n    function claimCRV() external returns(uint256){\r\n        StrategyStorage storage ss = strategyStorage();\r\n        uint256 oldBalance = ss.crvToken.balanceOf(address(this));\r\n        Minter(ss.minter).mint(address(ss.gauge));\r\n        uint256 newBalance = ss.crvToken.balanceOf(address(this));\r\n        uint256 crvReceived = newBalance - oldBalance;\r\n        uint256 crvToLock = crvReceived * ss.crvLockPercent / ss.DENOMINATOR;\r\n        ss.availableCRVToLock = ss.availableCRVToLock.add(crvToLock);\r\n        ss.availableCRVToSwap = ss.availableCRVToSwap.add(crvReceived - crvToLock);\r\n        return crvReceived;\r\n    }\r\n    \r\n    function createLock(uint256 _value, uint256 _unlockTime) external{\r\n        StrategyStorage storage ss = strategyStorage();\r\n        require(_value <= ss.availableCRVToLock, 'Insufficient CRV' );\r\n        ss.availableCRVToLock = ss.availableCRVToLock.sub(_value);\r\n        // ss.crvToken.approve(address(ss.votingEscrow), _value);\r\n        VotingEscrow(ss.votingEscrow).create_lock(_value, _unlockTime);\r\n    } \r\n    \r\n    function releaseLock() external{\r\n        StrategyStorage storage ss = strategyStorage();\r\n        uint256 oldBalance = ss.crvToken.balanceOf(address(this));\r\n        VotingEscrow(ss.votingEscrow).withdraw();  \r\n        uint256 newBalance = ss.crvToken.balanceOf(address(this));\r\n        uint256 crvReceived = newBalance - oldBalance;\r\n        uint256 crvToLock = crvReceived * ss.crvLockPercent / ss.DENOMINATOR;\r\n        ss.availableCRVToLock = ss.availableCRVToLock.add(crvToLock);\r\n        ss.availableCRVToSwap = ss.availableCRVToSwap.add(crvReceived - crvToLock);\r\n    }\r\n    \r\n    function increaseLockAmount(uint256 _value) external {\r\n        StrategyStorage storage ss = strategyStorage();\r\n        require(_value <= ss.availableCRVToLock, 'Insufficient CRV' );\r\n        ss.availableCRVToLock = ss.availableCRVToLock.sub(_value);\r\n        // ss.crvToken.approve(address(ss.votingEscrow), _value);\r\n        VotingEscrow(ss.votingEscrow).increase_amount(_value);\r\n    }\r\n   \r\n    function claimAndConvert3CRV() external returns(uint256){\r\n        StrategyStorage storage ss = strategyStorage();\r\n        uint256 oldBalance = ss.poolToken.balanceOf(address(this));\r\n        FeeDistributor(ss.feeDistributor).claim();\r\n        uint256 newBalance = ss.poolToken.balanceOf(address(this));\r\n        uint256 tokenReceived = newBalance - oldBalance;\r\n        oldBalance = ss.coins[ss.rewardCoin].balanceOf(address(this));\r\n        ss.poolAddress.remove_liquidity_one_coin(tokenReceived, int128(ss.rewardCoin), 0);\r\n        newBalance = ss.coins[ss.rewardCoin].balanceOf(address(this));\r\n        tokenReceived = newBalance - oldBalance;\r\n        ss.coins[ss.rewardCoin].transfer(ss.poolOwner, tokenReceived);\r\n        return tokenReceived;\r\n    }\r\n    \r\n    function convertCRV(uint256 amount) external returns(uint256) {\r\n        StrategyStorage storage ss = strategyStorage();\r\n        require(amount <= ss.availableCRVToSwap, \"insufficient token\");\r\n        ss.availableCRVToSwap = ss.availableCRVToSwap.sub(amount);\r\n        uint256 oldBalance = ss.coins[ss.rewardCoin].balanceOf(address(this));\r\n        // ss.crvToken.approve(address(ss.uniswapRouter), amount);\r\n        address[] memory path = new address[](3);\r\n        path[0] = address(ss.crvToken);\r\n        path[1] = ss.uniswapRouter.WETH();\r\n        path[2] = address(ss.coins[ss.rewardCoin]);\r\n        \r\n        ss.uniswapRouter.swapExactTokensForTokens(\r\n            amount, \r\n            uint256(0), \r\n            path, \r\n            address(this), \r\n            block.timestamp + 1800\r\n        );\r\n        \r\n        uint256 newBalance = ss.coins[ss.rewardCoin].balanceOf(address(this));\r\n        uint256 tokenReceived = newBalance - oldBalance;\r\n        ss.coins[ss.rewardCoin].transfer(ss.poolOwner, tokenReceived);\r\n        return tokenReceived;\r\n    }\r\n\r\n}",
  "sourcePath": "E:/New Desktop/Projects/AdvancedPool/contracts/facets/TripoolStrategy.sol",
  "compiler": {
    "name": "solc",
    "version": "0.7.6+commit.7338295f.Emscripten.clang"
  },
  "schemaVersion": "3.3.2",
  "updatedAt": "2021-04-16T06:08:42.583Z",
  "devdoc": {
    "kind": "dev",
    "methods": {},
    "version": 1
  },
  "userdoc": {
    "kind": "user",
    "methods": {},
    "version": 1
  }
}