{
  "contractName": "TriPoolStrategy",
  "abi": [
    {
      "inputs": [
        {
          "internalType": "contract Pool",
          "name": "_poolAddress",
          "type": "address"
        },
        {
          "internalType": "contract IERC20",
          "name": "_crvToken",
          "type": "address"
        },
        {
          "internalType": "contract IERC20",
          "name": "_poolToken",
          "type": "address"
        },
        {
          "internalType": "contract IERC20[3]",
          "name": "_coins",
          "type": "address[3]"
        },
        {
          "internalType": "contract UniswapV2Router",
          "name": "_uniswapRouter",
          "type": "address"
        },
        {
          "internalType": "address",
          "name": "_poolOwner",
          "type": "address"
        },
        {
          "internalType": "contract Controller",
          "name": "_controller",
          "type": "address"
        },
        {
          "internalType": "uint256",
          "name": "_coinIndex",
          "type": "uint256"
        }
      ],
      "name": "initialize",
      "outputs": [],
      "stateMutability": "nonpayable",
      "type": "function"
    },
    {
      "inputs": [
        {
          "internalType": "address",
          "name": "newOwner",
          "type": "address"
        }
      ],
      "name": "updateOwner",
      "outputs": [
        {
          "internalType": "bool",
          "name": "",
          "type": "bool"
        }
      ],
      "stateMutability": "nonpayable",
      "type": "function"
    },
    {
      "inputs": [
        {
          "internalType": "uint256",
          "name": "amount",
          "type": "uint256"
        }
      ],
      "name": "deposit",
      "outputs": [],
      "stateMutability": "nonpayable",
      "type": "function"
    },
    {
      "inputs": [
        {
          "internalType": "uint256",
          "name": "amount",
          "type": "uint256"
        }
      ],
      "name": "withdraw",
      "outputs": [],
      "stateMutability": "nonpayable",
      "type": "function"
    },
    {
      "inputs": [],
      "name": "claimAndConverCRV",
      "outputs": [
        {
          "internalType": "uint256",
          "name": "",
          "type": "uint256"
        }
      ],
      "stateMutability": "nonpayable",
      "type": "function"
    }
  ],
  "bytecode": "0x608060405234801561001057600080fd5b50611a45806100206000396000f3fe608060405234801561001057600080fd5b50600436106100575760003560e01c80630c32fd061461005c5780630ff4af351461018c5780632e1a7d4d146101aa578063880cdc31146101d8578063b6b55f2514610232575b600080fd5b61018a600480360361014081101561007357600080fd5b81019080803573ffffffffffffffffffffffffffffffffffffffff169060200190929190803573ffffffffffffffffffffffffffffffffffffffff169060200190929190803573ffffffffffffffffffffffffffffffffffffffff16906020019092919080606001906003806020026040519081016040528092919082600360200280828437600081840152601f19601f8201169050808301925050505050509192919290803573ffffffffffffffffffffffffffffffffffffffff169060200190929190803573ffffffffffffffffffffffffffffffffffffffff169060200190929190803573ffffffffffffffffffffffffffffffffffffffff16906020019092919080359060200190929190505050610260565b005b6101946104c8565b6040518082815260200191505060405180910390f35b6101d6600480360360208110156101c057600080fd5b8101908080359060200190929190505050610d60565b005b61021a600480360360208110156101ee57600080fd5b81019080803573ffffffffffffffffffffffffffffffffffffffff169060200190929190505050611113565b60405180821515815260200191505060405180910390f35b61025e6004803603602081101561024857600080fd5b810190808035906020019092919050505061123f565b005b600061026a611608565b90508060000160009054906101000a900460ff16156102f1576040517f08c379a00000000000000000000000000000000000000000000000000000000081526004018080602001828103825260138152602001807f416c726561647920696e697469616c697a65640000000000000000000000000081525060200191505060405180910390fd5b888160060160006101000a81548173ffffffffffffffffffffffffffffffffffffffff021916908373ffffffffffffffffffffffffffffffffffffffff160217905550878160040160006101000a81548173ffffffffffffffffffffffffffffffffffffffff021916908373ffffffffffffffffffffffffffffffffffffffff160217905550858160010190600361038a929190611953565b50848160070160006101000a81548173ffffffffffffffffffffffffffffffffffffffff021916908373ffffffffffffffffffffffffffffffffffffffff160217905550838160090160006101000a81548173ffffffffffffffffffffffffffffffffffffffff021916908373ffffffffffffffffffffffffffffffffffffffff160217905550868160050160006101000a81548173ffffffffffffffffffffffffffffffffffffffff021916908373ffffffffffffffffffffffffffffffffffffffff160217905550828160080160006101000a81548173ffffffffffffffffffffffffffffffffffffffff021916908373ffffffffffffffffffffffffffffffffffffffff1602179055508181600a018190555060018160000160006101000a81548160ff021916908315150217905550505050505050505050565b6000806104d3611608565b90508060080160009054906101000a900473ffffffffffffffffffffffffffffffffffffffff1673ffffffffffffffffffffffffffffffffffffffff166348f8f6d96040518163ffffffff1660e01b8152600401600060405180830381600087803b15801561054157600080fd5b505af1158015610555573d6000803e3d6000fd5b5050505060008160040160009054906101000a900473ffffffffffffffffffffffffffffffffffffffff1673ffffffffffffffffffffffffffffffffffffffff166370a08231306040518263ffffffff1660e01b8152600401808273ffffffffffffffffffffffffffffffffffffffff16815260200191505060206040518083038186803b1580156105e657600080fd5b505afa1580156105fa573d6000803e3d6000fd5b505050506040513d602081101561061057600080fd5b8101908080519060200190929190505050905060008111610699576040517f08c379a00000000000000000000000000000000000000000000000000000000081526004018080602001828103825260108152602001807f4e6f7468696e6720746f20636c61696d0000000000000000000000000000000081525060200191505060405180910390fd5b8160040160009054906101000a900473ffffffffffffffffffffffffffffffffffffffff1673ffffffffffffffffffffffffffffffffffffffff1663095ea7b38360070160009054906101000a900473ffffffffffffffffffffffffffffffffffffffff16836040518363ffffffff1660e01b8152600401808373ffffffffffffffffffffffffffffffffffffffff16815260200182815260200192505050602060405180830381600087803b15801561075257600080fd5b505af1158015610766573d6000803e3d6000fd5b505050506040513d602081101561077c57600080fd5b8101908080519060200190929190505050506000600367ffffffffffffffff811180156107a857600080fd5b506040519080825280602002602001820160405280156107d75781602001602082028036833780820191505090505b5090508260040160009054906101000a900473ffffffffffffffffffffffffffffffffffffffff168160008151811061080c57fe5b602002602001019073ffffffffffffffffffffffffffffffffffffffff16908173ffffffffffffffffffffffffffffffffffffffff16815250508260070160009054906101000a900473ffffffffffffffffffffffffffffffffffffffff1673ffffffffffffffffffffffffffffffffffffffff1663ad5c46486040518163ffffffff1660e01b815260040160206040518083038186803b1580156108b057600080fd5b505afa1580156108c4573d6000803e3d6000fd5b505050506040513d60208110156108da57600080fd5b8101908080519060200190929190505050816001815181106108f857fe5b602002602001019073ffffffffffffffffffffffffffffffffffffffff16908173ffffffffffffffffffffffffffffffffffffffff16815250508260010183600a01546003811061094557fe5b0160009054906101000a900473ffffffffffffffffffffffffffffffffffffffff168160028151811061097457fe5b602002602001019073ffffffffffffffffffffffffffffffffffffffff16908173ffffffffffffffffffffffffffffffffffffffff16815250508260070160009054906101000a900473ffffffffffffffffffffffffffffffffffffffff1673ffffffffffffffffffffffffffffffffffffffff166338ed1739836000843061070842016040518663ffffffff1660e01b815260040180868152602001858152602001806020018473ffffffffffffffffffffffffffffffffffffffff168152602001838152602001828103825285818151815260200191508051906020019060200280838360005b83811015610a78578082015181840152602081019050610a5d565b505050509050019650505050505050600060405180830381600087803b158015610aa157600080fd5b505af1158015610ab5573d6000803e3d6000fd5b505050506040513d6000823e3d601f19601f820116820180604052506020811015610adf57600080fd5b8101908080516040519392919084640100000000821115610aff57600080fd5b83820191506020820185811115610b1557600080fd5b8251866020820283011164010000000082111715610b3257600080fd5b8083526020830192505050908051906020019060200280838360005b83811015610b69578082015181840152602081019050610b4e565b505050509050016040525050505060008360010184600a015460038110610b8c57fe5b0160009054906101000a900473ffffffffffffffffffffffffffffffffffffffff1673ffffffffffffffffffffffffffffffffffffffff166370a08231306040518263ffffffff1660e01b8152600401808273ffffffffffffffffffffffffffffffffffffffff16815260200191505060206040518083038186803b158015610c1457600080fd5b505afa158015610c28573d6000803e3d6000fd5b505050506040513d6020811015610c3e57600080fd5b810190808051906020019092919050505090508360010184600a015460038110610c6457fe5b0160009054906101000a900473ffffffffffffffffffffffffffffffffffffffff1673ffffffffffffffffffffffffffffffffffffffff1663a9059cbb8560090160009054906101000a900473ffffffffffffffffffffffffffffffffffffffff16836040518363ffffffff1660e01b8152600401808373ffffffffffffffffffffffffffffffffffffffff16815260200182815260200192505050602060405180830381600087803b158015610d1a57600080fd5b505af1158015610d2e573d6000803e3d6000fd5b505050506040513d6020811015610d4457600080fd5b8101908080519060200190929190505050508094505050505090565b6000610d6a611608565b90503373ffffffffffffffffffffffffffffffffffffffff168160090160009054906101000a900473ffffffffffffffffffffffffffffffffffffffff1673ffffffffffffffffffffffffffffffffffffffff1614610e31576040517f08c379a00000000000000000000000000000000000000000000000000000000081526004018080602001828103825260198152602001807f4f6e6c7920706f6f6c4f776e65722063616e2063616c6c21210000000000000081525060200191505060405180910390fd5b6000610e3b611608565b9050610e456119d0565b838183600a015460038110610e5657fe5b6020020181815250506000610e69611635565b90508260060160009054906101000a900473ffffffffffffffffffffffffffffffffffffffff1673ffffffffffffffffffffffffffffffffffffffff16639fdaea0c83836040518363ffffffff1660e01b81526004018083600360200280838360005b83811015610ee7578082015181840152602081019050610ecc565b5050505090500182815260200192505050600060405180830381600087803b158015610f1257600080fd5b505af1158015610f26573d6000803e3d6000fd5b505050508260010183600a015460038110610f3d57fe5b0160009054906101000a900473ffffffffffffffffffffffffffffffffffffffff1673ffffffffffffffffffffffffffffffffffffffff1663a9059cbb8460090160009054906101000a900473ffffffffffffffffffffffffffffffffffffffff168560010186600a015460038110610fb257fe5b0160009054906101000a900473ffffffffffffffffffffffffffffffffffffffff1673ffffffffffffffffffffffffffffffffffffffff166370a08231306040518263ffffffff1660e01b8152600401808273ffffffffffffffffffffffffffffffffffffffff16815260200191505060206040518083038186803b15801561103a57600080fd5b505afa15801561104e573d6000803e3d6000fd5b505050506040513d602081101561106457600080fd5b81019080805190602001909291905050506040518363ffffffff1660e01b8152600401808373ffffffffffffffffffffffffffffffffffffffff16815260200182815260200192505050602060405180830381600087803b1580156110c857600080fd5b505af11580156110dc573d6000803e3d6000fd5b505050506040513d60208110156110f257600080fd5b81019080805190602001909291905050505061110c6116f5565b5050505050565b60008061111e611608565b90503373ffffffffffffffffffffffffffffffffffffffff168160090160009054906101000a900473ffffffffffffffffffffffffffffffffffffffff1673ffffffffffffffffffffffffffffffffffffffff16146111e5576040517f08c379a00000000000000000000000000000000000000000000000000000000081526004018080602001828103825260198152602001807f4f6e6c7920706f6f6c4f776e65722063616e2063616c6c21210000000000000081525060200191505060405180910390fd5b60006111ef611608565b9050838160090160006101000a81548173ffffffffffffffffffffffffffffffffffffffff021916908373ffffffffffffffffffffffffffffffffffffffff160217905550600192505050919050565b6000611249611608565b90503373ffffffffffffffffffffffffffffffffffffffff168160090160009054906101000a900473ffffffffffffffffffffffffffffffffffffffff1673ffffffffffffffffffffffffffffffffffffffff1614611310576040517f08c379a00000000000000000000000000000000000000000000000000000000081526004018080602001828103825260198152602001807f4f6e6c7920706f6f6c4f776e65722063616e2063616c6c21210000000000000081525060200191505060405180910390fd5b600061131a611608565b90506113246119d0565b838183600a01546003811061133557fe5b6020020181815250508160010182600a01546003811061135157fe5b0160009054906101000a900473ffffffffffffffffffffffffffffffffffffffff1673ffffffffffffffffffffffffffffffffffffffff166323b872dd3330876040518463ffffffff1660e01b8152600401808473ffffffffffffffffffffffffffffffffffffffff1681526020018373ffffffffffffffffffffffffffffffffffffffff1681526020018281526020019350505050602060405180830381600087803b15801561140157600080fd5b505af1158015611415573d6000803e3d6000fd5b505050506040513d602081101561142b57600080fd5b8101908080519060200190929190505050508160010182600a01546003811061145057fe5b0160009054906101000a900473ffffffffffffffffffffffffffffffffffffffff1673ffffffffffffffffffffffffffffffffffffffff1663095ea7b38360060160009054906101000a900473ffffffffffffffffffffffffffffffffffffffff16866040518363ffffffff1660e01b8152600401808373ffffffffffffffffffffffffffffffffffffffff16815260200182815260200192505050602060405180830381600087803b15801561150657600080fd5b505af115801561151a573d6000803e3d6000fd5b505050506040513d602081101561153057600080fd5b8101908080519060200190929190505050508160060160009054906101000a900473ffffffffffffffffffffffffffffffffffffffff1673ffffffffffffffffffffffffffffffffffffffff16634515cef38260006040518363ffffffff1660e01b81526004018083600360200280838360005b838110156115bf5780820151818401526020810190506115a4565b5050505090500182815260200192505050600060405180830381600087803b1580156115ea57600080fd5b505af11580156115fe573d6000803e3d6000fd5b5050505050505050565b6000807fa506df5f541d029605b005e2b87f8940c5564e1681adf4fd4a0c5e76b5d54ac990508091505090565b600080611640611608565b905060008160080160009054906101000a900473ffffffffffffffffffffffffffffffffffffffff1673ffffffffffffffffffffffffffffffffffffffff166373cf575a6040518163ffffffff1660e01b8152600401602060405180830381600087803b1580156116b057600080fd5b505af11580156116c4573d6000803e3d6000fd5b505050506040513d60208110156116da57600080fd5b81019080805190602001909291905050509050809250505090565b60006116ff611608565b905060008160050160009054906101000a900473ffffffffffffffffffffffffffffffffffffffff1673ffffffffffffffffffffffffffffffffffffffff166370a08231306040518263ffffffff1660e01b8152600401808273ffffffffffffffffffffffffffffffffffffffff16815260200191505060206040518083038186803b15801561178e57600080fd5b505afa1580156117a2573d6000803e3d6000fd5b505050506040513d60208110156117b857600080fd5b810190808051906020019092919050505090508160050160009054906101000a900473ffffffffffffffffffffffffffffffffffffffff1673ffffffffffffffffffffffffffffffffffffffff1663095ea7b38360080160009054906101000a900473ffffffffffffffffffffffffffffffffffffffff16836040518363ffffffff1660e01b8152600401808373ffffffffffffffffffffffffffffffffffffffff16815260200182815260200192505050602060405180830381600087803b15801561188457600080fd5b505af1158015611898573d6000803e3d6000fd5b505050506040513d60208110156118ae57600080fd5b8101908080519060200190929190505050508160080160009054906101000a900473ffffffffffffffffffffffffffffffffffffffff1673ffffffffffffffffffffffffffffffffffffffff1663a694fc3a826040518263ffffffff1660e01b815260040180828152602001915050600060405180830381600087803b15801561193757600080fd5b505af115801561194b573d6000803e3d6000fd5b505050505050565b82600381019282156119bf579160200282015b828111156119be5782518260006101000a81548173ffffffffffffffffffffffffffffffffffffffff021916908373ffffffffffffffffffffffffffffffffffffffff16021790555091602001919060010190611966565b5b5090506119cc91906119f2565b5090565b6040518060600160405280600390602082028036833780820191505090505090565b5b80821115611a0b5760008160009055506001016119f3565b509056fea264697066735822122043f4e020329ea4cbe89a17918d2271660472985e91e9e79b73a9c5ec9fc9235164736f6c63430007060033",
  "immutableReferences": {},
  "source": "// SPDX-License-Identifier: UNLICENSED\r\npragma solidity ^0.7.6;\r\nimport \"../storage/StrategyStorage.sol\";\r\nimport \"../libraries/SafeMath.sol\";\r\n\r\ncontract TriPoolStrategy is StrategyStorageV1 {\r\n    \r\n    using SafeMath for uint256;\r\n    \r\n  \r\n/****MODIFIERS****/\r\n    modifier onlyPoolOnwer(){\r\n        StrategyStorage storage ss = strategyStorage();\r\n        require(ss.poolOwner == msg.sender, \"Only poolOwner can call!!\");\r\n        _;\r\n    }\r\n    \r\n/****CONSTRUCTOR****/\r\n    function initialize(\r\n        Pool _poolAddress,\r\n        IERC20 _crvToken, \r\n        IERC20 _poolToken,\r\n        IERC20[3] memory _coins,\r\n        UniswapV2Router _uniswapRouter,\r\n        address _poolOwner,\r\n        Controller _controller,\r\n        uint256 _coinIndex\r\n    ) public{\r\n        StrategyStorage storage ss = strategyStorage();\r\n        require(!ss.initialized, 'Already initialized');\r\n        ss.poolAddress = _poolAddress;\r\n        ss.crvToken = _crvToken;\r\n        ss.coins = _coins;\r\n        ss.uniswapRouter = _uniswapRouter; \r\n        ss.poolOwner = _poolOwner;\r\n        ss.poolToken = _poolToken;\r\n        ss.controller = _controller;\r\n        ss.coinIndex = _coinIndex;\r\n        ss.initialized = true;\r\n    }\r\n\r\n/****POOLOWNER FUNCTIONS****/\r\n\r\n    function updateOwner(address newOwner) external onlyPoolOnwer() returns(bool){\r\n        StrategyStorage storage ss = strategyStorage();\r\n        ss.poolOwner = newOwner;\r\n        return true;\r\n    } \r\n    \r\n    function deposit(uint256 amount) external onlyPoolOnwer(){\r\n        StrategyStorage storage ss = strategyStorage();\r\n        uint256[3] memory amountArray;\r\n        amountArray[ss.coinIndex] = amount;\r\n        ss.coins[ss.coinIndex].transferFrom(msg.sender, address(this), amount);\r\n        ss.coins[ss.coinIndex].approve(address(ss.poolAddress), amount);\r\n        ss.poolAddress.add_liquidity(amountArray, 0);\r\n       // stakeOnController();\r\n    }\r\n    \r\n    function withdraw(uint256 amount) external onlyPoolOnwer(){\r\n        StrategyStorage storage ss = strategyStorage();\r\n        uint256[3] memory amountArray;\r\n        amountArray[ss.coinIndex] = amount;\r\n        uint256 unstakedAmount = unStakeFromController();\r\n        ss.poolAddress.remove_liquidity_imbalance(amountArray, unstakedAmount);\r\n        ss.coins[ss.coinIndex].transfer(ss.poolOwner, ss.coins[ss.coinIndex].balanceOf(address(this)));\r\n        stakeOnController();\r\n    }\r\n    \r\n/****INTERNAL FUNCTIONS****/\r\n\r\n    function stakeOnController() internal {\r\n        StrategyStorage storage ss = strategyStorage();\r\n        uint256 stakeAmount = ss.poolToken.balanceOf(address(this)) ;\r\n        ss.poolToken.approve(address(ss.controller), stakeAmount);\r\n        ss.controller.stake(stakeAmount);  \r\n    }\r\n    //currently unstaking all\r\n    function unStakeFromController() internal returns(uint256){\r\n        StrategyStorage storage ss = strategyStorage();\r\n        uint256 unstakedAmount = ss.controller.unStake();\r\n        return unstakedAmount;\r\n    }\r\n\r\n/****OPEN FUNCTIONS****/    \r\n    \r\n    function claimAndConverCRV() external returns(uint256) {\r\n        StrategyStorage storage ss = strategyStorage();\r\n        ss.controller.claimCRV();\r\n        uint256 claimedAmount = ss.crvToken.balanceOf(address(this));\r\n        require(claimedAmount > 0, \"Nothing to claim\");\r\n        ss.crvToken.approve(address(ss.uniswapRouter), claimedAmount);\r\n        address[] memory path = new address[](3);\r\n        path[0] = address(ss.crvToken);\r\n        path[1] = ss.uniswapRouter.WETH();\r\n        path[2] = address(ss.coins[ss.coinIndex]);\r\n        \r\n        ss.uniswapRouter.swapExactTokensForTokens(\r\n            claimedAmount, \r\n            uint256(0), \r\n            path, \r\n            address(this), \r\n            block.timestamp + 1800\r\n        );\r\n        \r\n        uint256 tokenReceived = ss.coins[ss.coinIndex].balanceOf(address(this));\r\n        ss.coins[ss.coinIndex].transfer(ss.poolOwner, tokenReceived);\r\n        return tokenReceived;\r\n    }\r\n\r\n}",
  "sourcePath": "E:/New Desktop/Projects/AdvancedPool/contracts/facets/TripoolStrategy.sol",
  "compiler": {
    "name": "solc",
    "version": "0.7.6+commit.7338295f.Emscripten.clang"
  },
  "schemaVersion": "3.3.2",
  "updatedAt": "2021-04-19T12:27:35.183Z",
  "networkType": "ethereum",
  "devdoc": {
    "kind": "dev",
    "methods": {},
    "version": 1
  },
  "userdoc": {
    "kind": "user",
    "methods": {},
    "version": 1
  }
}